:020000041004E6
:1000000000000120CDAA0410BD7F0410A3800410BD
:10001000AA5555AA45554C420000000000000000BA
:10002000000000000000000000000000D1A8041043
:100030000000000000000000D3A80410D5A80410A0
:10004000638B0410AB930410D39D0410ABAA04106F
:10005000B7AA0410D9AA0410E9A80410DBAA041056
:10006000DDAA0410DFAA0410E1AA0410E3AA041018
:10007000E5AA0410E7AA0410E9AA041015A90410BF
:10008000EBAA0410F3A80410EDAA0410EFAA0410C0
:10009000F1AA0410F3AA0410F5AA0410F7AA041098
:1000A000F9AA0410FBAA04100000000000000000E0
:1000B0000000000000000000000000000000000040
:1000C000A1F617F637F9DCFB4FFBE3F8C6F711F999
:1000D00087FBCDFDDCFE87FE51FDAFFCCFFD93FF1E
:1000E0000300D0FEC3FD91FE3F000A01590009FF45
:1000F0000FFE99FDE3FD02FF27000B0089FEFFFCC8
:10010000ACFC65FDECFDE5FD60FDBCFC1AFC3EFCB5
:10011000A1FDA9FFF20013011201D101BB02E2020D
:100120009F023703AD045505CE03E2000DFF9DFF8E
:10013000F4010E04E204AD046C04D704CC05B0064F
:10014000EC066B06E80526063007FD075207480552
:100150004603C802A703DD049005B3057805C8046B
:10016000570419050A0764088D075505080450044B
:100170008F0405038900D9FE42FE8DFD40FC3FFB44
:100180003BFB51FB79FAB9F8F2F672F542F49DF3B4
:1001900022F43EF5D8F51FF5BCF3BEF2DCF2E7F32E
:1001A00077F5F3F6F1F7A8F86BF95FFA1CFB7CFB27
:1001B000C3FB4BFC09FDFBFD2CFF1C00E6FF7EFE94
:1001C000A5FDF4FEB0012B035502D200D2000702B8
:1001D0006D023F0195FFF2FE6BFF6A006D01130295
:1001E00015027E01FB009E000A0018FFB2FEA1FF6F
:1001F0005D01B00233034503E402B60171007200F1
:100200002602B9038D03F901EB004A015F02540392
:100210000904C5045C05B905F505CA05E0045503E4
:100220005D0292021403CB02C201E9008D00D4FFEB
:1002300005FF0DFFA4009E02A503B403D60320040E
:10024000F8031103F9013D0167004BFF36FEBEFDC7
:1002500063FDB5FC8FFB6EFA2BF998F72EF61CF6B2
:10026000D0F7DBF986FA42F988F70CF731F8A1F9F3
:1002700092F9E9F735F638F6C1F7F1F8D8F874F8DD
:100280002CF9EAFA54FC2AFD2DFE6DFFACFF9AFE14
:10029000EEFD68FF120204034301C2FECFFD46FEDD
:1002A00078FED7FD25FD38FD96FDDEFDDDFDE8FD80
:1002B000C5FDB9FD15FEC9FE13FF9BFE2AFEACFE6F
:1002C00011001E014101D000BB006801B702FF030D
:1002D0005A04B403D902E5029903A903B502B60191
:1002E000DC01C002B203CF047506C3075D070A062E
:1002F0003406AF08010B790AB407B705FC052A07D5
:100300007F070A078C063006EB051006C60618079D
:1003100047063B0551055206B506E2052B05570574
:1003200074055D04B702D901B4010A019DFFB0FE56
:10033000E9FE41FF84FE05FDEDFB9EFBAAFB8BFB66
:1003400050FBB0FABCF9ECF8D1F8E1F820F8DAF695
:10035000A0F642F84EFAFEFA75FA78FA15FC5FFE3E
:100360001B00DE004D01CB01910285032404CA036A
:1003700084023E01CF00EA00DD00E0007E0192022F
:1003800031034603BA03F6049D05F704EE03C404E3
:1003900064076F09DD08610659040804BC042805D8
:1003A000F1045C04FF031C04D504A0051D06FF0531
:1003B0000A068E061B07B80626054D03580286025C
:1003C00059034D046005470659061B058E030203B9
:1003D000F203C5046B0448030803AE03E603B60248
:1003E0006B018201E002DE03D303A2034704700520
:1003F000F7058605550404030D02C8010402F60141
:1004000028013200F4FF7700E500A700B9FF67FE7E
:100410000DFD86FC57FDA6FED4FE43FD70FBC9FA18
:100420002AFBB7FB02FC31FC73FB75F9CFF7C2F86E
:100430001FFCC1FEA6FE6DFDC5FD8EFF6D008DFF8C
:1004400089FEE0FEDCFF5300860034010C02E70168
:10045000C4008CFF1DFF53FFAAFFCAFF78FF01FFF6
:10046000F7FE83FFBEFF2BFF5FFEB3FEAAFFD7FFA1
:1004700093FE23FD9CFCC5FC15FDB0FDBDFE90FF69
:100480003B00D701980404063104310163013F05A4
:10049000310843067900A7FACAF685F5D5F76FFD4E
:1004A0005801D5FD33F47CED13F171FC7C06020A92
:1004B00001094608A6093B0C020F1F121A163B1B26
:1004C0007E207A234522E71DEF197F186E186017EA
:1004D0001515E8120E11320E69093E038EFD7CFAE5
:1004E0007EFB9EFF820212000AF98BF263F0A1F0FC
:1004F000ECEEF7E96CE4F8E0A1DF0BDF67DE3DDD51
:1005000037DB0CD834D4FACF77CB5AC789C440C371
:100510008DC214C22DC22DC2C2BFCAB976B395B165
:10052000E8B477B806B7B8B068AA79A872AB55B185
:10053000A3B8D7C020C979CFCAD135D06FCDDCCB15
:1005400027CB2DC9FCC662C9D8D388E2C7ECA4EE7C
:10055000F0EC9BEF03F83F00A2028DFF12FCB0FB12
:1005600031FE310119037704F506D10B8D11031506
:1005700091141C130515651BBE2137230F1F5D1930
:1005800033161E17FC1A8E1FA422C423E1248328CD
:10059000142EB5313830D02AEB247820FD1C801A77
:1005A0007D1ABC1D44235D29AC2E52314F2F6B297F
:1005B0009423CC20E11E931945101808F105340A44
:1005C0001F11A816C71899188819871EAC25D1299C
:1005D0008728BF251626AB28E428D426B727D62E91
:1005E0000438253D193D243C6E3D6840ED422644CB
:1005F000C7444E46AF49DF4D06507A4E614B264AFE
:100600007A4B614D6C4E834E4B4C5846283FB73C5D
:10061000D240AD45EB431C3C7D341B3175309430EA
:10062000FA313C3408340A2F7B27A421501EC81B02
:10063000D8186416CD1462138C11DB0E230A8602BF
:10064000F3F9A6F4A7F55EFBB700F0FF95F7C7EC4A
:100650008BE87FEEBBF783F97DF1BBE710E323E185
:1006600021DC86D43CCF9FCC73C762BDCFB2CCAC6B
:10067000B5ABC5AD9DB260B89FB9E2B297A87EA2F6
:1006800037A20DA3A1A200A482A870AB56A833A2E2
:10069000659F0AA1BFA2F0A199A067A060A0D59F05
:1006A000E99F46A0089EA8997298BB9D53A44FA5A8
:1006B00093A24BA444ACFEB219B321B1F8B2D4B4A6
:1006C000DFB048AB17AE86BAB7C580C893C80ECEA8
:1006D000EDD696DB61DBB6DB72DD26DCD8D728D71A
:1006E000B9DC1AE39CE57EE79CEC69F147F1BEEFCB
:1006F00093F351FA45FB45F588F2FCF9B905320C44
:10070000800C690C290E330FD60E950E2A0EF00BB5
:10071000830A140F0919F820482267212225272D62
:1007200015339732842C4924491DEA1A651E9124F9
:10073000482856289428E02C9A34FA3B08409240E6
:10074000D83EB33C8A3B613C453F40431E4612467F
:1007500005444D431446804ACF4DED4F6552275412
:10076000F252D64F5F4FCF5238563656995488546E
:10077000DB545E52154D5C488046F947CE4B504FD6
:10078000854E4C4A444A0E53975DBF5E65578D5265
:10079000C453D1510048A440DA45B250A853B34FD6
:1007A0000751BC59295F715DFB5DB9643D66435AD1
:1007B000A24B4C49D34FEE50784B724B6D5371574F
:1007C0003451834A404C5350E74D3E48DE46F8468C
:1007D0008041CD39AE38E33B4B391A31B12FF33874
:1007E0007C40823CF4330D3283342232392BF227A1
:1007F0005B29022905256222F321B51E1F19B118B4
:10080000841EB320FC18E80E3D0B170AA40361FCFC
:1008100078FEF506C60616F9AEEAECE6BBE81FE67A
:1008200093E070DF2DE1FCDD97D6A4D342D600D44F
:1008300074C616B5E3AADDA9BEADC6B5A0C18ECB00
:1008400026CD06CA53CC56D6ECDF5BE3F1E413E9C0
:100850003CECF5E9E8E6B2EAA8F222F5DDEF29EB97
:10086000D8EB54ECF9E7B9E48BE9CFF00DEF91E464
:10087000EBDD56E1A2E511E054D32DC9D5C445C244
:10088000AEC098C24AC5B1C1EBB730B1A2B218B57B
:10089000C8B0C0A906A993AD97AD49A67DA08DA308
:1008A00031ABDAAE9CAC46A873A412A26FA247A5E6
:1008B000CFA56AA19A9DA2A159AB3CB155B044AF56
:1008C00076B21DB555B21AAED1AD8AAE84AAF0A4E7
:1008D000B8A655B0D5B834BB64BCF3BF37C146BC6D
:1008E0002DB747B904BF62BEE6B575AD15AAD9A844
:1008F00057A764A8BAAC23AFD5ABDBA662A54FA6B9
:10090000E0A608A9B2AEF1B1E5ABFDA0B39D0BA581
:10091000CBACAEAC3BA94AA9C4AA78A882A637AC96
:100920009DB639BA6CB4C5AFFAB477BF76C63EC9C6
:1009300013CCAECE02CE85CC2ED075D831DE1ADEE9
:10094000EEDCA4DEEDE0C1E0F7E030E56BEBF8EEC5
:100950008DF0C4F343F8BBF90DF940FC8F05580D39
:10096000C60B60038AFE86038B0E1218371CB31C5D
:10097000671D46213E28F22EB33148304E2E702F8F
:100980002534253A113FE5417343F7459D4B2454E7
:10099000D25C8462C563BA601F5B8356FF551158F1
:1009A000D156A54F3149604DCE5C1C6CAD6FF467DC
:1009B000265F775DFA618466BB657A5E6453E049C1
:1009C000EA45A8454443483CF3358536B33CAA4044
:1009D000E53DAD382D38493EA446124CFF4B5046FC
:1009E000FF3C27346F2FA22E852ED92DA92E293218
:1009F0000D36BE38393DA3467751AC56AB551B5624
:100A0000715CAC622D612F5B635BD064446EE66EFB
:100A10005B683A61A15BFB56EB56ED5EB269516CC7
:100A20001A65015F8E62896A2E6C8D663C61026078
:100A3000535F865DF65DE361096450614B5ED75F8D
:100A400050629C5EA755A84E084CAB48A642B63FE4
:100A50001B44454A3C495D4047379533B1348C3798
:100A60000D3A183ACA35812F622C502ED530ED2F11
:100A7000412D472D69306C329230DA2B572767258C
:100A80005826812770240F1CFA131E137918981BFF
:100A9000F216F00D5407FE03D4003CFC7FF703F27E
:100AA0001AEA5DE112DC09DB5CDA2DD818D88EDC9D
:100AB000EDE0D9DE88D71ED23DD187CF18C88DBDD5
:100AC0000CB651B39FB2C1B182B055AE1CAB44AAB3
:100AD0003AB07BBB7AC3E7C188BA36B6FBB77DBAFA
:100AE000C1B880B46EB2E8B271B292AF4DADB8AEDB
:100AF00060B31CB83BBA61B86AB3C6AE62AFCAB5E0
:100B000041BC08BCDEB5CDB01EB112B321B157ACAB
:100B100085AA67AE00B4EAB6FCB5F5B257AF6EADC4
:100B2000DFAFC9B5ADB941B7C4B1CEAFCEB2D5B55F
:100B300032B603B803BF76C718CAC8C564C1BAC203
:100B40007FC815CD66CDB5CA6BC80BC903CD45D2DC
:100B50002ED647D8AFD930DAD7D72FD39ED0E5D20B
:100B600049D65DD537D1B1CFABD13DD096C6E3B92B
:100B700039B2D9AF95ACFFA5AFA0039FB19D519AF3
:100B80006999C29F5EA951AD60A91EA433A3EDA4CB
:100B900026A5E0A397A2C09F59997792FF9021962E
:100BA000E29C1BA2C5A738B0DFB8F5BD7AC0DCC394
:100BB00097C799C773C388C096C2D7C637C80DC731
:100BC000B6C7A4CBDFCF5BD24DD55BDA0EDFCDDF6E
:100BD00035DD64DB4EDC96DE02E146E460E840EAA7
:100BE000BBE7D4E265E07BE2BEE6B4E9EEE960E8AB
:100BF00085E61DE608E8B7EBE1EE69EFBEECB0E78D
:100C00005DE2D1DF27E248E780E9B5E4A2DB94D4D6
:100C100017D387D54CD9C6DD1FE21EE408E394E262
:100C2000D5E6BDEEE1F4FAF5AFF35AF156F007F16F
:100C3000A0F3D3F6A3F765F57CF366F56FF90CFB2B
:100C4000A8F895F45EF055EBA6E53CE2E8E114E285
:100C5000D6DFAFDC48DB94DB25DC55DED6E3E1E90B
:100C600083EAC9E46CDE0ADCACDB14D9AAD5C5D5AD
:100C700086DAD7DFB6E25AE325E3AEE2B1E324E851
:100C800022EFBDF498F7D0FA1100BA03C30197FD23
:100C90001AFF6508F0126717DA15BE13E914DF189A
:100CA000B11CA41E1D1F2B21D026F92D0032A4310A
:100CB0002A31ED33D83646351E31FD309936F63BB4
:100CC000153C503993382F3AF83B843E6043A34794
:100CD000A846D74169405A45384B424C414A904A50
:100CE000AA4D075013516553F8565C58C5562D56FA
:100CF000B7588F5A2F574B502D4BF449E34A2E4D7E
:100D00002C520359715EF6600163F965F46637632E
:100D1000445D415B785F08664669D46651605E5900
:100D2000F0541B53F950F94BD6450F438F455C4A9D
:100D3000BA4D294F2250B7501B50EA4EDF4EFA4EA3
:100D4000DA4D124BEC48874868488A468A438F41FF
:100D50000A425B45044B095194537B518C4E03511D
:100D6000E759EA6264642F5D3D547E528A5A4B65AE
:100D700082689461A0593D5B0C656F6B86678F60DC
:100D800014617068F06C7C6A41679B68B26AF467B2
:100D9000A26201615263D163EE60355F56612163E7
:100DA0003360A25A625724576957F5564B569353EE
:100DB000BE4CDC445642FF46044D204F914ECF4E70
:100DC000BF4E9C4A0C4462412445BF49DC48D7428F
:100DD0005D3D0E3B9C3936365F31592DB72AA3282D
:100DE000E326D4257425352506255B255B25A4231C
:100DF000D81FC31B3A184313460AC3FE65F597F084
:100E000055EDAEE7C3E03BDD85DEDDE059E0A1DD79
:100E10000EDC9ADC53DDB6DB6BD6E9CDF8C4AEBF91
:100E2000D9BEECBD83B8FEB03AAEF1B11AB691B5F9
:100E300046B3A2B41DB928BB11B97EB66DB639B799
:100E400052B7FEB75DBA70BC86BC52BCCABDAFBF5C
:100E500016C0C2C017C4C1C7F9C61DC2F2BE78C051
:100E600091C228C09EB91CB3EEAE60AD77AE0CB196
:100E7000B3B1B1AE44ABD4AB39AFFFB02DB0DEAF40
:100E80004AB0D6ADBDA8DDA67FABC7B04FB0CCACE5
:100E900023AD89B0BDAF2EAACFA847B062B8E7B6E0
:100EA000BEAE74AB21B192B71AB722B242AF7CAFDB
:100EB00026AF67AD9AADBDB1FEB701BE46C3A0C7B0
:100EC00001CA4DCA20CA1ACA42C803C328BCF5B613
:100ED000A5B3FEAF83ABFBA89DA955AA28A725A162
:100EE000D79C809CF69D099FCBA076A486A779A667
:100EF000ABA16B9D549C489D9F9E49A0A3A125A09A
:100F00005C9B1B978597A59B5F9FAFA101A5B0A98F
:100F1000D5AC07AD3EADCDAF45B22DB143AD48AA7E
:100F20008EA931AA7CAC86B1D1B6E6B76DB47CB2DD
:100F3000FEB60EC03DC878CC1FCD9DCA18C6E1C212
:100F400011C44CC8B7CAF4C880C495C063BFB4C24A
:100F50002CCAAED031D013C91EC34CC414CA16CE8D
:100F600026CE2ACC74C945C762C93AD207DCC6DD91
:100F7000BCD654D13FD54DDEBCE389E4B5E5D5E719
:100F800094E57CDDBED553D4CAD7ACDA58DABED7E7
:100F900071D43CD275D318D866DC37DDA8DCA9DE65
:100FA00058E268E288DCE0D46DD0B9CF17CFF7CA39
:100FB0003FC236B789AFCEAF26B68DBAA3B8B6B4A6
:100FC00064B5A5B95DBA0FB521AFAFADB8AE80AD10
:100FD000C8A9C0A678A562A4BDA32DA610AC40B236
:100FE00045B65CB9D3BD28C3E8C7C6CBADCFA9D23F
:100FF00043D324D2B0D17BD209D347D355D639DEDF
:10100000CEE78DEDA4ED6FEB7EEAE5EA49EBE6EB8A
:10101000CAED20F03BF113F2D9F46AF93BFCF5FB81
:10102000B7FB13FE590065FEBDFA52FCE104360D14
:10103000C50E470CFB0C2E129116DB165F15BC1467
:101040007F147F1401175E1C6120B9203421F02524
:10105000C52BB72C952AF72CC7345E39CC34B22D6A
:10106000422D50337338683A063DFA40FE41903FB6
:10107000BB3F2046B54DB450DF50A952B0545C522E
:10108000C34C1F49BE47A743A33C8939613D6B410F
:101090007A3E5B3826388B3FEB468548BE45AD42ED
:1010A0009140D43FF9400E42513F0D39243560370D
:1010B000923B233CD13A943D3945534B584C694BB4
:1010C0003C4D8F511956545A185EC95EDB5AF5557E
:1010D0002E5565585F5AAF58A1562D58E05CE26115
:1010E000E9650669766A3B69BC666A656F66C368CE
:1010F000876B7E6EF7705A71876F276D626CBD6C5F
:101100005C6CDB699366FD64C6659066AC640361E4
:10111000D15F2D63E66718698C663964FE643867B1
:10112000D368006A966B556C036B9869236B8E6F5E
:101130001B730173BB6FD96AAC658B61326015613B
:10114000F261B661A0627266226B316D796CDC6B04
:10115000A46C5E6C6668B661D15BEA5880576354D4
:10116000524E52488546BE4884499044243D333A05
:10117000403D0440353D233732330432A52FB52A94
:10118000172652243124622348218E1E4D1C541CE4
:10119000DE1F7F24CD250123712062215D23C4221F
:1011A000082179220727872A122BBF2AB52A2C2942
:1011B0004526CD257429612D9B2D802C242E4C3164
:1011C000D030522CBD2894284D282025D5212D2201
:1011D00073240B24F020611F90213D240C23021E58
:1011E000DD183117EA18E71AB7197F152611B60E60
:1011F0006F0C8308EA04C0054A0B7E11DB148915C5
:101200004C142811690D420C330EC00E0A0B9106C6
:101210001707740BAA0D6A0BD60814092A0A130AB9
:10122000A90A180D400E740B7A08290ADA0DFC0B76
:10123000E2024EF939F48EF06FE986E079DBC0DB2B
:10124000E0DDA3DE05DEA7DCF6DAE7D93CDA3EDA3C
:101250003FD72FD251CEE4CC1ECBB7C726C542C54F
:101260003FC518C2EABD9CBD88C1E2C4ADC45CC321
:101270001FC487C61EC80BC9F9CAD3CD4ACF19CE21
:1012800067CB00C9BEC7A8C79CC844CA42CCA8CE79
:1012900044D10DD307D3DAD12BD138D1B7D0F9CE81
:1012A00025CD76CC61CCFFCB88CBB0CB2ACC4FCC34
:1012B0009DCC7BCD69CDFEC92DC41AC0E6C076C4D5
:1012C00054C665C494C02FBD48BBBFBA7ABB60BCCE
:1012D00072BC68BC0DBF65C531CCF9CE8FCD29CCB1
:1012E000F2CD0DD1C5D181CF29CD5BCC3DCB35C75A
:1012F0005DC184BDB3BEC3C32BC9D0CB82CBB6CA3C
:10130000C4CBECCE69D171D03ACBBDC3A8BC9BB7DE
:1013100019B545B4CEB38EB2BEB03DAF58AE49ADEF
:10132000C9AB45AA8CA879A5A0A0EE9B12995097AD
:10133000C094E191C190EE90588F4F8B2B894F8CC8
:10134000F9914E94D192ED921B98369F41A350A3F0
:10135000D9A130A09F9EAE9EAFA1DEA556A7ACA599
:10136000B4A310A322A2BEA0EBA188A768AD6EAE65
:1013700050ABB4A9ECABD8AE1AAFE8AD45AD9DAC5F
:101380006DAA0EA8E7A798A9F9AA03AC6BAE62B143
:10139000C6B1C3AE2AACE3AC14AFEDAE7FAC51AB7B
:1013A00017AD26B0BCB248B539B803BA64B9C0B7F6
:1013B0005EB809BC1FC13EC50CC824CAFFCB9ECD78
:1013C000F6CECDCF1ED0FFCF19D0A8D0B1D170D3DB
:1013D000ECD64CDCE5E1B7E402E420E282E226E56B
:1013E000AFE61BE4DDDEF7DA39DA70DA97D8A2D49B
:1013F000B3D066CE77CD7DCD44CE50CF3ED08FD109
:1014000077D386D4C8D1D8CBAEC680C554C65BC509
:10141000C7C26AC2F0C5AECAD3CD54D0C9D366D74D
:1014200017D9E6D948DC71E0B3E309E564E67BE966
:10143000D9EC71EE56EE70EECFEFA4F2CBF6F1FAE6
:1014400053FC15FABCF72FFA72015808F70A8A0AFA
:10145000DD0A820C230E4C0F5D116C14DC16CA17CA
:101460006518DD192E1CA31E00218C225C22102180
:101470003E211824432743278324D722BA246C28EB
:10148000DA2AB82B0F2D4630CE345039EC3CFF3ED3
:10149000C23FCA408A439547154A6F49C3466D44C7
:1014A000B4435C44A046A34A374F67529653155441
:1014B000ED548A559855FD551657D9562753814DE9
:1014C0005A4992474D453C41373E483F30423242AF
:1014D0008D3E523B193B703BF0386734AE30A52E41
:1014E000A72CAD2A362A372B782B0E2A0E29972ABD
:1014F0007E2D9D2F7B3036312632EC323034F23661
:10150000703A9F3C283D0D3ED34061445746EF451D
:1015100045447D436545F949E64E2351D95028514C
:10152000E4538456E0550A536652BF55645AE45C4E
:10153000CE5CD25AEA573E552D55AA5772591858C3
:10154000BA553D562D59165A1E574C532652125312
:101550008353E1527552A6520E53BA5340552F573A
:101560006A599E5C78600462E05E475ADA59805E90
:101570009162E9617D5F11603D6362646E628060CB
:10158000E46072626764F567796C7C6E866CAC6A45
:10159000876C836FA96D7A662A5F195B6D58115548
:1015A000A952B9528152A74EDA489545DC453D46CD
:1015B000F6448643024300410D3CCB3650349F3302
:1015C0002F310A2D7B2A162B7E2C9C2CB32CD42E4B
:1015D00060327635C0371E3AE33B673B2539B23778
:1015E0006038733922393D38E138673B3A3E3F4035
:1015F0006C41BD41E240803F2D3F344012414D409F
:10160000B33E3E3EA53FCF417F4332447B438B41B7
:101610008D3F783F11418141C83EAF3AF038163ACC
:10162000C63A54384834BB31F630F52F3D2EBC2D28
:10163000572F3731603190306C300931D9317733E1
:10164000D036113A013AA536B633D93321355C3458
:10165000A431852FFB2E8A2E602D532C252CD72CC0
:10166000942E893176336731572B3125A221B61E4E
:101670003E1A56156912A40FEA096A024BFE4EFE85
:1016800054FD19F880F235F1D7F15FEE68E689DF95
:10169000E5DC6BDBBED7E7D236CF3BCC19C94EC7F2
:1016A0002EC84AC9ADC7EFC41AC52BC818CADAC8B4
:1016B00095C7F8C8E6CB34CE35D071D2D3D251CF4E
:1016C0004DCAFCC704C913CA5AC953C8B4C8E4C92F
:1016D0003ECB32CD38CFF4CEB5CB6EC8D2C762C8C0
:1016E000D4C66CC390C1B7C274C4A8C412C451C4D8
:1016F000E9C46AC47DC2BFBFBBBC30BA6FB99FBA70
:101700008EBB9BBAB0B8F1B7F7B7C3B672B4C1B36A
:10171000E6B5B6B8D4B904BAEFBAF5BB4DBBC2B999
:1017200038BA73BD25C04EBF8ABB87B88CB827BBFB
:1017300083BE61C11CC3E5C329C434C4E1C3E9C28B
:10174000FDC1B7C180C1E8BF74BC9EB8CDB5EDB3D3
:10175000A7B190AE1AABF5A761A513A43EA4DFA470
:1017600041A42BA2D2A00CA192A04E9C2995CF8F70
:10177000B28E2E8F598DA489D7876789208CC78D0B
:101780009B8F23934D977A9974990C9968992A9A0B
:101790008D9B719EF8A16EA3ECA14AA074A180A4B8
:1017A00045A6A7A569A40FA481A4EDA5ECA8A7ACA4
:1017B00052AEF4AC50ABB8ACC0B01BB4C3B408B4B8
:1017C000D9B300B5EBB6B7B83EB9B5B820B96BBC64
:1017D000E5C0F0C132BE89B9F6B80ABC72BEF5BD2B
:1017E000ADBC54BDF6BF73C369C7A9CBF1CED3D08E
:1017F000A5D2CCD505D993DAA9DA84DB7CDDFFDE6E
:10180000A6DFE3E064E310E573E4CBE348E6C0EB76
:1018100031F0CCF0CBEE21ED89ED56EF40F1FBF14C
:10182000D0F01BEED6EAC6E709E522E303E33FE486
:10183000BEE495E2A5DE38DB7FD999D8C6D7E5D6D8
:10184000B9D5BAD347D1FBCF22D054D008CF27CDBA
:1018500094CCCDCDE1CFDAD176D357D4A3D4F6D57D
:10186000C4D9E8DE30E2B2E21BE3D5E562E98DEAF5
:101870005FE925E907EC4DF04DF38BF463F5F7F6DE
:101880002AF9AFFBBDFD8EFE10FEB6FDB1FEA50030
:1018900048023B031A04DE041B055505B0060D097A
:1018A000BF0A080B500BF20CDF0E290FAE0D3A0CDD
:1018B000F00B6F0C1D0D820D030D4E0BFE09760B08
:1018C000510F2A12F511571136141C1AC01EB61FDB
:1018D0004D1F57204022942217213E2071211724AA
:1018E000E926AE295C2CB92EFE30ED33D8369F3771
:1018F0003F351132F130DC31E831F72F402ED72E51
:101900006C309E2FB72B2C27D524AB242A25F82406
:10191000F0239522AB21C121FB211E209C1BB41674
:10192000A5142115CA14D011AC0EFB0E94125A1630
:101930008418341A951C9A1E451F981F3621A1231E
:1019400067258226AE28DD2B8B2EBB2FCB30933222
:10195000EE338E339332D532443492359836A738ED
:10196000203B303CA13B493CD03FF9438445674490
:101970005C43C643D3441A462548714AC74ABE4809
:10198000D0464B47CB4895484B46D5433B42E44075
:10199000374093419044AE46DE467347AF4AE14E2E
:1019A000E65075508D509452F354EC556C56F457E4
:1019B000095AC85A155A2B594259235A6D5BC75CAC
:1019C0006D5D9E5C145B855AC65BBA5DAC5E1C5E49
:1019D000345CE4586254FA4F1B4D874B3C49044534
:1019E00027401B3DE83CC83D2C3D2A3A393655334B
:1019F000AC31B22F182C9D279A23BC20621E7C1C70
:101A00008A1B701B081B79199517BC167E17411984
:101A10008C1BC91D2F1F3E1F3A1F9A2028234C24C0
:101A2000DD22EE20C921BD257F297B2A4129BD2841
:101A3000212A2A2CBB2C592B2B299427082727270E
:101A40007627FC27ED28222A052B952AB028132675
:101A50007C24FD24BF26C127EC269F25D925652798
:101A6000EB27DC258122EE1F651E851CFD193A1827
:101A700036180F198F19051A631B851D051F341F92
:101A8000AF1E4F1E431E261E131ECF1D8F1DAE1DE3
:101A9000D71EBE200122FB21C9215C233D2614282C
:101AA00009273D242E226321FC1F3C1C1417EB1236
:101AB0006E10490E0E0B8F076F05820478038F019D
:101AC000D4FF7AFE6EFC01F9C6F564F49AF306F1D0
:101AD000B5ECC2E909E9B1E707E30CDDB2D975D984
:101AE00056D932D858D833DB55DE30DF98DE3BDFAD
:101AF0007AE026E033DEA2DD80DF81E1A8E125E1A6
:101B00008DE1D8E161E05CDE41DEC8DF4BE0E5DE7F
:101B1000BCDD2FDE1ADF27DFEFDEF6DE0ADEB9DB03
:101B20004FDA13DC0ADFA4DFBADDF2DCBCDE58E0FA
:101B30004BDF36DD97DCA1DC17DB9BD8ADD740D877
:101B4000BDD7A6D588D4C7D546D732D700D78FD82A
:101B500085DAEBDA0BDBC5DD08E2BAE3C7E120E0AA
:101B6000BEE182E4DBE44AE330E333E545E729E81C
:101B70002FE904EB63EC79ECF8EB79EB5EEAE2E851
:101B8000CEE81BEAB9E96FE5D3DF3BDD99DD04DD83
:101B900082D9CBD538D49AD3BED18ACFD4CEC3CEB6
:101BA000ABCC88C8C7C491C256C045BDCEBAE1B956
:101BB000E5B86DB61BB470B4F6B6EBB86AB907BA3F
:101BC000B7BB20BD50BD4BBD76BE23C022C1D4C122
:101BD00035C3DEC48DC563C5AFC584C6FBC64DC75E
:101BE00052C904CD9FCF36CFCACDBFCEE3D108D4E2
:101BF000ADD3A0D2DBD283D39DD3F5D3B6D587D7CF
:101C00004ED76DD5ABD4D1D5D4D63FD644D5C1D5DA
:101C1000F9D674D710D710D7F9D6E1D529D4E6D3A1
:101C200036D5D5D587D43FD352D451D7CBD93CDB89
:101C3000C4DCF8DE9AE006E106E151E166E11CE170
:101C400065E154E3F7E5FAE734E999EA79EC52EE15
:101C5000FCEF53F1A1F13EF056EE0AEE25EF0BEF4B
:101C6000CFEB4CE768E495E30BE3DCE12CE1B2E178
:101C700039E273E1A1DFE5DD97DC50DBFFD9DAD88B
:101C8000CED799D68DD512D5D6D40ED4CAD2D1D12D
:101C9000B8D125D2E3D207D497D51AD797D8AADAE4
:101CA00084DD26E0BBE19AE2C3E3F2E468E586E581
:101CB000D2E6AAE96DECAFED42EEF5EF9AF254F4FC
:101CC0000BF414F329F35EF491F546F626F799F830
:101CD00028FA54FB50FCD6FDE6FF4C02390480057F
:101CE000F9054B0665075A09E20A390A9E072405D9
:101CF000C204D10535062E051E04A20432068C0747
:101D000060080F0AF90C64100D136E1552188B1B26
:101D1000051E2A1F8D1FD61F04204E200A215D227A
:101D20007923192422258D27C72AF22C552DAD2C75
:101D3000E02B932A76286D26982564253A244A219B
:101D4000141E2C1CCC1BF61BC11B041BC319DB1758
:101D50006A157412190FBD0B09096D075B061D0585
:101D6000B4038F027101A7FF94FDE2FC95FE73019D
:101D70007C03600418055A064C07BB073108880924
:101D80003C0BC80C830EC410D512A3139613351444
:101D9000C215DA16A71635160B17D0188C1A431C65
:101DA000E81EE8213D2329229720A3208E212C2103
:101DB000231F171E28206524E027F1289F2842288A
:101DC0005928FA279F268F248A228721E4215F231E
:101DD000CC24072553242E24EF25DF28D92AAB2A2B
:101DE000A929092A2A2C332E922E0E2E302E3A2F74
:101DF000D02FAA2FC12F1531E6328C346A36013923
:101E0000513B9F3B6F3AE939093B0F3C093B163880
:101E10009134C530842CE1282B2774267924C920DD
:101E2000FE1DCF1D9C1E271ED41C921CFA1C951B48
:101E3000E5175114B412D311C40FE30CC10A7D0984
:101E40005A0886079A07CE07EB06FE054207510A95
:101E5000DC0B460A49080109D50BC00D1C0E460EC5
:101E6000C80EA00E3B0E760F4112D613DB12B01136
:101E7000BD12D91411159513DA128513991329126D
:101E800002115E115912A312FF122B14FD149F149C
:101E90004D14CA15D417BC17C1159A142C15671503
:101EA000A21397119A10AC0F780DC30BE30C8A0F95
:101EB00078105F0FB40F4913A917281A3F1B611C34
:101EC000DB1C311B18198A199F1C0A1F1A1FBA1E06
:101ED000C71F66211722C1220025D727D1288927AD
:101EE00012265A255C2488221221AA20751F061C5E
:101EF0007E172A141912DB0FC00D710D940E090EF6
:101F0000130AC104260129FF63FC35F825F4ADF15D
:101F100040F017EFF6EDD1EC0EEB28E98EE87FE903
:101F20007BEA3BEA24EAFDEB2AEF56F1AEF1A3F19E
:101F300000F2E9F1EAF000F0F2EFE2EF45EF43EFF3
:101F4000E4F0D5F273F389F32AF59EF740F8A2F690
:101F5000DEF5BEF705FA16FA01F95BF997FA16FAFB
:101F600001F857F72BF9A5FACEF9B3F8D5F925FC06
:101F7000AFFC2CFBC2F9EDF842F7A6F4FFF2D4F265
:101F80002FF236F0EAEE60F0E2F202F4D0F361F400
:101F900092F59BF5BFF4B4F519F98FFB28FA57F6C3
:101FA0000BF499F45EF6D3F7B8F80AF93DF81CF78C
:101FB0007FF7A8F90CFC5EFD5DFEDDFF7C00A5FE51
:101FC000A0FA81F616F38AEFABEB97E83FE704E758
:101FD000C9E634E63FE5ABE3ECE145E121E288E226
:101FE000F4DFAFDAD2D527D423D565D6F1D5BFD368
:101FF000D6D08ACEE1CDF1CE9FD0F4D1C2D2B6D325
:1020000002D547D676D79BD879D93DD94DD804D8B3
:1020100080D981DB3BDC97DB97DB59DDAADFA9E0C8
:1020200078E0AFE0C0E16AE2F9E150E1B4E19DE2BD
:10203000C3E235E21CE2DBE2D8E3A2E42FE68BE860
:1020400085EAEEEAF2EA49ECCCEE65F0CFEF2EEE4F
:102050001AED14ED93ED3CEE4FEEF6EC5BEA63E81F
:102060007CE80AEA44EB55EC90EEEFF18AF47FF558
:1020700067F6DCF8ECFBDFFD6FFEECFE61FF2DFF89
:10208000C5FEC2FF5602CB04CA052E06C0061507C0
:102090008A061806000770088708AE0612046D014C
:1020A00093FE90FB37F9A4F741F61EF50DF55FF5A9
:1020B0001DF481F030ED42EC85EC9EEA2CE64AE11D
:1020C00093DD47DA28D7B2D560D622D7E0D59ED3A4
:1020D00097D268D3C6D41ED6C5D703D905D9C4D8DC
:1020E00049DA87DDA4DF7EDFFFDE35E0ACE16FE1BA
:1020F00053E048E143E4BDE66FE758E811EB85EEB5
:10210000D0F001F2DFF224F3B9F249F348F61DFAF8
:102110009AFBA2FA53FACAFC47004502C7026E03B3
:102120009F04A105A2066A08150A6F0912068C020F
:10213000CC011204270711093E098B082708100952
:102140001B0B160D720E650F7710F4105A10890FC5
:1021500037105E126614DB149814BF14B515E01620
:10216000271879194B1A941A8A1B731ED5219422A9
:10217000C81F1F1CCE1A231B161A5E16E1117B0EF8
:10218000CE0B0809360799073D0960094607E804A0
:102190000804C4037F025500ACFEA1FD49FCA8FA67
:1021A0001BFAD3FA43FB1AFA4EF893F70CF8F3F83C
:1021B00037FA2AFCE6FD56FE1DFE83FFAC0227051A
:1021C0003E059204870581071008FF066B06C107CC
:1021D0009C09FA0A450CF60DD10E310EBA0DC00E4F
:1021E000B40F320E760B2B0BE50D0810140F720D89
:1021F000C50E4D12AE14BD14AB14A2150E161B1550
:1022000075148815A71674159512B71097108C10B1
:10221000E70F0E100A123614F31497141215A916AC
:102220007218FE19E81B0E1E381FC71ED21DE11DB5
:10223000091F2A207F202B20F41F6D2078213D22AA
:10224000EA213521C7214C24B926BD264B24AA21D9
:10225000CC1F791DB41941162E15CE1538155C12F8
:10226000410FD90D6F0D2D0CE509CE07C505C20232
:10227000A6FE3FFB86F94DF804F61FF32FF1B6F0EA
:10228000C4F0D4F048F12CF2FBF2A4F381F5AFF8DE
:10229000A8FB25FC7BFAD2F8EAF836FA8BFB5DFC4A
:1022A000E3FC10FDE4FC0AFD54FE5D00E001C10109
:1022B000A20020007F015B040A0707086B07E40601
:1022C000F407600A6A0CA20C1E0B3309FA07C70751
:1022D0001D0873089A08A808BF0890082308F60785
:1022E000C808240A830AD9080A06480495041D066A
:1022F0002507F70654063E065E071209630AAE0A72
:10230000790ACE0AE50BC80CA00CB30B070B300BF7
:102310002E0C190E08111D14B8150515351345128C
:102320001D13BA1484158614F011A60E950B3A09E4
:102330002707F004F102020249025D023401F9FEAE
:102340001BFDDDFB53FAC1F713F566F393F250F171
:1023500052EFBEED69EDC9EDD0ED72ED48EDFAEC4E
:1023600014EC1EEB7BEB7FEDBEEF48F111F3D2F5E1
:1023700092F88DF962F921FA3DFC56FD2FFC82FAA4
:10238000FEFA77FD91FF5F00E600B001EE01230148
:10239000AD005E015A023C028D018B01F801E301A0
:1023A00063010102DB0369058905F504BF04B1047B
:1023B0008C04C904C0052906C2048902E8015A0335
:1023C000C80440043E02C000DA003102B5038504AF
:1023D0006C047F041B064109F50BDF0CBD0C560D88
:1023E000FB0E9B10C511A712D0125D11190F3E0EE6
:1023F000A80FAE1171125C124B128111C70E230B84
:102400000609B70837082E06E503A8020B024A01A1
:10241000040196016F0127FFFBFBADFAFAFAE7F919
:10242000C7F552F02DEC9AE9F3E743E78CE74BE769
:102430003FE5B5E238E2B6E3C7E4D3E33DE25CE171
:1024400016E103E1E3E127E4EAE553E50CE3D4E137
:10245000A3E2F5E356E4FFE3E9E359E463E51FE7AC
:10246000FAE8D3E982E967E915EA9DEA52EA00EB66
:1024700018EE26F2E7F315F3A5F25EF484F6DFF624
:1024800024F646F632F7BEF709F88CF994FB00FC07
:10249000AEFA2FFAFDFBD9FD2EFD40FB2FFB9EFD72
:1024A000DBFF4F0043004F017D0223028F00BBFF83
:1024B0007700F6014403170436043203DE01CB0132
:1024C000AA03250695078F07F4065B063206D10698
:1024D0003E083C09AD08D9064F0549045C02A6FE3A
:1024E000B8FAF9F888F944FA5AF920F7DCF43BF322
:1024F0006AF25CF2B0F242F287F099EE85EDBBEC45
:102500006CEACEE66DE411E51FE79FE7F7E534E4FA
:10251000F8E383E486E4DAE334E3F0E220E35BE427
:1025200097E6A7E883E9E5E974EB18EE10F0B1F05F
:1025300046F1DAF241F439F49EF32AF493F512F6F7
:1025400087F5F0F5F1F7B6F99BF9FCF834FAD2FC0F
:10255000AAFEC8FEF1FE6C0089021C042B050006D1
:102560000106A5041203EC023304350514057D04AD
:10257000AE04D80543073808200816074706F706B3
:1025800023093E0B050C680B180A4508E7065B0794
:10259000040A9E0CC50C160BAF0A070D2D101D1258
:1025A0003B13FF14B81670161B14EB113D110511E7
:1025B0004E10EE0F3F110113D3121A10170DF00B2E
:1025C000310C260C240B3A0AE8096E09A507C3044E
:1025D000E901E1FF41FE6DFC47FABEF7DEF405F2CA
:1025E000CAF042F214F517F6B0F311F0BEEE88F01F
:1025F000FCF2BAF324F310F368F4C0F63CF94CFB98
:1026000016FC78FB3CFAD9F94EFAC9FACDFA2CFB44
:10261000BAFC4DFF0502F80370043E038401270154
:102620009E02620440052306DA08A40C0A0F040F78
:10263000440E370E380ED90C060B080AE10935098D
:102640005B083809DA0BB90DDB0CB00A360AEE0B61
:102650009F0DAC0DA80CD10B190B280A6D09D809D8
:10266000950A360A47084306C505840688078A087E
:10267000170A360CAD0D990D4A0CCF0ABE095F0939
:10268000120AAC0BDA0C140CFC09E4089A091A0AB9
:10269000EF07EC031001A100BE0057FFB0FC8BFA5E
:1026A000D7F949FA26FB28FBEDF88AF473F0D8EE47
:1026B000E4EE1EEE14ECB1EAB7EA51EAC9E816E816
:1026C000EBE941ECF1EBCAE93EE94CEB1BEDFEEC2A
:1026D000FEEC32EFF4F1C2F274F233F43CF8DBFBBF
:1026E0007FFDC6FEF200C702FA02BD02DB038F05C2
:1026F000F4057A054206E908350B970B250BB10B5B
:10270000300D600EA10EBB0E400F37108511B012B8
:102710005A135B1347133A138512E810FC0F4B1141
:1027200008143515D7130F126D12C414EA16ED17DD
:1027300045181A18B3165E14B212AF127213D513DD
:1027400045148415EB1607170416C1153217FE1829
:10275000D919281AFD1AC51BB91A3B185F1670162D
:10276000AB163515FC12631274135313B110AA0D76
:102770005A0D070F730FCF0C9C08EA043D020F009F
:10278000ACFEA2FDAEFBF2F72DF49AF2D3F20FF2FB
:1027900055EFA3ECE9EB4BECFCEB2FEB74EBA3EC6C
:1027A00035EDAEECA7ECD1ED08EF1EEFDCEEB7EFA8
:1027B000A6F18DF3DAF4BFF527F625F687F6DDF7F7
:1027C0003CF964F9FBF804FA71FCFDFD19FD9FFB6F
:1027D000A3FBF1FCA7FDC0FD9FFE8B002402230399
:1027E000720443068F06A0045E023E029B03660449
:1027F0001004DD0308049A0327037E04CC07E909CB
:10280000E90897064006C8077508950761071C097F
:10281000940A6E099406BC046504EC03B1026702D5
:10282000D5034505CA044C0362038905AE07F907C1
:1028300046075907FA076E07EB041F02B2009B0018
:1028400059006AFF58FE5CFDDEFBE6F9E9F8EEF997
:1028500092FB22FB07F834F428F28DF1ACF0AEEED7
:102860005AECC9EADDE958E935E98EE9C0E924E91D
:10287000DAE79EE6EFE5BBE5CDE511E674E6E3E6D3
:10288000ACE7F2E843EACAEABBEA4CEB54EDBFEF2F
:10289000D8F09EF0C7F0B8F262F52EF7A7F71DF852
:1028A0002EF946FA73FAD1F9E9F827F8F9F7F6F8AC
:1028B0000BFBD0FC06FD80FC4EFD01007C02AB0250
:1028C000020172FF1EFF83FF5200C9015E03D503A0
:1028D000C302C1014B020B046B05C405DD053506BF
:1028E000BB060A07040766062A0535047204670555
:1028F00038058303060293028204A8058205560563
:102900005006E207F208F508F907A6062C067F072D
:102910009B09E90986078C04D40341056806D9059B
:102920008704DC03D003B5039703A5035F03E40129
:10293000D3FEDAFA05F77FF483F30BF37DF1F5EEBE
:102940005CEDDEEDB1EE9BEDF7EA7DE92CEA1AEBEA
:1029500073EA2FE91EE94AEA51EBDFEBFFECB8EE30
:1029600022F09CF024F1A8F2AFF442F6EAF6F6F673
:1029700028F718F813FA0DFC16FD86FD10FFF30179
:102980001404BD03FC016E01C302AF043F069207AD
:102990006B0811086C0785087B0B470DC20BD80824
:1029A000A7073C080408A0068E06C508E30ABC0A6F
:1029B000A109E109F90AA60A2409C008620AC10BA3
:1029C000FF0ACF08EB0693050E04AC02EB01710180
:1029D000CB008800780193022602D0002D01640408
:1029E000D20785086906220436034C0357033403D3
:1029F000A7025701EDFFA0FFEA001202640142FFA7
:102A000067FDAEFC38FC36FBCAF96BF8C4F67EF401
:102A100031F2B2F0C9EF5EEE15EC36EA43EAD7EBDD
:102A20000EED86ECFCEA3DEAA3EAEBEA16EA04E9DD
:102A30006AE93FEBD1EC04EDDBECE8ED23F03AF290
:102A4000A8F3DFF430F61AF7A3F702F9C2FBC5FECC
:102A50006C00F70004025404010701092E0A820ADF
:102A6000C909A608DF08300BEC0DA50E5F0D770C29
:102A70005D0D160FBD0F050F220E190E470FE21048
:102A8000D1115B116310EA102F135115561558140C
:102A90002D14D51440147B12FA11FF13421651164F
:102AA000DE144A149C142A14FA122D133B15E21654
:102AB000841681158915291639169B166D182F1A3B
:102AC0002F190B164B145D157516FD140D12AF1052
:102AD000F510F0103F103010311196112B100A0E26
:102AE000300C540A6807AF03E2FF97FC16FAD7F8D8
:102AF00046F8D5F61FF41CF28DF2E6F326F32FF01C
:102B000039EE1DEF06F120F1D9EF8EEF24F12BF312
:102B100097F46CF5EFF51FF693F679F82AFB7FFC36
:102B200073FB46FAB5FB72FFAF025E03B402850287
:102B30006C039F04A705C506FF07A8083A080F07FE
:102B40004806C4062A085C098D0936096409440A46
:102B5000E60A510ADB08B107CE07F208340AA90ACF
:102B6000370A98099B09270A990ABC0A3F0B620C8D
:102B7000040D0F0C0A0A1109B209820AD8090708C4
:102B80008206A605E7045D041105EE0629087F0705
:102B900005060B06E90783090E09E106FB0451044B
:102BA00096040305630589051B055F041E04B20432
:102BB000CD04FF029EFF17FD9EFCCBFC60FBB2F82C
:102BC00003F74DF763F715F561F11FEF3AEFBEEF2D
:102BD000BDEEBEEC66EBECEA95EA33EA9AEAC3EBAB
:102BE000ACEC97EC26EC36EC96ECACEC50EC20EC34
:102BF000B5EC3AEE87F0E2F22BF412F4B5F38AF476
:102C000080F636F8E8F849F933FA17FB48FB0FFB72
:102C100058FB2BFCC7FC2BFDE1FDC2FEAFFE82FD85
:102C20009FFCF5FCACFD9AFD80FDE1FE0801C401AE
:102C30008800CAFF880153049405FA048B04FB043E
:102C4000FC047503B1016801A4024D048505E50586
:102C5000180561034802980240038102EB009900C5
:102C60002302C8035004C7044206A0078307930643
:102C7000BA06BF07D0075F0630052B055F05AE0417
:102C8000AB03290372028301940176031605FF0347
:102C90008901F0006A02FE01AAFD80F8B4F6CEF7C1
:102CA000DFF736F5BCF170EF5DEEC1EDD9EDFBED70
:102CB000C4EC19EA5AE82DE9F9EA2CEBE7E9D6E980
:102CC00012EC2FEF38F1E4F1A8F1B8F0E1EF66F083
:102CD00082F2DBF419F6A3F647F72EF82BF9B0FAD7
:102CE000B6FC0CFE21FEBFFE7601A2040A05E1023D
:102CF0003102F3041308D707A20594056208630A9A
:102D00002A09B006040627074808C60827098C09BF
:102D10007A096909F909A70A930A460AAE0AF70A65
:102D20003A092106ED0428072B0A540AC407540562
:102D30008C044204320399012A001FFFFEFE460064
:102D40004202FB023F02E90162030C05AF04AC0240
:102D50004501FB007B0063FF6DFF4401F2026A0244
:102D60004500BCFE37FEB7FD97FCCAFB71FBA2FA1B
:102D7000ADF8E6F50CF361F0B4EE94EE3DEF3AEE0B
:102D8000DFEAA5E769E776E966EAB4E898E6B7E638
:102D9000E8E800EBAFEB2FEBF7E9AEE887E849EAAC
:102DA000FCEC7EEE47EE0CEE5BEF96F17DF3FDF46E
:102DB000E9F603F937FAB3FAEFFB36FEE7FFA2FFB5
:102DC00002FFAA00B60458086909F008FD08B8090E
:102DD00062096807680547052107A3096E0BCD0B3B
:102DE000BA0A6F099C09F60BC60EAF0F7E0E0A0DCC
:102DF000AE0CF20CE70CDE0C480D7E0D9D0CA10B09
:102E0000030C810DDE0D560CB60A140BAC0C810DB3
:102E1000100D9C0C0F0D1D0E990F6611B512351279
:102E2000AE108110711204141013F310B9100612B1
:102E3000E011540F6B0D870E0011BE119910AD0FEC
:102E40005A0FE90DFD0A680834071B0681030F00BD
:102E5000F6FC29FA59F74AF5A3F4C6F337F127EE41
:102E6000AEED90EF25F032ED3AE90FE809EA87EC94
:102E70000EEE04EFE3EF33F068F074F113F3A6F312
:102E80005FF353F43CF7AFF997F9ACF8DCF9D8FCF1
:102E900085FE1CFE3DFEBE00BF03D3049B046D05F2
:102EA0009F075509B8091B0A750B0F0D650D550CC9
:102EB000E00A550A760BC60D720FCE0E650CD20ACB
:102EC0008A0B610D600E290EBA0D7B0D360D260D95
:102ED000C80D6D0E0E0EE10C730C1F0DC30D6F0DA2
:102EE000CF0C6F0CA90B390A8209820AAA0BB30A0C
:102EF0004B08A607F109D90C9C0DB40CDB0B430B56
:102F0000D609B8077906BC068907040835080D08F4
:102F1000D8060505160404054406CD056803BF0060
:102F2000BDFEFEFCFDFA02F980F736F604F533F437
:102F3000D2F3FDF2F7F02BEE4EEC5CECD9ED3CEF6A
:102F400057EF51EE4AED5BED49EEF2EE92EEB5ED44
:102F500095EDAEEE80F025F209F315F3DEF266F39F
:102F60001DF54CF7AEF81EF9ABF9ECFA46FCB7FCD0
:102F7000B3FC4FFDFCFEE8001C025C02F4014401BE
:102F8000E20034012502A8023C0217013C005D006A
:102F90006201B10276034A03D20257031B05E2061F
:102FA0000907E8052805AE056E060806D60449049B
:102FB0000C054706B206E8054F04BB02ED012002EE
:102FC000D7026803EE0331052F079D0877083D07F8
:102FD000A606290700083A082B084C0836083707C8
:102FE000A3052305910620098B0A640937064903C6
:102FF000630269034B04790381012000BCFFD0FE0A
:103000001AFC8DF801F6F6F4FEF361F29AF093EFF4
:10301000B7EE56EDDAEB66EBF9EB6DEC18ECD2EBB4
:1030200042ECEEECF3EC7FEC79ECF8EC9EEDA2EEEA
:1030300098F00FF344F4DCF38FF326F558F7A9F773
:1030400025F614F687F92BFE1100E3FEFDFDEBFFDC
:10305000700300066007CE08870A450BC30A510AB1
:10306000850A9D0AB409FB08A1095F0BBB0C490D39
:10307000830D840DCB0C120C590C840DAA0D540C2D
:103080008D0BC70C9B0E330EB80BE009390A300BC1
:10309000FD0AC109BE08ED07BD064C0543043F0308
:1030A000EA010C01110233044B053C04A402E001C7
:1030B000D601A701E8010503DD03E102CC001300FE
:1030C000750134037603CC02A60230035403440294
:1030D000FBFFBCFC3DF9A7F6CDF58BF57CF479F24E
:1030E000E8F08CF006F063EE17ECCDEAFAEAC8EBF4
:1030F00039EC07EC7EEBE2EAB4EAC3EABBEA58EA51
:103100005EEA4DEB84EC7FEC87EBFCEA0DECA4ED82
:10311000CBEEDBEFF2F158F472F5CAF448F466F541
:10312000DFF756FA71FC58FEEEFFCC009E01320329
:1031300083052207AC07AA07D80798076206D304BD
:10314000DC03A703A8031C047E0562078E08C808D9
:103150005709A10AAF0B290BAE0997085D0876083D
:103160000409380A460BEA0A93095A09A00A560BC1
:10317000220A0609500AC10CC40CE609CB0716093D
:10318000420C710E720FA41077117210110EE50C23
:10319000760DCE0DFA0CB20C2C0EA40F180F870D65
:1031A000070D1F0DD20B8609E5081D0AF609B106A9
:1031B0009902A500CAFF62FDBAF966F7F8F60CF6A7
:1031C00096F32EF107F0FAEE1BED02ECC7ECB3ED2F
:1031D0006EEC43EA38EA1DEC1BED07ECE4EB88EEFD
:1031E000F2F122F3B2F20EF36DF4EFF470F400F5A5
:1031F0007BF7F7F9F1FA12FB8AFB0DFC48FC3BFD6B
:103200007FFF77019F0169016E030F0702091E0806
:103210002D075708150ACF0968087E08430A680B6E
:10322000FC0A8B0AE00AAA0A0209BA075408CB0969
:10323000380A0A0AC60A020CA40BC7099D08150918
:10324000460909081307DF07D30882071405E804B5
:103250007807AF094509A307D406B00657067D06CF
:10326000D107E4081C08CE067107610924093C0651
:103270003604BC056908D908780761077908E907A9
:10328000F2045D02E901580197FE2BFB04FA80FA73
:10329000A9F9DEF68FF454F4C2F444F465F3F5F2C0
:1032A00040F282F0EDEE09EF0DF01DF049EFC2EFB4
:1032B0001BF221F4D2F3F2F1BEF0FCF0E6F106F3DA
:1032C000B2F4E9F6CDF8AFF9BCF961F926F94EF997
:1032D00050FACEFB2EFD44FE8FFF4201D302840341
:1032E000B30339047B05C4063F07A806B8054405A7
:1032F000770594051805900452056B077309F409C6
:1033000067096009320AD10A580A91098F09410AEE
:10331000A20A510A9709D808D807BE0603060B0669
:1033200071069A06290606055803C0014D017E0262
:1033300087040A06C3068407CB086809FD07B4049E
:10334000B001B00067015602A602A402DA02EB0245
:103350006D028501AF004C001600E3FF15FF6EFD06
:1033600031FB84F9F8F8BDF8A4F71BF669F579F597
:103370006BF44FF1FEEDA8ECC4EC58EC2CEB29EB10
:10338000D4ECBFED20EC6AE967E86DE973EA8AEAFC
:10339000BDEAF6EB52ED33EE20EFCCF070F224F301
:1033A00074F362F4AAF522F606F6D0F6F3F836FBCB
:1033B0008FFCCBFDF8FF92024704EA04DF05FC070F
:1033C000A50A690C890C6A0B400A5D0AEA0BA50D77
:1033D000080E580D630D0F0FF0102A11FF0FB40FD8
:1033E000341123134E13CD114110CB0FF60FD00F14
:1033F000400FA90EFD0DFF0CCF0BEB0A7E0A3A0A17
:103400001A0A2D0A660A4A0A760960087507D40660
:10341000B7063D075208A2085207270524044305B2
:1034200016070108D807D7077608F8086A088D0636
:10343000ED039D01A8002C018701DBFF3BFCB1F8E7
:1034400082F6E7F4A9F268F086EFCFEF96EF23EE6D
:103450008DECDBEB7EEBAEEA95E91FE933E975E92C
:10346000B4E93BEA9EEA5BEAC4E9C4E96CEAEDEA46
:10347000F0EA2BEB35ECBFED36EFE4F0CDF268F47B
:10348000D6F49EF401F5AEF608F95AFB37FDCEFEF0
:103490003000DA0128048B0605085B086108E308A0
:1034A0005509D708C1074007D107C6085C09980924
:1034B000D809EF0962095F089F071208A809650B80
:1034C000F40BCA0AD608950744073D079A062D064D
:1034D000CA064E0833097408BC068705E3056A0767
:1034E0003A09650AD30AD20AE10AF40AF90AC40AB7
:1034F000A90A8F0A4A0ABF095B0986092F0AE80A46
:10350000AB0B8F0C8B0D100E810DE20B880922077F
:103510003C05F4030203F301D500F8FF28FF9CFDEE
:1035200005FB2EF843F666F575F4B7F2B2F09AEFA4
:10353000A7EFA0EF81EE83EC46EBB8EB4CED6CEE21
:10354000A4EE8DEE06EFEBEF6FF0DEF0C0F183F34B
:1035500060F582F6B0F62BF645F5A8F4EAF423F60A
:10356000A8F71EF945FB96FEDC015403E2028B022C
:10357000C3039F059106B10666072109BE0A780BB1
:10358000980BEA0B230C2E0C680C620D970E330F70
:10359000060F710EAA0DB40C0C0C340CAF0C940C6D
:1035A0000D0C1F0CD70C8B0C5E0AEA07C107C4096F
:1035B000650BB20AB708C2079408DA094E0ACA09AD
:1035C0008309300A940B080C530AE00605047503BE
:1035D000A504AA05AF058005C305F4056D055104D2
:1035E0003403FB017C0025FF75FE03FEFCFC7BFB26
:1035F00042FA51F9EAF7E1F530F455F389F251F165
:1036000088F024F113F29FF1F8EF1DEFEEEF8DF04B
:1036100032EFBAEC9FEBD0ECE4EE40F0B2F002F106
:10362000E9F176F341F542F63CF612F64BF766F90E
:10363000A4FAF7F91AF9D9F9F6FBBCFDC0FE31007E
:1036400056022E04F504B00525079208EB088808F9
:103650008C08B508280823074807E3088C0A2E0BB6
:10366000490BEB0B360C6B0B210A320AA50BFD0C38
:10367000FF0C5C0C180CFA0B4C0B0A0AE3085708F9
:103680001608BE07A506E2043703050349047605BC
:103690006205CF04370511069E05BA039202940312
:1036A0005005B505CA042B043E04F203DF02F00105
:1036B000A601B601F301F002330433045F02A30054
:1036C0007400C20049FF5AFC49FACAF93CF989F76B
:1036D00019F635F699F681F55BF3D7F107F17EEF30
:1036E0002CEDABEB67EB0EEBFDE986E970EA22EB24
:1036F00030EAF5E884E901EBC9EAB9E8A7E720E98F
:103700000AEB59EB1EEB5DEC81EE1CEF0EEE6DED5E
:103710008BEE68F03BF2A0F4C7F792FA51FC60FE22
:103720006201DC031E048F03D504A1074509D008FC
:10373000C408B00AEB0C480DE70C3A0EDC10391245
:103740009411EE10A211A812E21259139B146E15D7
:103750002E14ED11A0101610980E4A0C6A0B9D0C39
:103760009B0D730C5A0A9309CB0950090C08A10749
:1037700098081509DF07B4051D044503D502F402B6
:10378000CF0379045104FB039D047B053505F00349
:10379000B903340566064E05BD02F4007400D1FF7E
:1037A00004FECEFB39FA27F91AF8F3F6A0F5BCF3BC
:1037B00056F151EF71EE2AEE9AED0CED52ED3BEE23
:1037C0007CEEB8EDFBECEFECF6EC4FECD4EBA8ECB8
:1037D0001CEE8FEEDCED92EDB0EEF5EF25F0A0EFF4
:1037E000B7EF67F0F7F076F1BBF2A1F4FAF5F3F674
:1037F000E2F887FC0100CF01B0028E041B073D08F0
:103800006B079F0681073E09370A910A270BD90BE0
:10381000870B680AC509140AA20A2C0B520CAF0DBB
:10382000D40D070C1D0AB5091C0A7709D707E20653
:103830000D07EA06A4055D04670457052B06CE06AE
:103840008D070508CD077407D50777087208290882
:10385000AA0877090A096907E0067208320A1A0AF3
:103860003309F1091C0C1C0D200C690BD60CF20E4F
:10387000200F2B0D100B110A80095E088F066304C0
:1038800016021900BAFE96FDB4FB2BF915F716F6D1
:1038900033F55EF30FF19AEF3BEF00EF1CEE17EDFF
:1038A0009FECFCECE2EDEAEE7AEF24EF4EEEF6ED63
:1038B000ACEEB7EF80F03EF150F22BF3CDF2A5F174
:1038C00038F171F26DF40DF653F768F938FCE9FE42
:1038D00091008901D202AB04CC066F081609DE08FC
:1038E0007F08FF08760AFF0BB50CFE0CC50D130F01
:1038F000890F580E990C0A0C280D6D0E9D0EEE0DB9
:103900006D0D3E0DBF0C880B420A7F092B09D908AB
:103910004908C50787079C070C087408A808BF0852
:103920004009E409AF09FE07ED053D051C06D00678
:103930001E06CF048A046D054E0665063706160678
:10394000CA052A05D104E804AB048E032E027901CE
:10395000F800A6FFA5FD2FFC99FBC3FA14F9A1F707
:1039600031F7D0F6F7F400F212F0DBEF38F000F0A8
:10397000BEEF6CF0ADF13BF2F5F14DF10CF1EBF077
:103980005CF15AF276F3B9F369F3D4F387F572F781
:1039900025F8FFF732F816F9F0F9F4F99EF994F9E1
:1039A00052FAF7FB8FFE9E014B042E063207BC072E
:1039B000C007A607E8079808FE08CA089908190969
:1039C000EA094E0A720A2D0B860C620D470DC60CD1
:1039D000960C720C360C490CEB0C130D000C680A9B
:1039E000A2097409910806076E0657073E089C074E
:1039F0005A06CB05A705B5045C0345036104B20470
:103A00006A031D024A021703EA023C026B02160314
:103A1000CE028201F7007A0187015400D3FF4B01E7
:103A20002303CD02980014FFF8FE70FE80FC82FA9A
:103A3000BBF915F932F7FEF414F4F8F3D0F260F0A4
:103A400096EE03EE63EDE2EBEFEAE3EB91ED66EE6B
:103A5000C4EEFFEF54F1B7F032EE8FEC4AED85EE95
:103A600010EEACEC9EEC1BEE2CEFC7EEEDEDDBEDBB
:103A70006FEE7DEF2AF13CF39EF434F56AF639F9E6
:103A800063FC52FEA1FFEA01EA047006F6056E052A
:103A900091065608FF083509640A9E0CEA0DDE0DF2
:103AA000B90DAB0EDF0F7010BB105611E711B71137
:103AB000381122110F1147105C0FD30F9711AC1260
:103AC000A7118D0F140E940D0F0D020CED0A1C0A98
:103AD000B809BE092C0A550A50097507CB05B90467
:103AE000A5035C02D501AB02D5032A04F3037D04D0
:103AF000D3056C068A053604D8037304C004140485
:103B0000AC0210019CFFBEFE67FE33FE15FD09FBF3
:103B100097F832F6A7F3BDF02BEEC5ECB5EC15ED3A
:103B200028EDEFECD0EC1FED9FED3CEEBDEE40EF4D
:103B300081EF67EFC6EED6EDCDECE5EB25EBD2EAF3
:103B40002EEB65EC00EE17EF0FEF3CEEDCED18EF1F
:103B500092F1F8F319F5F7F52FF810FCBEFF6001AC
:103B600091013C022004E10578065006AD06A0074D
:103B70006F082109360AC00BE20C5A0D6A0D800D40
:103B8000100DDB0B620A5D09F108A1086C085D08E5
:103B90006F0856080108B107620704079C06500623
:103BA00032065B06D6064607CA065E052A0454049A
:103BB0001F05DC046B038F0229031404F003540374
:103BC000B303A504E7046D0464044105E405090694
:103BD000A806140834091709C208D1089D08080767
:103BE00028052A0436039F000FFD17FB09FB5FFA27
:103BF000A7F7A6F430F372F2A2F0C9EEA6EEAAEF90
:103C0000EFEF75EF52F055F2EBF234F1B3EF72F0E3
:103C1000C7F18FF180F0BDF0B4F145F1EBEF32F078
:103C200097F254F405F4A9F33CF5AAF7C3F82AF97E
:103C3000AAFA29FD0EFF2400BC01B1037104FE03A2
:103C40005C0464061E080A08A2070609B20B6D0D83
:103C5000860D4F0D3B0DC60CE70BAB0B130CD30BB6
:103C6000A10AC409130A400A63096808A208540992
:103C7000EA08D807B2072A085707E1041A032C03F9
:103C8000FB02000014FB4CF7E8F536F591F324F144
:103C9000B4EE71EC43EA8FE84AE790E5FEE294E087
:103CA00053DFCBDEDBDD80DC75DBD0DAC4D93BD87B
:103CB00021D77CD683D5A2D331D224D2B6D23DD25D
:103CC00078D07ACECCCCB4CA19C8F5C5E6C42EC417
:103CD00059C36BC385C5C9C804CB4FCCF9CEACD48E
:103CE000E2DBDCE158E67EEB94F2A5FA97012E07C1
:103CF000190CF7105615F118CB1BE91D341F0820BD
:103D00008E2127245927CA29162B9E2B0C2CC62C12
:103D1000FE2DBA2F8131B8324833DA33C0349A35A8
:103D20007D35A2341634ED3424377C39BC3A733AED
:103D30007639043990391E3ACB39A538D2379537C0
:103D40003B3735362035D03409350E35EB34033565
:103D50002135633409335D32C3323F33BD32DD3147
:103D6000AD31EF31EC31B231DA31C2319330E72E7F
:103D7000DE2E8730BF310331ED2F3F303F318D30A4
:103D8000752E062D432DF72D642E572F8E3057306C
:103D9000162E122CF42B2F2C872AF9270E274A27B0
:103DA000F325E52249214722C822A220781ED01FF0
:103DB000E62248230B200C1D0B1C7F1AE2155F0F17
:103DC000FE08050275F9F5F0D6EAFDE5E8DF5ED9F3
:103DD000FED551D609D7C3D569D417D56BD641D6F0
:103DE000ACD51CD703DAB3DBD8DBC8DCDFDED6DF2B
:103DF00099DE8CDDCEDEEAE0ACE1A7E170E268E3BB
:103E000027E3B8E29CE416E8B1E9A2E863E849EBED
:103E1000DEEEC3EF0CEF66F0A8F406F9EBFB3FFE15
:103E2000F500D302AC03FC04D507850A560B730BCF
:103E3000CC0CE40E850F790E590D9B0C100BDB0892
:103E400032089109780AB408FA052805F805C8056A
:103E5000D40335023802BE029B028E023103730383
:103E60000A020B00D4FE20FE10FC13F9E3F62DF637
:103E70001BF574F25CEF45EDD1EB9DE9B2E62BE466
:103E800063E2A8E0D4DE78DDFEDC3EDD0FDE6FDF2E
:103E900071E036E025DFA7DEA1DE2ADDA4D97BD6DE
:103EA0003DD6E0D70DD8DFD5D0D3CFD3BCD48ED478
:103EB000EBD38FD469D6B9D731D82BD91CDB47DCEB
:103EC000E2DBA5DBA6DDE7E095E2E0E190E065E07E
:103ED00047E1C2E2F4E470E745E893E67EE4D6E425
:103EE00067E7DBE853E75CE48FE246E284E2E4E282
:103EF0008FE389E3A6E1C7DEC3DDB9DFFBE2F9E4C6
:103F000048E501E5E1E420E504E6E4E722EA3EECE9
:103F1000C5EE5EF251F641F9E9FB74006207A90DA6
:103F2000B110371155123615A618531B331D691ED3
:103F3000161F17207D223925BD259B23B3218E22F4
:103F400086249724D2224D2228242226FF2532249B
:103F50003C220120531D641B801B831C8A1CA51B53
:103F6000581B051C4E1C251C841CEC1CE11AF51565
:103F70000211680EE20B0B0674FD16F682F153ED8A
:103F8000C7E7AAE2B0DFC6DDE4DA5BD85ED868DA5C
:103F90006BDBB3DA86DAC6DBA6DCEDDBA2DBC1DDE8
:103FA00068E0D8E083DFBDDF16E2F0E3C2E379E347
:103FB000AEE4AEE56EE4B1E2E0E3D8E730EAFEE776
:103FC000FBE2C2DEA3DC7EDB89DAF2D907DAD1DAE2
:103FD000A7DC77DFFCE1E9E21FE3B8E44DE89CEB06
:103FE00060ECEEEA66E933E9F6E993EA17EA5BE8A2
:103FF000F3E53AE4D4E33AE4DAE4D5E523E72BE762
:10400000CFE4D8E1C4E119E5B7E70FE6FFE0DFDC74
:10401000A5DB32DCFCDCDADD63DE53DDB3DA8BD822
:1040200069D826D932D9DFD847D98DD9FAD713D54F
:1040300042D308D32FD2A6CF53CD8FCD9DCF68D1F9
:1040400054D231D39CD3B9D255D188D1A7D3B3D5CB
:104050002CD683D5A5D476D3B8D2BAD364D65FD8BC
:10406000A2D8DFD96DDE63E40FE810EAA9EEBDF651
:104070003CFE51020406FB0C3F151D1ADB1A751B92
:10408000EA1DB320C522EF255C2A002D392C6F2BA9
:104090006A2E1C335F34AD31752F3A3059311B30E5
:1040A0002D2E492EA62FC22FC02E012FB730A93199
:1040B000F13055305231EF32CE331F34A034B434A6
:1040C00011345C3385338133EE31352F412DF32CA0
:1040D0007C2D202EED2EB12FDC2F132FEB2D6A2CF3
:1040E000962AD5281C28CE274426AA238E222A24A5
:1040F0009B2542232E1E5F1B5D1D3921B82288217E
:104100002E20DA1F421F8B1DE61B7F1B051CF31B95
:10411000FB1ADD19DD194A1B2F1DCC1D231CF119BB
:104120001A1AA51DB02144220F1F5F1B961AE61B09
:10413000681CBA1AE2180A195B1A931A4019551921
:10414000BC1CCF21B724B0248524A2266C29C22907
:1041500017275C240E2422261629A62B3B2D9B2DE7
:10416000CF2D982FBA32D6343D340633DE33D935CD
:104170005035D331732F2431C133B732392E5B2BF5
:104180009A2C7E2FF3309031E0323834E0337133A3
:10419000AD35213AFF3C283CEC39093941391D390C
:1041A0000B39CA391B3AE33754348032AB32993178
:1041B0008E2D1C290D2749260A243020BE1CA1194A
:1041C000F714B00E23098B056E02F0FE15FC0CFAF5
:1041D0007FF6D7F02FEC5AEB79EB0EE8CCE1F4DD6B
:1041E000D1DDF3DC99D87DD497D45ED6E3D40BD15E
:1041F0001ED019D3CAD4DAD172CD48CC7CCEAFD17F
:10420000B1D41BD77ED6EDD115CDC1CC04D0A0D171
:104210006CCFCFCC3ACC3ACC43CBC9CB85CF60D393
:104220007ED35FD17ED144D461D53ED3E4D0DCD0FF
:10423000A1D19BD165D2EBD42CD662D38DCFC4CF84
:1042400013D4B0D78FD82CD97DDA4ED921D472CFE0
:10425000F6CF5BD37FD353CF10CC5BCDD2D0C2D2BD
:1042600010D3F4D395D5EAD62BD81CDAA9DB10DB12
:104270002ED9DED87DDA3FDB45D965D658D5C4D5F1
:10428000B3D5FFD4A5D52CD866DA4FDA45D870D689
:1042900040D6FDD750DB27DFB7E106E237E1F7E193
:1042A0007DE5E8EA00F083F318F53DF542F5E5F623
:1042B000A3FAF2FE98015A02FF02EA04A207DC09FF
:1042C000410B130CFD0B0F0B970A5D0CCC0F20124A
:1042D000FC11CC102311F3121A1559170C1A021CD9
:1042E000521B30194D19E61C14202F1F181CC71B18
:1042F000CF1EE220551F141D941DC21F0020E81D73
:10430000231C941B891A34189D164F17EF18C519D2
:10431000121A011B2E1C461D3E1FC8223A25DE2301
:10432000F41F371EF31F67215F1F271CEA1BA31E04
:104330006720AA1F9B1E8C1F76218522842297222C
:10434000F5225E23DF231724AE22291F661B621984
:104350006318AE15AC10560BB5070705550263FF81
:10436000B2FC97F990F594F1D8EEFCECA6EA84E75C
:1043700073E41AE275E011E003E193E176DF48DBD4
:10438000E5D855DAE5DCA5DCD7D998D889DAE8DCB8
:10439000FFDB47D808D54ED442D5EFD5D8D5B4D514
:1043A00066D6C3D791D8CFD7D9D5A1D451D586D782
:1043B000A0D9DCDA03DB10DA54D842D757D83CDB7B
:1043C000E9DDEADE3EDED5DC6FDB8EDB1ADEA4E162
:1043D000A8E201E04FDD8ADEAEE203E5BDE39DE247
:1043E000F7E447E9C6EB4BECF1ED7EF203F882FC13
:1043F0005800C70458099D0C150EC50EBB0F9B1124
:104400005514FB16F217A216D6140D153A18A31C54
:1044100014207E218221AF213323F72542289F28B3
:104420005B27D825BB24D823802383242D26382638
:10443000E6237C21D2214824A125EC238620F11DEE
:104440008A1D951EB21F521FF81CFD19CD17881624
:10445000121598133A139D136D123B0F050D6C0E38
:104460003B116B11A30EB80C7F0D470E8A0CCC09C3
:104470004309500BB70D340F0D104910810FA20ED8
:10448000D20E9B0F620F6B0EBC0E881091118F1015
:10449000710F2510F111011319132513A512BB116A
:1044A0004512E7156F1AF41B871A8B19941A351BDE
:1044B000211AA0197F1B141DDF1B2A1A3F1C322151
:1044C000FF230723F521AD23B0250325B922FF21C2
:1044D0009A23C72580272D28812660221B1FD61FDF
:1044E0009D22FE22AC20192013237D252224DC21CD
:1044F0002623E92676281B27A42692280F2AEE28B1
:1045000099279528432AB4296F27642625279B27B6
:10451000E82674261127532740265E24A9229220DC
:10452000241EB41CF61C501D721BAE174714261215
:104530000810960C7F082B05DC027200B6FCBEF753
:10454000FBF20DF0ACEEAAEC1CE872E22DDF10E0FD
:10455000B1E21EE3DFDFFCDA01D8A8D8E1DB0ADE36
:1045600070DCCFD73FD488D422D786D8B0D791D6A5
:104570007AD670D6CCD500D6DCD759D9DBD76CD457
:104580002CD3A3D526D9C5D9B0D79BD5ADD5A7D621
:10459000ABD644D5F3D3DBD3B2D438D547D5FCD58D
:1045A000BAD7C4D82BD722D44FD346D6EAD93FDACC
:1045B0001CD765D38CD0E8CDCACB9FCC80D0B7D3E5
:1045C00032D31CD16DD105D4E2D48FD341D49DD93F
:1045D00094DFA6E06ADD1DDB0EDC92DCFBD9C4D6DD
:1045E0006ED7AEDBF4DE3FDE52DB80D909DA6CDB5E
:1045F00014DC1BDBD7D848D602D5B7D591D7E1D884
:10460000D1D8E3D748D779D7F3D709D8FDD736D94A
:1046100031DC80DFEBE0A6E050E187E467E817EAF1
:10462000BFE92AEAC0EC09F0C5F2E5F53EFA13FE4F
:1046300011FF39FEA3FE68014B0494058506D108DD
:10464000D00B9A0D3F0E3E0F1C11CE1227144416AC
:104650004019711B891BD11A211B501C941C341B3F
:10466000991907195D1942195418FA166A16221772
:10467000D818171AEF191C190819081AAD1A1C1A9C
:104680003C197519331A281A00193F189A18151968
:104690005318CA16E01547164A1743187119101B0C
:1046A000A11C3F1DF41CF71CFE1D6D1FBD1FBF1E6E
:1046B000F11D961EC91F861F371DA11A5119E31837
:1046C00004183F16561436124C0F6E0B5407B303E2
:1046D00092001FFE3EFCACF913F565EFBFEB77EBE4
:1046E000AFEB0DE996E475E2C7E3C1E426E21FDE15
:1046F00006DD79DF6BE13FE06CDDCADBA6DB74DB56
:1047000037DB5EDCDEDE8AE056DF8FDC50DBE7DCA9
:10471000A7DFD7E05FE02EE07AE1F8E2F3E2D8E14C
:10472000A0E189E22DE3EFE275E31FE64AE989EAB9
:10473000BAE9B8E837E834E7E8E511E6B2E7F6E7C2
:10474000FDE49EE1DFE19AE5D0E82DE95DE850E87F
:1047500058E8A9E7B0E7F5E916EDA4EE12EFAEF0E0
:1047600095F366F52FF548F517F701F963F94DFA5A
:104770006EFE930486082609B109DA0C0B11511359
:10478000A4134F142F164C18041AFA1BFC1DA41E58
:104790007A1DDF1B7D1B401C221DDF1DAD1E621F0D
:1047A0002C1FE91D291CC01A381A591A361AB118BB
:1047B0004B16C1142715E51527153113F71187116D
:1047C0001D10850D0A0C1B0D280E660C21095308BF
:1047D0009F0A710CFA0A300889074D09270BC30B91
:1047E000F30B350C460C580C790D580F4610740F0E
:1047F000920E0D0F0B10CF0FA90E990E5810A0128C
:1048000033143B153716F516361796178C18B8194A
:10481000281AC6190A19A1180819C91A3F1DCE1E4F
:10482000391EC21CE71C9D1F2C236225C825562556
:10483000B624FE233E23C122B4221023D0234F24CA
:104840008523E820111E251DC81E4D21CD223823A9
:1048500010238922502104201920EB21A424BA26F8
:10486000B327A027EA26E225E7247624FC24952610
:104870004B288728C826E6244A257B2775284A2600
:104880001F2321221D23A223A922E62129229E21C2
:10489000311FD11C941C001D091BDC16D1134113C0
:1048A000E312A610A40D7A0B4F09D805A102A401AA
:1048B0009D013CFFABFAA0F795F768F771F4DCF0C7
:1048C0000BF0D5F049EF3EEBBDE8BBE94EEBD3E989
:1048D0008CE692E4BFE4F5E494E4DAE476E6CBE730
:1048E0008DE742E69EE523E620E73DE7D0E5E7E2F7
:1048F00003E074DE32DE58DE86DE51DF8AE01CE142
:10490000EBE0C9E0E7E0E0DF8CDD87DC56DED6E0F7
:1049100053E06DDD0DDCC8DD82DF68DEA2DBCFD9C0
:10492000CFD86BD76BD683D7E4D9F9DABFDA7CDB83
:104930009ADDA5DE8ADD87DCBADD92DF25E03AE08C
:104940007BE18CE24AE132DF01E080E314E56EE2D4
:1049500048DF7DDF90E119E1FFDD20DC34DD79DE29
:1049600059DD07DB19DABCDA47DB24DBCEDA4DDAB6
:1049700005D978D7D9D652D7BBD732D75BD625D66B
:10498000E8D650D805DA99DBD3DCF8DD7BDF45E1EA
:10499000C3E246E47DE65BE99DEBF0ECCFEE9DF2F1
:1049A00028F733FA8CFB6CFDF1005B047D050F05E5
:1049B0001006220AD80F93140817C217FF171118F0
:1049C000E417E616ED15041668175D18001748146D
:1049D00036136B156318DC1817179216E018FE1AB9
:1049E0007A1972158A13ED158F195A1AEE17481590
:1049F0003014B31371120B11E7100C125B13161461
:104A00006114211441139E12A013FF155717F015BE
:104A1000A213B213BD16DD19721AA719F419651B7A
:104A2000951BA119D3173118B719D4197418A417E5
:104A30001518A517C114B110F50DD50C670BFB089F
:104A400058069904E4028B004CFDACF9A5F5D8F1A9
:104A50002AEF95EDAAEBCDE8D6E663E7E2E814E8A5
:104A6000C8E47BE237E3B6E4DDE35EE19EE074E2B6
:104A70006DE449E4BCE25EE1EBE053E1A4E20CE466
:104A800021E42DE3ADE3D2E61FEA84EA2AE9A3E9B3
:104A9000D5EC15EF5DEE8BECCFEC62EE98EE12EDFF
:104AA000D5EBA9EB30EBDDE913E9A1E965EA12EA00
:104AB000B5E998EA98EC66EE5CEF56EFA5EDCBEA27
:104AC0000DE965EA57EDA1EEBEED64ED1AEFB8F021
:104AD00046F0B4EE90EEC8EFB1F017F119F276F3AC
:104AE000DEF3D4F367F590F836FA29F94FF88FFA28
:104AF00023FE25FFE8FD10FE49017F047E05B00579
:104B0000660766096B09C607340709088308B107F9
:104B10001607950731084F081109B20A320B04092C
:104B200024066F056F062B062A04F002C3032B042C
:104B3000100257FF89FF97020C05F404AA036D03C6
:104B40003004C9041A05AF057906DD06BF069A06CA
:104B5000D806B407C8099C0C900E2E0EF10CB40DAB
:104B6000241152147314A1127612211563187D19A1
:104B70008B18AE17F3170719DD19131A3E19A8176A
:104B800078163817D2199F1C361E051FF71FA5204F
:104B90000C20B11E311E3E1F3520F61F431FAA1FD9
:104BA0006720B91FC31DE71C321E751F4E1E011C56
:104BB000BD1B811E4F21B521ED1F671E091E8E1ED4
:104BC0006F1F32200320B11E061EED1F5E231F251E
:104BD000D523EF21F62143234D230D2273213722C4
:104BE000C6223D222222A2238825A6253A24BB22C2
:104BF0000A22AB21E721F122AD2343225E1F8F1D44
:104C0000991D121D5F1A7D17D2160C173615FC114F
:104C10001A117F138C154A14A911B910EE10BE0F8A
:104C2000620D680C070D840CF109D8071D08FE08F9
:104C30000508F905E704C5043904CA03F804970612
:104C4000CF059B02D6006902770436031CFF8CFB5C
:104C5000F0F91EF91DF835F70DF618F460F271F24F
:104C600057F31CF2BCEED8EC9BEEC8F061EF6FEB93
:104C70006FE9A2EAE4EBE4EA39E9CBE8BDE8B3E79F
:104C800087E6D9E6CEE780E7D2E5B0E45BE4CDE3A2
:104C900092E297E10FE1EEDF9CDE2DDF52E26FE55D
:104CA000F3E583E4E8E3E6E40CE649E62BE684E694
:104CB00013E7C7E75EE86FE865E70FE6D6E52CE6A1
:104CC00038E5BEE237E127E285E3E4E22BE106E1E5
:104CD0005CE261E23CE033DE9DDDBDDCB6D960D64E
:104CE00079D5F8D64DD864D812D8D2D733D7BDD617
:104CF000BAD7A1D9F7D976D8D5D708DA9FDC63DC43
:104D00002CDADCD9E4DCAFE00CE3C2E462E750EA81
:104D100078EC38EED7F003F46EF6CDF7E0F8DAF978
:104D20008FFAD8FB70FE6A0171027D01C200A101F9
:104D3000B2026E023702C2034C064107A706AE0656
:104D400087085A0ACB0AAA0A140B060B61098A07BC
:104D5000E307E709180B4E0AA709AA0A200CFA0B69
:104D6000890A9E09D3094D0AB00AA50B220DCD0D63
:104D7000F00C9F0B910B250D6D0F1B119111F51070
:104D80007C108311A113D014C313E011AC112413B0
:104D9000CC134612581071102F122B133912FD101C
:104DA000FF10021257127A11F00F570E9D0CE20AF3
:104DB0006E09690839075A05F602A2001DFF94FE24
:104DC000F1FE82FF67FFA2FE23FEDFFE31008400BA
:104DD00007FF0BFDEEFB8DFB3EFAA2F716F555F42F
:104DE0003DF596F685F71CF84AF8ECF73DF70CF719
:104DF0005CF775F729F72FF7B5F78CF7D2F50BF4B9
:104E000010F4B1F558F617F59BF349F327F394F135
:104E1000EEEF82F03CF3DCF494F306F1AAEFC0EF7E
:104E2000D1EF8CEF80EF08F0C4F005F2BCF3A2F4F0
:104E300065F366F1BFF1EDF4DAF7B6F7A7F5BAF46A
:104E400056F5C4F551F53AF5CBF554F55AF3E2F1C0
:104E500001F3DAF512F8D7F8DDF844F8AFF617F5F4
:104E60000CF55FF625F796F623F6C0F6DCF667F547
:104E7000B6F3E0F310F594F431F263F0FCF09BF23A
:104E800051F3F9F240F2E2F0CFEE3EED27ED3EEDC8
:104E900085EB1EE99AE88EEA4CEC6CECA8ECC0EECF
:104EA0002BF1A0F1B8F0EEF04BF217F2D4EF47EE91
:104EB000D3EF24F32DF58CF5C8F5F2F6A7F8E3FA55
:104EC000C7FD73009E01F10111031805FE056B0576
:104ED000BD055908C80A2B0A9707DD06D108BD0A87
:104EE000E10A3F0B5E0D8E0F740F1C0E970E091119
:104EF00013135D13AC13FF1449165D161A16A11691
:104F00003117FE161617D818B61A411AE9170B17DB
:104F10004F19591C591D5D1CF81ACE197F18D4174A
:104F2000711876198E193E19091AA61B501CFE1B02
:104F30009B1C601E041F541DB41B991C831EA91EBC
:104F40005E1D631DC51E901E0B1C541AF91BF81E16
:104F50004620E91F1520CE20CC205320B320182155
:104F6000041FFC1AAD188019471A0E18A9140D1445
:104F700005165C17A1169E15A7157E158C14221414
:104F80005915E4162C178616C11572146012E51017
:104F900064117C124B1270112D1235140715EA138F
:104FA0007813FC143816B814C3115410F710F51107
:104FB000AF126A137E13B4115F0F300FFB1045114F
:104FC000C70E840C670D4F0F7B0E490B5A09C6099B
:104FD000E7093708C4064A07FD077606C203B00290
:104FE0009603280442032E02CA0180016E004CFF82
:104FF0007BFE3AFD34FBAFF9B4F910FA0FF9F7F67E
:1050000004F696F6F8F6CCF559F468F41AF69CF71F
:10501000B5F79FF63DF57AF4B7F490F5FCF54AF54F
:105020001AF441F3A2F266F10BF0DFEFF4F031F184
:1050300028EF34EC01EB86EB73EB34E969E64AE5E3
:105040005AE5BDE464E2DADF69DE6BDE49DFE5E004
:1050500081E22AE38AE2DFE135E2D9E280E271E12E
:105060001AE197E13BE179DF63DE2DE004E41EE71E
:1050700081E8CFE91CEC14EE23EE32EDD4ED97F08D
:1050800087F39BF43AF43DF486F55EF780F87AF8FE
:10509000DFF7ABF774F8D2F98BFA24FA42F945F945
:1050A00062FAC0FB5BFC33FCC6FB6DFB40FBA7FB5D
:1050B000AAFC03FEC9FEC1FE41FED6FD78FD3DFD02
:1050C00050FDF3FDC5FE2DFF20FF20FF26FF07FF4B
:1050D0008EFE94FE57FFDDFF25FFD7FD0BFE64001B
:1050E000C302C902FF0045000B026B04A804BF0203
:1050F00023019A013A031A04BC032F0383034304D8
:105100008D04F5032903DE0210035B0368038003AB
:105110007D03C202AE00F1FDCFFB29FB3CFB05FB8A
:1051200035FA3BF990F84BF8C3F8DCF91DFBB9FBF5
:10513000F5FB8CFC57FD24FDB1FBBFFA54FC80FF4E
:105140005A01580062FE38FE29000802A502CA0270
:10515000D9034D05B205AC049B03B803860495043E
:105160006B031A02D801580257026D01CD00E60107
:105170004D04D205CB04BB0102FF41FE47FF5600A0
:105180003400FCFEC6FD5DFD6EFD50FDDFFCDAFC6B
:105190007CFD28FEE4FDFDFCAAFC95FD03FFE4FF79
:1051A0002500450069000B0031FF5BFE0AFED4FDBF
:1051B0008FFD4AFD47FD4BFD43FD9FFD32FEFAFD8D
:1051C00049FC83FACFFA16FDB8FED5FDEBFB8BFB4D
:1051D000B2FCE5FCBAFAC6F72CF610F624F6A7F5F1
:1051E000B4F463F3BCF160F0D4EF7DEF0EEEB2EBFC
:1051F000A2E969E846E79EE5B3E42FE534E60AE66E
:10520000E5E447E4B2E419E503E56CE520E737E9B6
:10521000FCE90DE94FE7FAE5F2E57DE7AEE9DEEA04
:105220008BEA80EA9AEC04F029F24FF25CF2DFF3A9
:105230009BF5B8F59DF426F413F579F6D5F7BCF98E
:1052400002FC5AFDCEFC47FB5DFAAFFAECFB84FD95
:10525000E4FE92FFC7FF7A00010261039203970305
:10526000C604F0063308D8074D071608E409890B71
:10527000920C260D120D980CAD0C0C0E690FF10E50
:105280002A0D710CDC0DB00F0410560F330F9E0F5A
:10529000790F240F00102B127C13CB129D114C128E
:1052A0006A14AD15A914DD121212A4127D13F213A3
:1052B00012141F145014CE14CE15A6169516A1154F
:1052C000D814061591152515981341123712AC12F2
:1052D000C711480F110D210DCD0EDF0F540FA60E73
:1052E0004F0FB6101E11A2101E114B132115721470
:1052F000F511B810F311FE1353144413F712771479
:1053000090162317E915061435131F142216EE17ED
:105310003D183417F9156B1561154615191541150A
:105320007B1520155D1414149414F4147514D21301
:10533000CD13D7137212EB0F2F0EA00E5410A8111D
:105340002F1238128711E40F6F0E8C0E8D0F3F0F46
:10535000390D1F0CC70D49103D106B0D0E0BF70AD0
:105360006B0B170AA5074B068606CD0670062E06A0
:105370009706AA06E605F604A804AA047E048B0490
:10538000160548057D04D5037F046B053E04060120
:10539000BFFE00FFCCFF81FE0BFC0DFB04FC1EFCDE
:1053A000B4F91AF663F3F3F1DFF025F0B5EFEAEEA6
:1053B00050ED4FEC3BED73EF7FF0DAEFE4EECFEE24
:1053C000B0EE12EEF0ED53EFD9F0BBF05AEF11EF63
:1053D00065F0A7F17AF1F0F0F2F19EF497F78AF90F
:1053E0001FFA9DF9F0F849F9C1FAF5FB9CFB73FA35
:1053F00044FA62FB58FC52FC35FC04FD3CFE9BFE6B
:10540000F5FDFEFC4CFC29FC0DFD00FFBD00150167
:1054100062001C00A200B600E0FF3AFF5DFF47FFFC
:1054200014FE33FD87FE0101980160FF32FDCAFDC5
:105430001100B800AFFE04FC32FB5CFC1CFE0AFF4E
:10544000A7FE6BFD69FC93FC2BFDBFFC1BFBE8F981
:1054500080FADFFB4EFCE9FB08FCC0FC78FC86FA16
:1054600091F827F8A7F88BF80CF857F883F9E2F9C8
:10547000BAF818F733F6EDF582F50FF547F4A0F218
:105480000CF068EE50EF94F133F26AF061EE69EEE1
:1054900083EFE9EF49EF95EF7BF118F4F2F5CEF6E3
:1054A000E8F698F679F63EF7C6F811FAD0FA8FFBCF
:1054B000C3FCC7FD45FE47FF780192038303C90182
:1054C00097004101F5014C012500A500B2022C0412
:1054D0007F033B01C3FE5FFDD9FD2200AE028A03BC
:1054E000B50245022C03C8033402A8FFE2FE710096
:1054F00011022702EC01DD024C0477048503290325
:10550000F6038A04CA03B302D202640442063007D7
:10551000DB068C05310477038A033C031902E200A1
:10552000BD007F01C7013201E500C6012903AB03BD
:10553000DC026901F2FFD8FEAAFE61FF0E006EFFD9
:10554000D5FDBCFC74FC97FBF8F8CAF516F4E9F33A
:10555000CAF3E5F24DF28AF24DF20AF094EC72EAE7
:10556000B5EAB6EB45EB78E953E834E9F8EA56EBEF
:10557000B2E9CFE7EAE7FCE9BDEB76EBBAE9A8E8E8
:10558000D1E875E9D4E99AEA4BEC14EEB1EE38EEC5
:10559000E8ED5DEE59EF5BF0BCF156F372F453F4B5
:1055A00079F3BFF27EF290F2EFF2B7F346F41BF418
:1055B0007FF3E2F3A6F584F7FAF71DF7B6F6F3F7F3
:1055C0003CFAF4FB43FC3CFC55FD01007D02FC026F
:1055D0009C01890059011B030A04E2035104E405FC
:1055E00061076A07DC062B073208290859065A04A6
:1055F000AD0369044105E2058C06440783070707EC
:105600005806A9051805EE04C2055E077B08540874
:10561000E5078308F7096E0AF608DA06E70581064A
:105620006A07C207B9070208A1080D09CF08C00719
:105630006D066205FD04E204BE04E404F7055F079D
:10564000C507900677051406DB074E08FF06E1053F
:105650003607E809910B820B430BD60B4F0C8F0BCF
:10566000370A8509C809CE0AA60C210FCD104210B1
:105670009A0E360EA20F83103A0F4B0D470DD40E23
:10568000A10FC90E110E7A0ECB0E910DD40B9B0BF0
:10569000E70CF60DE40D9C0D250E160FAF0FA10FB4
:1056A0000D0FDD0DD00C210DE40E741035103E0FE2
:1056B000910F4E1130120411690F2A0FCF0F7E0F78
:1056C000260EC40D1B0FD810FE10AB0F090ED50C03
:1056D000E10B1B0BE20AEA0ADA0A880AA20A390B72
:1056E000F70B8D0C670D4E0E4B0EC30CD20A470AFA
:1056F0002D0BED0B4D0BF2092209F6088C087007F3
:10570000D5052604AE02D101C20190013000EAFDA8
:1057100039FC09FC47FCD0FBD2FAF7F914F973F70E
:105720002DF602F7D0F9E3FB54FB52F938F849F8AB
:105730001DF85BF76CF7F6F8EDFAFCFB3CFC4AFC55
:1057400052FC8DFCCDFDD3FF10014900E0FE26FF89
:1057500014014B02AE01B4002A01920266032B032E
:1057600068026A014F00130060017503B704F20478
:10577000270591056E05C204A20445054D057C046C
:1057800065047806C508EA081E07E4050A06BE0592
:10579000470431032804D9057106BD05F3045104FB
:1057A0002C03D9011D01C600DDFFD8FED6FEC6FFC1
:1057B000FCFFEEFE1AFE21FEE5FD51FCEBFA68FB54
:1057C000EFFC54FD49FC87FBA4FBB5FB1FFBE2FA91
:1057D000D7FA8BF9CAF6ADF4D7F4A3F5F5F4C4F310
:1057E000A1F42AF7ECF72DF52DF10DEFDDEE1FEF0B
:1057F00058EF50F0D0F1B2F272F27BF136F0D9EE00
:1058000051EE57EF4CF191F203F3D3F367F59AF6AB
:10581000E3F662F7F1F83AFAD8F9FAF8D6F98DFC1E
:10582000F5FEEBFF9D00E101D902A3020302D001C6
:105830006601F6FFD1FE74FF0101F7001EFFF6FDC1
:10584000FAFE3F00AAFFEEFD28FD58FDCEFC4EFB00
:10585000E8FA95FCB6FE43FF5CFE5CFDD6FC4EFC10
:10586000F3FB2EFCC4FCD9FC57FCE1FB6FFB42FAB6
:10587000A5F802F8F5F8F9F962F9E0F77EF7B6F85D
:10588000CCF95CF9EEF71EF755F707F870F850F809
:105890008DF799F67EF6A5F751F927FAEFF976F923
:1058A000FBF805F8AAF6DDF542F6E4F6DCF6D3F6E9
:1058B000F9F7FFF9EEFAD3F9C7F78EF673F696F615
:1058C00071F6FEF5BBF59AF5CFF5D1F50EF530F38F
:1058D00055F174F062F0D7EF72EE59ED8BEDBFEE3B
:1058E000CAEF41F034F0D1EF4BEF24EFC0EF71F08D
:1058F000B2F0CAF0AEF153F3D3F4E2F5F9F619F8C9
:1059000042F880F718F735F883F994F9CEF8EFF8F4
:1059100037FACFFAC0F9FDF7E0F67FF6D9F635F899
:1059200054FA73FB03FBF3FA19FD3B006701D9003E
:105930006C014A04BC06CC069506DF08940C4A0E9E
:10594000B70DC90DCB0F0B11AF0FB40D4B0EDF1000
:105950009E127E124312DD125613BC12FC11B511B9
:10596000451171104C10D211A313021441130A13E4
:1059700094139613C11271124D1341148514B5146A
:10598000601545156013DE107A0F900E420CE90881
:105990002707C40712083706F003060483055805D5
:1059A0004C034E0291033804030215FFF1FE5B0124
:1059B000B902650141FF35FEAAFDC4FC0BFC56FC93
:1059C0007DFCAFFB27FBA4FC0EFF93FFC8FD09FC89
:1059D0004DFC71FD3AFE1BFFDB00A202FB02AA0296
:1059E00044039704F004CF0390022A02F001B401AB
:1059F000FD01E502CB023101B0FFF7FFFF000B0113
:105A000083004201E302FE022A01290012023C0542
:105A10009E06EF0505059004A2031D0280015402B5
:105A200040032503D1027B037B043904BC026F01D0
:105A300032013401B80024000B00FCFF4DFF5CFE76
:105A40005AFE5CFF3200AAFF58FEBFFD93FE2800FD
:105A50006901D701BA014901C6007B00310097FFF7
:105A6000B7FE63FEC6FE97FE7EFCDFF956F957FBD4
:105A7000D1FC70FBBBF884F78AF75AF629F407F4D7
:105A8000CCF637F92EF8A0F588F486F4BEF270EF64
:105A90000CEEECEF71F276F3F4F323F57DF5C9F338
:105AA0001EF234F3E1F5CFF6ECF56CF64BF9B5FBED
:105AB00086FB9DFA53FBDCFC34FDC6FC67FDDDFE76
:105AC0004AFFC2FED7FEB0FFADFF6EFEE2FDDBFE79
:105AD000D4FF57FF91FEC1FE63FFBBFF1801AF0467
:105AE000C9086B0AAE097109E40A440C290CF90BC8
:105AF000070DB30EA50F92100F12F3129B11790F21
:105B00002F0FFD1060121D12D0119A124C13881223
:105B10005A113A118A11A410050F850E640F041052
:105B2000860F3D0FDE0F6810C30FE60EE90E590F0A
:105B3000D00E5F0D2F0C060BD308E7055404F004BC
:105B40007F059403B2FFA0FC9EFB5DFB71FA59F93F
:105B50004CF916FA5BFA7BF93AF84EF7A3F6ACF576
:105B600087F497F313F36BF286F14CF022EF64EEB7
:105B700078EE8AEFC9F030F194F001F0D1F09FF2A5
:105B80004CF4D4F49BF43BF4A4F3B6F26DF192F030
:105B90007AF09CF100F468F7DCFA00FE2701C604F5
:105BA000DA073A092A099B09400BC70CCE0C4A0CAC
:105BB000A60C8A0D4D0D5E0CF70C9B0FE311C8115E
:105BC00015117712861526171D16A71476145C1466
:105BD0005812160F8D0C2D0BA7090708F707D609C9
:105BE000820BE00A8C08D0061F067D050504BA0268
:105BF0008C020E0324038202EF0112029A02970222
:105C0000AD01320026FFB0FE99FE71FE8CFEFAFE59
:105C1000FCFE60FD49FA4AF7C7F554F5A6F430F3E7
:105C2000ABF1BFF017F048EF4DEED7ED08EEC3EE45
:105C3000AAEF73F0C9F064F078EF8EEE10EE8EEDFF
:105C400055EC05EA53E72EE5D6E310E3AFE264E353
:105C500061E589E796E88FE8C7E8CFE990EA29EAA5
:105C60007FE9B6E9A0EAD3EA40EA5FEAA5EB11EDE5
:105C700052EDEAECF0EC61ED06EE3CEF6DF181F3F4
:105C8000CCF37BF273F19EF1D9F130F171F04AF16E
:105C900085F3F9F5BCF70AF903FA0EFBA6FCFAFE48
:105CA000E3006C014B01EB01070329038302E402CB
:105CB0009E0468051104FC025F048B06EB052D03AE
:105CC0005D02000596073D0705066007690A680B37
:105CD0007B098C07B807CA089909240B6A0EAF1113
:105CE000CA12FC114E114D11D610930F880E3F0EA3
:105CF000EF0DDB0C450B99091808260753073808E8
:105D0000BC08D9084309F809DD09B5085208360965
:105D10007E09230754036B0055FE29FB3CF744F52D
:105D2000FAF5ECF690F6E5F6A5F9B7FC0CFD9AFB52
:105D30008BFB30FDD4FD0CFDB4FDEC005B036E026B
:105D4000330057006A029603BB0398059809CA0CF2
:105D5000970D0A0E0410DE119B111B10DE0F7D1033
:105D60004A105F0F940FCD1004114C1037116814B6
:105D7000C416AC15681390132816E317CB17CD176C
:105D80001919D9199918E2163216C6159B139C10C9
:105D90001F0FA70F3A10CC0F5D0FBF0FC30F350EAB
:105DA000AE0B78099707BD05A8048A05310752078D
:105DB0006D05E2036304AE057C05F9031F0395033B
:105DC000E103DE027801F000EE007D0096FF10FF97
:105DD000A5FE6BFD1EFB38F9C9F857F9DAF9EBF9A6
:105DE000FFF901FAB5F927F9A2F810F8C6F6BBF4E5
:105DF00064F203F0B5ED9AEB4CEA96E9C2E8ACE741
:105E000024E7A2E754E884E8FBE8A0EACDEC54EDEF
:105E1000F9EB4FEAD6E904EAF6E90BEAA4EA29EB42
:105E2000D1EA02EB8AEDA5F19DF4FCF4B7F47AF522
:105E300005F7B7F7E1F75AF826F95FF98BF9ACFAED
:105E400024FCF4FB35FA5FF946FB28FE61FF15FFE1
:105E500052FF00019A0226034803A10392036E0237
:105E600028014E01FF023805DB06C307A407990687
:105E70001F053A040F043E046E04BD042605880580
:105E80000E06140723082B081B07760683075A09FA
:105E9000520ADB095309AC09900A590B190CAB0CD7
:105EA000210CC309C7062805B8051007C207A907B2
:105EB0006A07230768068105DF048204B4037E02B3
:105EC000A2015001310034FD79F91EF77CF656F538
:105ED00054F2DEEEAEED18EF33F1D8F28DF4BDF6EC
:105EE0003FF858F86FF8EBF9D5FBEAFB55FA04FADE
:105EF00054FC33FF4000170075019D0468076F08CC
:105F0000C508F709950B9E0C4F0DC00EC9100A125B
:105F1000D911E21015104A0F670ECC0D780E3E1005
:105F200042124113261377121D121A1211127A11FE
:105F3000F1100311A011DB1154118210DF0FEF0ECD
:105F4000690D110C6D0C2F0E790F7A0E250CBA0A03
:105F50009B0B600DF70D0A0D170C290C510C160B3D
:105F6000EB080208ED08570A8E0AA80ABA0BB90C0A
:105F7000F40A860683023D013401700039FF44FFB4
:105F8000EBFF16FFA5FC6CFA4FF9F8F770F632F646
:105F9000A5F726F824F6FBF334F424F51FF36AEE94
:105FA00001EB54EA86E987E6A4E32BE35DE379E1BC
:105FB00009DF62DF6DE2F2E399E217E1DEE14FE330
:105FC000ACE3D7E3A6E5EBE78BE840E8FFE898EA27
:105FD000BFEA83E970E9C0EBB1EE89F006F2CAF3DB
:105FE000D4F449F4ADF36CF480F530F560F40FF5BA
:105FF0001EF760F8D1F8FAF90CFCCFFCFAFB4CFC68
:106000001CFFCC01D101140108039906A8077F05E4
:10601000190409068B081A08C305E3040506B5062A
:10602000D3051305AF05A306DB06A80674069B057A
:1060300003045403F304BA076B097E0980091E0A9E
:10604000690AA3095B08BE070D08DD08D609520AD4
:106050009B09E107820652065506F3047002CE0042
:10606000FF00F1013C02570272033605A905050441
:10607000C7019F002100B6FE6FFC15FB36FB1CFB21
:1060800042F952F77FF76BF9F4F94DF812F750F82F
:1060900022FAB6F9D2F7D3F725FAA0FB80FAE9F88D
:1060A00045F966FA50FA30FAA5FCD6003403F60238
:1060B0005103F5054E089F07D10539067D085109A2
:1060C0004F0828080E0A610B7E0A2909AF09D20A77
:1060D0006C0A2F09D0093A0C140E470EB00E41106D
:1060E000C211F011EA11B5124D1380125711871128
:1060F000CD12A413F713A214DC14F512830F830D31
:10610000BB0DE00D380CB70A960B2B0D720CA809CD
:1061100037082A09290A66096F08F908D6093309D8
:1061200068079B06E006DE06F205BB046F039501D7
:10613000FCFFCEFF7C0002002DFE48FD66FE70FFD6
:106140003BFE16FC57FBC9FB1DFB22F9AEF74BF7D4
:1061500051F616F437F267F1D0EF48ECCBE8C3E71D
:1061600025E898E774E654E7F2E948EBE9E90EE838
:10617000ACE75BE7BBE578E4C7E512E854E8DCE6AA
:106180003CE743EABBEC52EC42EB7FEC38EF99F092
:1061900077F03FF1A2F3ABF51CF644F67CF71DF95E
:1061A000D0F9E8F93EFABFFAFEFAC9FBF6FDB500F0
:1061B0002702FC01870199016D01D800920060015E
:1061C0005002D7026D03A504650552048702000240
:1061D0003F0342042D041704E6043805CC03F10103
:1061E000FF01A403490426034D024C038A042B0437
:1061F0001503ED03960639080A07B7046A03570327
:10620000FB0216028501B50152020903E5036D0484
:106210000C042F03C302CF025A025101CA004301EA
:10622000880199001BFFD2FD29FC1DF9C4F5EEF38E
:10623000A6F361F3D2F262F32BF5DCF544F438F205
:1062400029F263F3E1F3B5F397F429F649F6C5F4BF
:106250005CF48BF632F910FA5DFA53FC6EFF2B01F9
:10626000230178011903DF0401065E071A09EA0910
:106270004F091509340A510B260B690BE60DE21084
:1062800044119D0F740F9D11D11263113710271205
:1062900028159D1532145614391653164F13A7108E
:1062A00011119F124712AA109410B2118011A10F60
:1062B000E30E40104F111910440E500E6B0F580F83
:1062C0004E0E8C0E8F10DA1134111E109910B7116A
:1062D000971119108B0E4F0D960BC4090609710901
:1062E000F00893060A0477032F04F9030F029900BC
:1062F000FA006202C602AF01D4FFD1FD56FB99F845
:1063000036F69FF456F3D0F1ADEF28ED70EAF4E7DE
:1063100017E69DE471E3B5E2BEE2F2E247E2ECE0AB
:1063200048E016E1EAE148E1D7DF55DF54E067E1F4
:106330001DE281E314E6F0E81DEB1BED5CEF80F05D
:1063400079EFC4EDBCED5BEF35F0D5EF40F0D9F25D
:106350007DF527F6D3F5E1F6F4F8B9F9F5F819F972
:106360006FFB48FEE7FFDA0063029F038C0318030C
:10637000E0037105920574046B04880691087A089D
:106380008A071508F009680A9A089F06C906A60830
:10639000450A770AF709D8094D0AFE0A330BEC0AB9
:1063A000960AF80AFE0BF70C2D0DFF0C170D6B0D5E
:1063B000260DC70BEA0995082408D507EA06B50596
:1063C0005E057C06F1070E087E06DA048F047B0565
:1063D00004068F055904F802520181FFD8FD9AFC8A
:1063E00099FBF1FAEEFAFBFA05FAD0F73EF6F1F670
:1063F0000FF927FA8FF9A0F877F8BEF75DF599F253
:10640000D4F11EF351F42FF44EF448F63AF9D0FAD1
:106410009BFA9AFA55FCE4FE560063004000D9004E
:10642000A701190271022303A50376031003CA030F
:106430009405F4060407CA067E07AF08FA08AD08FB
:106440004709FB0AD30BE00AD1091D0B200E53109C
:10645000C510211172124613D9114B0F2D0E820F48
:106460002C11701149104E0F220F360FA60E1F0D62
:10647000250BC209AF09AF0ADA0B9C0C370D050ECC
:10648000C70EFF0E8A0E750DE40B2F0AF608AC0836
:106490008C080808070742069C05D10430049C04B8
:1064A0000D06CB069805F302C10002007B00140123
:1064B000DE0014FF13FCE9F856F6C8F314F1A8EF58
:1064C000FDF053F328F392EF0FEC8DEB60EC3AEB19
:1064D000B0E85EE813EBCAECB9EA53E793E63CE8B0
:1064E000BEE864E70DE7A1E9F2EC59EE59EE38EFAA
:1064F0000CF170F2DCF24FF3EAF3ACF3D6F215F3E1
:106500002CF569F745F873F8C7F93FFC3EFE08FF24
:1065100058FF0100770034008FFF8BFF7B00E701FD
:10652000070360031803E80219030F0331021C017B
:106530006701F10206049403F302CF033505EA0470
:10654000B002CD00C9009D01FE0100026D02CC0227
:106550009602A8029303460417034C01620131031B
:10656000A60326017BFE7FFE170062006FFFD3FFAC
:10657000E201D902390159FF9CFF58017702040357
:10658000FA033C04FE010CFE59FBADFA8FF9CFF67D
:106590009FF4C9F46EF5B3F3BEF0D1EF40F194F17E
:1065A0004FEF3DED2DEE9AF029F18AEF77EE36EFC1
:1065B0001CF0A3EF8AEE54EEF8EEF2EF23F122F393
:1065C00081F5D8F72AFA74FCE3FD26FE58FEDAFFBF
:1065D000FD01CC0225020A02E3038806550844099E
:1065E0006D0A820BCA0B8E0B140C7C0DCE0EB70FEE
:1065F0000911A81234133C1288117E12DB13B61352
:106600005B125C122E14CF15B215C114A514CB1455
:10661000E2131612AD1061105D106210B110171167
:10662000F310591029104D10C60FDC0E480FCB1176
:10663000FE13B513DA117311E712B1134B121510D3
:10664000B40E820D2D0BAA08E707EF08240AB70A3B
:10665000430B890B380A62071A05E60445056E04E8
:106660007D02230128001DFED6FA2CF819F774F6D6
:10667000D1F490F2CBF04FEF68ED2AEB99E9D5E831
:1066800061E8C0E70DE7B1E57DE35FE1ECE038E20A
:106690006BE3B9E310E49EE551E7DBE7BDE7CFE844
:1066A00031EB06ED76ED6FED4FEE8FEF13F0F1EF7E
:1066B0009DEF43EFB2EEDBEE56F096F204F4DAF41F
:1066C00042F644F86CF902F9CFF845FA55FC1BFD87
:1066D0009FFCF8FCD5FED900F901AF02C103A30469
:1066E000C304DA046405B805CA04B7031404AA0590
:1066F00050069C055205A90606087B07F805B1055A
:10670000D90681073D07E607AB0AC50DEA0E030E61
:10671000AC0C730B1D0A17099F094E0B740C3B0C34
:106720008F0B250B490AB50809088509D10B540CB4
:10673000EC0AAA0980091A09A5075C068406B206B4
:10674000F6049C01C8FE61FDA9FC48FC05FD8DFE18
:1067500039FF2CFE92FC5DFBB4F925F774F567F662
:106760002EF8A0F7AEF4F1F230F4AEF5E3F405F351
:106770003EF331F51EF687F521F647F9ADFCD7FD5E
:1067800089FDA7FD30FEBCFDD2FC45FD47FF05019C
:10679000A30129022B039503BC021A021603D70496
:1067A0006505BB0487044E0540068B06E806C50751
:1067B0001709830A200C190D8A0C4E0B7D0BB30DA3
:1067C000680FD20E860D100E9E0FE80E880BA208E1
:1067D0009D08A4099009DE08D809CF0B640C000BB2
:1067E000BF09B3092B0A680A7D0BBF0D3C0F950E3C
:1067F000C90C030C040C4C0B340A680AFB0B810C0B
:10680000CD0AD60825092D0BA80C4C0CF60A8709D1
:10681000EA07FC05F7033302C6000000F7FFB0FFEC
:106820003CFE03FC68FAE0F9F9F81BF72BF567F476
:10683000F2F392F2B4F0E9EF8DF000F14CF0B4EE27
:10684000E3ECFFEA8DE9C4E98EEB4FEDD9ED34EED0
:10685000A9EF5BF1D6F1B5F11EF329F671F8B1F8A5
:1068600063F83CF964FA6AFA0CFA0AFB0DFD37FE8C
:106870002AFE7DFEB8FF8B008A001C01EE024B044D
:10688000ED036B039D0410061E05B70279021F0578
:106890002D071B066C041105D4063C0639032301A1
:1068A000470196019200D7FFB200C80136010100EE
:1068B000ECFF4C007FFF20FEA8FEC400B8013100B1
:1068C000AAFE36FFB600BB0087FF9AFE41FE38FDE8
:1068D000B6FB5EFBD5FCF0FEC70042023503D902D1
:1068E0009E010A01820169010000CDFE2EFFB3FF67
:1068F00011FEA6FAE6F744F668F4ADF1F9EF16F0EA
:1069000062F05AEFBCED27ED2EED8CECA6EB85EB9B
:106910008DEB59EA63E8F1E729E90BEA72E944E90A
:106920000FEBF1ECCBEC5DEB9AEBE3EDE0EF3DF040
:10693000A2F0C5F209F6CFF8B1FAF6FB67FC00FC4D
:10694000F7FB6AFD74FF5F006A006601ED036806ED
:106950007B07EE07C708C009E009AC098F0AA10C44
:10696000B00EBB0F19103B1047102C103B106F10CE
:1069700061104A10DD10101296128611DB0F260FDF
:10698000830FA40F320F3E0F5C103B116310930E68
:10699000F40DA40F60125C14F414A514CA1392121F
:1069A0006E111E11B2118412F9121513D012C411F6
:1069B000BB0FC30D190DC30D4E0E1B0E000EBC0EEA
:1069C000DF0E6D0CFE07A404080443047F02DBFE07
:1069D000F5FB01FBBDFAC6F98FF8E9F730F731F5A1
:1069E0002DF234EFD1EC10EB5EEA02EBAEEB80EA75
:1069F000CBE7E1E527E63FE78FE765E710E83CE90D
:106A0000CCE9E8E9F8EA5CEDDCEFB5F149F3F2F442
:106A1000CCF582F5AFF434F4E8F303F44FF5B9F7AD
:106A200007F9D0F77AF522F5CFF641F88AF860F940
:106A3000F8FB90FE31FF91FEBEFED0FF9800C7002C
:106A40003F01EE01E4016501A20167024402370142
:106A50001E017B02FF025E018FFF3A0016025D02FB
:106A60004201E7011105B4076A07B705F7042605D7
:106A700011057E0591073B0A0D0B430AFB09B90A74
:106A8000960AE408C007A108F809CF09F6086C09BE
:106A9000080B000C050C670C460D1A0D310BE408B1
:106AA0002907F005FD041605D5051B05FA0193FE1F
:106AB00054FD7CFDC7FC5BFB74FBE2FC93FC37F9E7
:106AC000D8F5D2F5FEF7A6F8BAF653F428F338F263
:106AD000F6F069F0B7F1D8F33EF5F2F5CAF663F7D0
:106AE0000EF755F6E4F6B7F887FAC7FB79FDBDFF58
:106AF000CA0092FFADFDC5FDB8FF4A012B017D0024
:106B00007D001801D3010203AF04CB0594051C05D9
:106B1000B105A0066F0697054706BE08860AF90963
:106B20001B09570A970CC60C600A84083809C80A62
:106B3000FB0A120A2F0A4A0BA40B7D0ADE08090879
:106B4000E20709089B0843099409AE096C0ABD0BCA
:106B5000460C820BC00A340B1C0CD10BB20A2C0A57
:106B6000CB0AB60B6E0C520DD50D110D520B940ABB
:106B7000270B4A0BF709D7086D09FD09F0075A04DE
:106B80008B02FF029E02C7FF51FDA6FDF1FEA4FD90
:106B900053FA9DF895F95EFA8BF892F5E1F370F3EC
:106BA000C8F2C5F14BF164F112F185F083F0D9F030
:106BB00079F079EF86EF84F115F4D2F5D5F653F834
:106BC0003CFAE3FBDBFCC3FDBDFE7CFFCAFFC9FF53
:106BD0008CFF64FF19001C02760497056E059C0566
:106BE000B906BB076E070207FC07130A2B0BD80A6E
:106BF000670A0E0BA90B050B5C09FC072B07B506F2
:106C0000B9069D074F089007980533040304CC0389
:106C1000A502D40153022D037402CF009500410256
:106C20008F03C1021701D800DE0157025501E6FFAC
:106C30001EFF3BFF0E005D013402AC014B00D9FF8B
:106C4000F4003E02C80278033E05BE06F5057B034C
:106C5000DD01FA01B90169FF1CFCB3F955F8D5F65D
:106C600040F570F439F444F346F1FDEE26ED6EEB99
:106C700018EAF2E9BDEAF3EAD6E9B0E87DE81EE8F1
:106C80001CE6B5E367E3A9E5E6E777E83AE894E8C8
:106C900067E907EA43EB8DEDE6EF90F073F072F1F0
:106CA000E1F3CCF587F685F7D7F9ECFB29FC7AFB05
:106CB000D1FB16FDA7FD69FD61FE3A013604B7055B
:106CC0004F068F0702097109C208220822084808E6
:106CD00091085609390A2F0A77099B09100B170CDE
:106CE0003F0BDE092D0AF20B010D8B0C590CD10D57
:106CF000C50F4410970F550F1610B710AD10B710F1
:106D00009C11CC1258130D138612D9112411CE10D8
:106D10001811C111B711FA105E108B101811F9106B
:106D20003A10800F490FA90E9A0C430958062F05F7
:106D30005D0501052B036C00DEFD87FBE0F839F6ED
:106D4000A9F45FF42EF4E5F2CCF00AEF01EE02EDC7
:106D500083EB9EE9F4E7B2E6E1E55DE5E9E476E49C
:106D600091E4E5E559E894EA4FEBE2EA98EAA2EB10
:106D7000BBED36F0A3F20CF543F7DAF845F9ADF8C0
:106D8000D7F7B4F75EF8E6F86EF872F782F775F9A0
:106D900028FCFCFD5CFE5FFEA1FEDAFE70FE3AFE02
:106DA0003BFF6301EE02C902C4018301200200021D
:106DB000650056FEECFD02FF1800010061FF56FF62
:106DC0000C00060125025C030504830382025802BD
:106DD0007F03DC04BE057E0673070C089B071B07B8
:106DE000A407CA0824095C081E0856092D0B5C0C70
:106DF000D20C240D370D8C0C7D0BC90A8C0A7F0A2E
:106E0000DC0ADE0B680C370BCB084C072C0791060D
:106E100002043C017A004601230155FF8FFD0FFD5E
:106E2000AEFC69FBBEF9B3F8B5F7FDF536F484F3B3
:106E3000E4F319F415F460F477F466F3D4F1C0F1D7
:106E400082F3BDF42BF4C7F3BAF511F9ABFA3FFAAC
:106E500035FAA2FBC8FC26FC27FB9AFB09FDDDFDE9
:106E60002BFEEEFE8CFF85FEA1FC57FC39FEA8FF31
:106E7000F9FE1FFEB7FFA802DE03B50201025103AF
:106E8000FA04AC04F6020C027102220394037404A7
:106E9000F8055607F107210809089E072107BE07D4
:106EA0008009E50AC50AE409D8098C0A840A980908
:106EB0002B09010AF80AA90AAD099309AC0A100CBA
:106EC000140DED0D9D0E900ED80D2D0D470DAC0D32
:106ED000F90D170EDE0D9D0C580A85086408EE08A2
:106EE0000F087C054403D00231039A021401FDFF10
:106EF000A5FF56FF4DFEADFCBBFA85F8BBF634F698
:106F0000BEF631F71EF70AF704F7F1F5B1F31EF2FA
:106F1000BCF23EF467F45CF377F34CF5C9F6F2F695
:106F200046F75DF9AEFB84FCD3FCE5FE25021604B2
:106F300066047605C507D3087C07810646088B0AD8
:106F4000D9098A07D807730BDF0DC90CF80ADF0BC4
:106F5000EB0DF60D140C720B470C570CCE0AEA0918
:106F6000F00A040C7F0B3D0A670936081906CE04A7
:106F7000F305CF078207BF05B405E9074109C80734
:106F800075058B042804D802A3019202B604790582
:106F900069049C03B0032E03C70176014303FA047E
:106FA000AF04A9033C04D0051106F8049A0498051F
:106FB000BB05E903D7016C01D001570145000C0066
:106FC00089003B0067FEDCFBD9F86DF590F2C7F154
:106FD000AFF2D3F2F3F0CAEE12EEF0ED77ECEBE99C
:106FE00062E861E866E8CCE793E795E891E963E950
:106FF000BCE8A6E8B9E81AE87CE779E89DEA5AEC2B
:1070000046ED02EFB9F1B5F3F0F352F4B8F6BDF97D
:10701000A5FA97F954F90CFBBAFCFEFC24FDD9FE45
:107020002D010602AE01B6018202E002FF02500409
:10703000CC065508BF07AF0672062A068004020375
:107040000304BD0635089C076A074B096E0BB80B95
:10705000F00A250B760C440D680D070E7A0F771099
:10706000A610D4103B11FB1014102910A511BC124E
:10707000C5116610FB105B13FB140F15D8142415F3
:10708000C1141A13611182109F0FE00D730C8F0C45
:107090002F0D500C0E0AE607EC050003AEFF5AFE5A
:1070A00032FF2AFF33FC41F86EF640F6C2F442F19B
:1070B0000DEE80EC79EBBAE95EE84EE8CBE844E807
:1070C00053E7DFE686E641E5FEE38FE494E6AEE7CC
:1070D00019E728E79CE911ED2FEF0AF08CF1D5F3C1
:1070E0006DF5A9F524F6D4F7E7F9F8FA41FB99FB19
:1070F000F4FBF3FBB5FBA7FB66FBC1FAC4FABFFCCC
:107100008CFFA3003DFFA4FD0DFE92FFCBFF8BFE85
:1071100088FDD7FD01FE27FD4DFCE2FC1CFEFAFDBB
:1071200015FC70FA65FA75FB2CFCD9FC5AFED500EB
:10713000FA02EC032B0448044504FF031604160569
:107140005B06DA06BC068407A209D90BA50C8A0CDB
:107150000A0D390EB20E810D170C1F0CB80D370F2A
:107160003D0F0A0E660C220B240A7609CC08610832
:107170006908C808A508960702061405C104C103DA
:10718000C5019CFF91FEFAFD84FC61FAE8F8E7F87E
:1071900010F91EF82FF6A7F40EF40DF4FFF3B7F371
:1071A0004CF3F6F21FF3E6F3CBF429F510F5F4F403
:1071B0002EF59EF571F6E6F7ACF91FFB14FC0AFDFF
:1071C0001BFE93FE0FFE4CFDD3FC8CFC38FC92FCA6
:1071D00005FE1DFF33FECCFBA0FAE8FBC8FD42FE16
:1071E00089FD61FDBDFD90FDC6FCE4FC5FFED4FFA2
:1071F000F1FF3AFFC0FEA5FEAAFE03FF67002802CA
:107200009303B2045506410856090C094608C40701
:1072100066073407BF0794098E0B660CED0B2D0B28
:10722000EB0ADE0AC30A7D0A650AF90ACB0C8F0F46
:107230007311CA10170ED40B480B370B170A3208FC
:10724000E0062606DC041D0339028E02E902FF0176
:1072500075001BFF01FEB5FCCCFBC8FBDDFBC7FACC
:10726000F2F801F802F877F763F564F3F6F23EF30B
:10727000A9F29EF11CF26EF432F6D2F564F4CEF36C
:1072800037F42FF4CFF389F40DF75BFA26FD39FFBD
:10729000BC003F01DD0011013203B10646090B0AB3
:1072A0000D0A960A5A0B850B8A0B8E0C560E130F7D
:1072B000C20DC00B0A0BFF0B150D430D220DB40DB3
:1072C000750E230E4D0C4B0AB009540AFC0A8D0AA8
:1072D0009C091E096709CF09BE0956091409EB0864
:1072E000A8084B084208CA089809330A5E0A110A1E
:1072F00010097407B9058F0435044A04E30416061F
:107300009C0733083D07AA0544052706EC063A0604
:10731000E1044404920486049A03B002CC025D03A3
:10732000110378018DFF7CFE6BFEA4FE54FE2DFD43
:10733000ACFB74FAE2F930F9A1F725F59FF293F06E
:1073400005EFE5EDCAED7AEEEBEEBCED8BEB01EA75
:10735000EBE968EA58EAF7E90CEAA1EA35EBADEBAC
:107360005CECD6EC9AEC2CECE8EC1CEF0400000092
:1073700001000000DDA204100DA304102BA30410D3
:1073800047A304107FA304109DA30410CBA30410F3
:1073900047A404109DA40410FBA3041097A4041098
:1073A0001FA4041041A404107FA4041085A4041099
:1073B0008BA4041091A4041065A404100090D003C1
:1073C000F0B5020052B2002A1CD40322B64B0400CE
:1073D00064B2A40804256C431C59FF25160006401E
:1073E00008277E43B540AC438D01EDB2024008262C
:1073F000724395402543020052B29208042462432E
:107400009D5022E00F24A94A032305006DB22540B8
:10741000083DAD0804267543060076B23440083CAA
:10742000A408042674431659FF27BC461C000440D8
:1074300008277C436746A740BE438C01E4B2034063
:1074400008277B439C4034435451F0BD00B5BFF343
:107450004F8F974897490860BFF34F8F00BFFDE7F4
:1074600095490A6802430A60704794480068810899
:107470000800C007C00F704791490A68914B13403C
:1074800003430B6070478E490A6830239A430243D6
:107490000A6070478C490A6882430A60CF490A68CB
:1074A00082430A60704710B4CD490A68CD4B13403F
:1074B000C202E024A40114401C430C600A6880232B
:1074C000DB0013430B6010BC704710B4C4490A685A
:1074D000CA4B13408201F024A40014401C430C60EA
:1074E0000A68202313430B6010BC704710B4BC49DA
:1074F0000A681E239A4343001E241C4014430C6058
:107500000A68012313430B6010BC7047BC48016834
:10751000802252020A4302607047B9480068410C59
:107520000800C007C00F7047B64980220A600A6889
:10753000B54B134002021A430A607047B1490A680A
:1075400070239A4302430A607047B0490A68B04BFF
:10755000134002061A430A600A6880231B0413437F
:107560000B60704780B5AB48016802220A43026095
:10757000002100910099062904DA00BF0099491CF6
:107580000091F7E7016804220A43026001BDA149A6
:107590000A68D34B134003430B6070479848016857
:1075A00010220A43026070479548006841090800AC
:1075B000C007C00F704795490A6860239A43024389
:1075C0000A60704791490A681E239A434300134397
:1075D0000B600A68012313430B607047C1490A68B6
:1075E00006239A4302430A6070478A490A68D24BCD
:1075F000134003430B60704786490A68CF4B134022
:1076000003430B6070477E480168802292010A4361
:10761000026070477A480068810B0800C007C00FFD
:1076200070477C490A68E0239A4302430A60704726
:1076300081B0AC490A6802430A60096801400091C0
:10764000009901B07047BE490A6802430A6070475A
:10765000BB490A6882430A6070478020C005006801
:107660000007000F70478020C00500680009000770
:10767000000F7047426830239A430A4342607047C4
:1076800080B5B048006800280BD1AF4800680028DA
:1076900007D00120AD49886000F091FCFFF7D6FECD
:1076A000FCE7012002BD000000E400E01CED00E06A
:1076B0000400FA050CED00E00400504814005048A6
:1076C0001C005048FFFEFFFF2800504880B50321F2
:1076D0000020FFF775FE03210120FFF771FE032153
:1076E0000220FFF76DFE03210320FFF769FE03214F
:1076F0000420FFF765FE03210520FFF761FE03214B
:107700000620FFF75DFE03210720FFF759FE032146
:107710000820FFF755FE03210920FFF751FE032142
:107720000A20FFF74DFE03210B20FFF749FE03213E
:107730000C20FFF745FE03210D20FFF741FE03213A
:107740000E20FFF73DFE03210F20FFF739FE032136
:107750001020FFF735FE03211120FFF731FE002135
:107760001220FFF72DFE03211320FFF729FE03212E
:107770001420FFF725FE03211520FFF721FE03212A
:107780001620FFF71DFE01211720FFF719FE00212B
:107790001820FFF715FE03211920FFF711FE01BD88
:1077A00070B504000D0016003000C0B200280FD0E4
:1077B0002000FA21890000F01CFC401E6843644947
:1077C000086000206349086005206349086004E000
:1077D0006148016801229143016070BD2C0050484E
:1077E00094005048FFC7FFFF00B55B480068C00326
:1077F00001D5012000E0002000BD00003FFCFFFF9C
:107800000000404898004048FFC0FFFF0C0040487F
:10781000FFFFFFC008004048FEB500263000694663
:1078200008700122C8214D48FFF7BAFFFFF71DFE7F
:10783000002806D1FFF7D8FF0028F7D001206946BD
:107840000870002200210020FFF7AAFF6846007898
:10785000002802D06846007841E08020C000FFF791
:10786000CBFE2020FFF70FFE80204001FFF7BDFE7A
:10787000554800685549884215D10F2038490A6893
:10788000024002920A68120957077F0F0A68140A19
:1078900004400A68120B104001900868000C85062D
:1078A000AD0E012603E00824029403271E252800BC
:1078B000FFF74BFE3000C0B2002802D00198FFF75E
:1078C00081FE2000FFF712FE0298FFF7FEFD380050
:1078D000FFF7E9FD80204000FFF7CEFD0020FEBD50
:1078E000FF7FFEFF6000404810B500240122962172
:1078F00049001A48FFF754FFC0208001FFF7CAFD76
:1079000080200002FFF743FE6020FFF754FEFFF7E0
:1079100045FEFFF749FE002805D1FFF765FF002867
:10792000F7D002200400002200210020FFF738FFDA
:107930002000C0B210BD0000FFEFFFFFFFF3FFFF0C
:107940004000404894004048100050480400002087
:1079500014E000E018E000E010E000E00024F40093
:10796000E41E0010F1B586B06846007E00280ED0F7
:107970002020FFF756FE0220FFF730FE0120FFF720
:1079800062FE0120FFF764FE0120FFF751FE0E4862
:1079900000680E4988421BD10F21CF480268120AA5
:1079A0000A4004920268140B0C400268120C114049
:1079B000039107210268120D0A4002920068000E2E
:1079C00001400191012508E0F81E0010CCECBCFC40
:1079D000082004900724039000250F20BF49096860
:1079E0000F229143039A02400A43BC490A60BC49F2
:1079F0000968F02291432201F02313400B43B84958
:107A00000B60B74909680F229143049A104008435C
:107A1000B34908602800C0B2002811D0B1480168FD
:107A200007229143029A5207520F0A4302600168EB
:107A300038229143019AD200382313400B4303604C
:107A4000A94801683F2291430A220A430260016863
:107A500040220A430260A54801683F229143042264
:107A60000A430260016880220A43026001684022E2
:107A7000914301609E4801683F22914301609D4807
:107A800001683F22914310220A4302609A4801682C
:107A90003F22914320220A430260984801683F2216
:107AA000914330220A430260954801683F22914386
:107AB00038220A430260934801683F2291433922E9
:107AC0000A430260904801683F2291433A220A43E8
:107AD00002608E4801683F2291433B220A430260C4
:107AE0008B4801683F2291433C220A430260894847
:107AF00001683F2291433D220A4302605520864996
:107B00000968FF2291430143834A11608349096850
:107B1000FF22914366220A4380490A60804909682E
:107B2000FF22914308437E4908607E480068FF2198
:107B300088431D2101437B4801607B480068FF2189
:107B40008843592101437848016078480068FF2143
:107B500088432D210143754801600126744800685F
:107B6000304373490860FFF77EFD0701FFF775FD9D
:107B7000384305900598202800D2ABE0002108008A
:107B80006C4A33000700FFB2D355401C5E23070048
:107B9000FFB2D355401C514B1B680700FFB2D355B1
:107BA000401C33000700FFB2D355401C5D23070083
:107BB000FFB2D355401C4A4B1B680700FFB2D35598
:107BC000401C2B00DBB2002B0FD033000700FFB2AC
:107BD000D355401C52230700FFB2D355401C414BE4
:107BE0001B680700FFB2D355401C33000700FFB2EB
:107BF000D355401C12230700FFB2D355401C464BFF
:107C00001B680700FFB2D355401C33000700FFB2CA
:107C1000D355401C15230700FFB2D355401C3F4BE2
:107C20001B680700FFB2D355401C33000700FFB2AA
:107C3000D355401C1A230700FFB2D355401C384BC4
:107C40001B680700FFB2D355401C33000700FFB28A
:107C5000D355401C22230700FFB2D355401C314BA3
:107C60001B680700FFB2D355401C33000700FFB26A
:107C7000D355401C21230700FFB2D355401C2A4B8B
:107C80001B680700FFB2D355401C33000700FFB24A
:107C9000D355401C23230700FFB2D355401C234B70
:107CA0001B680700FFB2D355401C0300DBB2D6545B
:107CB000401C1B230600F6B29355401C1C4B1B684E
:107CC0000600F6B29355401C0300DBB2D154401CB1
:107CD0006946087007B0F0BDE81E00107816006015
:107CE0007416006048160060C0160060C41600607C
:107CF000E8160060EC160060F0160060F4160060F4
:107D0000F8160060FC1600600017006004170060A1
:107D1000081700600C1700604815006054150060DB
:107D20006815006088150060841500608C1500607F
:107D30006C150060A47F0020F8B506000F00002538
:107D4000FFF791FC0401FFF788FC204300908D4C65
:107D5000012264212000FFF723FDFFF7D7FBFFF787
:107D6000DCFB002805D1FFF73FFD0028F7D00420F9
:107D70000500002200210020FFF712FD2800C0B2FC
:107D8000002802D02800C0B2BCE03000C0B20028F9
:107D900004D10098102801D10620B3E03000C0B211
:107DA00000286BD03000C0B201280AD039D3032894
:107DB00014D00DD305281FD017D307282AD022D3DB
:107DC0002FE00020FFF72DFC6F487049086029E084
:107DD0002020FFF726FC6D48046023E04020FFF7D9
:107DE00020FC6B48694908601CE06020FFF719FC23
:107DF00068486649086015E08020FFF712FC664875
:107E0000624908600EE0A020FFF70BFC63485F4961
:107E1000086007E0C020FFF704FC61485B49086088
:107E200000E0FEE7594C0122C8212068FFF7B8FCAA
:107E3000FFF7E9FBFFF7EEFB002805D1FFF7D4FCC5
:107E40000028F7D005200500002200210020FFF7C0
:107E5000A7FC2800C0B2002802D02800C0B251E020
:107E600020684949884204D110214E48FFF702FC9E
:107E700006E000214B48FFF7FDFB01E0FFF772FB36
:107E80003800C0B2FF2801D100203BE03800C0B26A
:107E9000012803D03000C0B2032805D10420FFF729
:107EA0009DFB0120070002E00220FFF797FB0098EE
:107EB000102826D13000C0B2012807D13800C0B246
:107EC000012803D12A203849086016E03000C0B2EA
:107ED000012803D13800C0B2002807D03000C0B25A
:107EE000022807D13800C0B2012803D129202E4929
:107EF000086002E028202C4908602C480068000730
:107F0000FBD40020F2BDF8B507000C002848294931
:107F1000086029490861E020FFF7A2FAFFF77CFC1E
:107F200006003000C0B2002802D03000C0B228E005
:107F3000FFF7DAFC05002800C0B2002802D02800B4
:107F4000C0B21EE02000C0B2FF2802D00120FFF71F
:107F500009FD2020FFF7E8FA3020FFF7EFFA2100B3
:107F6000C9B23800C0B2FFF7E7FE06003000C0B269
:107F7000002802D03000C0B203E0FFF7A7FB62B6D2
:107F80000020F2BD0048E8010090D00358760020A0
:107F90000024F40000127A0000093D0080841E00D5
:107FA00040420F00001000400050004004500040CC
:107FB0000000041008ED00E0040000207047704746
:107FC000F446002804D4494200F013F840426047C8
:107FD0004042002905D45FD000F00BF840424942EE
:107FE0006047494200F005F84942604703460B43A9
:107FF000E6D40022030A8B420BD203098B4219D22A
:1080000043088B422ED2411A00D2014652411046FB
:108010007047FF2209023FD012068B4205D312128D
:1080200009028B4201D31212090203098B4219D3B0
:1080300000E0090AC3098B4201D3CB01C01A5241A7
:1080400083098B4201D38B01C01A524143098B42F1
:1080500001D34B01C01A524103098B4201D30B01DA
:10806000C01A5241C3088B4201D3CB00C01A5241FF
:1080700083088B4201D38B00C01A524143088B42C4
:1080800001D34B00C01A5241884200D3401A5241DA
:10809000CFD201461046704708B500F001F808BD80
:1080A0007047704710B50400002C01D101205BE03F
:1080B0004120205C002805D1002040216054200090
:1080C00000F045FC24204121605420680068012113
:1080D0008843216808606068334901402068016175
:1080E000324821688968014022689160E16801296D
:1080F00006D1A168802212020A4321688A6005E045
:10810000A168842212020A4321688A60E168022978
:1081100003D1802109012268516021684968244AFD
:108120000A4321684A602168C96808402168C8601C
:10813000206961690143A069000208432168C860A1
:10814000E069216A0143206801602068006801211C
:108150000143206801600020606420214122A15475
:10816000206342216054002010BD10B50400002C93
:1081700001D1012017E024204121605420680068CB
:108180000121884321680860200000F025FC0020C0
:10819000606401004122A154206301004222A154E5
:1081A00040216054002010BDFFFFFFF0FF7FFFFF64
:1081B00000800002FEB582B004000F004120205C68
:1081C000202800D0C5E00A98002803D06846808D9A
:1081D000002804D18020800060640120BAE04020A3
:1081E000205C012801D10220B4E00120402160542C
:1081F00000F006FC060000961923012280210902E6
:10820000200000F021FA002801D00120A2E0212066
:1082100041216054402042216054002565640A9841
:1082200060626846808D6085656301960C98009059
:108230006846038A68468289390089B2200000F0C6
:1082400067F9002803D040202554012082E0608D8A
:10825000FF280DD9FF2020850020009080235B049B
:10826000228DD2B2390089B2200000F0B3FA0CE0BE
:10827000608D20850020009080239B04228DD2B247
:10828000390089B2200000F0A5FA32000C992000D4
:1082900000F006FA002801D001205BE0606A007857
:1082A00021688862606A401C60629548618D091887
:1082B0006185218D08182085608D00282BD0208DA8
:1082C000002828D100960C9B00228021200000F07D
:1082D000BBF9002801D001203CE0608DFF280DD9BA
:1082E000FF2020850020009080235B04228DD2B2E5
:1082F000390089B2200000F06DFA0CE0608D208515
:108300000020009080239B04228DD2B2390089B2D4
:10831000200000F05FFA608D0028B6D132000C9981
:10832000200000F0E9F9002801D0012012E020200F
:108330002168C86121684968724A0A4021684A6018
:1083400041216054280042216054402025540020DF
:1083500000E0022005B0F0BDFEB582B004000F00C1
:108360004120205C202800D0C7E00A98002803D0D4
:108370006846808D002804D1802080006064012040
:10838000BCE04020205C012801D10220B6E00120A1
:108390004021605400F034FB0600009619230122AE
:1083A00080210902200000F04FF9002801D00120AF
:1083B000A4E0222041216054402042216054002545
:1083C00065640A9860626846808D60856563019681
:1083D0000C9800906846038A68468289390089B201
:1083E000200000F0D8F8002803D0402025540120B8
:1083F00084E0608DFF280DD9FF2020854248009041
:1084000080235B04228DD2B2390089B2200000F0B3
:10841000E1F90CE0608D20853B48009080239B04AF
:10842000228DD2B2390089B2200000F0D3F9009633
:108430000C9B00220421200000F006F9002801D046
:1084400001205BE02068406A616A0870606A401C35
:1084500060622B48218D09182185618D081860857F
:10846000608D00282BD0208D002828D100960C9BF1
:1084700000228021200000F0E7F8002801D0012030
:108480003CE0608DFF280DD9FF2020850020009062
:1084900080235B04228DD2B2390089B2200000F023
:1084A00099F90CE0608D20850020009080239B04CA
:1084B000228DD2B2390089B2200000F08BF9608D94
:1084C0000028B4D132000C99200000F015F90028E2
:1084D00001D0012012E020202168C861216849688C
:1084E000084A0A4021684A6041216054280042211C
:1084F000605440202554002000E0022005B0F0BD6B
:10850000FFFF000000E800FE00240080406C704780
:10851000FBB504001700089E099D40480090802389
:108520005B0468460289D2B268468188200000F068
:1085300051F92A003100200000F0B2F8002801D0E3
:10854000012027E068460089012804D13800C0B224
:108550002168886212E0380080B2000AC0B2216847
:1085600088622A003100200000F09AF8002801D02B
:1085700001200FE03800C0B2216888620095330006
:1085800000228021200000F05FF8002801D00120A7
:1085900000E00020FEBDFBB504001700089E099D09
:1085A0001E480090002368460289D2B2684681883E
:1085B000200000F00FF92A003100200000F070F8D0
:1085C000002801D0012027E068460089012804D155
:1085D0003800C0B22168886212E0380080B2000A18
:1085E000C0B2216888622A003100200000F058F8EB
:1085F000002801D001200FE03800C0B22168886255
:108600000095330000224021200000F01DF80028D2
:1086100001D0012000E00020FEBD0000002000800D
:1086200000B501688969890702D500210268916255
:108630000121026892690A40002A04D10268926905
:1086400011430268916100BDF4B504000F001D00E4
:10865000069E206880693840B84201D1012000E0C0
:10866000002069460978884218D10020C04385421D
:10867000EFD000F0C5F9801B854201D3002DE8D171
:108680002020616C0143616441216054002001009D
:108690004222A15440216054012000E00020F2BD9C
:1086A00070B504000D00160020688069800721D491
:1086B00032002900200000F048F8002801D00120F5
:1086C00019E00020C0438542EED000F099F9801BEC
:1086D000854201D3002DE7D12020616C0143616404
:1086E00041216054002001004222A15440216054E5
:1086F000012000E0002070BDF8B505000E00170055
:10870000202428688069204000281CD13A003100CC
:10871000280000F01AF8002801D0012014E000F031
:108720006FF9C01B864201D3002EE9D1686C20434B
:10873000686441202C54002001004222A9544021A9
:108740006854012000E00020F2BDF4B504000F00E1
:108750001025206880692840002839D0202620680C
:1087600080693040002818D10020C0438742F5D0EE
:1087700000F046F90099401A874201D3002FEDD14D
:10878000606C304360644120265400200100422286
:10879000A1544021605401201BE02068C56120687D
:1087A000C6612000FFF73CFF206840681549014082
:1087B00020684160606C04210143616441202654BB
:1087C000002001004222A15440216054012000E019
:1087D0000020F2BDF0B4049C05686D68660D0A4F78
:1087E0003743BD430E00B6B2B605B60D2E43150095
:1087F000EDB22D0435431D43254306687560F0BC7A
:108800007047000000E800FEFF63FF0381B06B4982
:108810000A6802430A60096801400091009901B0AA
:10882000704781B066490A6802430A6009680140DE
:108830000091009901B0704761490A6882430A605B
:10884000704780B500210020C04300F05AF901BDF7
:10885000F1B586B080204001FFF7E3FF0420FFF769
:10886000D5FF0420FFF7D2FF0820FFF7CFFF042039
:10887000FFF7CCFF0420FFF7C9FF20270097022451
:108880000194029403940125049569469020C00543
:1088900000F09EF904954020009069469020C005A4
:1088A00000F096F904951026009669469020C005C0
:1088B00000F08EF9049480208000009069464148C1
:1088C00000F086F980204001009001950394002477
:1088D000029469469020C00500F07AF901228021B7
:1088E00049019020C00500F028FB0120FFF78EFF12
:1088F000069800683449884227D1344D07206860C3
:10890000AE60EC608020286180204000686180209B
:10891000C000A861EF618020800128622C48286097
:10892000280000F075FB0698C5620698A86228002A
:1089300000F02AFB002801D000F01DFD00211120CD
:1089400000F0DFF8112000F0E5F807B0F0BDF1B558
:1089500086B0069800681F4988422CD10420FFF792
:1089600055FF802080010090122701970126029672
:10897000022403940025049569469020C00500F068
:1089800027F90420FFF742FF8020C00100900197E3
:1089900002960394049569469020C00500F018F9EA
:1089A00080200004FFF73DFF0021042000F0A9F81B
:1089B000042000F0AFF807B0F0BD000050004048C0
:1089C0005800404800001048003000415C7E002004
:1089D000080070480010004110B504002068822192
:1089E000C90588420BD180208003FFF725FF0321B2
:1089F0009020C00500F01EFA032000F092F810BD90
:108A000001480068704700BFE47F002000B5010006
:108A100049B2002905D40121C206D20E9140494A2B
:108A2000116000BD00B5010049B2002909D401213F
:108A3000C206D20E9140444A1160BFF34F8FBFF37C
:108A40006F8F00BDF0B5020052B2002A1CD4032281
:108A50003E4B040064B2A40804256C431C59FF2556
:108A60001600064008277E43B540AC438D01EDB2A9
:108A700002400826724395402543020052B29208F4
:108A8000042462439D5022E00F24314A0323050051
:108A90006DB22540083DAD0804267543060076B248
:108AA0003440083CA408042674431659FF27BC46EA
:108AB0001C00044008277C436746A740BE438C0146
:108AC000E4B2034008277B439C4034435451F0BD3B
:108AD00010B50400601E80214904884201D30120A2
:108AE0000EE0601E1B49086003210020C043FFF711
:108AF000A9FF0020184908600720184908600020D5
:108B000010BD38B505000C002100280040B2FFF769
:108B100099FF31BD10B50400200040B2FFF776FF89
:108B200010BD10B50400200040B2FFF77BFF10BD60
:108B300010B504002000FFF7CBFF10BD80B500F09A
:108B40000FF801BD00E100E080E100E000E400E09A
:108B50001CED00E014E000E018E000E010E000E0B0
:108B600070477047AF490A6882430A60AE490A6895
:108B700002430A607047AC490A6882430A60A94907
:108B80000A6802430A607047A7490A6882430A607C
:108B9000A4490A6882430A607047A4490A6882436C
:108BA0000A60A3490A6802430A607047A0490A683C
:108BB00082430A609D490A6802430A6070479C49E3
:108BC0000A6882430A6099490A6882430A607047CA
:108BD000F1B582B00F0000253868E840002800D1C8
:108BE0001FE1012638683100A94001400191019838
:108BF000002800D113E17868022802D07868122892
:108C00001DD10298E908042251434018026A072046
:108C10000F239C46290001400423594363468B409F
:108C20009A4339692B00184004235843814011436B
:108C30000C000298E908042251434018046202988B
:108C4000026803202B0002214B43010099408A4314
:108C50007B6803409C4629000223594363468B40AE
:108C600013431C0002990C607968012908D07968C7
:108C7000022905D07968112902D0796812291BD1FF
:108C8000029989682A0002235A4390408143FA6876
:108C900028000223584382400A43029882600298C7
:108CA00041683000A8408143786800093040A840FE
:108CB000084304000298446002989021C905884244
:108CC00012D1B868002803D0022809D004D31DE0CF
:108CD0003868FFF759FF19E03868FFF743FF15E0E0
:108CE0003868FFF748FF11E0B868002803D0022871
:108CF00009D004D30AE03868FFF761FF06E038685E
:108D0000FFF74BFF02E03868FFF750FF7868C000BC
:108D100000D484E0002069460870964802689021DB
:108D2000C905029B8B420AD13300AB409A437B6852
:108D30001B09802464012340AB4013430BE0330044
:108D4000AB401B049A437B681B09802464012340C9
:108D5000AB401B04134303607868C00327D4864AE2
:108D60001068029C8C4204D103003000A840834369
:108D700004E003003000A84000048343C0208003C7
:108D80007C680440844211D130006C4620707B48DE
:108D900003600298884204D118003300AB400343BB
:108DA00004E03000A8400004184303001360734A35
:108DB000146868460078002819D10298884203D1C7
:108DC0003000A840844303E03000A84000048443FE
:108DD0007868C0020BD50298884204D12000340084
:108DE000AC40044303E0AE40300420430400146070
:108DF0009020C0050299814203D161490968294345
:108E000003E05F490A68290411430299814203D1B2
:108E100028005C49086002E028045A4908606D1C7B
:108E2000DAE6F7BD24005048200050482C00504896
:108E300028005048FEB5020000240800E040002849
:108E40007AD001252800A04008400290029800280E
:108E500070D09020C005824203D1494E3668A643A7
:108E600003E0474E36682704BE43824203D1200008
:108E7000444E306002E02004424E30609020C00535
:108E8000824204D12800A040C643330004E02800F9
:108E9000A0400004C6433300364806681E40066002
:108EA000354806681E400660344806681E40066065
:108EB0000326106884462000022778433700874045
:108EC000604607431760E0080427784310180190B4
:108ED000E70804204743D019076A00970F2084460B
:108EE000200047077F0F042047436046B840009F9B
:108EF0008743019807629768BC46270002204743D2
:108F00003000B84067468743976057682800A04004
:108F100087435760D068B4462700022677436646E9
:108F2000BE40B043D060D068260002277E43B540E3
:108F30000543D560641C80E7F7BD00B51300DBB2C4
:108F4000002B03D00B009BB2836102E00B009BB2AD
:108F5000836200BD00B542690B009BB21A400B0052
:108F60009BB29A4202D10A04826102E00A0092B2E4
:108F7000826100BD0C000040100000401400004061
:108F8000180000401C00004010B50400002C01D166
:108F900001203CE020683A4940181421FFF729F8E5
:108FA00080006064374820640220252160542068D6
:108FB000016835480840A168E2680A432169114305
:108FC00062690A43A1691143E2690A43216A1143B4
:108FD0000143206801609120C005626C920804235F
:108FE0005A438018A064A0688022D201904201D127
:108FF000002060602079C006C00EA26C10600020C6
:10900000E06301222523E2542422A054002010BD55
:1090100010B50400002C01D101202FE02068006869
:1090200001218843216808602068154940181421EF
:10903000FEF7DFFF80006064124820640020216892
:10904000086001214422A25C3C2313409940226C19
:1090500051609121C905626C920804235A43891812
:10906000A164A16C0860E06220636063A063E063B8
:1090700001002522A15424216054002010BD0000CD
:10908000F8FF8FB7000070480F80FFFFF7B50400AE
:109090001F00002006002421615C012901D102206B
:1090A00039E0012529002422A1542521615C0129F0
:1090B0002BD102212522A154E06320680068012100
:1090C0008843216808603B00029A0199200000F063
:1090D000C5F8206B002806D0206800680E210143E7
:1090E000206801600BE02068006804218843216843
:1090F0000860206800680A21014320680160206838
:10910000006805432068056003E0242160540220C4
:1091100006003000C0B2FEBD00B50100002901D13B
:10912000012025E02520085C022806D00420C86321
:1091300000202422885401201AE0086800680E22CA
:1091400090430A68106008680068012290430A682A
:109150001060012044228A5C3C23134002009A40A4
:109160000B6C5A6025228854002024228854002049
:1091700000BD70B50400206C0568206806683C20BE
:109180000421626C030013400A009A402A40002A1E
:1091900017D00E4215D022681268920605D42268B4
:1091A000126804239A4323681A60626C104081405D
:1091B000206C4160206B00284FD02000216B884735
:1091C0004BE00221626C030013400A009A402A40DF
:1091D000002A1DD00E421BD022681268920608D4C5
:1091E000226812680A239A4323681A600122252301
:1091F000E254626C10408140206C416000202421C8
:109200006054E06A002828D02000E16A884724E002
:109210000821626C030013400A009A402A40002A89
:109220001BD03140002918D0216809680E229143D3
:10923000226811600121626C10400A008240206C9B
:109240004260E16325202154002024216054606B9A
:10925000002802D02000616B884770BD70B50124E2
:109260004425455D3C262E40B440056C6C60046886
:1092700063608468102C04D10468A2600468E16013
:1092800003E00468A1600468E26070BD81B0334906
:109290000A6802430A60096801400091009901B020
:1092A000704781B02E490A6802430A60096801408C
:1092B0000091009901B0704780B5FF210220FEF7B0
:1092C00022FE002801D000F056F800F05FF800F010
:1092D0000DF800F06BF8002801D000F04CF800F019
:1092E00075F8002801D000F046F8FEE738B588B0E0
:1092F0000420FFF7CBFF80204000FFF7D2FF0024BF
:10930000049405948025ED00039503A99020C005E1
:10931000FFF75EFC0095012002900194114C694614
:10932000200000F061F9104A0021200000F073F9DC
:109330000121200000F07CF9200000F0A5F90021B7
:109340000F20FFF7DEFB0F20FFF7E4FB00210020DA
:10935000C043FFF7D6FB09B030BD000050004048C5
:1093600054004048D87F00206D93041010B50400CD
:1093700000F034F810BD80B5802149019020C0056F
:10938000FFF7E8FD642000F085F9F5E710B500244B
:10939000032000F095F9002802D00120040001E02C
:1093A000FFF74FFA2000C0B210BD704780B5102003
:1093B0004E4988600122CA6000220A60FA22D20166
:1093C0004A600861012000F0B2F902BD80B5802238
:1093D000D2004749012000F061FA02BD38B50025EE
:1093E000444C2078002806D0022815D00CD304283D
:1093F00022D019D327E01021012000F013FB002810
:1094000001D0FFF7B8FF1EE0012000F047FB002865
:1094100001D0FFF7B0FF16E0012000F05FFB00284D
:1094200001D0FFF7A8FF0EE0012000F085FA002828
:1094300001D0FFF7A0FF06E0012000F0B5FA0028F8
:1094400001D0FFF798FF2078401C0521FEF7CEFDE4
:109450002170EDB2280032BD70B505000024200057
:10946000FF2C1BD82248244E2449326802235A4339
:109470008A5A04236343C2520222624302235A439C
:109480008018326802235A43895A41803068401C50
:109490001B49FEF7AEFD3160641CE1E770BD70B59D
:1094A0000400002080256D008020800085421BD2B2
:1094B0000F48114E1149326802235A438A5A042335
:1094C0006B43C25202226A4302235A438018326815
:1094D00002235A43895A41803068401C0849FEF7EC
:1094E00088FD31606D1CDFE770BD0000C47F002087
:1094F0005C760020F87F0020E07F00205C030020E5
:109500005639000033490A6802430A6070473149FE
:109510000A6882430A60704700B50200D2B2002A8E
:1095200004D12D4A13688B43136003E02A4A136861
:109530000B43136000BD00B50200D2B2032A08D16C
:10954000264A13680B431360254A13688B43136044
:1095500032E00200D2B2012A08D1204A13688B43BC
:1095600013601F4A13680B43136025E00200D2B258
:10957000022A08D1194A13688B431360184A1368EA
:109580008B43136018E00200D2B2042A08D1134AB8
:1095900013688B431360124A13688B4313600BE00C
:1095A0000200D2B2052A07D10C4A13688B4313601C
:1095B0000B4A13680B43136000BD00B509490968E5
:1095C0000140814201D1012000E0002000BD054999
:1095D00008607047180000400C0000401000004078
:1095E000140000401C00004038B504000D00002CA1
:1095F00001D0002D01D101200CE0286820602968ED
:109600006868C0B2FFF788FF2968A868C0B2FFF792
:1096100092FF002032BD10B5030000200C00E4B220
:10962000002C01D15A6001E001242000C0B210BD1D
:1096300038B505000C00002D01D101200BE0200001
:10964000C0B2012803D12868FFF75CFF02E0286858
:10965000FFF75DFF002032BD38B504002068FFF73A
:10966000ACFF0500002D08D06068002802D02068FB
:10967000616888472068FFF7AAFF31BD10B5040074
:109680002068FFF79AFF10BD10B504002068FFF7AF
:109690009EFF10BD70B50400FFF7B2F9050026006B
:1096A0000020C043864202D0044800683618FFF705
:1096B000A7F9401BB042FAD370BD00BF0C76002062
:1096C000F8B505000024144E306800281FD000F0C3
:1096D00017FB0700FA2080003168FEF78AFC0100C2
:1096E0003800FEF786FCFFF723FA00280CD1042D82
:1096F00007D229000020C043FFF703FA074805609E
:1097000007E00120040004E00120040001E0012042
:1097100004002000C0B2F2BD0C76002008760020C4
:1097200084490A689D4B134003430B607047F2B5B0
:10973000FFB0A9B00600022E02D30120C043AAE068
:10974000974CA89800682421714361184860242030
:1097500070432650A898406824217143611888609E
:10976000A8988068242171436118C860A898C068CF
:109770002421714361184861A8980069242171432C
:10978000611808610025242070432018C561012E4E
:109790007BD12420704320184068002808D001287D
:1097A0000DD02800694608707E489B4908600CE08F
:1097B0002800694608707B489749086005E0012049
:1097C0006946087095489449C863934F24207043B4
:1097D00020188168684600783C225043381800F011
:1097E00095FA002802D00820C04354E0242070439A
:1097F00020188068019003950495802080000590D2
:109800000690079501A9684600783C225043381815
:1098100000F08EFA002802D00320C0433BE0300065
:1098200000F080F9002802D00120C04333E0A021DD
:1098300089002A0008AD280000F0A4FAA0225200F6
:1098400008A9684600783C235843381800F076FB96
:1098500000F0AAF9002802D00420C0431BE06846AB
:1098600000783C214843381800F023FC6846007813
:10987000002803D11120FFF74DF906E06846007873
:10988000012802D11120FFF745F90220242171435C
:109890006118C86100207FB02AB0F0BDF7B505009F
:1098A00000263F4C24206843201840686946087011
:1098B000022D0BD280277F02029824216943611870
:1098C000C968C908FEF795FBB84203D30120C0431D
:1098D00006002DE0242068432018C069022805D026
:1098E000242068432018C06900281ED1012D14D1FE
:1098F0000298B84201D2029A00E0774A92B20199E6
:1099000047486B461B783C277B43C01800F016FB8A
:10991000002802D00320C0430600002E08D10120F9
:10992000242169436118C86102E00220C043060097
:109930003000FEBD08004048F8B504000025184E70
:109940002420604330184768022C03D30120C04311
:10995000050020E04F4800684F49096809698847B9
:10996000002802D00420C0430500012C0CD12C4853
:109970003900C9B23C225143401800F044FB002892
:1099800002D00320C0430500002D04D10320242170
:1099900061437118C8612800F2BD0000FFFF7FFF1E
:1099A000F47E002000300041F8B5070000245B4D34
:1099B000242078432818406869460870022F03D392
:1099C0000120C043040024E001263248310002682F
:1099D0002923D1540068304909684969884700281B
:1099E00002D00420C0430400012F0CD10C4869466A
:1099F00009783C225143401800F02AFB002802D08D
:109A00000320C0430400002C03D1242078432818ED
:109A1000C6612000F2BD000030000020007000414F
:109A200030000020F8B506000F0000200090022E44
:109A300003D30120C04300902AE000200500374CEA
:109A4000242070432018406985421DD23A00D2B2CA
:109A5000290010480068304B1B685B6A9847002853
:109A600003D00420C04300900CE0002F05D101205A
:109A7000242171436118886104E00020242171438E
:109A8000611888616D1CDAE7242070432018076193
:109A90000098F2BDF47F0020F07F002038B504006C
:109AA0000025022C03D30120C043050012E0012150
:109AB0001B480068184A1268D26A9047002803D0F1
:109AC0000420C043050005E001201449242262431C
:109AD00089188861280032BDFFFF000070B50400BE
:109AE00000252E00022C03D30120C043060011E004
:109AF00000210B480068084A1268D26A9047002883
:109B000003D00420C043060004E02648242161431A
:109B100040188561300070BDF07F0020F47E002089
:109B2000F47F0020F8B507000026022F03D30120A0
:109B3000C043060033E06348242179434118496853
:109B4000002911D19025ED05802464010022210017
:109B50002800FFF7F2F96420FFF79CFD01222100A5
:109B60002800FFF7EAF91AE02421794340184068F9
:109B7000012811D1802464009025ED0500222100E8
:109B80002800FFF7DAF96420FFF784FD01222100A5
:109B90002800FFF7D2F902E00120C04306003000A0
:109BA000F2BD0000F47E0020F8B588B00026370032
:109BB000454800904548464901600099416033217D
:109BC00081600121C160066146618661C6610662ED
:109BD0004048019040480290039640480690404813
:109BE000059040480790374C6068002806D16069AE
:109BF000002803D0382001A9087320E060680128FC
:109C000006D16069002803D03A2001A9087316E044
:109C1000A06A002806D1A06B002803D0382001A933
:109C200008730CE0A06A012806D1A06B002803D0BD
:109C30003A2001A9087302E00120C0431DE02A4D2B
:109C400001A9280000F024FB002803D00720C0430E
:109C5000070004E0254826490860264805602100E1
:109C6000243124480068224A12681268904700286C
:109C700002D00420C04300E0300009B0F0BD10B5B0
:109C8000040020681C49884202D10120FFF707FC2C
:109C900020681A49884202D10120FFF700FC10BD5C
:109CA00010B5040020681449884202D10120FFF752
:109CB000D3FB20681149884202D10120FFF7CCFB79
:109CC00010BD0000F47E002009033210A87E0020A1
:109CD00000100041A58004106B810410598304100A
:109CE000B5810410018A0410787F002010760020CE
:109CF000F07F0020F47F0020003000410070004120
:109D000001480068704700005876002070B50500D3
:109D10000C000026FA20C001844204D180200004F7
:109D2000FFF7FEFC01E0012006003000C0B270BD6C
:109D300070B505000C0000262868C0691049014074
:109D40002868C16120686861A068A861E068E8606F
:109D50002069286160696860A069A860280000F037
:109D600039F8002801D0012006002868C069802148
:109D7000C90001432868C1613000C0B270BD00BF96
:109D8000FFFBFFFF1206130A1A43130C1A4300BF0E
:109D9000094205D0830705D00270401C491EF9D145
:109DA000704700001300103906D330B414001500BA
:109DB00010393CC0FCD230BC490700D30CC000D5E0
:109DC00004C0890002D30280801C002900D50270E3
:109DD00070477047F0B585B0040002260496002550
:109DE00003951027009702950195002C01D10120C1
:109DF0009EE03520205C002805D1280034216054E5
:109E00002000FEF725FD3000352160542068C06930
:109E1000484901402068C1612068066260690228E3
:109E200053D0E068002801D1009701E02020009085
:109E3000A068212803D2009802214843009020689E
:109E40003D49884204D1042000F0B1FB019003E0B9
:109E5000082000F0ACFB0190206980218900884235
:109E60001CD1E06800280CD00198009904225143CD
:109E7000FEF7BFF80A2148436169FEF7BAF8401DB2
:109E800016E00198009908225143FEF7B2F80A2122
:109E900048436169FEF7ADF8401D09E0019800995B
:109EA000FEF7A7F80A2148436169FEF7A2F8401DB2
:109EB0000A21FEF79EF8029002990800C007C00F21
:109EC0000299091A4E08010200E02900022E01D36E
:109ED000FF2E04D9A06B0743A763012028E00800E8
:109EE000304322690243206802622068C069114A37
:109EF000024060681043A2680243E0681043A26910
:109F000002438020000110432268D061A0683028FD
:109F100002D0A068B02806D12068C0698022520112
:109F200002432068C261A56301203522A0540020AD
:109F300005B0F0BD40F0FFFF00300041F3B581B047
:109F400004001600002500952F003520205C012814
:109F500002D00220070051E00298002803D0300010
:109F600080B2002801D101204CE03420205C01287F
:109F700001D1022046E00120342160540320352124
:109F80006054A5630298E0612068C0694007400FF3
:109F900000900098032802D00098052804D1700092
:109FA00020847000608401E0268466846148E16A50
:109FB00008636148E16AC8626048E16A4863238CCB
:109FC000206802000C32E169E06AFFF75FF8802048
:109FD000C0002168C9690140002904D12168C9690C
:109FE00008432168C86102202168496801400029AE
:109FF00004D1216849680843216848603420255409
:10A000003800C0B2FEBD00B501003420085C012854
:10A0100001D102201BE00120342288543520085C45
:10A02000032806D108684068022290430A685060FD
:10A0300009E03520085C042805D108684068012241
:10A0400090430A685060002034228854002000BDEC
:10A0500000B501003420085C012801D1022027E06E
:10A06000012002003423CA5435228A5C032A06D117
:10A0700008684068022202430868426008E035220E
:10A080008A5C042A04D10A68526810430A68506046
:10A090008020C0000A68D2690240002A04D10A6800
:10A0A000D26910430A68D06100203422885400200D
:10A0B00000BD38B504003420205C012801D1022005
:10A0C00036E0012534202554206840680221884369
:10A0D0002168486020684068012188432168486001
:10A0E000E06A00280AD0E06A00680068012188431D
:10A0F000E16A09680860E06AFFF70EF8206B002843
:10A100000AD0206B0068006801218843216B096830
:10A110000860206BFFF700F82068C069084901401B
:10A120002068C1613520255400203421605400206E
:10A1300032BD0000E9A10410BFA10410F7A1041072
:10A14000FFFBFFFF38B504002068856841202840E8
:10A15000012807D120684068400603D5200000F0A0
:10A160007CF82BE00220054207D0216849680906E7
:10A1700003D5200000F056F820E0216849688906E0
:10A180001CD5690608D52168496860229143226878
:10A190005160A16B0843A063280709D52068406877
:10A1A000A021884321684860A06B04210143A1637A
:10A1B000012035216054200000F056FA31BD38B539
:10A1C0000400A56AE06900280AD1286840680221D5
:10A1D000884329684860002068840120352168543C
:10A1E0002800FFF74CFD31BD38B50400A56A2800F2
:10A1F000FFF756FD31BD38B50400A56A28684068F0
:10A20000032188432968486000206884688501200C
:10A2100035216854A86B08210143A963280000F088
:10A2200023FA31BD10B50400E069811CE1610088AA
:10A230002168C860608C401E6084608C00280BD14F
:10A2400020684068A02188432168486001203521AA
:10A2500060542000FFF713FD10BD10B50400606AC4
:10A26000811C61622168C9680180608D401E608523
:10A27000608D00280BD120684068602188432168E8
:10A280004860012035216054200000F0EEF910BD37
:10A2900038B505000C00002D02D10020C0431CE0A1
:10A2A0002068286060686860A068A860207B2873C8
:10A2B0002069286160696861A069A8619148286285
:10A2C0009148E8616D622868002804D0A848296890
:10A2D0008847002001E00020C04332BD38B50400AB
:10A2E0000D002820205C00280BD1FA22D201222167
:10A2F00020001C3000F0BAF9002802D00020C04332
:10A3000003E0012028216054002032BD10B5040074
:10A310002820205C012806D120001C3000F0F1F933
:10A32000002028216054002010BD38B505000C0025
:10A3300028001C3000F003FA002802D00020C0439F
:10A3400000E0002032BD70B504000E001500292089
:10A35000205C002802D00020C0430FE02A0092B207
:10A36000310020001C3000F0EDF9002802D0002060
:10A37000C04303E0012029216054002070BD10B5C6
:10A3800004002920205C012806D120001C3000F0A8
:10A39000DCF9002029216054002010BD10B5040014
:10A3A0002920205C012802D00020C0430CE02000BE
:10A3B0001C3000F0D7F9002802D00020C04303E091
:10A3C000012029216054002010BD38B505000C0083
:10A3D0002920285C002802D00020C0430CE028007F
:10A3E0001C3000F055FA002802D00020C04303E0E2
:10A3F000002029216854002032BD70B506000D00F0
:10A4000014002200D2B2290030001C3000F0E4F920
:10A41000002802D00020C04300E0002070BD38B505
:10A4200005000C002200D2B2002128001C3000F0F0
:10A43000A6F9002802D00020C04300E0002032BD71
:10A4400002000020704738B505000C0021002800EC
:10A450001C3000F0D5F9002802D00020C04300E0F5
:10A46000002032BD10B5040020001C3000F013FAAB
:10A47000002802D00020C04300E0002010BD0200F0
:10A48000022070470200022070470200022070473D
:10A4900002000220704703000220704701000220E2
:10A4A0007047F3B585B016001D0005980390002095
:10A4B000049003988068002820D12D4C8020400112
:10A4C0000290280080B20190009601236846027E27
:10A4D00092B20398017B89B22000039F7F69B8473D
:10A4E000002801D100200BE02000FEF70FF801004A
:10A4F000042901D1012003E0012001E00020C04334
:10A5000007B0F0BDA3A404100DA50410F3B585B0E9
:10A5100016001D00059803900020049003988068A1
:10A52000002820D1124C802040010290280080B2E7
:10A530000190009601236846027E92B20398017B47
:10A5400089B22000039F3F69B847002801D100204D
:10A550000BE02000FDF7DAFF0100042901D1012002
:10A5600003E0012001E00020C04307B0F0BD00007F
:10A57000A87E00203748016806200840704736480A
:10A580000068802149010840704733480168C020B5
:10A5900000010840704730480068802109040840E5
:10A5A00070472D4800688021C9030840704770B586
:10A5B0000400012C0CD1FFF7DDFF022802D0042893
:10A5C00003D045E02548050042E0254805003FE06E
:10A5D000022C23D1FFF7D9FF002808D08021C90021
:10A5E000884207D080210901884206D007E01B4835
:10A5F000060004E01A48060001E01A480600FFF7CA
:10A60000BEFF002804D080214901884203D01FE00A
:10A61000700805001CE0B008050019E0042C09D101
:10A62000FFF7B9FF002802D10D48050010E00B48E4
:10A6300005000DE0082C09D1FFF7B3FF002802D177
:10A640000748050004E00548050001E0002005007A
:10A65000280070BD60004048080040480048E801FC
:10A660000024F40000127A00704770477CB50400A3
:10A670000E0015000020694608702900200000F037
:10A68000BFF8002801D001203AE06B4601222D21BD
:10A69000200000F003F9002801D0012030E06846D6
:10A6A00000787F2801D001202AE03200D2B20021B8
:10A6B000200000F091F8002801D0012020E06B4636
:10A6C00001220521200000F0E9F8002801D0012036
:10A6D00016E0684600784006400E694608706846F5
:10A6E000007880210143684601706B4601220521F4
:10A6F000200000F0E0F8002801D0012000E0002058
:10A7000076BD1CB504006B4601220521200000F037
:10A71000C5F8002801D0012010E0684600788006C6
:10A72000800E694608706B4601220521200000F06A
:10A73000C2F8002801D0012000E0002016BD010071
:10A740000220704703000220704710B50400012268
:10A750000021200000F013F8002801D0012000E0C3
:10A76000002010BD10B5040000220021200000F0E0
:10A7700006F8002801D0012000E0002010BD7CB5C3
:10A7800005000C0016006B4601220621280000F08F
:10A7900085F8002801D001201DE03000C0B201285A
:10A7A00007D1684600780121A14001436846017045
:10A7B00006E0684600780121A14088436946087098
:10A7C0006B4601220621280000F075F8002801D010
:10A7D000012000E0002076BD7CB506000D001400CD
:10A7E000684604706B4601222900C91DC9B23000B9
:10A7F00000F061F8002801D0012000E0002076BDC3
:10A8000038B505000C006B4601220021280000F03D
:10A8100045F8002801D0012030E068460078E021AA
:10A82000014068460170FA20C001844205D01448F6
:10A83000844202D01348844206D16846007803213E
:10A840000143684601700EE00F48844202D00F4871
:10A85000844206D1684600780921014368460170A8
:10A8600001E001200AE06B4601220021280000F0EF
:10A8700022F8002801D0012000E0002032BD0000B5
:10A8800044AC000080BB0000885801000077010044
:10A89000010002207047010002207047F2B5040059
:10A8A00016001D0033009BB22A0068460178A0689C
:10A8B0006768B847F2BDF2B5040016001D0033000A
:10A8C0009BB22A0068460178A0682768B847F2BDA5
:10A8D0007047704780B51C480168491C016000F052
:10A8E0003FF8FEF72BF901BD80B51848FFF72AFCA9
:10A8F00001BD10B5164C2068800703D51548C06A05
:10A90000FEF737FC2068800603D51248806EFEF7FC
:10A9100030FC10BD10B5104C2000FEF7AFFE002833
:10A9200010D00E4808490A680368D21AAF235B00AA
:10A930009A4204D3096801602000FEF78DFE2000D2
:10A94000FEF7A2FE10BD0000E87F00203C7F002043
:10A950000000704830000020D87F0020EC7F0020ED
:10A9600003480168034A126889180160704700BFF4
:10A97000E47F00200C76002070B40123002413E053
:10A980000168001D194202D04D466D1E49190C6028
:10A99000091D121F042AFAD20D00960701D50C805A
:10A9A000AD1C1A4000D02C700268001D002AE7D1AF
:10A9B00070BC704730B501684118446862088A1855
:10A9C0008368E40704D54C461B1901E0641C06D1DA
:10A9D00091420BD00C7864B2491C0D78491C1D7053
:10A9E0005B1C002CF2D4641EF7D5F1E70C3030BDAF
:10A9F00030B401220EE00368C318446808301442E2
:10AA000002D04D466D1E64191D6825601B1D241D56
:10AA1000091FF9D10168001D0029ECD130BC704735
:10AA200010B5074979441831064C7C44163404E0CB
:10AA3000081D0A68891888470100A142F8D110BD95
:10AA4000080000004000000031FFFFFF7800000018
:10AA500030000020A00900005C760020000000000B
:10AA600055FFFFFF9800000018000000C000002004
:10AA700081FFFFFF007300004856FFFF5C030020CA
:10AA800000000000FCF7FCFD002801D0FFF7C8FF24
:10AA900000BF00BF002000BF00BFFEF70DFC00F0AC
:10AAA00000F880B500F002F801BD7047074638464F
:10AAB00000F002F8FBE7704780B500BF00BF024A14
:10AAC00011001820ABBEFBE72600020000BF00BF4C
:10AAD00000BF00BFFFF7D6FF704770477047704751
:10AAE00070477047704770477047704770477047AE
:10AAF000704770477047704770477047810081000A
:08AB0000810081008100DF00EB
:040000051004AACD6C
:00000001FF
