:020000041004E6
:1000000000000120DD190410BD0C04106F1804104D
:10001000AA5555AA45554C420000000000000000BA
:100020000000000000000000000000006F0D041040
:100030000000000000000000730D0410731804108D
:1000400077170410C7170410FB180410A319041025
:10005000AF190410E9190410EB190410ED1904107C
:10006000BD180410EF190410F1190410F31904104D
:10007000F5190410F7190410F91904107D1804106B
:10008000FB190410FD190410FF190410011A0410C3
:10009000031A0410051A0410071A0410091A041090
:1000A0000B1A04100D1A04100000000000000000DC
:1000B0000000000000000000000000000000000040
:1000C000F0B5020052B2002A1CD40322B64B040041
:1000D00064B2A40804256C431C59FF251600064091
:1000E00008277E43B540AC438D01EDB2024008269F
:1000F000724395402543020052B2920804246243A1
:100100009D5022E00F24A94A032305006DB225402B
:10011000083DAD0804267543060076B23440083C1D
:10012000A408042674431659FF27BC461C0004404B
:1001300008277C436746A740BE438C01E4B20340D6
:1001400008277B439C4034435451F0BD00B5BFF3B6
:100150004F8F974897490860BFF34F8F00BFFDE767
:1001600095480168802252020A4302607047924813
:100170000068410C0800C007C00F70478F498022FB
:100180000A600A688E4B134002021A430A607047E5
:100190008A490A6870239A4302430A607047CD492E
:1001A0000A68CD4B134002061A430A600A6880238E
:1001B0001B0413430B60704780B5CD4801680222D1
:1001C0000A430260002100910099062904DA00BF69
:1001D0000099491C0091F7E7016804220A43026074
:1001E00001BDC3490A68C34B134003430B6070470A
:1001F0007148016810220A43026070476E48006827
:1002000041090800C007C00F7047B2490A6860235F
:100210009A4302430A607047AE490A681E239A4314
:10022000430013430B600A68012313430B607047BC
:10023000B1490A6806239A4302430A607047AC49F1
:100240000A68AE4B134003430B607047A8490A6825
:10025000AB4B134003430B60704757480168802243
:1002600092010A430260704753480068810B0800FE
:10027000C007C00F70479E490A68E0239A430243B3
:100280000A607047D1490A6802430A607047D04843
:10029000006881080800C007C00F7047CD490A6890
:1002A000CD4B134003430B607047CA490A683023A3
:1002B0009A4302430A607047C8490A6882430A6049
:1002C000C7490A6882430A60704710B4C5490A6882
:1002D000C54B1340C202E024A40114401C430C602F
:1002E0000A688023DB0013430B6010BC704710B416
:1002F000BC490A68D14B13408201F024A400144089
:100300001C430C600A68202313430B6010BC704729
:1003100010B4B4490A681E239A4343001E241C40AB
:1003200014430C600A68012313430B6010BC704730
:10033000426830239A430A434260704781B06E4955
:100340000A6802430A60096801400091009901B0FF
:100350007047BB490A6802430A607047B8490A6897
:1003600082430A6070478020C00500680007000FC4
:1003700070478020C005006800090007000F704723
:1003800080B5B048006800280BD1AF48006800284D
:1003900007D00120AD49886000F091FCFFF7D6FE40
:1003A000FCE7012002BD000000E400E01CED00E0DD
:1003B0000400FA050CED00E00000404898004048B9
:1003C000FFC0FFFF80B503210020FFF779FE032166
:1003D0000120FFF775FE03210220FFF771FE0321C4
:1003E0000320FFF76DFE03210420FFF769FE0321C0
:1003F0000520FFF765FE03210620FFF761FE0321BC
:100400000720FFF75DFE03210820FFF759FE0321B7
:100410000920FFF755FE03210A20FFF751FE0321B3
:100420000B20FFF74DFE03210C20FFF749FE0321AF
:100430000D20FFF745FE03210E20FFF741FE0321AB
:100440000F20FFF73DFE03211020FFF739FE0321A7
:100450001120FFF735FE00211220FFF731FE0321A6
:100460001320FFF72DFE03211420FFF729FE03219F
:100470001520FFF725FE03211620FFF721FE01219D
:100480001720FFF71DFE00211820FFF719FE03219A
:100490001920FFF715FE01BD70B504000D00160010
:1004A0003000C0B200280FD02000FA21890000F0EF
:1004B00007FC401E684366490860002065490860E3
:1004C00005206549086004E0634801680122914302
:1004D000016070BD0C004048FFFFFFC000B55E48E2
:1004E0000068C00301D5012000E0002000BD00002D
:1004F00008004048FF7FFEFF60004048FFEFFFFF1D
:10050000FFF3FFFFFEB500263000694608700122A8
:10051000C8215248FFF7C0FFFFF7B9FE002806D1F7
:10052000FFF7DCFF0028F7D00120694608700022A1
:1005300000210020FFF7B0FF68460078002802D0B5
:100540006846007841E08020C000FFF77FFE202051
:10055000FFF7ABFE80204001FFF771FE5A480068AC
:100560005A49884215D10F203D490A68024002923B
:100570000A68120957077F0F0A68140A04400A68BC
:10058000120B104001900868000C8506AD0E012684
:1005900003E00824029403271E252800FFF7FFFD2F
:1005A0003000C0B2002802D00198FFF735FE2000CD
:1005B000FFF7AEFE0298FFF79AFE3800FFF785FEC0
:1005C00080204000FFF76AFE0020FEBD0400504876
:1005D000140050481C005048FFFEFFFF2800504800
:1005E0002C00504894005048FFC7FFFF10B500246E
:1005F0000122962149001948FFF74EFFC0208001D3
:10060000FFF75AFE80200002FFF7EBFD6020FFF7A6
:10061000FCFDFFF7EDFDFFF7F1FD002805D1FFF729
:100620005DFF0028F7D002200400002200210020F6
:10063000FFF732FF2000C0B210BD00003FFCFFFFFB
:1006400040004048940040481000504804000020FA
:1006500014E000E018E000E010E000E00024F40006
:10066000E41E0010F1B586B06846007E00280ED06A
:100670002020FFF700FE0220FFF7DAFD0120FFF740
:1006800068FE0120FFF76AFE0120FFF757FE0E48C3
:1006900000680E4988421BD10F21CF480268120A18
:1006A0000A4004920268140B0C400268120C1140BC
:1006B000039107210268120D0A4002920068000EA1
:1006C00001400191012508E0F81E0010CCECBCFCB3
:1006D000082004900724039000250F20BF490968D3
:1006E0000F229143039A02400A43BC490A60BC4965
:1006F0000968F02291432201F02313400B43B849CB
:100700000B60B74909680F229143049A10400843CF
:10071000B34908602800C0B2002811D0B148016870
:1007200007229143029A5207520F0A43026001685E
:1007300038229143019AD200382313400B430360BF
:10074000A94801683F2291430A220A4302600168D6
:1007500040220A430260A54801683F2291430422D7
:100760000A430260016880220A4302600168402255
:10077000914301609E4801683F22914301609D487A
:1007800001683F22914310220A4302609A4801689F
:100790003F22914320220A430260984801683F2289
:1007A000914330220A430260954801683F229143F9
:1007B00038220A430260934801683F22914339225C
:1007C0000A430260904801683F2291433A220A435B
:1007D00002608E4801683F2291433B220A43026037
:1007E0008B4801683F2291433C220A4302608948BA
:1007F00001683F2291433D220A4302605520864909
:100800000968FF2291430143834A116083490968C3
:10081000FF22914366220A4380490A6080490968A1
:10082000FF22914308437E4908607E480068FF210B
:1008300088431D2101437B4801607B480068FF21FC
:100840008843592101437848016078480068FF21B6
:1008500088432D21014375480160012674480068D2
:10086000304373490860FFF784FD0701FFF77BFD04
:10087000384305900598202800D2ABE000210800FD
:100880006C4A33000700FFB2D355401C5E230700BB
:10089000FFB2D355401C514B1B680700FFB2D35524
:1008A000401C33000700FFB2D355401C5D230700F6
:1008B000FFB2D355401C4A4B1B680700FFB2D3550B
:1008C000401C2B00DBB2002B0FD033000700FFB21F
:1008D000D355401C52230700FFB2D355401C414B57
:1008E0001B680700FFB2D355401C33000700FFB25E
:1008F000D355401C12230700FFB2D355401C464B72
:100900001B680700FFB2D355401C33000700FFB23D
:10091000D355401C15230700FFB2D355401C3F4B55
:100920001B680700FFB2D355401C33000700FFB21D
:10093000D355401C1A230700FFB2D355401C384B37
:100940001B680700FFB2D355401C33000700FFB2FD
:10095000D355401C22230700FFB2D355401C314B16
:100960001B680700FFB2D355401C33000700FFB2DD
:10097000D355401C21230700FFB2D355401C2A4BFE
:100980001B680700FFB2D355401C33000700FFB2BD
:10099000D355401C23230700FFB2D355401C234BE3
:1009A0001B680700FFB2D355401C0300DBB2D654CE
:1009B000401C1B230600F6B29355401C1C4B1B68C1
:1009C0000600F6B29355401C0300DBB2D154401C24
:1009D0006946087007B0F0BDE81E00107816006088
:1009E0007416006048160060C0160060C4160060EF
:1009F000E8160060EC160060F0160060F416006067
:100A0000F8160060FC160060001700600417006014
:100A1000081700600C17006048150060541500604E
:100A20006815006088150060841500608C150060F2
:100A30006C1500603C000020F8B506000F00002592
:100A4000FFF797FC0401FFF78EFC204300908D4CCC
:100A5000012264212000FFF71FFDFFF781FBFFF754
:100A600086FB002805D1FFF739FD0028F7D00420C8
:100A70000500002200210020FFF70EFD2800C0B273
:100A8000002802D02800C0B2BCE03000C0B200286C
:100A900004D10098102801D10620B3E03000C0B284
:100AA00000286BD03000C0B201280AD039D3032807
:100AB00014D00DD305281FD017D307282AD022D34E
:100AC0002FE00020FFF7D7FB6F487049086029E04E
:100AD0002020FFF7D0FB6D48046023E04020FFF7A3
:100AE000CAFB6B48694908601CE06020FFF7C3FB44
:100AF00068486649086015E08020FFF7BCFB66483F
:100B0000624908600EE0A020FFF7B5FB63485F492B
:100B1000086007E0C020FFF7AEFB61485B49086052
:100B200000E0FEE7594C0122C8212068FFF7B4FC21
:100B3000FFF793FBFFF798FB002805D1FFF7CEFCEA
:100B40000028F7D005200500002200210020FFF733
:100B5000A3FC2800C0B2002802D02800C0B251E097
:100B600020684949884204D110214E48FFF7E0FB34
:100B700006E000214B48FFF7DBFB01E0FFF71CFB21
:100B80003800C0B2FF2801D100203BE03800C0B2DD
:100B9000012803D03000C0B2032805D10420FFF79C
:100BA00047FB0120070002E00220FFF741FB00980D
:100BB000102826D13000C0B2012807D13800C0B2B9
:100BC000012803D12A203849086016E03000C0B25D
:100BD000012803D13800C0B2002807D03000C0B2CD
:100BE000022807D13800C0B2012803D129202E499C
:100BF000086002E028202C4908602C4800680007A3
:100C0000FBD40020F2BDF8B507000C0028482949A4
:100C1000086029490861E020FFF734FBFFF772FC08
:100C200006003000C0B2002802D03000C0B228E078
:100C3000FFF7DCFC05002800C0B2002802D0280025
:100C4000C0B21EE02000C0B2FF2802D00120FFF792
:100C500009FD2020FFF792FA3020FFF799FA2100D2
:100C6000C9B23800C0B2FFF7E7FE06003000C0B2DC
:100C7000002802D03000C0B203E0FFF7A3FB62B649
:100C80000020F2BD0048E8010090D00330000020B1
:100C90000024F40000127A0000093D0080841E0048
:100CA00040420F000010004000500040045000403F
:100CB0000000041008ED00E00400002070477047B9
:100CC0000022030A8B420BD203098B4219D243083C
:100CD0008B422ED2411A00D2014652411046704733
:100CE000FF2209023FD012068B4205D312120902DD
:100CF0008B4201D31212090203098B4219D300E07F
:100D0000090AC3098B4201D3CB01C01A524183099E
:100D10008B4201D38B01C01A524143098B4201D34C
:100D20004B01C01A524103098B4201D30B01C01A77
:100D30005241C3088B4201D3CB00C01A52418308F1
:100D40008B4201D38B00C01A524143088B4201D31E
:100D50004B00C01A5241884200D3401A5241CFD2B0
:100D600001461046704708B500F002F808BD70470C
:100D70007047704700B5010049B2002905D4012130
:100D8000C206D20E9140A14A116000BDF0B502002A
:100D900052B2002A1CD40322C84B040064B2A40837
:100DA00004256C431C59FF251600064008277E4386
:100DB000B540AC438D01EDB2024008267243954028
:100DC0002543020052B29208042462439D5022E05F
:100DD0000F24BB4A032305006DB22540083DAD0832
:100DE00004267543060076B23440083CA408042665
:100DF00074431659FF27BC461C00044008277C4357
:100E00006746A740BE438C01E4B2034008277B43FA
:100E10009C4034435451F0BD81B0D0490A6802432C
:100E20000A60096801400091009901B0704781B0E3
:100E3000CF490A6802430A6009680140009100999D
:100E400001B0704781B0CF490A6802430A6009685F
:100E500001400091009901B07047CB480068010043
:100E6000090C0800C007C00F7047CE490A688243CA
:100E70000A60CD490A6802430A607047CA490A6895
:100E800082430A60C7490A6802430A607047C6493C
:100E90000A6882430A60C3490A6882430A6070474D
:100EA000C2490A6882430A60C1490A6802430A606B
:100EB0007047BF490A6882430A60BC490A68024316
:100EC0000A607047BA490A6882430A60B7490A68EB
:100ED00082430A607047016801220A43026070473A
:100EE0000168CD4A0A40026070478268D200D20889
:100EF0004B071343836070478268C84B13404A0610
:100F00001A43826070474168C54A0A40426081685E
:100F10002A22914381607047C06981090800C00797
:100F2000C00F7047C069C1090800C007C00F7047F3
:100F3000C069410D0800C007C00F7047C069810D2E
:100F40000800C007C00F70474021016270470A00C7
:100F5000D2B28262704730B403680C004C43032560
:100F60006C43A3430C004C4354431C43046030BC0B
:100F7000704770B504000D0016009020C005844233
:100F800011D1002E03D0022E09D004D31CE028007A
:100F9000FFF77DFF18E02800FFF767FF14E0280047
:100FA000FFF76CFF10E0002E03D0022E09D004D30F
:100FB0000AE02800FFF786FF06E02800FFF770FF31
:100FC00002E02800FFF775FF70BD81617047816204
:100FD000704742694A404261704780B5FF21022054
:100FE000FFF711FE002800D0FEE700F011F8B2482C
:100FF000006800F084F900F065F800F010F800F0E7
:10100000B9F800F0D7F800F00DF9FAE700E100E0D8
:1010100080B501210020C043FFF7B8FE01BD10B527
:101020008EB02022002106A800F08AF98020C0009E
:10103000FFF708FFC020800000900220019002907E
:101040000024039401200490059469469020C00573
:1010500000F031FA01210820FFF798FE0820FFF781
:1010600089FE0694E12040020790089409940A94AE
:101070000C200B900C940D94904C06A9200000F0CD
:10108000B6FA00212000FFF730FF00212000FFF713
:1010900033FF2000FFF724FF2000FFF734FF20007C
:1010A000FFF719FF2000FFF743FF0028FAD02000C8
:1010B000FFF744FF0028F5D00EB010BD00E400E0BB
:1010C0001CED00E0F8B588B01822002102A800F05D
:1010D00037F908220021684600F032F90420FFF7B2
:1010E0009BFE0820FFF798FE802464002000FFF795
:1010F0009EFE734D21002800FFF767FF0294012632
:101100000396002404940594069402A9280000F094
:10111000D2F99027FF058025ED0000222900380034
:10112000FFF727FF002229003800FFF714FF009582
:1011300068463100017144718671684600F0FAFA20
:1011400001210F20FFF722FE0F20FFF713FE0121E0
:101150000020C043FFF71AFE09B0F0BD5000404820
:1011600080B5802149005648FFF731FF01BD0000DE
:101170005400404880B5802149005148FFF725FFC1
:1011800001BD00005800404810E000E010B5040028
:10119000802149004A48FFF71CFF200000F0B7F803
:1011A000F6E7000024005048200050482C0050482A
:1011B0002800504838B5434C2078372817D23F4D87
:1011C0002800FFF7AFFE0028F9D03F480078362806
:1011D00002D12800FFF7B8FE20780100491C2170D9
:1011E0003A49C0B2095C2800FFF7B1FEE3E738488E
:1011F0000178002908D1802149003148FFF7E9FE34
:10120000C82000F084F8F2E700210A002E4B1A7083
:101210000A002270017031BDFFFFFFDFFFFFFFF109
:10122000FFB7FFFF70B5284D28788A2827D2294EAE
:101230000A203060214C2000FFF774FE00280DD1F9
:10124000FFF70BFE0028F5D03068411E3160002802
:10125000F0D1FA204000FFF799FFEBE728788928C2
:1012600002D12000FFF770FE28780100491C297088
:101270001949C0B2095C2000FFF769FED3E7154C9D
:10128000142020600D48FFF747FE00280DD1FFF71E
:10129000E4FD0028F6D02068411E21600028F1D12D
:1012A000FA204000FFF772FFECE7FFF759FF70BD2F
:1012B00001200749087070473000002000400041BD
:1012C000000010486200002061000020FC1804109B
:1012D000600000205C000020C817041030B5040036
:1012E0000D0020002900FFF7EBFC401E11490860AB
:1012F00000201149086007201049086030BD10B572
:101300000400FA2189002000FFF7E8FF10BD80B536
:1013100002000A490B680093009B0023DB439A42BA
:1013200000D0521C002A04D00B68DB03FAD5521EF1
:10133000F8E701BD14E000E018E000E010E000E094
:1013400010B50400080011000200200000F014FA9B
:10135000200010BD79490A6882430A6078490A680A
:1013600002430A60704776490A6882430A607349FB
:101370000A6802430A60704771490A6882430A603A
:101380006E490A6882430A6070476E490A68824360
:101390000A606D490A6802430A6070476A490A6830
:1013A00082430A6067490A6802430A6070476649D7
:1013B0000A6882430A6063490A6882430A60704788
:1013C00030B403680C004C4303256C43A3430C006A
:1013D0004C4354431C43046030BC704710B4436812
:1013E0008B430C0054431C43446010BC704730B422
:1013F00083680C004C4303256C43A3430C004C430F
:1014000054431C43846030BC704770B504000D0029
:1014100016009020C005844211D1002E03D0022E68
:1014200009D004D31CE02800FFF7A6FF18E028002D
:10143000FFF790FF14E02800FFF795FF10E0002E63
:1014400003D0022E09D004D30AE02800FFF7AFFF33
:1014500006E02800FFF799FF02E02800FFF79EFF53
:1014600070BD30B4036A0C004C434C434C430F2511
:101470006C43A3430C004C434C434C4354431C4328
:10148000046230BC704730B4446A0B0A0D0A6B43E7
:101490000D0A6B430D0A6B430F256B439C430B0AEC
:1014A0000D0A6B430D0A6B430D0A6B4353432343F1
:1014B000436230BC7047F8B506000C000025206878
:1014C000E84000282DD020680121A94001400F00EC
:1014D000002F24D0606802280CD1FF2F05D8626944
:1014E00039003000FFF7BDFF04E0626939003000C9
:1014F000FFF7C9FF626839003000FFF761FF6068DD
:10150000012802D06068022804D1A26839003000A6
:10151000FFF76DFF226939003000FFF776FF6D1C81
:10152000CDE76068012802D06068022804D1E26833
:1015300021683000FFF752FF0020F2BD2400504820
:10154000200050482C0050482800504801680800EE
:10155000C007C00F7047C26A0F239A430B009BB2AB
:101560001A43C26270474268384B13400B434360D2
:1015700070478268364B13400B4383607047FCB55D
:1015800004000D0016001F008020000286421DD1BD
:10159000304831492A0092B202235343C95AFFF717
:1015A0008FFB02214843790840183900FFF788FB78
:1015B00080B20090009929480840009949084907DD
:1015C000490F084301900198E0600FE0214822494B
:1015D0002A0092B202235343C95AFFF771FB7908DC
:1015E00040183900FFF76CFB80B2E060F3BD70B5C6
:1015F00005000C0001262800FFF7A8FF002822D1D3
:10160000286817490140A0680843216901436069BF
:101610000843E16901432960E1682800FFF7A3FF5F
:10162000A1692800FFF7A5FF6068002807D063685C
:10163000E26921682800FFF7A2FF00200600216868
:101640002800FFF788FF3000C0B270BDFFCFFFFF5A
:10165000FFFCFFFF0024F400C4190410F0FF000099
:10166000F369FFEF2E490A6802430A6070472C496C
:101670000A6882430A60704700B50200D2B2002AAD
:1016800004D1284A13688B43136003E0254A13688A
:101690000B43136000BD00B50200D2B2032A08D18B
:1016A000214A13680B431360204A13688B4313606D
:1016B00032E00200D2B2012A08D11B4A13688B43E0
:1016C00013601A4A13680B43136025E00200D2B27C
:1016D000022A08D1144A13688B431360134A136813
:1016E0008B43136018E00200D2B2042A08D10E4ADC
:1016F00013688B4313600D4A13688B4313600BE030
:101700000200D2B2052A07D1074A13688B4313603F
:10171000064A13680B43136000BD05490860704713
:10172000180000400C000040100000401400004071
:101730001C00004038B5040000252079002814D092
:101740002068002814D021686079FFF795FFA07900
:10175000002803D02168A079FFF79DFF2068FFF7DC
:1017600081FF2068FFF7D9FF02E02068FFF77FFFC5
:101770002800C0B232BD70471206130A1A43130C78
:101780001A4300BF094205D0830705D00270401CF0
:10179000491EF9D1704700001300103906D330B448
:1017A0001400150010393CC0FCD230BC490700D3EE
:1017B0000CC000D504C0890002D30280801C00291F
:1017C00000D5027070477047424C55454E52475FF6
:1017D0004C50205553415254204C4C2041504920EC
:1017E0004578616D706C65203A20545820696E20F0
:1017F000506F6C6C696E67206D6F64650D0A436F86
:101800006E66696775726174696F6E2055415254D6
:1018100020313135323030206270732C2038206412
:10182000617461206269742F312073746F7020625B
:1018300069742F4E6F207061726974792F4E6F201A
:10184000485720666C6F7720636F6E74726F6C0DF3
:101850000A00000000B5164909680140814201D123
:10186000012000E0002000BD11490860704700B56C
:10187000FEE710480168491C0160704710B58024DC
:10188000E4002000FFF7E6FF00280FD02000FFF75C
:10189000EBFF094807490A680368D21AAF235B00C7
:1018A0009A4203D309680160FFF702FD10BD0000F2
:1018B0001C0000403400002038000020704730B584
:1018C00001684118446862088A188368E40704D5EF
:1018D0004C461B1901E0641C06D191420BD00C78D8
:1018E00064B2491C0D78491C1D705B1C002CF2D49D
:1018F000641EF7D5F1E70C3030BD70470D0A576113
:10190000697420666F7220757365722070757368D4
:1019100020627574746F6E20707265737320746FBB
:10192000207374617274207472616E736665722EB6
:101930000D0A000010B5074979441831064C7C4463
:10194000163404E0081D0A68891888470100A1427E
:10195000F8D110BD080000002400000063FFFFFF65
:10196000AE00000018000000C000002053FFFFFF81
:10197000AA0000000E00000030000020FEF700FD6D
:10198000002801D0FFF7D6FF00BF00BF002000BF36
:1019900000BFFFF722FB00F000F880B500F002F86E
:1019A00001BD70470746384600F002F8FBE7704774
:1019B00080B500BF00BF024A11001820ABBEFBE794
:1019C00026000200010002000400060008000A00D0
:1019D0000C001000200040008000000100BF00BF8C
:1019E00000BF00BFFFF7CAFF7047704770477047DE
:1019F000704770477047704770477047704770472F
:101A00007047704770477047704770477047810054
:101A10008100810081008100DF00030090D003D1AC
:011A200000C5
:04000005100419DDED
:00000001FF
