:020000041004E6
:1000000000000120212704105D1904107B19041041
:10001000AA5555AA45554C420000000000000000BA
:10002000000000000000000000000000592604103D
:1000300000000000000000005B2604105D26041094
:100040005F1E0410971E04103F2404104324041064
:1000500069260410CF24041027250410FF2604105D
:10006000392704103B2704103D2704103F270410B4
:100070004127041043270410452704104727041084
:10008000492704104B2704104D2704104F27041054
:100090005127041053270410552704105727041024
:1000A000592704105B270410000000000000000026
:1000B0000000000000000000000000000000000040
:1000C00070B5040001D1012070BD25004035002627
:1000D0006878002803D12E70200000F013FD242042
:1000E00068702068016801229143016060681E49C0
:1000F00001402068016121681C488A6802408A60CA
:10010000E1680129A16801D1C24301E08422120201
:100110000A4321688A60E168022903D1802109012C
:100120002268516021684A68114B13434B60216873
:10013000CA681040C860206961690143A069000273
:1001400008432168C860E069216A014320680160B2
:100150002068016801220A4302606E6020206870F6
:100160002663AE70002070BDFFFFFFF0FF7FFFFF32
:1001700000800002F8B5030040335C78202C1BD1CE
:100180004024045D012C17D001241C7021245C70D4
:1001900020249C7000245C6005686E681C4F37400A
:1001A0006F6041624285418D01851849C1621949DC
:1001B00041631C70052125E00220F2BDF8B5030063
:1001C00040335C78202C1BD14024045D012C17D0D7
:1001D00001241C7022245C7020249C7000245C602C
:1001E00005686E680A4F37406F6041624285418DF5
:1001F00001850649C162074941631C70062101E07F
:100200000220F2BD00F0F9FB0020F2BD0000FFFF6C
:10021000FF7FFFFF93020410026891691268436B2D
:10022000002B00D1704780B5984701BD38B50168F3
:100230008A690B68D40508D51C0606D5446C0125CF
:100240002543456480246400CC61510509D5190615
:1002500007D5416C08240C4344648021C90004681C
:10026000E161910509D5190607D5416C02220A43BF
:100270004264802189000268D161416C0B220A40EE
:1002800001D000F017FB31BD4121405C7047406C4C
:100290007047F8B50400E06A4023E35C012B01D10C
:1002A0000220F2BD0091260040360121317009067E
:1002B000414B1500009AD2062DD5EA062BD5102207
:1002C000678D002F18D17178282907D151058842F0
:1002D00004D10099200000F0BFFA5FE0717829296D
:1002E00007D1984205D02068C261200000F041FB90
:1002F00051E02068C26151E02368DA61726804232A
:1003000013437360002801D0884247D171682000F0
:1003100000F0D0FA42E0DA43009F7F0717D56F075D
:1003200015D5618D00290CD02168496A676A39703A
:10033000616A491C6162218D89182185618D891846
:100340006185618D002929D1984227D023E0009B47
:100350001B0706D52B0704D50099200000F028F9CB
:100360001CE0009B9B0719D5AB0717D5638D002BAD
:100370000DD0606A007821688862606A401C606203
:10038000608D80186085208D8018208506E0884269
:1003900001D0002802D1200000F079F900988006F1
:1003A00005D5A80603D50099200000F0EBF9002040
:1003B0003070F2BD000000000000FFFFF8B504003F
:1003C0004020205C012801D10220F2BD26004036E9
:1003D00001203070C80610D5D0060ED51020216837
:1003E000C86170680421014371601221200000F08F
:1003F00004FB200000F0BDFA5DE08025ED01EB027A
:100400006A480F0635D5570633D521680A68402754
:10041000BA430A602168628D002A26D0496889059E
:10042000890D628DFF2A03D9FF2020855B0805E036
:10043000628D2285E26A824200D0E36A0020009049
:10044000228DD2B2200000F0C7FA608D218D401AB3
:100450006085206871782229016803D16A000A4307
:10046000026028E00D43056025E04868034012D093
:1004700015E04F0618D5570616D5618D00290ED107
:1004800021684A68134016D1E26A824203D1486863
:1004900005434D600FE0200000F0D6F80BE040214E
:1004A000200000F007FA06E0880604D5900602D581
:1004B000200000F018F900203070F2BDF8B50400FB
:1004C000E06A002500234026A65D012E01D102200E
:1004D000F2BD009101214027E155009EF6064ED560
:1004E000D6064CD51026C0273F02174044D0E26BF9
:1004F000002A04D012685268002A00D10123A16B9F
:10050000002903D009684968002901D0002B1DD0BB
:10051000210040314978282907D17105884204D14A
:100520000099200000F098F93CE021004031497822
:10053000292921D11D4988421ED02068C66120008A
:1005400000F017FA200000F0A2F82BE02168CE613D
:1005500021004031496804220A43210040314A60A9
:10056000002802D0310588421CD12000403041686B
:10057000200000F09FF915E02068C66112E00098A5
:10058000000706D5100704D50099200000F010F8E8
:1005900008E00098800605D5900603D50099200054
:1005A00000F0F0F8402025540020F2BD0000FFFFCD
:1005B000FEB507003C004034386800250821627809
:1005C00028231340282B3CD18269D203D30F6A46DB
:1005D00013708269120CFE26164082689205920DF5
:1005E0006B465A80C368FE221A406B469A80FA68AE
:1005F000022A1AD1062216405B88DB091A4096426D
:100600000BD1A268521CA260A268022A1BD1A5606D
:10061000C1612570684642880EE00421380000F070
:100620002DFA25706846828806E00421380000F023
:1006300025FA2570320068460178380000F0A0FAEB
:10064000F7BDC1612570F7BD70B5040026004036C6
:100650000025B57020207178212970700BD11120F0
:10066000206365630121200000F008FA3570200046
:1006700000F087FA70BD122020636563022120001C
:1006800000F0FCF93570200000F07CFA70BD38B540
:10069000040000254220255420003030282141222A
:1006A000A25C292A0DD14122A154212101600121FE
:1006B000200000F0E3F940202554200000F063FA08
:1006C00031BD4122A25C2A2A0CD14122A15422210F
:1006D00001600221200000F0D1F9402025542000C3
:1006E00000F052FA31BDF8B5060020273068C76126
:1006F00030684268A64B134043600024346374633F
:10070000A448F062350040351020014005D0316822
:10071000C8616868042101436960300000F029F96C
:100720000321300000F0AAF968686978602901D0D7
:10073000002804D06968300000F0BCF8F1BD68788A
:1007400021280DD16F70A8784028AC702C7003D18F
:10075000300000F01AFAF1BD300000F012FAF1BDDD
:10076000687822280CD16F70A8784028AC702C7063
:1007700003D1300000F00AFAF1BD300000F002FAB7
:10078000F1BD0000F2B50400206807682025C561AE
:100790000721200000F072F92068AE024168314361
:1007A0004160206841687A4A0A404260200000F0B7
:1007B000E0F8780401D5A06B02E03E4005D0E06B84
:1007C000002802D0006840686085009F042007422E
:1007D0000FD02168496A626A1170616A491C6162BE
:1007E000218D002905D06C4A89182185618D8918D1
:1007F000618526004036618D002902D0716808436A
:10080000706000202063B0706063716800290BD0B5
:100810007168200000F04EF8707828281BD139004C
:10082000200000F019F8F1BD5C49E26A8A4206D066
:10083000E16275703070200000F0A9F9F1BD7178A7
:1008400022297570307003D1200000F09DF9F1BDB0
:10085000200000F098F9F1BD70B504004D48E06249
:10086000002525632600403620207070B570656332
:100870000420014012D02168496A626A1170616ADD
:10088000491C6162218D002908D0434A89182185BD
:10089000618D8918618571680843706007212000A7
:1008A00000F0ECF810202168C8613570200000F0DD
:1008B0006EF970BDF8B5040026004036707800254A
:1008C000B570344AE2626585726811437160202711
:1008D000282803D0292801D02A2809D10321200063
:1008E00000F0CCF82820707025632D48606309E083
:1008F0000721200000F0C2F87078602800D07770DF
:1009000025636563216827480A6852040A680ED582
:10091000254B13400B60A16B002929D088633570EB
:10092000A06B00F035F9002822D0A06B10E0120473
:1009300011D50A68274B13400B60E16B002917D0D3
:1009400088633570E06B00F023F9002810D0E06B6D
:10095000816B8847F1BD7078602805D1777035705C
:10096000200000F03CF9F1BD3570200000F030FAB5
:10097000F1BD00688169890701D5002181620121EB
:1009800082690A4002D18269114381617047000087
:1009900000E800FE0000FFFFFFFF00000000FFFF77
:1009A00093020410AD090410FFBFFFFF80B5806AF9
:1009B0000021826B9163C26B91634121415C60298C
:1009C00005D120214122815400F009F901BD00F038
:1009D000FFF901BDFF7FFFFFF0B5059C006845688A
:1009E000660D234F3743BD438905890D2943120402
:1009F0000A4313431C434460F0BDF1B581B00020AD
:100A0000019A526B00920A0012230425009E194F8E
:100A1000BE4202D0184FBE4210D1294200D0B820A9
:100A200011211140112902D10100902008431340E7
:100A3000122B16D120210143402011E0294200D081
:100A4000B820CC0702D50400F2202043890702D544
:100A50000100F42008431340122B02D10100202092
:100A60000843019909680A6810430860F3BD000053
:100A7000FF63FF03BD030410BD04041010B5002282
:100A80002823CC0706D542224124045D1C40282C93
:100A900000D0F2228C070AD51400442222434124BC
:100AA000045D2340282B02D01300B0221A434B07C9
:100AB00002D51300B8221A4311230B40112B02D187
:100AC000130090221A4312230B40122B03D1202132
:100AD000114340220A43006801689143016010BD40
:100AE00081B024490A6802430A60096808400090FE
:100AF000009801B0704780B500210020C04300F08D
:100B0000A4F901BD00681C49884200D07047F8B5BF
:100B100086B00420FFF7E4FF0420FFF7E1FF802008
:100B2000800100901226019601240294002503956D
:100B30000495B7066946380000F0F4F9A003009068
:100B400001960294039504956946380000F0EAF98D
:100B5000E0050A490A6802430A60096808400590EE
:100B600005980021042000F070F9042000F071F9CC
:100B700007B0F0BD50004048001000415800404808
:100B800070477047704770477047704770477047AD
:100B900070B50022002401212523C35C022B03D061
:100BA0000422C263012418E003681D680E26B543C1
:100BB0001D6003681D688D431D604423C35C3C2594
:100BC0001D400123AB40056C6B602523C1542421DB
:100BD0004254816B002900D08847200070BD7047C7
:100BE00081B075490A6802430A60096808400090AC
:100BF000009801B070470000F8B5FF21022000F016
:100C000095FD002800D0FEE700F0AAFE002000F0CD
:100C100027FF0420FFF7E4FF0820FFF7E1FF674C00
:100C20006748A060606DE0603E2020610120606147
:100C30000020A061E06120626062A06220000830B4
:100C4000FFF73EFA002801D000F0CAF8002120008A
:100C5000083000F0D7FF002801D000F0C1F80021D3
:100C60002000083000F0EBFF002801D000F0B8F8B9
:100C70008020400053490A6802430A60096808401E
:100C800000900098012000F0FFFF022000F0FCFF20
:100C9000012001F069F8022001F066F853A001F08C
:100CA000C1F8494E494D06E057A001F0BBF8932129
:100CB000280001F0CBF800206080A080300001F017
:100CC000B1F80122210020000830FFF777FA002850
:100CD000F7D120000830FFF7D7FA2028F9D1207883
:100CE000342842D13000283001F09CF80222211D26
:100CF00020000830FFF762FA0028F7D12000083002
:100D0000FFF7C2FA2028F9D13000543001F08AF8F8
:100D10002000EC300090A288009920000830FFF7F6
:100D20004DFA0028F7D120000830FFF7ADFA20284F
:100D3000F9D130007C3001F075F8A088290022003C
:100D4000583201E0521C491C0300581E1B04ABD052
:100D500013780F78BB42F5D00004A5D027A001F08E
:100D600061F8022001F042F8FEE73000A43001F003
:100D700059F80222A11C20000830FFF71FFA0028B2
:100D8000F7D120000830FFF77FFA2028F9D1300092
:100D9000D43001F047F89322210058312000083068
:100DA000FFF7E8F90028F6D120000830FFF76CFAC9
:100DB000202800D17FE7F7E7500040486803002073
:100DC00000100041540040485C25041054040020E9
:100DD00080B5FFF75CFA042801D000F001F801BDEE
:100DE00080B5022001F002F8FEE70000536C617646
:100DF0006520626F6172640A0D0000004572726FB7
:100E0000722E0A0D000000004F6B0A0D000000005A
:100E100010B5C20018231340FF249C40E243890709
:100E2000090E9940030004D41A489B089B00C0187F
:100E300006E0194B0007000F0838800880001818DA
:100E400003681A401143016010BD80B5FFF7E0FF51
:100E500001BD010005D40121C006C00E81400F482C
:100E60000160704710B5401E80214904884201D3BB
:100E7000012010BD0A4C606003210020C043FFF731
:100E8000C7FF0020A0600721216010BD80B500F0E1
:100E900009F801BD00E400E01CED00E000E100E025
:100EA00010E000E07047F1B401684218416848085A
:100EB000131800988068C9071ED5494640181BE0E2
:100EC0001778521C0770401C761EF9D1002C13D0E5
:100ED0001678521C89080D40032D01D11578521C3B
:100EE000290271184D424119A41C05D00D78491CE6
:100EF0000570401C641EF9D19A420FD01178521C23
:100F0000032503260E4002D11678F61C521C0C094C
:100F10000F2CD9D114780F34521CD5E700980C301F
:100F2000F2BC7047F0B586B002007E480092002205
:100F30000EE0130423610AE02B00039D1D43A5600E
:100F4000009B9025ED05AB42E368F2D12261521C73
:100F50000B68D34000D1E3E0DB07F8D54B68022BE8
:100F600001D0122B0ED1009BD408A4001B191C6ABF
:100F700096001C2535400F26AE40B4430E69AE40A6
:100F800026431E62009B1D68530003269E40F443C7
:100F900025400E79B607B60F9E402E43009D2E6069
:100FA0004D68012D05D0022D03D0112D01D0122D39
:100FB00014D1009DAD682C40CD689D402543009B19
:100FC0009D60009B5C68012301259540AC434D6802
:100FD0002D092B4093402343009C63608B68009C49
:100FE0009025ED05AC421DD1002B03D0022B11D072
:100FF00008D334E00C68E34304681C400460446890
:1010000023400DE00B6844689C434460046823431C
:10101000036024E00B6804689C4304604468234335
:1010200043601CE0002B03D0022B11D008D316E044
:101030000C68E34384681C408460C46823400DE06E
:101040000B68C4689C43C46084682343836006E0E3
:101050000B6884689C438460C4682343C3604D6804
:10106000EB0000D473E700232F4C24680126964040
:10107000049636040396F64302962D0980267601DF
:101080003540954001279740FE430196009E9027EA
:10109000FF05BE4202D1019E264002E0029E26408C
:1010A0002D043543204C25604D680595ED031DD476
:1010B0006568009EBE4201D1019E00E0029E2E4066
:1010C000059FC025AD033D40C027BF03BD420CD1E5
:1010D0000123A660009D9027FF05BD4202D1350087
:1010E000049E01E03500039E2E436660A568002B38
:1010F00000D024E79023DB05009E9E4202D12E0003
:10110000019D01E02E00029D35404E68F60200D49C
:1011100015E7009E9E4200D00EE72B00049D0DE7D0
:1011200006B0F0BD200050480C00004010B5C200D1
:1011300018231340FF249C40E2438907090E99407D
:10114000030004D45F489B089B00C01806E05E4B78
:101150000007000F083880088000181803681A403C
:101160001143016010BD000081B05848016802229F
:101170000A430260002102E000BF0099491C00916F
:1011800000990629F8DB016804220A43026001B0D5
:10119000704780B54E480068002811D14D4800685E
:1011A00000280DD001204C49886000F057FEBFF3A5
:1011B0004F8F4A484A490860BFF34F8F00BFFDE791
:1011C000012002BD80B503210020FFF7AFFF0321FE
:1011D0000120FFF7ABFF03210220FFF7A7FF032148
:1011E0000320FFF7A3FF03210420FFF79FFF032144
:1011F0000520FFF79BFF03210620FFF797FF032140
:101200000720FFF793FF03210820FFF78FFF03213B
:101210000920FFF78BFF03210A20FFF787FF032137
:101220000B20FFF783FF03210C20FFF77FFF032133
:101230000D20FFF77BFF03210E20FFF777FF03212F
:101240000F20FFF773FF03211020FFF76FFF03212B
:101250001120FFF76BFF00211220FFF767FF03212A
:101260001320FFF763FF03211420FFF75FFF032123
:101270001520FFF75BFF03211620FFF757FF012121
:101280001720FFF753FF00211820FFF74FFF03211E
:101290001920FFF74BFF01BD30B50D00AE4C002A01
:1012A0000AD0FA21890000F0DBFD401E684360602F
:1012B0000020A060052002E0206801218843206012
:1012C00030BD000000E400E01CED00E008004048F4
:1012D0009400404810005048040000200400FA0523
:1012E0000CED00E0FEB50121002819D09B480368F1
:1012F000E024A34320241C430460836D0624A343FD
:1013000002241C438465836B0B438363836B8B4391
:101310008363836D0B438365806D08400090009864
:101320000F238F4804698F4DAC4213D104680568C0
:10133000066802685202520F029200684001420F92
:101340000091300C18402E0AF0253540240A1C402C
:10135000019404E008200190702500240094824C40
:101360000F26F643276B374038432063E06AF027A7
:10137000B8430543E562E06A064001983043E06205
:101380003820009D002D0DD025680726B543029E0C
:101390007607760F2E43266025688543D2000240EB
:1013A0002A4322603F22D243A56F15400A262E43CE
:1013B000A667A56F40262E43A667E56F1540042655
:1013C0002E43E667E56F80262E43E667E56F4026ED
:1013D000B543E567654D2E6816402E606E68164071
:1013E000102737436F60AE68164020273743AF6041
:1013F000EE68164030273743EF602E6916403043C1
:10140000286168691040392606436E61A86910405A
:101410003A260643AE61E86910403B260643EE617A
:10142000286A10403C2606432E62686A02403D202E
:10143000104368625522FF25ED43B64806682E40EA
:1014400016430660C6682E4066273743C760066AA3
:101450002E4032430262026C2A401D261643066467
:10146000C26B2A4059261643C663426C15402D2292
:101470002A434264426A0A4342628A071568126834
:10148000F0262E4013403343202B63D3A24A117021
:101490005E235370236B9370D1705D231371E36AE5
:1014A00053710623009D002D05D091715223D371F5
:1014B000236813720923D1545B1C1224DDB25455E6
:1014C0005B1C0468DDB254555B1CDDB251555B1CDE
:1014D0001524DDB254555B1CC468DDB254555B1C49
:1014E000DDB251555B1C1A24DDB254555B1C046AF5
:1014F000DDB254555B1CDDB251555B1C2224DDB2BC
:1015000054555B1C046CDDB254555B1CDDB2515567
:101510005B1C2124DDB254555B1CC46BDDB25455F9
:101520005B1CDDB251555B1C2324DDB254555B1CA2
:10153000446CDDB254555B1CDCB211555B1C1B21A5
:10154000DCB211555B1C406AD9B2505400205B1CC0
:10155000DBB2D054F7BD000010E000E008004048C6
:10156000E81E0010CCECBCFC48160060E8160060D9
:10157000F3B581B08020C00501680068F0220A4000
:101580000007000F10430090644E012264213000D8
:10159000FFF782FE624D28688021490201432960DD
:1015A0000027604C2868800303D42068C003F9D565
:1015B0000427002200210020FFF76EFE380034D1FE
:1015C00068460079002804D1009810286AD10620C6
:1015D000FEBDE020C04369460979491E062950D85E
:1015E00001A2525C974400BF08465462707E8C0092
:1015F000A9680840A86070004B4E30600122C821E5
:10160000FFF74AFE28688021890101432960286884
:10161000400403D42068C003F9D505270022002127
:101620000020FFF739FE38002CD03800FEBDA96835
:10163000084020210143A9603000DDE7A968084087
:1016400040210143A9607008D6E7A96808406021DD
:101650000143A960B008CFE7A96808408021014391
:10166000A960F008C8E7A9680840A0210143A96063
:101670003009C1E7A9680840C0210143A960700989
:10168000BAE7FEE73021C9439F4832689F4B9A4230
:10169000026804D1114010220A43026004E01140A4
:1016A000016001E0FFF760FD6846007AFF2822D064
:1016B0000621C943012803D06A461279032A06D1BC
:1016C000286E0140042008432866012004E02A6EA9
:1016D000114002220A432A66009910290BD18C4935
:1016E0006A461279012A08D101280ED12A20086001
:1016F00048680007FCD40020FEBD6A461279022A21
:1017000005D1012803D12920F1E70028FBD02820AA
:10171000EDE7000048150060380500200048E801AA
:101720000000404810E000E0E8040020F3B583B07A
:1017300078487949086079490861794F3868E0212B
:1017400001433960002500240122C8217548FFF7B4
:10175000A3FD754938690191400704D40868C003A6
:10176000F8D5012401252E002500002200210020AB
:10177000FFF792FD6D4C002D2ED030002BD10025AF
:101780000122962149006748FFF786FD6848796A7B
:1017900001407962B96A0840B862A06865490140B1
:1017A000802000020843A060E06860210143E160FE
:1017B00020681021014321602068800604D401982C
:1017C0000068C003F8D50225002200210020FFF7A1
:1017D00063FD280074D095E0A0685749014080203F
:1017E000C0000843A060B86930218843202101432C
:1017F000B961A068802149010143A1604F4A506945
:101800004F49884219D110681168156813681B0484
:101810001B0F0293136801221E02FC239B05334019
:10182000EE091E2535400095CD01E02189012940B2
:101830008501F0208000284007E0D00CC02149013C
:1018400010220092F0235B050022E5683D4E2E40F9
:101850003343E360E36880252D041D43E5601E23C8
:10186000DB43002A09D0E2681A40029D6D0015434F
:10187000E560E26801251543E560334A15682B40B1
:10188000009D1D431560136801251D4315601368F5
:101890002E4D1D4028431060106820230343136021
:1018A00010682B4B03401943116010688021C90058
:1018B00001431160B869802149000143B9615EE7C5
:1018C0006846047CFF2C02D00120FFF70BFD684620
:1018D000007B204980220A600A681F4B1340802247
:1018E00092011A430A600A6870239A433023134313
:1018F0000B602100FFF73CFE010003D1FFF762FC03
:1019000062B6002005B0F0BD041000400090D00386
:10191000005000400000041008ED00E0040000202A
:10192000040050480024F40010E000E000004048AB
:10193000FFCFFFFFFF7FFEFFFFF3FFFFE41E00105E
:10194000CCECBCFCFFFFFFC0940050483FFCFFFF05
:10195000FFC7FFFF98004048FFC0FFFF70474300EC
:1019600010B50024032000F097FA002801D00124CC
:1019700001E0FFF7C0F8200010BD704781B0824938
:101980000A6802430A60096808400090009801B0A4
:10199000704710B50B004B4301685C00E418A1438D
:1019A00053430B43036010BD43688B4351431943BA
:1019B0004160704710B50B004B4381685C00E41830
:1019C000A14353430B43836010BD30B5CB436F4CF1
:1019D0009025ED05A8421AD1002A03D0022A0FD083
:1019E00007D330BD20681840206060680340636002
:1019F00030BD60680340636020680143216030BDF2
:101A000020680340236060680143616030BD002AA4
:101A100003D0022A0FD007D330BDA0681840A060C1
:101A2000E0680340E36030BDE0680340E360A06825
:101A30000143A16030BDA0680340A360E06801439A
:101A4000E16030BD10B5090A0B004B434B434B43DB
:101A5000416A1C01E41AA14353430B43436210BD86
:101A60007CB506000420FFF789FF9025ED05802452
:101A7000A400022221002800FFF78BFF0222210090
:101A80002800FFF797FF002221002800FFF78CFFB6
:101A9000012221002800FFF798FF002221002800E2
:101AA000FFF7D0FF0420FFF769FF6408022221003E
:101AB0002800FFF76EFF022221002800FFF77AFFBF
:101AC000002221002800FFF76FFF012221002800DB
:101AD000FFF77BFF002221002800FFF7B3FFA000E3
:101AE0002B490A6802430A60096808400090009880
:101AF00028488B21C1600168274A0A40026041687A
:101B0000264A0A40426001680C220A43026081684A
:101B1000234A0A4082608168224A0A4082608168C2
:101B2000C900C9088160016862050A430260416812
:101B30001D4A0A40426081682A22914381600168FF
:101B400001220A43026031000ED018490E6001687C
:101B500020220A43026016480168FF229143402276
:101B60000A4302601348046073BD10B50023124A93
:101B700006E014682406FCD5DCB2045DD4605B1C6E
:101B8000DCB28C42F5D310BD5000404820005048D4
:101B90005800404800400041FFE9FFEFFFCFFFFF42
:101BA000FFFCFFFFFFFFFFF1FFB7FFFF3405002041
:101BB00008E400E000E100E01C40004170B50025B1
:101BC000012804D0022802D00020C04370BD0029A3
:101BD00001D1002070BD0C00160005E0012120009D
:101BE000FFF7C3FF641C6D1C3000461E0028F5D1B2
:101BF000280070BD01B5012269460120FFF7DEFF14
:101C0000009802BD70B5020040325378202B14D1E9
:101C10004023C35C012B10D0012313702424547083
:101C2000046825689D43256004682568194E2E4088
:101C300026600468256829431CE0022070BD70B549
:101C4000020040325378202B12D14023C35C012B79
:101C50000ED00123137024245470046825689D431A
:101C60002560046825680C4E2E400902314301E0CE
:101C7000022070BD2160006801680B4303602020D2
:101C800050700020107070BD04490A68104308604D
:101C900070470000FFEFFFFFFFF0FFFF080000406C
:101CA00081B05B490A6802430A60096808400090F5
:101CB000009801B0704710B50B004B4301685C0001
:101CC000E418A14353430B43036010BD43688B43A7
:101CD000514319434160704710B50B004B43816875
:101CE0005C00E418A14353430B43836010BD30B53F
:101CF000CB43484C9025ED05A8421AD1002A03D0C9
:101D0000022A0FD007D330BD2068184020606068D9
:101D10000340636030BD6068034063602068014336
:101D2000216030BD2068034023606068014361602A
:101D300030BD002A03D0022A0FD007D330BDA068DF
:101D40001840A060E0680340E36030BDE0680340F5
:101D5000E360A0680143A16030BDA0680340A360B8
:101D6000E0680143E16030BD38B5010018D10420BE
:101D7000FFF796FF9024E4054020A0610122402156
:101D80002000FFF798FF022240212000FFF7A4FF68
:101D9000002240212000FFF799FF0122402121E08D
:101DA0001D4C012805D10820FFF77AFF80256D0022
:101DB00006E0022819D10820FFF772FF8025AD0048
:101DC000A561012229002000FFF775FF02222900EA
:101DD0002000FFF781FF002229002000FFF776FF97
:101DE000012229002000FFF782FF31BD010002D14E
:101DF00040200A4909E00A49012802D18020400018
:101E000003E0022802D180208000086070470000B3
:101E1000500040482000504800001048280000486A
:101E2000280010480EB4C0B5020003A8019000209D
:101E3000009001AB0121044878440C3000F052F8C6
:101E4000029906B0084700BFC3080000002200BF87
:101E5000094202D0491E4254FCD170477047704776
:101E6000094214D088420FD30122030C01D100048F
:101E70001204002300185B418B4200D35B1A5241CD
:101E8000F8D319001000704701000020704708B512
:101E900000F0D6FA08BD7047F8B506000024104DD2
:101EA000A868002818D000F0CDFA0700FA208000BA
:101EB000A968FFF7D5FF01003800FFF7D1FFFEF753
:101EC000D1FF002808D1042E06D231000020C043E3
:101ED000FEF7BBFF6E6000E001242000F2BD00BFF2
:101EE0005C030020F0B597B0050016001F001C9899
:101EF0006A460023002418C2059104A92B228854A5
:101F00000B9303950F960EE023000F9A04A90398F4
:101F100000F07AFA002800D5D8E001E0F4D50124D9
:101F20000F9800190F900F980078252809D10020EC
:101F3000089009900A9002240821029104210F9D23
:101F40000CE06A460021C9430F9800F0AFFA040084
:101F5000E4D10B98BCE00200012010436D1C2A78EC
:101F6000202AF8D0232A0AD02B2A04D02D2A04D0E4
:101F7000302A07D009E02043F0E70843EEE70200EB
:101F80000820EAE702001020E7E72A2A0CD13B6884
:101F90001A681B1D3B600D92002A03D553420D9316
:101FA000014308006D1C14E000210D91004A0BE074
:101FB000CBCCCC0C0D9B934205DA9E00F3185B0052
:101FC000591830390D916D1C29780B00303B0A2BC4
:101FD000F0D329782E2903D00021C9430C9125E0A4
:101FE0006D1C29782A2906D139680A68091D3960CB
:101FF0000C926D1C1AE02D2902D12D236D1C00E0DE
:10200000002300210C910CE0002B09D10C9AB84E52
:10201000B24205DA9600B2185200511830390C91CC
:102020006D1C29780A00303A0A2AEDD304A90885E4
:102030002E783100AFA000F041FA002801D06D1CCD
:1020400000E0002604A82A214654405C682807D1F5
:102050002878682804D1622004A92A2288546D1C9B
:1020600011A807902A78681C0F90252A13D0582AA7
:102070004FD0632A00D1B1E0642A79D0692A77D0A1
:102080006F2A46D0702A3BD0732A0AD0752A40D0D6
:10209000782A3ED0ABE001200890252011A90870D5
:1020A000AFE038680468001D38600694002C14D135
:1020B00004A82B21405C00280CD00024E44300BF7E
:1020C0008EA000F005FA201A00D19AE00020C0434B
:1020D00017B0F0BD90A0069093E00C9D002D03D5A5
:1020E000200000F019FA09E02A000021200000F089
:1020F0001BFA002801D0001B00E02800099080E0B6
:1021000038680168001D3860049111A80690782194
:1021100060E004AB2A20185C622803D0682807D04E
:102120006C280BE039680868091D3960C0B209E005
:1021300039680868091D396080B203E039680868A9
:10214000091D39600490188D0299C0B208423CD034
:102150000498002839D020201043782835D10898D9
:1021600011A930230B54401C431C08930A542CE043
:1021700004AB2A20185C622803D0682807D06C289A
:102180000BE039680868091D396040B209E0396818
:102190000868091D396000B203E039680868091D44
:1021A00039600490002802D508982D2109E0188D87
:1021B000204202D008982B2103E0C00705D50898DB
:1021C000202111AB1954401C089011A808994018FF
:1021D0000690110004A800F0A0F812E00120089079
:1021E00038680168001D386011A8017009E00120FD
:1021F0000890252011A90870100002D0089411A899
:1022000042700D980899401A0A99401A0999401A83
:10221000109004A82821405C400713D42020694670
:102220000872109800280DDD109C039D012302AA5E
:1022300004A9280000F0E8F8002800D046E7641E52
:10224000F4D10395089D11AC002D0ED0039E21788A
:102250000598B0470590002800D137E70B98401C3F
:102260000B90641C6D1EF2D10396302069460872F3
:102270000A9C002C0CDD039D012302AA04A928005E
:1022800000F0C2F8002800D020E7641EF4D10395C6
:10229000069C099D002D0ED0039E21780598B0471D
:1022A0000590002800D111E70B98401C0B90641C8E
:1022B0006D1EF2D1039604A82821405C400700D48B
:1022C00031E62020694608721098002800DC2AE6D2
:1022D000109C039D0F9E012302AA04A9280000F070
:1022E00093F8002800D0F1E6641E00D109E6F2E779
:1022F000CBCCCC0C686C747A4C0000007072696EA8
:1023000074665F733A20626164202573206172678E
:10231000756D656E740000000000F0B583B00A00B2
:10232000C4686F2901D1082506E0202111437829CE
:1023300001D00A2500E01025182701680E00642A44
:1023400001D0692A03D1002901D571420E00002E67
:102350000CD1016A002909D1082D31D12821415C15
:1023600009072DD517273021E17529E0029068462D
:1023700002707F1E019730002900FFF771FD303198
:10238000C8B23A2803DB6846007851380918E1558D
:1023900030002900FFF764FD060004D00298806831
:1023A000E1198842E5D30298082D09D12821415C22
:1023B000090705D5E15D302902D07F1E3021E155A6
:1023C0001821C91B4161E2198260026A914206DA52
:1023D000511A8161018D0B4A0A40028510E0002AE2
:1023E0000ED52822825C14231340102B08D1426A98
:1023F0000369D21A8369D21A511A012900DB81615B
:1024000003B0F0BDEFFF0000F8B50024002B11D0A1
:1024100007000E0014001D0021787068B847706036
:10242000002809D0F069401CF0610020641C6D1E7A
:10243000F2D104002000F2BD0020C043F9E770474C
:10244000704770470148006870470000E8040020AA
:1024500030B45368D41803E05B1C491E641C401C54
:10246000042B06DA002904D0057825700578002DA4
:10247000F2D1536030BC704738B500290ED01D0032
:102480001400FFF7E5FF616820006A6B90470122A6
:10249000D243811A02D0491E02D004E0012000E09C
:1024A0000020C04332BD0021616032BD80B5024BC7
:1024B000FFF7E2FF02BD0000EC040020C9B2027881
:1024C0008A4203D0401C002AF9D10020704770478F
:1024D00080B5002801D100BF07A006490B68002B7A
:1024E00003D022220021984701E000F028F82220A2
:1024F00002BD000058050020636F6E73747261693D
:102500006E742068616E646C65723A20626164204A
:102510006D65737361676500431C0178401C094257
:10252000FBD1C01A70477047C9B2521E05D3037859
:10253000401C8B42F9D1401E70470020704780B587
:10254000012000F001F801BD80B500BF00BF024AC4
:1025500011001820ABBEFBE726000200536C617629
:10256000652072656365697665207265717565734E
:10257000742066726F6D206D61737465722E0A0D22
:1025800000000000536C61766520726563656976B2
:1025900065206E756D626572206F6620646174617E
:1025A00020746F20626520726561642E0A0D000040
:1025B000536C617665207265636569766573206129
:1025C00052784275666665722066726F6D206D6125
:1025D000737465722E0A0D00436865636B20636F28
:1025E00072726563746E657373206F6620726563C3
:1025F0006569766564206275666665722E0A0D00EF
:10260000536C6176652072656365697665206E75C9
:102610006D626572206F66206461746120746F2042
:102620006265207772697474656E2E0A0D00000071
:10263000536C617665207472616E736D697420618C
:10264000547842756666657220746F206D6173748C
:1026500065722E0A0D0000007047704780B500F0CB
:102660000FF8FEF713FC01BD10B5044C2000FDF778
:10267000D3FD2000FDF7DAFD10BD0000700300203F
:102680000248016882688918016070475C03002075
:1026900010B5074979441831064C7C44163404E0DF
:1026A000081D0A68891888470100A142F8D110BDA9
:1026B0000800000024000000EFE7FFFF0901000010
:1026C00014000000C0000020DFE7FFFF90000000C2
:1026D000B40000005C030020FEF75BFD002801D081
:1026E000FFF7D6FF00BF00BF002000BF00BFFEF70E
:1026F00083FA00F000F880B500F002F801BD7047E1
:1027000007463846FFF720FFFBE738B505000C0009
:102710002000FFF76FFAA04200D00025280032BD4C
:1027200000BF00BF00BF00BFFFF7D6FF0078401E0C
:102730008041C043C00F7047704770477047704773
:1027400070477047704770477047704770477047D1
:10275000704770477047704770477047120001120A
:102760000405F345010001100404022000202A01A1
:1027700010204932435F54776F426F617264732057
:10278000636F6D6D756E69636174696F6E206261F0
:1027900073656420092349542BF2512031F28400DF
:1027A00001F4051F90D0035E1904108C60022D27E0
:1027B000041033F11F3C0000000000000000000086
:0F27C0000000000000F2FF0001F1FF01F16A01CB
:04000005100427219B
:00000001FF
