:020000041004E6
:10000000000001204119061061FD05106DFD05106D
:10001000AA5555AA45554C420000000000000000BA
:1000200000000000000000000000000079FD051045
:100030000000000000000000EF5504107BFD0510DB
:10004000635704108B5E0410475F04101B69041093
:10005000736904108B690410AF6A0410176C0410E4
:1000600083FD05100F6F0410A77204104374041071
:10007000B77C0410EB7C0410DB7D04108DFD0510B3
:10008000FB8304108BFD0510B3FD05102F850410B4
:100090009FFD0510338604106F88041097FD05102E
:1000A0008FFD0510C3910410000000000000000047
:1000B0000000000000000000000000000000000040
:1000C00030B502000B00117801240EE0010009E0B8
:1000D000105D0002484081B2082548000904F5D5AA
:1000E000954941406D1EF8D1641C9C42F0D388B202
:1000F00030BD92480168924A5143924A8918016082
:100100004800400C7047000070B58F4D280001F08A
:1001100087F9002408A68D486C2161434018421CD1
:100120000178300001F07CF9641C152CF3D3280011
:10013000343001F075F970BD095072657373202574
:100140006320746F2025730A0000000038B5804CCE
:10015000E06E000403D52000743001F079F9C44D3D
:100160002C21280001F0DAF92C212000143001F0B4
:10017000D3F92C212000403001F0CEF92C212800A9
:100180002C3001F0CBF931BDF8B5724F380001F0D9
:1001900047F9714801F044F96D4E7189B54801F095
:1001A0003FF9318AB44801F03BF9317838003030FA
:1001B00001F036F9F06B01F0D5F902000B00AF4801
:1001C00001F02EF9AA4CA06A01F0CCF902000B0054
:1001D000AB4801F025F9F16BA06A01F0DCF901F000
:1001E000C1F902000B003800603001F019F9B06E5F
:1001F00001F0B8F902000B003800883001F010F966
:10020000606D01F0AFF902000B003800B43001F06E
:1002100007F9B27871783800E03001F001F9F16E39
:10022000984801F0FDF8316F974801F0F9F838006F
:1002300001F0F6F895A496A5F06EC00701D5290047
:1002400000E02100934801F0EBF8F06E800701D543
:10025000290000E02100904801F0E2F8F06E40072C
:1002600001D5290000E02100BF4801F0D9F8F06E67
:10027000000701D5290000E02100BC4801F0D0F8BA
:10028000F06E800601D5290000E02100B84801F099
:10029000C7F8F06E400601D5290000E02100B548FE
:1002A00001F0BEF8F06E000601D5290000E0210043
:1002B0002AA001F0B5F8F06EC00501D5290000E0D4
:1002C00021008C204000381801F0AAF8F06E80055B
:1002D00001D5290000E0210027A001F0A1F8F06E6F
:1002E000400501D5290000E021009E20400038187B
:1002F00001F096F8F06E000501D5290000E021001C
:1003000025A001F08DF8F06E800401D5290000E0F1
:10031000210000BF28A001F083F8F06E400401D551
:10032000290000E0210000BF29A001F079F8380081
:1003300001F076F8F1BD000021100000882A0020AD
:10034000FD430300C39E2600D4020610480400208B
:10035000381B002010A00510F05905100920257346
:10036000203D204154545F4D54555F45584348410A
:100370004E4745440A00000009202573203D2045D2
:100380004E445F524541445F54585F434841525F79
:1003900048414E444C450A0009202573203D204524
:1003A0004E445F524541445F52585F434841525F5B
:1003B00048414E444C450A0009202573203D2053F6
:1003C000454E445F434F4D4D414E440A00000000EE
:1003D00009202573203D20494E4449434154494F4B
:1003E0004E5F50454E44494E470A0000FEB504009A
:1003F000606900281BD00E0001F068F90022734BE1
:1004000001F074F90090019160682168401A01F0D0
:100410005DF902000B000098019901F029FA01F042
:1004200088FA0500666026600020606100E0002513
:10043000A06A8021090401F0ADFA15D801F092F804
:1004400063A20CCA01F052F906000F00280001F067
:1004500089F862A20CCA01F049F932003B0001F0B0
:10046000ADFA01F066FA00E02800A0622800FEBDA7
:100470005C000020F8590510145A0510285A051080
:10048000485A0510685A05107C5A05102E200000A5
:100490004F4E0000985A0510AC5A0510F8B588B0B8
:1004A00001F087FB06004C4D310028001430FFF7A7
:1004B0009DFF07908C4C31002000FFF797FF0690BE
:1004C000310028004030FFF791FF07003100200085
:1004D0002C30FFF78BFF01F045F8049005913800B0
:1004E00001F040F802900391069801F03BF800906B
:1004F0000191079801F036F8069007913000FA2133
:10050000890001F082FB0100069A079B774800F002
:1005100087FF216A002902D017A000F081FFA1699E
:10052000002902D017A000F07BFFE169002902D06A
:1005300017A000F075FFE16C002902D017A000F0B1
:100540006FFF616C002902D018A000F069FFA16C58
:10055000002902D019A000F063FF88A000F060FF1E
:100560000020A86309B0F0BDC45A0510E45A051074
:10057000005B0510185B05102C20435250543D259C
:10058000640000002C204C4F53543D2564000000B3
:100590002C204455503D2564000000002C20434F82
:1005A000535F435250543D25640000002C20434FBC
:1005B000535F4C4F53543D25640000002C20434FA3
:1005C000535F4455503D256400000000000020406A
:1005D000666666666666EE3F381B00209A999999B2
:1005E0009999A93F70B58AB007A880491CC91CC059
:1005F00005A87F490CC90CC0FFF7A8FD05AA062174
:10060000002001F059FB06007A4C774D03D03200F0
:100610002900200034E01921002001F051FB01F0F5
:1006200053FB060004D0320029002000243027E0CC
:1006300029002000503000F0F3FE03A80290801C37
:10064000019004A80090002308220021042001F05A
:100650003FFB060004D032002900200078300FE074
:10066000290000BF22A000F0DBFE07AA092100201C
:1006700001F09EFB060007D03200290020009C30CC
:1006800000F0CEFE30002DE029002000D43000F034
:10069000C7FE8020C00101900090002301220021AC
:1006A000012001F044FC010019A000F0B9FEFA207D
:1006B000C00002900190642000900023282228218D
:1006C000012001F03EFC010018A000F0A9FE4A48FC
:1006D0001721018200210167C166C16E02220A430F
:1006E000C26600200AB070BD5C000020940C0610A9
:1006F0002573206163695F6761705F696E69742843
:1007000029202D2D3E20535543434553530D0A00B8
:100710005363616E20636F6E666967757261746999
:100720006F6E20253032580A00000000436F6E6E55
:10073000656374696F6E20636F6E66696775726159
:1007400074696F6E20253032580A00001CB5684667
:100750000BA10CC90CC06A460021012001F0FFFB6F
:10076000040009D022002049244800F059FE6420EA
:1007700001F022FA200016BD002016BD0D0A00006F
:10078000AD0003E18002000070B516001A4CE26E65
:1007900004239A43E2662671231D0222891C89B232
:1007A00001F0DFFC01001DD1E06E04210143E16690
:1007B00080252D02E06E284009D1114800684100D3
:1007C0002000743000F040FEE06E0543E566012E27
:1007D00002D100BF0BA100E00EA100BF10A000F0ED
:1007E0001FFE002070BD0000FC100410385B0510D7
:1007F000445B05107CDD0510381B0020300D061011
:10080000C81906104E4F54494649434154494F4E6A
:1008100000000000494E4449434154494F4E0000F6
:100820005375627363726962656420746F207265C8
:1008300063656976652025730A000000F0B585B010
:100840000227FF43BE48C06E800708D5FFF77EFF32
:10085000002803D1BA48C16E0F40C76646E3B848C6
:10086000C06EC007FAD5B748006840000290B4488F
:10087000C06E00040DD5B24C2000743000F0F1FDC4
:10088000002806D002992000743000F0DDFDFFF74B
:1008900005FEAB48C06E400409D5A94C608901F043
:1008A0006CFC002803D1E06EA7490140E166A7482F
:1008B0000190A348006F000517D5019840680028F3
:1008C00004D0A34800F0ACFD002003E0A14800F0F4
:1008D000A7FDA14801994860019840680199086006
:1008E0009748016F9D4A0A4002679548006FC0040F
:1008F00014D59B490878401CC2B2082A00D10020B8
:100900000870984809784900415A8D4CE180964812
:1009100000F086FD206FC649014021678848006FBE
:10092000800414D58E494878401CC2B2082A00D1F0
:1009300000204870BF4849784900415A804C2181C5
:10094000BD4800F06DFD206FBC4901402167BC4DE2
:100950007B48006FC00217D5794C6A4600A9491C34
:10096000608901F095FB002804D06189280000F01F
:1009700057FD05E0684602784178C54800F050FD13
:10098000206FC449014021676D48006F000415D5F0
:100990006B4C0420607000200090A378042200219A
:1009A000608901F079FB002804D001002800243080
:1009B00000F036FD206FB849014021676048006FA4
:1009C000400415D55E4C0420A07000200090042344
:1009D00062780021608901F05FFB002804D00100EB
:1009E0002800583000F01CFD206F57490140216756
:1009F0005348006FC00315D5514C01206070002092
:100A00000090A37801220021608901F045FB0028B5
:100A100004D0010028008C3000F002FD206FC34993
:100A2000014021674648006F800315D5444C0120E2
:100A3000A07000200090012362780021608901F0FD
:100A40002BFB002804D001002800C03000F0E8FC97
:100A5000206FB749014021673948006F400315D521
:100A6000374C0220607000200090A3780222002101
:100A7000608901F011FB002804D001002800F43047
:100A800000F0CEFC206FAB49014021672C48006F7D
:100A9000000316D52A4C0220A070002000900223EB
:100AA00062780021608901F0F7FA002805D0010082
:100AB00094204000281800F0B3FC206F9E490140AC
:100AC00021671F48016FC8051D4C30D5E06EC0027C
:100AD0000AD54021608901F01AFB002802D00100EC
:100AE000AE2017E0C6201BE0E38820007C30039096
:100AF000981C4100081880B20290012001902089C2
:100B0000009040228021608901F0DDFA002806D0A3
:100B10000100D8204000281800F082FC04E0F420F6
:100B20004000281800F07CFC206FB64905E08805DD
:100B30001CD5FFF729FB206FB3490140216782E1F3
:100B4000381B0020C8190610FFBFFFFF280F002028
:100B50004C5B0510685B051010270000FFF7FFFFD6
:100B6000240D0020D85C0510845B051004204A0782
:100B700025D0CA0702D51B26012009E08A0703D524
:100B800064260F40276705E0084003D0FB260420B9
:100B9000814321679D4FF2B23900852080002818DB
:100BA00000F03EFCF1B208000E30C20092B2608943
:100BB00001F006FA00282CD039009120B1E040263F
:100BC00080220B0726D50827FF43E06E024018D18C
:100BD000E06E304015D1E06E800612D4608901F0DD
:100BE000D0FA882804D1E06E20210143E1660FE1AC
:100BF000002802D001009B2093E0E06E0643E666E9
:100C000004E0A8208000281800F00AFC206F0740AC
:100C1000276718E1CB062CD5C002E16E014011D048
:100C2000E06E06490140E166B14800F0F9FB1BE0C7
:100C3000FFEFFFFFE85C0510A05B0510FFDFFFFF83
:100C4000F0470510E16E0843E066AA4800F0E8FBB3
:100C50007502E06E284007D102992000743000F040
:100C6000F3FBE06E0543E566206F102188432067A3
:100C7000E9E00A4012D00222A1896089FFF784FDD1
:100C80000028F5D1206F802188432067B44813E005
:100C9000BC5B0510FFFFEFFFFF7FFFFF0E400ED094
:100CA0000122A1896089FFF76FFD002806D1206F1E
:100CB000402188432067AB4800F0B2FBC3E03F0C03
:100CC000E16E890515D48601E06E3040F6D101A8A9
:100CD000B049102201F060FA01A8009002233A0006
:100CE0000121608901F07FFA002827D00100B72098
:100CF00017E0E16E090525D40602E06E304014D1FC
:100D000001A8AB49102201F047FA01A80090022384
:100D10003A000121608901F066FA00280ED0010036
:100D2000C9208000281800F07BFB8CE0FFFFFEFF4D
:100D3000FFFFFDFFFFFFFBFFFFFFF7FFE06E064336
:100D4000E66680E0E16E084005D10122A189608954
:100D5000FFF71AFD77E0E06E800461D50198006826
:100D6000002859D1E06E800652D49249206A01F0E1
:100D700053FA278A0B3FBFB2002505E0FFF7B9F908
:100D80008D49720088526D1CEEB20020C0194008D7
:100D90008642F3DBC34D390028000C30FFF790F991
:100DA0002900083101F038FA2B1D0837BAB2E18961
:100DB000491C89B2608901F039FA002811D1A06A72
:100DC000002802D100F0F5FE6061206A401C20621C
:100DD000A06A218AC91E4018A06200F0EAFEA06144
:100DE0000DE0882807D1E06E20210143E166A06B69
:100DF000401CA06303E00100AB4800F011FB019828
:100E000040680AE0FFFEFFFFFFFDFFFFFC1004103B
:100E1000A06B401CA06316E0401E0199086012E020
:100E2000E06EC0070FD5E06E00030CD48025ED0204
:100E3000E06E284007D1608901F004FA002802D151
:100E4000E06E0543E566E06EC0024FD595488178B7
:100E5000B94A514340188321890047183900E06C92
:100E600001F0DAF9648A8021C9008C4201DA083C79
:100E700001E0FE24A400A4B2002506E0FFF739F942
:100E800039000831720088526D1CAEB20020001982
:100E900040088642F2DB210038000830FFF710F9E5
:100EA000391D01F0B9F9B14D3B002200083292B270
:100EB0004021688901F02FF9002817D179498878F5
:100EC000401CC2B2032A00D100208870686D00283F
:100ED00002D100F06EFE2864E86C401CE864686D86
:100EE00008340019686500F064FE686405B0F0BD60
:100EF000DC5B0510F85B0510DAB5040000279B4E9B
:100F000010E0326F0123834013433367152902D069
:100F1000306F400505D5FFF7F7F8306FB349014052
:100F200031677F1C68460088874218DA0021B5487F
:100F30006C224A438018E25D03789A4203D0491C30
:100F40001529F4D3E2E7806E1528DAD1BFF34F8F6D
:100F5000B548B6490860BFF34F8F00BFFDE7D3BD6A
:100F6000105C0510305C0510002800D0704710B5EB
:100F70007E4C6181172020821B202070AC4800F03D
:100F80004FFAE06E01210143E166E06E10218843D3
:100F9000E06610BDF85C051080B5A64800F040FA88
:100FA000FFF7D4F871480021C166016701BD000058
:100FB000085D0510280D0020300D002018B585B003
:100FC0000EAC247804946C46A48E03946C46248E54
:100FD00002946C46A48D0194089C0094FFF7C4FF12
:100FE00006B010BDF2B50400150000F0E2FD0700E8
:100FF000280001F02DF90600207A002804D127608E
:10100000701E20610120207221698E4204D13100BE
:1010100015A000F005FA04E0481C86420AD08E4272
:1010200003D2E069401CE06104E0A0698019401A25
:10103000401EA06168460188083928000830FFF783
:101040003FF80700281D01F003F9874202D0206A0B
:10105000401C206226616069694609884018606109
:1010600000F0A7FD6060F1BD4475706C6963617448
:10107000656420307830342578202121210A000051
:10108000F8B517001E0000BF08A000F0C9F9002540
:1010900070A404E0715D200000F0C2F96D1CBD4237
:1010A000F8DBF1BD240D0020505C0510556E65780D
:1010B000706563746564206461746120666F72207A
:1010C000434C49454E542121210A0A00F5B583B00D
:1010D0000D001F000A9E604C08A1200000F0A0F93E
:1010E000019600976846038A2A00818920002430EF
:1010F00000F096F91D48057005B0F0BD434C494518
:101100004E54000080B511001A005448FFF76AFFE2
:1011100001BD10B5040011001A005048FFF762FF2E
:10112000200001F02AF8002805D08048C16E8022F6
:10113000D2010A43C26610BD0204000080B57B489C
:10114000C26ED20506D5C26E920503D4818100BF5E
:1011500007A008E0C26E520507D5C26E120504D47E
:10116000C18100BF08A000F05BF901BD381B002061
:10117000545820436861722048616E646C65203069
:1011800078253034580A0000525820436861722094
:1011900048616E646C65203078253034580A000050
:1011A0006248C16EC90504D580218900C26E0A401B
:1011B00007D0C16E490507D580210901C26E0A40DA
:1011C00002D1C26E1143C16670475848C16E2022D9
:1011D0009143C166704780B554480182C26E802336
:1011E0001343C3667C4800F01BF901BDFFFBFFFF02
:1011F00080B5009313000A000100784800F010F950
:1012000001BD00004804002080B500BF0AA000F026
:1012100007F94648C16E724A0A40C266C16E802212
:1012200012030A43C26601BD0400FA050CED00E09A
:10123000EC0B0610F00806104665617475726520A7
:1012400065786368616E676520636F6D706C657447
:1012500065640A0025630000E4FC05105C000020C2
:10126000FDB586B00C00119D139F5E4E300000F05E
:10127000D7F86846018B5C4800F0D2F8210000BF27
:101280002BA000F0CDF86846818B584800F0C8F8D4
:1012900008A801782CA000F0C3F86846018F5448D4
:1012A00000F0BEF86846818F524800F0B9F810A8E7
:1012B000018800BF2AA000F0B3F829004E4800F0D2
:1012C000AFF812A8018800BF2AA000F0A9F83900E1
:1012D0004A4800F0A5F84A4821001DD1C388010002
:1012E0007C310491991C4A00511889B20391012163
:1012F00002910021019100890090412208A8017803
:101300006846008B00F0EFFE00280DD00100300091
:101310002C3000F085F807E0012C05D1C16E802249
:1013200052030A43C266458209B0F0BD381B002053
:101330004576656E742074797065203D203078257F
:101340003032580D0A0000004964656E74696669A0
:101350006572203D203078253032580D0A0000009B
:1013600052656D6F746520434944203D2025640D0E
:101370000A00000050656572204D5053203D202525
:10138000640D0A0080B584461E488544604601AA63
:10139000009202AB1C4A00F0C2FE010003D01B48C1
:1013A00000F03EF805E002AA684681881848FFF779
:1013B00019FE1848854400BD10B50C00220001003C
:1013C000154800F02DF8402C04D10D48C16E134A89
:1013D0000A40C26610BD0000C80F0610E4000610E7
:1013E000FFFFFBFF48010610605C05107C5C0510E8
:1013F000905C0510A05C0510B05C0510C05C051089
:10140000381B0020F0F3FFFF060C0000C80C06108C
:1014100088000020140C000070060610FFFFEFFF8C
:101420000EB4C0B5020003A801900020009001ABEB
:101430000121044878440C3000F01AFF029906B0EC
:10144000084700BF3103020010B50400616004E0EA
:101450000168426889180160704700F0AAFB2060AB
:1014600010BD10B5040000F0A4FB61682268801A6A
:10147000401C81428041C00F10BDF1B40168421888
:1014800041684808131800988068C9071ED5494666
:1014900040181BE01778521C0770401C761EF9D1CB
:1014A000002C13D01678521C89080D40032D01D151
:1014B0001578521C290271184D424119A41C05D0FF
:1014C0000D78491C0570401C641EF9D19A420FD05A
:1014D0001178521C032503260E4002D11678F61C03
:1014E000521C0C090F2CD9D114780F34521CD5E79B
:1014F00000980C30F2BC70471206130A1A43130C02
:101500001A4300BF094205D0830709D00270401C6E
:10151000491EF9D1704700000022F3E70022FFE7DF
:101520001300103906D330B41400150010393CC034
:10153000FCD230BC490700D30CC000D504C08900E0
:1015400002D30280801C002900D502707047FF3052
:10155000FF2121304174817481730021C171012107
:1015600001767047012212060118CA420AD28A4245
:101570000DD83822120609098918C20FD207114363
:101580004007704700D049080909014301E0C10F35
:10159000C907002070470122D20703004B402ED418
:1015A000431A01D2C01AC91830B44B180418240EBB
:1015B0001B0E22D0FF2C20D0E31A182B1DDC0902B1
:1015C0001143C40D641E0002104394461925ED1A00
:1015D0000A00AA40D940451801D36D08A41CE405AF
:1015E000D209280A2D062A436546AA4160410318FC
:1015F0001B0EFF2B01D3C00DC00530BC70475140FE
:1016000006E05140CCE70122D20703004B40F8D45A
:10161000431A03D2C01AC9185040514030B44B1875
:10162000090211430418240E1B0E40D0FF2C3AD09F
:1016300025009D410BD31ED8C50D4002401A0BD387
:10164000ED050100400AC90591416841D5E7C50D86
:1016500040024918401AD0D001214008491C001806
:10166000FCD58C4204D36D1A000AED054019C4E77D
:10167000E8051040C1E7182DBFDCAC1C0D00E140AF
:10168000E5414D40012D4941C40D00021043451A6A
:1016900001D46D199543641EE405280A2D06954171
:1016A000604130BC7047FF2BA7D1D843A5E7244247
:1016B000A3D10020A1E708B50846891D00918388C1
:1016C000C278817800880020C04608BD010042220F
:1016D0001201D21E004207D002D4521E0018FCD5BF
:1016E000C10A40051205891870470000F0B50E00C8
:1016F0005E400125ED072E40B446AE0ADF184C18B7
:10170000F44208D2F7420ED2640D01D07F0D12D1FF
:1017100000206146F0BD05D1F74201D87F0D05D10B
:101720000020C143F0BDFBD1640DF9D00020C143BE
:10173000490549088FE0E419C902DB0229432B431C
:10174000DB0A460DC00231438E4630B487B295B2F3
:101750007D432E0CADB2140C7C43A419260C24043A
:1017600025439CB27C43A419190C7943270CC91951
:10177000A4B20F043C43090C000C97B247432E0C53
:10178000BE193543ADB2170C4743360CBF19A6B28C
:10179000BF193E043543240C3E0C36199FB2474313
:1017A000BF19BCB23E0C89191F0C47437F183E0479
:1017B0003443390C704680B297B247432E0CBE19A1
:1017C0003543ADB2170C4743360CBF19A6B2BF194B
:1017D0003E043543240C3E0C36199FB24743BF19D3
:1017E000BCB23E0C89191F0C47437F183E0434439A
:1017F000390C77463F0C90B278432E0C80190604C2
:10180000ADB22E43050CA0B22D18120C7A4350191C
:10181000020C80B2240CA4189AB27A431219140450
:101820002043120C89181B0C7B43C91830BCEF0AEB
:10183000394203D1B61940414941641E6F12BF0DB0
:10184000E41B0BDBFF19BC4211DA24050027420818
:10185000AE417841614166463143F0BD641C05D11B
:10186000401C6141CF0201D34908F4E750E75DE72E
:10187000F0B40E005E400125ED072E40B446AE0ADE
:10188000DF184C18F4423BD2F74241D2640D43D0EA
:101890007F0D38D0E41BC902DB0229432B43CF0A5A
:1018A000DB0A0600B61A9F4104D2641EB6197F41B6
:1018B000B6185F416812800D24180018844222DA9D
:1018C000E80C0021B6197F41B61A9F4102D2B61822
:1018D0005F413F1C40414941F4D3241C21DD2405D4
:1018E000B6197F41B61A9F4105D33743C607374320
:1018F0000026012F7041614166463143F0BC7047BC
:10190000FCD1F74205D20020C14349054908F3E75D
:1019100004D00020C143F1E77F0DFAD000206146DA
:10192000ECE72442FAD1401C61410F03F6D30020BA
:10193000E2E7012252054B18DA4201D958157047E7
:101940005B0D0722D2019B1A10D9FF2B1DD2DB059C
:101950000122D2070A4013430903020D1143490A29
:10196000C200524100D9491CC81870470AD1800AE8
:101970000A0302435212921C04D9D3070B40D0052C
:1019800018437047C80FC0077047C80F0002FF30E8
:10199000C00570470CB4012212060318DA4207D8BA
:1019A0004B18DA4204D802000A43921802D281424C
:1019B0000CBC7047FCD088420CBC7047F0B40125C9
:1019C000ED070F005F404FD48B4200D1824205D912
:1019D0008446100062468C4619006346DF184C1896
:1019E000640D7F0D3AD0661C760537D0E61B352E88
:1019F00034DCDB022B43DB0A0C0DC9022943C9127C
:101A0000202E0DDB1700203E06D01F00F741F340CB
:101A10005F400026012A7741C01871410DD217E0BE
:101A20001700F741F2405740F3415A40B340F340AA
:101A30005A400026801859410AD3A21C52050FD0E3
:101A4000C207012F724117004008CB07184349080D
:101A5000641C24054208AF4170416141F0BC7047ED
:101A6000641C21050020F9E76B4010E06B40ABE7F8
:101A7000F742F3D1E943F1E72442EFD100200021FE
:101A8000ECE7F0B40125ED070F005F40EED40C0049
:101A9000871A9C4105D2C01BA141D21963416940FC
:101AA0006B40AE0ADF184C18F442E1D2640D7F0D92
:101AB000E2D0E61B362ED1DCDB022B43DB0AA44648
:101AC0000C0DC9022943C90A012E28DC04D1D6070E
:101AD0005208DF073A435B08EF0A7642904199418A
:101AE00014D039423BD1B61940414941761C3942A4
:101AF00004D1761C001849413942FAD0B9436746EF
:101B0000B74208D9A41B24052143A7E70042EAD124
:101B10003642E8D1A2E7E40AE10700209EE7202E42
:101B20000BDD203E1F00F340F7415F40012A0022F9
:101B300057417E42984191410BE01700F741F24036
:101B40005740F3415A40B340F3405A407E429041DF
:101B500099410A0303D2641EB61940414941002746
:101B6000641E24054208AE4178416141F0BC7047D3
:101B700015480168491C0160704780B5684601F04E
:101B8000B5FA0098FA21890000F03FF8401E401E87
:101B90000E4988420CD80E4A50600E48036819401E
:101BA000C0231B060B4303600020906007201060D9
:101BB00001BD05480068704703490A680B689B1A15
:101BC0008342FBD370470000802A0020FFFFFF0004
:101BD00010E000E020ED00E0F446002804D4494283
:101BE00000F013F8404260474042002905D45FD01E
:101BF00000F00BF8404249426047494200F005F8C6
:101C00004942604703460B43E6D40022030A8B4255
:101C10000BD203098B4219D243088B422ED2411AB0
:101C200000D20146524110467047FF2209023FD0C0
:101C300012068B4205D3121209028B4201D31212F3
:101C4000090203098B4219D300E0090AC3098B4238
:101C500001D3CB01C01A524183098B4201D38B01BE
:101C6000C01A524143098B4201D34B01C01A524161
:101C700003098B4201D30B01C01A5241C3088B42A6
:101C800001D3CB00C01A524183088B4201D38B0091
:101C9000C01A524143088B4201D34B00C01A524133
:101CA000884200D3401A5241CFD2014610467047B5
:101CB00008B5C046C04608BD10B501F051FA10BDC8
:101CC00010B501F0EBFA10BD10B501F0F9FA10BD36
:101CD000FFB583B00E9F1C460E4605000BD0A8072B
:101CE00003D1680701D4280705D5002E05D0012EA1
:101CF00003D0022E01D0822417E00C986A460D9979
:101D000083C2224631462846059B01F0E1FA0400D1
:101D10000BD131462846059A00F00AF8040004D198
:101D20003A460D990C9800F02FF8204607B0F0BD08
:101D3000F8B505000E003F4F380001F051FB0400DC
:101D40001AD1684605703C4D380001F04DFB070084
:101D500068460078800706D039002800483001F036
:101D600047FB040008D1022E08D1390028006C304E
:101D700001F03EFB040001D02000F2BD2FA207219C
:101D8000002000F015F8F7E7F8B504000F00150083
:101D9000294E3000903001F027FB2080300001F008
:101DA0002BFB38803000243001F026FB2880F1BD69
:101DB00070B504000D0016001F48FFE701F01CFB82
:101DC00033002A002100401C80B200F001F870BDF1
:101DD000F3B581B017001D000024174E6946088036
:101DE00024206043301801F007FB002804D0401C79
:101DF00069460988884202D0641C042CF0D3042C64
:101E000009D068460389242044433419206A818814
:101E1000DA19914201DA8220FEBD29003A00806879
:101E2000C01800F0D3F9206A0178890700D54780EF
:101E30000020FEBD0004002070030020426C756588
:101E40004E52470080B501F0DBFA02BD80B501F0CB
:101E50004DFB01BD1CB56C46247C009401F056FB83
:101E600016BD80B501F0A2FB02BD80B501F0D4FB28
:101E700002BD80B501F0F6FB02BD80B501F006FCA5
:101E800001BD80B501F086FC02BD80B501F0DCFD2E
:101E900001BD80B501F02AFE01BD80B501F0B8FE9C
:101EA00002BD1CB5049C009402F0C2F813BD80B5BD
:101EB00002F004FA01BD80B502F02EFA02BD80B531
:101EC00002F040FA01BD80B502F0D6FB01BD80B53D
:101ED00002F012FC01BD1FB56C46248C0294079CD5
:101EE00001946C46247E009402F04CFC04B010BDBA
:101EF0001FB5099C039408AC247802946C46247F97
:101F000001946C46247E009402F02AFE04B010BDB9
:101F10001CB56C46247C009403F004F816BD80B513
:101F200003F044F801BD80B503F08AF801BD1CB58B
:101F30006C46A48A01946C46248A009403F03CF910
:101F400016BD1FB56C46248C02946C46A48B01947C
:101F50006C46248B009403F040F904B010BD80B5AA
:101F600003F04FF902BD80B503F058F902BD80B50A
:101F700003F068F901BD80B503F086F902BD80B5B4
:101F800003F092F902BD80B5C0B203F021FA01BDA1
:101F900080B503F041FA02BD80B503F049FA02BDF5
:101FA00080B503F05DFA02BD80B503F09DFA01BD76
:101FB00080B503F0C0FA02BD80B503F0E5FA01BDBB
:101FC00080B503F0EAFA02BD80B503F0F1FA01BD75
:101FD00080B503F0F5FA01BD80B503F009FB02BD41
:101FE00080B503F075FB01BD80B503F093FB01BD27
:101FF00080B503F0B7FB01BD80B503F0F9FB01BD6F
:1020000080B503F0AFFC01BD80B503F0C9FC02BD93
:1020100080B503F0E1FC01BD80B503F0F7FC01BD24
:1020200080B503F033FD01BD80B503F04DFD01BD6A
:1020300080B503F085FD02BD80B503F09BFD01BDB9
:1020400080B503F0ADFD01BD80B503F0C1FD01BD5C
:1020500080B503F0D5FD02BD80B503F0F3FD01BDF1
:1020600080B503F023FE01BD80B503F039FE01BD4C
:1020700080B503F083FE02BD80B503F0B5FE01BD5F
:1020800080B503F0DDFE02BD80B503F0FFFE02BDAA
:1020900080B503F03FFF02BD1CB56C46248A009456
:1020A00003F044FF16BD80B503F04EFF01BD80B5BF
:1020B00003F052FF01BD80B503F0A0FF02BD80B563
:1020C00003F0A8FF02BD1FB5099C03946C46248C45
:1020D00002946C46247F01946C46248B009403F098
:1020E000D1FF04B010BD18B585B00C9C04946C46AB
:1020F000A48D03940AAC247802946C46A48C0194B9
:102100006C46248C009403F0E1FF06B010BD80B54E
:1021100004F004F802BD80B504F004F802BD1CB55B
:10212000049C009404F002F816BD80B504F004F895
:1021300002BD80B504F044F801BD80B504F092F80A
:1021400002BD80B504F0ACFA02BD80B504F0B6FA69
:1021500002BD80B504F0F6FA01BD80B504F014FBB1
:1021600001BD10B5002906D0002A01D0002B02D0F5
:1021700004F03AFB10BD822010BD10B504F042FB04
:1021800010BD10B504F048FB10BD8078800701D564
:10219000862070470020704770B4103A03D378C986
:1021A000103A78C0FBD2530701D318C918C001D523
:1021B00008C908C0D20704D30B880380891C801C7F
:1021C000002A01D50B78037070BC70478B0701D1D2
:1021D0008307E1D0124205D00B78491C0370401CE4
:1021E000521EF9D1704770B586B00C000A99154699
:1021F000064601D0AC4202D9822006B070BD1A4614
:10220000684604F014FB0028F7D16B462A462146A5
:10221000304604F022FBF0E784460870000A48705C
:10222000000A8870000AC8706046704710B500291F
:1022300006D0002A01D0002B02D004F020FB10BDF4
:10224000822010BD10B50146012004F025FB10BD11
:10225000C3788278417800781B021A43090212047D
:1022600008431043704710B50888C046C04610BDEB
:10227000FDB5B4B03C98049102A93B2288540020DB
:102280000D9028A8401C27900DE00498349A9047A0
:102290000490002801D100F042FE0D98401C0D90E2
:1022A0003598401C359035980178002910D02529A3
:1022B000EBD100200790089009900A900B900C90A9
:1022C000002102240120129008200190359D05E094
:1022D0000D9800F026FE0800129901436D1C287825
:1022E0002028F8D023280BD02B2804D02D2804D068
:1022F000302808D00AE02143F0E708000421ECE789
:1023000008000821E9E708001021E6E72A280FD194
:10231000369802681068121D369B1A600F900028CC
:1023200004D542420F920800042101436D1C12E0C3
:1023300000200F90624A09E00F9B934205DA9E004D
:10234000F3185B00181830380F906D1C28780300C4
:10235000303B0A2BF0D328782E2803D00020C0432E
:102360000E9027E06D1C28782A2808D1369800683E
:102370000268001D369B18600E926D1C1AE02D2815
:1023800002D12D226D1C00E0002200200E900CE0F6
:10239000002A09D10E9B4A4EB34205DA9E00F3187B
:1023A0005B00181830380E906D1C28780300303B05
:1023B0000A2BEDD302A801872E7831003E487844DD
:1023C000FF30093804F0A0FA002801D06D1C00E0AD
:1023D000002602A83A214654405C682804D1287897
:1023E00068280BD1622005E06C2807D128786C287A
:1023F00004D1712002A93A2288546D1C16A80690B7
:10240000287869460870681C359068460278100084
:1024100025382DD02038022800D800E2133801D109
:1024200000F0A1FC0B3801D100F03AFD401E01D1B3
:1024300000F0E7FC401E022800D8F0E1001F01D1A7
:1024400000F0DFFC401F00D148E1401E01D100F048
:102450008AFC401E00D1EBE0C01E10D0801E01D1CE
:1024600000F081FCC01E01D100F07DFC00F023FDD6
:10247000252016A908701298079000F027FD3698BD
:1024800000680468001D369908600594002C00D08F
:10249000BAE002A83B21405C002800D1ADE0002456
:1024A000E44306487844143004F038FA201A01D086
:1024B00000F035FD00F00AFDF0DA010024DB010038
:1024C000CBCCCC0C641E01D000F01FFD3495079DD1
:1024D00016AC002D0FD0349E227802A9300000F0F7
:1024E000D9FD002802D4641C6D1EF5D13496002855
:1024F00001D000F014FD3020694608700A9C002CC1
:102500000DDD349D01236A4602A9280000F0D3FDA9
:10251000002801D000F003FD641EF3D13495059C22
:10252000089D002D0FD0349E227802A9300000F0C3
:10253000B1FD002802D4641C6D1EF5D1349600282C
:1025400001D000F0ECFC302769460F700B9C002C8A
:102550000DDD349D01236A4602A9280000F0ABFD81
:10256000002801D000F0DBFC641EF3D134950598FF
:1025700008994418099D002D0FD0349E227802A995
:10258000300000F087FD002802D4641C6D1EF5D1D8
:102590003496002801D000F0C2FC684607700C9CFD
:1025A000002C0DDD349D01236A4602A9280000F0AD
:1025B00082FD002801D000F0B2FC641EF3D13495F6
:1025C00002A83821405C400700D46CE62020694610
:1025D00008700198002800DC65E6019C349D012309
:1025E0006A4602A9280000F066FD002801D000F02C
:1025F00096FC641EF3D1349555E63E487844FF308E
:102600000B38059000F062FC0E9D002D03D52000D4
:1026100004F0A8F909E02A000021200004F0AAF93A
:10262000002801D0001B00E02800089000F04EFCBC
:10263000369800680268001D369908600020C04383
:102640000021104002AA03C216A80590069A3C2356
:1026500002A803C8002904D1002802D10E9C002C36
:1026600013D05B1E05072D0F3035EEB23A2E00DB7E
:102670002735D55400090C072043090901D100284A
:1026800003D0059CD518AC42EBD33C20C01A08906F
:10269000D11805910E99884208DA081A0A9002A802
:1026A000018FBD4A0A40028700F010FC002901D4C6
:1026B00000F00CFC02A93822895C14220A40102A7E
:1026C00001D000F003FC0F99079A891A0A9A891A17
:1026D000081A002801DC00F0F9FB42E302A83B21C4
:1026E000415C002908D00024E44349487844FF3085
:1026F0002130D9E608D901003A21405C622868D02F
:10270000682819D06A2844D06C2806D071284ED089
:10271000742830D07A2820D06CE0369800680168A0
:10272000001D369A1060002976D10024E443394810
:102730007844FF301F38B7E6369800680168001DFE
:10274000369A1060002905D10024E44331487844CA
:10275000C230A9E60D980880B8E336980068016891
:10276000001D369A1060002956D10024E443294800
:102770007844A03098E6369800680168001D369AC3
:102780001060002948D10024E44322487844843072
:102790008AE6369800680268001D36990860002AAB
:1027A00013D10024E4431B48784468307CE6369813
:1027B00000680268001D36990860002A05D10024CF
:1027C000E443144878444C306EE60D98C11703C2B8
:1027D0007CE3369800680168001D369A1060002975
:1027E00005D10024E4430B48784428305CE60D987A
:1027F00008706BE3369800680168001D369A106017
:10280000002909D10024E44302487844801D4BE6A6
:10281000A0D70100B4D701000D98086056E33698A0
:102820000368DB1D072083433698036003CB369D86
:102830002B6002AB03C3C80F02D007982D210AE01A
:1028400002A8008F204202D007982B2103E0C00786
:1028500005D50798202116AB1954401C079016A8DF
:1028600007994318059328AC02A803C814AD03C503
:102870000E98002801D5062007E007D168460078A9
:1028800020210143672901D112980E9002A803C8A4
:10289000080041004915491C10D100030ED0032047
:1028A0000890613A1A2A04D23C497944FF3111391F
:1028B00015E03B497944FF31173910E002A803C8FD
:1028C000080041004915491C0ED100030CD103201A
:1028D0000890613A1A2A16D332497944C631032244
:1028E0001800FFF773FCF1E202A8C0C885A003C876
:1028F0003940002280235B03994208D200207940AE
:1029000032AB03C313E0284979449C31E7E7774BA6
:102910003B40774F1F4332AAC0C2080D75A20CCAB4
:102920001018764948437649FFF76CF9020032A83F
:1029300003C802AB03C302A803C872A6C0CE0640F8
:102940000F4003D1002E01D10025B8E014A830C8F3
:102950006D006D0825920720801A05DD0200200019
:10296000290000F070FB0AE042420020674900F0B5
:102970006AFB02000B0020002900FEF779FF2022ED
:102980006B461B781A436B465A706A465278662A21
:102990000CD1259A0A320AE0EFFF000064D601004C
:1029A00064D6010068D6010060D6010006220E9BA5
:1029B0009A18142A00DD142228AB30241C705C1CE9
:1029C00002E014A803C8139A002A3CDD14AB03C329
:1029D000139214A803C803F0D9FF269006460834C2
:1029E000042530000A21FFF710F90F0030000A21FA
:1029F000FFF70BF906003037601E077030000A2120
:102A0000FFF703F90F0030000A21FFF7FEF8060078
:102A1000A41E303727706D1EE3D108341398083890
:102A200013900028CDDD2698FEF750FE02000B0023
:102A300014A803C8FFF725F80022354BFEF756FE11
:102A400014AA03C2C5E72798201A28A94C1C259D63
:102A500002E0401E6D1E641C21783029F9D06946C1
:102A60004978662901D1691C06E0694649786529DB
:102A700001D1129900E000210E9A5618B04200DAF6
:102A8000461E002E1BD4864204DAA05D342801DDE8
:102A9000392000E030203100621E521801E0761E1D
:102AA000521E491E13788342F9D0392802D1605C46
:102AB000401C6054002902D5641E761C6D1C6846BB
:102AC0000078694648700E9F30B2002803DC129EE1
:102AD000054C7C441234684641782020084366281F
:102AE00018D16D1C2EE000BF28D50100FFFF0F801C
:102AF0000000E03F02FCFFFFFFFFFFFF97750000B3
:102B0000A0860100FFFFFFFFFFFFFF7F0000F03FF7
:102B100084D7974167285CD128B20321C9438842F2
:102B200041DBB8423FDA6D1C02A8008F0199C0B2A8
:102B3000084203D130B2B84200DA070028B23F1A87
:102B400000D5002728B2002800DDA8E00898411C25
:102B500008913021059A1154002F05DC02A8008F3E
:102B60000199C0B2084205D00898411C08912E2155
:102B7000059A115428B241428F4200DA7D422DB2AB
:102B800068420B907D1930B2854200DA2E0036B2D1
:102B90000996320021000598089BC018FFF716FB24
:102BA000A81B0C90C7E030B2B84206DA02A9098F20
:102BB000019AC9B2114200D107007F1E00D500273B
:102BC00068464078672801D1652000E045206946C5
:102BD00048700898411C08912178059A1154611C8D
:102BE000002F05DC02A8008F019AC0B2104218D055
:102BF0000898421C08922E22059B1A54002F10DDC3
:102C0000741E20B2874200DA3C0022B20598089B6D
:102C1000C018FFF7DBFA24B2089800190890381B97
:102C20000B9005980899401869464978017029B2B7
:102C3000002903D42B214170861C03E02D22427011
:102C4000861C4D42002412A928000D0005E00A212F
:102C5000FEF7D8FF2970641C6D1C00B20028F6DC5A
:102C6000012C08DC6846407820210143652902D107
:102C700030203070761C002C09D130203070761C4A
:102C800007E0641E12A8005D30303070761C002C06
:102C9000F7DC059808994018301A09904BE030B2DB
:102CA00029B288421DDA32B221000598089BC0186B
:102CB000FFF78CFA36B20898801908902DB2A91B3C
:102CC0000B91002F05DC02A9098F019AC9B21142AC
:102CD00005D02E21059A11540998401C09900C9793
:102CE00029E02AB221000598089BC018FFF76EFA68
:102CF00028B2089909180891751B002F05DC02AA53
:102D0000128F019BD2B21A4204D04A1C08922E2282
:102D1000059B5A5429B28F4200DA3D002AB221188D
:102D20000598089BC018FFF751FA2DB20898401972
:102D30000890781B0B9002A83821405C14210140B8
:102D4000102900D0C2E00798089940180B99401844
:102D5000099940180C9940180F99884200DBB5E09A
:102D6000081A0A90B2E002AA3A20105C622808D041
:102D700068280ED06A2814D06C281DD0712810D075
:102D80001AE0369801680868091D369B1960C0B2C0
:102D900018E0369801680868091D369B196080B2F2
:102DA00010E036980368DB1D0720834336980360E4
:102DB00003CB369C236006E0369801680868091D3D
:102DC000369B1960002102AB03C3108F0199C0B27A
:102DD00008425BD002A803C8002901D1002855D0C1
:102DE000684600782021014378294FD1079816A919
:102DF00030220A54401C421C07926A4612780A5438
:102E000044E002AA3A20105C622808D068280ED05C
:102E10006A2814D06C281DD0712810D01AE036987A
:102E200001680868091D369B196040B218E03698A1
:102E300001680868091D369B196000B210E03698D9
:102E40000368DB1D072083433698036003CB369D60
:102E50002B6006E0369801680868091D369B1960EA
:102E6000C11702AB03C3002902DA07982D2109E03C
:102E7000108F204202D007982B2103E0C00705D510
:102E80000798202116AA1154401C079016A80799EC
:102E9000401805906846017802A800F044F815E053
:102EA00012980790369800680168001D369A1060E5
:102EB00016A801700AE0252016A90870129807903C
:102EC00068460078002801D04A7007940F98079947
:102ED000401A0A99401A0899401A0B99401A099900
:102EE000401A0C99401A019002A83821405C400712
:102EF00001D5FFF7ECFA20206946087001980028F8
:102F000001DCFFF7E4FA019C349D01236A4602A923
:102F1000280000F0D0F8002801D1FFF7D3FA0020F4
:102F2000C04337B0F0BDF2B586B0040025696F2903
:102F300001D1082707E0084620210143782901D064
:102F40000A2700E010273C2603CC083C04AA03C251
:102F50006A46127E642A03D06A46127E692A09D123
:102F6000002907DA04A803C800220023121A8B41A3
:102F700004A80CC004A803C800290DD100280BD157
:102F8000206B002808D1082F3BD13820205C000797
:102F900037D53B26302033E00294009504A830C892
:102FA000761E0196200029003A00FB1703F005FD6C
:102FB0003032D0B23A2803DB6846007E513812180E
:102FC00000988255200029003A00FB1703F0F5FC19
:102FD00004000D0001D1002C05D00298C0680099B2
:102FE00089198842DCD3029C009D082F09D1382022
:102FF000205C000705D5A85D302802D0761E302061
:10300000A8553C20801BA061A919E160216B884272
:1030100006DA081A2062208F1C490140218710E03F
:1030200000290ED53821615C14220A40102A08D1EB
:10303000616B6269891A226A891A081A002800DD00
:10304000206207B0F0BDF8B50026114F04000D0056
:10305000009214E0C00707D532003B002000290091
:10306000FEF744FB04000D00009840100090300073
:10307000390032003B00FEF739FB06000F000098D4
:103080000028E7D120002900F4BD0000EFFF000078
:103090000000244010B503000C001100A068984700
:1030A000A060002804D0E06A401CE062002010BD4F
:1030B0000020C04310BDF8B50024002B11D007003C
:1030C0000E0014001D002178B068B847B0600028D9
:1030D00009D0F06A401CF0620020641C6D1EF2D121
:1030E00004002000F2BD0020C043F9E710B5040041
:1030F00000F002F8206010BD00B50220154A1368E8
:10310000034004D013685B0701D5134800BD126863
:10311000E02313400CD0202B0CD0402B0CD0602B84
:103120000CD0802B0CD0A02B0CD0C02B0CD00CE0E2
:1031300001210AE0022108E0042106E0082104E060
:10314000102102E0202100E040210448FEF75DFD4F
:1031500000BD0000080040480048E8010090D0038E
:103160007FB504004A48164600680D4619D0062C63
:1031700011D0082C0CD0182C0AD0282C0BD02A2CBB
:1031800009D02C2C0AD02E2C0BD0D02C42D043E0CE
:10319000102D08D040E0022D05D03DE0012D02D0D9
:1031A0003AE0062D38D10A460019314603F03AFCC0
:1031B0002C2C28D13078002825D00120C0460128A9
:1031C00024D01B201F304009401C41004118012021
:1031D00003F03CFC0120C046012819D01B201F3001
:1031E0004009410040182B498989081AC01E81B244
:1031F000002003F02BFC2848402201680878104387
:10320000C008C0000870002004B070BDFB20D9E7E2
:10321000FB20E4E7012D04D00120C046012804D0A2
:1032200005E0107803F01CFCEEE7D12C04D0302C24
:1032300020D0D32C24D025E0082D23D102223146E2
:10324000684603F0EFFB0222B11C01A803F0EAFB81
:103250000222311D02A803F0E5FB0222B11D03A8E2
:1032600003F0E0FB68468389028981880088FEF7C5
:10327000B3FEC9E7012D05D1307803F002FCC3E7A6
:10328000012D01D01220BFE7307803F001FCBBE72D
:10329000BC270020082A0020C027002010B51F29C5
:1032A00001D8012801D9122010BD044A1268403209
:1032B0005172907203F017FC002010BDD827002037
:1032C00080B5024800F08CF802BD0000140E061014
:1032D000FFB587B00F460020694608733F48164681
:1032E00005682835012A1DD803F022FC002805D1E5
:1032F0002C462034A07C002802D085200BB0F0BDE5
:1033000003A80799FEF744FE0028F7D1607D6946BF
:103310003043607507200875012F05D0022F09D0B2
:10332000002F12D08220E9E7087B1021084369466C
:1033300008730AE0087B202108436946087305A941
:1033400003A8FEF7B8FD0028D8D1002600966846ED
:1033500001960178DF200143684601704178092019
:1033600001436846082241708270022F03D1062073
:1033700001436846417003F049FC01280AD16846C0
:10338000417812200143684641708178072001434B
:1033900068468170684603F03FFCFF216846017073
:1033A00041708170C17001719F214171867120212E
:1033B000C17103F043FC28463630FEF75AFD002861
:1033C0009CD16846007B8106890F03D0617D022273
:1033D00011436175A074002090E70000C42700200D
:1033E00010B503F03DFC10BD10B503F0D3FC10BDCB
:1033F00010B503F0D9FC10BD10B503F03BFD10BDB6
:10340000F7B5384884B0006800242830009036486A
:103410000F46007F16462546B84202D2122007B05A
:10342000F0BD049838431DD10021084603F02CFD5F
:10343000044617E006206843315C049801280FD148
:1034400000981423C26A084658431230105C0128C1
:1034500000D0D324002C03D1012003F059FD0446F1
:103460006D1CEDB2BD4202D2002CE3D035E0002C41
:1034700033D10498002803D003F0A4FD04002CD11C
:1034800032463946049803F0FFFC040025D100259C
:1034900021E0284606214843315C02910121801930
:1034A00001910179002902D14088002801D0022031
:1034B00001900121029A049803F0ACFD04980128C0
:1034C0000DD0002100981423C26A0298584313308B
:1034D0006D1C1154EDB2BD42DBD320469FE701992C
:1034E000F0E70000C4270020082A0020002809D1A6
:1034F0000548142200685143406D802240188178AD
:103500001143817070470000C4270020FFB5844636
:1035100024488E46026895B0114630311E9F0E91A8
:103520000F911046916B3C32283011921091416AF4
:103530001291806A13901CA000681490087B0026EA
:10354000012801D102200743002402A814A9095D23
:10355000394218D0A30011A9CD580EA9C95832017B
:103560000B88835213184988598029889980698863
:10357000D980A9881981E98859812989998169891E
:10358000761CD981F6B2641CE4B2032CDED3019020
:103590006346724600971799189803F08BFD19B08F
:1035A000F0BD0000C427002001020400F0B58446ED
:1035B00017488BB004680025204630300090A06B7F
:1035C000019014A000682B462834099009A8C05C1B
:1035D00008420FD09A006846875806222E46564366
:1035E000387902AA9055B2183888508078886D1CB6
:1035F0009080EDB25B1CDBB2022BE7D360780A4609
:10360000014602AB604603F0CBFD0BB0F0BD0000FD
:10361000C427002001040000F1B51048002405680B
:1036200082B0204626460E4F283511E0214614234D
:103630005943EA6A1331515C012907D16846047085
:10364000468006716A46029803F01EFC641CE4B2D0
:10365000397FA14201D90028E8D0FEBDC42700204F
:10366000082A002070B5064600200446064D05E0F5
:103670003146204603F0F6FD641CE4B2297FA142E6
:1036800001D90028F4D070BD082A0020F0B58FB011
:10369000044603F0EBFD204603F0F0FD2646A0367D
:1036A0000A960146F07E626D4243401C484317185B
:1036B000AC20015B204603F0F7FD3B18304D33484A
:1036C0000795304A304904AD07C5E16F606D0127A9
:1036D0000522254602920191C03503970090A87EED
:1036E0003A46214603F03CFEB07E012843D0284EE6
:1036F00003F058FE029003F05DFE06900097A97E4D
:1037000072232046029A03F059FE01970096204644
:10371000A97E72231430069A03F094FE6079384330
:10372000607120462030C17820221143C1700A9870
:10373000007F012821D002281FD0154E0097E97E76
:103740004D23A06A029A03F039FE01970096A06A01
:10375000E97E4D231430069A03F074FEA06A417985
:103760003943417104F0E5F8C830E067204604F0C1
:1037700011FA0FB0F0BD4626BAE74626DEE7000094
:10378000B119061085DE051079DF0510FDDF051083
:10379000EE020000F0B591B0074603F067FD064663
:1037A000FF3609360896FEF7BAFB3446FF347878C0
:1037B0002134A07538780028E0797CD0C00701D08A
:1037C0000C202AE10020E07404F068FA0120FF21B7
:1037D00060721D31885300200D90788835460003B3
:1037E0008035E8633879C00428647988002907D0D7
:1037F0003979002904D0E96B814201D30C20D8E04B
:103800002079012801D003280CD1002000900190DC
:1038100002A804F051FA0622694602A804F056FAFA
:1038200000287DD004F085F87D21C9004018286269
:103830006862A861E8616864A864E86B002803D046
:1038400004F077F8E96B4018A863FEF722FB744890
:103850000F90207CC00704D004F048FA6074FF2861
:103860007ED0207C400704D504F040FAA074FF28E5
:1038700077D0207CC00743D06A4B6D4807936A4AD3
:103880006A4904AB07C3296AA8680090012306228D
:1038900001A80EC0607C03220F9B089903F060FD15
:1038A00003200090726B6348134600681433403065
:1038B000417A607C00E0AAE004F03CFA617C502090
:1038C00041435D480818C26D3F2109028A43272100
:1038D00009025118C165617C50204143564880302F
:1038E000081841680A022521120A09065118416088
:1038F000286A04F063FA012802D0607C04F06EFAB2
:10390000207C40074AD5474B4E4807934B4A4C49C9
:1039100004AB07C30123696AE8680622009000E04F
:1039200041E001A80EC0A07C03220F9B089903F080
:1039300017FD032000903F48B26B006813464030EB
:10394000417A1433A07C04F0F5F9A17C5020414366
:1039500039480818C26D3F2109028A43272101E036
:1039600026E029E009025118C165A17C502041439D
:1039700031488030081841680A022521120A0906D8
:1039800051184160A07CFF2800D137E7686A04F035
:1039900015FA012802D0A07C04F020FA78790128D9
:1039A0002BD0002523E00020E071122011B0F0BDE3
:1039B00007200021E171F9E7207C0725C00702D02C
:1039C000607C04F0C3FB0020E0712846EEE7A8000D
:1039D0003058019004F08AF90090FF2802D00321AA
:1039E00004F0C0FB019900986D1C4871EDB2A07EF7
:1039F000A842ECD87879012803D1E0790221084364
:103A0000E071E07901210843E0710D98CEE7C0072D
:103A100000D1D5E604F0ACFB00200D90C6E7000015
:103A2000DC0500004F1504106519061095190610E5
:103A30007D190610D827002080000020711906107B
:103A40009F19061089190610F8B503F00FFC0546FA
:103A5000FF35FF2009350026009003F06AFF224958
:103A60002C464718FF342134207CC0070ED0607CE0
:103A7000FF280BD004F08CFB607C0090A020405904
:103A8000394604F092FB002800D00126207C400734
:103A900010D5A07CFF280DD004F07AFBA07C00900C
:103AA000A4204059394604F080FB002801D00126AB
:103AB00000E00026E07980070DD4002708E0B80078
:103AC00028584079FF2801D004F062FB7F1CFFB228
:103AD000A07EB842F3D8002E04D0009804F06AFB10
:103AE00001202076F8BD0000FE1F0000FEB503F0A7
:103AF000BDFB0446FF3409340746264600208036C5
:103B0000B062F06201223046A03002900146027697
:103B1000E51DF9355522D200B8186F61A8610A7900
:103B2000D00715D0364800688930014600902046FD
:103B3000E43004F06BFB706EF066B06E30673148B5
:103B400006223918009804F073FB0020FF2107E0DB
:103B50002D480068E9E78200A258401C1171C0B2EC
:103B6000029A927E8242F6D8002603200090B0008E
:103B70000719AA694D230021786B03F01FFC03216C
:103B8000224801910090786B6A694D23002114301E
:103B900003F058FC786B2030C17804221143C170C7
:103BA000786B2030C17820221143C170761CF6B2A8
:103BB000022EDAD303260096AA694D230021E06B7A
:103BC00003F0FCFB7D20000101960090E06B6A6928
:103BD0004D230021143003F035FCE06B2030C17818
:103BE00040221143C170E06B2030C1782022114384
:103BF000C17002992520087502994875FEBD000024
:103C0000D8270020AA020000BC27002010270000AF
:103C1000F0B59FB0054603F029FB0446002008A933
:103C200005900870199001201890FB482E460068F6
:103C3000FF34FF300130017EF8481836006809343F
:103C4000002801DA012911D040067DD50020189006
:103C5000E06B017E4908490001762878401C2870F5
:103C6000EF484168802211434160A0E100200190AB
:103C7000E01DF93003904769B878800601D0012033
:103C80001990287950214843E54940394018C06DC2
:103C90004000400F1A90042801D102201A902846B3
:103CA0000C301999009000292AD02878062801D1D3
:103CB00003F054FD00200290F878C00706D00020E1
:103CC000A875697D009804F0CFFA0290F878810712
:103CD00001D4019810E0C007387803D0C2093946F2
:103CE0000A3101E0C209391D1BA804F08FFA697D71
:103CF0001BA804F0FBFA019002990843FF2809D0A1
:103D000003984069844600780007000F072802D016
:103D100008287DD0D2E00CAB04930BAA0DA90AA809
:103D200001AB07C309A800901DAB16AA15A96046F0
:103D300004F0FDFA179000280BD12878002808D14C
:103D400020466978FF3000E0FFE02330085C01285E
:103D50007CD003F003FDE06B017E0122114301766C
:103D600010A8007DE87005921798009028795021DE
:103D70004843AB4940394018C06D4000400F0190A6
:103D800002A804F03BFB019804286FD0122002998E
:103D9000091A00980818009008A8017C179804F0E8
:103DA00039FBA049179A4143090A002A02D0009A18
:103DB000101A009008027D2109034018010198485B
:103DC00009090269984B1A40114301612879009949
:103DD00004F034FB012108A8017014A8009013AB73
:103DE00008AA2846179904F02FFB23462A4605996E
:103DF00004F09EFB189010A8017C027B08A8007DAF
:103E0000059004970692079108A81BAB017B00E080
:103E100051E00079199A6F460FC708A8037A10A8D5
:103E2000027E2846179904F0ADFB7068109008A830
:103E30000079B16800060143119130780022010732
:103E4000C90F4006800F27D027E0FFE7B878810927
:103E5000C0D0800902280AD0012200211A9804F05B
:103E6000E9FB00280ED005202870B3E712E00122FC
:103E700011461A9804F0DEFB002801D00320F3E776
:103E80000020287003F06AFCE06B017E01221143E0
:103E900001769FE79D207AE7012210A804F072FCCA
:103EA000002803D0002008A9087000E00120FF21AD
:103EB000293108557BE02878062808D003F04EFC0D
:103EC000012023462A46059904F032FB6FE003F0F7
:103ED00045FC1A980622800000190290806A391D5C
:103EE0000830FEF773F902982746806AFF37844648
:103EF0002137F87D012815D0009B4C480993039386
:103F0000002201216B4607C32B79B97B604604F080
:103F1000AFFC099805F088F80220F875FF20B87307
:103F20000020F871787CFF2801D004F031F9B87CCA
:103F3000FF2801D004F02CF9287905F09BF8FF2028
:103F40002871687903F04AFF31E003F007FCE16B68
:103F50000A7E012002430A7623462A46059904F088
:103F6000E7FA2878042802D1204605F09EF8287840
:103F7000112803D0142801D0012818D12146FF317F
:103F80002131087A002812D030789F221040402238
:103F9000104330700020FF343077013460693062A4
:103FA000887BFF2835D13378317F00222EE008A8A6
:103FB000007800282DD0307F00273378E52803D9FA
:103FC000E538C7B220200343FF342134A07BFF280B
:103FD0000DD1A87D012803D17068FF2108437060CE
:103FE000307F0022C01BC1B23046FDF760FF002FBA
:103FF0000FD0A07BFF280CD1A87D012803D17068C9
:10400000FF21084370603378E52239463046FDF7DA
:104010004EFF18981FB0F0BDD8270020D4270020ED
:10402000C000002071020000FF0000F0FFFF000050
:10403000FFB597B006460AAB09AA14A90EA801ADB0
:104040000FC50FA80090F01DF930159000244069AD
:1040500013AB08AA0DA904F06AF905461190189847
:104060008000C7B2169012A804F0C8F9042F25D01A
:1040700012201299081A4019109008A8017A119874
:1040800004F0C8F98249119A4143090A002A02D072
:10409000109A101A109008027D210903401801019E
:1040A0007C48090902697C4B1A40114301610020D8
:1040B0003546FF350746213500901AE09D20D8E7A8
:1040C000B8003058FF2201792D32FF290FD08368C4
:1040D0001099591A00D54942914208DA0446012044
:1040E00000901099A1602079109904F0A7F97F1C25
:1040F000FFB2A97EB942E3D8009800280DD11198EB
:1041000000280AD0002006E08200B2581279FF2A67
:1041100064D0401CC0B28142F6D8287E002854D01A
:10412000002C52D06079FF284FD020715B4F5E4940
:1041300007975B4B5B4A04AF0EC70822109909270B
:104140005A4B03920191029700930322214603F0F8
:1041500007F9032000905648F26B00681346403080
:10416000417A1433207903F0E5FD52A103C90C9183
:104170000B902079474F502148434037C019816840
:104180008AB26946898D09040A4382600BA802300D
:10419000FEF75EF8810220795022890A5043C01947
:1041A000C268920D92051143C160207950214843A5
:1041B000C0194168FF2212061143416008A9087D19
:1041C000E0700878A07018986070287E002808D0E9
:1041D000002C06D020798021084303E08000345869
:1041E0009BE7FF2003F0FAFD03F0A3FB01461698BE
:1041F00080198030026A891A826A5118816200200F
:10420000E874002C2BD008A8007818A9844608A8C8
:104210000EC907790020109D2070A5602546203525
:104220006075EF712076A275002B06D0209B1B686D
:10423000E362209B5B68236301E0E0622063002A65
:104240001FD0E06120624800401C28716046401C7D
:10425000687115984069C0788007C00F2075119863
:1042600000280CD108A800796B461A9A209907C338
:1042700008A8037F017E3046199A04F040FF1BB066
:10428000F0BD15980068E06115984068DAE7000015
:1042900071020000C0000020FF0000F0AB550410C8
:1042A0009B1E0410C1FA051013000610581B0000D5
:1042B000D8270020FFFFFFFF1F00000070B5066A2F
:1042C0008AB0057DB21806461536079606950992FE
:1042D000089110250F22002645578256817B0596AE
:1042E00002AE26C61C46031D417B007B0090094898
:1042F000019100681A782030007BC00701D00020AF
:1043000000E01020A121084321465B1C04F05AFF65
:104310000AB070BDBC27002070B50446E1200D46F0
:10432000800004F0ADFF012004F0D2FF002801D08E
:10433000862070BD20782021084320700920287035
:10434000002070BDF0B585B003F0F3FAC94F052425
:104350003968E4018031CA6D4F2314192668DB00E7
:1043600005249B58E4011419C31A64680025F31846
:104370006C410525ED0155192B600523DB01D21891
:104380005460CA6D9D25FF32FF3202329067C86DBE
:104390002724C218AD0024012E581268C3182458CF
:1043A00015255B686D01121BB34133D3052400232F
:1043B000E40104191A4623600523DB01C01842609A
:1043C000C86D132149014118097A002922D04019EA
:1043D000C0780024002815D9386828218030C06DA5
:1043E0006143FF30FF300230C06D461804F074FFA7
:1043F00030623868641C8030C06DE4B24019C07807
:10440000A042E9D838688030C16D0520C001081885
:1044100080698047386813228030C16D52018A1844
:10442000D27A002A7ED00522D20189188A680192A8
:10443000C968009103910292C06D1521490141188C
:10444000FF30FF3002304978406D04F04EFF002409
:10445000064600281FD9874861060068890D80300C
:10446000C06D091DFF30FF300230426D51584900C8
:104470004D0E7F2D0BD0C16D282068430F180023EF
:104480003846009A019904F048FF002823D0641CA4
:10449000E4B2B442DFD3774C05212068C9018030F3
:1044A000C36D039A5B181B7C15251B061A430392E8
:1044B000C26D6D015218117C491C1174C06D02AAA5
:1044C0004119FF30FF3002308978406E04F052FF0E
:1044D000FF287DD0A5E020370097FA79FF2A0DD07C
:1044E00064481521006849018030C06D4118FF30D3
:1044F000FF3002308978406E04F0F6FF2906012271
:10450000D2070398114308435A4D03902868152495
:104510008030C06D64010119FF30FF3002308978AE
:10452000406E00E0A4E002AA04F024FFFF2854D16A
:10453000286821468030C06D4118FF30FF300230BE
:104540008978406E04F0D1FE00210446002810D97D
:1045500028688030C66D9920800080594A06520E26
:10456000D3001B1DC3581B0E3DD0491CC9B2A1422C
:10457000F4D3002C21D000212A6848068032D26D65
:10458000FF32FF320232566E820D121DB358180EE2
:1045900007060DD41B021B0AB3502E688036F66D39
:1045A000FF36FF360236401E766E00060343B350D8
:1045B000491C641E2406240EDED128681521803093
:1045C000C06D49014118FF30FF308978023000E0AA
:1045D00019E0406E02AA04F0CDFE0099FF28C871D0
:1045E00000D158E71DE0152149017118897804F0C0
:1045F0007BFF28688030C16D0520C0010818017C50
:10460000491E0174B5E704F0FDFF206802AA80305E
:10461000C06D4119FF30FF3002308978406E04F0E0
:10462000A9FE144C132521686D018031CA6D01204B
:104630005219D072CA6DFF32FF320232536E106EC1
:104640001366CA6DFF32FF3202325066C96D152201
:1046500052018A18FF311279FF310231D200096EFE
:10466000FDF79AFD216800208031C96D4919C87293
:1046700005B0F0BDD827002070B5154606460A687B
:10468000FE201C4C824320684B688030C06D152191
:1046900049014118FF30FF3002304978406D05F084
:1046A0000BF84006400E7F2822D02168C0008031E0
:1046B000C96D001DFF31FF3102314A6D10584000B5
:1046C000400E7F2814D028225043C96D0246103274
:1046D0008C18236862681A43A3681343E2681A437C
:1046E00006D020300A582B463146204605F005F802
:1046F00070BD0000D8270020F8B506460268FE20ED
:104700001F4D824328680F468030C06D1521490136
:104710004118FF30FF30023073684978406D04F073
:10472000CBFF4006400E7F2829D02968C000803189
:10473000C96D001DFF31FF3102314A6D1058400034
:10474000440E7F2C1BD0C86D28214C4300190268F1
:10475000416811438268C0680A4310430FD004F0D7
:10476000BBFD296802468031C96D3B46FF31FF31F0
:104770000231C96D0C193146204604F0BEFFF8BD68
:10478000D8270020FFB58BB005460020149C009070
:104790000E98F14F4007C00F079038680E468030E2
:1047A000C06DFF30FF300230C06D059028780106E3
:1047B000090E049168680AD001028A0F05D0002210
:1047C000890F012905D0002103E00122F8E700222A
:1047D00011460D9B132758600D982B680360DE4827
:1047E0007F0100688030C06DC3191B7A012B7DD119
:1047F000002A13D00798002879D1032E02D0052E65
:1048000005D0A5E1012C72D0032C04D1A0E1022C2B
:104810006DD0032C6BD001200FB0F0BD002965D006
:104820007F216A46117600210991019115214901E4
:104830004118FF30FF30023089786B682A68006EBB
:1048400004F03AFFFF2819D0C34940060968800DDB
:104850008031C96DFF31FF310231096E001D0858EA
:10486000000E010603D401200990002004E0400658
:10487000400E69460876012001905BE0032E01D0CE
:10488000052E57D1B44800688030C06DC119C97A6F
:1048900000290CD15121C9004018294604F076FFA7
:1048A000AD49012009688031C96DC919C872052E4A
:1048B0001DD1AA491698884202D00E98C00616D576
:1048C00006A80590002007460890A348016880319B
:1048D000CA6D152149015218D278002A28D99E485C
:1048E00000688030C06DFF30FF3001E096E0A4E04A
:1048F0000230C16D2820784308182421095C012961
:104900000AD101236A68296804F007FD002803D151
:1049100001200890059807708F487F1C0068FFB23F
:104920008030C16D152040010818C078B842D6D833
:10493000089800900798022500282AD0009901982D
:1049400008437AD0844C69462068097E8030C06D67
:104950002823FF30FF3002305943C26D2631515CAD
:10496000406DCE0081190D9804F010FF20680722D9
:104970008030C06D1599FF30FF300230406D8019D6
:1049800003F0A4F9002858D10D9800780FB02843FF
:10499000F0BD099800280BD0012C07D0032C07D0BC
:1049A000032E38D0022C03D0032C01D0052E32D098
:1049B00000990198084328D0674869460068097E35
:1049C0008030C06D2823FF30FF3002305943C26D64
:1049D0002631515C032E02D0052E05D008E0012CB3
:1049E00006D0032C0AD103E0022C01D0032C05D100
:1049F000CA00436D121D9A58002A1EDA406DC90084
:104A000009180D9804F0C2FEBEE7022C15D0032C45
:104A100013D0052E11D1FE200FB0F0BD11430DD0E3
:104A2000079900296AD0159829680068814204D145
:104A300015986968406881424BD089E00021069151
:104A40000F46152149014118FF30FF3002304978E7
:104A50006B682A68406D04F02FFEFF282BD03E497A
:104A6000C0000968001D8031C96DFF31FF3102317E
:104A7000496D0858000EC1094006400E06917F2876
:104A800019D028225043059A0121801803684268F2
:104A90001A4383681343C2681A4303D02030407915
:104AA00001280AD000270798002813D0002906D033
:104AB000002F4DD103E00021F5E70127F3E715981A
:104AC00029680068814243D115986968406881422D
:104AD0003ED13AE0012C01D0032C01D1032E05D0A8
:104AE000022C01D0032C04D1052E02D106980028F7
:104AF0002ED0002929D0002F2AD126E0012C01D068
:104B0000032C01D1032E05D0022C01D0032C1CD183
:104B1000052E1AD1152149014118FF30FF3002300E
:104B20000D4C49786B682A68406D04F0C5FDFF287C
:104B30000ED02168C0008031C96DFF31FF310231D4
:104B4000496D001D0858C00F02D004980FB0F0BD89
:104B5000FF200FB0F0BD0000D8270020FCFF0000B0
:104B6000FFB583B005460C980C46C007C00F0C90EB
:104B7000EB480D9E01688031C96DFF31FF31023174
:104B8000C96D0291296821606968616029780F9A6E
:104B9000C907C90F0191FF211170006813218030EE
:104BA000C06D49014118097A2A68012954D0D107FA
:104BB00006D06B6819028F0F012F7DD0890F7BD033
:104BC000152149014118FF30FF30023049786B68E8
:104BD000406D04F071FD7F210027FF2823D0D049CC
:104BE000C00009680F9A8031C96DFF31FF31023171
:104BF000496D001D0858010E4806400E1070C24352
:104C0000520610D028225043029A80180368426846
:104C10001A4383681343C2681A4303D02030407993
:104C200001287DD000270E9801287AD0012E79D056
:104C3000032E77D00598012875D02078C1070C98ED
:104C4000C90F814270D106990622601C491C03F0ED
:104C50003DF8002868D118E1D107B1D06B6819027E
:104C60008F0F012F16D0890FAAD1012E5CD0032EF1
:104C70005AD0059801287DD0D1070C98C90F8142E0
:104C800052D106990622681C491C03F01FF800281F
:104C900071D01AE10E99012922D01521490141183C
:104CA000FF30FF3002309E4F8978006E04F004FD23
:104CB0000146FF20002200E0EDE0FF297ED03B68A6
:104CC00049068033DB6D890DFF33FF3302331B6EE2
:104CD000091D5958090E0B0656D40122002156E031
:104CE0006946029100210E460191152149014018A3
:104CF000C0788B4F002817D938688030C06DFF30DE
:104D0000FF300230C16D2820704308182421095C4F
:104D1000012910D101236A68296804F0FEFA04E031
:104D2000A1E0A2E0ACE0B3E060E0002803D1012004
:104D30000190029806703868761C8030C16D15208D
:104D400040010818C078F6B2B042D5D801980128C1
:104D50004CD169460F9809780170386869468030EF
:104D6000C06D0978FF30FF300230282359432631C7
:104D7000C26D01E043E073E0515C406DC900411831
:104D8000204604F003FD37E04806400E01210F9B4A
:104D90000029187035D0396828238031C96D5843EF
:104DA000FF31FF310231CA6D2630105C496DC00001
:104DB000021D8A58150E0918204600E017E004F07D
:104DC000E5FC012E16D0032E14D00598012813D02F
:104DD0002078C1070C98C90F814276D10699062226
:104DE000601C491C02F072FF002805D06DE00F9B8B
:104DF00018701EE0E80968D02078801CC0B207B0A7
:104E0000F0BD002A15D0012E5FD0032E5DD005988D
:104E10000128F4D02078C1070C98C90F814254D1E1
:104E200006990622601C491C02F050FF002817D08A
:104E30004BE0386813248030C06D64010119C97AD1
:104E40003E46002941D15121C9004018294604F0AD
:104E50009DFC316801208031C96D0919C87234E0A8
:104E6000012007B0F0BD0127DDE6206829688842EF
:104E70002BD161686A68914227D1002F25D121E0AA
:104E8000C80922D0002F20D13DE0002F1DD13AE0EB
:104E9000002F1AD137E00E9901290DD0012E17D01D
:104EA000032E15D0059801282DD02078C1070C9825
:104EB000C90F81422AD008E02068904205D161687C
:104EC000994202D1C0B207B0F0BDFF2007B0F0BDDB
:104ED000152149014118FF30FF3002300024104DE8
:104EE0004978406D04F0E8FBFF280AD02968C0002B
:104EF0008031C96DFF31FF310231496D001D085805
:104F0000040EE009E1D0019807B0F0BD0699062231
:104F1000601C491C02F0DAFE0028F4D0D5E700003E
:104F2000D8270020F8B50D461F49144609681322FA
:104F30008031C96D52018A18167A4268012E09D152
:104F40000668B446F60705D01602B70F012F0CD03D
:104F5000B10F08D061688A4205D1216800680E222D
:104F6000914388421CD0FF20F8BD5806400EFF2810
:104F70000DD0FF31FF3102312823C96D5843081885
:104F800001236146103004F0C8F9002803D06808F6
:104F9000E9D0FE20F8BD2078C007C00F801CF8BD06
:104FA000C007C00FF8BD0000D8270020F8B5234C7B
:104FB000132520686D018030C06D05264119497A9E
:104FC000F6010027002918D08019C0698047002801
:104FD00013D1206815218030C06D49014118C9786E
:104FE000FF30FF30CA000230416D806DFDF7D4F80C
:104FF00020688030C06D4019477220688030C06DD5
:105000004119897A002918D0801940698047002801
:1050100013D1206815218030C06D49014118C9782D
:10502000FF30FF30CA000230816D406DFDF7B4F8EB
:1050300020688030C06D40198772F8BDD8270020E5
:10504000F8B55B4C152520686D018030C06D2822B5
:105050004119FF30C978FF3002305143C06DFCF771
:105060005DFA2068FF228030C06D4119FF30097958
:10507000FF300230C900C06CFCF73EFA2068FF2206
:105080008030C06D4119FF300979FF300230C9000E
:10509000006DFCF731FA236800278033DE6D70194C
:1050A000C178002931D0C9070020C90FFF2200298B
:1050B00006D0FF36FF360236F06D272682550120D6
:1050C000DB6D5B19DB788B421FDD2368282680337C
:1050D000DB6D4643FF33FF330233DB6D27369A55D2
:1050E000236828268033DB6D401CFF33FF330233F7
:1050F000DB6D464327369A552368401C8033DB6DB1
:10510000891C5B19DB788B42DFDC2068052280304C
:10511000C16DD20189180F74C16D2723FF31FF3192
:105120000231CA6C0A66C16D1B01FF31FF310231C9
:105130000A6D4A661322C16D52018918CF72C06D83
:105140001C4A1A50FF30FF3000210230416702F044
:10515000F0FB216805268031CA6DF601FF32FF326F
:1051600002329067CB6D00229E19104632600522F4
:10517000D2019A185060C86D00264019C0780028E6
:1051800015D920688030C06DFF30FF300230C16D0E
:10519000282070430F1804F09FF838622068761CAE
:1051A0008030C06DF6B24019C078B042E9D8F8BD81
:1051B000D82700200000F9157FB56C46099E089D90
:1051C000207261720020A07225806680237169467A
:1051D00002A804F0E3FA04B070BDF0B585B00C4647
:1051E0000AA9E0C969460C804A808B80CD800E8177
:1051F0004F8101220A730146684604F0FBFA05B0AC
:10520000F0BD13460A4610B50146402004F020FBCD
:1052100010BD10B503C9C046C04610BD70B5002210
:105220000546134604F07AFB0446002D06D10448D7
:105230001C220168C86A002101F0FAFB204670BDFB
:10524000C427002038B50F4A146823466C3348340D
:10525000E27C150601D500280FD0DC2002400BD0DF
:1052600068460270002141706946022004F079FB13
:10527000E07C23210840E07438BD0120207559806E
:1052800038BD0000C427002000220078012906D084
:10529000002806D0012804D0042802D002E0C0076C
:1052A00000D0012210467047F0B5002287B00F46AB
:1052B000019211460092012F03D00178042918D0E1
:1052C00018E002880446100718D4E57DE01CA669A2
:1052D0000190A0780090D00605D400220099019892
:1052E00004F06EFB014600290BD00125012F5DD093
:1052F0006AE00122057AC668002A02D0012007B0C0
:10530000F0BD32492846096800250122283108E00D
:10531000B35C012B0AD0B318203BDB7F9A18521CD8
:1053200092B28242F4D3012F11D04DE0521C90B2C0
:105330003322525CD30702D0305CC00703E09207EF
:10534000F1D5305C80070028EDD00125EBE7002D7A
:105350003AD02088C20637D44006800F012833D1C6
:105360000198059000980490002006904F6805462B
:10537000E800401BC6B2002002900390B819072233
:1053800002A901F05FFB0006000E05D06D1CEDB216
:10539000042DEDD3069D17E0B81901250646062217
:1053A000059901F03FFB0498B07101E001290BD190
:1053B00020784006810F02D0800F022804D10122FC
:1053C0000099019804F0FCFA284698E7C4270020C9
:1053D00038B510480021046808462834FCF7C3FD9E
:1053E000694648702034E07CC10704D001216A4638
:1053F00011708843E074C0B2810705D502216A4666
:105400001170FD210840E0746946022004F0A9FAF9
:1054100038BD0000C427002002780907090F0A439D
:1054200002700020704710B50120C046C04610BD74
:1054300000B585B0142207496846FCF7ADFE064862
:105440006B460068054A6C304088012104F0E4FA9C
:1054500005B000BDC8170610C4270020FFFF0000DC
:105460007FB5AC218172817B05468A072A350446C7
:10547000002A09DA10220021684601F0D9FA6946AB
:105480002B460A46AD250FE0C80701D1480719D5BC
:1054900021464A312246E07A5232000701D52B4696
:1054A00001E023463A33AE2520890005000D04F0C3
:1054B000C5FA00280BD03A2801D00C2800D10020D2
:1054C00004B070BDC808C000A0738520F8E7A17BB8
:1054D000CA0703D010221143A173F125C9B2C9082C
:1054E000C900A173A572EBE710B57421095CC90767
:1054F0000BD1817AA42909D0AC2916D0AF2904D1C7
:10550000417F002914D0D021817210BD04461021A2
:10551000543004F0DEFAE07A0007204602D5FCF7AA
:105520008BFD10BD04F0E5FA10BDFCF739FD10BD90
:1055300004F012FB10BD10B504684168A268FF209A
:10554000137B8A7A002A0DD0F12A0BD0A12A0FD022
:10555000A52A13D0A62A04D1042B02D1204604F098
:1055600017FB10BD0B2BFCD1204604F083FB10BDB4
:10557000022BFCD1204604F0BFFB10BD032BFCD155
:10558000204604F0EFFB10BD10B50146807AA92833
:1055900002D1002004F0E6FB10BD08B56B4619806F
:1055A0005A80009904F00AFC08BDFF210171704780
:1055B00010B50249062004F029FC10BD2F900510FB
:1055C00038B5890612D5044604F02AFC028B6946D8
:1055D0000A80408B4880E08E009904F0EFFB3A2867
:1055E00004D08034206820218843206038BD704773
:1055F000FFB581B01E461746002404F011FC054695
:1056000001981B2800D230240120C046012840D038
:105610001B210198814200D23024FF210298493198
:10562000884200D230240120C046012833D0012016
:10563000C046012837D0FF2149310298814200D26B
:1056400030241B2F00D230240120C04601282DD049
:105650001B20B84200D23024FF204930864200D2BD
:1056600030240120C046012822D00120C046012854
:1056700026D0FF204930B04200D2302472B60198C3
:10568000288402986884AF84EE8462B6204605B010
:10569000F0BDFB21BDE70120C046012801D00A4929
:1056A000CBE70A49C9E7A9210901C6E7FB20D0E7F2
:1056B0000120C046012801D00348DCE70348DAE7AF
:1056C000A9200001D7E70000480800009042000030
:1056D000F8B5077904468668384604F0ADFB054600
:1056E000384604F0B9FB002813D08079042810D183
:1056F000A96C700288420CD024682B462246394699
:10570000304604F0C1FB2B4622460121384604F006
:10571000F9FBF8BDFEB507790668384604F08CFB46
:105720000546384604F098FB002819D080790428F3
:1057300016D12C468034E18DB08C814210D0E085AA
:105740002B4632460021384604F0DCFB218EA08D2A
:1057500000900191E38D228DE98E802004F0F8FB0A
:10576000FEBD7047F8B50468007904F065FB034698
:105770008030C18E028F914200D31146A9221201BE
:10578000E180914200D21146A181858E418F8D42E8
:1057900000D22946A1800025164614E0002D12D023
:1057A000A189828D97013D221201BA188A4200D840
:1057B00011460E4F9A6CFF317A43120A2D318A42FC
:1057C00003D9521A02E0E188EBE70022A188914256
:1057D00000D20A4692B231468A4200D311466A008C
:1057E00012196D1C1181022DD8DBF8BD7102000069
:1057F000F0B5574D91B0286860300079800771D5B9
:10580000544800688007C00F6DD00024012004F0C8
:10581000D7FB064604F0F3FB012800D10324300037
:105820007ED002274C4E012802D0022878D13CE0DD
:105830006946022004F074FC032008A904F070FCFF
:10584000002C04D129680120A83104F069FC3068DB
:105850002030007BC00701D0002600E010266846FB
:105860003E4311231090F00603D50B22BF200640C3
:1058700008E028686030017C890659D5407E000622
:1058800056D509223007000F032851D28100334832
:10589000006808180069314604F046FC070047D04C
:1058A000381D3C714022109939E06946022004F00D
:1058B00037FC002C04D02022FF21684601F0B8F804
:1058C00030682030007BC00701D0002600E01026A1
:1058D00068463E4309230890F00605D50C22BF20F8
:1058E00006400AE02AE031E028686030017C890641
:1058F0001ED5807EC0071BD00A223007000F032868
:1059000016D281001548006808180069314604F075
:105910000BFC07000CD0381D3C712022089900E0D8
:1059200006E0401C01F07EF83946304604F056FC93
:105930002868FD22603001791140017172B6084873
:105940008022006881781143817062B611B0F0BD89
:10595000D827002000003048BC270020C82700209E
:10596000C027002010B5012815D10B4C0823216851
:10597000084640318A7968301A438A7120220749E3
:1059800001F050F80549206820222031883001F0CC
:1059900049F804F037FC10BDE0270020740206101F
:1059A00030B50446C07A0025000711D5208904F0DF
:1059B00037FC002801D008250AE0E07A01210843DD
:1059C000E0720448042200684030817911438171FB
:1059D000284630BDE027002010B50B4C2068403031
:1059E000807941060ED5902108420BD104F03AFC93
:1059F000002807D12168BF224031887910408022D9
:105A00001043887110BD0000E027002070B50468C5
:105A10000579E07A000735D5208904F001FCE17AA8
:105A200049084900E172184C002805D12168FB2380
:105A300040318A791A408A71002D07D0216840319F
:105A4000CA791032CA71002806D009E020684030B7
:105A5000C179491CC17103E08879CF221040887157
:105A6000206803214030C07905090007000FFCF7CA
:105A7000CCF84019032805D304F012FC206800215B
:105A80004030C17170BD0000E027002070B50D4CA2
:105A90000D462268403291794906490E91710028DD
:105AA00002D004F0FDFB70BD04F006FC002802D01B
:105AB00004F0A8FB70BD206840222946683000F041
:105AC000B1FF70BDE027002070B51B4D46222B684A
:105AD000D25CD2062AD5002806D0184900200968D1
:105AE0002031097D803324E018462022FC3000F06C
:105AF00099FF2868202240308179114315E07C22EB
:105B00009C6A4243A41812D02289002A0FD0E27A5C
:105B100012060CD5012300220B21204604F0D6FBEF
:105B20002868CF22403081791140817170BD401CBE
:105B3000C0B28142E3D870BDE0270020BC2700201E
:105B400010B50B4A01681268896840329278406843
:105B5000C97B022A03D10A0701D4032010BD1823F0
:105B6000C27ADB4319430A40C272FCF74DFA10BDFA
:105B7000E027002010B5C17F012908D0042906D0F4
:105B8000022907D0032901D104F0DEFB10BDA521B5
:105B9000817210BDC17B491CC17303F0AAFF10BD07
:105BA00010B5C17F012908D0042906D0022909D0E7
:105BB000032901D104F0C8FB10BD0146002004F008
:105BC00009FC10BDC17B491CC173B521817210BD98
:105BD00038B514C8D07F02280FD10848D17B00689F
:105BE000491EC36B0094CB40DB070146DB0FBC3181
:105BF00068305432803304F02AFC38BDE02700209E
:105C000038B514C8D17F0023032904D00C480229D9
:105C1000006804D00AE0AA209072EB2038BDD17B46
:105C2000C36B491ECB40DB07DB0F80330146683175
:105C3000BC306432009404F00AFC002038BD00003F
:105C4000E02700201CB50446C07F042806D0AA2106
:105C5000022820D0012800D1A1721CBD01A800900B
:105C60001048234600682246014664335432BC3152
:105C7000683004F014FCB920A07201A804F03BFCC9
:105C80000949FBF7C2FF20890A460105090D0220D8
:105C900004F03CFC1CBDE07B1428DDD2A420A072E3
:105CA0001CBD0000E027002040420F0038B514C89A
:105CB0000A48D17F00230068022906D1D17BC36B3B
:105CC000491ECB40DB07DB0F80330146BC31683017
:105CD0006432009404F0BBFB38BD0000E0270020D4
:105CE000FEB50468416802918668C568BA202870CC
:105CF00000203060E17F1F4804291ED002291BD1FB
:105D00000068E77BC16B7A1ED140CB0702990091F6
:105D10000146DB0F224654326831BC30803304F038
:105D200096FB214610222A31029800F08BFE30604B
:105D3000142F01D2B4202870FEBD01A90091006883
:105D4000234601462246643354326831BC3004F0A5
:105D5000A6FBB920287001A804F0CDFB0649FBF78B
:105D600054FF20890A460105090D022004F0CEFBEC
:105D7000FEBD0000E027002040420F0070B5044641
:105D800017480125026840210020683204F0ECFB2E
:105D900006461448202102680020A83204F0E4FBE3
:105DA00001463046084303D0002504F079FA0EE09E
:105DB000E07AC1434906890F09D07421095D0025A5
:105DC000C90706D0400602D5204604F0DFFB28466E
:105DD00070BD8106FBD49B210840E072F4E700000F
:105DE000E0270020D827002010B50446807AAA2892
:105DF0000BD0BA2809D0B92810D07420005DC00794
:105E000002D12046FCF7D8F810BD204604F0F4FB80
:105E10000028F9D0012300220B210DE0E07F0428A7
:105E2000F2D1E07E410602D5BA20A07210BD000674
:105E3000FCD5012300220C21204604F047FA10BDB6
:105E400010B5036841689A68FF20147B8A7AA22AF9
:105E50000BD0B22A09D0AB2A01D0BB2A04D10D2C19
:105E600002D1184604F01CFC10BD0C2CFCD174228D
:105E7000525CD207CA7A05D05206F5D4184604F00F
:105E800049FC10BD9206F9D410BD704770B5026888
:105E900041689268FF20137B0E2B13D1CB7ADB066F
:105EA00010D5CB7F022B0DD14B7E022B0AD1742350
:105EB0005B5CDB078B7A06D0B22B0AD0B42B08D000
:105EC000B52B06D070BDA22B03D0A42B01D0A52BDF
:105ED000F8D10889022406050C48360D0068557B68
:105EE00080308078012340060DD5094825220068BE
:105EF0002146806904F018F9010004D08E808D716C
:105F0000204604F06BF9002070BD0000D827002067
:105F1000C8270020044B10B5984201D9022010BDBB
:105F200004F04EFC10BD0000FF0E00007CB56C4676
:105F3000069D208021716271A3716580019900988E
:105F400004F055FC7CBD704710B50249072003F0F2
:105F50005DFF10BD5D4B0510F8B5064603F06CFF04
:105F60000446304603F078FF254603468035A87B7B
:105F700080063BD5304604F083FC002803D0587AD5
:105F800000280AD108E0187A002800D19879987181
:105F9000597A002905D103E098799871197AF8E7C0
:105FA000D979D9719879042821D04008042900D0E2
:105FB00049082034637F502253430F4A9E18F36DE3
:105FC00007273F064007BB4340090343F365607F53
:105FD000502358438218D06D3B0149079843490824
:105FE0000843D065A87BDF210840A873F8BD1A8854
:105FF000012ADBD10620D9E78000002010B503F08C
:106000000FFF0146072220308273C2730220888569
:10601000002010BDF8B5054603F01EFF04002AD08D
:1060200003F0FEFE0746284603F006FF06460E2252
:106030000021204600F0FCFC3D462035A87BA070E6
:10604000E87BE070B88D20802036707F5021484377
:106050000B494118C86DC96D4001400F49004A0FF6
:106060000121042802D00B4683401846A071042A5F
:1060700003D09140E1710020F8BD1146FAE700001D
:1060800080000020F0B585B084464D1E0C9F0D9E0B
:106090000A9C0B98FF2D0CD2002A0AD0202A08D384
:1060A0007F2A06D8172B04D3172C02D3064DAC42F7
:1060B00002D9822005B0F0BD0190029703960094AA
:1060C000604604F0E9FBF5E7FDFF0000F0B585B0A0
:1060D0000D9F0E9E0B9D0A9C844600290ED0002A1F
:1060E0000CD0202A0AD37F2A08D8172B06D3172CC6
:1060F00004D30948844201D80B2D02D9822005B06F
:10610000F0BD0C98019003970496029500946046A8
:1061100004F09AFCF3E70000FDFF000010B504F066
:106120005DFD10BD10B504F0DFFD10BD38B5049C59
:10613000009404F039FE38BDF8B51F4C1D4E2068A0
:10614000B278014620300274002545742C20424369
:10615000486B294600F06CFC184F20683A46002135
:10616000383004F0D5FE20683A460021483004F06B
:10617000CFFE20680146C5655C3145660166083181
:106180008166002010E0216802018B6D11460C3100
:106190005D5023689F6D1B6EBA181A602268936D5C
:1061A0005918401CC0B21166B17849008142EAD842
:1061B0000020F8BD282A0020D0270020FFFF000083
:1061C000F8B50024009472B6244F01223868817813
:1061D0001143817062B604F0A3FE04F05BFF204D12
:1061E000286848308089C046064609E02868694624
:1061F000483005F025F8009805F03AF8761EB6B25A
:10620000002EF3D112E028686946383005F018F8FE
:10621000009805F04FF8040004D0862C02D0882C9A
:1062200004D115E00121009805F066F9286838309E
:1062300005F07CF90028E6D0862C01D0882C06D108
:1062400072B63868817849084900817062B6F8BD35
:1062500028680099383005F070F9F1E7C027002070
:10626000D0270020F0B504688DB0007900210A9194
:10627000A1680A7B0692FF4A4E7BD27A824211D9EC
:10628000FD4A03011268FB4FD26A2037D518A28855
:106290000392069A142A0DD007DC062A7ED0072A1C
:1062A00029D16FE180200DB0F0BD152A77D0162AD4
:1062B000F6D1A6E1A87840071DD4204605F050F994
:1062C00007900A2802D0002816D01EE06E71022224
:1062D0000021684600F0ACFBA068817CC07C000215
:1062E000081869468870000AC8706B460222314659
:1062F000039805F063F9D1E104AA0021039805F0A1
:10630000B3F9002801D004200790A068017C407CEC
:106310000002081880B200906846B978007C81427B
:106320004DD9079900294AD1D34F2C2339685843B6
:10633000496B1022C01C0A5438680221426B68461F
:10634000007C5843801C115438680099426B6846A1
:10635000007C584308301152A068817CC07C000248
:1063600009183868426B6846007C58430E30115259
:10637000A068017D407D000209183868426B6846BC
:10638000007C584310301152A068017E407E00020C
:1063900009183868426B6846007C01E08EE019E01D
:1063A000584316301152A068817DC07D0002091843
:1063B0003868426B6846007C5843001D11522A46DB
:1063C0003146069805F090F9002102940191039B53
:1063D000079A38E00699AA79491E8A428BD131463C
:1063E00005F08AF9002886D101200690A0680026D1
:1063F000017E407E10220002081880B20490012124
:10640000039805F09FF9B9780546A9420ED99A4A32
:106410002C231068416B2846584303460833CE5A54
:10642000049B002B13D0284605F0B0F992482C218C
:1064300000684D43406B0A35405B0190039B049A12
:10644000069900960294422005F0B8F926E111273A
:10645000C31CCF54A168884A0B7C497C09025B1895
:1064600011684F6B01460E317B52A1688B7CC97C51
:1064700009025B1811684F6B014610317B52A1680D
:106480008B7DC97D09025B1811684F6B014616317F
:106490007B52A16812680B7D497D071D09025918BE
:1064A000536B89B2DA5B914200D31146724A1230C3
:1064B000195211680020496BC853B7E7A878400704
:1064C000C4D44A7C087C120280188A7CC97C80B2C1
:1064D0000902511889B20091039905F0D5F9B978EC
:1064E000814211D864492C240B6860435B6B012204
:1064F000841D1A550A68536BC21D9E5409680222F6
:10650000496B001D0A52C8E05B4C2C2207462168EB
:1065100057433846496B0E300590095A009881421E
:106520002BD12A463146069805F0DEF82068D021A6
:10653000426BF81C115420680022416B38460A3027
:106540000B5A1020039905F0C1F920680022416B15
:1065500005980B5A2020039905F0B8F90021009AFC
:10656000039805F0E5F920680721426BB81D115426
:106570002068FF1D406BC65590E0A878FD210840BB
:10658000A8708BE00699AA79491E8A4238D1314613
:1065900005F0B2F8002833D1A068427C017C1202D9
:1065A00089188CB2817CC07C0002081885B228460C
:1065B000039905F069F9B97881426FD92E490968C4
:1065C0004A6B2C2141430E31515AA14266D105F04C
:1065D000DDF82A484226006801238030007A039CB7
:1065E00080075BD526482B2200683146806903F07E
:1065F0009BFD010052D08C80CD80304603F0EEFD33
:106600004CE06879B04203D3012E47D1012845D030
:106610004A7C087C120280188A7CC97C80B20902FC
:10662000511889B20891039905F0B6F9B9788142F9
:1066300033D9114A2C2311685843496BC31CCB5CD6
:10664000112B2AD1089B002B27D0024616329446E4
:106650008A5A0C4B089F9B1A9F421BD2089B064FDD
:10666000D21892B26346CA5239680A30496B009216
:106670000B5A09E0082A0020D0270020D827002044
:10668000C8270020FFFF000022464220039905F0A2
:10669000A1F902E00622801D0A546E710A9802E6F2
:1066A000142809D0152807D0162805D0062803D0AD
:1066B000072801D00020704701207047F8B5017805
:1066C0004468002936D0012933D1A688E5883046B0
:1066D00005F0B8F90146A068827AC07A0002101865
:1066E00087B2002D25D0002923D0384605F0C2F905
:1066F00000281ED03146384605F0C6F8104A2C2333
:1067000011685843496B03461233CB5AAB420DD341
:1067100003461A331D46CB5A002B07D05B1E4B5342
:1067200010682146383005F0C7F906E00622801DC2
:106730000A540121204604F0DFFE0020F8BD0000CD
:10674000D0270020F8B5074600240D4E0D4D12E06D
:1067500030682C22416B204650430A5ABA4208D175
:10676000C01C085C102801D0D02802D1204605F0BA
:106770000DF8641CE4B2A878A042E9D8F8BD000086
:10678000D0270020282A0020F8B507460024144E00
:10679000144D10E030682C22416B204650430A5AB9
:1067A000BA4206D1C01C085C002802D0204604F082
:1067B000EDFF641CE4B2A878A042EBD800230122CC
:1067C0003946102005F082F80023012239462020A6
:1067D00005F07CF800220121384605F0A9F8F8BD43
:1067E000D0270020282A002010B58AB06C4660808F
:1067F0000C202071218162816846039305F072F9B3
:106800000AB010BD1FB5694648801E200870684652
:1068100005F0C8F904B010BD00B589B069464880DC
:1068200001200871684605F05DF909B000BD10B59A
:106830000446012A03D0022A08D0822010BD204637
:1068400002220C3000F0EEF8102003E0102200F0DD
:10685000E9F880202074002010BD10B58AB06C4685
:10686000608006202071218162811422194603A8CC
:1068700000F0D8F8684605F035F90AB010BD1FB52C
:106880006C46608052202070A180E28068460293AE
:1068900005F088F904B010BD70B50546084605F04E
:1068A000EFF9002805D004462034217B032902D0CB
:1068B00008E0022070BDFF3001308079000701D46C
:1068C0001A2070BD207C012105F0FAF900280BD0B8
:1068D000002D05D1207C012105F0F9F9032801D014
:1068E0003A2070BD002070BD207C012105F0F3F935
:1068F0004574207C012105F0F7F9207C0023032258
:10690000012105F0F9F9EDE7C9B202788A4203D016
:10691000401C002AF9D100207047704780B500283C
:1069200001D100BF07A006490B68002B03D022222B
:106930000021984701E005F0F7F9222002BD000090
:106940008C2A0020636F6E73747261696E742068A4
:10695000616E646C65723A20626164206D65737368
:1069600061676500431C0178401C0942FBD1C01AD5
:1069700070477047C9B2521E05D30378401C8B4242
:10698000F9D1401E70470020704770474A1812D254
:10699000400DC90208430121C9070843520D402197
:1069A0000901521A521C06D452421F3201D4D0405F
:1069B0007047C017704700207047124224D0994298
:1069C00028D970B500251B4202D00C00002109E037
:1069D0000024012649186441944200D3A41A764148
:1069E000F8D33100012601E0764109D20018644154
:1069F0006D41A41A9D41F7D2A4185D41B619F5D393
:106A0000300022002B0070BD1B42D8D108B5C04613
:106A1000C04608BD01D19042D3D202000B00002134
:106A20000020704710B50400FBF7D0FB200010BD1C
:106A300010B504000800110002002000FAF75CFD08
:106A4000200010BD80B501F041F902BD034A80006D
:106A5000126812688018418070470000DC2700200F
:106A600070B505460024204603F0DAFB002801D06B
:106A7000852404E0012D02D10120FBF7C1FA204654
:106A800070BD00B5024603F0CBF9C270002000BD16
:106A900010B5044600F0EAFB0B218901002C01D05F
:106AA000002200E0012240184275002010BD70470E
:106AB0007FB504000D001600684605F03BF96846F6
:106AC0000178217041782970807830707FBD000096
:106AD000002901D00EA100E005A1202801D37F20CC
:106AE00070470856704780B505F069F901BD000090
:106AF000CAEBECEDEFF0F1F2F3F4F5F6F7F8F9FA92
:106B0000FAFCFDFDFEFEFFFF000001020304050686
:106B1000CAEDEEEFF0F1F2F3F4F5F6F7F8F9FAFB5F
:106B2000FCFDFDFEFF000102030808080808080834
:106B3000F0B534489BB0066805A8002528360190BA
:106B400005F062F9011E09A80DAC0F9026D00621B0
:106B500003A802F0BEFF6946487CC021084369468D
:106B60004874062203A92046FFF75CFF102112A8F3
:106B700002F0AFFF102212A90198FFF753FF102176
:106B800016A802F0A6FF102216A90F98FFF74AFFD9
:106B9000019805F048F9050000D0F12527460620A8
:106BA000194C00902268014600202E3203F0DCFCD4
:106BB000002801D127682E37304639463630009AF2
:106BC000FFF730FF2268102631460020083203F01C
:106BD000CBFC002805D02068324601990830FFF729
:106BE00021FF226831460020183203F0BDFC002846
:106BF00005D0206832460F991830FFF713FF28465A
:106C00001BB0F0BDC4270020BC27002010B5012018
:106C1000C046C0B210BD704730B5074A03460021D8
:106C20001268084654185D5C6034491CC9B2657628
:106C30000829F7D330BD0000D827002030B5074A17
:106C4000034600211268084654185D5C6034491CF4
:106C5000C9B265720829F7D330BD0000D8270020DB
:106C6000F8B5044605F0ECF8002823D08220002C6B
:106C700021D0217D012901D002291CD1217C10299C
:106C800002D0802917D11BE0A0894049884202D058
:106C9000491E884214D1012005F0E2F80EE0017887
:106CA000002909D141680A7C102A05D1A289898965
:106CB0008A4201D18520F8BD05F0E4F80028EED124
:106CC000002005F0F3F8002806D04168C98A0029A1
:106CD00004D04088401804E0012203E005F0FEF8EB
:106CE000401C82B200212346084605F005F9060043
:106CF00006D0701C82B2E08A401E87B2002515E0E3
:106D00008720F8BDE08A002803D0002F23D07F1E03
:106D1000BFB2E069A90043580021012005F0ECF85A
:106D200000281AD0401C6D1C82B2ADB2207EA84251
:106D3000E8D81748022200686030017911430171D8
:106D4000606A00281FD0204620300090007800287C
:106D500019D0002513E082270AE0872708E02420C5
:106D6000616A68430818314600F01EF8070004D035
:106D7000304605F0FFF83846F8BD6D1CADB20098FE
:106D80000078A842EBD80020F8BD000001180000F0
:106D9000CC27002010B5034600220249012005F04F
:106DA0000DF910BDFFFF0000F8B50D46044605F0D3
:106DB00047F800280ED0204605F008F9002808D131
:106DC000284605F02FF9050002D02878002803D0C6
:106DD0008220F8BD8520F8BD217E2846891C05F05B
:106DE00033F90028F7D1284605F047F9054605F0A4
:106DF00019F96D1C0146AEB223463246022005F059
:106E00007BF8B04201D08720F8BD304605F00AF982
:106E10000146701C82B22346032005F06DF800285D
:106E200007D0E069002819D0207E002816D0002560
:106E300011E0872708E01C20E16968430818314603
:106E400005F026F9070004D0304605F071F9384600
:106E5000F8BD6D1CADB2207EA842ECD804480222D9
:106E6000006860300179114301710020F8BD000015
:106E7000CC27002010B5034602220249012005F06C
:106E80009DF810BDFFFF0000FEB50C4605461646F6
:106E90000221012005F070F9002804D1012D01D84C
:106EA0003F2C01D91220FEBD002D01D0002CF9D0BD
:106EB0002946214307D1002003460246009021467F
:106EC000284605F067F900211EE0481C01900622C3
:106ED0005143C0B2725C07E0062703467B43F35C74
:106EE0009A42DFD0401CC0B2A042F5D3EF2AD9D8D5
:106EF00088194388007900902146284605F04AF910
:106F00000028D0D10199C9B2A142DED3FEBD70479D
:106F100070B5024628480024007F884201D88220AC
:106F200070BD2648002A0068406D02D014225143EB
:106F3000401841788A06D30FCA060907D20FC90F35
:106F4000002B02D0002A02D103E0002901D000204A
:106F500070BD0289466805783146104605F0B4F9DF
:106F60001749884204D030188078410709D50AE0D3
:106F7000002D1ED0012D04D0022D02D0032D0AD1E8
:106F800017E0D42415E0002D07D0012D08D0022DE4
:106F90000BD0032D01D012240BE08007F1D108E0C3
:106FA0008007800F0128ECD103E08007800F0228C2
:106FB000E7D1204670BD0000082A0020C427002029
:106FC000FFFF0000FEB5114E002534682746483704
:106FD000787D2834800717D5684605F08DF9684616
:106FE000FAF747FF05000FD12046062269463C30DC
:106FF000FFF718FD0122064B1146306805F0A3F992
:10700000787DFD21084078752846FEBDC427002004
:10701000A0BB0D0070B5234D034628680029446DC0
:1070200002D014214A43A4182178012B1CD0A17846
:10703000890716D5002105F0FAF91B4802250068DA
:1070400080304078C0070CD018481B22006800230D
:107050008069294603F068F8010002D0284603F051
:10706000BDF80020A07070BD002300290ED00129BA
:1070700002D002290AD105E0A07802210843A070BD
:107080000B4B03E0A07804210843A070A07861783E
:107090000843A070002BE6D001220021286805F0EB
:1070A00052F970BDC4270020D8270020C82700202F
:1070B00020BF0200FFB58DB01F4600240821042028
:1070C000179E169D05F058F8002805D10D98002848
:1070D00004D0012802D0122011B0F0BD0320C04618
:1070E0000E998142F7D80622394608A8FFF79AFC84
:1070F0000F98012801D00028EDD1A80701D1680719
:10710000E9D500202946C140C90701D0641CE4B27A
:10711000401CC0B20828F5D30022122034E011012F
:10712000775A89194B88042F9C468B880393CB8808
:107130009E460B890B934B890A938B890693C989C9
:107140000791C9D361460429C6D3BC45C4D8039B63
:1071500012499B1F8B42BFD273469B1F8B42BBD2EF
:10716000039B9E45B8D3FF230B99F4339942B3D8C0
:107170000A4B0A991B1F0A399942ADD2079B0699FF
:107180008B42A9D3521CD2B2A242C8D30DAC0196F5
:10719000009507CC08AB05F075F99DE77B0C000066
:1071A000FFB50F4683B01D4616460821042004F0A3
:1071B000E3FF040053D10320C046039981423FD826
:1071C000002F05D0012F03D0022F01D0032F37D17C
:1071D0000520064234D06846017047708670F0077B
:1071E00018D02878002801D0012829D169880429DD
:1071F00026D3A888042823D3884221D800216846B2
:1072000001722978C17069888180A988C18005F0E0
:107210009FF90446700722D50020F10700D0012015
:1072200006214843295C002901D0012908D14119D0
:107230004A88042A04D38B88042B01D3934201D9B2
:1072400012240CE001236A461372285CD07048882F
:1072500090808888D080684605F07AF904432046FB
:1072600007B0F0BD10B505F09FF910BD02480068E9
:107270008030C06D70470000D8270020A030C17D4D
:10728000807ECA078B07D20FDB0F4907D218C90FC0
:107290005118032804D0B12041430846BC30704740
:1072A0004B20C000F8E77047F3B5002185B00F46CA
:1072B0000E46009105990420A031069D02910024FC
:1072C00001AB03AA059905F0A9F969460979CA072E
:1072D00000D006248A0700D5A41D0A0700D5A41CE7
:1072E000002800D0E41C480600D5641C0699FD2047
:1072F000001BC91B814200D8084680B2291A8DB2F2
:1073000039188FB20299097F012904D0022908D0C7
:1073100003290CD013E02018C10000980818603031
:107320000CE02018810000980818343006E020187E
:1073300081010098081835210901401800900220A9
:10734000761C002DBBD1009804490002FAF75DFCC1
:10735000CD214E433018CD3807B0F0BD710200008A
:10736000F8B51C4615460E460B9F05F0CBF9817CFF
:10737000012916D144600699816007990160089936
:1073800041750999817501210175C57401820A99B8
:107390000762C1610C9941620D99C6608162022148
:1073A0008174F8BD024800688030C06C70470000EE
:1073B000D827002010B5FFF759FF10BDF8B51646C5
:1073C0001D46044614220021069FFFF731FB207959
:1073D0002021084320712179042001432171246078
:1073E000A6602573290A6173A17B2A030909090193
:1073F000120F1143A173A17B10221143A1732179B4
:107400004906490E2171E27B02210A43E273627947
:1074100002436271607908436071012F08D0A07B3C
:1074200040210843A0736079400840006071F8BDB6
:107430002079012108432071A07B80210843A0739B
:10744000F8BD7047F8B516461D46044614220021C3
:10745000069FFFF7EDFA207920210843207120795B
:107460000421084320712460A6602573280A6073F4
:10747000A07B290300090001090F0843A073A07B2A
:1074800010210843A07360790121084360712079BD
:107490004006400E2071E07B02221043E0730E4B49
:1074A00018690E4D28403D0228431861A07B4023F7
:1074B0001843A073E07B80231843E0736079104386
:1074C000607107980128207902D008432071F8BD27
:1074D00040084000FAE70000C0000020FF0000F074
:1074E000F3B589B000250D700998807A002859D02D
:1074F000994803C8AE4A1268002312184B4106A8E7
:107500000CC0EFF31080029072B605F072FA020020
:107510000B00099803C804AC03C4012404A803C8E1
:107520000090019106A803C8C826B60200273618A5
:107530004F4100980199B9420ED301D8B0420BD304
:1075400006A803C8B9267600002736184F419F4287
:1075500023D801D3964220D200200A32434104A806
:1075600003C88B4211D801D382420ED20998027A05
:10757000C37A04A803C8190005F0D0FA0A99087064
:10758000099885720998447209E0A04885720298AA
:1075900080F310880A98047004E0854844760298C5
:1075A00080F310880BB0F0BD80B505F0C2F9012062
:1075B0009D49087101BDF3B587B0044600200870ED
:1075C00000E02469002C5DD0207B0028F9D0EFF387
:1075D0001080019072B6002069460870491C8B48E3
:1075E000FFF77EFF05F005FA02000B0003CC083C14
:1075F0000F00861A9F4104AAC0C2012504AA0CCA22
:10760000002B34DB01DC012A31D3804A0CCA02AEE4
:107610000CC602AAC0CA664A926B002312184B41DC
:107620009F4210D801D396420DD2784A527A002A4E
:1076300009D002AA0CCA8B4207D301D8824204D3D4
:107640005B48057601E068460570694604A80CC8E9
:10765000100005F023FA68460078012809D16B482C
:10766000817A427A0A4382720021417201E00898CD
:107670000570019880F3108808980078002801D0E0
:10768000079800E0200009B0F0BD1CB5664C6946C3
:10769000A068FFF790FFA06068460078012806D137
:1076A000207D411C627D914200D0401C207513BD9D
:1076B000FEB500256C462570017B002901D0012014
:1076C000FEBD0CC0083801210173574CA668019615
:1076D000070001E035003669002E08D00CCE083EC8
:1076E00003CF083F8B42F5D301D88242F2D3380052
:1076F0000661002D01D1019000E0286101998142CD
:1077000013D16946FFF757FFA0606846007800284C
:107710000BD0EFF3108072B6217D4A1C637D9A4234
:1077200000D0491C217580F3108868460078FEBDA2
:1077300010B51F4C002808D0207B00280BD120005A
:107740002030FFF731FF012004E02000203000F05E
:10775000BBF80020207310BD502A0020FEB505F0B4
:107760007FF9A34D00246C72AC72EFF3108672B6F1
:1077700005F03FF96A4603C205F080F907000CCD19
:10778000684603C8121A8B410021D21B8B4186F335
:10779000108804DC01DB012A01D20120FEBD002B90
:1077A00004DC01DB0F2A01D20220FEBD0020FEBD59
:1077B000A829002080B569461448FFF791FE1A48B1
:1077C000017E002903D00021017600F008F88948E5
:1077D000016801220A4302600068009001BD18B5EB
:1077E00011490020087684480268844B13400360E6
:1077F0000A7D531C4C7DA34200D0521C0A75C169FE
:1078000001220A43C261C069009011BD682A0020AC
:107810004A480168022900D1704780B500680328F2
:1078200001D0FFF732FF01BDA829002010B5FFF7F6
:107830003FFF04000120FFF77BFFE0B210BDFEB563
:107840000300002568460572694CE17222726C489B
:1078500003C81A1A002312184B410CC4083C657265
:107860000126A672674DAF6803CC083C00900191D9
:1078700003CF083F02000B00A86B0021801859417C
:10788000009A019B8B4217D801D3824214D2387BD5
:10789000002811D002A92000FFF722FEAF680CCC0F
:1078A00003CF083F8B4209D301D8824206D3387BED
:1078B000002803D02E7601E0FFF7E7FE0120FFF756
:1078C00037FF6846007AFEBD7CB503004D4CA268C8
:1078D000150000210026100001E02E002D69002D6A
:1078E00009D09D42F9D101932B69954201D118002D
:1078F00002E0336100E001936D462970019B19732A
:10790000824214D06946FFF756FEA06068460078B0
:1079100000280DD0EFF3108072B6217D4A1C637DE4
:107920009A4200D0491C217580F3108873BDA06075
:1079300073BD80B505F05DF804BD00000C0000606B
:10794000F8B5050005F066F98B480126416831431A
:10795000416001683143016088483106016029882F
:10796000C92900DAC821274CA163310501606846A6
:10797000A97881706968C1702988018004F07AFF54
:107980001F4805F059F80027A7602673184A002001
:1079900050729072002103C228882061A782686813
:1079A00000030A21FAF731F920602771754D00288C
:1079B00004D1280005F047F920600AE0280005F00E
:1079C00042F92168814203D3280005F03CF9010007
:1079D00021606D48A062676305F00BF82268002300
:1079E00012184B4120002030FFF762FEF1BD00006D
:1079F000682A00204418006030180060FFFFFFBFB5
:107A0000502A0020A8290020F8B584B00024694637
:107A10000C70EFF3108672B65C48407A00280CD0E8
:107A200004F0E7FF02000B00584D03CD083D9942DA
:107A300003D801D3904200D26C7286F31088504F65
:107A400022E0401C19E004690021017381680029CB
:107A500000D088472000F6D16946B868FFF7ABFD33
:107A6000B8606846007801280AD1EFF3108172B639
:107A7000387D421C7B7D9A42E3D1387581F31088B2
:107A8000787D039940187875787D397D0A1A02D27D
:107A9000802040001218002A28D00392BC680026DB
:107AA00002940194002502E0260024696D1C002C3C
:107AB0000FD0207B0028F7D004F09BFF02000B00C2
:107AC00003CC083C801A99410029EDDB01DC062833
:107AD000EAD3002D03D000203061029401E00020A1
:107AE00001900298B86001980028B4E7284E01245C
:107AF0003879002823D004F028FF00283AD1002547
:107B00003D7104F033FF300004F096FF787E0028CA
:107B10000AD07D761D4884726946FFF7E1FC69460C
:107B2000B868FFF748FDB86004F063FF3A680023C7
:107B300012184B4138002030FFF7BAFD1AE0307CB4
:107B4000002817D004F055FF02AA03C203CEFA2280
:107B50005203002312184B4102A803C88B4209D8D4
:107B600001D3824206D238002030FFF7ADFE04F088
:107B7000E0FE3C7105B0F0BD4018006000E100E09F
:107B8000A8290020FFEFFFFFA9750410682A002034
:107B9000502A0020F8B504460027E0308770A06A1C
:107BA0000125078605F070F8030568000146A26A02
:107BB0001B0D30315352A26A2E30105A6D1C18180A
:107BC000EDB25052112DEDD32046FFF757FB25465D
:107BD000803500902646AF86A036F07E2246394694
:107BE00005F070F8014600980A18F07E616D0346B2
:107BF0004843E16F5B1C401812182A60AB820520D5
:107C0000B075501AA067F07D2036C1078207C90FF2
:107C1000D20F89184207D20F8918491E317705F013
:107C20005CF870772F846F8405F02EF8C0B22521A0
:107C3000F9F7EBFFB177626FE06F111A688B0028DC
:107C400002D17379012B03D000291FDA002A1DD03D
:107C5000317900291AD000280DD03C212A7F101A32
:107C6000C0B200900B48AA7F00682030007BC0079C
:107C700003D0002002E04321F0E71020A1231843A5
:107C8000054B05F035F8204605F068F8688B401E76
:107C90006883F8BDBC270020FF0F000010B5FFF778
:107CA000E5FAFF21002269310A54FF3024214930CE
:107CB000F9F734FC10BD704710B503490622096876
:107CC0008931FEF7AFFE10BDD8270020A446521E12
:107CD00008D303780C78401C491CA342F7D0181B2A
:107CE00064467047002064467047704770B5FF25B2
:107CF000002004F007FD0E490024C97A09E072B69D
:107D00002C2262431218927C002A06D062B6641CB0
:107D1000E4B2A142F3D8284670BD2C216143012270
:107D20000818827400212546816262B6F3E70000DC
:107D3000082A0020F8B50446502044431C48164643
:107D40000F461D46201850220021FEF771FE1848EC
:107D50005C382118C86D40221043C865144824308F
:107D600020180268134A02604268134B120E120672
:107D7000D21842608268FB0652095201DB0E1A4398
:107D800082600A6E0E664A6E4D66069B8022012B4B
:107D90000AD0CB6D9343CB6581683F221202914399
:107DA000FF3101318160F8BDC86D1043C865F8BD71
:107DB000DC000020D6BE898E5555550070B50546AD
:107DC000002404F0E3FF0179012904D10168284669
:107DD00000F0EBF90446204670BD7047F1B5AEB037
:107DE0000120089004F0D2FF0126009006730020C5
:107DF000D24D0E9029684031087204F083FC2D6842
:107E0000044654356E71287900090007000F287167
:107E10002E98C00919D02E98FF2823D04006400E76
:107E20002E902C21484306192E9FFFF782FD3168C2
:107E3000081AFF382D2805D501200E900098002142
:107E400001730AE10098002101732E98FF2809D0E0
:107E50002C214843001901210175817C082901D199
:107E60000421817460210FA8F9F758FB182127A875
:107E7000F9F754FB0898962148430B90FFF759FDFA
:107E80000B9940180022174607904CE02C207843AD
:107E90000619B17C0E20014225D00420B07433684D
:107EA0000799184600F081F900280ED10798F26969
:107EB000C11AF0689047318A09183182317D08185B
:107EC000FF2800D9FF2030750122B37D01209C4698
:107ED000737D317D984063469940884200D90846B9
:107EE000BB000FA9C850B07C30230146C907C90F99
:107EF0001840099100280BD0B16A002901D0F06820
:107F000088470020B074F074BA000FA9885001228D
:107F10000998002803D00020BB000FA9C85027A84B
:107F2000C7557F1CFFB28648C17AB942AED8002A35
:107F3000A4D1511E009A0B919160FF2100230A9158
:107F400080E07046C01A401EC0B281000FAE0246EB
:107F5000715819E0401EC0B287000FAEF659B44602
:107F60008E4211D38C450DD12C265643371927AE9E
:107F70000297365C2C277E43029F3619BF7DB67D63
:107F8000B74201D8024661460028E3D100295FD0FC
:107F9000002B10D001200C9027A8815C2C26714367
:107FA000091904910E684968711802917146491EB9
:107FB000634ECFB215E027A8805C0A9010462C21B2
:107FC000484300191FE027A8C15D2C204143081930
:107FD0000068029900F0E9F8002800D10C907F1E9B
:107FE000FFB2F07AC01A401EB842ECD30C980028B9
:107FF0000BD027A8805C0A90049801680B98411A5E
:1080000000988160049800680B9027A8815C099112
:1080100096000FA84A498759C97ABE46CF1AB900B7
:10802000091880398C46C96F815127A83818203823
:10803000C67F27A98E540999C177774661465B1C94
:10804000DBB2CF673E48C17A8E46994200D978E7C5
:108050000A982C2148430A9F061903204007826989
:1080600008210A43826104F091FE0446FF2F53D099
:108070000820B0743068039020606771326A7168BC
:10808000F06890472F4841690122920711434161EE
:1080900041687A06C909C901520E1143416041681D
:1080A000802211434160F07C8007C1170E98491C63
:1080B00000280DD004F0A1FD0120207128790107CE
:1080C000F07C090F000101432971039828602EE01C
:1080D00001220398FFF7B3FB0028EDD00898400079
:1080E0000890102800D27DE61748A12500680626D2
:1080F00001230D224069294602F016F8040016D02B
:108100000021267161710A46A01DFEF78BFC2146F5
:10811000284602F063F80AE0FFF720FB09484268AE
:1081200080218A434260FF20607100202071034952
:1081300001200968403108722FB0F0BDD827002017
:10814000082A0020C0000020C827002010B50446DF
:10815000002004F0D7FA2C22002154432018817407
:10816000C17410BD10B50C4604F0CCFAC47410BD37
:1081700010B5FFF77BF8FF3009300446FF340021CB
:1081800021342176F9F781FE207E0028FCD010BD35
:1081900010B5FF2806D004F0B5FA817C082902D07A
:1081A0001021817410BD2021FBE7401AC00F01216E
:1081B0004840704710B50446FF2813D072B6FFF749
:1081C000B8FBFF30EC30FFF7F9FD03460D48002106
:1081D000006802464032117262B6012B03D020467D
:1081E000FFF7FCFD10BD4164074B07E0147A002C3B
:1081F00001D0117210BD446C641C4464446C9C42F8
:10820000F4D310BDD827002000E20400F8B50446DE
:1082100017460D460846FAF71BF80602E81C2660CA
:10822000FAF716F80002000A3E4326606060F8BDC7
:1082300010B4002A0CD00B4CA2420BD80123012A07
:1082400006DB04780C70401C491C5B1C9342F8DD73
:1082500010BC704703780B70401C491C521EF9D1AA
:1082600010BC7047FFFFFF7FF0B587B00E46054694
:10827000FEF7FCFF0446FF34FF2009341530015996
:1082800008780207120F072A2ED0082A2CD0891C42
:108290004006C20F04A8FFF7B9FF2046FF30213087
:1082A000837B01224179FF2B01D08179002227466F
:1082B0008037F86D2346FF333033C0B2039301910A
:1082C00000900296533B294604A8F9F711FE014697
:1082D0002868F864686838652868000A000208435E
:1082E0002860084607B0F0BD091DD1E738B505463E
:1082F000FEF7BCFF0446FF3409342046FF3021302E
:108300000091C37B41792246EC322846F9F700FE02
:1083100001468034E06E2860226F6A60020A120211
:108320000A432A60FE2900D10021084638BDF0B575
:108330009C46069C0023059E2370089B7F241C708E
:10834000FF23337083789B0639D0C3780424DD077C
:1083500000D00A249D0700D5A41D5D0700D5641C2C
:108360001B070ED507197B781B071D0D035D5B19D5
:1083700065462B807B7801251B093370069BA41C66
:108380001D70C378DB0622D5035D9B069B0E0B7028
:10839000015DCD094906CB0F0999ED010B70031959
:1083A00059789B78DE06F60C7118802D0CD0FF25CD
:1083B0008A35694349095B091370E41C0BE007988F
:1083C000032101700020F0BD7B256943F3E7002302
:1083D0000B70137019468278079B9206920ED21C7E
:1083E0001A70C278930601D51234E4B2520602D54F
:1083F000025D089802700846F0BD704704490A689B
:10840000126C02600868FF300130007E7047000087
:10841000D827002010B504460620414388B204F056
:10842000BDFC054909684031898B401880B221465E
:1084300004F0C2FCC01D10BDD827002010B50C46AA
:1084400004F060F9046010BDFFB581B01D46074619
:10845000FEF70CFF002602462E70FF320A9B0932FF
:108460001E7000290DD000213878012403460B43EB
:10847000002B08D0002808D001280AD0112808D0E5
:1084800009E00121F0E73C704EE000294BD02C7050
:1084900049E00029FBD1012801D0112803D100298E
:1084A00010D0112810D0032811D0052813D004288B
:1084B00020D0142821D0042827D014282CD0062816
:1084C0002FD030E0112025E000292DD001E0002937
:1084D00029D02C7028E0002925D003990020FF32F4
:1084E00008702132D07D012802D10126FFF736F92C
:1084F0007C75EEE7002902D109E000290ED0104674
:1085000004F05FFC0A980470C1E700290BD10A98B7
:1085100004701420387007E0002904D10A98047010
:1085200002E0002900D10126304605B0F0BD7047B9
:1085300070B501251446002808D0207904F068FCA5
:10854000FF202071FFF70AF960790FE080260029EB
:108550000FD0FF332133187E002804D0FFF7FEF838
:108560002079304302E0FFF7F9F82079FFF736FC75
:1085700004E003484168314341600025284670BD4E
:10858000C0000020F8B506460A9FFEF76FFE0546BC
:108590003446FF3518340935002901D0521C627366
:1085A000012B01D10698A0730798E07304F036FC04
:1085B0002074FF35013569690B98081820626869D5
:1085C000817840788906890E401A401E20772078ED
:1085D0001721084020700C99002902D1202108435E
:1085E00020700D98002803D02078082108432070BF
:1085F000696920788978890908432070F878C0076C
:1086000006D00898002803D0F06860603069A06048
:10861000F87880070CD50898002809D02078042124
:108620000843207009980068606109984068A0615B
:10863000F8BD7047F7B584B0FEF718FE0446FF3466
:10864000093401274D4E054600291BD02146FF3134
:108650002131C879400731D4487A002805D0401E1E
:108660000006000E487201D061E0487270688021F7
:1086700008437060152040010321281801720C2165
:1086800041721BE02046CC3004F0F0FB00284ED1B4
:10869000FF202830005D400749D5706880210843DD
:1086A000706006980122002804D004980222022853
:1086B00000D103222046049904F0F8FB152022463D
:1086C0004001FF3229182132029194461279087A2A
:1086D000D3075B0E1843E31D0872F93303935B69FC
:1086E00040261B7833405B0018430872022A20D3CF
:1086F00026468036F06E7066306FB0666046C17B8D
:1087000020460122E43004F013FC706E0090B06E3D
:10871000019002980099007AC907490E084302990E
:1087200006220872164800A92818013106E0002721
:1087300020E0134821460622ED312818F9F746FDBE
:108740000399022049690A781207120F072A00D1FB
:10875000042009182B20000106222818F9F736FDFD
:108760000498552180000019C900806A0E226918FA
:10877000F9F72CFD384607B0F0BD0000C00000201E
:10878000AA020000FFB50346FEF770FD0024039423
:10879000019400941C68240A24021C605C68240272
:1087A000240A5C60002902D00321090701E00321AB
:1087B00089070291002A00D100210022D400241848
:1087C000FF340134A56C1E68AE46B446B54205D1EF
:1087D0005D68029EE76C3543AF423DD0E6450BD164
:1087E000E56C5F682E0A3F0ABE4205D12E0E03D10A
:1087F0000D43E56401240194521CD2B2042ADDD356
:10880000019A002A25D10246FF326132147A042CE3
:1088100012D1002409E0E5002D18FF3501352E6D39
:10882000AE646E6D641CE4B2EE64157A6D1EA542F2
:10883000F1D8147A641E14722406640D2418FF34CF
:1088400001341D68A5645B680B43E364117A491C1D
:1088500011720399002907D0112149014018807F26
:10886000002801D001200090009804B0F0BD7047AE
:10887000FFB506469BB0002010901E98502148433B
:10888000FE4905904718F86D4001400F0790B17BF5
:10889000F07B0202307C0304707C00061843104316
:1088A00008431290B17CF07C0202307D000410433A
:1088B00008431890707D11903046163004F05EFB2E
:1088C00002903046183004F059FB0D9030461A30B3
:1088D00004F054FB009030461C3004F04FFB0F9026
:1088E00030461E3016902320815DC806C00E1790BA
:1088F000480903901C9801F09FFA0446254620354C
:108900001E9868771C9BE11D2B740022F931CA6008
:108910000A6120468030E26709900260D848C8802A
:108920001846F9F7CCFB204604F02DFB2046E0303A
:108930000021159081771798687401F071FA0490FE
:10894000CE4905985C31401850220021FEF770F89E
:10895000F86D40210843F865C849059880314018F2
:108960000E9080684109C748490100684030407A4C
:10897000C006C00E01430E988160F96D0720000605
:108980008143079800060143F965F96D0720000748
:108990008143079800070143F96519A804F038FBE3
:1089A000079804280CD0122019990A1A2598012832
:1089B00008D002280ED01D9801281BD088321AE05A
:1089C0009D20F1E707983E3A012801D0121D12E0E0
:1089D0000B3216E00E21079804F026FB121A0798B6
:1089E0003E3A042801D014320BE0AF208000B432AC
:1089F000109008E090320798042804D025980028A9
:108A000003D0022002E0032000E001200299401878
:108A100040020B9080180190304608301D99059057
:108A2000002947D0F96D80208143F9650320287320
:108A300030784006C00F1390B01C06909148006833
:108A40004030818B0791039804F0A8F90799081822
:108A500080B260850B9904F0AFF901990D300A1AC4
:108A6000049943008968E164CB188B4200D9E36420
:108A700060640099A18684494843010A1098081847
:108A800010902264279801680998416727984168E7
:108A900009988167049800880B90401C80B27B493C
:108AA0000B90884203D94942401880B20B900023B2
:108AB00002902AE0F86D80210843F86502202873AF
:108AC0000020039060853178C909139105990691BA
:108AD00011990A020199A08652180799042900D118
:108AE000022189000919096DE1646064C9E718462B
:108AF00001F0A2F9C18E0298814204D164498842F2
:108B000001D00B98C9E75B1CDBB2624800682030DB
:108B1000007D9842EBD804990B9808800B98E0866A
:108B2000584800686030807E80074AD50020139046
:108B3000149013A8844602901D9801282798007865
:108B40000FD0C0B2022801D0032801D10598844675
:108B50003078400615D5F0798009012811D1B01C74
:108B60000EE0C0B2022801D0032801D1B01C844617
:108B70003078C00905D0707B8009012801D10598A3
:108B80000290039B0D9807930F9A009904AB07C3BB
:108B9000279861460378401C9B0701909B0F3D4836
:108BA0000093039100682030007BC00701D00020B3
:108BB00000E01020002180301D9B0B9A04F052FA37
:108BC00019E00D9800990290039B0F9A03A80EC01C
:108BD0001398009006992F48019100682030007B7F
:108BE000C00701D0002000E01020002180301D9B34
:108BF0000B9A04F08BFA26492498C91E884251D05A
:108C00001D9801284ED1234800682030007BC00702
:108C100001D0002000E01020A121084300902498FA
:108C20000223C0B205900B9803900098C00605D5AA
:108C300000980A22BF21084000900AE0114800680D
:108C40006030017C89062DD5C07E80072AD500982A
:108C500008220007000F032824D281000E48006874
:108C600008180069009901F05FFA01001AD000228B
:108C70000A71059B4B71039BCB800FE080000020A5
:108C8000FFF70000D8270020E2040000FF0E0000DC
:108C9000FFFF0000BC270020C82700200A720098B0
:108CA00001F09CFA30788006C60F04F075FA0028AF
:108CB00004D0002E02D02698002802D12598002842
:108CC00000D00120159901230877A1200090159864
:108CD0000B9E007F0390CB4800686030017C8906C2
:108CE00011D5C07E00070ED5C7481522006800992F
:108CF000406901F019FA010005D08E80039A8A714B
:108D0000009801F06BFA03210D9889024843E06551
:108D10000F98000320660020E0870D984002A064B1
:108D200001202085099900208884099908770999EC
:108D30004877A62108550999896808600999496802
:108D4000086068737D2040046066A066204604F0D9
:108D50002BFA1C9801F070F80121FF3001300172EC
:108D6000142200212046FDF763FE1422A0180021E2
:108D700000900790FDF75CFE2179102001432171DE
:108D8000207E102108432076E17B02200143E1731D
:108D9000E9780143E970E87880210843E870E878D1
:108DA00001210843E870E87804210843E870E87876
:108DB00040263043E87020462830A060FEF756FA7F
:108DC000801CE0612460079860614D2028700021BC
:108DD0006970A97809090901A970207300206073DE
:108DE000A07B00090001A073207930432071207E10
:108DF00030432076607E012108436076A8781021F8
:108E00000843A870A07B0843A0731D98002817D0C2
:108E1000A8783043A870E87820210843E870207EC5
:108E2000012108432076207E80210843207677495F
:108E3000119848431099401810901198608622E0CC
:108E40002079012108432071207980210843207175
:108E50000120C046012805D00120400711D5FF2080
:108E600091300FE0674805210068C9018030C06D6E
:108E70000E224018006D41691C985043C01D085CCB
:108E8000EBE7FA2010900720E873217904200143D2
:108E90002171217E014321766179014361716179FC
:108EA000022001436171617E014361760998109946
:108EB000C16657490869574A1040109A12031209AF
:108EC000104308610120C04601280E9849D040682F
:108ED0001F210002000A090641180E9841600E98F1
:108EE0008068169980B24A780B78110219430904F8
:108EF00008430E9988601698801CF9F7A9F90E9915
:108F00008002C968800A890D890508430E99C860E6
:108F1000F86D80098001F8650E9800680E99129826
:108F2000086015983F26007F360200281ED016994B
:108F30001C9804F04DF912981299000C484082B226
:108F400000211C9804F070F90E9989680E9AB143BB
:108F50009160F96D800689098901800E0143F965E8
:108F600010E04168FF2000060143B6E7F86D800974
:108F70008001F8650E9880681799B043090208438C
:108F80000E9988600E984068010E189809060143F2
:108F90000E984160386E3C66786E00987866E16C99
:108FA000A06C814200D9E064287C04F0B7F9E16C40
:108FB000091AE1641D98002821D00222A87BEB7BCE
:108FC000099D29671D99002904D01099099DFF3139
:108FD0005F3129671349124D04910F4F0F4E05A9B8
:108FE000E0C1256CA16C0290009109980195039352
:108FF000036F21461E9804F0B5F91FB0F0BD05229D
:10900000DCE70000D8270020C8270020E204000089
:10901000C0000020FF0000F059190610DDFD05100A
:10902000B5F60510B93B051070B5114D04464368FF
:109030000268286815268030C06D76018119FF30DE
:10904000FF3002300978806C00F036FBFF2801D039
:10905000012070BD286822468030C06D8119FF3024
:10906000FF3002300978806C00F084F9002070BD78
:10907000D8270020F8B50646FEF7F8F80446FF3476
:10908000093427460025FF3721370AE0A800205879
:109090004079FF2803D0B04201D0FFF779F86D1C6A
:1090A000EDB2B87EA842F1D8F8BD70B50546FF35DF
:1090B0002135EA79C41D9109F934002901D0002134
:1090C00008E0A08B01214004000C0B02A083984211
:1090D00000D9A3839006800E89010843E871A08B14
:1090E000012809D003F0D0FDA18BC0B2491EF8F7CA
:1090F0008CFD491C697270BD0120687270BDFFB59E
:109100000446C71D83B00546F93778680190386872
:1091100064340C99009060607868A060A3731E4668
:10912000E17303F07BFE2074786902228078800965
:1091300020707969C9781140490008432070786926
:10914000417880788006800E081A401E2077786962
:1091500081788906890E091D401820620E98002822
:1091600005D00D98006860610D98406801E000200E
:109170006061A0610498002805D001983106084379
:10918000000100090190012200216846FFF7FAFA68
:10919000002814D1FF352135A87BFF280FD1059871
:1091A000002806D02078C00603D46068FF21084359
:1091B00060602378217F00222046F8F778FE07B010
:1091C000F0BD7047FFB581B00746129803211B30F0
:1091D0000843401C8308F80603D50822BF20074037
:1091E0000CE0254800686030017C890602D5807E4D
:1091F000C00602D4002005B0F0BD06223807000FDB
:10920000032836D21D498000096840180069394694
:1092100000F08AFF04002CD00298A0800398A0716F
:109220002646251D20360622E01D0499FDF7FAFB8F
:109230000A9868720B98A8720C98E8720D982873B7
:109240000E9868730F98E8811098287428460622B3
:1092500011301199FDF7E6FB1298E875AE613046C2
:10926000129A1399FDF7DEFB2146384600F0B6FF4F
:10927000C0E70720BFE70000D8270020C82700204C
:1092800010B51921890304F087F8104C27232268B0
:109290001B018032D26D9850FF32FF32023251678B
:1092A000FEF747FB216805238031CA6DDB01FF32E1
:1092B000FF3202329067C96D0022CB1810461A6047
:1092C0000522D20189184860002010BDD82700204F
:1092D00010B504F07BF810BD10B503F0D5FC0446C2
:1092E00003F0D2FC0004201810BD0346C806C00ECF
:1092F0000121814010B4002000290BD9C200D218EE
:109300005468641C02D11268521C04D0401CC0B2C4
:109310008842F3D3C8B210BC70477FB50668456871
:1093200081683543C46829430C43002188B0002C70
:1093300006D0002B07D0099904F064F80CB070BD7A
:1093400001200CB070BD009101910291039169461A
:109350000A70130A4B70120C8A7004AA04F076F893
:1093600009A90131032204A8FEF7B0FC0028E7D1C7
:109370000CB070BDF7B50546C80682B0C00E01241A
:1093800084400F466B462846049A04F09EF8012854
:109390007BD0284639462646FFF7A7FFB04202D1C8
:1093A000FF2005B0F0BD69460E78601EB04231D98D
:1093B000E0004119084608380B460A1FA61B012782
:1093C000091DF607FF078446FE4207D008386346AA
:1093D0000668083A1E60083916680E606E463678D0
:1093E000A41B641E641015D006461F46803EB66F4F
:1093F000803FBE6716460F46803E803FB66F1038EE
:10940000BE67103B0668103A1E60103916680E6081
:10941000641EE9D10498334A01686846007815242F
:10942000C000295004986401416868460078C00073
:109430004019416010688030C16DC81DFF30FA309E
:10944000436DAB4202D0836DAB421FD16846091910
:109450000578C978002000293FD911688031C96D8D
:10946000FF31FF310231CB6D2821414359182031A2
:109470008B79AB4201D35B1C8B711168401C80312E
:10948000C96D0919C9788142E7D826E0C36CAB429F
:1094900002D0006DA84220D1684609190578C97824
:1094A0000020002919D911688031C96DFF31FF31C1
:1094B0000231CB6D2821414359182031CB79AB4281
:1094C00003D3FF2B01D05B1CCB711168401C803192
:1094D000C96D0919C9788142E5D86846007805B098
:1094E000F0BD0000D8270020CB06DB0E01219940FB
:1094F000F0B4491E0A408C46914224D9624522D2DA
:10950000D10009180C460D460B1D083C091F664684
:10951000B71AFE0707D0AE68A6609E688E60083155
:109520000833083408357E100DD0AF68A7609F68F7
:109530008F602F6927611F690F611031103310345C
:109540001035761EF1D100236146DB43C90043503C
:1095500009184B602A490B688033DC6D1523E51D23
:10956000FF35FA356E6D5B01864202D0AE6D8642E4
:109570001ED1E418E4780020002C17D90C68803440
:10958000E46DFF34FF340234E56D282444432C1984
:109590002034A579954201D96D1EA5710C68401C37
:1095A0008034E46DE418E4788442E7D8F0BC704776
:1095B000EE6C864202D02D6D8542F7D1E418E47836
:1095C0000020002CF2D90C688034E46DFF34FF34A5
:1095D0000234E56D282444432C192034E579954262
:1095E00003D9FF2D01D06D1EE5710C68401C80343D
:1095F000E46DE418E4788442E5D8F0BC70470000DC
:10960000D8270020F8B52B4D152728687F0180301A
:10961000C06DC119FF30FF3002308978406EFFF70E
:1096200064FE00210446002810D928688030C66DE9
:109630009920800080594A06520ED3001B1DC35842
:109640001B0E28D0491CC9B2A142F4D3002C21D052
:1096500000212A6848068032D26DFF32FF32023282
:10966000566E820D121DB358180E07060DD41B023C
:109670001B0AB3502E688036F66DFF36FF36023671
:10968000401E766E00060343B350491C641E240638
:10969000240EDED1F8BDF1198978FFF725FF28687F
:1096A0008030C16D0520C0010918087C401E087477
:1096B000CCE70000D8270020F0B40546C906C90E43
:1096C00001208840C1B21E02002049084318DCB2C4
:1096D000E3005B191F685B681B029E4203D89E4231
:1096E00006D1BA4204D32046BA4201D19E4202D0EA
:1096F0000029EAD1FF20F0BC7047F0B50E46910278
:109700008646890A01208FB0800500229C460AAC5B
:10971000014310251346089401E0032A04D2D00027
:109720000F46C740277000E02370521C641C6D1E5A
:109730002D062D0EF1D16046002821D070460490F0
:109740000AA8059068460690037704A803F0F2FE85
:10975000089801783171417871718078B0716846EC
:109760000078707068464078B07068468078F07015
:1097700030680121000A0002084330600FB0F0BDDC
:109780006A467046089903F061FEE1E70A680260E4
:109790008B8883808A79827170477047F8B5144648
:1097A0000E46054603F0F4FE0746FDF72FFA104972
:1097B000012C02D0042C03D017E00868303005E0FB
:1097C000002F12D0002810D00868806B0B68297811
:1097D0002833197069785970997806222143997055
:1097E0003146FDF71FF90020F8BD8220F8BD0000CA
:1097F000C4270020F8B50C46064603F0C9FE07460C
:1098000003F0CBFE0546FDF701FA1049012C04D008
:10981000022C05D0042C0AD015E008683C300CE07E
:10982000002D10D000280ED00868C06C05E0002F75
:1098300009D0002807D00868006D0E223146FDF7D8
:10984000F1F80020F8BD8220F8BD0000C4270020F8
:10985000FFB5314881B005680E460024283503F075
:109860009CFE47007F1C03F093FE800007433046B8
:10987000B84300D08224A9783046884300D0D12450
:109880000198402804D03320405D05E0852405E0A0
:109890003320405DE72108400028F7D12F462037CC
:1098A000B87C410704D40199DF22114200D08524FD
:1098B000000704D40198800601D5852429E0002CF6
:1098C00027D1787D800703D5FDF77CFB040021D1EB
:1098D00001982321084204D03146019803F062FE2A
:1098E00016E0F00703D03878002800D1D2247007A2
:1098F00003D5A86A007B002802D0002C02D008E023
:10990000D22406E03146049B039A019803F080FEBE
:109910000446204605B0F0BDC4270020FEB50C4625
:1099200005461E4617460821042002F025FC0028A3
:1099300004D1012D03D0002D09D01220FEBD002C32
:1099400005D0012C03D0022CF7D1002EF5D06846AB
:10995000447047800671002141710570F8F791FA53
:10996000FEBD0A4610B58921002A27D01178CB0701
:1099700001D000211CE08B0701D5012118E04B0725
:1099800001D5022114E00B0701D5032110E0CB061D
:1099900001D504210CE08B0601D5052108E04B061A
:1099A00001D5062104E0C90901D0072100E0FF210B
:1099B00011700146022003F07DFE0146084610BDED
:1099C000F7B582B000200090124800240068C76AF2
:1099D000E000001BC6B2B819054606220299FDF741
:1099E00031F80006000E0ED1A979039881420AD100
:1099F000012000900498002809D0B81907220021FE
:109A0000FDF716F803E0641CE4B2042CE0D30098E0
:109A100005B0F0BDC427002010B58AB06C46608048
:109A200009202071218162811422194603A8FCF7C4
:109A3000F9FF684602F056F80AB010BDFFB581B0D4
:109A40001E460F4602F01CF900280DD005462035B1
:109A5000287B03280AD0287C012102F031F9002854
:109A600006D03A2005B0F0BD0220FBE78220F9E7DE
:109A7000287C012102F02FF90146044608223031EA
:109A80003846FEF7D5FB1022A1183046FEF7D0FB72
:109A9000214602222E310398FEF7CAFB287C0121C1
:109AA00002F022F9287C002103F040FE01280CD0AE
:109AB000062020342072002020730122287C0023FD
:109AC000114602F019F90020CCE701202034207261
:109AD000F2E7F0B50E460746002407E03D1903F013
:109AE000D3F82870000A6870A41CE4B2B442F5D31D
:109AF000F0BD30B50446008989B00105090D20226A
:109B0000002003F01FFE050009D0E07A000709D508
:109B100005A80290019401A8F8F796FA08E08820B9
:109B200009B030BD214605AA5431204603F02AFE73
:109B30001120E880A8680321017305AB10220521DC
:109B4000284603F0C5FE2146284603F0CBFE002838
:109B5000E6D1A521A172E3E7C17A0A07817F03D488
:109B6000CA0701D0D12102E08A0702D5D321817230
:109B70007047490701D5D521F9E77421095CC90768
:109B800004D0417F490701D0D021F0E7F021EEE772
:109B9000F0B50B4693B00C46643300251022052126
:109BA000099303F0BBFEE07A00070BD504A80F90E1
:109BB0000E940EA8F8F74CFA0546EB2807D10020C2
:109BC00013B0F0BD04AA2046099903F0DBFD21463D
:109BD0002A3110220F4604A8FCF734FF002806D0D3
:109BE00000231A460421204600F070FB3DE0204E81
:109BF000217F30682030C07E814200D92077E07A12
:109C0000000703D52046F8F727FA2FE0102200219D
:109C10006846FCF70DFFE07F022802D0032806D03B
:109C20000BE03068C16B684603F081FE05E03168E7
:109C3000102268464831FCF7F5FE22460AAB543242
:109C40006846099903F07BFE102200213846FCF794
:109C5000EFFE227F0AA93846FCF7E4FEA07B022132
:109C60000843A0732046F8F79BF905462846A7E766
:109C7000E027002070B506460C460025088903F051
:109C800071FE024600211A4B084603F08DFE194969
:109C9000B06809684222525C407B022A03D1020765
:109CA00001D4032018E0A27AF12A06D122895204B5
:109CB000920F02D1420700D50125C006C00EA03187
:109CC0000876208900220005000D294603F08AFE4F
:109CD000002808D0882805D001460123002220460C
:109CE00000F0F4FA70BDA17B80221143A17370BD16
:109CF00030750000E02700207CB50C460646A42500
:109D000003F01CFF00281BD1E07A000707D5684646
:109D100000960194F8F78CF9002811D1A225A07EB5
:109D2000FB2140084000A076E07E0840E076214616
:109D3000304603F01FFF204603F060FF002808D0E4
:109D4000882805D0014601230022204600F0BEFAF3
:109D50007CBDE17F022903D1E17EC90600D4A225A2
:109D6000A5727CBD70B5064608890D460105090D32
:109D70002022002003F0E6FC04001DD0002E06D0B7
:109D80002B462A3310220521304603F0C7FD11204F
:109D9000E080A068042101732B4654331022052172
:109DA000204603F095FD2946204603F09BFD002840
:109DB00001D1A621A97270BD882070BD13B501F034
:109DC0005FFF040006D0FF200730005D800603D44B
:109DD0001A201CBD02201CBD012101A803F04AFF6E
:109DE000010011D16846828820468030038D9A4256
:109DF00004D16A46D288C08D824205D02034207CAE
:109E0000019903F05DFF1CBD08461CBD70B50D46F1
:109E1000044600F005F84069A100455070BD704748
:109E2000044805210068C9018030C06D4018006DEC
:109E300000687047D8270020064905220968D2012A
:109E40008031C96D8918096DFF2249681932504364
:109E500008187047D827002010B504460120C046D6
:109E6000012801D0002010BD064805210068C90165
:109E70008030C06D4018006D0E2140694C430019C0
:109E800010BD0000D8270020FFB581B01D46164642
:109E9000084600F0F5FC019980350F6818492C8EB2
:109EA0004F43A98D8A013D21090151188C4200D3ED
:109EB0000C46FF342D34012809D0A92000012018B8
:109EC000874204D20E49F7F7A0FE01990860A74225
:109ED00001D9391B00E00021AA8E688F824200D28E
:109EE0001046884200D30846A921090180B2884261
:109EF00000D20846B084688DF08405B0F0BD000043
:109F0000E204000070B51C4615460E46FFF7A4FF9C
:109F1000002802D00088022815D00121A88CFF3823
:109F20007938C8400949400340188034218D000C1D
:109F3000814200D20846002E03D0E98C814200D233
:109F40000846608570BD0321E8E7000000A0F6FF29
:109F5000F8B51D460446032316460F46C00603D532
:109F60001722BF2004400BE0134800686030017CDA
:109F7000890602D5407E400601D40020F8BD142297
:109F80002007000F032814D20C49800009684018EC
:109F90000069214600F0C8F801000AD08F80CE8009
:109FA0000D81069A4A81079A8A81204600F016F9A7
:109FB000E3E70720F8BD0000D8270020C8270020CD
:109FC000034900280A7801D0002008701046704725
:109FD0000628002010B50B00521E815C9C5C091BFA
:109FE00001D1002AF8D1080010BD016880220A437F
:109FF000026001688022914301600020704733486D
:10A000000078002801D001207047314800680028FE
:10A0100000D00120C0B2704770B50E002B4D2C78D7
:10A0200001281AD1202200BF35A13000FFF7D2FF4E
:10A03000002801D404201BE0FB2020402870254884
:10A04000002100229300F458C3181C60521C082AF7
:10A05000F8DB20300160002070BD00BF20A1022885
:10A060000FD120223000FFF7B5FF002804D40120D3
:10A0700020432870012070BDFE2020402870164823
:10A08000DEE70328F6D120223000FFF7A3FF0028E7
:10A0900001D40220ECE7FD20204028700F48CFE7D4
:10A0A000012808D10B480022835C8B54521C202AC3
:10A0B000FADB00207047022801D10748F3E70328A4
:10A0C00001D10648EFE7012070470000922A0020E6
:10A0D000000430486C04304890043048B4043048E0
:10A0E000FFFFFFFFFFFFFFFFFFFFFFFF000000007C
:10A0F000000000000000000001000000FFFFFFFF63
:10A10000512563FCC2CAB9F3849E17A7ADFAE6BC19
:10A11000FFFFFFFFFFFFFFFF00000000FFFFFFFF4B
:10A1200010B5FFF7BDFF10BDFEB5044600269C46E6
:10A1300017460D46080616D572B601AB6A4661464B
:10A14000204603F017FE00280BD06846818800984F
:10A15000827892089200827001806180012662B646
:10A1600015E062B620E001AB6A466146204603F086
:10A1700001FE002818D0680609D468468188009836
:10A180008278920892008270018061800126009896
:10A19000AA00817840238907890F1A4011438170F2
:10A1A000C770002E0CD113E00020009072B6A806F4
:10A1B0000DD408480822006801681143016062B6A6
:10A1C00072B60548F722006881781140817062B646
:10A1D0000098FEBDC8270020C02700200A46400680
:10A1E00008D5D07846280AD2111D054B80001B588F
:10A1F00010461847907880088000801C887070474F
:10A2000064CC051010B50548202200680249A8302A
:10A21000FCF708FC10BD0000B4020610D82700208F
:10A2200070B50E4A044613680D4A002012680146B4
:10A230002032157D80330DE07C229E6A4A43B2189D
:10A24000D67AF60704D01289A24201D0012070BD4F
:10A25000491CC9B28D42EFD870BD0000E027002034
:10A26000BC27002010B50C4800240068603001793C
:10A270008A070ED402221143017172B607480068A2
:10A2800081784906490E817062B603F0A9FD012864
:10A2900000D13A24204610BDD8270020C027002036
:10A2A0000448016840318879020602D440221043F4
:10A2B00088717047E02700200348006840308079AB
:10A2C0000007C00F70470000E0270020F8B51D46CA
:10A2D00014460E460B4607460522214603F0B6FDFE
:10A2E0000446882801D1012D03D13146384603F0B8
:10A2F000C7FD2046F8BD010016000C02020802044A
:10A300000203011702010D01010101010103150200
:10A310000303090203090301010201010305060306
:10A320001402030309011618031618031403030883
:10A3300001030801030609030609030703030703D2
:10A34000010705021603010070B588B00446002518
:10A3500003F0C8FD1E4E012823D105AB01220021C8
:10A36000204603F0DDFD06AB02220021204603F06B
:10A37000D7FD01A8009031680023BC31059A08463A
:10A3800000F065F8102201A90698FCF75BFB002895
:10A3900007D00421012300222046FFF797FF05463E
:10A3A00010E0207EC10707D0800705D43068102256
:10A3B00000214830FCF73CFB7420005DC00704D04E
:10A3C000B620A072284608B070BDA920F9E70000A9
:10A3D000E027002070B5064608890C4601058AB0C2
:10A3E000090D2022002003F0ADF9050012D0002E47
:10A3F00006D023462A3310220521304603F08EFA78
:10A40000E07A000709D505A80290019401A8F7F7A2
:10A4100027FE08E088200AB070BD214605AA6431F5
:10A42000204603F0A1FD1120E880A86803210173F4
:10A4300005AB10220521284603F04AFA214628469A
:10A4400003F050FA0028E6D1B621A172E3E7F0B597
:10A4500099B00E461C461746014601232022684645
:10A460001E9D03F02DFE01232022314608A803F093
:10A4700027FE10A8047001231022394611A803F00A
:10A480001FFE15AB11AA4121684603F04AFE0123C5
:10A49000102215A9284603F013FE19B0F0BDF0B53F
:10A4A0009DB00D461E4617460146012320226846F0
:10A4B000229C03F005FE01232022294608A803F070
:10A4C000FFFD01231022314610A803F0F9FD0123FE
:10A4D0001022394614A803F0F3FD18AB14AA50213A
:10A4E000684603F01EFE012304221BA9204603F048
:10A4F000E7FD1DB0F0BD0178427813028278C07884
:10A5000012040006104318430843704770B5044610
:10A51000022315460E46C00603D52722BF2004405D
:10A5200008E00F48006880308078800601D4002061
:10A5300070BD24222007000F03280FD20949800094
:10A540000968401800692146FFF7EEFD010005D0BB
:10A550008E8020468D60FFF741FEE8E7072070BD42
:10A56000D8270020C827002030B401240023002968
:10A5700008D9D55C854201D0002403E05B1CDBB226
:10A580008B42F6D3204630BC7047000070B50646BB
:10A59000008981250105090D2022002003F0D2F851
:10A5A000040025D000214522A06803F0D7FD050056
:10A5B0001ED14120E080A0680C2101730D4840228B
:10A5C000036805212046683303F082F931462046AE
:10A5D00003F088F905000BD1F07A20210843F072CE
:10A5E000FFF76AFE002803D0F07A04210843F072D6
:10A5F000284670BDE0270020F0B5284D4622296886
:10A600000446525C00209206920F93B0032A3AD17E
:10A61000202207A8FC31FCF705FA2868CF22403039
:10A6200081792646114081716036307D11AFC007B7
:10A630002BD00FA805AB3A4606A90090204603F0A0
:10A64000C1FD6A462968127E2046FC312A300391FA
:10A6500004900FA86B4685C36A46137D22462146A7
:10A660006432543107A803F0C5FD2A680121FF3286
:10A6700020460D3203F02EFE002804D1317DC9079B
:10A6800008D0BB21A17213B0F0BD06AB0FAA05A97B
:10A690000097D3E7204603F0B7FEF4E7E027002059
:10A6A00030B589B00C466B461022052103F036F90F
:10A6B00004AA0021204603F00DFE0546102204A93D
:10A6C0006846FCF7BFF9002801D1002D06D0012310
:10A6D00000220B212046FFF7F9FD17E07420005DF2
:10A6E000C00703D0204603F08FFE10E0207F10212A
:10A6F0000A1A21462A3140180021FCF799F9A07B5B
:10A7000002210843A0732046F7F74AFC0546284675
:10A7100009B030BD70B5284D0E462B684621C95C86
:10A72000090601D53A2445E040220521BC3303F057
:10A73000F5F828684621095C9022114202D1890669
:10A74000890F01D0382435E0BC3003F08BFE0400C3
:10A7500004D0122C23D01F2C25D02BE028681022E7
:10A7600003464030817911438171F07AC02108435A
:10A77000F072184611492022BC30FCF763F900281A
:10A7800018D10E49286820312022DC30FCF75AF914
:10A7900000280FD1F07A04210843F0720AE0012367
:10A7A00000220B2102E00123002208213046FFF79E
:10A7B0008DFD0024204670BDE027002074020610A5
:10A7C00070B514460D4603F08BFE182801D3022005
:10A7D00070BDFFF741FB8379590700D503232B7028
:10A7E000C079410700D503202070002070BD73B5EB
:10A7F00082B06846008901F043FA002809D0FF21A1
:10A800000731095ACA0506D4090504D41A2004B030
:10A8100070BD0220FBE704462034207C012101F0BA
:10A820004FFA002801D03A20F1E76846027B417BCD
:10A83000D30703D107290CD800290AD0807B9307BE
:10A8400003D4072805D8002803D06B465B89022B68
:10A8500001D91120DBE700266D4692076E71920F39
:10A8600049072A71490FA9704007400FE87058073F
:10A87000400F2880207C694603F050FE0020C6E788
:10A8800000B5FFF7D9FA2030007B032801D0002063
:10A8900000BD012000BD0000FFB583B00020694667
:10A8A0000C9F08811E46039801F0CCF8050009D0E2
:10A8B0002879002803D0A8784007800F04D085208D
:10A8C00007B0F0BD8020FBE702A800903A46314671
:10A8D0000D9B0E9803F0C2FE0028F1D120220399AF
:10A8E00002F030FF040006D001AA0599039800F099
:10A8F000BBFE002801D08820E2E7A0681421017384
:10A90000A06829794173A0680A218173A068002199
:10A91000C173A068049901740499A068090A41747C
:10A9200048492C230A68694609799446526B594371
:10A93000A0680A31525C82746246526BA068515A18
:10A94000090AC174A068310A0675A0684175A0683B
:10A95000390A8775A068C1756946A06809890176BA
:10A96000A068090A41760E20E0802146052003F008
:10A9700091FE002809D06846007900F007FF002109
:10A98000204600F0B9FD81209AE7A8780621084307
:10A99000A8701420A8712879E8712A482C2401682D
:10A9A00010224B6B694609796143C91C5A540168EE
:10A9B00001224B6B694609796143891C5A5401682D
:10A9C000049A4B6B69460979614308315A52016810
:10A9D0004A6B6946097961430C31565201684A6BEA
:10A9E000694609796143091D575269460A89016818
:10A9F0004B6B6946097961431A315A5201680F9AC3
:10AA00004B6B6946097961431C315A5001680E9AB3
:10AA10004B6B69460979614320315A520E9A01689D
:10AA20004B6B69460979614326315A520068694681
:10AA3000436B08792C2148430D9A18301A54002092
:10AA40003EE70000D0270020FFB583B00020694614
:10AA50000C9E88801446039800F0F4FF070008D08D
:10AA6000B878810729D4400727D5B879142824D18C
:10AA700002E0802007B0F0BD79790498814201D0CE
:10AA80008220F7E701A8009032460D9B06990F98A7
:10AA900003F0E4FD0028EDD12022039902F052FEDC
:10AAA00005000CD010220221039800F04BFE00900C
:10AAB000484881780098814203D88520DAE78820C9
:10AAC000D8E74549224608682C24436B0098444344
:10AAD00020460A301A52AA6815231373AA68049BE9
:10AAE0005373AA680A239373AA680023D37309686F
:10AAF000AA684B6B1B5C1374496BAA68085A000A5E
:10AB00005074A868069981740699A868090AC174E6
:10AB1000A868310A0675A86841756946A8688988D9
:10AB20008175A868090AC175A8680E9901760E9901
:10AB3000A868090A41760E20E8802946052003F01E
:10AB4000A9FD002805D00021284600F0D5FC812071
:10AB500090E7384603F0C4FD0E98002804D0009812
:10AB600000F014FE002085E71B48112201684B6BA2
:10AB7000E11C5A5402680699536B22460C329952D2
:10AB800001684A6B211D515A8E4200D2314623463C
:10AB90001233D15269468A8801684B6B21461A31BB
:10ABA0005A5202681099536B22461C32995002681F
:10ABB0000F99536B22462032995202680F99536BBA
:10ABC00022462632995200680D99406B183401557F
:10ABD000C8E70000282A0020D0270020F3B581B064
:10ABE000019800F02FFF05460199029800F04CFEF5
:10ABF000002D07D02979002916D0A9784907890F97
:10AC000012D101E08020FEBD35498978814201D80A
:10AC10008220FEBD33492C2209680646496B564303
:10AC2000F71CC85D112801D08520FEBD2022002020
:10AC3000019902F087FD04002CD0A0680621017361
:10AC4000A06829794173A06804218173A06800215C
:10AC5000C1732449A06809680E364A6B925D02747C
:10AC6000496BA068895B090A4174A06802998174E4
:10AC70000299A068090AC1740820E08021460520D5
:10AC800003F008FD002807D00021204600F034FC26
:10AC90008120FEBD8820FEBDA97806200143A97051
:10ACA000A87128790F4CE8712168D020496B0022E7
:10ACB000C8551020029B019900F008FE2068002270
:10ACC000406B0199835B202000F000FE206800218A
:10ACD000406B825B019800F02BFE0020FEBD00005F
:10ACE000282A0020D0270020FFB581B016460D4647
:10ACF000019800F0A7FE04462846019900F0C4FD23
:10AD0000002C10D02649897881420FD9002E0DD011
:10AD1000244A2C241168054665434B6BE81C185CDB
:10AD2000112812D104E0802005B0F0BD8220FBE79D
:10AD300028461030185AB04207D3CC6D002C04D0EE
:10AD40002F461437D85D022801D38520ECE7E06850
:10AD5000C865002802D108465C3008661022002130
:10AD60002046FBF765FE26800498606001982081EC
:10AD70000C480E3501684A6B525B62810022E2602A
:10AD8000896E0C6000680C340146203184664A7C70
:10AD9000521C4A74406BC15D491CC1550020C3E779
:10ADA000282A0020D0270020FFB583B00E46044695
:10ADB000002069460880204600F044FE05462146F2
:10ADC000304600F061FD0446002D18D04E488078D2
:10ADD000A04216D9304600F04DFE002811D04B4954
:10ADE0002C22086854432746406B2437C65BBA1EA2
:10ADF0000192825A964206D1852007B0F0BD80208C
:10AE0000FBE78220F9E725462035415B891B89B2A3
:10AE1000012916D0291F4058022281196846FBF7E4
:10AE200001FE3A480068406B0290415BB01CF6F7A7
:10AE3000ECFE88B26A461288059991420BD28820AE
:10AE4000DBE721461C314058815D0078090201434F
:10AE500068460180E5E7029A2C49D05309684A6B9D
:10AE6000515B091A8EB269460B889E4206D921466B
:10AE70001C3151581A460918069813E021461C3116
:10AE800002915158324609180698FBF7CBFD1F482E
:10AE900002990068406B415868460088801B82B266
:10AEA00006988019FBF7BEFD18486A4600681288AC
:10AEB000466BF05B715B8018F6F7A7FE1348F15301
:10AEC00000686A46406B26341188035B891C591858
:10AED0008AB202530D4801990068406B415AC35B26
:10AEE000994201D3C91A02E0591A435B591A405BCF
:10AEF000401A80B2824201D086207EE768460188EF
:10AF00000C980180002078E7282A0020D027002014
:10AF100000230360436041810281C38183817047C4
:10AF2000F0B500208FB00546564E574F0B90A1E06C
:10AF300030682C46416B2C204443A01D0990085CCE
:10AF4000E21C06928A5C002A76D000281BD1112AC6
:10AF500072D120461830085C01286DD1284603F0D4
:10AF6000C9FB31684A6B21461A31515A814201D2DC
:10AF7000411A00E0002189B2022901D2022877D8C3
:10AF80001620231DD1523168231D4A6BE11D515CEF
:10AF900007938C46D15A135B029323460A33D35A44
:10AFA000049323460E33D35A012834D0062804D004
:10AFB000072807D016284FD13FE004990298FFF7E1
:10AFC0000DFE48E00698105CD02845D16146049AF1
:10AFD000029803F0A1FB0B90002849D1029806903B
:10AFE0000498059029484224006801238030007AA3
:10AFF000800734D526482B22006821468069FFF758
:10B0000093F801002BD0069A8A80059ACA802046C0
:10B01000FFF7E4F823E002291ED168460499017085
:10B02000090A41708370190AC1706B460222614699
:10B03000029800F0C3FA0EE01AE00698105C11289E
:10B040000AD10CA8009018340798135D125A04997D
:10B05000029803F0CDFB0B900B98002808D13168C3
:10B0600000204A6B0999505431684A6B0799505235
:10B070006D1CEDB2B878A84200D959E70B980FB013
:10B08000F0BD0000D0270020282A0020D82700206B
:10B09000C8270020F0B5664885B00068446EC2E05D
:10B0A000208902906089029900F076FC61498978D4
:10B0B00081426FD95E492C230A685843526B019034
:10B0C000C01C105C112865D122886088121A97B2C2
:10B0D000002801D1BF1CBFB2002F5BD001981630F1
:10B0E0000090534A1068416B0098085A0028F4D029
:10B0F000019812300D5ABD4200D93D46281D82B23A
:10B100000020029902F01EFB06007DD0B068A17AF3
:10B1100081726189B068090AC172608800210028C3
:10B1200007D1B068217801732188B068090A41739A
:10B130000221681A80B2039062886068091D831832
:10B140003046039A02F0C4FBF5803146384E306831
:10B15000483000F0B1FC3068009A416B0098085A02
:10B16000401E88526188039808186080781B070485
:10B170003F0CB6D1258800232380638030460268C7
:10B18000506EA04208D1C068506600280DD110460C
:10B19000643009E046E00846C168A142FBD1C968B5
:10B1A000C160002901D10C309066E360106E204B25
:10B1B0000460204619680C30086608462030427C3E
:10B1C0004227521E427401984A6B1430115C491E8A
:10B1D000115418680199406B0A31029E415A02913C
:10B1E0006168019100990423405A00901248006858
:10B1F0008030007AC00615D510482D2200683946E7
:10B200008069FEF791FF00E010E001000AD08E8017
:10B21000029ACA800D81019ACA60009A0A82384651
:10B22000FEF7DCFFE468002C00D039E705B0F0BD84
:10B23000D0270020282A0020D8270020C827002057
:10B2400010B5044600680860206802682260002289
:10B2500002602068002800D16260086803F060FB8B
:10B26000E189081AE081A089401EA08110BD00007C
:10B2700070B5C6880446351D00218068AAB202F068
:10B280006DFFA068310A0672A0684172E580022055
:10B290002073204603F049FB002808D0E0882146AF
:10B2A000001FE08002480068483000F005FC70BDD7
:10B2B000D0270020F1B588B008988088039000F06E
:10B2C000C1FB044608988068817AC07A0002081899
:10B2D00080B2039900F0D8FA002C27D082498978EF
:10B2E000814223D908992C22CE88042100917F49DC
:10B2F000044609685443496B25461935485D0028C2
:10B300005DD10898E31C8068027B407B0002101826
:10B3100080B26A461082CB5C112B65D123460C3378
:10B32000CB5A834203D20620A41D08555CE00623B5
:10B330002246263200930592B61E8B5A821CB6B264
:10B34000934202D2882009B0F0BD2346674A2833D1
:10B35000C852116800204B6B21462A3158521068A0
:10B360000839406B0291475A891E0691415AC91B00
:10B3700089B201293AD021461C3140580222C01915
:10B3800004A9FBF74FFB59480068406B01900699F0
:10B39000415AB81CF6F739FC029A01988152534879
:10B3A0006A460068128A416B0598085A801A059A05
:10B3B000801E88524D4801210068406B41554B4B1F
:10B3C000214618682831406B415A049121462A31A0
:10B3D00047180E39415806913A880499891AB142A2
:10B3E00013DA0621A41D01558620ACE76B46198AA5
:10B3F0003E4A0B0A21461C314058C35512686B4621
:10B40000526B188A51580870BDE7415D012901D07F
:10B41000022932D1214620310591425A891C0291DC
:10B42000405A111A89B20191B142069903D94318C1
:10B43000324600990DE04318019A0099089802F0ED
:10B440006DFA01980199301A82B20098069B401853
:10B4500081B2089802F062FA2448029A0068406BB0
:10B4600000900599415A805A8019F6F7CEFB029A4E
:10B470000098815238888019388039880498814230
:10B4800027D11A48002102680223526B51554221EC
:10B49000009100682146406B0A311A34465A075B16
:10B4A0001348039D0068049C8030007A800618D5FC
:10B4B00010482E22006800998069FEF735FE0100D1
:10B4C0000FD08D80CE800F814C810098FEF786FED4
:10B4D00007E006480068406B415D012901D1022167
:10B4E000415500202FE70000282A0020D027002007
:10B4F000D8270020C8270020F8B50E460A4908388A
:10B50000096807460C6803F020FA05463946E068EA
:10B5100003F025FA72B6B100605A401B60522089D0
:10B520004019208162B6F8BDDC27002000680028A1
:10B5300001D0002070470120704710B50446006814
:10B5400008602068002800D161600846216003F08F
:10B55000E7F9E1894018E081A089401CA08110BD75
:10B56000F0B584466146896800208A7CC97C09025E
:10B570005118104A89B215680F4A8E4601469478D0
:10B5800014E02C260A4672436B6BD61C9E5D002E7F
:10B590000AD067469E5ABF88BE4205D10E329B5ADA
:10B5A000734501D10A20F0BD491CC9B28C42E8D8CC
:10B5B000F0BD0000D0270020282A0020FFB581B070
:10B5C00016460D46044600F03DFA070007D078798C
:10B5D000A84201D1032E04D3822005B0F0BD802003
:10B5E000FBE7B878800701D58520F6E720222146C1
:10B5F000002002F0A7F804000CD0A068012101731C
:10B60000A06800224573002E09D0012E04D0022E1E
:10B6100004D004E08820E0E7022200E00422A068D1
:10B62000911C8173A068090AC173A068310A06746D
:10B63000A068951D4174002E04D00A212046049B69
:10B6400002F046F9E5802146052003F023F80028A2
:10B6500005D000212046FFF74FFF8120BDE7384687
:10B6600003F03EF80020B8E7F7B51D4E0F463068EE
:10B670003021095C00290FD01A4900248A7809E09A
:10B6800021462C256943436BC91C595C002905D010
:10B69000641CE4B2A242F3D88820FEBD2C212546CA
:10B6A0004D430A4658190021FBF7C2F930680121C1
:10B6B000426BE81C115431680098496B002F4853C5
:10B6C00001D17F20071B30680A35406B4753306833
:10B6D0002030017C491E0174029804700020FEBDD8
:10B6E000D0270020282A002010B593780424234373
:10B6F00093709071517110BD70B5114B05011B68AD
:10B700008122DC6A6419A5786D0716D5E5798D422A
:10B7100013D10146184600F08AFEA078FB210840AC
:10B72000A0702079401C0006000E207101D101207C
:10B7300020710020A071E0710246104670BD00002B
:10B74000D0270020F0B594460E4A074616680E4AE8
:10B750000020957812E02C220346746B5343E25A82
:10B76000BA4209D19A1CA25C9207920F8A4203D175
:10B77000DB1CE35C634503D0401CC0B28542EAD8C1
:10B78000F0BD0000D0270020282A002010B509496C
:10B79000897881420DD9084C2C2221685043496B8D
:10B7A00008180021FBF744F920682030017C491C6F
:10B7B000017410BD282A0020D0270020FFB50446C0
:10B7C000002083B0019007460646052300900D46F1
:10B7D000E00603D52D22BF20044006E0284800687B
:10B7E0008030007AC00744D02A222007000F0328A7
:10B7F00041D2244980000968401800692146FEF7BB
:10B8000093FC010037D00E9A081D93681A4608323F
:10B810005B7B022D19D2002D2FD00827D65DD219BF
:10B8200057783F02F619B6B20196D77896783F025C
:10B83000F619B6B20096577916793F02F619B7B2E3
:10B840009679D2791202B21896B2069A0280857061
:10B85000059A828083710C9A02810D9A4281019A25
:10B860008281009AC281078246822046FEF7B6FC9A
:10B87000002007B0F0BD0720FBE70A27CEE7000055
:10B88000D8270020C8270020F0B50E4A07461668C2
:10B890000D4A0020957811E02C2302465A431346A6
:10B8A000746B0A33E35ABB4206D1A35A8B4203D1CD
:10B8B000D21CA25C012A03D8401CC0B28542EBD83E
:10B8C000F0BD0000D0270020282A0020FFB517492E
:10B8D00081B00D68102808D0202825D100264835D1
:10B8E00028460068C04604461CE001263835F7E7C4
:10B8F000A068A288817AC07A276800020818029995
:10B9000080B28A420DD10399012902D0049988425C
:10B9100007D12146284603F03DF831462046FFF77F
:10B92000EBFD3C46002CE3D105B0F0BDD027002054
:10B93000F0B5184F3B685B6E29E01C89844225D125
:10B94000012902D05C89944220D13E68746E9C42E9
:10B9500007D1E4687466002C0CD13446643408E0E6
:10B960002C46E5689D42FBD1ED68E560002D01D1D4
:10B970000C34B4660024DC60346E1D4623603C68E1
:10B980000C3525662034657C6D1E6574DB68002BE4
:10B99000D3D1F0BDD0270020F0B50C4A074615687A
:10B9A0000B4A002094780DE02C2302465A4313469C
:10B9B0006E6B0E33F35ABB4202D1B25A8A4203D0A5
:10B9C000401CC0B28442EFD8F0BD0000D027002058
:10B9D000282A0020F8B51D460446022316460F46C5
:10B9E000C00603D52F22BF20044008E0134800689A
:10B9F0008030007A400701D40020F8BD2C222007B7
:10BA0000000F032817D20E4980000968401800690A
:10BA10002146FEF789FB01000DD0B068837CC07C15
:10BA20008F8000021B18CD800B810698488120462C
:10BA3000FEF7D4FBE0E70720F8BD0000D827002080
:10BA4000C827002030B5044608480021036808488C
:10BA5000C27A07E0D86A0D0140190588A54204D0D2
:10BA6000491CC9B28A42F5D8002030BDD027002039
:10BA7000082A0020F0B50E4A074615680D4A002036
:10BA8000014694780EE02C230A465A4313466E6B07
:10BA90000A33F35ABB4203D1D21CB25C112A03D041
:10BAA000491CC9B28C42EED88C4200D90120F0BDAD
:10BAB000D0270020282A002010B504460020086066
:10BAC000206800280CD0606801600846616002F0C0
:10BAD00027FFE1894018E081A089401CA08110BDAA
:10BAE0002160F2E7F8B507462C492B482C4D086039
:10BAF0002868C06D002806D0788802F06DFF002805
:10BB000003D08520F8BD8820F8BD2868C46D216A5F
:10BB1000C165002902D101465C3101662422394603
:10BB20002046FAF77FFF01202070204602F062FFD6
:10BB30000646862825D0822E23D0852E21D0207936
:10BB4000012806D1788802F067FF4188042211435A
:10BB50004180882E04D13879102812D0112810D0B5
:10BB6000002020622868806D04602046296820300B
:10BB7000886520780221084340084000207000209A
:10BB8000F8BD002020622868006E04602868203418
:10BB900004663046F8BD000041F50510EC27002092
:10BBA000CC2700207CB50646408802F035FF040013
:10BBB00003D030781E2802D006E082207CBDA17818
:10BBC000890601D485207CBD410609D41E2807D0F2
:10BBD000294928480860A078C00601D584207CBD8A
:10BBE000A18801AA304602F029FF0028F7D1684653
:10BBF0008088E188001D82B2002001F0A3FD0500CD
:10BC00001BD0601C0090684682882B463146204637
:10BC100002F070FFA868317801733078410619D4BA
:10BC20001E2817D0E188032003F03EF800280DD02D
:10BC300000212846FFF760FCD0E710480222006888
:10BC40002030017C1143017488207CBD6088102164
:10BC500008436080284603F03BF830781E2807D15F
:10BC6000E188022003F04CF860882021884360803E
:10BC700000207CBD45A30510E8270020CC2700202C
:10BC800070B50446002003460B4E0C4D0EE01846DE
:10BC9000FEF7D2F8C08EA04205D1B44203D01846B8
:10BCA000FEF7CAF870BD00205B1CDBB229682031AA
:10BCB000097D9942EBD870BDFFFF0000BC27002032
:10BCC00010B503F02DF80078C007C00F10BD10B5F7
:10BCD00003F02DF810BD10B50C46FEF7ADF8A1002D
:10BCE00008188030406910BD10B503F019F80178CC
:10BCF00010221143017010BDF8B51E460D460746CF
:10BD00001446FEF799F84019A030047029463846C9
:10BD100003F006F80178DF221140F207920E11437A
:10BD2000012211430170F8BD80B5012003F008F82D
:10BD300001BD000081B0032101708021C9050A689E
:10BD40000F2312091A4042700A6813408370496831
:10BD500041602749096889B2491C89008160002136
:10BD600000910099002901D1012100910099491CFD
:10BD70008903C16001B0704770B5002300241D4ADB
:10BD8000A5005351641C0A2CFAD3116050600223A1
:10BD9000DE0399004418083CE0252D066519B542DC
:10BDA00001D2246854505B1C0A2BF2D3BFF34F8F8F
:10BDB000114812490860BFF34F8F00BFFDE710B56F
:10BDC0000F21C9430E4A0F4B0028186806D00224E1
:10BDD00004431C60106801400E2005E00224A043CB
:10BDE00018601068014004200843106010BD000076
:10BDF00014100040340000200400FA050CED00E0AF
:10BE00001C0050485416006008B503462621002047
:10BE100000910246022102F0DAFFC01C01D000208E
:10BE200008BD812008BD08B500210B4600910146E0
:10BE30002622022002F0B0FF002800D0812008BD99
:10BE400010B503F023F8002803D103F035F80028DB
:10BE500001D0002010BD03F03DF8012010BD00000E
:10BE600010B503F04FF80549884201D1002010BDFC
:10BE70000349C0000968C96E081810BDFFFF000023
:10BE8000CC27002010B503F055F80749682209684F
:10BE9000401C525A80B2824203D9C96EC0000818B1
:10BEA00010BD002010BD0000CC27002010B50A49AD
:10BEB0000A686821895A0BE0CB00D46E083BE35C2A
:10BEC000834203D1C8000838201810BD491E89B22A
:10BED0000029F1D1002010BDCC27002005480168C1
:10BEE0006820405A002803D0C96EC000801F085A3D
:10BEF00070470000CC270020FFB51D4C81B02068A2
:10BF000017464030068D408D86422ED2002916D02D
:10BF1000084603F00FF8401C86B220684030058DBB
:10BF20000BE02068C26EE8000346083BD1181018E9
:10BF30000822FAF777FD6D1EADB2B542F1D2206846
:10BF40000199C26EF000115422680499D36E021D4B
:10BF500099502168801CC96E0F5220684030018DB5
:10BF6000491C0185384605B0F0BD0020FBE7000004
:10BF7000CC27002010B50446FFF762FF002809D047
:10BF8000204600F04FF8002802D00178002903D0A5
:10BF9000822010BD852010BD02F0E0FF0146204642
:10BFA00002F0E2FF04480222006860300179114388
:10BFB0000171002010BD0000CC27002010B503F057
:10BFC00017F8002800D0408810BD000010B504000C
:10BFD0001FD0207D102802D080281AD111E0208A9D
:10BFE0000E4988420DD1206A002812D00C4982885F
:10BFF000C97AC908491C8A420BD380680021FAF724
:10C0000017FDA0782421084205D06078C01F0A28B7
:10C0100001D3822010BD002010BD0000292B00009C
:10C02000082A002010B502F0F5FF0549884201D129
:10C03000002010BD0349C0000968C96E081810BD72
:10C04000FFFF0000CC27002070B50D46044600F02D
:10C0500014F86168C98A002908D06288801A081A11
:10C06000401E80B2A84206D2852070BD0020FFF796
:10C070001DFF8442F8D1002070BD10B50178002961
:10C0800003D0022901D0408810BD02F067FF10BD27
:10C0900070B50E460446FFF7D3FE00280ED02046AA
:10C0A00002F0CEFF002808D13046FFF7BBFF0500A5
:10C0B00002D02878022803D0822070BD852070BD70
:10C0C0003146002002F0F2FF002815D00121FFF7D1
:10C0D000BBFF0028F3D12846FFF7CFFF0546FFF747
:10C0E000A1FF01466D1CAAB223460420FFF704FFFE
:10C0F000A84203D0872070BD862070BD207D102807
:10C1000009D1208A0849884205D1A0690021828886
:10C110008068FAF78DFC05480222006860300179DA
:10C1200011430171002070BD02290000CC270020BE
:10C1300010B50446FFF784FE002809D02046FFF71B
:10C1400071FF002802D00178022903D0822010BD9F
:10C15000852010BD02F002FF0146204602F004FFD8
:10C160000448022200686030017911430171002007
:10C1700010BD0000CC270020054A12682032537DF4
:10C18000034201D00C207047517500207047000019
:10C19000BC270020FFB581B01D4606460A9FFBF76D
:10C1A00065F8044600200090F5F7B9FE0298304388
:10C1B00008D0039802F090FF424988421AD14220E9
:10C1C00005B0F0BDE61D0B200025F93680012418CE
:10C1D0000CE0FF200930716868430818C421095C2D
:10C1E000002901D002F098FF6D1CEDB2207DA8421D
:10C1F000EFD80FE0FF340134FF2209326168504369
:10C200000C18012E08D0C420005D002802D0204662
:10C2100002F082FF0098D3E72146C0310879002858
:10C22000C87F16D0C00709D0216DE06E0860216D6F
:10C23000206F4860216DE06CE1642065606F00282C
:10C24000E8D0FBF776FB7D2149014D43401960673B
:10C25000E0E7C20702D1C043800705D1E06E0028A5
:10C2600002D1206F00282BD020468030028BD307CC
:10C2700002D0838DF52B23D812231340022B02D139
:10C28000038E002B08D012070CD50E4BC28BDB1E81
:10C290009A4203D1802505E00C2091E7802D0FD82C
:10C2A000002D0DD07D225201554365674783002F35
:10C2B00001D001224A718783204602F04BFF7FE7BD
:10C2C00012207DE7FFFF000030B503460948032B2D
:10C2D0000CD300228C5C022C03D18D186D78012DBB
:10C2E00005D0521CA21892B29A42F3D330BD104628
:10C2F00030BD0000FFFF000010B586B0044601A865
:10C3000002F0E6FF00F0C0FC69468870000A487041
:10C3100000F0BAFC69460870887840214006400E5B
:10C3200008436946887005AA01A802F0E5FF0322C8
:10C3300005A92046FAF776FB03226946E01CFAF7C6
:10C3400071FB06B010BDFFB585B00D4604000BD0E3
:10C3500060780290854207D22178052000030027EB
:10C3600088401E46834202D9822009B0F0BD00F009
:10C3700040FB7200921913019A18130A4907C0086A
:10C380009A180843130C21789A181018491DC840B0
:10C39000694608800197206A0799405DA84209D044
:10C3A000002904D02946204600F041F806E0822109
:10C3B000019101E0002901D1A84236D16846616AA5
:10C3C00000886A00885268460021415E039100F0AF
:10C3D00010FB86466378206A1A468446805C13E028
:10C3E000666A4700F75B26787146761DF140CE08F5
:10C3F000B91B0FB203997F1E8E1B36B2761EB74251
:10C4000004DC02466146885C9842E9D16046815C62
:10C410004155206A85540298824206D1684600211F
:10C42000415E204602F083FF019001989DE7F8B538
:10C43000054600200C468646002D03D06B78184632
:10C44000844201D38220F8BD2E6A315D8C46A14220
:10C4500016D02746024602E0B94203D00A46B15C34
:10C460008142F9D1B05C984208D06046B0549A42FB
:10C4700004D16146284602F07EFF8646286A0455AC
:10C480007046F8BDFFB583B00C9EFAF7EFFE044688
:10C49000F5F745FD2746FF3709373C46FF34213481
:10C4A000E0790025C00702D00C2007B0F0BD0020C5
:10C4B000E075FF20A07302F073FFA073FF2844D043
:10C4C000F00713D0002128460D9A02F08DFF0120BD
:10C4D000C046002809D0012128460D9A02F084FFA9
:10C4E000022128460D9A02F07FFF0125B00705D5ED
:10C4F000012128460D9A02F077FF6D1C700704D5C4
:10C50000022128460D9A02F06FFF267404982071CC
:10C510000398A071039860713846DC30059A06993B
:10C52000FBF774FE002069464871E179890702D55E
:10C5300001216A465171012269460A70487048809B
:10C5400008716846F5F79DFCAFE70020E071ABE7A6
:10C5500070B50146FAF78AFE0346FF3009300246FD
:10C56000FF328C78213214748C880E4E25020C7A9E
:10C570009B19A40024188034A560CC8825020C7A6D
:10C58000A4002418803425610D7ACC78EC544B78C3
:10C5900053710978117100218030C1650166084628
:10C5A00070BD00002A020000F8B50F460546FAF7F4
:10C5B0005DFE04460026284602F08EFD154988429D
:10C5C00003D102F07EFFFF281FD0FF340134FF2289
:10C5D0000932616850430C1820468030C583007EC4
:10C5E000C00703D0C420005D012810D00A480622ED
:10C5F000006839468930FAF715FA20460122394693
:10C600006C30FBF703FE3046F8BD0720F8BD0C2068
:10C61000F8BD0000FFFF0000D8270020F0B58031F2
:10C620000D7E00246F0701252646A446002F02DA5E
:10C6300003271F7000E01D700027062808D0072878
:10C6400008D0032808D0022806D0052804D004E02A
:10C650001D7002E00325FBE71F700D7EAD0600D5BF
:10C660001F70052803D0042801D0022803D11D78AB
:10C6700008273D431D700D7E6D0605D5052803D0A6
:10C680001D7840273D431D701D78EF0700D006241C
:10C69000AF0700D5A41D6F0600D5641C2F0700D579
:10C6A000A41C042801D0022803D18E8C0F8CF61B09
:10C6B000B6B2062801D0032803D1CE8C4F8CF61BCE
:10C6C000B6B2097E890702D0042800D100263119AC
:10C6D0000E46FC3E1024002E05DB012125438C462E
:10C6E0001D70FF2100E0891C1170052807D1012071
:10C6F00084461878204318701078C01C107060466B
:10C70000F0BD000003492C22096850438031496E76
:10C7100040187047D82700209048816801220A43BA
:10C72000826000210160704730B58D4B8B490A68EB
:10C730001A400C681C40A242F9D1002AF7D0894B5C
:10C7400014125C43D5B25D432B12E31810335B1116
:10C7500043628261844A4B6813404C681440A34290
:10C76000F9D1002BF7D09911A54A51438031091214
:10C770000162C36130BD10B50400FFF7CDFFAD48C5
:10C780000068C007FBD52000FFF7CEFF10BD682171
:10C790004143090ADB225043000C0818704780B55A
:10C7A000FFF7F5FF49E238B530C80838954A1368F5
:10C7B0000B60AA4A416AC06A181A02F0A1FE002161
:10C7C0000019694134BD70B505008F4C607A7D2138
:10C7D0004843C900F5F716FA461CF6B2A54A296A7D
:10C7E0001B2002F08DFE20706078FFF7D8FF3D21FE
:10C7F0006854E0788019FFF7D2FF3521685420791A
:10C800008019FFF7CCFF362168546079FFF7C7FF26
:10C8100037216854A079FFF7C2FF3821685470BDF2
:10C8200038B50400774805688C4AA16A206B281A3D
:10C8300002F066FE210008310CC900218018594120
:10C8400003C4083CE56225632200083203C2606A23
:10C85000A06231BD80B5874A02F052FE8649884207
:10C8600001DD080002E0102800DA102000118549DF
:10C87000888201BDF8B50700824C38882061824E5D
:10C88000B0797D214843C900F5F7BCF9451CEDB2EC
:10C89000F878002802D1B87800280DD07B48C1680C
:10C8A000C907FBD5016817220A4302602000FFF781
:10C8B00062FF606AA06209E0C8204003A062606273
:10C8C000734820627348A0617348E061F8783421AE
:10C8D0006054216A206980B2FFF7BCFF00203E212E
:10C8E0006054002103C4083C464A1268E262226395
:10C8F0002200083203C22000FFF765FF307840199C
:10C90000FFF745FF1B303921605470784019FFF75D
:10C910003EFF1B303A216054B078FFF738FF1B30E0
:10C920003B216054F078FFF732FF1B303C2160540C
:10C93000F1BD79480078002806D0084881680122B6
:10C940000A4382600021016070473A480068C107CD
:10C95000C90F012048407047000000000810006027
:10C96000FFFF0700F6BC0800FFFFFF0738B590B0D7
:10C97000444C3420205C002831D0684621004022FD
:10C98000F5F70AFC6846FFF7CFFE0899049880B2D5
:10C99000FFF760FF6846FFF716FFEFF3108572B6EA
:10C9A0000698A0610798E061089820620998606283
:10C9B0000A98A06268463521415C3522A15436218F
:10C9C000415C3622A1543721415C3722A1543821E1
:10C9D000415C3822A1543D21405C605402E0EFF3F9
:10C9E000108572B62000FFF71BFF85F3108811B089
:10C9F00030BD80B569469748FFF7D5FE04BD0000FD
:10CA00005307000010180060C5000020F8B50500AD
:10CA10001C4C69462000FFF7C6FE06000F008E4A38
:10CA2000616A0098401B02F06BFD00233900301A48
:10CA30009941F4BD101000600200864B3420185C50
:10CA40001074D869D0601800083003C803C2083ACF
:10CA500098699060186B50617047000035060000BF
:10CA600000207E4908607E4801687E4A0A400260D4
:10CA70007047000026030000FF0F00007A4800788E
:10CA80007047000068290020C800002004100060E2
:10CA9000C2F528008D5B0000ECEB650170B50C0061
:10CAA000724A6C49096A02F02BFD0100202900D866
:10CAB0002021704A9068411808315162136A80251C
:10CAC000AD051D431562936A8025ED051D439562F2
:10CAD0000023624D2E68022E05D02D68032D02D052
:10CAE0002578012D01D0237070BD634C25786D062B
:10CAF0006D0E2570A374E374012313600F23994313
:10CB0000D161116A072399431162116AC023DB05C1
:10CB10000B43136270BD00009C290020FEB5040089
:10CB20004C4D3920285C012905D1002A01D035213E
:10CB300006E0362104E0002A01D0372100E0382148
:10CB4000695C0091019002A92800FFF72CFE201AD1
:10CB5000494E484C0027454A01992B69C918C831EC
:10CB60008142296A17D202F0CBFC7178401A0099F1
:10CB7000401A02990918E161216A07229143216252
:10CB800036490F60216AC022D2050A432262009909
:10CB900072788B1812E002F0B3FC3D21695C401AF8
:10CBA000009A801A029A12182C4B5A6002221A60BC
:10CBB000226A2C4B13402362009A5318A98A2160E1
:10CBC000317880220A433270F021B174FF21F17470
:10CBD000C118581D814207D220480760206A2149A8
:10CBE000014021620120FEBD1B4A696A180002F063
:10CBF00087FC3E2168540020FEBDEFF3108072B622
:10CC00001B490968154A891C51600221116080F393
:10CC1000108870471948012142680A43426002683F
:10CC2000114301608020000415490860704780B5F9
:10CC300014480068FFF7EAFE04BD0C4A0549096A7A
:10CC400002F05EFC02BD80B5034A0249496AF7E77B
:10CC50000000000068290020350600000C0000607C
:10CC600028180060FFFFFFBFA62900202603000050
:10CC70001018006008180060C40000204818006008
:10CC800000E100E0140000600D4800210268520736
:10CC90000DD5026804239A430260026808231A43F0
:10CCA000026004E0491C052901DD0020704742684C
:10CCB0009207F7D54168C907FCD0806880B27047F9
:10CCC00000006048916A0207D20E30328A5A403121
:10CCD000098A0009414350187047C10701D0252037
:10CCE0007047800701D52620704727207047000035
:10CCF000F8B51D460446022316460F46C00603D566
:10CD00000A22BF2004400BE0124800686030017C1A
:10CD1000890602D5C07E800701D40020F8BD082214
:10CD20002007000F032812D20B4980000968401821
:10CD300000692146FDF7F8F9010008D00F714E7126
:10CD4000CD80069A0A722046FDF748FAE5E70720EB
:10CD5000F8BD0000D8270020C827002070B5044681
:10CD60000546C034E07EFBF713FAA07EFBF710FA0D
:10CD70000020207160712C46E0346078FF2801D0DB
:10CD800002F0DFFBFF20607070BD00000248006809
:10CD90008030006E70470000D82700201FB5054C7A
:10CDA00040071ECC03946C460EC4000F6946085A17
:10CDB00004B010BDE016061089084143880C401CE1
:10CDC000704770B50546FF352135EB79C41D9909CB
:10CDD0000122F934022901D2022105E0A08B0121B0
:10CDE0004008A08300D1A2839806800E89010843E1
:10CDF000E871A08B012809D0FFF746FFA18BC0B2D4
:10CE0000491EF4F702FF491C697270BD6A7270BD59
:10CE100010B5FFF777FC0121817410BD10B51148E2
:10CE20000268D16C106D002901D00B2801D97F2434
:10CE30000FE00623584376381E2903D94908801D80
:10CE40001E29FBD8FF23A2335943074BC918890A6F
:10CE50000C180020D064106502F07AFB001940B273
:10CE600010BD0000D8270020A046000010B50446E1
:10CE7000FCF7D6FFC078002813D10B4815210068B5
:10CE800049018030C06D63684118FF30FF300230C7
:10CE900022680978806CFCF70FFCFF2801D0012084
:10CEA00010BD002010BD0000D8270020F7B50C46AB
:10CEB0000746FAF7DBF905461520400105212E1833
:10CEC000317200F069F9317A400108433072222052
:10CED0007072FAF72EFD0646022C25D0204622213C
:10CEE00000F0A2F88119029840020E18A000C4199F
:10CEF000A06A017E407E3D36000208434202FF20C8
:10CF000009300059314602F02FFB801BC001010C93
:10CF1000A06A163002F02DFB0448A16A16222818D8
:10CF20000E31F5F753F9FEBD0420D8E7B602000034
:10CF300070B50446FF291DD00F4800688030C06DD1
:10CF4000FF30FF300230C36D2820414308461030C7
:10CF5000181806684568354386682E43C56835430A
:10CF600008D02031595813460A462146FCF7C5FB24
:10CF7000012070BD002070BDD827002001784078C6
:10CF8000000208437047F8B504462030027CFCF7E5
:10CF900047FF0546002637461046FCF75DFF002890
:10CFA00007D08179042900D10126C079042800D155
:10CFB00001270120C046FF21A922493112018034F6
:10CFC00001280FD1288B1B2808D1002E03D0E88B15
:10CFD000904203D106E0A88B884203D0206820232A
:10CFE000184320601B202085A085002E0DD01346FD
:10CFF000E385002F00D01146218660856086A386D8
:10D00000E88CE08621876387F8BD0B46F0E70000D7
:10D0100004490A68126C02600868FF300130007E23
:10D0200070470000D8270020042807D0012809D025
:10D030000748414307480818000A7047064841431B
:10D040000648F8E7FF20A43041430548F3E7000015
:10D0500047030000C6200000381A0000E92601003E
:10D0600006120000FFB50646082381B01746C00629
:10D0700003D50D22BF2006400CE022480068603036
:10D08000017C890602D5807E800702D4002005B08D
:10D09000F0BD0B223007000F032830D21A49800060
:10D0A0000968401800693146FDF73EF8040026D0B3
:10D0B00002982071E780049820720A9860722046D6
:10D0C000251D06220A300B99F9F7ACFC28460622EA
:10D0D0000C300C99F9F7A6FC2846062212300D995F
:10D0E000F9F7A0FC0E9828830F9868831098A883FE
:10D0F0001198A87721463046FDF770F8C6E707205B
:10D10000C5E70000D8270020C8270020FFB5064645
:10D11000052381B01746C00603D50522BF2006406F
:10D1200009E01B4800686030017C89062BD5407EF1
:10D13000C00728D003223007000F032826D2154944
:10D1400080000968401800693146FCF7EDFF0400D3
:10D150001CD002982071E780049820720A986072AF
:10D160002046251D06220A300B99F9F75BFC0C9826
:10D17000A8810D98E8810E9828820F98A8742146FE
:10D180003046FDF72BF8002005B0F0BD0720FBE787
:10D19000D8270020C827002010B5FAF767F80B2120
:10D1A00089014018407D10BD828E816C0A32514346
:10D1B0000901090C054A4B1D934200D31A46FF3062
:10D1C000013002804180012101717047B80B0000DD
:10D1D000F3B5FCF731FE0746C537002319461A465A
:10D1E0004418C034491CC9B262712529F8D3002201
:10D1F00000210DE0019D0126AD5C8E403540CD4003
:10D2000002D0FC545B1CDBB2491CC9B2082903D212
:10D21000D4006418252CEDD3521CD2B2052AE7D3D2
:10D22000C0300371FCBD0000FEB513460C46FCF790
:10D2300003FE0546C03006795C400021FF22023221
:10D2400020461040E7091740C001384352002746E6
:10D2500017407F013843670917403843520027467B
:10D260001740FF003843E70817403843274652006D
:10D2700017407F006408384314402043020110180F
:10D28000C018491CC9B284B20329D7D35C402046D8
:10D2900002F074F9294620314B7F502253431E4A35
:10D2A0009B189C469B681F0C6B461F7063469B68CF
:10D2B0001F0E6B465F704B7F50277B439B18DF68C8
:10D2C0006B469F704B7F50277B439B18DB681F0A80
:10D2D0006B46DF70497F502359438918C9686B46F4
:10D2E0008902890E1971C108CB006A46C31A5B070F
:10D2F000515C5B0F01229A4011420BD130466043D2
:10D30000000C002E03D03146F4F77FFC08462818A5
:10D31000C0304079FEBD00000001002070B5FCF770
:10D320008BFD3D21095C502251430D4A8918CA6D7D
:10D33000C96D5201520F044649004D0F8034618D72
:10D34000104602F029F90646A18D284602F024F97C
:10D35000218E80B2884200D308463018B93070BDA3
:10D3600080000020F8B51C4615460E460C9FFFF7BE
:10D37000C9F9C66007990160069944608160C57467
:10D3800008994175099981750A99C1610B9947629C
:10D3900001620D998162F8BDF0B4040C8BB226468F
:10D3A00082B25E430D0C1046370C58433604801988
:10D3B0000021794116466E43370C360480197941B5
:10D3C00026466E438919F0BC7047000070B50C4CBE
:10D3D0000546206805218030C06DC90140184069AC
:10D3E0008047002801D00C2070BDF4F798FD20681C
:10D3F00013218030C06D490140180572002070BDB6
:10D40000D827002038B50D461102090A0322520719
:10D41000036893624368D36283681363C068506390
:10D4200091630020D063084C2060606002F0D2F865
:10D4300069460870A068290A00020902884201D1E1
:10D44000002038BD012038BD40000060F0B50F4617
:10D45000B5B01546002130AA0F23445C5E1A491C62
:10D4600094551029F9DB1022694630A802F0CCF857
:10D470000026B400E019401CF4F7EAFE395D000212
:10D4800008430321891B89002CAC761C6050042EB4
:10D49000EFDB214610236A46084602F0D1F800204F
:10D4A0000326311A8900635C8200AB54635A521917
:10D4B0001B0A53706358401C1B0C93706158090E73
:10D4C000D1700428EDDB35B0F0BDF0B4CC06E40E2D
:10D4D0000121A14014685268A44614020D46EA00D6
:10D4E000083A8658EA00083A12185268491E15028E
:10D4F000AC4203D3AC4205D1B44503D20125002987
:10D50000ECD100E00025481C1870002D03D0002944
:10D5100001D1002018701002844207D1B44505D112
:10D520001878401E1870F0BC01207047F0BC002035
:10D530007047000010B50446006886B001680320FB
:10D540004007816221684968C16221688968016376
:10D550002168C96841636168096881630021C1630A
:10D560000A480160416002F035F8694608740749CD
:10D57000102208316846F9F755FA04226946A06876
:10D58000F9F750FA0120207306B010BD400000608A
:10D5900010B50120C046C0B210BD10B50120C04674
:10D5A000C0B210BDF3B5194900250C6881B028340C
:10D5B00081070DD06178002900D0D1250527FF0211
:10D5C000012801D0022600E00126002D02D01BE038
:10D5D0002026002702F066F90299F4F742FC0500C4
:10D5E00012D121780120F4F7BEFC05000CD12034C3
:10D5F000E07C3043E074202E06D004483B460122F4
:10D6000002210068FEF79FFE2846FEBDC4270020C9
:10D61000FFB50646264885B004680F4628342546DF
:10D6200002F040F902900020203401902075B009EA
:10D630000CD0E07CC006800F05D000210846F4F72E
:10D6400092FC00281ED10097019B03E0700707D5CC
:10D6500001230097029A07990898F4F7FBFB1EE054
:10D66000F006800F21D0F00604D56878012801D09B
:10D67000032806D1300707D56878002804D002288F
:10D6800002D0D12009B0F0BD02F00CF93946F4F710
:10D69000E8FB0028F6D129780120F4F764FC002883
:10D6A000F0D1E17C3143E174ECE71220EAE70000BD
:10D6B000C4270020F8B5891ECDB20646A81C032158
:10D6C0000843401C83081746F00603D52522BF20D7
:10D6D000064008E01348006880304078000601D416
:10D6E0000020F8BD22223007000F032818D20E496F
:10D6F00080000968401800693146FCF715FD0400F8
:10D700000ED03978217179786171A5712A46B91CDA
:10D71000E01DF9F787F921463046FCF75FFDDFE7AA
:10D720000720F8BDD8270020C827002010B50C46D8
:10D7300002F0CAF80078002C02D00007C00F10BD1C
:10D74000C006FBE7F8B50D460D49521E09680024D6
:10D750000E681F210A431D3297B2394602F0BAF80B
:10D7600000280AD13946F06802F0DAF80446083495
:10D770000068A0600020E074A5802046F8BD00008D
:10D78000DC270020F0B59BB015460E4604463C222F
:10D7900000216846F9F74CF91022314604A8F9F740
:10D7A00041F9E07F494E022802D0032806D00BE061
:10D7B0003068C16B684600F0BAF805E031681022A5
:10D7C00068464831F9F72EF9012108A8017031683F
:10D7D0000A46403109794170207E1346C107C90FBE
:10D7E00008A88170A033D97DC1702032D17E01712B
:10D7F0000721417181710221C171617E0172207E18
:10D800008007C10F08A84172197D8172217FC17202
:10D81000597D0173997D41730BA902310F300E467A
:10D82000189002F099F860780622C107C90F08A87D
:10D8300041751630A11C0746F9F7F4F811A809A99B
:10D84000072201300331F9F7EDF80FAC0722A01CD5
:10D8500008A9F9F7E7F80122601CE11FF9F7E2F8DF
:10D86000012231460FA8F9F7DDF80020694613AE12
:10D870000A18127C235C5A403254401CC0B2102853
:10D88000F6D32A463146684602F08AF81022002173
:10D890000FA8F9F7CDF80622A01D1899F9F7C2F8DC
:10D8A000062239460FA8F9F7BDF80020295C225C52
:10D8B00051403154401CC0B21028F7D32A4613A956
:10D8C000684602F06DF81BB0F0BD0000E0270020B4
:10D8D00010B51C4613460A468068214602F066F8D9
:10D8E00010BD000070B50D4606460146062000F04A
:10D8F000D1FE040005D000213046FDF7FDFD204695
:10D9000070BD288900F02EF802460021024B08461F
:10D9100000F04AF8F3E700003075000010B51C462F
:10D9200013460A468068214602F074F810BD017063
:10D930000A0A42700A0C8270090EC17070477FB5E6
:10D94000164604461D46082202A8F9F76BF808227D
:10D9500031466846F9F766F82A466946204602F0DD
:10D960001FF87FBD30B501460D4800682030007DAE
:10D970000029024613D00B4B0C0519680020240D1A
:10D9800080310AE07C2343438D6A0833EB5A1B0540
:10D990001B0DA34203D0401CC0B28242F2D830BD5E
:10D9A000BC270020E027002070B500240646204652
:10D9B000002900D103240A490D681035002E07D034
:10D9C000012E04D1A018C1B22846FEF730FD70BD6B
:10D9D000A018C1B201222846FEF7B5FC70BD0000B8
:10D9E000E0270020F7B50E4684B007210191009191
:10D9F00002F042F8040004D07420005DC0071ED17C
:10DA000002E0802007B0F0BDA01C02F05BF8002807
:10DA100017D0A07BC00612D4474D286840308178CB
:10DA20004A081143C90702D08179490707D4002168
:10DA30000291A173A17A002907D0F12903D0852092
:10DA4000E0E7B020DEE7F1071FD08079C043800710
:10DA500021D0208920220105090D0020FFF772FE48
:10DA600007001AD0A020A072E07E2F210840E076A7
:10DA7000B00703D5A07B20210843A0730698002897
:10DA800028680CD02030417E0DE00120A073204694
:10DA9000F4F786FAB6E73820B4E78820B2E7A0307A
:10DAA000007E4007C10F2868034606464033987839
:10DAB000DB7842081043C2073820D20F805D02F0A5
:10DAC00023F80646204600F00DFA019900980091CF
:10DAD0000190227E33460121384602F021F821468A
:10DAE0003846FFF7FFFE002802D08120029089E728
:10DAF000296840318879C243920701D0401C88715F
:10DB00002046542200212030F8F792FF3046182199
:10DB10000840E072A07EF10700D002210843A07601
:10DB2000E07E7107C90F0843E0762868A030C6750B
:10DB3000A120A072029865E7E027002001468968CD
:10DB400000204A7B042A05D88A7B012A02D8CA7B96
:10DB5000920701D50A207047054A097C12682032D5
:10DB6000927E914201D31029F5D90620704700001A
:10DB7000E027002010B58268527B4A768268927B4B
:10DB8000012A03D10A7E02231A430A761A4B8268BD
:10DB90001B68D27BA0331A758468647C5C758468CA
:10DBA000A47C9C758B7ED407E40F23438B76CB7EBD
:10DBB000042422401343CB768268127C0A777422B5
:10DBC000525CD20712D08B7F0522DC08E4008C77F0
:10DBD00083689B7C5B075B0F23438B7780680830EF
:10DBE000801800794007400F487710BD83680622EF
:10DBF0005B7C5B075B0FF0E7E0270020F8B504468D
:10DC0000002501F0ABFF862803D0E07F022802D078
:10DC100023E0E57F21E014480068403000780028C8
:10DC20001DD020890226070510483F0D00680123FA
:10DC30008030407840070CD50D481D2200683146E1
:10DC40008069FCF771FA010003D08F803046FCF741
:10DC5000C5FAE07EEF210840E0762846F8BDE07E78
:10DC600010210843F8E70000E0270020D827002013
:10DC7000C827002010B5044600881B38E12807D2C9
:10DC800060880E4A904203D8FF224932904201D266
:10DC9000122010BD00290ED0FCF7C2F801462288E0
:10DCA000008C824200D2104620806088498C8842D5
:10DCB00000D308466080002010BD000090420000A4
:10DCC000F3B581B00198FCF7B7F80546012101983A
:10DCD000FDF7F6FF002801D03A20FEBDFCF7A0F8C2
:10DCE0000746C68C01210198FDF7F5FF0446012087
:10DCF000C046012820D1FF200730405B010568465F
:10DD0000408900900FD50198FCF7A6F8002813D0A1
:10DD10008079042810D1A9210901009801F072FF2F
:10DD20006946488108E0124901F070FF6946488160
:10DD30000F48864200D3064668460189A180408983
:10DD4000E080BA8C2280668080356A8E2283AA8E1B
:10DD500062836986A88601210198FDF7C5FF00232B
:10DD6000062201210198FDF7C7FF0020FEBD00003B
:10DD700048080000F0B54488491CA4B2E5B2A408E4
:10DD800009B21C808EB287883619BE4204D9A6B269
:10DD9000891B6D1C09B2EDB2A4002418083414606C
:10DDA0001C88AD076418A400AD0F2C43A4B21C80DE
:10DDB0000388E31A9C07A40F012C02D803D1002B7F
:10DDC00001DD00230AE00123002907DA11688C78BD
:10DDD000A408A400641C8C70083010601846F0BDC4
:10DDE00070B5184D90B02878002802D0012010B0EE
:10DDF00070BD6E460024FBF76FFAA100641C7050E2
:10DE0000082CF8DB6946012001F004FF0128F1D05D
:10DE100020220D496846F4F7BFF90B492022203132
:10DE200008A8F4F7B9F96946022001F0F3FE08A941
:10DE3000032001F0EFFE01F0F1FE01202870002028
:10DE4000D5E7000006280020C809061070B51C465A
:10DE50001546002908D1008920220105090D00205E
:10DE6000FFF770FC010009D00220C88088680573A4
:10DE700088684473062000F00DFC70BD882070BDDA
:10DE80007CB504460D460089FFF76CFD0246144B35
:10DE900000210120FFF788FD20890005000D01F019
:10DEA000C9FE0220694600940871684601F0DEFE52
:10DEB0002046042200210C30F8F7BAFDE07E2F2125
:10DEC0000840E076204601F0EDFEFB20A07220899C
:10DED00002220105090D2B46104601F05DFF7CBDB5
:10DEE0003075000070B504460C4800250068062215
:10DEF0008030006BA11C4678801CF8F7A3FD002839
:10DF000009D16078C007C00FB04204D1207E012142
:10DF1000084320760D46284670BD0000E02700200B
:10DF200070B500241D461646002804D0FFF7DAFF1E
:10DF3000002802D003E0002901D082240BE0094828
:10DF4000002E0AD0012E08D0022EF6D100688030B3
:10DF5000006B18302860204670BD00688030006B70
:10DF60000830F7E7E0270020F0B59BB015460E46D5
:10DF700004463C2200216846F8F75AFD102231463B
:10DF800004A8F8F74FFDE07F4C4E022802D003288A
:10DF900006D00BE03068C16B6846FFF7C8FC05E0AF
:10DFA0003168102268464831F8F73CFD012008A985
:10DFB0000870607E4870207E8007C00F88703068CF
:10DFC0000146A0310A460B7D08A9CB70237F0B7157
:10DFD000537D4B71937D8B710223CB7144210B5C7C
:10DFE00008A90B72217E2030CB07DB0F08A94B72EA
:10DFF000D27D8A72C07EC872607F4007400F08736E
:10E00000A07F4007400F48731531481C0E461890FA
:10E0100001F0A2FC607808A9C007C00F88730BA8A4
:10E0200003300622A11C0746F8F7FCFC11A809A939
:10E03000072201300331F8F7F5FC0FAC0722A01CD2
:10E0400008A9F8F7EFFC01223146601CF8F7EAFC5A
:10E050000BA901220FA80231F8F7E4FC0020694661
:10E0600013AE0A18127C235C5A403254401CC0B2D2
:10E070001028F6D32A463146684601F091FC10225A
:10E0800000210FA8F8F7D4FC06223946A01DF8F7A6
:10E09000C9FC06220FA81899F8F7C4FC0021685C97
:10E0A000625C50407054491CC9B21029F7D32A460B
:10E0B00013A9684601F074FC1BB0F0BDE0270020F6
:10E0C000002A2DD010B45408002B15D08018491EFA
:10E0D000D20703D04A78401E0270491C002C09D098
:10E0E00002464B78203AD3778A78801E891C0270CA
:10E0F000641EF5D110BC7047401E491ED20703D0E4
:10E100004A784270401C491C002CF3D04A78427077
:10E110008A788270801C891C641EF7D110BC7047FD
:10E12000704770B5BAB0054600200C46009020201C
:10E130006946087210200A9038901E46039201A882
:10E1400001F05AFE2246294601A801F06FFE6A46F8
:10E15000314601A801F0ACFF3AB070BDF7B50746F3
:10E1600017481646006804688120002F11D03846F1
:10E1700001F0D4FF0546B0420CD2301A81B20198AA
:10E1800001F0A8FB002804D132463946E06801F0CE
:10E19000D1FFFEBD32463946E06801F0CBFF6D1E6F
:10E1A000761E69097209891A72B6019A9200A35AF9
:10E1B0005B1AA35222895118218162B6FEBD00006C
:10E1C000DC27002070B504466030407D049E1D466B
:10E1D000087013462146062276311846F8F722FCCD
:10E1E00060780622C007C00F2870A11C3046F8F7DF
:10E1F00019FC70BDFFB5A3B00F4605461C4638227A
:10E2000025A16846309EF3F7C7FF01232022294647
:10E210000EA8FFF755FF16AB2D4A20210EA8FFF7D9
:10E2200080FF01A80123102239460130FFF748FF83
:10E2300005A80123102201302599FFF741FF08A806
:10E24000447101230622801D2C99FFF739FF08A88D
:10E250002D990173012306220D302E99FFF730FF0F
:10E260001AAB16AA35216846FFF75BFF012310227F
:10E270001AA92F98FFF724FF0121684601701EABF1
:10E2800016AA3521FFF74DFF012310221EA93046A3
:10E29000FFF716FF27B0F0BD0062746C6500000048
:10E2A000000000000000000000000000000000006E
:10E2B000000000000000000000000000000000005E
:10E2C000000000000000000000000001000000004D
:10E2D00000180610F7B594B00D46002708A90F7274
:10E2E00004460F731022394606A8F8F7A1FBE07F19
:10E2F000444E022809D130686946C06B0876020A8C
:10E300004A76020C8A76000EC876012D0ED030684F
:10E31000627E0146A0314A75227E9207D20F8A752D
:10E320000A7DCA75E17F03291AD01FE030684421B5
:10E33000095CA0304175217EC907C90F8175E07F56
:10E34000032813D12046FFF7CDFD00280ED00EABD9
:10E35000012200212046FFF7E3FD10220E9902E082
:10E3600010220146483106A8F8F75CFB7420025DD4
:10E3700021462046D30754316430002B02D0002DB3
:10E380000AD001E0012D07D0D3072B4307D0D307D4
:10E3900010D0012D03D00DE00D910C9001E00C91F7
:10E3A0000D90012D08D0D00728430BD0D00701D005
:10E3B000002D07D0862722E011A80BAB0FAA0AA9CF
:10E3C000009004E00FA80AAB11AA0BA90090204608
:10E3D000FFF7F8FE08AA107B0FAA169B029211A95C
:10E3E00003AC0BC4306808AA127A0146B531019219
:10E3F000009106ABFC300C9A0D9901F0E9FE38460D
:10E4000017B0F0BDE027002070B505460089202236
:10E410000105090D0020FFF795F9040019D011201E
:10E42000E080A0680D2101730D48102203680521CA
:10E43000FF3320460D33FFF74BFA7420405DC007D1
:10E4400009D0BC2629462046FFF74CFA002804D004
:10E4500004E0882070BDAB26F4E7AE72002070BDEA
:10E46000E027002070B51C4C064622686420805CC2
:10E47000002590B0800701D53A2522E02021002018
:10E48000A832FCF771F8002801D01F2519E04022BE
:10E4900031466846F8F7C6FA206802230146603123
:10E4A0000A79A8301A430A71694601F0D3FE01289F
:10E4B0000AD072B60948006881784906490E817011
:10E4C00062B6284610B070BD206812256030017910
:10E4D000FD2211400171F4E7D8270020C027002059
:10E4E000F0B5FF24054600230A4F0B4E0BE01846FB
:10E4F000FBF7A2FCC08EA84203D1BD4201D01C464E
:10E5000006E05B1CDBB230682030007D9842EED81C
:10E510002046F0BDFFFF0000BC270020F3B585B00A
:10E520000E46FBF77DFC04460598FBF785FC04903E
:10E530000598FBF791FC05463079C10707D02E21DD
:10E540000A5D69468A70800703D4F17803E0B278E7
:10E55000F7E72034E17B6846C1707079002805D167
:10E56000AA70E9703088002800D02880AB79E8795B
:10E570001C460190970701D5022704E0D70701D078
:10E58000012700E00427BE468F0701D5022704E0DB
:10E59000CF0701D0012700E00427BC46734503D014
:10E5A0001446604502D102E0604546D00191012148
:10E5B0000598FDF790FB0746049869468030408D2A
:10E5C000F88102970598087302A8F3F711FD0598E2
:10E5D000FCF756F900281CD0A879042801D061075F
:10E5E00001D5042106E0012801D0E00701D0012176
:10E5F00000E00221E879042802D00198400701D503
:10E60000012200E0002200970123059801F04EFE50
:10E6100001E00020387470797874FC7401983875C2
:10E62000072401210598FDF75FFB012322461946C7
:10E630000598FDF761FB07B0F0BD71790029FAD1AB
:10E64000590700D50323410700D503200090049803
:10E650000021C28E022001F06BFEECE770B50C4D7C
:10E66000049C2D686D8D954208D38D1CA84201D263
:10E67000872070BD002B03D0012B03D0822070BDFA
:10E68000002001E001F08AFE2080002070BD000023
:10E69000D027002010B50C460146042805D00529D6
:10E6A00003D0062901D0A02010BDA068A279027273
:10E6B000E088020AA0684272A0688172A068090A14
:10E6C000C172E088001DE08002202073204600F027
:10E6D0002CF90028E8D0E088001FE080812010BDE0
:10E6E000817802221143FB22114081700021817147
:10E6F0007047000010B5074909684B6B2C2148434F
:10E70000014612315A5A891F2630595A185A01F0B7
:10E7100045FE10BDD0270020F7B50446FDF792F95D
:10E72000064621460298FDF7AFF80546002E09D0AF
:10E73000B078810704D4400702D5B079062803D009
:10E740008520FEBD8020FEBD7179019881420DD1EA
:10E7500025488078A84209D924482F460068416B93
:10E760002C204743F81C085CD02801D08220FEBD35
:10E77000202221460020FEF7E5FF04002AD01B4896
:10E780000E3700680722406BC15BA0680273A06867
:10E79000019A4273A06804228273A0680022C273A7
:10E7A000A068029A0274029AA068120A4274A068D1
:10E7B0008174A068090AC1740820E0802146052000
:10E7C000FFF768FF002807D000212046FCF794FEE1
:10E7D0008120FEBD8820FEBD3046FFF781FF284620
:10E7E000FCF7D4FF0020FEBD282A0020D0270020FF
:10E7F000FFB587B01F460546FDF724F906462946B2
:10E800000898FDF741F80446002E08D04248807869
:10E81000A04201D9012F04D982200BB0F0BD802085
:10E82000FBE72046FFF766FF00903079002809D00B
:10E830003A482C2100684C43406B0394E41C005D73
:10E84000112801D08520E8E7002F05D1009909980B
:10E85000884201D98620E0E7202229460020FEF7E1
:10E8600071FF040005D00025002F04D0012F04D033
:10E870003DE08820D1E7099D08E028480068416B09
:10E8800003981A30095A0098401A85B2002D2ED0EC
:10E89000A06816210173A06831794173A068042132
:10E8A0008173A0680021C173A06808990174089958
:10E8B000A068090A4174A068290A8574A068C17417
:10E8C0000820E08021460520FFF7E4FE002805D05F
:10E8D00000212046FCF710FE81209EE73079401C85
:10E8E0000006000E307106D10120307103E00021D6
:10E8F0002046FCF701FE094801684A6B039918316C
:10E9000057540068426B03981A30115A4919115232
:10E9100010980180002080E7282A0020D0270020BE
:10E9200010B5806800F011F810BD10B5002101820B
:10E930008174826882614261016001F059FD84281E
:10E9400001D0812010BD002010BD0021002804D07E
:10E95000491C006889B20028FAD10846704700298E
:10E9600017D072B60288002A03D0436892009A58E2
:10E97000116010B400238B800288521C92B2028076
:10E9800044689200A15009680029F4D162B610BC15
:10E990007047704710B504460068884209D1026884
:10E9A000226000220260206800280BD1626009E02A
:10E9B000104602688A42FBD10A68026062688A4295
:10E9C00000D160600846FFF7ABFFE189081AE081DB
:10E9D000A089401EA08110BD014605480068406D19
:10E9E00003E042888A4202D0006A0028F9D17047C9
:10E9F000CC2700201FB50446694601F089FD002898
:10EA000008D16846FDF7CEF8002803D1217804220A
:10EA10001143217004B010BD074902460968002067
:10EA2000C96A05E0CB88934201D108467047C9689E
:10EA30000029F7D170470000CC270020F0B50578F9
:10EA40000024102D3BD00DDCAD1E032605272B0026
:10EA500001F000FE0D1E162016221625161E162089
:10EA6000162D16001E2D42D006DC122D30D0162D8C
:10EA700038D0182D04D138E0522D29D0D22D27D0EE
:10EA800086241088884200D2014611802046F0BDBD
:10EA90001680F6E71780F4E74089C01D16E00723CB
:10EAA00013808068007C8028EBD115200EE000796F
:10EAB0004000401C10808842E3D98620F0BD072327
:10EAC00013808068007C8028DBD111201080D8E77B
:10EAD000C388DB1C9BB213800078D228D1D10C33C1
:10EAE0001380CEE70089401DF0E70220EEE7012009
:10EAF000ECE70000FFB581B00C4698680A9E0978E3
:10EB0000017320781D46174610287BD00BDC801E31
:10EB1000030001F09FFD0D17AB1FAB26AB42AB57B7
:10EB2000AB5FAB6EAB001E287DD006DC122808D090
:10EB3000162879D0182876D1AFE0522879D0D2287B
:10EB400071D176E0A868022256490D30F7F76AFFC6
:10EB500003208AE02846E288A18801F088FD05208C
:10EB600083E0E288A188284601F081FDA86821465B
:10EB7000022208311130F7F755FF6089C11DB942F3
:10EB800001D9384600E0C01DC01F82B20B212846C3
:10EB9000E368FEF79DFE072067E0E288A18828462B
:10EBA00001F065FDA368187C802807D002220921A6
:10EBB00028460C33FEF78CFE092056E0102209216E
:10EBC0002846F7E7A8680222211D0D30F7F72AFF33
:10EBD0000B204AE0A8680222211D0D30F7F722FF22
:10EBE000A8680222A11D0F30F7F71CFF0D203CE0A2
:10EBF00008E0217928464A000521A368FEF768FE4F
:10EC00000F2032E0E288A188184601F030FDA368A9
:10EC1000187C802809D00222092128460C33FEF7EF
:10EC200057FE112021E021E023E01022092128468F
:10EC3000F5E7A8680222211D0D30F7F7F3FEE28800
:10EC400007212846A368FEF743FE2078D22802D089
:10EC5000122809D00AE038460C38E8800198294685
:10EC6000C08801F013FD01E013203070EF8005B083
:10EC7000F0BDA8680222211D0D30F7F7D3FEA86869
:10EC80000222A11D0F30F7F7CDFE22890921284667
:10EC9000E368FEF71DFE1720E7E7A86821794173B6
:10ECA0001920E2E7162A002010B50446084601F0B4
:10ECB0001BFD80000019C1B20448034B002200680C
:10ECC000FDF741FB10BD000030750000CC2700208F
:10ECD00010B5C2880446121D0021806892B2FFF769
:10ECE0003DFA21460420FFF7D5FC002805D0034853
:10ECF000214600689C30FCF7DFFE10BDCC270020C9
:10ED000010B50446084601F0EFFC80000019C1B2BE
:10ED100002480068FDF78BFB10BD0000CC270020E7
:10ED200010B50C46FBF788F800199C3010BD10B5E3
:10ED30000C46FBF781F80019A030007810BD0000E8
:10ED400080B500BF00BF024A11001820ABBEFBE730
:10ED50002600020058B50400F8F7EBFD06006846EF
:10ED600001F0CCFC002803D00098801B844201DA1B
:10ED7000012052BD002052BD10B502F037FB424CBD
:10ED8000211D002002F056FB21001431012002F069
:10ED900051FB201D206010BD3EB53B4C022802D126
:10EDA0002500143500E0251D256001936B461B8B63
:10EDB00000930B000100206802F07CFB002805D0C6
:10EDC000022801D1002000E00120C0433EBDF8B57B
:10EDD00084B00E0019002C4C022E03D125001435EE
:10EDE000012301E0251D00230700256028466D460C
:10EDF0006A8103910A9D022F08D102A900912B007C
:10EE0000039A6946498902F03FFB0FE0002F03D1C6
:10EE10000100180002F00EFB02A801900095039B70
:10EE2000684642893100206802F018FB010001D1D8
:10EE3000002005E0042801D1022000E00120C043A9
:10EE400005B0F0BD10B5140023000A0001000E4803
:10EE5000006801F0E1FD002804D001D5200010BDBC
:10EE60000220C04310BD80B5022807D106490868BA
:10EE70001431884207D002F095FB01BD032802D16E
:10EE8000002002F0EFFB01BDE429002010B5094885
:10EE9000006834300068C04608E08168097B4A0693
:10EEA00003D41E2901D0012010BD00680028F4D130
:10EEB00010BD0000CC27002010B50021044802F04E
:10EEC00033FD862801D0002010BD012010BD0000B8
:10EED0008B21041070B50A4D286834300068C04694
:10EEE00004460AE02868214626683430FFF752FDC0
:10EEF00001212046FCF700FB3446002CF2D170BD06
:10EF0000CC27002030B50949034600200A68682153
:10EF1000895A07E0C400D56EA41C2C5B9C4204D225
:10EF2000401C80B28142F5D8014830BDCC2700207A
:10EF3000FFFF000007490A68D16E4032528DD200AF
:10EF4000083A8A18904203D8401A4003000C7047D0
:10EF500001487047CC270020FFFF000010B502F0E9
:10EF6000F7FC408810BD0000F8B50E460246FCF7DD
:10EF7000B5FF050036D0B24234D8AA4232D8104686
:10EF800000F048F81849044688422BD0AE4200D918
:10EF90002E46304600F03EF80746144800684030E0
:10EFA000018D491EB94215D9781C264685B20BE061
:10EFB000C06EE9004118F20080180822F7F732FD10
:10EFC000761C6D1CB6B2ADB2084868210068095ABB
:10EFD000A942EDD805483A1B00684030018D891AD6
:10EFE000491E0185F8BD0000FFFF0000CC2700206E
:10EFF00010B502F0DDFC0549884205D00449C00087
:10F000000968C96E081810BD002010BDFFFF000080
:10F01000CC27002010B50446FFF774FF064988424C
:10F0200008D0064A1268D36EC200921C9A5AA242B5
:10F0300000D0084610BD0000FFFF0000CC270020D4
:10F0400010B500282DD0017D102902D0802928D1AB
:10F0500006E0028A144B9A4202D18269002A20D02B
:10F06000827824231A4203D04378DB1F0A2B18D25C
:10F07000102914D1018A29231B02994205D01C1D95
:10F08000A14202D05C1DA14209D10478012C08D113
:10F09000002A06D1994202D18069002801D00020BF
:10F0A00010BD822010BD00000229000010B50446EA
:10F0B0000846FFF727FF07490968C96EC2008A5C46
:10F0C000A24202D1C000081810BD0028FCD0401E8A
:10F0D00080B2F3E7CC27002070B50446F8F7C6F8F5
:10F0E0000146CB1D0B250020F933AD014919094A12
:10F0F0000D7D0BE0FF2109315E68414371188031BD
:10F10000C98BA14200D10246401CC0B28542F1D851
:10F11000104670BDFFFF000070B504460546C034C0
:10F12000E07EF9F735F8E07EF9F744F8A07EF9F7CC
:10F130002FF8A07EF9F73EF80021217161712C466D
:10F14000E0346078FF2801D000F0FBF9FF20607008
:10F1500070BD0000F8B504462746E037FF2026467C
:10F1600078708036307EC00704D000F019F97870CE
:10F17000FF287DD0F8F7BAFD2546C035A876FF28D0
:10F18000307E77D0C00604D4F8F7B0FDE876FF28CB
:10F1900078D020462C30E06410302065E87FC0072E
:10F1A0007AD0E06CE16E0160E06C216F4160E06C50
:10F1B000E16D8160E06C216EC160E87F02280AD3B6
:10F1C000214600225C31E06CF2F77DFEE06C00210C
:10F1D0000830F2F77CFEE06C8168206D8160E06CA5
:10F1E0000168206D0160E06CC168206DC160E06C59
:10F1F0004168206D4160606F002804D0F8F799FBEA
:10F20000616F41186167012027462871A037F87D9A
:10F21000FDF763FD6877012000902346797EA87E84
:10F2200014332246F8F786FDA87E5021484326492C
:10F230004018C16D3F221202914327221202891801
:10F24000C165A87E502148431F498031401841685C
:10F2500025220902090A120689184160307EC0067B
:10F26000204620D4F2F709FE1FE001E002E009E0A9
:10F270000C20F8BDC00702D0787800F062F90720B2
:10F28000F8BD09E0307EC00702D0787800F059F967
:10F29000A87EF8F75BFFF2E70C4800220168E06CFB
:10F2A000F8F7B4FF83E702F0B5FBA87EE16FF9F74A
:10F2B000C5F8E06FF8F782FD012802D0A87EF8F7C4
:10F2C0008DFD0020DCE7000080000020BC2700202E
:10F2D0000EB507A109680191002103460548029176
:10F2E0000091006802AA01A9183002F0E5FB0EBDEA
:10F2F00001000000BC27002070B588B016460C46FF
:10F300000546102200216846F7F792FB03222146AA
:10F310006846F7F787FB04AA6946284600F040FBD9
:10F32000032204A93046F7F77DFB08B070BDF8B59D
:10F3300007460E4605460837FDF75BFB0091297826
:10F340000446491DC840C008301A06B2387B761EF4
:10F35000002802D03846F8F7B7FA2A783046F11775
:10F36000083202F0BDFB009B02194B413846F8F70A
:10F370005DFAC0B2F8BD10B542780024914206D1C2
:10F38000017D0830002908D0F8F79EFA05E0426AAE
:10F390004900515EFFF7CBFF0446204610BD000038
:10F3A00010B5FF240020FAF747FD0E490023096835
:10F3B0002031097D09E0FF2219325A431218203208
:10F3C000127B002A05D05B1CDBB29942F3D82046A1
:10F3D00010BDFF221C46193253430121181820305A
:10F3E0000173F4E7BC270020FEB50E460346F7F78D
:10F3F0003DFF1B01FF3071089C180930012E0DD014
:10F40000D25A13028A00121880329360638841181E
:10F410001B0213610122FF3121318A700546FF353D
:10F420002135E97904221143E971B10001910F18E6
:10F43000BB6A2289A18860890E3302F063FBA87B36
:10F44000FAF7FAFC0090A0884502304602F0B4FBBF
:10F45000A189814200D2A081E189814200D2E0816C
:10F46000A1890320032900D2A081E189032900D2C8
:10F47000E081E089009A0102019880180165FF226D
:10F48000284602F0BBFB0446F8F753FA0146204633
:10F49000631A0022DC0F0126744003D1DB435B1C9E
:10F4A00000E052199A42FCD3002C02D0801A401975
:10F4B00000E08018884200D14019FF370137B8605A
:10F4C000FEBD70B5F7F7D2FE0146CB1D0B24FF221F
:10F4D0000020F933A40109190C7D0CE0FF2109314A
:10F4E0005D68414369188031C98B090B01D0024620
:10F4F00003E0401CC0B28442F0D8104670BD00004A
:10F5000010B5904216D98AB2030C090C0C46594327
:10F5100080B25343444350431B191A041B0C101868
:10F52000594180225203002312184B41520DD80238
:10F53000104310BD4843802252031218520D10464A
:10F5400010BD00B5FAF778FC00212030017300BD32
:10F5500004480168A220085E0D2148434030C011D4
:10F5600070470000D827002000E08018431AFCD420
:10F5700070470170090A4170704700000549252253
:10F580004143090C5143401A80B2252800D3253845
:10F59000C0B27047EB06000010B5012814D0042853
:10F5A0000AD0C90006280CD070310802FF30084983
:10F5B0000130F2F72AFB10BD88013D2109014118F5
:10F5C000F3E7FF31C431F0E789003C31EDE700009B
:10F5D0007102000008B56420694608700948816915
:10F5E0000122114381616A461178491E1170C16977
:10F5F000C907C917491C02D111780029F3D1107825
:10F6000008BD000040000060F7B50298860800249D
:10F610000DE00098A7003D182846F2F719FE00BA41
:10F62000000AE978000208430199641CC851B442F9
:10F63000EFDB0199029A084602F0A6FBFEBD00002E
:10F64000FFB5D908490083B0891D0291036811688C
:10F6500054684B404168956861408468C0686C405C
:10F66000A446D4681E0E60408B4CC5B2A65D655D95
:10F670003606354367460E023F04360E3F0EA65D42
:10F68000E75D36043F023E433543AE460F0EDDB222
:10F69000E75D665D3F063E4365462F0205043F0E6B
:10F6A0002D0EE75D655D3F042D022F433E43CDB235
:10F6B0000096665D65462F0EE75D1D043F063E43DE
:10F6C00007023F0E2D0EE75D655D3F042D022F43BF
:10F6D0003E4301966546EDB2070E665DE75D0D049B
:10F6E0003F063E431F023F0EE75D2D0E645D3F0463
:10F6F00024022743029C3E43641E10320294002CD5
:10F7000063DD664C70462040430070466449C00982
:10F7100008401B2148434340704658401821C841C7
:10F72000434070461021C841434070460821C841FB
:10F73000434010685A4D43400098594F20404100C3
:10F740000098C00928401B256843414000981825AF
:10F750004840E841414000981025E8414140009868
:10F760000825E84141405068019D41400198ED095C
:10F7700020403D4040001B277D436840019F0546D7
:10F780007D401827FD416840019D1027FD416840DC
:10F79000019D0827FD4168409568684084463046D1
:10F7A00020403F4DF4092C4040001B256C43604035
:10F7B000044674401825EC41604010243546E5416C
:10F7C00008246840E64170404BE7334CC5B2665DA3
:10F7D0001D0E645D240626430C02250E2E4C645D2E
:10F7E00065462D042F0E2C4D2404ED5D2D022C4377
:10F7F0002643294C0096DDB2655D0E0EA45D2406FD
:10F80000254364462402260E234CA45D0604370ECD
:10F81000214E2404F65D360234432543AE461E4C89
:10F82000CDB2645D65461C4E2F0EF55D2D062C4352
:10F8300005022F0EF55D1F042E043D0E164F7F5D51
:10F8400065463F023E433443EEB2134DAF5D050EB5
:10F850001148405D000607431802030E0E48C05CC5
:10F8600009040B0E0C490004C95C936809020843A3
:10F8700007431068009E63405168049C7040D26842
:10F880002060754604986940416004987A4083601E
:10F890000498C26007B0F0BD14CF05107F7F7F7F52
:10F8A0000101010100B5074800684830807CC106AD
:10F8B00001D5012000BD800601D5032000BD02F066
:10F8C0000BFB00BDC427002000B5FAF7B5FA7C3069
:10F8D00000BD000070B5114A01231268834312680D
:10F8E0009B00491E81249B184909491C89B272B6A4
:10F8F00015898D420ED31E885B88AD19ADB25B1899
:10F90000AB4207D88000135A00245B1813521089A9
:10F91000401A108162B6204670BD0000DC2700202E
:10F920000C4AC9028918090C72B602888A420ED99B
:10F93000511A8AB2511E89B201804368900018584A
:10F94000002905D08900595800220A6000E00020F3
:10F9500062B6704700F8FFFF70B503460F480024F9
:10F96000006801254830807C0A468006800F002808
:10F9700004D00D70184602F0B9FA07E0FFF792FFC5
:10F98000002805D01570184602F0BAFA204670BD5E
:10F9900000201070184602F0BDFAF7E7C4270020D7
:10F9A00010B50024FDF752FD204610BDFFB50446FA
:10F9B0005009000681B01F46000E06D0002C23D04F
:10F9C000401E24680006000EF8D1D606F60E17E099
:10F9D0002020851BBD4200D33D46A0192A46083091
:10F9E0000299F7F71FF80298711940190290781BD5
:10F9F00087B2A088884201D2A819A0802468002676
:10FA0000002F04D0002CE3D1812005B0F0BD0020F0
:10FA100005B0F0BDF8B51D460E466B46002A09D06C
:10FA2000002824D08488944204D8121B1204006851
:10FA3000120CF5D11A80040019D014E06846A18890
:10FA40000088091A8FB2AF4200D32F4621183A46D8
:10FA500030460831F6F7E6FFF619E81B85B2246850
:10FA6000002069460880002D03D0002CE6D18120BB
:10FA7000F8BD0020F8BD000070B500281CD00305BB
:10FA80000F480E4A00681268203000211B0D047DCB
:10FA900080320FE008467C267043956A0830285A69
:10FAA0000005000D984203D17C225143681870BDB7
:10FAB000491CC9B28C42EDD8002070BDE02700205F
:10FAC000BC27002070B50F4D06460024286806228A
:10FAD0008030C16AE000801C08183146F6F7B2FF9A
:10FAE000002805D0641CE4B2032CEFD3812070BD44
:10FAF0002868E1008030C06A405C0006F6D500202E
:10FB000070BD0000E0270020C007C907C00F490FE3
:10FB10000843D107090F0843D907C90E08437047A6
:10FB2000F0B50724059E069DC48084684427217390
:10FB3000094C81682468D2073F5D4F738168D20FFA
:10FB40008A7381682034CB738168E27E0A7481688D
:10FB50004E7480688574F0BDE0270020F0B587B052
:10FB600004461C2225496846F2F716FB217E032233
:10FB7000C84383072248002B006805D0E37A9C46DF
:10FB80001B0705D5CB0701D0E2771FE08907FBD41F
:10FB9000E17E0523194215D0637E014640319E0067
:10FBA0000D799E196F46F619AD5DE577002D0DD1E3
:10FBB00065462D0708D4012B02D10979012901D00E
:10FBC000022102E0012100E00421E1772030407EA3
:10FBD000C007C00F02D0E07F012806D0E07A0007FE
:10FBE00009D5E07F022804D005E0E277862007B03F
:10FBF000F0BD0020E0730020F9E70000BC160610FD
:10FC0000E0270020884200D808467047884200D389
:10FC10000846704710B5FAF7FFF910BD04480168AF
:10FC200001221143016001689143016070470000A7
:10FC300000003048F8B50C4E054630680068C046F4
:10FC40002F0504463F0D0CE0A0882568B84207D177
:10FC500021463068FEF79EFE01212046FBF74CFC52
:10FC60002C46002CF0D1F8BDE027002010B501682B
:10FC70006031097DCA070168897A0ED0B02909D39D
:10FC8000F02907D806490A68403291798B0701D0DC
:10FC9000491E9171F2F7C0F910BDA029F0D2F9E721
:10FCA000E0270020F8B5002407460126354D0094D2
:10FCB0000CE08030C16AE000801C08180622B91CE4
:10FCC000F6F7C0FE002824D0641CE4B22868452161
:10FCD000095CA142EDD802464032517903293ED059
:10FCE000491C51712868E6008030C16AB01C0818B0
:10FCF0000622B91CF6F796FE296880208031C96A71
:10FD0000641C214B8855E2B201210020FDF74CFE16
:10FD1000F8BD2868E1008030C26A8023505C184337
:10FD200050542A688032D26A830705D5174BC5071D
:10FD300012D1304350540FE0C3070AD002231843B6
:10FD400050542A6840088032D26A40005054104B08
:10FD500002E030430F4B5054641CE2B2D4E700245D
:10FD60008030C06AE100415C4906BBD4641CE4B247
:10FD7000032CF7D30121002432460846009BFDF7EF
:10FD800013FEAFE7E027002088130000580F0200A1
:10FD9000C8AF0000983A0000F8B51D46044601239C
:10FDA00016460F46C00603D51F22BF20044008E0B8
:10FDB0000F48006880304078800701D40020F8BDEB
:10FDC0001C222007000F032810D20A49800009686E
:10FDD000401800692146FAF7A7F9010006D08F8084
:10FDE0008E71CD712046FAF7F9F9E7E70720F8BDE3
:10FDF000D8270020C827002010B5040007D0022310
:10FE00000022A16802F090F8010003D00CE061200C
:10FE1000400110BD102020610020024683001B1904
:10FE2000401C5A610428F9DB084610BDF7B592B0B2
:10FE30000F46040004D0002F06D11498002803DDDB
:10FE40006120400115B0F0BD1498002804DB102893
:10FE500004DA2079800601D49448F3E72079410739
:10FE600001D4810702D59148401CEBE740210843AB
:10FE700020712046143000250F90143001901EE0B0
:10FE80000026B00004904019C0190390F2F7E0F981
:10FE900000BA010A03980902C07807AA014304982E
:10FEA000761C0019406941400498042E1150E8DB8B
:10FEB000636A07A8019A0F9902F092F8059D2846F7
:10FEC0001030059014998842DADB2079800620D41E
:10FED00000291EDD0026B00004904019C0190390CF
:10FEE000F2F7B6F900BA010A03980902C07807AA26
:10FEF00001430498761C0019406941400498042E7F
:10FF00001150E8DB636A07A8019A0F9902F068F8BC
:10FF1000CAE000200B900C900D900E900BA9636A24
:10FF20000846019A02F05CF80B988721C00F4843FD
:10FF30000B990C9A4900D20F11430B910C990D9A11
:10FF40004900D20F11430C910D990E9A4900D20F1E
:10FF500011430D910E99149A4900414028461030E2
:10FF60000E9190421CD10026B00002904019C01999
:10FF70000490F2F76DF900BA010A04980902C078FA
:10FF80000BAB01430298761C00194269029818587D
:10FF900042405140029807AA1150042EE4DB79E058
:10FFA0000B988722C00F50430B9A0C9B5200DB0F1B
:10FFB0001A430B920C9A0D9B5200DB0F1A430C92C2
:10FFC0000D9ACB0F52001A430D924A0042401498EA
:10FFD0000E92401B0390C017820F03980026101842
:10FFE0008010029019E0B00010904019C0190490E0
:10FFF000F2F72EF900BA010A04980902C0780BAB97
:020000041005E5
:100000000143109800194269109818584240514015
:10001000109807AA11500298761CB042E3DCB00099
:1000200001190BAA49691258514007AA1150039BA4
:1000300000211B1A42199C4696460BE07246521844
:10004000BA5CCD0018235B1B9A4007AB1D586A4071
:100050001A50491C8C45F1DC002909D0CD0018212B
:1000600007AA4D1B13588021A9404B40135005E0AF
:1000700007A90A580123DB075A400A5007A90BAA0F
:1000800005E0B00003195B6915586B400B50761CF6
:10009000042EF6DB636A07A8019A0F9901F0A0FF0E
:1000A00020790421084320710020CBE61D0C0000BC
:1000B000F8B516460F46040009D0002E07D0254695
:1000C0008035E86D401E102804D31348F8BD612028
:1000D0004001F8BD2079400604D400221146204694
:1000E000FFF7A4FE20790221084320710020182187
:1000F0000CE0C217920F121892089200121983078F
:100100005269DB0ECB1ADA403A54401CEA6D824247
:10011000EFDC00203260F8BD1F0C00000021002839
:1001200004D0491C006889B20028FAD14805000CA7
:100130007047000030B400230C1E22D020339BB245
:1001400093421AD30A68002A39D072B60388002B6A
:1001500003D044689B00E3581A600023938004880E
:10016000641CA5B205804468AD0062511268002A83
:10017000F4D162B60020086021E00C46096800292D
:10018000DCD1D11A0904114A49098918090C72B63F
:1001900002888A420ED9511A8AB2511E89B2018050
:1001A000436890001858002905D089005A5800214A
:1001B000116000E0002062B62060002802D030BC50
:1001C0000020704730BC86207047000000F8FFFF19
:1001D000FFB599B00446012310226846229F259E50
:1001E000279DFDF76DFF0123102204A81B99FDF741
:1001F00067FF0123102208A81C99FDF761FF012366
:10020000032239460CA8FDF75BFF08A82399C174A7
:10021000012306220DA82499FDF752FF08A886762F
:10022000012306221B302699FDF74AFF01231022E5
:10023000214615A8FDF744FF11AB15AA41216846D8
:10024000FDF76FFF0123102211A92846FDF738FFA3
:100250001DB0F0BDF8B5144E0F46317801250029C8
:100260001FD101460120FFF7D5FC012807D000244B
:1002700039460220FFF7CEFC012802D002E001241B
:10028000F6E7641C394620310320FFF7C3FC012840
:1002900000D1641C002C04D1FFF7C0FC0220307098
:1002A00000252846F8BD000006280020FFB581B0D3
:1002B0001E460F460A9C0198F9F7BEFD05460198B7
:1002C000F9F7CAFD002801D0042F14D0A08820809F
:1002D000012F25D080080F3881B28035288D8842C3
:1002E00000D20146002E1ED0E089884200D3084685
:1002F000688505B0F0BD008802280DD00121039863
:1003000000280BD060892080FF387938C840074921
:1003100040034018010CE0E70321F0E72089F2E7F1
:10032000C0080E38D8E76985E3E7000000A0F6FFB3
:10033000F8B51D460446022316460F46C00603D5EF
:100340001522BF2004400BE0124800686030017C99
:10035000890602D5807E000701D40020F8BD122254
:100360002007000F032812D20B49800009684018AB
:1003700000692146F9F7D8FE010008D00F71CE8040
:100380000D72069A4A722046F9F728FFE5E7072022
:10039000F8BD0000D8270020C8270020F7B50020AE
:1003A0001546002A21D0891C8CB211466018401EC7
:1003B000F1F72BFC86B2002C18D021460098F1F7FB
:1003C00024FC074600987C43001B80B22946F1F7C5
:1003D0001CFC7E4330180004000C06D00146009A35
:1003E0006943914201DD401E80B2FEBD0020FEBD8A
:1003F000F8B5054602268088FBF742FC04002BD0A6
:1004000072B600202860606F002827D0A06F0560BA
:10041000A56701F0E9FD0546F7F78BFA0122920284
:1004200080182946064601F0E4FD012818D001F0A5
:10043000E5FD254603462035287CFAF721FA0028F9
:1004400008D0687F984205D0A08E002802D00120F5
:10045000E034607762B684263046F8BD6567D7E73A
:1004600025462035287CFAF70BFA002807D0A08E05
:100470000028EFD0287C314601F0C6FDEAE701F004
:10048000BDFD697F8142E5D1A668E06F0004C70F1A
:10049000287C01F041FE0090287C012101F044FEFF
:1004A000014620462830864220D1002F1ED1009AD6
:1004B000012A1BD0676F1549387C0968C006803156
:1004C000C00EC96C801C4618A6603946204601F053
:1004D00035FE2767287C0121FDF728F90028B9D0CF
:1004E00070780028B6D0001D7070B3E78642B1D096
:1004F0008E42AFD0002FADD100980128AAD0A068BD
:100500001022017811430170A4E70000D8270020D1
:10051000F8B542884A800779024600250824022659
:100520000C323B0000F096F8128E0A0C123D29297D
:1005300032363D444D5660876060878E0E7082E093
:1005400010230B7000898880404813E006230B704D
:100550000523DB020B8103898B803C4BCB80037F1F
:10056000102B03D010204881CA606CE04E811830F7
:10057000C86068E0C8808A6065E042884A800C7084
:1005800002898A804089C880314821E042884A80B7
:10059000042210E042884A800A220A70008988807A
:1005A00051E043884B800C7003898B804089E1E7E0
:1005B00042884A800C220A7002898A804089C88059
:1005C00041E042884A800E220A70027A0A7109E0EC
:1005D000886038E042884A8012220A7002898A8044
:1005E0004289CA80C068F3E70F4604460169407A31
:1005F0000C2250430E18608878806088FEF70CFA51
:100600000146B2886089121A8888411F89B28A42DD
:1006100001DD401F00E01046A081162139703188AD
:10062000B9803881708861894018F8806189B06824
:100630004018F86007E042884A8018220A70007A61
:10064000087100E086252846F8BD0000FFFF000085
:10065000F027002030B47446641E2578641CAB4239
:1006600000D21D46635D5B00E31830BC184737B508
:1006700004468068022201A90D30F6F7D3F9A0687C
:10068000022202A90F30F6F7CDF93EBD70B588B051
:100690000E46FFF7F1F9050024D0694601F08EFD02
:1006A000F4882B46241DA1B2103304223046FDF7F6
:1006B0000FF9E2B204AB3146684601F093FD201D0C
:1006C00081B206AB08223046FDF702F90834F48007
:1006D0002869411C04D0401C2861002008B070BD6E
:1006E0000020F9E78020F9E700B5FEF795F900282A
:1006F00001D0007800BDFF2000BD0000034909685B
:100700004A6D54310260087900097047D8270020EB
:10071000FEB51C00089FBE4D6B46587068460170C0
:1007200016001CE00422A9192C3101A8F1F74EFD96
:10073000002F0FD101A8C07869464978884209D1B5
:100740006846007806280FD06846007801A98978A5
:10075000884209D0684680883618B6B20027688D6E
:100760008642DFD10020FEBD002C00D02680012073
:10077000FEBDA84A514380081B22424388182530F9
:100780007047F8B584B004000F001600A04D607BE0
:10079000002802D12A8D002300E0E289009301ABFA
:1007A00001212078FFF7B4FF002801D1042019E0CF
:1007B0000120607368468088E081684680882C1834
:1007C000062221002C3102A8F1F700FD2000323072
:1007D000386068460089801F308002A800790A9935
:1007E0000870002005B0F0BD7CB5894D298D6A46A2
:1007F00091800021060019E0684680882C180422A8
:1008000021002C316846F1F7E1FC00F074FC6946E8
:100810000988421A61182C3120002C3001F046FD65
:10082000688D69460988401A68850121009101ABED
:100830006846828806213000FFF76AFF0028DBD176
:1008400073BD016800220281428182730B78FF2B05
:1008500005D0FE2B09D103895B1C03810AE04268A5
:10086000511A091F818100207047002B0DD1438947
:100870005B1C43814A88D21C032313435B1CC918A9
:100880004A1D43689A42E1D3EDE703207047FCB567
:1008900085B00D9F427B002A1BD10C9A130005D016
:1008A00002AB5A80FE221A7002AD00E04568426831
:1008B00083689A4215D26A4691712978FF29544E6D
:1008C00001D10EE020000021027B002A12D001732A
:1008D0001EE000970123069A0599FFF752FF0028B2
:1008E00047D0042045E0032043E06A786B469B79BB
:1008F0009A4216D042686B88DB1C03241C43641C9C
:100900001519456082689542E3D22A78FF2AE0D023
:100910002A78002AEED0FE2AE5D16A469279FF2A8B
:10092000E3D1328D6B469A8004000CE008226846C1
:10093000808831182C3103A8F1F748FC04986168CD
:100940008842BFD00121009101AB68468288022114
:100950002078FFF7DDFE0028E8D16068001D0599CA
:100960000860688806990880002F01D06878387080
:10097000002007B0F0BD7FB515001C00099E0022C5
:1009800032800B9A01926A46128D009202AB03AA42
:10099000FFF77DFF010013D1694609898D4201D31C
:1009A00006200DE0089A481B904200DA0200200061
:1009B00003994919F1F70AFC684600893080002044
:1009C00004B070BDFEB5B44D0D40491B6B461970A7
:1009D0000024070016000AE00422311901A8F1F7EB
:1009E000F5FB019A3919AD4801F078FC241DAC42A1
:1009F000F2DB0020C043019068460278711901A81B
:100A0000F1F7E4FB019A7919A44801F067FCF7BDFE
:100A10000828002034230000F6B585B00E001C0025
:100A200025000027FF43417B002918D000210091B9
:100A3000002301AA921C02A9FFF7A3FE00283AD1C5
:100A40006846C088801B80B2A04246D32A00029824
:100A500081190698F7F73AF900283FD03DE0416840
:100A600002918268914202D20978FF2901D10420C3
:100A700034E0027B002A1ED1FE291CD18849098D51
:100A80006A46918004000120009001AB684682888C
:100A900002212078FFF73CFE00280ED00822804873
:100AA0006946898841182C3103A8F1F78FFB049817
:100AB00061688842E7D1052010E0029949888E429A
:100AC00001D306200AE020732A006068001D811906
:100AD0000698F7F7FBF8002800D0380007B0F0BD03
:100AE000FFB585B000270E9A178069460C8C417BB4
:100AF000002919D0009700230E9A01A9FFF741FEA3
:100B0000002846D10E9800886946098B421A68462B
:100B1000008C824200DB220001986946098B411853
:100B20000798F1F753FB50E00F990A0005D002AA8D
:100B30005180FE21117002AD00E045684168826875
:100B4000914202D22978FF2901D104203EE0027BA4
:100B5000002A1ED1FE291CD15149098D6A46918077
:100B600006000120009001AB68468288022130789F
:100B7000FFF7CEFD00280ED0082249486946898833
:100B800041182C3103A8F1F721FB049871688842C1
:100B9000E7D105201AE06846008B6988884201D3B6
:100BA000062013E037736846008B69880A1A694685
:100BB000098C8A4200DB22007168091D0918079818
:100BC000F1F704FB68880E990880002009B0F0BD99
:100BD00038B5050000210420FFF7CBFDEFF31084AA
:100BE00072B6FEF7B7F8002803D184F31088072007
:100BF00032BD2900FF22D243284801F06FFB84F365
:100C00001088002032BDF8B507000E001500F7F778
:100C10005DF800281BD0681EB3490143491C4B03F3
:100C20001B0EB2483818C20A00211C4801F068FBAC
:100C300000240AE06010800F0019801080003258F4
:100C40003919164801F04AFB241DAC42F2D3F1BD1C
:100C500070B506000D00EFF310840DE0012332782B
:100C600000210E4801F04CFB84F310883078401CC2
:100C700030702878401E2870287800280BD0012179
:100C80000020FFF776FD72B6FEF764F80028E5D184
:100C900084F31088072070BDFCFF000000100040A6
:100CA00008280020012101700021418081807047C7
:100CB000F8B58AB005000E0017001C000020009057
:100CC000FF2239003000F0F717FCFE206946087655
:100CD000099508960794109D009C06AE1AE0684698
:100CE000008A6988401A401E03240443641CA4B28D
:100CF00068886946098A091A4A1E03211143491C5A
:100D000089B2059A8A4244DB01209142287049D079
:100D100000206880381B001F80B2059028780028CA
:100D200028D0701C0390A888029004A80190059810
:100D300080B200900898001D03190022FF21099835
:100D4000FFF719FE6946098AA98001000ED168469D
:100D5000008A7080042206A908980019F1F736FA73
:100D60007088C01C032101436418BFE707990C80F9
:100D70000BB0F0BDA888019004A80090059883B23C
:100D80000898021969880998FFF7AAFE0100A6D001
:100D9000EEE70021297005994018688007980780C0
:100DA0000020E5E70020F8E7F1B58B4885440027EF
:100DB000CA48842109016944097814225143411821
:100DC00001914989002901D100208AE00097002380
:100DD000028D06218420000168440078FFF798FC0A
:100DE000002801D009207CE0202000F08AF90028AA
:100DF00001D1082075E006A984200001684400782C
:100E000000F018FB079C04A8FFF74CFFEFF31086D7
:100E100004A803C80AAA03C20CA806A91022F1F765
:100E2000BBF904A8009003AB8022120110A906A808
:100E3000FFF73EFF0500042D08D0002D51D1684674
:100E40008089802109018842E2D103E068468089D7
:100E5000002816D0012168468089FFF78AFC72B607
:100E6000FDF778FF002829D06846828910A9200064
:100E7000FFF7C9FE86F310880127F8022418002D19
:100E8000C6D00898401E18490143491C081BC00AD7
:100E90006946487015482018C00A0870491C684601
:100EA000FFF7D6FE072819D16846427801788420DA
:100EB00000016844007800F0AFF912E086F3108872
:100EC000002F01D107200CE00AA803C8019002916D
:100ED00000940CA80FC800F070F902E00198FFF729
:100EE000B0FCCB498D44F0BDFF0700000000FCEFD3
:100EF000F8B5C84CA54480273F010500EFF31086E4
:100F000002A8290018310622F1F760F904A8291D6A
:100F10001022F1F741F928001830009001AB3A0097
:100F200008A9281DFFF7C4FE040068468088B8425F
:100F300005D0002CE4D068468088002816D0002117
:100F400068468088FFF715FC72B6FDF703FF00289E
:100F500029D06846828808A96869FFF754FE86F39D
:100F600010886869C0196861002CC9D0E868401E03
:100F7000791E0143491C6869081AC00A694648700D
:100F80006869B4494018C00A69460870491C684637
:100F9000FFF75EFE072815D1684642780178287968
:100FA00000F03AF915E086F31088281D04A91022F4
:100FB000F1F7F2F82800183002A90622F1F706F935
:100FC000072006E045482979142251434018FFF7CD
:100FD00038FCC6498D44F0BDC0F7FFFFF8B58D4C15
:100FE000A54400216A469171002400253B4F06006C
:100FF00000E06D1C3079854216DAB0680C21694337
:10100000405C01001422514379184989002900D01D
:1010100001240021009100233A8D0621FFF778FB7F
:101020000028E6D0092055E03500002C24D0802788
:101030003F013A00FF2108A801F088F900240DE0E3
:1010400002A8FFF72FFE02A8009001ABBA1B92B2D4
:1010500008A8811904A8FFF72BFE641C2879844294
:101060000CDAA8680C226243011D8E5804A9805C2A
:1010700000F0E0F90028E3D000202BE00121380047
:10108000FFF777FBEFF3108672B6FDF763FE0028DB
:1010900003D186F3108807201CE03A0008A92868CD
:1010A000FFF7B1FD86F3108800260C4F684684795F
:1010B0000CE0A8680C217143405C142148433818A7
:1010C000FFF7BFFB010000D00400761C28798642A0
:1010D000EFDB200085498D44F0BD0000082800208A
:1010E000C1498A79824201D102207047897C8142BC
:1010F000FAD000207047CE48418D008D081A80B28A
:10110000704770B50400FFF7F6FF0500802040002F
:10111000411BA14201DA002070BDC54E718D401AFD
:10112000A0420BDA2A0030002C30318D41183000FB
:101130002C3001F0BBF8002030857585012070BD92
:1011400070B50C00BA4D6E8D80214900891B2200BC
:10115000914201DA002070BD0100A8192C30F1F78E
:1011600035F830196885012070BDFEB504000D000A
:10117000099F581E03210143491C684601800088CD
:10118000C619B61DB0B2FFF7BCFF002801D1082078
:10119000FEBD01A8012181700680C4700571062181
:1011A000FFF7CEFF684601880898FFF7C9FF3900AE
:1011B0000A98FFF7C5FF0020FEBD1FB588B02020AC
:1011C000FFF79FFF002801D108201EE00E9C684613
:1011D0002021018003218170001D08A91022F0F751
:1011E000DBFF0594684618300FA90622F0F7EEFFE2
:1011F00020216846FFF7A4FF01208D4908AA127834
:1012000014235A438918887300200CB010BD0000C5
:1012100044080000E0F7FFFF7CB504000D00160055
:101220000620FFF76EFF002801D1082076BD684632
:101230000621018004218170C47005714671062168
:10124000FFF77EFF01207A4914225443091988735D
:10125000002076BD0000FCEFF8B5944CA5440700D3
:101260000D0080221201FF2108A801F06FF8002470
:101270001BE00C266643A868805DB84214D004A920
:1012800000F0D8F8A8688019466802A8FFF70AFDA0
:1012900002A8009001AB80200001821B92B208A836
:1012A000811904A8FFF704FD641C28798442E0DB5F
:1012B0002E0080252D0101212800FFF75AFAEFF3B7
:1012C000108472B6FDF746FD002803D184F3108820
:1012D000072007E02A0008A93068FFF794FC84F390
:1012E0001088002001498D44F0BD00002408000052
:1012F000FBB582B003236E495218032515436D1CBC
:101300000CE03778FF2F17D0FE2F01D0002F2BD104
:101310007288D21C1A43521CB21842608268466816
:10132000741D9442EDD342490078142250430818AA
:10133000408900281AD015E00190901B884200D304
:1013400008003B4C80B2A9B26A46128D8918091D6B
:1013500088420DDA0198007814214843201840890A
:10136000002803D00B203DE003203BE0022039E0C1
:101370006846007BFE216A461170694648706846DF
:10138000008D281848800021001D80B2FFF7F1F978
:10139000EFF3108772B6FDF7DDFC002803D187F369
:1013A000108807201EE0009A31007C4800F096FF6C
:1013B000049AA9B2301DFFF705FB0B9A6846018D10
:1013C000ADB27019001DFFF7FDFA87F310882000F9
:1013D0000830019909781422514340180188491CAA
:1013E0000180002005B0F0BDF016061010B50024F5
:1013F0009B480C21614341188A796948142353435F
:10140000C0180368002B11D1012A0FDC0A680260A2
:101410008B88D218426009890182FFF712FA010015
:1014200005D1641C012CE3DD002010BD012010BD9E
:101430000828002010B50200022A01DB012010BD9F
:10144000574B142462439A1813684B6052688A60A1
:1014500001220A7308700020487310BD7FB5504CFC
:101460000578142675436419A47B002C01D00A204A
:1014700008E003940294099C01946C46248C009427
:10148000FFF779FA04B070BD7CB5454C0578142699
:1014900075436419A47B002C01D00A2076BD019409
:1014A000069C0094FFF71CFB76BD0000E0F7FFFFF1
:1014B000FFFF0000F0B585B0060030786C46207163
:1014C000374D68460079142460432818847B002C2B
:1014D00001D0092041E0521E03241443641C878973
:1014E000BC46A7B26A46128DBA18944506DA4089FE
:1014F000002801D00B2030E002202EE06846017366
:1015000004930B9F0020009000232A8D062168463B
:101510000079FFF7FDF8002821D002976846008D7A
:10152000019004980090A3B272686846017B3078FD
:10153000FFF71BFE010010D128000C303178142277
:101540005143401801886A46128DA218521E032387
:101550001343C91A491F0180002005B0F0BD01974F
:101560006846008D0090049BA2B26846017B300063
:10157000FFF7BEFE0100DFD00728EED102976846D4
:10158000008D019004980090A3B272686846017BB8
:101590003078FFF7EAFD0100CED0DEE70010004012
:1015A00008280020FEB50500684E30000E3029786E
:1015B00014225143405C002801D00920FEBD0024C4
:1015C000687B002810D0E8893518062229002C31C4
:1015D0006846F0F7FBFD68468470062269462800DD
:1015E0002C30F0F7F3FD38E06868A96888421DD216
:1015F0000178FF291AD0FE2916D1FFF7E9FA010078
:1016000001D015D129E03000083029781422514347
:1016100040180188491E0180287814214843301859
:101620004189491C418118E00520FEBD0420FEBD12
:10163000072813D16F682D7808260820FFF761FD71
:10164000002801D10820FEBD684606800221817075
:10165000C57001970821FFF773FD0020FEBD000053
:10166000F0160610F0B585B00400384F1421484339
:1016700038180290807B002801D0092063E001A97E
:101680002000FFF72DFD022822D102980568466848
:101690002000FFF7A9F8A0482818C00A694648703A
:1016A000761E9E483043401C401BC00A087000A8AC
:1016B000401CFFF7CDFA072806D16846027841782A
:1016C0002000FFF7A9FD3EE00298FFF7BAF835E0E9
:1016D000012837D101992000FFF7BEFD060013D184
:1016E00000240198007984422ADA019880680C214C
:1016F0006143455C2800FFF777F8142045437819CB
:10170000FFF79FF8641CECE7072E19D1019F08260C
:101710000820FFF7F6FC002801D1082013E0200084
:10172000FFF762F803A8068005218170C470049752
:101730000821FFF705FD012002998873002002E0CF
:10174000300000E0012005B0F0BD000008280020B6
:101750001CB504006946FFF7C3FC022803D1200032
:10176000FFF722FB16BD012803D10098FFF736FCD6
:1017700016BD012016BDF0B58BB00027684C208D3A
:10178000618D884238D02518042229002C3102A806
:10179000F0F71CFD02A88078012808D006D30328A2
:1017A00069D051D3052800D190E071D3B2E0062270
:1017B00029002C3103A8F0F709FD05A903A8C0787A
:1017C000FFF738FE01970097208D231832336846C3
:1017D0008089821F92B203A8017905A8FFF788FDCE
:1017E000050053D1208D6946098940182085618DF7
:1017F00080B28842C3D1A7624A4800214156C8B28C
:1018000014224243A2185389002B03D09389128AD1
:10181000934213D3401CC0B2022800D1002088425A
:10182000EED100210020C0433E4A1170010602D4CF
:10183000C0B2FFF78DFF00200BB0F0BD411C4AB2D3
:10184000022AF1D10021EFE7082229002C31684655
:10185000F0F7BCFC0198FFF7BBF9050016D168460C
:10186000C0781421484320180189491E018141890B
:10187000491C4181B6E7202229002C3103A8F0F74A
:10188000A5FC03A8FFF734FB0500ABD02800D3E785
:10189000062229002C316846F0F798FC6846411D65
:1018A000001DFFF7D5F905000622694620002C30FF
:1018B000238DC018F0F78AFC002DE7D16846C07868
:1018C000142148432018FEF7BCFF8BE708222900AB
:1018D0002C316846F0F77AFC01996846C078FFF72A
:1018E000BBFC0500D2D10025019801798D42ECDACC
:1018F00080680C216943465C30006946C97888429B
:1019000001D0FEF771FF14204643A019FEF799FF9E
:101910006D1CE9E70C208FE70000FCEFFF070000DB
:1019200008280020932A002070B50E460749054676
:1019300009680020CC6A05E031462046A847002807
:1019400002D1E468002CF7D170BD0000CC27002044
:1019500070B504460078022803D0002801D0204644
:1019600070BD2046FDF7E6FA401C81B20F4868239F
:101970000268985A0EE02378022B02D0002B10D078
:1019800006E0D36ECD005B5D022B05D0002B03D0AB
:10199000491C89B28842EED8D26EC80008381018A7
:1019A00070BDD36ECD005B5DF0E70000CC2700205A
:1019B000FFB50F4681B01546B84223D8134E3168A3
:1019C0004031098D00291DD0FDF79CFA04463846A8
:1019D000FDF798FA014632686820805A401E884216
:1019E00000D281B220460BE0D46EC300E65CAE426A
:1019F00004D11B1DE458049B9C4204D0401C80B2BF
:101A00008842F1D9024805B0F0BD0000CC27002083
:101A1000FFFF0000F0B589B00446F5F727FC244825
:101A2000204B214A214904AD0FC5626DE06F0126AC
:101A30000092052101AB43C32546C0357D23A87E16
:101A4000DB0032462146F5F78BFCBA20005D012809
:101A500025D0184FF5F7A6FC0190F5F7ABFC0290E6
:101A60000096A97E4D232046019AF5F7A7FC009722
:101A700001962046A97E4D231430029AF5F7E2FC28
:101A800020462030C17820221143C170F5F751FF64
:101A9000E0670021204600F063FC09B0F0BD462756
:101AA000D8E70000A9190610F16C0510956F051014
:101AB00061230510EE0200007FB50024009401941C
:101AC000029403940D786C46257049786170117802
:101AD000A1705178E1701A466946FDF761FF7FBD3C
:101AE000D2B2203A03D30100914000207047524205
:101AF000D0415242203291404140D040904041403C
:101B000070470000FFB581B01C4603260127FBF794
:101B1000BBF80546FBF7B8F800044540284600F03E
:101B200013FD0128F3D12570280A6070280CA070DD
:101B3000280EE070FBF7A8F80546FBF7A5F80004AF
:101B400045402571290A6171290CA1712046E67171
:101B500039460830FDF70DFD20460A300299FDF7A1
:101B600008FD20460C300399FDF703FD20460E309A
:101B70000199FDF7FEFC00F04DFD014620460522CF
:101B80001030F4F74FFFFBF77FF8C0B205072D0FB9
:101B90000C2D04D34006400F40190C38C5B205483F
:101BA0006D1D808A00F03CFD40014019607505B054
:101BB000F0BD0000082A002010B504460120C046F0
:101BC00001280ED029200001002C03D0012C01D0C7
:101BD000A920400106499630F0F717F8401C80B262
:101BE00010BD0448002CF5D0012CF3D00248F1E7D9
:101BF000710200009010000020850000F7B5E2B0EF
