:020000041004E6
:1000000000000120E1160410B5150410B715041006
:10001000AA5555AA45554C420000000000000000BA
:10002000000000000000000000000000B9150410EE
:100030000000000000000000BB150410BD150410F6
:100040005309041057090410B30E0410330F0410A1
:100050008B0F0410BF160410F9160410FB160410C1
:10006000FD160410FF160410C71504100117041024
:10007000031704100517041007170410DF150410E8
:10008000091704100B1704100D1704100F17041094
:100090001117041013170410151704101717041064
:1000A000191704101B1704100000000000000000C6
:1000B0000000000000000000000000000000000040
:1000C00010B5C20018231340FF249C40E243890767
:1000D000090E9940030004D45F489B089B00C01898
:1000E00006E05E4B0007000F0838800880001818F3
:1000F00003681A401143016010BD000081B05848E8
:10010000016802220A430260002102E000BF009958
:10011000491C009100990629F8DB016804220A4372
:10012000026001B0704780B54E480068002811D1C8
:100130004D48006800280DD001204C49886000F02F
:10014000D7FBBFF34F8F4A484A490860BFF34F8F30
:1001500000BFFDE7012002BD80B503210020FFF7AD
:10016000AFFF03210120FFF7ABFF03210220FFF7C0
:10017000A7FF03210320FFF7A3FF03210420FFF7BC
:100180009FFF03210520FFF79BFF03210620FFF7B8
:1001900097FF03210720FFF793FF03210820FFF7B4
:1001A0008FFF03210920FFF78BFF03210A20FFF7B0
:1001B00087FF03210B20FFF783FF03210C20FFF7AC
:1001C0007FFF03210D20FFF77BFF03210E20FFF7A8
:1001D00077FF03210F20FFF773FF03211020FFF7A4
:1001E0006FFF03211120FFF76BFF00211220FFF7A3
:1001F00067FF03211320FFF763FF03211420FFF79C
:100200005FFF03211520FFF75BFF03211620FFF797
:1002100057FF01211720FFF753FF00211820FFF798
:100220004FFF03211920FFF74BFF01BD30B50D0033
:10023000AE4C002A0AD0FA21890000F06FFB401E64
:10024000684360600020A060052002E02068012172
:100250008843206030BD000000E400E01CED00E0B9
:100260000800404894004048100050480400002016
:100270000400FA050CED00E0FEB50121002819D0BC
:100280009B480368E024A34320241C430460836D3F
:100290000624A34302241C438465836B0B438363BE
:1002A000836B8B438363836D0B438365806D084051
:1002B000009000980F238F4804698F4DAC4213D1F2
:1002C00004680568066802685202520F02920068CC
:1002D0004001420F0091300C18402E0AF0253540A5
:1002E000240A1C40019404E0082001907025002499
:1002F0000094824C0F26F643276B37403843206327
:10030000E06AF027B8430543E562E06A06400198D9
:100310003043E0623820009D002D0DD0256807266F
:10032000B543029E7607760F2E43266025688543E7
:10033000D20002402A4322603F22D243A56F1540DB
:100340000A262E43A667A56F40262E43A667E56FB3
:10035000154004262E43E667E56F80262E43E667A8
:10036000E56F4026B543E567654D2E6816402E6063
:100370006E681640102737436F60AE68164020271E
:100380003743AF60EE68164030273743EF602E6981
:1003900016403043286168691040392606436E6173
:1003A000A86910403A260643AE61E86910403B2632
:1003B0000643EE61286A10403C2606432E62686AB6
:1003C00002403D20104368625522FF25ED43B648A8
:1003D00006682E4016430660C6682E4066273743DF
:1003E000C760066A2E4032430262026C2A401D2614
:1003F00016430664C26B2A4059261643C663426CF4
:1004000015402D222A434264426A0A4342628A0707
:1004100015681268F0262E4013403343202B63D317
:10042000A24A11705E235370236B9370D1705D23C9
:100430001371E36A53710623009D002D05D091715D
:100440005223D371236813720923D1545B1C1224E5
:10045000DDB254555B1C0468DDB254555B1CDDB243
:1004600051555B1C1524DDB254555B1CC468DDB2CC
:1004700054555B1CDDB251555B1C1A24DDB254553A
:100480005B1C046ADDB254555B1CDDB251555B1C2C
:100490002224DDB254555B1C046CDDB254555B1C48
:1004A000DDB251555B1C2124DDB254555B1CC46B7D
:1004B000DDB254555B1CDDB251555B1C2324DDB20B
:1004C00054555B1C446CDDB254555B1CDCB21155B9
:1004D0005B1C1B21DCB211555B1C406AD9B2505425
:1004E00000205B1CDBB2D054F7BD000010E000E040
:1004F00008004048E81E0010CCECBCFC4816006028
:10050000E8160060F3B581B08020C005016800687E
:10051000F0220A400007000F10430090644E0122B1
:1005200064213000FFF782FE624D28688021490275
:10053000014329600027604C2868800303D42068A9
:10054000C003F9D50427002200210020FFF76EFE2A
:10055000380034D168460079002804D1009810286A
:100560006AD10620FEBDE020C04369460979491ED4
:10057000062950D801A2525C974400BF0846546235
:10058000707E8C00A9680840A86070004B4E3060F7
:100590000122C821FFF74AFE286880218901014312
:1005A00029602868400403D42068C003F9D50527D2
:1005B000002200210020FFF739FE38002CD038003F
:1005C000FEBDA968084020210143A9603000DDE795
:1005D000A968084040210143A9607008D6E7A968CE
:1005E000084060210143A960B008CFE7A96808402E
:1005F00080210143A960F008C8E7A9680840A0214C
:100600000143A9603009C1E7A9680840C02101433E
:10061000A9607009BAE7FEE73021C9439F483268F4
:100620009F4B9A42026804D1114010220A43026093
:1006300004E01140016001E0FFF760FD6846007AC8
:10064000FF2822D00621C943012803D06A46127927
:10065000032A06D1286E01400420084328660120A1
:1006600004E02A6E114002220A432A6600991029EA
:100670000BD18C496A461279012A08D101280ED182
:100680002A20086048680007FCD40020FEBD6A46A6
:100690001279022A05D1012803D12920F1E7002887
:1006A000FBD02820EDE7000048150060E40300209F
:1006B0000048E8010000404810E000E05C03002032
:1006C000F3B583B078487949086079490861794F72
:1006D0003868E02101433960002500240122C82147
:1006E0007548FFF7A3FD754938690191400704D4A7
:1006F0000868C003F8D5012401252E00250000223A
:1007000000210020FFF792FD6D4C002D2ED030000F
:100710002BD100250122962149006748FFF786FD6D
:100720006848796A01407962B96A0840B862A0688D
:1007300065490140802000020843A060E068602114
:100740000143E16020681021014321602068800698
:1007500004D401980068C003F8D5022500220021C6
:100760000020FFF763FD280074D095E0A06857498A
:1007700001408020C0000843A060B8693021884350
:1007800020210143B961A068802149010143A16092
:100790004F4A50694F49884219D11068116815684D
:1007A00013681B041B0F0293136801221E02FC2313
:1007B0009B053340EE091E2535400095CD01E02113
:1007C000890129408501F0208000284007E0D00CF5
:1007D000C021490110220092F0235B050022E56848
:1007E0003D4E2E403343E360E36880252D041D43D6
:1007F000E5601E23DB43002A09D0E2681A40029D0F
:100800006D001543E560E26801251543E560334A54
:1008100015682B40009D1D431560136801251D437D
:10082000156013682E4D1D4028431060106820236A
:100830000343136010682B4B034019431160106889
:100840008021C90001431160B8698021490001433A
:10085000B9615EE76846047CFF2C02D00120FFF7F7
:100860000BFD6846007B204980220A600A681F4B06
:100870001340802292011A430A600A6870239A4347
:10088000302313430B602100FFF73CFE010003D12E
:10089000FFF762FC62B6002005B0F0BD0410004016
:1008A0000090D003005000400000041008ED00E06C
:1008B00004000020040050480024F40010E000E090
:1008C00000004048FFCFFFFFFF7FFEFFFFF3FFFF69
:1008D000E41E0010CCECBCFCFFFFFFC094005048AD
:1008E0003FFCFFFFFFC7FFFF98004048FFC0FFFF2E
:1008F00070474300CA0F00D0494203105A400DD040
:1009000004B500D3404200F009F8009AD20701D3A1
:100910004942124200D5404204BD0000094214D0B1
:1009200088420FD30122030C01D1000412040023DA
:1009300000185B418B4200D35B1A5241F8D3190077
:100940001000704701000020704708B500F002F861
:1009500008BD704770477047F0B597B005001600A6
:100960001F001C986A460023002418C2059104A9A0
:100970002B2288540B9303950F960EE023000F9AB9
:1009800004A9039800F07AFA002800D5D8E001E025
:10099000F4D501240F9800190F900F98007825289E
:1009A00009D10020089009900A90022408210291A0
:1009B00004210F9D0CE06A460021C9430F9800F006
:1009C000A7FA0400E4D10B98BCE002000120104318
:1009D0006D1C2A78202AF8D0232A0AD02B2A04D08A
:1009E0002D2A04D0302A07D009E02043F0E708433D
:1009F000EEE702000820EAE702001020E7E72A2AD3
:100A00000CD13B681A681B1D3B600D92002A03D570
:100A100053420D93014308006D1C14E000210D9119
:100A2000004A0BE0CBCCCC0C0D9B934205DA9E0028
:100A3000F3185B00591830390D916D1C29780B00A3
:100A4000303B0A2BF0D329782E2903D00021C9434B
:100A50000C9125E06D1C29782A2906D139680A688D
:100A6000091D39600C926D1C1AE02D2902D12D232D
:100A70006D1C00E0002300210C910CE0002B09D13B
:100A80000C9AB84EB24205DA9600B21852005118CC
:100A900030390C916D1C29780A00303A0A2AEDD3BE
:100AA00004A908852E783100AFA000F039FA00289B
:100AB00001D06D1C00E0002604A82A214654405CA9
:100AC000682807D12878682804D1622004A92A223E
:100AD00088546D1C11A807902A78681C0F90252A4D
:100AE00013D0582A4FD0632A00D1B1E0642A79D0BC
:100AF000692A77D06F2A46D0702A3BD0732A0AD051
:100B0000752A40D0782A3ED0ABE0012008902520FD
:100B100011A90870AFE038680468001D38600694B9
:100B2000002C14D104A82B21405C00280CD00024F8
:100B3000E44300BF8EA000F0FDF9201A00D19AE036
:100B40000020C04317B0F0BD90A0069093E00C9D2C
:100B5000002D03D5200000F011FA09E02A00002141
:100B6000200000F013FA002801D0001B00E028004C
:100B7000099080E038680168001D3860049111A870
:100B80000690782160E004AB2A20185C622803D02C
:100B9000682807D06C280BE039680868091D39609F
:100BA000C0B209E039680868091D396080B203E005
:100BB00039680868091D39600490188D0299C0B21F
:100BC00008423CD00498002839D0202010437828CF
:100BD00035D1089811A930230B54401C431C0893AD
:100BE0000A542CE004AB2A20185C622803D0682841
:100BF00007D06C280BE039680868091D396040B2DD
:100C000009E039680868091D396000B203E03968F5
:100C10000868091D39600490002802D508982D2124
:100C200009E0188D204202D008982B2103E0C0076C
:100C300005D50898202111AB1954401C089011A823
:100C4000089940180690110004A800F0A0F812E0DE
:100C50000120089038680168001D386011A80170F3
:100C600009E001200890252011A90870100002D089
:100C7000089411A842700D980899401A0A99401AD0
:100C80000999401A109004A82821405C400713D409
:100C9000202069460872109800280DDD109C039DE5
:100CA000012302AA04A9280000F0E8F8002800D0D7
:100CB00046E7641EF4D10395089D11AC002D0ED0BB
:100CC000039E21780598B0470590002800D137E7AA
:100CD0000B98401C0B90641C6D1EF2D103963020C3
:100CE000694608720A9C002C0CDD039D012302AAB0
:100CF00004A9280000F0C2F8002800D020E7641EF4
:100D0000F4D10395069C099D002D0ED0039E2178F9
:100D10000598B0470590002800D111E70B98401CBA
:100D20000B90641C6D1EF2D1039604A82821405C30
:100D3000400700D431E62020694608721098002848
:100D400000DC2AE6109C039D0F9E012302AA04A941
:100D5000280000F093F8002800D0F1E6641E00D1CE
:100D600009E6F2E7CBCCCC0C686C747A4C0000003E
:100D70007072696E74665F733A20626164202573D5
:100D800020617267756D656E740000000000F0B53B
:100D900083B00A00C4686F2901D1082506E020212C
:100DA0001143782901D00A2500E010251827016891
:100DB0000E00642A01D0692A03D1002901D57142AD
:100DC0000E00002E0CD1016A002909D1082D31D165
:100DD0002821415C09072DD517273021E17529E02D
:100DE0000290684602707F1E019730002900FFF7CD
:100DF00095FD3031C8B23A2803DB68460078513897
:100E00000918E15530002900FFF788FD060004D0DD
:100E100002988068E1198842E5D30298082D09D12B
:100E20002821415C090705D5E15D302902D07F1EEC
:100E30003021E1551821C91B4161E2198260026A23
:100E4000914206DA511A8161018D0B4A0A400285EE
:100E500010E0002A0ED52822825C14231340102BA8
:100E600008D1426A0369D21A8369D21A511A012938
:100E700000DB816103B0F0BDEFFF0000F8B5002496
:100E8000002B11D007000E0014001D00217870689F
:100E9000B8477060002809D0F069401CF06100205C
:100EA000641C6D1EF2D104002000F2BD0020C0437E
:100EB000F9E7704730B45368D41803E05B1C491E4F
:100EC000641C401C042B06DA002904D00578257028
:100ED0000578002DF2D1536030BC704738B5002939
:100EE0000ED01D001400FFF7E5FF616820006A6B5B
:100EF00090470122D243811A02D0491E02D004E059
:100F0000012000E00020C04332BD0021616032BDFD
:100F100080B5024BFFF7E2FF02BD00009003002006
:100F2000C9B202788A4203D0401C002AF9D10020BD
:100F30007047704780B5002801D100BF07A006495F
:100F40000B68002B03D022220021984701E000F01B
:100F500028F8222002BD000008040020636F6E7391
:100F6000747261696E742068616E646C65723A2097
:100F7000626164206D65737361676500431C01786D
:100F8000401C0942FBD1C01A70477047C9B2521EBB
:100F900005D30378401C8B42F9D1401E70470020D6
:100FA000704780B5012000F001F801BD80B500BF99
:100FB00000BF024A11001820ABBEFBE7260002006A
:100FC00081B082490A6802430A60096808400090BB
:100FD000009801B0704710B50B004B4301685C00EE
:100FE000E418A14353430B43036010BD43688B4394
:100FF000514319434160704710B50B004B43816862
:101000005C00E418A14353430B43836010BD30B52B
:10101000CB436F4C9025ED05A8421AD1002A03D08E
:10102000022A0FD007D330BD2068184020606068C6
:101030000340636030BD6068034063602068014323
:10104000216030BD20680340236060680143616017
:1010500030BD002A03D0022A0FD007D330BDA068CC
:101060001840A060E0680340E36030BDE0680340E2
:10107000E360A0680143A16030BDA0680340A360A5
:10108000E0680143E16030BD10B5090A0B004B4335
:101090004B434B43416A1C01E41AA14353430B43A6
:1010A000436210BD7CB506000420FFF789FF902540
:1010B000ED058024A400022221002800FFF78BFF09
:1010C000022221002800FFF797FF002221002800BC
:1010D000FFF78CFF012221002800FFF798FF002274
:1010E00021002800FFF7D0FF0420FFF769FF640804
:1010F000022221002800FFF76EFF022221002800B3
:10110000FFF77AFF002221002800FFF76FFF01227E
:1011100021002800FFF77BFF002221002800FFF7B5
:10112000B3FFA0002B490A6802430A60096808401F
:101130000090009828488B21C1600168274A0A4026
:1011400002604168264A0A40426001680C220A4354
:1011500002608168234A0A4082608168224A0A400C
:1011600082608168C900C9088160016862050A431C
:10117000026041681D4A0A40426081682A22914308
:101180008160016801220A43026031000ED01849D3
:101190000E60016820220A43026016480168FF229F
:1011A000914340220A4302601348046073BD10B5A6
:1011B0000023124A06E014682406FCD5DCB2045D64
:1011C000D4605B1CDCB28C42F5D310BD50004048AB
:1011D000200050485800404800400041FFE9FFEF20
:1011E000FFCFFFFFFFFCFFFFFFFFFFF1FFB7FFFF98
:1011F000D803002008E400E000E100E01C400041CA
:1012000070B50025012804D0022802D00020C04378
:1012100070BD002901D1002070BD0C00160005E052
:1012200001212000FFF7C3FF641C6D1C3000461E27
:101230000028F5D1280070BD01B5012269460120C2
:10124000FFF7DEFF009802BD010005D40121C006B2
:10125000C00E81408B480160704710B5C200182352
:101260001340FF249C40E2438907090E9940030084
:1012700004D485489B089B00C01806E0834B0007F8
:10128000000F083880088000181803681A401143BE
:10129000016010BD81B07E4901E081B07D490A68DE
:1012A00002430A60096808400090009801B0704746
:1012B00010B50B004B4301685C00E418A143534395
:1012C0000B43036010BDF8B5FF210220FFF7F8F9CA
:1012D000002800D0FEE70027FF4301213800FFF778
:1012E000BCFF6D48006800F0F3F80020FFF7DAFE5D
:1012F0000420FFF7CFFF80204000FFF7CEFF9024AF
:10130000E4058025ED00002229002000FFF7D0FF32
:101310006248634E3168014031607168014071601C
:1013200060498A682A438A600A68104008604868F1
:1013300028434860C868400500D5CD6001210F20D2
:10134000FFF78BFF0F20FFF77FFF01213800FFF72A
:1013500084FF0820FFF79EFF022210212000FFF7E4
:10136000A7FF7068102188437060306801433160C6
:10137000A0684D49014068080843A060206A4B49B5
:10138000014028020843206201210A20FFF765FF7F
:101390000A20FFF759FF0120FFF77FFF444C206828
:1013A0007021884320603F20A06220688021014393
:1013B0002160A16A3F4D404E00273000491CFFF7D5
:1013C000ADFAA84207D3A16A3000491C6943FFF770
:1013D000A5FA401E00E00020E062A0693749014004
:1013E00060200843A061E06A401C40086063A06977
:1013F00008210143A161E06802210143E16001206D
:10140000216A01432162616CC2030A43626421685C
:1014100001432160616908436061294E300000F09A
:1014200067F8284D28780128FCD16878401C0B21EA
:10143000FFF760FA6970E16A6878800028184068F0
:10144000491C48436421FFF769FA010061633000D9
:10145000683000F04DF82F70E4E70120194908705A
:10146000704700B5184A106891681269914201D21C
:101470004A1C801864225043491CFFF74FFA134955
:10148000086000BD00E100E000E400E01CED00E0C9
:1014900050004048540040485C030020FFFBFFFF21
:1014A0002000504810000040FFFCFFFFFFFFF0FF4E
:1014B00000200040102700000090D0038CFFFEFFAA
:1014C00018150410600300202420004004040020AC
:1014D00010B5064CFA218900FFF720FA401E606023
:1014E0000020A0600720206010BD000010E000E098
:1014F0000EB4C0B5020003A801900020009001AB1B
:101500000121044878440C30FFF726FA029906B00E
:10151000084700BFB70100005573657220707573EE
:10152000682D627574746F6E2028505553483129A8
:101530002063616E206265207573656420746F207E
:101540006368616E676520746865206475747920CE
:101550006379636C652066726F6D20302525207578
:101560007020746F2031303025252062792073740B
:10157000657073206F6620313025252E200A0D00FE
:101580004368616E6765732074686520647574795B
:10159000206379636C65206F6620746865205057FE
:1015A0004D207369676E616C203A202564200A0D16
:1015B000000000007047FEE770477047124801685E
:1015C000491C0160704711480168890700D47047C1
:1015D00080B50221C9430160FFF743FF01BD0C48FC
:1015E0000168490500D4704780B5010D01600648C7
:1015F00001684268891AAF225200914203D3016800
:101600004160FFF72AFF01BDDC03002010200040ED
:101610001C00004030B501684118446862088A180F
:101620008368E40704D54C461B1901E0641C06D10D
:1016300091420BD00C7864B2491C0D78491C1D7086
:101640005B1C002CF2D4641EF7D5F1E70C3030BDE2
:1016500010B5074979441831064C7C44163404E02F
:10166000081D0A68891888470100A142F8D110BDF9
:1016700008000000240000009DFFFFFFED000000B7
:1016800018000000C00000208DFFFFFF9000000048
:10169000840000005C030020FEF745FD002801D017
:1016A000FFF7D6FF00BF00BF002000BF00BFFFF75D
:1016B0000AFE00F000F880B500F002F801BD7047A6
:1016C00007463846FFF772FCFBE738B505000C000B
:1016D0002000FFF7B1FDA04200D00025280032BD58
:1016E00000BF00BF00BF00BFFFF7D6FF0078401E5D
:1016F0008041C043C00F70477047704770477047C4
:101700007047704770477047704770477047704721
:10171000704770477047704770477047030090D01C
:1017200003F800000AFD000014FD00001EFD00008B
:1017300028FD000032FD00003CFD000046FD0000D9
:1017400050FD00005AFD000064FD0004F208041082
:1017500001D10003ED160410F8000001C5000000DF
:101760000000000000000000008100810081008175
:05177000008100DF0014
:04000005100416E1EC
:00000001FF
