:020000041004E6
:10000000000001206B230410BD0C041021230410F8
:10001000AA5555AA45554C420000000000000000BA
:10002000000000000000000000000000730D04103C
:100030000000000000000000CF120410092304108B
:100040004F130410A7130410B3180410AF1F0410AB
:10005000E720041037220410FB22041007230410A9
:10006000832304108D2304108F2304109123041084
:1000700093230410952304109723041015230410D0
:10008000992304109B2304109D2304109F23041024
:10009000A1230410A3230410A5230410A7230410F4
:1000A000A9230410AB23041000000000000000008E
:1000B0000000000000000000000000000000000040
:1000C000F0B5020052B2002A1CD40322B64B040041
:1000D00064B2A40804256C431C59FF251600064091
:1000E00008277E43B540AC438D01EDB2024008269F
:1000F000724395402543020052B2920804246243A1
:100100009D5022E00F24A94A032305006DB225402B
:10011000083DAD0804267543060076B23440083C1D
:10012000A408042674431659FF27BC461C0004404B
:1001300008277C436746A740BE438C01E4B20340D6
:1001400008277B439C4034435451F0BD00B5BFF3B6
:100150004F8F974897490860BFF34F8F00BFFDE767
:1001600095480168802252020A4302607047924813
:100170000068410C0800C007C00F70478F498022FB
:100180000A600A688E4B134002021A430A607047E5
:100190008A490A6870239A4302430A607047CD492E
:1001A0000A68CD4B134002061A430A600A6880238E
:1001B0001B0413430B60704780B5CD4801680222D1
:1001C0000A430260002100910099062904DA00BF69
:1001D0000099491C0091F7E7016804220A43026074
:1001E00001BDC3490A68C34B134003430B6070470A
:1001F0007148016810220A43026070476E48006827
:1002000041090800C007C00F7047B2490A6860235F
:100210009A4302430A607047AE490A681E239A4314
:10022000430013430B600A68012313430B607047BC
:10023000B1490A6806239A4302430A607047AC49F1
:100240000A68AE4B134003430B607047A8490A6825
:10025000AB4B134003430B60704757480168802243
:1002600092010A430260704753480068810B0800FE
:10027000C007C00F70479E490A68E0239A430243B3
:100280000A60704781B09C490A6802430A600968A5
:1002900001400091009901B07047CC490A680243BF
:1002A0000A607047C9490A6882430A607047C849B2
:1002B0000A6802430A607047C6480068810808005F
:1002C000C007C00F7047C4490A68C44B13400343BA
:1002D0000B607047C0490A6830239A4302430A60A2
:1002E0007047D3490A6882430A60D2490A68824348
:1002F0000A60704710B4D0490A68D04B1340C2025C
:10030000E024A40114401C430C600A688023DB0035
:1003100013430B6010BC704710B4C7490A68C84B40
:1003200013408201F024A40014401C430C600A68AE
:10033000202313430B6010BC704710B4BE490A68F9
:100340001E239A4343001E241C4014430C600A6879
:10035000012313430B6010BC70478020C005006868
:100360000007000F70478020C005006800090007E3
:10037000000F7047426830239A430A434260704737
:1003800080B5B048006800280BD1AF48006800284D
:1003900007D00120AD49886000F091FCFFF7D6FE40
:1003A000FCE7012002BD000000E400E01CED00E0DD
:1003B0000400FA050CED00E00000404898004048B9
:1003C000FFC0FFFF80B503210020FFF779FE032166
:1003D0000120FFF775FE03210220FFF771FE0321C4
:1003E0000320FFF76DFE03210420FFF769FE0321C0
:1003F0000520FFF765FE03210620FFF761FE0321BC
:100400000720FFF75DFE03210820FFF759FE0321B7
:100410000920FFF755FE03210A20FFF751FE0321B3
:100420000B20FFF74DFE03210C20FFF749FE0321AF
:100430000D20FFF745FE03210E20FFF741FE0321AB
:100440000F20FFF73DFE03211020FFF739FE0321A7
:100450001120FFF735FE00211220FFF731FE0321A6
:100460001320FFF72DFE03211420FFF729FE03219F
:100470001520FFF725FE03211620FFF721FE01219D
:100480001720FFF71DFE00211820FFF719FE03219A
:100490001920FFF715FE01BD70B504000D00160010
:1004A0003000C0B200280FD02000FA21890000F0EF
:1004B00007FC401E684366490860002065490860E3
:1004C00005206549086004E0634801680122914302
:1004D000016070BD0C004048FFFFFFC000B55E48E2
:1004E0000068C00301D5012000E0002000BD00002D
:1004F00008004048FF7FFEFF60004048FFEFFFFF1D
:10050000FFF3FFFFFEB500263000694608700122A8
:10051000C8215248FFF7C0FFFFF7CEFE002806D1E2
:10052000FFF7DCFF0028F7D00120694608700022A1
:1005300000210020FFF7B0FF68460078002802D0B5
:100540006846007841E08020C000FFF77FFE202051
:10055000FFF7C0FE80204001FFF771FE5A48006897
:100560005A49884215D10F203D490A68024002923B
:100570000A68120957077F0F0A68140A04400A68BC
:10058000120B104001900868000C8506AD0E012684
:1005900003E00824029403271E252800FFF7FFFD2F
:1005A0003000C0B2002802D00198FFF735FE2000CD
:1005B000FFF7C3FE0298FFF7AFFE3800FFF79AFE81
:1005C00080204000FFF77FFE0020FEBD4000404835
:1005D00004005048140050481C005048FFFEFFFF24
:1005E00010B500240122962149001C48FFF754FF52
:1005F000C0208001FFF775FE80200002FFF7F1FDAB
:100600006020FFF702FEFFF7F3FDFFF7F7FD00287C
:1006100005D1FFF763FF0028F7D002200400002275
:1006200000210020FFF738FF2000C0B210BD0000FD
:10063000280050482C00504894005048FFC7FFFF46
:100640003FFCFFFF94004048100050480400002089
:1006500014E000E018E000E010E000E00024F40006
:10066000E41E0010F1B586B06846007E00280ED06A
:100670002020FFF700FE0220FFF7DAFD0120FFF740
:100680000CFE0120FFF70EFE0120FFF7FBFD0E48D8
:1006900000680E4988421BD10F21CF480268120A18
:1006A0000A4004920268140B0C400268120C1140BC
:1006B000039107210268120D0A4002920068000EA1
:1006C00001400191012508E0F81E0010CCECBCFCB3
:1006D000082004900724039000250F20BF490968D3
:1006E0000F229143039A02400A43BC490A60BC4965
:1006F0000968F02291432201F02313400B43B849CB
:100700000B60B74909680F229143049A10400843CF
:10071000B34908602800C0B2002811D0B148016870
:1007200007229143029A5207520F0A43026001685E
:1007300038229143019AD200382313400B430360BF
:10074000A94801683F2291430A220A4302600168D6
:1007500040220A430260A54801683F2291430422D7
:100760000A430260016880220A4302600168402255
:10077000914301609E4801683F22914301609D487A
:1007800001683F22914310220A4302609A4801689F
:100790003F22914320220A430260984801683F2289
:1007A000914330220A430260954801683F229143F9
:1007B00038220A430260934801683F22914339225C
:1007C0000A430260904801683F2291433A220A435B
:1007D00002608E4801683F2291433B220A43026037
:1007E0008B4801683F2291433C220A4302608948BA
:1007F00001683F2291433D220A4302605520864909
:100800000968FF2291430143834A116083490968C3
:10081000FF22914366220A4380490A6080490968A1
:10082000FF22914308437E4908607E480068FF210B
:1008300088431D2101437B4801607B480068FF21FC
:100840008843592101437848016078480068FF21B6
:1008500088432D21014375480160012674480068D2
:10086000304373490860FFF77EFD0701FFF775FD10
:10087000384305900598202800D2ABE000210800FD
:100880006C4A33000700FFB2D355401C5E230700BB
:10089000FFB2D355401C514B1B680700FFB2D35524
:1008A000401C33000700FFB2D355401C5D230700F6
:1008B000FFB2D355401C4A4B1B680700FFB2D3550B
:1008C000401C2B00DBB2002B0FD033000700FFB21F
:1008D000D355401C52230700FFB2D355401C414B57
:1008E0001B680700FFB2D355401C33000700FFB25E
:1008F000D355401C12230700FFB2D355401C464B72
:100900001B680700FFB2D355401C33000700FFB23D
:10091000D355401C15230700FFB2D355401C3F4B55
:100920001B680700FFB2D355401C33000700FFB21D
:10093000D355401C1A230700FFB2D355401C384B37
:100940001B680700FFB2D355401C33000700FFB2FD
:10095000D355401C22230700FFB2D355401C314B16
:100960001B680700FFB2D355401C33000700FFB2DD
:10097000D355401C21230700FFB2D355401C2A4BFE
:100980001B680700FFB2D355401C33000700FFB2BD
:10099000D355401C23230700FFB2D355401C234BE3
:1009A0001B680700FFB2D355401C0300DBB2D654CE
:1009B000401C1B230600F6B29355401C1C4B1B68C1
:1009C0000600F6B29355401C0300DBB2D154401C24
:1009D0006946087007B0F0BDE81E00107816006088
:1009E0007416006048160060C0160060C4160060EF
:1009F000E8160060EC160060F0160060F416006067
:100A0000F8160060FC160060001700600417006014
:100A1000081700600C17006048150060541500604E
:100A20006815006088150060841500608C150060F2
:100A30006C1500609C000020F8B506000F00002532
:100A4000FFF791FC0401FFF788FC204300908D4CD8
:100A5000012264212000FFF71FFDFFF781FBFFF754
:100A600086FB002805D1FFF739FD0028F7D00420C8
:100A70000500002200210020FFF70EFD2800C0B273
:100A8000002802D02800C0B2BCE03000C0B200286C
:100A900004D10098102801D10620B3E03000C0B284
:100AA00000286BD03000C0B201280AD039D3032807
:100AB00014D00DD305281FD017D307282AD022D34E
:100AC0002FE00020FFF7D7FB6F487049086029E04E
:100AD0002020FFF7D0FB6D48046023E04020FFF7A3
:100AE000CAFB6B48694908601CE06020FFF7C3FB44
:100AF00068486649086015E08020FFF7BCFB66483F
:100B0000624908600EE0A020FFF7B5FB63485F492B
:100B1000086007E0C020FFF7AEFB61485B49086052
:100B200000E0FEE7594C0122C8212068FFF7B4FC21
:100B3000FFF793FBFFF798FB002805D1FFF7CEFCEA
:100B40000028F7D005200500002200210020FFF733
:100B5000A3FC2800C0B2002802D02800C0B251E097
:100B600020684949884204D110214E48FFF702FC11
:100B700006E000214B48FFF7FDFB01E0FFF71CFBFF
:100B80003800C0B2FF2801D100203BE03800C0B2DD
:100B9000012803D03000C0B2032805D10420FFF79C
:100BA00047FB0120070002E00220FFF741FB00980D
:100BB000102826D13000C0B2012807D13800C0B2B9
:100BC000012803D12A203849086016E03000C0B25D
:100BD000012803D13800C0B2002807D03000C0B2CD
:100BE000022807D13800C0B2012803D129202E499C
:100BF000086002E028202C4908602C4800680007A3
:100C0000FBD40020F2BDF8B507000C0028482949A4
:100C1000086029490861E020FFF749FBFFF772FCF3
:100C200006003000C0B2002802D03000C0B228E078
:100C3000FFF7D6FC05002800C0B2002802D028002B
:100C4000C0B21EE02000C0B2FF2802D00120FFF792
:100C500009FD2020FFF792FA3020FFF799FA2100D2
:100C6000C9B23800C0B2FFF7E7FE06003000C0B2DC
:100C7000002802D03000C0B203E0FFF7A3FB62B649
:100C80000020F2BD0048E8010090D00338000020A9
:100C90000024F40000127A0000093D0080841E0048
:100CA00040420F000010004000500040045000403F
:100CB0000000041008ED00E00400002070477047B9
:100CC0000022030A8B420BD203098B4219D243083C
:100CD0008B422ED2411A00D2014652411046704733
:100CE000FF2209023FD012068B4205D312120902DD
:100CF0008B4201D31212090203098B4219D300E07F
:100D0000090AC3098B4201D3CB01C01A524183099E
:100D10008B4201D38B01C01A524143098B4201D34C
:100D20004B01C01A524103098B4201D30B01C01A77
:100D30005241C3088B4201D3CB00C01A52418308F1
:100D40008B4201D38B00C01A524143088B4201D31E
:100D50004B00C01A5241884200D3401A5241CFD2B0
:100D600001461046704708B500F002F808BD430080
:100D700070477047F0B597B0050016001F001C982B
:100D80006A460023002418C2059104A92B22885426
:100D90000B9303950F960EE023000F9A04A9039876
:100DA00000F07AFA002800D5D8E001E0F4D501245B
:100DB0000F9800190F900F980078252809D100206E
:100DC000089009900A9002240821029104210F9DA5
:100DD0000CE06A460021C9430F9800F0A7FA04000E
:100DE000E4D10B98BCE00200012010436D1C2A786E
:100DF000202AF8D0232A0AD02B2A04D02D2A04D066
:100E0000302A07D009E02043F0E70843EEE702006C
:100E10000820EAE702001020E7E72A2A0CD13B6805
:100E20001A681B1D3B600D92002A03D553420D9397
:100E3000014308006D1C14E000210D91004A0BE0F5
:100E4000CBCCCC0C0D9B934205DA9E00F3185B00D3
:100E5000591830390D916D1C29780B00303B0A2B45
:100E6000F0D329782E2903D00021C9430C9125E025
:100E70006D1C29782A2906D139680A68091D39604C
:100E80000C926D1C1AE02D2902D12D236D1C00E05F
:100E9000002300210C910CE0002B09D10C9AB84ED4
:100EA000B24205DA9600B2185200511830390C914E
:100EB0006D1C29780A00303A0A2AEDD304A9088566
:100EC0002E783100AFA000F039FA002801D06D1C57
:100ED00000E0002604A82A214654405C682807D177
:100EE0002878682804D1622004A92A2288546D1C1D
:100EF00011A807902A78681C0F90252A13D0582A29
:100F00004FD0632A00D1B1E0642A79D0692A77D022
:100F10006F2A46D0702A3BD0732A0AD0752A40D057
:100F2000782A3ED0ABE001200890252011A9087056
:100F3000AFE038680468001D38600694002C14D1B6
:100F400004A82B21405C00280CD00024E44300BFFF
:100F50008EA000F0FDF9201A00D19AE00020C043D5
:100F600017B0F0BD90A0069093E00C9D002D03D526
:100F7000200000F011FA09E02A000021200000F012
:100F800013FA002801D0001B00E02800099080E03F
:100F900038680168001D3860049111A80690782116
:100FA00060E004AB2A20185C622803D0682807D0D0
:100FB0006C280BE039680868091D3960C0B209E087
:100FC00039680868091D396080B203E0396808682B
:100FD000091D39600490188D0299C0B208423CD0B6
:100FE0000498002839D020201043782835D108985B
:100FF00011A930230B54401C431C08930A542CE0C5
:1010000004AB2A20185C622803D0682807D06C281B
:101010000BE039680868091D396040B209E0396899
:101020000868091D396000B203E039680868091DC5
:1010300039600490002802D508982D2109E0188D08
:10104000204202D008982B2103E0C00705D508985C
:10105000202111AB1954401C089011A80899401880
:101060000690110004A800F0A0F812E001200890FA
:1010700038680168001D386011A8017009E001207E
:101080000890252011A90870100002D0089411A81A
:1010900042700D980899401A0A99401A0999401A05
:1010A000109004A82821405C400713D420206946F2
:1010B0000872109800280DDD109C039D012302AAE0
:1010C00004A9280000F0E8F8002800D046E7641ED4
:1010D000F4D10395089D11AC002D0ED0039E21780C
:1010E0000598B0470590002800D137E70B98401CC1
:1010F0000B90641C6D1EF2D1039630206946087275
:101100000A9C002C0CDD039D012302AA04A92800DF
:1011100000F0C2F8002800D020E7641EF4D1039547
:10112000069C099D002D0ED0039E21780598B0479E
:101130000590002800D111E70B98401C0B90641C0F
:101140006D1EF2D1039604A82821405C400700D40C
:1011500031E62020694608721098002800DC2AE653
:10116000109C039D0F9E012302AA04A9280000F0F1
:1011700093F8002800D0F1E6641E00D109E6F2E7FA
:10118000CBCCCC0C686C747A4C0000007072696E29
:1011900074665F733A206261642025732061726710
:1011A000756D656E740000000000F0B583B00A0034
:1011B000C4686F2901D1082506E020211143782950
:1011C00001D00A2500E01025182701680E00642AC6
:1011D00001D0692A03D1002901D571420E00002EE9
:1011E0000CD1016A002909D1082D31D12821415C97
:1011F00009072DD517273021E17529E002906846AF
:1012000002707F1E019730002900FFF759FD303131
:10121000C8B23A2803DB6846007851380918E1550E
:1012200030002900FFF74CFD060004D002988068CA
:10123000E1198842E5D30298082D09D12821415CA3
:10124000090705D5E15D302902D07F1E3021E15527
:101250001821C91B4161E2198260026A914206DAD3
:10126000511A8161018D0B4A0A40028510E0002A63
:101270000ED52822825C14231340102B08D1426A19
:101280000369D21A8369D21A511A012900DB8161DC
:1012900003B0F0BDEFFF0000F8B50024002B11D023
:1012A00007000E0014001D0021787068B8477060B8
:1012B000002809D0F069401CF0610020641C6D1EFC
:1012C000F2D104002000F2BD0020C043F9E77047CE
:1012D00030B45368D41803E05B1C491E641C401CE6
:1012E000042B06DA002904D0057825700578002D36
:1012F000F2D1536030BC704738B500290ED01D00C4
:101300001400FFF7E5FF616820006A6B9047012237
:10131000D243811A02D0491E02D004E0012000E02D
:101320000020C04332BD0021616032BD80B5024B58
:10133000FFF7E2FF02BD00003C000020C9B20278C6
:101340008A4203D0401C002AF9D100207047704720
:1013500080B5002801D100BF07A006490B68002B0B
:1013600003D022220021984701E000F028F8222033
:1013700002BD0000BC000020636F6E73747261696F
:101380006E742068616E646C65723A2062616420DC
:101390006D65737361676500431C0178401C0942E9
:1013A000FBD1C01A70477047C9B2521E05D30378EB
:1013B000401C8B42F9D1401E70470020704780B519
:1013C000012000F001F801BD80B500BF00BF024A56
:1013D00011001820ABBEFBE72600020000B501009B
:1013E00049B2002905D40121C206D20E9140B94A62
:1013F000116000BDF0B5020052B2002A1CD40322D5
:10140000B54B040064B2A40804256C431C59FF25A5
:101410001600064008277E43B540AC438D01EDB26F
:1014200002400826724395402543020052B29208BA
:10143000042462439D5022E00F24A84A03230500A0
:101440006DB22540083DAD0804267543060076B20E
:101450003440083CA408042674431659FF27BC46B0
:101460001C00044008277C436746A740BE438C010C
:10147000E4B2034008277B439C4034435451F0BD01
:1014800081B097490A6802430A60096801400091E7
:10149000009901B0704781B092490A6802430A601E
:1014A000096801400091009901B070478E490A68AF
:1014B00082430A608D490A6802430A6070478B497B
:1014C0000A6882430A6088490A6802430A607047D2
:1014D00086490A6882430A6083490A6882430A602F
:1014E0007047C8490A6882430A60C7490A680243CC
:1014F0000A607047C4490A6882430A60C1490A68A1
:1015000002430A607047C0490A6882430A60BD49C5
:101510000A6882430A60704730B403680C004C4389
:1015200003256C43A3430C004C4354431C43046009
:1015300030BC704710B443688B430C0054431C43C9
:10154000446010BC704730B483680C004C430325E2
:101550006C43A3430C004C4354431C43846030BC95
:10156000704770B504000D0016009020C00584423D
:1015700011D1002E03D0022E09D004D31CE0280084
:10158000FFF7A6FF18E02800FFF790FF14E02800FF
:10159000FFF795FF10E0002E03D0022E09D004D3F0
:1015A0000AE02800FFF7AFFF06E02800FFF799FFE9
:1015B00002E02800FFF79EFF70BD30B4446A0B0ABA
:1015C0000D0A6B430D0A6B430D0A6B430F256B43EA
:1015D0009C430B0A0D0A6B430D0A6B430D0A6B43C8
:1015E00053432343436230BC7047016801220A43DE
:1015F000026070470168802292050A4302607047CA
:101600008268D200D2084B07134383607047826818
:101610008B4B13404A061A438260704702680C23C2
:101620009A430A430260704730B40468854D2540F0
:1016300015430D4305604468834D25401D434560B7
:1016400030BC70478268814B13400B438360704706
:10165000FCB504000D0016001F0080200002864229
:101660001DD17B487B492A0092B202235343C95AB9
:10167000FFF726FB02214843790840183900FFF79D
:101680001FFB80B2009000997348084000994908F8
:101690004907490F084301900198E0600FE06C484A
:1016A0006C492A0092B202235343C95AFFF708FB40
:1016B000790840183900FFF703FB80B2E060F3BD02
:1016C0004168664A0A40426081682A2291438160EB
:1016D0007047000000E100E000E400E01CED00E0E5
:1016E00050004048580040482400504820005048CE
:1016F000C069C1090800C007C00F704701682022F7
:101700000A43026070470A00D2B28262704770B525
:1017100006000420FFF7B4FE9024E4058025AD0008
:10172000022229002000FFF7F7FE022229002000F4
:10173000FFF709FF002229002000FFF7FBFE01222E
:1017400029002000FFF70DFF002229002000FFF7ED
:1017500034FF0420FFF794FE80256D00022229004B
:101760002000FFF7D9FE022229002000FFF7EBFE40
:10177000002229002000FFF7DDFE012229002000C1
:10178000FFF7EFFE002229002000FFF716FF802060
:10179000C000FFF780FE324CE1235B0200220021F3
:1017A0002000FFF755FF0023002200212000FFF753
:1017B0003BFF0C212000FFF731FF00212000FFF745
:1017C00041FF00212000FFF722FF00212000FFF74A
:1017D00017FF2000FFF70EFF2000FFF771FF20002A
:1017E000FFF703FF300000280BD01E4806602000E2
:1017F000FFF784FF01210820FFF7FCFD0820FFF719
:10180000EDFD70BD2C00504828005048F8B5070089
:101810000E00002420003100C0B2C9B288420DD2AF
:101820000F4D2800FFF764FF0028F9D02000C0B258
:10183000395C2800FFF767FF641CEBE7F1BD00008F
:10184000FFFFFFF1FFE9FFEFFFCFFFFFFFFCFFFF0F
:101850000024F4003C230410F0FF0000FFB7FFFF5A
:101860000040004184000020F8B507000C0016007D
:101870000025012F04D0022F02D00020C0430FE02A
:10188000002C01D100200BE03000461E002806D0BD
:1018900001212000FFF7BAFF641C6D1CF4E728004B
:1018A000F2BD01B5012269460120FFF7DDFF009876
:1018B00002BD704700B5010049B2002905D40121DD
:1018C000C206D20E9140704A116000BDF0B5020010
:1018D00052B2002A1CD403226C4B040064B2A40848
:1018E00004256C431C59FF251600064008277E433B
:1018F000B540AC438D01EDB20240082672439540DD
:101900002543020052B29208042462439D5022E013
:101910000F24AE4A032305006DB22540083DAD08F3
:1019200004267543060076B23440083CA408042619
:1019300074431659FF27BC461C00044008277C430B
:101940006746A740BE438C01E4B2034008277B43AF
:101950009C4034435451F0BD81B09D490A68024314
:101960000A60096801400091009901B0704781B098
:1019700098490A6802430A60096801400091009989
:1019800001B0704794490A6802430A60704700B585
:101990000200D2B2032A08D1904A13680B431360A5
:1019A0008F4A13688B43136032E00200D2B2012ADF
:1019B00008D18A4A13688B431360894A13680B4322
:1019C000136025E00200D2B2022A08D1834A1368CC
:1019D0008B431360824A13688B43136018E0020044
:1019E000D2B2042A08D17D4A13688B4313607C4A23
:1019F00013688B4313600BE00200D2B2052A07D1B3
:101A0000764A13688B431360754A13680B4313605F
:101A100000BD74490860704773490A6882430A60D0
:101A200072490A6802430A60704770490A68824333
:101A30000A606D490A6802430A6070476B490A6888
:101A400082430A6068490A6882430A6070476849AD
:101A50000A6882430A6067490A6802430A6070475D
:101A600064490A6882430A6061490A6802430A605D
:101A7000704760490A6882430A605D490A68824388
:101A80000A6070470000000000E100E000E400E0B0
:101A900030B403680C004C4303256C43A3430C0093
:101AA0004C4354431C43046030BC704770B5040081
:101AB0000D0016009020C005844211D1002E03D0E5
:101AC000022E09D004D31CE02800FFF7B7FF18E06E
:101AD0002800FFF7A1FF14E02800FFF7A6FF10E0A1
:101AE000002E03D0022E09D004D30AE02800FFF70D
:101AF000C0FF06E02800FFF7AAFF02E02800FFF77A
:101B0000AFFF70BDF8B506000F003000C0B200286E
:101B100011D10420FFF720FF9024E4058025ED007B
:101B2000002229002000FFF7B3FF00222900200037
:101B3000FFF7BCFF11E03000C0B201280DD1082032
:101B4000FFF70AFF2C4C002240212000FFF7A0FFE6
:101B5000002240212000FFF7A9FF3800C0B2012871
:101B600032D180204000FFF702FF3000C0B20028D1
:101B700013D18024E40021000120FFF708FF20009A
:101B8000FFF747FF2000FFF7FDFE03210F20FFF7BF
:101B90009DFE0F20FFF78EFE16E03000C0B2012838
:101BA00012D18024E40321000120FFF7F0FE200081
:101BB000FFF72FFF2000FFF7E5FE03211020FFF7BE
:101BC00085FE1020FFF776FEF1BD00001CED00E061
:101BD00050004048540040481800004010000040A9
:101BE000140000401C0000402400504820005048D1
:101BF0002C005048280050480000104881B080490F
:101C00000A6802430A60096801400091009901B026
:101C100070477C490A6882430A607B490A6802432C
:101C20000A60704778490A6882430A6075490A6801
:101C300002430A60704774490A6882430A60714926
:101C40000A6882430A60704770490A6882430A60E2
:101C50006F490A6802430A6070476D490A68824307
:101C60000A606A490A6802430A60704768490A685C
:101C700082430A6065490A6882430A60704730B44B
:101C800003680C004C4303256C43A3430C004C43F6
:101C900054431C43046030BC704710B443688B430A
:101CA0000C0054431C43446010BC704730B483683C
:101CB0000C004C4303256C43A3430C004C4354439A
:101CC0001C43846030BC704770B504000D001600E2
:101CD0009020C005844211D1002E03D0022E09D0DD
:101CE00004D31CE02800FFF7A6FF18E02800FFF748
:101CF00090FF14E02800FFF795FF10E0002E03D0BE
:101D0000022E09D004D30AE02800FFF7AFFF06E057
:101D10002800FFF799FF02E02800FFF79EFF70BD43
:101D20008161704742694A404261704770B5060060
:101D30003000C0B200281DD10420FFF75FFF9024BF
:101D4000E40540212000FFF7EBFF012240212000A5
:101D5000FFF795FF022240212000FFF7A7FF002296
:101D600040212000FFF799FF012240212000FFF7CA
:101D7000ABFF44E03000C0B201281ED10820FFF7BD
:101D80003DFF344D8024640021002800FFF7C8FF88
:101D9000012221002800FFF772FF02222100280003
:101DA000FFF784FF002221002800FFF776FF0122C1
:101DB00021002800FFF788FF21E03000C0B2022890
:101DC0001DD10820FFF71AFF8024A400214D210017
:101DD0002800FFF7A5FF012221002800FFF74FFF91
:101DE000022221002800FFF761FF002221002800C5
:101DF000FFF753FF012221002800FFF765FF70BDA8
:101E00005000404824005048200050482C005048C2
:101E10002800504810B504002000C0B2002805D1A9
:101E200040219020C005FFF77DFF12E02000C0B2E6
:101E3000012805D1802149000648FFF773FF08E01B
:101E40002000C0B2022804D1802189000148FFF798
:101E500069FF10BD0000104840480168802212044C
:101E60000A430260704781B03D490A6802430A6034
:101E7000096801400091009901B0704739490A682A
:101E800002430A60704737490A6882430A60704714
:101E900080B5FF210220FEF7B6FE002800D0FEE745
:101EA00000F076F80120FFF741FF0220FFF73EFF28
:101EB00001210020FFF726FE0020FFF728FC00F09C
:101EC00031F8FFF7C9FF00F00EF80120FFF7A2FF7D
:101ED000254800F06DF8254800F0AEF80028F4D051
:101EE00000F033F8F1E710B58024E4012000FFF79B
:101EF000BAFF2000FFF7C2FF2000FFF7C4FF1C4815
:101F00000068C005FBD519481A49016001214160EC
:101F10001949C160816000F061F8002801D000F02B
:101F200014F810BD80B5154800F092F81448C06848
:101F3000800003D5134800F08BF802E0124800F04F
:101F400087F812A000F084F801BD80B50220FFF7E9
:101F500061FF054800F02CF8F8E7000094004048C5
:101F60005400404834004048DE0300008C0000204C
:101F70001C00404800300040FF0F000038220410D1
:101F800004000020B4220410842304100A0D000071
:101F900010B50024032000F06FF8002802D00120C3
:101FA000040001E000F098F82000C0B210BD7047B6
:101FB00070B5040000F098F8050026000020C0432A
:101FC000864202D004480068361800F08DF8401BA5
:101FD000B042FAD370BD00BF3400002038B5040011
:101FE000002C01D1012026E016482168086016481F
:101FF00021680860606821684860A068216888607E
:1020000000F072F805002068C068002806D000F0D3
:102010006BF8401B3128F6D303200CE020680069E0
:10202000E168884203D0E0682168086102E007485F
:1020300021680860002032BD010004480A68106071
:1020400000207047CCCC000055550000AAAA000023
:102050000EB4C0B5020003A801900020009001ABAF
:102060000121044878440C30FEF784FE029906B042
:10207000084700BFE1020000F8B505000024144E37
:10208000306800281FD000F035F80700FA208000E3
:102090003168FEF715FE01003800FEF711FE00F072
:1020A00097F800280CD1042D07D229000020C04346
:1020B00000F085F80748056007E00120040004E00F
:1020C0000120040001E0012004002000C0B2F2BDA4
:1020D000340000203000002080B500210020C043E3
:1020E00000F06DF801BD704701480068704700BFFF
:1020F0008800002001480068704700003800002078
:10210000F0B5020052B2002A1CD40322354B040061
:1021100064B2A40804256C431C59FF251600064030
:1021200008277E43B540AC438D01EDB2024008263E
:10213000724395402543020052B292080424624340
:102140009D5022E00F24284A032305006DB225404C
:10215000083DAD0804267543060076B23440083CBD
:10216000A408042674431659FF27BC461C000440EB
:1021700008277C436746A740BE438C01E4B2034076
:1021800008277B439C4034435451F0BD10B50400F4
:10219000601E80214904884201D301200EE0601EA8
:1021A0001249086003210020C043FFF7A9FF002067
:1021B0000F49086007200F490860002010BD38B59E
:1021C00005000C002100280040B2FFF799FF31BD47
:1021D00010B504002000FFF7D9FF10BD80B500F056
:1021E0000BF801BD00E400E01CED00E014E000E0AD
:1021F00018E000E010E000E0704730B501684118D9
:10220000446862088A188368E40704D54C461B19A1
:1022100001E0641C06D191420BD00C7864B2491CD9
:102220000D78491C1D705B1C002CF2D4641EF7D580
:10223000F1E70C3030BD7047436865636B20696619
:10224000207468652073797374656D2068617320EC
:10225000726573756D65642066726F6D20495744B1
:10226000472072657365743A0A0D000010B507497E
:1022700079441831064C7C44163404E0081D0A6881
:10228000891888470100A142F8D110BD080000005C
:102290002400000067FFFFFF43010000180000005A
:1022A000C000002057FFFFFF040100003C000000B9
:1022B000300000205945532C20495744472072656F
:1022C0007365742069732067656E657261746564F7
:1022D0002E0A0D00FEF754F8002801D0FFF7C6FFC4
:1022E00000BF00BF002000BF00BFFFF7D1FD00F01E
:1022F00000F880B500F002F801BD70470746384687
:10230000FFF762F8FBE7704780B500F00BF8FFF7C6
:1023100065FF01BDFF20014908607047010004000E
:1023200000B5FEE703480168034A12688918016096
:10233000704700BF88000020340000200100020028
:102340000400060008000A000C00100020004000F5
:102350008000000138B505000C002000FFF7A1FA4D
:10236000A04200D00025280032BD00BF00BF00BF42
:1023700000BFFFF7AFFF0078401E8041C043C00F91
:10238000704770474E4F2E0A0D000000704770478F
:102390007047704770477047704770477047704785
:1023A0007047704770477047704770470004FD00E2
:1023B0000001FC000790D0036E0D041001D1000352
:1023C00077230410F8000001BD00000000000000A9
:1023D000000000000000000000000081008100817A
:0723E0000081008100DF0015
:040000051004236B55
:00000001FF
