:020000041004E6
:1008000000000120C97A0510516505105D650510CD
:10081000AA5555AA45554C420000000000000000B2
:1008200000000000000000000000000069650510E5
:1008300000000000000000008F6904106B650510C7
:10084000A36C041007720410A7750410FF75041040
:1008500017760410D7790410CF7E0410E3800410BB
:100860006D6505100B8404102B870410B38D0410E4
:10087000D38D0410A38F04104F93041077650510D7
:10088000B3950410756505109D6505107B990410DE
:1008900089650510D79904100FA104108165051012
:1008A00079650510DFA404100000000000000000BE
:1008B0000000000000000000000000000000000038
:1008C000FEB51C00089FBE4D6B465870684601700F
:1008D00016001CE00422A9192C3101A801F016F918
:1008E000002F0FD101A8C07869464978884209D104
:1008F0006846007806280FD06846007801A98978F4
:10090000884209D0684680883618B6B20027688DBC
:100910008642DFD10020FEBD002C00D026800120C1
:10092000FEBDA84A514380081B2242438818253047
:100930007047F8B584B004000F001600A04D607B2E
:10094000002802D12A8D002300E0E289009301AB48
:1009500001212078FFF7B4FF002801D1042019E01D
:100960000120607368468088E081684680882C1882
:10097000062221002C3102A801F0C8F820003230F4
:10098000386068460089801F308002A800790A9983
:100990000870002005B0F0BD7CB5894D298D6A46F0
:1009A00091800021060019E0684680882C180422F6
:1009B00021002C31684601F0A9F800F074FC69466A
:1009C0000988421A61182C3120002C3001F0EAF815
:1009D000688D69460988401A68850121009101AB3C
:1009E0006846828806213000FFF76AFF0028DBD1C5
:1009F00073BD016800220281428182730B78FF2B54
:100A000005D0FE2B09D103895B1C03810AE04268F3
:100A1000511A091F818100207047002B0DD1438995
:100A20005B1C43814A88D21C032313435B1CC918F7
:100A30004A1D43689A42E1D3EDE703207047FCB5B5
:100A400085B00D9F427B002A1BD10C9A130005D064
:100A500002AB5A80FE221A7002AD00E0456842687F
:100A600083689A4215D26A4691712978FF29544EBB
:100A700001D10EE020000021027B002A12D0017378
:100A80001EE000970123069A0599FFF752FF002800
:100A900047D0042045E0032043E06A786B469B7909
:100AA0009A4216D042686B88DB1C03241C43641CEA
:100AB0001519456082689542E3D22A78FF2AE0D072
:100AC0002A78002AEED0FE2AE5D16A469279FF2ADA
:100AD000E3D1328D6B469A8004000CE00822684610
:100AE000808831182C3103A801F010F8049861684F
:100AF0008842BFD00121009101AB68468288022163
:100B00002078FFF7DDFE0028E8D16068001D059918
:100B10000860688806990880002F01D068783870CE
:100B2000002007B0F0BD7FB515001C00099E002213
:100B300032800B9A01926A46128D009202AB03AA90
:100B4000FFF77DFF010013D1694609898D4201D36A
:100B500006200DE0089A481B904200DA02002000AF
:100B60000399491900F0D2FF6846008930800020BF
:100B700004B070BDFEB5B44D0D40491B6B461970F5
:100B80000024070016000AE00422311901A800F031
:100B9000BDFF019A3919AD4801F01CF8241DAC4283
:100BA000F2DB0020C043019068460278711901A869
:100BB00000F0ACFF019A7919A44801F00BF8F7BDD9
:100BC0009C12002034230000F6B585B00E001C00F6
:100BD00025000027FF43417B002918D00021009108
:100BE000002301AA921C02A9FFF7A3FE00283AD114
:100BF0006846C088801B80B2A04246D32A00029873
:100C00008119069801F03CF800283FD03DE041688A
:100C100002918268914202D20978FF2901D1042011
:100C200034E0027B002A1ED1FE291CD18849098D9F
:100C30006A46918004000120009001AB68468288DA
:100C400002212078FFF73CFE00280ED008228048C1
:100C50006946898841182C3103A800F057FF049891
:100C600061688842E7D1052010E0029949888E42E8
:100C700001D306200AE020732A006068001D811954
:100C8000069800F0FDFF002800D0380007B0F0BD46
:100C9000FFB585B000270E9A178069460C8C417B02
:100CA000002919D0009700230E9A01A9FFF741FEF1
:100CB000002846D10E9800886946098B421A68467A
:100CC000008C824200DB220001986946098B4118A2
:100CD000079800F01BFF50E00F990A0005D002AA08
:100CE0005180FE21117002AD00E0456841688268C4
:100CF000914202D22978FF2901D104203EE0027BF3
:100D0000002A1ED1FE291CD15149098D6A469180C5
:100D100006000120009001AB6846828802213078ED
:100D2000FFF7CEFD00280ED0082249486946898881
:100D300041182C3103A800F0E9FE0498716888423C
:100D4000E7D105201AE06846008B6988884201D304
:100D5000062013E037736846008B69880A1A6946D3
:100D6000098C8A4200DB22007168091D0918079866
:100D700000F0CCFE68880E990880002009B0F0BD14
:100D800038B5050000210420FFF7CBFDEFF31084F8
:100D900072B600F08FFF002803D184F3108807207B
:100DA00032BD2900FF22D243284800F013FF84F30C
:100DB0001088002032BDF8B507000E00150000F0C5
:100DC0005FFF00281BD0681EB3490143491C4B0339
:100DD0001B0EB2483818C20A00211C4800F01BFF45
:100DE00000240AE06010800F001980108000325843
:100DF0003919164800F0EEFE241DAC42F2D3F1BDC5
:100E000070B506000D00EFF310840DE00123327879
:100E100000210E4800F0FFFE84F310883078401C5B
:100E200030702878401E2870287800280BD00121C7
:100E30000020FFF776FD72B600F03CFF0028E5D1F8
:100E400084F31088072070BDFCFF000000100040F4
:100E50009C12002001210170002141808180704797
:100E6000F8B58AB005000E0017001C0000200090A5
:100E7000FF223900300000F0B9FFFE2069460876F5
:100E8000099508960794109D009C06AE1AE06846E6
:100E9000008A6988401A401E03240443641CA4B2DB
:100EA00068886946098A091A4A1E03211143491CA8
:100EB00089B2059A8A4244DB01209142287049D0C8
:100EC00000206880381B001F80B205902878002819
:100ED00028D0701C0390A888029004A8019005985F
:100EE00080B200900898001D03190022FF21099884
:100EF000FFF719FE6946098AA98001000ED16846EC
:100F0000008A7080042206A90898001900F0FEFDEE
:100F10007088C01C032101436418BFE707990C8047
:100F20000BB0F0BDA888019004A80090059883B28A
:100F30000898021969880998FFF7AAFE0100A6D04F
:100F4000EEE700212970059940186880079807800E
:100F50000020E5E70020F8E7F1B58B48854400273D
:100F6000CA4884210901694409781422514341186F
:100F700001914989002901D100208AE000970023CE
:100F8000028D06218420000168440078FFF798FC58
:100F9000002801D009207CE0202000F08AF90028F8
:100FA00001D1082075E006A984200001684400787A
:100FB00000F018FB079C04A8FFF74CFFEFF3108626
:100FC00004A803C80AAA03C20CA806A9102200F0AC
:100FD00083FD04A8009003AB8022120110A906A88B
:100FE000FFF73EFF0500042D08D0002D51D16846C3
:100FF0008089802109018842E2D103E06846808926
:10100000002816D0012168468089FFF78AFC72B655
:1010100000F050FE002829D06846828910A92000DF
:10102000FFF7C9FE86F310880127F8022418002D67
:10103000C6D00898401E18490143491C081BC00A25
:101040006946487015482018C00A0870491C68464F
:10105000FFF7D6FE072819D1684642780178842028
:1010600000016844007800F0AFF912E086F31088C0
:10107000002F01D107200CE00AA803C801900291BB
:1010800000940CA80FC800F070F902E00198FFF777
:10109000B0FCCB498D44F0BDFF0700000000FCEF21
:1010A000F8B5C84CA54480273F010500EFF3108632
:1010B00002A829001831062200F028FD04A8291DE5
:1010C000102200F009FD28001830009001AB3A0012
:1010D00008A9281DFFF7C4FE040068468088B842AE
:1010E00005D0002CE4D068468088002816D0002166
:1010F00068468088FFF715FC72B600F0DBFD00281B
:1011000029D06846828808A96869FFF754FE86F3EB
:1011100010886869C0196861002CC9D0E868401E51
:10112000791E0143491C6869081AC00A694648705B
:101130006869B4494018C00A69460870491C684685
:10114000FFF75EFE072815D16846427801782879B6
:1011500000F03AF915E086F31088281D04A9102242
:1011600000F0BAFC2800183002A9062200F0CEFCDC
:10117000072006E045482979142251434018FFF71B
:1011800038FCC6498D44F0BDC0F7FFFFF8B58D4C63
:10119000A54400216A469171002400253B4F0600BA
:1011A00000E06D1C3079854216DAB0680C21694385
:1011B000405C01001422514379184989002900D06C
:1011C00001240021009100233A8D0621FFF778FBCE
:1011D0000028E6D0092055E03500002C24D08027D7
:1011E0003F013A00FF2108A800F029FE00240DE08D
:1011F00002A8FFF72FFE02A8009001ABBA1B92B223
:1012000008A8811904A8FFF72BFE641C28798442E2
:101210000CDAA8680C226243011D8E5804A9805C78
:1012200000F0E0F90028E3D000202BE00121380095
:10123000FFF777FBEFF3108672B600F03BFD002856
:1012400003D186F3108807201CE03A0008A928681B
:10125000FFF7B1FD86F3108800260C4F68468479AD
:101260000CE0A8680C217143405C142148433818F5
:10127000FFF7BFFB010000D00400761C28798642EE
:10128000EFDB200085498D44F0BD00009C1200205A
:10129000C1498A79824201D102207047897C81420A
:1012A000FAD000207047CE48418D008D081A80B2D8
:1012B000704770B50400FFF7F6FF0500802040007E
:1012C000411BA14201DA002070BDC54E718D401A4C
:1012D000A0420BDA2A0030002C30318D411830004A
:1012E0002C3000F05FFC002030857585012070BD3A
:1012F00070B50C00BA4D6E8D80214900891B22000B
:10130000914201DA002070BD0100A8192C3000F0D4
:10131000FDFB30196885012070BDFEB504000D008D
:10132000099F581E03210143491C6846018000881B
:10133000C619B61DB0B2FFF7BCFF002801D10820C6
:10134000FEBD01A8012181700680C47005710621CF
:10135000FFF7CEFF684601880898FFF7C9FF3900FC
:101360000A98FFF7C5FF0020FEBD1FB588B02020FA
:10137000FFF79FFF002801D108201EE00E9C684661
:101380002021018003218170001D08A9102200F096
:10139000A3FB0594684618300FA9062200F0B6FB9F
:1013A00020216846FFF7A4FF01208D4908AA127882
:1013B00014235A438918887300200CB010BD000014
:1013C00044080000E0F7FFFF7CB504000D001600A4
:1013D0000620FFF76EFF002801D1082076BD684681
:1013E0000621018004218170C470057146710621B7
:1013F000FFF77EFF01207A491422544309198873AC
:10140000002076BD0000FCEFF8B5944CA544070021
:101410000D0080221201FF2108A800F010FD002419
:101420001BE00C266643A868805DB84214D004A96E
:1014300000F0D8F8A8688019466802A8FFF70AFDEE
:1014400002A8009001AB80200001821B92B208A884
:10145000811904A8FFF704FD641C28798442E0DBAD
:101460002E0080252D0101212800FFF75AFAEFF305
:10147000108472B600F01EFC002803D184F310889B
:10148000072007E02A0008A93068FFF794FC84F3DE
:101490001088002001498D44F0BD000024080000A0
:1014A000FBB582B003236E495218032515436D1C0A
:1014B0000CE03778FF2F17D0FE2F01D0002F2BD153
:1014C0007288D21C1A43521CB21842608268466865
:1014D000741D9442EDD342490078142250430818F9
:1014E000408900281AD015E00190901B884200D353
:1014F00008003B4C80B2A9B26A46128D8918091DBA
:1015000088420DDA01980078142148432018408958
:10151000002803D00B203DE003203BE0022039E00F
:101520006846007BFE216A4611706946487068462D
:10153000008D281848800021001D80B2FFF7F1F9C6
:10154000EFF3108772B600F0B5FB002803D187F3E4
:10155000108807201EE0009A31007C4800F03AFB1A
:10156000049AA9B2301DFFF705FB0B9A6846018D5E
:10157000ADB27019001DFFF7FDFA87F31088200047
:101580000830019909781422514340180188491CF8
:101590000180002005B0F0BDB878051010B500241A
:1015A0009B480C21614341188A79694814235343AD
:1015B000C0180368002B11D1012A0FDC0A680260F1
:1015C0008B88D218426009890182FFF712FA010064
:1015D00005D1641C012CE3DD002010BD012010BDED
:1015E0009C12002010B50200022A01DB012010BD70
:1015F000574B142462439A1813684B6052688A60F0
:1016000001220A7308700020487310BD7FB5504C4A
:101610000578142675436419A47B002C01D00A2098
:1016200008E003940294099C01946C46248C009475
:10163000FFF779FA04B070BD7CB5454C05781426E7
:1016400075436419A47B002C01D00A2076BD019457
:10165000069C0094FFF71CFB76BD0000E0F7FFFF3F
:10166000FFFF0000F0B585B0060030786C462071B1
:10167000374D68460079142460432818847B002C79
:1016800001D0092041E0521E03241443641C8789C1
:10169000BC46A7B26A46128DBA18944506DA40894C
:1016A000002801D00B2030E002202EE068460173B4
:1016B00004930B9F0020009000232A8D062168468A
:1016C0000079FFF7FDF8002821D002976846008DC9
:1016D000019004980090A3B272686846017B30784C
:1016E000FFF71BFE010010D128000C3031781422C6
:1016F0005143401801886A46128DA218521E0323D6
:101700001343C91A491F0180002005B0F0BD01979D
:101710006846008D0090049BA2B26846017B3000B1
:10172000FFF7BEFE0100DFD00728EED10297684622
:10173000008D019004980090A3B272686846017B06
:101740003078FFF7EAFD0100CED0DEE70010004060
:101750009C120020FEB50500684E30000E3029783E
:1017600014225143405C002801D00920FEBD002412
:10177000687B002810D0E8893518062229002C3112
:10178000684600F0C3F9684684700622694628005E
:101790002C3000F0BBF938E06868A96888421DD297
:1017A0000178FF291AD0FE2916D1FFF7E9FA0100C6
:1017B00001D015D129E03000083029781422514396
:1017C00040180188491E01802878142148433018A8
:1017D0004189491C418118E00520FEBD0420FEBD61
:1017E000072813D16F682D7808260820FFF761FDC0
:1017F000002801D10820FEBD6846068002218170C4
:10180000C57001970821FFF773FD0020FEBD0000A1
:10181000B8780510F0B585B00400384F142148435E
:1018200038180290807B002801D0092063E001A9CC
:101830002000FFF72DFD022822D102980568466896
:101840002000FFF7A9F8A0482818C00A6946487088
:10185000761E9E483043401C401BC00A087000A8FA
:10186000401CFFF7CDFA072806D168460278417878
:101870002000FFF7A9FD3EE00298FFF7BAF835E037
:10188000012837D101992000FFF7BEFD060013D1D2
:1018900000240198007984422ADA019880680C219A
:1018A0006143455C2800FFF777F814204543781919
:1018B000FFF79FF8641CECE7072E19D1019F08265B
:1018C0000820FFF7F6FC002801D1082013E02000D3
:1018D000FFF762F803A8068005218170C4700497A1
:1018E0000821FFF705FD012002998873002002E01E
:1018F000300000E0012005B0F0BD00009C12002087
:101900001CB504006946FFF7C3FC022803D1200080
:10191000FFF722FB16BD012803D10098FFF736FC24
:1019200016BD012016BDF0B58BB00027684C208D88
:10193000618D884238D02518042229002C3102A854
:1019400000F0E4F802A88078012808D006D3032824
:1019500069D051D3052800D190E071D3B2E00622BE
:1019600029002C3103A800F0D1F805A903A8C078FC
:10197000FFF738FE01970097208D23183233684611
:101980008089821F92B203A8017905A8FFF788FD1C
:10199000050053D1208D6946098940182085618D45
:1019A00080B28842C3D1A7624A4800214156C8B2DA
:1019B00014224243A2185389002B03D09389128A20
:1019C000934213D3401CC0B2022800D100208842A9
:1019D000EED100210020C0433E4A1170010602D41E
:1019E000C0B2FFF78DFF00200BB0F0BD411C4AB222
:1019F000022AF1D10021EFE7082229002C316846A4
:101A000000F084F80198FFF7BBF9050016D168468D
:101A1000C0781421484320180189491E0181418959
:101A2000491C4181B6E7202229002C3103A800F08F
:101A30006DF803A8FFF734FB0500ABD02800D3E70F
:101A4000062229002C31684600F060F86846411DE6
:101A5000001DFFF7D5F905000622694620002C304D
:101A6000238DC01800F052F8002DE7D16846C078E9
:101A7000142148432018FEF7BCFF8BE708222900F9
:101A80002C31684600F042F801996846C078FFF7AB
:101A9000BBFC0500D2D10025019801798D42ECDA1A
:101AA00080680C216943465C30006946C9788842E9
:101AB00001D0FEF771FF14204643A019FEF799FFED
:101AC0006D1CE9E70C208FE70000FCEFFF0700002A
:101AD0009C1200204815002070B4103A03D378C936
:101AE000103A78C0FBD2530701D318C918C001D5EA
:101AF00008C908C0D20704D30B880380891C801C46
:101B0000002A01D50B78037070BC70478B0701D198
:101B10008307E1D0124205D00B78491C0370401CAA
:101B2000521EF9D17047F1B4016842184168480863
:101B3000131800988068C9071ED5494640181BE055
:101B40001778521C0770401C761EF9D1002C13D058
:101B50001678521C89080D40032D01D11578521CAE
:101B6000290271184D424119A41C05D00D78491C59
:101B70000570401C641EF9D19A420FD01178521C96
:101B8000032503260E4002D11678F61C521C0C09C0
:101B90000F2CD9D114780F34521CD5E700980C3093
:101BA000F2BC7047814202D25318984203D300B569
:101BB000FFF7ACFF00BD521E03D38B5C8354521E53
:101BC000FBD2704700690840884201D1012070476C
:101BD0000020704710B50F2303618903090C816150
:101BE000026433210EE010B50F2303618903090C51
:101BF0008161116801645168416491688164D168B0
:101C0000C164CC210160040001212000FFF7DAFF4C
:101C10000128F9D110BDF8B505000F26FF2909D11B
:101C20002E612220286001212800FFF7CBFF012828
:101C3000F9D1F1BD17003C00009306E00121280016
:101C4000FFF7C0FF0128F9D1641C009838188442BE
:101C5000EFD22E61E0028003000CA8611120286001
:101C6000ECE710B50446084649780078C046C046FF
:101C70000820E070A078BF210840A070842010BD2B
:101C8000A446521E08D303780C78401C491CA3427A
:101C9000F7D0181B6446704700206446704708B5AB
:101CA0000846891D00918388C278817800880020C9
:101CB000C04608BD58B5040000F015FB0600684694
:101CC00000F0C2FC002803D00098801B844201DA97
:101CD000012052BD002052BD10B5FFF75FFC424C01
:101CE000211D0020FFF77EFC210014310120FFF7A9
:101CF00079FC201D206010BD3EB53B4C022802D16E
:101D00002500143500E0251D256001936B461B8BD3
:101D100000930B0001002068FFF7A4FC002805D009
:101D2000022801D1002000E00120C0433EBDF8B5EB
:101D300084B00E0019002C4C022E03D1250014355E
:101D4000012301E0251D00230700256028466D467C
:101D50006A8103910A9D022F08D102A900912B00EC
:101D6000039A69464989FFF767FC0FE0002F03D10A
:101D700001001800FFF736FC02A801900095039BB4
:101D80006846428931002068FFF740FC010001D11C
:101D9000002005E0042801D1022000E00120C0431A
:101DA00005B0F0BD10B5140023000A0001000E4874
:101DB0000068FEF709FF002804D001D5200010BDFF
:101DC0000220C04310BD80B5022807D1064908682B
:101DD0001431884207D0FFF7BDFC01BD032802D1B2
:101DE0000020FFF717FD01BD7C1400201206130A26
:101DF0001A43130C1A4300BF094205D0830707D0CA
:101E00000270401C491EF9D1704700000022FFE714
:101E10001300103906D330B41400150010393CC03B
:101E2000FCD230BC490700D30CC000D504C08900E7
:101E300002D30280801C002900D50270704710B5C3
:101E400004000800110002002000FFF7CFFF20006F
:101E500010BD8078800701D586207047002070472C
:101E6000F3B589B000250D700998807A002859D003
:101E7000994803C8AE4A1268002312184B4106A8BD
:101E80000CC0EFF31080029072B600F054FD020017
:101E90000B00099803C804AC03C4012404A803C8B8
:101EA0000090019106A803C8C826B602002736187C
:101EB0004F4100980199B9420ED301D8B0420BD3DB
:101EC00006A803C8B9267600002736184F419F425E
:101ED00023D801D3964220D200200A32434104A8DD
:101EE00003C88B4211D801D382420ED20998027ADC
:101EF000C37A04A803C8190000F0CCFD0A99087041
:101F0000099885720998447209E0A0488572029880
:101F100080F310880A98047004E08548447602989B
:101F200080F310880BB0F0BD80B500F0A4FC012058
:101F30009D49087101BDF3B587B0044600200870C3
:101F400000E02469002C5DD0207B0028F9D0EFF35D
:101F50001080019072B6002069460870491C8B48B9
:101F6000FFF77EFF00F0E7FC02000B0003CC083C0B
:101F70000F00861A9F4104AAC0C2012504AA0CCAF8
:101F8000002B34DB01DC012A31D3804A0CCA02AEBB
:101F90000CC602AAC0CA664A926B002312184B41B3
:101FA0009F4210D801D396420DD2784A527A002A25
:101FB00009D002AA0CCA8B4207D301D8824204D3AB
:101FC0005B48057601E068460570694604A80CC8C0
:101FD000100000F01FFD68460078012809D16B4809
:101FE000817A427A0A4382720021417201E00898A4
:101FF0000570019880F3108808980078002801D0B7
:10200000079800E0200009B0F0BD1CB5664C694699
:10201000A068FFF790FFA06068460078012806D10D
:10202000207D411C627D914200D0401C207513BD73
:10203000FEB500256C462570017B002901D00120EA
:10204000FEBD0CC0083801210173574CA6680196EB
:10205000070001E035003669002E08D00CCE083E9E
:1020600003CF083F8B42F5D301D88242F2D3380028
:102070000661002D01D1019000E0286101998142A3
:1020800013D16946FFF757FFA06068460078002823
:102090000BD0EFF3108072B6217D4A1C637D9A420B
:1020A00000D0491C217580F3108868460078FEBD79
:1020B00010B51F4C002808D0207B00280BD1200031
:1020C0002030FFF731FF012004E02000203000F035
:1020D000D5F80020207310BDF0140020FEB500F0EC
:1020E00061FCB64D00246C72AC72EFF3108672B6D0
:1020F00000F021FC6A4603C200F07CFC07000CCD16
:10210000684603C8121A8B410021D21B8B4186F30B
:10211000108804DC01DB012A01D20120FEBD002B66
:1021200004DC01DB0F2A01D20220FEBD0020FEBD2F
:102130004014002080B569461448FFF791FE1A4804
:10214000017E002903D00021017600F008F89C48A8
:10215000016801220A4302600068009001BD18B5C1
:1021600011490020087697480268974B1340036096
:102170000A7D531C4C7DA34200D0521C0A75C169D4
:1021800001220A43C261C069009011BD08150020F8
:102190005D480168022900D1704780B500680328B6
:1021A00001D0FFF732FF01BD4014002010B5FFF74A
:1021B0003FFF04000120FFF77BFFE0B210BDF8B540
:1021C00004000D0000F0B7FB06000F00290D2803E6
:1021D0000A22002300F016FD8019794102000B004D
:1021E0002000FFF725FF04000120FFF761FFE0B2A8
:1021F000F2BDFEB503000025684605726F4CE17222
:102200002272724803C81A1A002312184B410CC4D8
:10221000083C65720126A6726D4DAF6803CC083C80
:102220000090019103CF083F02000B00A86B002132
:1022300080185941009A019B8B4217D801D38242E2
:1022400014D2387B002811D002A92000FFF708FE25
:10225000AF680CCC03CF083F8B4209D301D8824230
:1022600006D3387B002803D02E7601E0FFF7CDFEA1
:102270000120FFF71DFF6846007AFEBD7CB5030014
:10228000534CA268150000210026100001E02E002A
:102290002D69002D09D09D42F9D101932B699542FA
:1022A00001D1180002E0336100E001936D4629700E
:1022B000019B1973824214D06946FFF73CFEA0606F
:1022C0006846007800280DD0EFF3108072B6217DAB
:1022D0004A1C637D9A4200D0491C217580F3108806
:1022E00073BDA06073BD80B500F025FB04BD00B5D3
:1022F000801A99410A22002300F0C0FC000B0A0555
:102300001043090B00BD00000C000060F8B505008B
:1023100000F03CFC8B480126416831434160016874
:10232000314301608848310601602988C92900DAF3
:10233000C821274CA163310501606846A9788170E6
:102340006968C1702988018000F036FA1F4800F0E2
:1023500015FB0027A7602673184A00205072907260
:10236000002103C228882061A782686800030A212F
:1023700000F0B6FC20602771AC4D002804D1280085
:1023800000F01DFC20600AE0280000F018FC216825
:10239000814203D3280000F012FC01002160A44810
:1023A000A062676300F0C7FA2268002312184B414D
:1023B00020002030FFF73CFEF1BD00000815002092
:1023C0004418006030180060FFFFFFBFF0140020C9
:1023D00040140020F8B584B0002469460C70EFF377
:1023E000108672B69348407A00280CD000F0A3FA09
:1023F00002000B008F4D03CD083D994203D801D355
:10240000904200D26C7286F31088814F22E0401C0B
:1024100019E00469002101738168002900D0884710
:102420002000F6D16946B868FFF785FDB8606846B8
:10243000007801280AD1EFF3108172B6387D421C72
:102440007B7D9A42E3D1387581F31088787D0399BA
:1024500040187875787D397D0A1A02D280204000B4
:102460001218002A28D00392BC6800260294019416
:10247000002502E0260024696D1C002C0FD0207B73
:102480000028F7D000F057FA02000B0003CC083CFC
:10249000801A99410029EDDB01DC0628EAD3002DE2
:1024A00003D000203061029401E0002001900298E6
:1024B000B86001980028B4E75F4E012438790028FD
:1024C00023D000F0E4F900283AD100253D7100F056
:1024D000EFF9300000F052FA787E00280AD07D76BD
:1024E000544884726946FFF7BBFC6946B868FFF739
:1024F00022FDB86000F01FFA3A68002312184B4121
:1025000038002030FFF794FD1AE0307C002817D007
:1025100000F011FA02AA03C203CEFA2252030023EA
:1025200012184B4102A803C88B4209D801D382423A
:1025300006D238002030FFF7A1FE00F09CF93C7174
:1025400005B0F0BD4018006000E100E0FEB50400F9
:1025500000F060F8002859D001A800F02FFA2C4FA5
:10256000344E69460C70717A002902D1B17A002983
:102570001CD0012833D000F0DEF904000D0000F07B
:1025800039FA020003CE002312196B413C69002581
:10259000A4185D4100221E345541A9421FD301D821
:1025A000A0421CD3022469460C7003E0022816D016
:1025B000012814D0B868002826D0007B002823D03A
:1025C00000F0B9F902000B00BD6803CD083D0026FC
:1025D0001E327341994204D801D3904201D20120A6
:1025E000FEBD032C10D1286900280DD13800203001
:1025F000854209D10020FFF75BFD10480168104AB1
:102600000A4002600320FEBD68460078FEBD00005F
:10261000401400200B48017D427D914204D1007995
:10262000401E8041C00F704700207047FFEFFFFF42
:10263000291F041008150020F01400203018006035
:10264000FFFFFFBF40140020034909684A6D543161
:102650000260087900097047BC0600209048816834
:1026600001220A43826000210160704730B58D4B22
:102670008B490A681A400C681C40A242F9D1002A12
:10268000F7D0894B14125C43D5B25D432B12E3188B
:1026900010335B1143628261844A4B6813404C687B
:1026A0001440A342F9D1002BF7D09911A54A514308
:1026B000803109120162C36130BD10B50400FFF71B
:1026C000CDFFAD480068C007FBD52000FFF7CEFF67
:1026D00010BD68214143090ADB225043000C081851
:1026E000704780B5FFF7F5FF63E238B530C80838AA
:1026F000954A13680B60AA4A416AC06A181A00F02A
:102700004BFB00210019694134BD70B505008F4CA9
:10271000607A7D214843C90000F0DFFA461CF6B21A
:10272000A54A296A1B2000F037FB20706078FFF76C
:10273000D8FF3D216854E0788019FFF7D2FF35219A
:10274000685420798019FFF7CCFF362168546079EE
:10275000FFF7C7FF37216854A079FFF7C2FF382180
:10276000685470BD38B50400774805688C4AA16A82
:10277000206B281A00F010FB210008310CC9002141
:102780008018594103C4083CE562256322000832E1
:1027900003C2606AA06231BD80B5874A00F0FCFACE
:1027A0009349884201DD080002E0102800DA102079
:1027B00000119249888201BDF8B507008F4C388816
:1027C00020618F4EB0797D214843C90000F085FA21
:1027D000451CEDB2F878002802D1B87800280DD059
:1027E0008848C168C907FBD5016817220A430260FF
:1027F0002000FFF762FF606AA06209E0C820400382
:10280000A0626062804820628048A0618048E061E8
:10281000F87834216054216A206980B2FFF7BCFF48
:1028200000203E216054002103C4083C464A12683F
:10283000E26222632200083203C22000FFF765FF34
:1028400030784019FFF745FF1B303921605470780C
:102850004019FFF73EFF1B303A216054B078FFF774
:1028600038FF1B303B216054F078FFF732FF1B30FC
:102870003C216054F1BD86480078002806D0084805
:10288000816801220A4382600021016070473A4852
:102890000068C107C90F01204840704700000000D0
:1028A00008100060FFFF0700F6BC0800FFFFFF07ED
:1028B00038B590B0514C3420205C002831D06846A7
:1028C00021004022FFF708F96846FFF7CFFE08997C
:1028D000049880B2FFF760FF6846FFF716FFEFF33A
:1028E000108572B60698A0610798E061089820628A
:1028F000099860620A98A06268463521415C3522D9
:10290000A1543621415C3622A1543721415C372243
:10291000A1543821415C3822A1543D21405C6054CF
:1029200002E0EFF3108572B62000FFF71BFF85F37E
:10293000108811B030BD80B56946A448FFF7D5FEB8
:1029400004BD00005307000010180060C5000020FF
:10295000F8B50500294C69462000FFF7C6FE0600C1
:102960000F009B4A616A0098401B00F015FA002393
:102970003900301A9941F4BD101000600200934BE9
:102980003420185C1074D869D0601800083003C86F
:1029900003C2083A98699060186B50617047000054
:1029A0003506000000208B4908608B4801688B4A7F
:1029B0000A400260704700002603000088494A6808
:1029C000520003D5096801600320704781490A68F5
:1029D000022A03D149680160012070470A68032A6E
:1029E00003D1496801600220704700207047000051
:1029F000FF0F00007B4800787047000000140020A3
:102A0000C800002004100060C2F528008D5B0000A3
:102A1000ECEB650170B50C00734A6C49096A00F073
:102A2000BBF90100202900D82021714A9068411883
:102A300008315162136A8025AD051D431562936A02
:102A40008025ED051D4395620023624D2E68022E00
:102A500005D02D68032D02D02578012D01D02370DB
:102A600070BD644C25786D066D0E2570A374E374FB
:102A7000012313600F239943D161116A07239943FE
:102A80001162116AC023DB050B43136270BD0000A5
:102A900034140020FEB504004C4D3920285C012977
:102AA00005D1002A01D0352106E0362104E0002AB4
:102AB00001D0372100E03821695C0091019002A922
:102AC0002800FFF712FE201A4A4E494C0027464ABA
:102AD00001992B69C918C8318142296A17D200F0BF
:102AE0005BF97178401A0099401A02990918E1615E
:102AF000216A07229143216236490F60216AC02270
:102B0000D2050A432262009972788B1812E000F015
:102B100043F93D21695C401A009A801A029A121802
:102B20002C4B5A6002221A60226A2C4B13402362FB
:102B3000009A5318A98A2160317880220A433270A2
:102B4000F021B174FF21F174C118581D814207D2E0
:102B500020480760206A2149014021620120FEBD12
:102B60001B4A696A180000F017F93E2168540020DA
:102B7000FEBDEFF3108072B61C490968154A891C26
:102B800051600221116080F3108870471A480121BA
:102B900042680A43426002681143016080200004D9
:102BA00016490860704780B515480068FFF7D0FEE9
:102BB00004BD0D4A0549096A00F0EEF802BD80B572
:102BC000034A0249496AF7E70000000000140020A8
:102BD000350600000C00006028180060FFFFFFBFF2
:102BE000241800603E140020260300001018006026
:102BF00008180060C40000204818006000E100E0F0
:102C000014000060124224D0994228D970B50025E2
:102C10001B4202D00C00002109E0002401264918C3
:102C20006441944200D3A41A7641F8D331000126BE
:102C300001E0764109D2001864416D41A41A9D411A
:102C4000F7D2A4185D41B619F5D3300022002B004D
:102C500070BD1B42D8D108B5C046C04608BD01D1E1
:102C60009042D3D202000B0000210020704710B523
:102C7000084649880088C046C04610BD30B443436A
:102C800051435D18010C0C00130C5C432D1980B2EC
:102C9000434392B251430024C918644124040B04F5
:102CA000090C09195043C018694130BC7047F446FB
:102CB000002804D4494200F013F8404260474042E3
:102CC000002905D45FD000F00BF84042494260472C
:102CD000494200F005F84942604703460B43E6D4F9
:102CE0000022030A8B420BD203098B4219D24308FC
:102CF0008B422ED2411A00D20146524110467047F3
:102D0000FF2209023FD012068B4205D3121209029C
:102D10008B4201D31212090203098B4219D300E03E
:102D2000090AC3098B4201D3CB01C01A524183095E
:102D30008B4201D38B01C01A524143098B4201D30C
:102D40004B01C01A524103098B4201D30B01C01A37
:102D50005241C3088B4201D3CB00C01A52418308B1
:102D60008B4201D38B00C01A524143088B4201D3DE
:102D70004B00C01A5241884200D3401A5241CFD270
:102D800001461046704708B5C046C04608BD10B59C
:102D90000888C046C04610BD10B5904216D98AB208
:102DA000030C090C0C46594380B25343444350432F
:102DB0001B191A041B0C10185941802252030023BE
:102DC00012184B41520DD802104310BD48438022C7
:102DD00052031218520D104610BD10B503C9C0465B
:102DE000C04610BD81B02F490A6802430A600968D5
:102DF00008400090009801B07047000081B02A4858
:102E0000016802220A430260002102E000BF00992B
:102E1000491C009100990629F8DB016804220A4345
:102E2000026001B0704721488168042291438160AB
:102E300001684905FCD58168022291438160704791
:102E400019480168890703D500684107C80F704712
:102E50000020704716490A6883B213430B608A6AE0
:102E6000000C104388627047020C80B2114B01299C
:102E7000196805D108431860986A02439A6270473E
:102E800081431960986A9043986270470A49002804
:102E9000086803D0042202430A607047042290436A
:102EA0000860704760004048080040480000404803
:102EB000080050480C00504810ED00E0FEB5FFB08F
:102EC000F5B00400002069468870EFF31080089088
:102ED00072B600201549886000F018FD002801D165
:102EE00000F060FC200000F08CFD05002000FFF7E2
:102EF0002DFBA54200D92500A84200D9280069462B
:102F000008700B480B490861886368460078002800
:102F100004D06846007801280ED130BFFC990870B3
:102F2000089880F31088002000F0C8FC04000020FE
:102F3000FFFF000000005048F4A80078002803D0EC
:102F400080200002FFF786FF68460078022803D140
:102F5000C0208001FFF77EFFF69DF59C28002043EE
:102F60001A901A98FFF776FF00212800FFF77CFFE0
:102F700001212000FFF778FF002069464870A0215A
:102F8000CCA8FEF743FF01A80021002200230EC0B9
:102F9000182114A8FEF73AFF2C2181A8FEF736FF6E
:102FA0002C2176A8FEF732FF6821B2A8FEF72EFF8B
:102FB00040218CA8FEF72AFF242137A8FEF726FF20
:102FC00024212EA8FEF722FF242125A8FEF71EFFAC
:102FD00058219CA8FEF71AFF30216AA8FEF716FFB9
:102FE00030215EA8FEF712FF2C2153A8FEF70EFF3A
:102FF0002C2148A8FEF70AFF914E306DCCAD40ACB5
:10300000C00755D59120C00540A902680A60001D7F
:10301000211D02680A60001D2100083102680A6053
:10302000001D21000C3102680A60001D21001031D2
:1030300002680A60001D2100143102680A60001D48
:103040002100183102680A60001D21001C3102684D
:103050000A6014227B49CCA8FEF73EFD14227A496F
:1030600028001430FEF738FD142278492800283053
:10307000FEF732FD1422764928003C30FEF72CFD85
:103080001422744928005030FEF726FD142272499C
:1030900028006430FEF720FD1422704928007830A3
:1030A000FEF71AFD14226E4928008C30FEF714FD3D
:1030B000306D400303D56B4801A98CC88CC1306DBD
:1030C000C00303D5684804A98CC88CC1306DC00406
:1030D00004D51822654914A8FEF7FEFC306D4007A0
:1030E00005D52C229021C90581A8FEF7F5FC306D8D
:1030F000000704D52C225E4976A8FEF7EDFC706D22
:10310000C00504D5402211068CA8FEF7E5FC706DC1
:10311000C00704D568225749B2A8FEF7DDFCB06DA0
:10312000C00704D52422544937A8FEF7D5FCB06D5A
:10313000C00404D5242251492EA8FEF7CDFCB06D61
:10314000400404D524224E4925A8FEF7C5FCB06DE5
:10315000C00604D558224B499CA8FEF7BDFCB06DB3
:10316000C00504D5302248496AA8FEF7B5FCB06D09
:10317000400504D5302245495EA8FEF7ADFCB06D90
:10318000800205D52C228221C90553A8FEF7A4FC94
:10319000B06D000204D52C223D4948A8FEF79CFCE6
:1031A000D74800682490D74800682390D648006824
:1031B000229000210CAB8800364A0B9212581A500C
:1031C000491C0829F7DBCE48806921903248006805
:1031D0002090314840681F90306B1E90B06B1D905E
:1031E000306D1C90B06D1B90306EC107C90F0991F6
:1031F00002D10120FFF7F6FD28480068800006D4C0
:1032000026480168802212060A43026004E023482F
:1032100001684900490801600998002803D1306E0F
:103220000121884330666846007803283BD1306826
:1032300007903068C006306832D5102131E000BFF9
:1032400000004048080070481C007048300070487A
:1032500044007048580070486C0070488000704806
:10326000940070480000604800003048000020488A
:1032700000001048002000400020004100300041C4
:1032800000700041006000410050004100400041DA
:103290000010004100E400E010E000E028180060A9
:1032A0000421884330600020D649096850390A91CA
:1032B000D54A11651346116D0A688700DA51401C22
:1032C000091D1A4611651428F5DBD0480068CF495E
:1032D00008600869896B80B2090401431A980840A4
:1032E00000D050E20120FFF7D1FDFFF7A9FD002833
:1032F00002D0FFF798FD0120099000F0B5FB80484F
:103300008068042188437E498860684600780328E5
:103310000DD10798400703D530680421014331607F
:1033200010200799014002D0316808433060B84846
:103330008068002800D122E200200A99B24A116573
:10334000116D8300D2580A60401C091DAE4A1165F8
:103350001428F5DB24986A490860239869490860B5
:10336000229869490860002081000CAA52580B9BE2
:103370005A50401C0828F7DB1E9830631D98B06334
:103380001C9830651B98B065306DC0075ED540A8AD
:103390009121C90502680A60201D091D02680A60A2
:1033A00020000830091D02680A6020000C30091D49
:1033B00002680A6020001030091D02680A602000BF
:1033C0001430091D02680A6020001830091D0268C7
:1033D0000A6020001C30091D02680A600020CD90A0
:1033E000D290D790DC90E190E690EB90F090142290
:1033F000CCA9B848FEF770FB142229001431B64856
:10340000FEF76AFB142229002831B448FEF764FB5A
:10341000142229003C31B248FEF75EFB1422290039
:103420005031B048FEF758FB142229006431AE48F1
:10343000FEF752FB142229007831AC48FEF74CFB12
:10344000142229008C31AA48FEF746FB306D400358
:1034500003D501A8A7491CC81CC1306DC00303D502
:1034600004A8A5491CC81CC1306DC00404D518228D
:1034700014A9A248FEF730FB306D400709D5902013
:10348000C005899901628A9941622C2281A9FEF7BF
:1034900023FB306D000708D5C7487E9901627F99EC
:1034A00041622C2276A9FEF717FB706DC00504D58A
:1034B00040228CA91006FEF70FFB706DC0070BD5DC
:1034C000B29CB29801218843B290BC4D6822B2A947
:1034D0002800FEF701FB2C60B06D4024E443C007D8
:1034E00017D5379D379820403790B54F37A80EC86D
:1034F0000EC70C3F142237A801001031B14805E077
:1035000008ED00E00410004000E100E0FEF7FEFAE4
:103510003D60B06DC00410D52E9D2E9820402E9099
:10352000A94F2EA80EC80EC70C3F14222EA80100CA
:103530001031A648FEF7EAFA3D60B06D400410D5A0
:10354000259D259804402594A14C25A80EC80EC49D
:103550000C3C142225A8010010319E48FEF7D6FA33
:103560002560B06DC00604D558229CA99A48FEF784
:10357000B3FAB06D0124E443C0050CD56A9D6A9886
:1035800020406A90954F24226AA93800FEF7A4FAD9
:103590007598F8623D60B06D40050CD55E9D5E98F3
:1035A00020405E908E4F24225EA93800FEF794FAE8
:1035B0006998F8623D60B06D80020BD5539D5398B9
:1035C000204053908227FF05202253A93800FEF7A0
:1035D00083FA3D60B06D00020AD5489D48982040AE
:1035E0004890B94F202248A93800FEF775FA3D608F
:1035F000306E0125284014D10120FFF7F3FBB348BA
:1036000008E000BF000804105C00002000005048E3
:10361000040000200168490049080160306E044040
:1036200034660122AF214900A948006800F004FB7C
:10363000684644783068800304D400F012FB002808
:10364000F8D004246846447000220021002000F0D5
:10365000F3FA0998002817D10122C8219C48006874
:1036600000F0EAFA684644783068400404D400F078
:10367000F8FA0028F8D0052468464470002200219A
:10368000002000F0D9FA01E0FFF7B8FBA9070868AD
:103690000968F02202400807000F1043316E8D4C7C
:1036A000294039D0102837D1A0084100326E0623B6
:1036B0001340022B01D10A0000E00200844B1F6876
:1036C000854B974222D0A7421AD1824235D12A2077
:1036D0001BE000BF080070481C00704830007048B4
:1036E00044007048580070486C0070488000704872
:1036F00094007048000060480000304800002048F6
:103700008F4203D1824201D12920186058680007F6
:10371000FCD4002000F0BEFA68460078032824D1CB
:103720000122AF2149006A48006800F085FA684824
:103730000068A04204D1042502E08A42E6D1E3E712
:1037400000243068C0066846477852D430680007C5
:1037500004D400F086FA0028F8D0032768464770A2
:1037600000220021002000F067FA21985B4988615F
:103770005B481F9941600021816020990160684683
:1037800040786946887057480169826B89B2120493
:103790000A4355494A65554982680A408260026B6E
:1037A00011400163089880F3108851488068002810
:1037B00032D1694608707BE00000104800200040CC
:1037C0000020004110200041003000411030004135
:1037D0000070004110700041006000410050004145
:1037E000004000410122AF2149003948006800F043
:1037F00023FA30688006B1D400F033FA0028F8D0FC
:1038000000220021002000F017FA2000641CC0B242
:10381000A842E7DB0227A1E7334C606D3549014040
:1038200046D0616D002500200026F02212010F0C09
:10383000314B3B4017000F401F4301970B0C1A40C0
:10384000CBB213438022D205002B05D097691B040D
:103850003B4001D001250120284B019F002F30D093
:10386000926917402DD00126606D2549014001D095
:10387000F0031860234F280005D0606D384002D057
:10388000802040021860606DC046C0461E48002E71
:1038900006D0616D1A4A0A4002D0802109020160F7
:1038A000002D05D0616D0F4002D0802149020160DA
:1038B00068460078FC990870684680787FB078B0D8
:1038C000F0BD0028D6D1F3E70010004128180060B1
:1038D000AC0600200090D0030050004008ED00E04E
:1038E00010E000E0000050485C0000200000FFFFF6
:1038F00004000020FF0FFFFFFFF0000080E100E068
:10390000000FFFF0FF00000F00E100E0074900207A
:1039100049680A7889788A4306D10549096840319F
:10392000C97A002900D1032070470000B0060020AA
:10393000BC06002018B58BB03E4C02A82100242202
:10394000FEF7CAF8A020C0023B490A6802430A6099
:10395000096808400090009802A800F0D7FC0028F1
:1039600005D001002000243000F0F8FCFEE700BF85
:103970003BA003C86A4603C26846FEF7C7FCFEF7D1
:10398000ABF90CB010BD00B585B00021012000F0EE
:10399000A5FB002800D0FEE700F00CFD274800F052
:1039A000EBFDFFF7C7FF002000F05EFF022000F0F4
:1039B0005BFF002000F09AFF022000F0A8FF01F05A
:1039C00027F8002803D0022000F090FFFEE70490C3
:1039D000039069460872FEF7FDFC01F03FFAFDF71F
:1039E000A2FF01F097F901A8009002A80EC80320D9
:1039F000FFF764FA01F059FA0128ECD101F048FA16
:103A0000E9E780B500F076FE002803D100F079FEEA
:103A1000002801D0002002BD032002BD042808DADE
:103A2000BFF34F8F064807490860BFF34F8F00BFB1
:103A3000FDE77047486C051050004048C34604102D
:103A40000400FA050CED00E0042800DB704780B5A7
:103A50001321137850780002184301F07FFC01BD58
:103A60004001000000000000EFF31482EFF3098131
:103A7000002080F31488BFF36F8FF0B543464C46A7
:103A800055465E466746F8B40F4CEFF30883636013
:103A900006B4BFF34F8F30BF00BF00BF0A4C64684D
:103AA00084F3088882B003BCF8BC9846A146AA46B5
:103AB000B346BC46F0BC04BC80F3098881F314888B
:103AC000BFF36F8F104700000400002010B5C20044
:103AD00018231340FF249C40E2438907090E9940B4
:103AE000030007D5634B0007000F083880088000EB
:103AF000181803E060489B089B00C01803681A4030
:103B00001143016010BD000081B05C4801680222D1
:103B10000A430260002102E000BF0099491C0091A5
:103B200000990629F8DB016804220A43026001B00B
:103B3000704780B552480068002811D1514800688C
:103B400000280DD0012050498860FFF7A7FFBFF380
:103B50004F8F4E484E490860BFF34F8F00BFFDE7BF
:103B6000012002BD80B503210020FFF7AFFF032134
:103B70000120FFF7ABFF03210220FFF7A7FF03217E
:103B80000320FFF7A3FF03210420FFF79FFF03217A
:103B90000520FFF79BFF03210620FFF797FF032176
:103BA0000720FFF793FF03210820FFF78FFF032172
:103BB0000920FFF78BFF03210A20FFF787FF03216E
:103BC0000B20FFF783FF03210C20FFF77FFF03216A
:103BD0000D20FFF77BFF03210E20FFF777FF032166
:103BE0000F20FFF773FF03211020FFF76FFF032162
:103BF0001120FFF76BFF00211220FFF767FF032161
:103C00001320FFF763FF03211420FFF75FFF032159
:103C10001520FFF75BFF03211620FFF757FF012157
:103C20001720FFF753FF00211820FFF74FFF032154
:103C30001920FFF74BFF01BD30B50D00B24C002A33
:103C40000AD0FA218900FFF74BF8401E68436060F4
:103C50000020A060052002E0206801218843206048
:103C600030BDA948006880214902084000D00120E9
:103C7000C0B270471CED00E000E400E008004048DE
:103C80009400404810005048040000200400FA0549
:103C90000CED00E0FEB50121002819D09B48036817
:103CA000E024A34320241C430460836D0624A34323
:103CB00002241C438465836B0B438363836B8B43B8
:103CC0008363836D0B438365806D0840009000988B
:103CD0000F238F4804698F4DAC4213D104680568E7
:103CE000066802685202520F029200684001420FB9
:103CF0000091300C18402E0AF0253540240A1C4053
:103D0000019404E008200190702500240094824C66
:103D10000F26F643276B374038432063E06AF027CD
:103D2000B8430543E562E06A064001983043E0622B
:103D30003820009D002D0DD025680726B543029E32
:103D40007607760F2E43266025688543D200024011
:103D50002A4322603F22D243A56F15400A262E43F4
:103D6000A667A56F40262E43A667E56F154004267B
:103D70002E43E667E56F80262E43E667E56F402613
:103D8000B543E567654D2E6816402E606E68164097
:103D9000102737436F60AE68164020273743AF6067
:103DA000EE68164030273743EF602E6916403043E7
:103DB000286168691040392606436E61A869104081
:103DC0003A260643AE61E86910403B260643EE61A1
:103DD000286A10403C2606432E62686A02403D2055
:103DE000104368625522FF25ED43B64806682E4011
:103DF00016430660C6682E4066273743C760066ACA
:103E00002E4032430262026C2A401D26164306648D
:103E1000C26B2A4059261643C663426C15402D22B8
:103E20002A434264426A0A4342628A07156812685A
:103E3000F0262E4013403343202B63D3A24A117047
:103E40005E235370236B9370D1705D231371E36A0B
:103E500053710623009D002D05D091715223D3711B
:103E6000236813720923D1545B1C1224DDB254550C
:103E70005B1C0468DDB254555B1CDDB251555B1C04
:103E80001524DDB254555B1CC468DDB254555B1C6F
:103E9000DDB251555B1C1A24DDB254555B1C046A1B
:103EA000DDB254555B1CDDB251555B1C2224DDB2E2
:103EB00054555B1C046CDDB254555B1CDDB251558E
:103EC0005B1C2124DDB254555B1CC46BDDB2545520
:103ED0005B1CDDB251555B1C2324DDB254555B1CC9
:103EE000446CDDB254555B1CDCB211555B1C1B21CC
:103EF000DCB211555B1C406AD9B2505400205B1CE7
:103F0000DBB2D054F7BD000010E000E008004048EC
:103F1000E81E0010CCECBCFC48160060E8160060FF
:103F2000F3B581B08020C00501680068F0220A4026
:103F30000007000F10430090644E012264213000FE
:103F4000FFF77AFE624D286880214902014329600B
:103F50000027604C2868800303D42068C003F9D58B
:103F60000427002200210020FFF766FE380034D12C
:103F700068460079002804D1009810286AD10620EC
:103F8000FEBDE020C04369460979491E062950D884
:103F900001A2525C974400BF08465462707E8C00B8
:103FA000A9680840A86070004B4E30600122C8210B
:103FB000FFF742FE286880218901014329602868B3
:103FC000400403D42068C003F9D50527002200214E
:103FD0000020FFF731FE38002CD03800FEBDA96864
:103FE000084020210143A9603000DDE7A9680840AE
:103FF00040210143A9607008D6E7A9680840602104
:104000000143A960B008CFE7A968084080210143B7
:10401000A960F008C8E7A9680840A0210143A96089
:104020003009C1E7A9680840C0210143A9607009AF
:10403000BAE7FEE73021C9439F4832689F4B9A4256
:10404000026804D1114010220A43026004E01140CA
:10405000016001E0FFF758FD6846007AFF2822D092
:104060000621C943012803D06A461279032A06D1E2
:10407000286E0140042008432866012004E02A6ECF
:10408000114002220A432A66009910290BD18C495B
:104090006A461279012A08D101280ED12A20086027
:1040A00048680007FCD40020FEBD6A461279022A47
:1040B00005D1012803D12920F1E70028FBD02820D1
:1040C000EDE7000048150060C41400200048E80136
:1040D0000000404810E000E0AC060020F3B583B0DB
:1040E00078487949086079490861794F3868E02152
:1040F00001433960002500240122C8217548FFF7DB
:104100009BFD754938690191400704D40868C003D4
:10411000F8D5012401252E002500002200210020D1
:10412000FFF78AFD6D4C002D2ED030002BD10025DD
:104130000122962149006748FFF77EFD6848796AA9
:1041400001407962B96A0840B862A06865490140D7
:10415000802000020843A060E06860210143E16024
:1041600020681021014321602068800604D4019852
:104170000068C003F8D50225002200210020FFF7C7
:104180005BFD280074D095E0A0685749014080206D
:10419000C0000843A060B869302188432021014352
:1041A000B961A068802149010143A1604F4A50696B
:1041B0004F49884219D110681168156813681B04AB
:1041C0001B0F0293136801221E02FC239B05334040
:1041D000EE091E2535400095CD01E02189012940D9
:1041E0008501F0208000284007E0D00CC021490163
:1041F00010220092F0235B050022E5683D4E2E4020
:104200003343E360E36880252D041D43E5601E23EE
:10421000DB43002A09D0E2681A40029D6D00154375
:10422000E560E26801251543E560334A15682B40D7
:10423000009D1D431560136801251D43156013681B
:104240002E4D1D4028431060106820230343136047
:1042500010682B4B03401943116010688021C9007E
:1042600001431160B869802149000143B9615EE7EB
:104270006846047CFF2C02D00120FFF70BFD684646
:10428000007B204980220A600A681F4B134080226D
:1042900092011A430A600A6870239A433023134339
:1042A0000B602100FFF73CFE010003D1FFF75AFC31
:1042B00062B6002005B0F0BD041000400090D003AD
:1042C000005000400008041008ED00E00400002049
:1042D000040050480024F40010E000E000004048D2
:1042E000FFCFFFFFFF7FFEFFFFF3FFFFE41E001085
:1042F000CCECBCFCFFFFFFC0940050483FFCFFFF2C
:10430000FFC7FFFF98004048FFC0FFFF10B5C17A0C
:10431000002418290CD8018C172909D301229202F4
:10432000914205D8C189172902D3121F914201D9A0
:1043300082240EE001462422074801F013F801F020
:1043400025F805494968814201D5872401E001F03B
:104350007DF8204610BD0000A01400200EB4C0B5AA
:10436000020003A801900020009001AB0121044845
:1043700078440C3001F0BEF8029906B0084700BF3F
:1043800099350100094902E0084908E008494A68EE
:1043900082434A600A6810430860704704490A680B
:1043A00082430A604A6810434860704720005048C2
:1043B00028005048F8B50120FFF7E6FF0220FFF77C
:1043C000E3FF0420FFF7E0FF0820FFF7DDFF1020E8
:1043D000FFF7DAFF2020FFF7D7FF4020FFF7D2FFDB
:1043E0008020FFF7D1FF80204000FFF7CDFF802025
:1043F0008000FFF7C7FF8020C000FFF7C5FF8020C7
:104400000001FFF7C1FF80277F013800FFF7BCFFE5
:104410007C002000FFF7B8FF65002800FFF7B4FF1D
:10442000A6003000FFF7B0FF0120FFF7B7FF022022
:10443000FFF7B4FF0420FFF7B1FF0820FFF7AEFF3E
:104440001020FFF7ABFF2020FFF7A8FF4020FFF769
:10445000A5FF8020FFF7A2FF6009FFF797FF200963
:10446000FFF794FFE008FFF799FFA008FFF796FF1A
:104470003800FFF793FF2000FFF790FF2800FFF7B9
:104480008DFF3000FFF78AFFF1BD10B50120C04657
:10449000C04610BD81B0A1490A6802430A6009689C
:1044A00008400090009801B0704710B50B004B43D6
:1044B00001685C00E418A14353430B43036010BD43
:1044C00043688B43514319434160704710B50B005B
:1044D0004B4381685C00E418A14353430B43836062
:1044E00010BD30B5CB438E4C9025ED05A8421AD1B6
:1044F000002A03D0022A0FD007D330BD206818400D
:10450000206060680340636030BD606803406360A2
:1045100020680143216030BD20680340236060684B
:104520000143616030BD002A03D0022A0FD007D3B7
:1045300030BDA0681840A060E0680340E36030BD73
:10454000E0680340E360A0680143A16030BDA0685B
:104550000340A360E0680143E16030BD10B5090A83
:104560000B004B434B434B43416A1C01E41AA143EC
:1045700053430B43436210BD7CB506000420FFF794
:1045800089FF9025ED058024A40002222100280047
:10459000FFF78BFF022221002800FFF797FF002280
:1045A00021002800FFF78CFF012221002800FFF7DF
:1045B00098FF002221002800FFF7D0FF0420FFF71A
:1045C00069FF6408022221002800FFF76EFF022223
:1045D00021002800FFF77AFF002221002800FFF7C2
:1045E0006FFF012221002800FFF77BFF002221003E
:1045F0002800FFF7B3FFA0004A490A6802430A6097
:10460000096808400090009847488B21C160016804
:10461000464A0A4002604168454A0A4042600168D1
:104620000C220A4302608168424A0A408260816823
:10463000414A0A4082608168C900C90881600168F6
:1046400062050A43026041683C4A0A404260816850
:104650002A2291438160016801220A4302603100ED
:104660000ED037490E60016820220A4302603548A7
:104670000168FF22914340220A43026032480460ED
:1046800073BD10B50023314A06E014682406FCD53A
:10469000DCB2045DD4605B1CDCB28C42F5D310BD8F
:1046A00027480268002A00D1704780B52748016872
:1046B000890605D5806869460870012168469047DB
:1046C00001BDF8B502000800214C2168214D00927F
:1046D00000220AE0009E97B2F65D6E54491C8026C7
:1046E000F600B14200D10021521C96B28642F1D3AD
:1046F0002160F1BD154800680002C10F012048404B
:10470000704712480168090602D50068400601D4C6
:104710000120704700207047000000005000404812
:10472000200050485800404800400041FFE9FFEF9A
:10473000FFCFFFFFFFFCFFFFFFFFFFF1FFB7FFFF12
:104740003000002008E400E000E100E01C400041EF
:10475000241500209C0E002070B50025012804D0EF
:10476000022802D00020C04370BD002901D10020E2
:1047700070BD0C00160005E001212000FFF781FF4D
:10478000641C6D1C3000461E0028F5D1280070BD49
:1047900001B5012269460120FFF7DEFF009802BD46
:1047A00081B06F490A6802430A60096808400090B6
:1047B000009801B0704710B50B004B4301685C00D6
:1047C000E418A14353430B43036010BD43688B437C
:1047D000514319434160704710B50B004B4381684A
:1047E0005C00E418A14353430B43836010BD30B514
:1047F000CB435C4C9025ED05A8421AD1002A03D08A
:10480000022A0FD007D330BD2068184020606068AE
:104810000340636030BD606803406360206801430B
:10482000216030BD206803402360606801436160FF
:1048300030BD002A03D0022A0FD007D330BDA068B4
:104840001840A060E0680340E36030BDE0680340CA
:10485000E360A0680143A16030BDA0680340A3608D
:10486000E0680143E16030BD38B5010018D1042093
:10487000FFF796FF9024E4054020A061012240212B
:104880002000FFF798FF022240212000FFF7A4FF3D
:10489000002240212000FFF799FF0122402121E062
:1048A000314C012805D10820FFF77AFF80256D00E3
:1048B00006E0022819D10820FFF772FF8025AD001D
:1048C000A561012229002000FFF775FF02222900BF
:1048D0002000FFF781FF002229002000FFF776FF6C
:1048E000012229002000FFF782FF31BD010002D123
:1048F00040201E4909E01E49012802D180204000C5
:1049000003E0022802D18020800008607047010087
:1049100002D14020174909E01749012802D180201F
:10492000400003E0022802D1802080000860704728
:10493000010005D11148016840224A4002607047D9
:104940000F49012803D108688022520004E00228A0
:1049500004D108688022920042400A60704700003B
:1049600050004048200050480000104828000048EF
:10497000280010481800004818001048140000488B
:10498000140010481CB5B24CB2482060B2486060B8
:1049900001F0E2F80121200001F011FC694620003D
:1049A00001F027FC684600780028F7D1012120009B
:1049B00001F0BFFB0021200001F014FA06212000C5
:1049C00001F0E3FA0121200001F027FA0121200083
:1049D00001F0F6FA13BD1CB5CA4CCB482060CB4899
:1049E000606001F02CFD0121200001F074FE694699
:1049F000200001F08BFE684600780028F7D10121E5
:104A0000200001F005FE1121200001F01CFE13BD65
:104A100070B590B00DA800BF51A11CC91CC01921D0
:104A2000002001F081FE01F083FE0500B84C02D0A9
:104A30002900200074E00BA80290801C01900CA8B3
:104A40000090012309220021012001F075FE0500DC
:104A500002D0290045A063E00DAA0921002001F041
:104A6000DBFE050003D029002000283058E0CA48AA
:104A70000390002002901020019007200090002356
:104A800000220121012001F011FF050003D02900BF
:104A90002000543044E000200A9009900120089042
:104AA00000200790012006900020059004900390BC
:104AB0000120029007200190F020C0000090C82340
:104AC000DB0013220221002001F036FF010020004C
:104AD0009030FFF743FCCD4E330028331F220321D3
:104AE000002001F050FF0100D4A0FFF737FC2000A8
:104AF000B430FFF733FCFFF745FFFFF76CFF01F021
:104B000047FF050009D12000D830FFF727FC00F04F
:104B1000F4F9002808D1942007E029002000FC3097
:104B2000FFF71CFC280018E0A62040002018FFF723
:104B300015FCB7483061642130000830FDF73FFBB9
:104B40000500C0B2002807D0E9B2B8204000201804
:104B5000FFF704FCE8B200E0707010B070BD000018
:104B6000426C75654E52474C500000006163695FAE
:104B70006761705F696E69742829206661696C6578
:104B8000643A203078253032780D0A0010B5A14AF9
:104B90001221002002F008F801009F4C02D02000F2
:104BA000FFF7DCFB9D4A002010705080107101213E
:104BB000012001F0FDFF002808D001002000343062
:104BC000FFF7CCFB0220FFF791FE10BD20006830FC
:104BD000FFF7C4FB10BD7CB5040000200190494ED6
:104BE00001236A462721300001F0F4FC01256846C4
:104BF0000078284207D001A9300001F05EFD01983D
:104C000001F0F4FC2060684600780540280076BD7D
:104C10007CB504003B4E01236A462721300001F099
:104C2000D9FC0125684600784008284209D000A92F
:104C3000891C300001F048FD0098001401F0DEFCF2
:104C400020606846007840080540280076BD0000D6
:104C5000E4140020CF5C0410295D0410F0B585B089
:104C600006000D000020694608706D4F380001F005
:104C70007BFA6846007800281DD0062101A8FDF7C0
:104C8000C5F801A9380001F07BFA01AC0020205ED4
:104C900001F096F801F090FF30600220205E01F0F4
:104CA0008FF801F089FF70600420205E01F088F821
:104CB00001F082FFB0606946380001F058FA68469A
:104CC0000078002819D003A9380001F053FA03AC8A
:104CD0000020205E01F07BF801F06EFF28600220CA
:104CE000205E01F074F801F067FF68600420205E28
:104CF00001F06DF801F060FFA8606846007805B02B
:104D0000F0BD000018150020F36404104565041080
:104D10002431051038B588B000253C4C2078002897
:104D200002D0FFF733FF25706078002831D065701E
:104D3000642120000830FDF742FA002801D001204C
:104D40006070606A002824D00020FFF7F1FD02A9FE
:104D500005A8FFF783FF002803D002A905A801F0EA
:104D60002CFE01A8FFF754FF012812D16846FFF777
:104D700032FF01992B4801F03CFF01F01DFF04B206
:104D80000099294801F035FF01F016FF210001F0DC
:104D9000D9FE09B030BD000040E20100002800D07B
:104DA000704738B50C00194D01206862FDF79BFA79
:104DB00028626C8031BD18B585B00EAC247804949F
:104DC0006C46A48E03946C46248E02946C46A48D8B
:104DD0000194089C0094FFF7E1FF06B010BD80B578
:104DE0000A48002141620122027041800020FFF741
:104DF0007DFD00F056F801BD80B5D2B200F0BEF8DE
:104E000001BD012001494870704700006003002087
:104E1000034E041098060020445F0510341500204E
:104E2000E4140020000020410000C842022900D004
:104E3000704780B5100000F093F901BD53657420F0
:104E40006164766572746973696E67206461746108
:104E5000203078253032580A0000000010B50B4889
:104E600000682030007BC00706D001F01BFF01F076
:104E700047FF01F071FF10BD01F0FEFF02F000F8E6
:104E800002F05CF802F0C0F8F1E70000B006002084
:104E9000BFF34F8FAD48AE490860BFF34F8F00BFDF
:104EA000FDE7AC4881784170704710B5A94C207877
:104EB000002807D00020207002F078F99321608C40
:104EC00000F04CFA607810BD80B50A001030010087
:104ED000A148FCF77FFE01BD10B500E0521E13068D
:104EE00009D00300581C0C00611C1B782478A342D5
:104EF000F4D0012010BD002010BD38B50220FFF70E
:104F0000B3FC964C2000903002F058F9002801D0F4
:104F1000862032BD8F4D200002F054F928822000F7
:104F2000243002F04FF968822000483002F04AF93C
:104F3000A88220006C3002F045F9E882002032BDE2
:104F40001CB50100834C208B401CFDF7C6FE0029D8
:104F50000DD120000C30009004230022E18A491C6E
:104F600089B2608C02F032F900206071208313BD99
:104F7000784A01235371D08191817047F8B584B08C
:104F80001E00744C608408000025618A491C884218
:104F90002ED1E570257130790006F17809044018AA
:104FA000B17809024018717840186063307A0006C1
:104FB000F17909044018B17909024018717947184C
:104FC00027630922310020004030FCF79FFD307834
:104FD000012801D0032801D1012000E0082020721F
:104FE000E7636583A563A583042002F0DFF8AAE0E8
:104FF000E18A8B1C984217D1A583A581E581200009
:105000000C30009004230022491C89B2608C02F00D
:10501000DDF8002802D10220FFF768FC607A03283F
:1050200001D01720A0848EE0A18A491C8842FAD1C1
:105030006079002806D0208B401C2083207AFFF75F
:105040007FFF80E0A08C001F0090C110090F08189E
:1050500000110290C0010190608B0199884272DAC0
:105060001700F422310020004C30FCF74FFD628B1A
:105070000397B14831000CE0855406E0676BBA42F3
:10508000FAD24F1C961BBE5D8654865C5E40E6716C
:10509000521C668BE379039FF7193F1FBA42EDDB81
:1050A00003980818C01E077846787E4080787040C4
:1050B0005840E0716283E38B5A1CA08BE6790F782D
:1050C000BE4232D1029E36018919CE7836028F78DF
:1050D000F6192684268CB0421FD1401CA083497843
:1050E000012906D0761C02994E433101626B914230
:1050F00028D3A081E581668B30000199FDF7EDFD95
:10510000002907D0606BA16B401A0199884219D21F
:10511000864217D30120A07114E02083002B00D118
:105120000022A283A18BF02006E02083002B00D177
:105130000022A283A18B0F20FFF71AFF6583207A3C
:10514000FFF7FEFEE57105B0F0BD00000400FA05B2
:105150000CED00E03C05002000100040685C0510EC
:10516000F8B54A4DA979002900D186E00400FDF781
:10517000BAF802000B0020000021FDF7B8F8060085
:105180000F00A88C001FC110090F081800110001A2
:10519000001DC000C110090F081800116B21484301
:1051A000FA218900FDF799FD401CC117B94264DC62
:1051B00001DBB04261D20027AF71AF71288CE88368
:1051C000286BA96B4018E863002400205A4E04E0C5
:1051D0001034A4B2E96B1031E9636A8B944224DA8B
:1051E000E96B2B6B10339942F2D0101B102805DBB2
:1051F00032195248FCF7F7FC102210E03019C07841
:10520000000632199278120480183219527812026C
:105210008018325D82184948FCF7DCFC0422311901
:10522000E86BFFF759FE0100D2D0002806D1A86B29
:10523000698B4018A86300206F8300E03C20E88160
:1052400028000C30009004230022E98A491C89B20E
:10525000688C01F0BBFFA86B696B88420DD30220FC
:10526000FFF755FB36493748FFF72EFE0021364839
:10527000FFF72AFE01202870A870F1BD3348C91E2F
:105280008184417A02220A43427270473C05002021
:1052900038B504002D48417A01220A434272808CBD
:1052A000001FC110090F091809110901091DC900C2
:1052B000FA25AD00C810000F401800116B214843BB
:1052C0002900FDF70AFD401D68432149FDF705FD52
:1052D00001006420009000238AB289B2200001F00E
:1052E0007BFF31BD1CB5194A548A641CA14203D10D
:1052F0004032009209231AE0148A641CA14207D1AB
:10530000144B9362144BD3622832009208230EE0B0
:10531000948A641CA14203D14C320092F42306E02B
:10532000D48A641CA14205D10C32009204230022CD
:1053300001F05EFF13BD0000FC06002000100040DD
:10534000AA5555AA00F80510000804103C050020D5
:10535000E20400001005F8001007E7FF10B501F0A7
:105360004EFF10BD10B50400FCF7D0FB200010BDAF
:1053700010B504000800110002002000FCF736FD03
:10538000200010BD80B5FCF77BFC02BD70B500208D
:10539000C0460020C0460120C046012805D000209C
:1053A000C046002804D0DC2103E0FF21B53100E035
:1053B0000021244CA922E07A920050432289242320
:1053C000D2008218A07A58431218A0892C2358437F
:1053D00010180D180020C04601281AD000202D18E2
:1053E0000020C046012818D000202D180020C046FB
:1053F00001281CD000202918A27F102090400C18F2
:105400000020C046012816D000200F49201840185F
:1054100070BDE07A00012830E1E7207FFF21713183
:105420004843617F3C2251434018A030DDE7A17F13
:1054300050208840DFE703484C21203080784843E3
:10544000E3E70000A0140020CA110000F8B5012015
:1054500024498004086024484168802291434160C7
:10546000FCF73CFE00202149C043086003214907A6
:1054700048600120C046C0B200900020C046C5B2BE
:105480000020C046C4B20020C046C7B20020C046BB
:105490000020C0460020C046C6B201F0B5FE01F0B3
:1054A000BDFE134801F0F0FE01F0F8FE3B46224637
:1054B0002946009801F01AFF01F04AFF01F078FF39
:1054C000304601F0B3FF01F0D5FF02F003F82146AA
:1054D000284602F04FF80120024980048039086014
:1054E000F8BD000080E100E0C0000020B806002008
:1054F00000003048F8B596B0050017001E001C9853
:10550000049103A92B22885400200A9002950E973B
:1055100000960EE0252912D00498029A9047049034
:10552000002800D1D2E00A98401C0A900E98401C36
:105530000E900E9801780029ECD10A98C8E000205E
:105540000790089009900226082101910124042166
:105550000E9D00E020436D1C2A78202AFAD0232AD1
:105560000AD02B2A04D02D2A04D0302A08D00AE0F1
:105570003043F0E70843EEE7020008201043EAE773
:1055800002001020FAE72A2A0ED1009A17683A681A
:105590003F1D009B1F600C92002A03D553420C93C1
:1055A000014308006D1C14E000210C91004A0BE03F
:1055B000CBCCCC0C0C9B934205DA9F00FB185B0014
:1055C000591830390C916D1C29780B00303B0A2B8F
:1055D000F0D329782E2903D00021C9430B9127E06D
:1055E0006D1C29782A2908D1009909680A68091DC3
:1055F000009B19600B926D1C1AE02D2902D12D23FE
:105600006D1C00E0002300210B910CE0002B09D160
:105610000B9ABC4FBA4205DA9700BA1852005118DB
:1056200030390B916D1C29780A00303A0A2AEDD3E3
:1056300003A908852F783900B3A001F0ABFF00283B
:1056400001D038006D1C03AF2A217854785C68289B
:1056500005D12878682802D1622078546D1C10A8E2
:1056600006902A78681C0E90252A15D0582A52D008
:10567000632A00D1BCE0642A00D17FE0692A00D10E
:105680007CE06F2A47D0702A3AD0732A08D0752A56
:1056900041D0782A3FD0B5E0079410A90A70BAE04B
:1056A000009800680468001D009908600594002CAB
:1056B00013D12B20385C00280CD00024E44300BF19
:1056C00093A001F071FF201A00D1A4E00020C04394
:1056D00017B0F0BD95A005909DE00B9D002D03D562
:1056E000200001F085FF09E02A000021200001F0E0
:1056F00087FF002801D0001B00E0280008908AE006
:10570000009800680168001D009A1060039110A8BD
:105710000590782168E0785C622803D0682809D079
:105720006C280FE0009801680868091D009B19604B
:10573000C0B20DE0009801680868091D009B19605F
:1057400080B205E0009801680868091D009B196097
:105750000390388D0199C0B2084240D003980028C8
:105760003DD020201043782839D1079810A9302344
:105770000B54401C431C07930A5430E0785C6228A9
:1057800003D0682809D06C280FE0009801680868E9
:10579000091D009B196040B20DE00098016808687F
:1057A000091D009B196000B205E0009801680868B7
:1057B000091D009B19600390002802D507982D2130
:1057C00009E0388D304202D007982B2103E0C00752
:1057D00005D50798202110AB1954401C079010A83C
:1057E000079940180590110003A800F0A0F812E0F6
:1057F0000794009800680168001D009A106010A8C6
:10580000017008E00794252010A90870100002D04C
:10581000079610A842700C980799401A0999401AE7
:105820000899401A0F902820385C400713D4202094
:10583000694608710F9800280DDD0F9C029D012319
:1058400001AA03A9280000F0FAF8002800D03DE7DB
:10585000641EF4D10295079D10AC002D0ED0029E5F
:10586000227803A9300000F0D9F8002802D4641C83
:105870006D1EF5D10296002800D027E7302069463A
:105880000871099C002C0CDD029D012301AA03A9CB
:10589000280000F0D4F8002800D017E7641EF4D1E7
:1058A0000295059C089D002D0ED0029E227803A92A
:1058B000300000F0B3F8002802D4641C6D1EF5D14E
:1058C0000296002800D001E72820385C400700D469
:1058D0002FE62020694608710F98002800DC28E692
:1058E0000F9C029D0E9F009E012301AA03A9280080
:1058F00000F0A5F8002800D0E8E6641E00D105E617
:10590000F2E70000CBCCCC0C686C747A4C00000041
:105910007072696E74665F733A20626164202573E9
:1059200020617267756D656E740000000000F0B54F
:1059300083B00A00C4686F2901D1082506E0202140
:105940001143782901D00A2500E0102518270168A5
:105950000E00642A01D0692A03D1002901D57142C1
:105960000E00002E0CD1016A002909D1082D31D179
:105970002821415C09072DD517273021E17529E041
:105980000290684602707F1E019730002900FDF7E3
:10599000A7F93031C8B23A2803DB6846007851389D
:1059A0000918E15530002900FDF79AF9060004D0E6
:1059B00002988068E1198842E5D30298082D09D140
:1059C0002821415C090705D5E15D302902D07F1E01
:1059D0003021E1551821C91B4161E2198260026A38
:1059E000914206DA511A8161018D0B4A0A40028503
:1059F00010E0002A0ED52822825C14231340102BBD
:105A000008D1426A0369D21A8369D21A511A01294C
:105A100000DB816103B0F0BDEFFF000010B50300B3
:105A20000C001100606898476060002804D0E069AD
:105A3000401CE061002010BD0020C04310BDF8B53F
:105A40000024002B11D007000E0014001D00217847
:105A50007068B8477060002809D0F069401CF06198
:105A60000020641C6D1EF2D104002000F2BD002055
:105A7000C043F9E781B0AA490A6802430A6009688D
:105A800008400090009801B0704710B50B004B43E0
:105A900001685C00E418A14353430B43036010BD4D
:105AA00043688B43514319434160704710B50B0065
:105AB0004B4381685C00E418A14353430B4383606C
:105AC00010BD30B5CB43974C9025ED05A8421AD1B7
:105AD000002A03D0022A0FD007D330BD2068184017
:105AE000206060680340636030BD606803406360AD
:105AF00020680143216030BD206803402360606856
:105B00000143616030BD002A03D0022A0FD007D3C1
:105B100030BDA0681840A060E0680340E36030BD7D
:105B2000E0680340E360A0680143A16030BDA06865
:105B30000340A360E0680143E16030BD10B5090A8D
:105B40000B004B434B434B43416A1C01E41AA143F6
:105B500053430B43436210BD7CB50420FFF78AFF1B
:105B60009025ED058024E401022221002800FFF7A2
:105B70008CFF022221002800FFF798FF002221005D
:105B80002800FFF78DFF002221002800FFF799FF72
:105B9000022221002800FFF7D1FF0420FFF76AFF4F
:105BA0006400022221002800FFF76FFF022221007B
:105BB0002800FFF77BFF002221002800FFF770FF7D
:105BC000022221002800FFF77CFF0222210028008A
:105BD000FFF7B4FF0420FFF74DFFA60802223100B3
:105BE0002800FFF752FF022231002800FFF75EFF76
:105BF000002231002800FFF753FF02223100280065
:105C0000FFF75FFF022231002800FFF797FF08200F
:105C1000FFF730FF5C4D012221002800FFF735FF20
:105C2000022221002800FFF741FF00222100280066
:105C3000FFF736FF012221002800FFF742FFAC6189
:105C4000524901200A6802430A6009680140009134
:105C500000994F490A688B0D13430B604A68102363
:105C60009A434A600A684B4B13400B600A68022350
:105C700013430B600A68104308600868A2090243D6
:105C80000A6048680422904348604868424A0240DB
:105C9000E020C000104348600868802290430860FC
:105CA00008683E4A02400A604868082290434860FB
:105CB000086838229043082202430A604868E208D4
:105CC00002434A600868402202430A6073BDF8B587
:105CD0003348802424020461324D2E68B607FCD577
:105CE000297101212E680E40FCD06E6800260092BA
:105CF0000BE02A689207FCD5009AB7B2D25D2A71F0
:105D00002A680A40FCD06A68761CB2B29A42F0D384
:105D100029680906CA0FFBD104600020F2BD00000B
:105D20005000404820005048FCB51D488024240203
:105D300004611C4D2E68B607FCD580260E432E71DB
:105D400001212E680E40FCD06E68002601926A4642
:105D500013800CE02A689207FCD5FF222A712A687A
:105D60000A40FCD06A68019BB7B2DA55761C6B46D4
:105D70001B88B2B29A42EDD329680906CA0FFBD13B
:105D800004600020F6BD00000000104858004048A4
:105D900000200041FF3BFFFFFFF0FFFFFFDFFFFFA1
:105DA000180010480820004110B50400A06864687D
:105DB000A04710BD10B50400A0682468A04710BD1E
:105DC00080B501F039FC054900F013FF02BD80B534
:105DD00001F032FC024900F00CFF02BD23DB793DEB
:105DE00000008C4238B505000C0001236A461021E2
:105DF000FFF7DAFF00280FD168460078F321014051
:105E0000A0000C2202400A436846027001236A4641
:105E100010212800FFF7CEFF32BD79B582B00E0009
:105E2000340001A900F010FA0025002856D101A97C
:105E30004A78087843080343800818430B78DB0846
:105E400003430878000918430B785B09034308787B
:105E50008009184310435308034390081843D3089C
:105E60000343100918435309034390091843C30718
:105E7000DB0F08780243D009184301282BD100A971
:105E8000C91C029800F0F0F9002827D16946C978AA
:105E9000002905D002290DD006D3032912D01DE018
:105EA000300018D1012416E0300001D0012E12D1AB
:105EB000022410E0300003D0012E01D0022E0AD1BE
:105EC000032408E0300005D0012E03D0022E01D0BB
:105ED000032E00D104246846057003E069460D7066
:105EE000002836D16946029800F0E5F9694609783C
:105EF00001292ED100A9891C029800F0F6F900288A
:105F000027D168468078002805D002280DD006D316
:105F1000032812D01BE0300019D101241BE030000F
:105F200001D0012E13D1022415E0300003D0012E40
:105F300001D0022E0BD103240DE0300005D0012E3C
:105F400003D0022E01D0032E01D1042403E034003B
:105F500001E0002806D1012300AA521C102102985A
:105F6000FFF722FF00280ED1684640780007000F97
:105F70002101014368464170012300AA521C1021EF
:105F80000298FFF717FF04B070BD38B505000C008C
:105F900001236A461121FFF707FF00280FD1684649
:105FA0000078F121014060000E2202400A43684659
:105FB000027001236A4611212800FFF7FBFE32BD63
:105FC00079B582B00E00340001A900F03DF900253A
:105FD000002856D101A94A7808784308034380086D
:105FE00018430B78DB0803430878000918430B7843
:105FF0005B0903430878800918431043530803439F
:1060000090081843D3080343100918435309034366
:1060100090091843C307DB0F08780243D0091843DF
:1060200001282BD100A9C91C029800F01DF90028F5
:1060300027D16946C978002905D002290DD006D399
:10604000032912D01DE0300018D1012416E03000E1
:1060500001D0012E12D1022410E0300003D0012E15
:1060600001D0022E0AD1032408E0300005D0012E11
:1060700003D0022E01D0032E00D1042468460570FF
:1060800003E069460D70002836D16946029800F099
:1060900012F96946097801292ED100A9891C0298B4
:1060A00000F023F9002827D168468078002805D021
:1060B00002280DD006D3032812D01BE0300019D1DE
:1060C00001241BE0300001D0012E13D1022415E081
:1060D000300003D0012E01D0022E0BD103240DE09D
:1060E000300005D0012E03D0022E01D0032E01D1A5
:1060F000042403E0340001E0002806D1012300AAB3
:10610000521C11210298FFF74FFE00280ED168465D
:1061100040780007000F21010143684641700123C8
:1061200000AA521C11210298FFF744FE04B070BD72
:10613000000038B505000C0001236A461221FFF764
:1061400033FE00280FD168460078BF210140A0012E
:106150004022104008436946087001236A46122114
:106160002800FFF727FE32BD1CB500F04EF81CB525
:1061700000F057F880B50A000623222100F042F80B
:1061800080B50A000623282100F03CF838B5050048
:106190000C0001236A460121FFF706FE00280DD1FD
:1061A000684600788006800EA101014368460170B0
:1061B00001236A4601212800FFF7FCFD32BD38B5F6
:1061C00005000C0001236A461221FFF7EDFD0028AF
:1061D0000ED168460078FE210140E007C00F084359
:1061E0006946087001236A4612212800FFF7E2FD84
:1061F00032BD1CB50C0001236A46122109E00A00D9
:1062000001231E21FFF7D0FD02BD0C0001236A46C9
:106210001E21FFF7C9FD69460978CA07D20F22700F
:1062200016BD0C0001236A461E21FFF7BDFD69461D
:1062300009788907CA0F227016BD002803D10021F2
:106240002000FFF7A3FF32BD38B504000D00022186
:10625000FFF79CFF002805D12A00022346212000D9
:10626000FFF7A2FDFFF7E9FF38B505000C0002219A
:10627000FFF78CFF002805D101236A465F21280023
:10628000FFF792FD002815D1032069460978C90857
:106290000140012904D007D3032906D002D303E02B
:1062A000012002E0022000E00020207000212800F0
:1062B000FFF76CFF32BD38B505000C000221FFF777
:1062C00065FF002805D101236A4605212800FFF754
:1062D0006BFD002808D100212800FFF757FF694611
:1062E0000978C906CA0F227032BD38B505000C0006
:1062F0000221FFF74BFF002805D101236A466021E8
:106300002800FFF751FD002815D1032069460978C0
:1063100009090140012904D007D3032906D002D37B
:1063200003E0012002E0022000E0002020700021B4
:106330002800FFF72BFF32BD81B09D490A68024358
:106340000A60096808400090009801B0704710B5D5
:106350000B004B4301685C00E418A14353430B431B
:10636000036010BD43688B4351431943416070473C
:1063700010B50B004B4381685C00E418A143534304
:106380000B43836010BD30B5CB438A4C9025ED059F
:10639000A8421AD1002A03D0022A0FD007D330BD59
:1063A00020681840206060680340636030BD60680A
:1063B0000340636020680143216030BD20680340D2
:1063C000236060680143616030BD002A03D0022A67
:1063D0000FD007D330BDA0681840A060E06803402C
:1063E000E36030BDE0680340E360A0680143A16062
:1063F00030BDA0680340A360E0680143E16030BDA8
:1064000010B50B004B434B434B43016A1C01E41A8C
:10641000A14353430B43036210BDF0B5059C069D99
:106420004768BC466F0D644E3E436746B7433943E9
:106430000A43190411430C4325434560F0BD1CB5C4
:106440000420FFF779FF9024E405022202212000B6
:10645000FFF77DFF022202212000FFF789FF0122C2
:1064600002212000FFF77EFF002202212000FFF71B
:106470008AFF002202212000FFF7C2FF0420FFF75D
:106480005BFF022201212000FFF761FF02220121B0
:106490002000FFF76DFF012201212000FFF762FFBE
:1064A000002201212000FFF76EFF002201212000C1
:1064B000FFF7A6FF8020800340490A6802430A6074
:1064C00009680840009000988220C00501680122F8
:1064D000914301603A49016101683A4A0A40026009
:1064E0000168394A0A400260016801220A430260D9
:1064F00013BDFEB50E0015001F008224E4053348CD
:1065000001908020800400905B1C0022B9212000B3
:10651000FFF783FF0120A1690140FCD080213143B6
:10652000A162A1690140FCD0002006E0A1698907B1
:10653000FCD581B2695CA162401C81B2B942F5D33D
:106540000020FEBDFEB50F0016001D008224E405EC
:106550001E48019080208004009001230022B92170
:106560002000FFF75AFF0120A1690140FCD08021E3
:106570003943A162A1690140FCD0154801908020F7
:10658000800400902B000022B9212000FFF745FF76
:10659000002006E0A1694907FCD5616A82B2B154C6
:1065A000401C81B2A942F5D30020FEBD00000000CE
:1065B0005000404820005048FF7BFF0358004048EF
:1065C00009033210FFFFFDFFFFFFCFFF0020008017
:1065D0000024008010B50400A0686468A04710BDC6
:1065E00010B50400A0682468A04710BD80B501F074
:1065F00023F8E621890500F0FCFA02BD80B501F020
:106600001BF8024901F023F802BD00000000C84257
:1066100038B505000C0001236A461021FFF7DAFFA8
:1066200000280FD168460078FD2101406000022259
:10663000104008436946087001236A46102128006B
:10664000FFF7CEFF32BD38B505000C00012300AACC
:10665000521C1021FFF7BEFF002805D101236A4616
:1066600011212800FFF7B6FF002810D168464078B6
:106670008F2101402001702202400A436846427087
:10668000012300AA521C10212800FFF7A9FF0028AF
:1066900012D168460078FC210140E0080222104037
:1066A0002207D30F03430B436846037001236A4656
:1066B00011212800FFF794FF32BD80B50A000323A3
:1066C0002821FFF787FF02BD80B50A0002232B2196
:1066D000FFF780FF02BD38B505000C0001236A46B4
:1066E0001121FFF777FF00280FD168460078FB21C2
:1066F0000140A000042210400843694608700123AD
:106700006A4611212800FFF76BFF32BD1CB50C0053
:1067100001236A461121FFF75DFF694609784907A1
:10672000FFE7CA0F227016BD10B500F0E5FF10BDDF
:1067300010B500F0F3FF10BDFFB583B00E9F1C46EF
:106740000E4605000BD0A80703D1680701D428071F
:1067500005D5002E05D0012E03D0022E01D08224B3
:1067600017E00C986A460D9983C2224631462846A6
:10677000059B00F0DBFF04000BD131462846059A4B
:1067800000F00AF8040004D13A460D990C9800F084
:106790002FF8204607B0F0BDF8B505000E003F4FBA
:1067A000380000F00BFD04001AD1684605703C4D1E
:1067B000380001F043F8070068460078800706D0EB
:1067C00039002800483001F03DF8040008D1022EBD
:1067D00008D1390028006C3001F034F8040001D0F1
:1067E0002000F2BD2FA20721002000F015F8F7E7E6
:1067F000F8B504000F001500294E3000903001F06C
:106800001DF82080300000F0DDFC3880300024309E
:1068100000F0D8FC2880F1BD70B504000D00160012
:106820001F48FFE700F0CEFC33002A002100401C87
:1068300080B200F001F870BDF3B581B017001D0003
:106840000024174E6946088024206043301800F069
:10685000B9FC002804D0401C69460988884202D04F
:10686000641C042CF0D3042C09D06846038924202E
:1068700044433419206A8188DA19914201DA82206E
:10688000FEBD29003A008068C018FBF73FF9206A76
:106890000178890700D547800020FEBD4C04002008
:1068A000BC030020426C75654E524700FFB583B0B3
:1068B0000C9D1E461446070004D0012F02D08220F2
:1068C00007B0F0BD0498002801D00128F7D1E81FD7
:1068D0000A28F4D20D981028F1D8A842EFD30E98C8
:1068E000002801D00128EAD112490F988842E6D841
:1068F0000020C046012804D02046304305D0112096
:10690000DEE7022CDBD8012ED9D869460F70049837
:1069100048708C72CE728D700D98C8700E98087287
:106920000F98019000F092FF69464872684600F0A7
:1069300097FFC5E73F420F00FFB58BB0189C1C9F27
:1069400022461D9E1E9D0D990C9800F09DFF00286B
:1069500017D100F0BDFF002813D11B9808970A95A6
:1069600007900996179A19991A9814AB04940392F0
:106970000591069007CB6B4607C30BA80FC800F024
:10698000CFFF0FB0F0BD10B500F0DCFF10BD7047B9
:1069900010B5804C20004C3000F010FC002801D0D5
:1069A000862010BD201D00F00DFC20802000283026
:1069B00000F008FC6080002010BD30B585B00500F7
:1069C0000C00FBF790FC744A12680023FBF78FFC65
:1069D00001A90870000A4870686842428A706868B5
:1069E00042421012C8702868087128680012487165
:1069F000A86842428A71A86842421012C871606851
:106A0000087260680012487220688872206800125C
:106A1000C872A0680873A0680012487301A80090AB
:106A20000E2300225B484188491C89B25B480088DC
:106A300000F0CCFB002800D0862005B030BD38B572
:106A400005000C0011001A00049BD2B2FEF796FA62
:106A5000012C07D1002000900023002200212800F3
:106A600000F0C6FB31BDF7B58AB00027084649499A
:106A700006AC4A88521C904230D1694603A8FEF702
:106A8000EDF8002828D0FBF72EFC434A12680023BB
:106A9000FBF72DFC2070000A607004994842A0703A
:106AA0000012E0700398207103980012607105993C
:106AB0004842A0710012E0710198207200126072C9
:106AC0000098A07200980012E072029820730012E1
:106AD000607306AD0E2624E0802722E00988491C59
:106AE00088421ED16846FEF776F801A8FEF790F8B6
:106AF00000982B4900F07DF800F05EF8A0700112BC
:106B0000E17001142171001660710198254900F0AF
:106B100070F800F051F8A07100040016E07108262A
:106B200006AD6846028E048D818D2000FEF7DAFBEB
:106B30000095B3B23A006846818D200000F058FB02
:106B40000DB0F0BD3EB505000C00FBF7CCFB124AC2
:106B500012680023FBF7CBFB01A90870000A4870FC
:106B60008D702812C87028140871281648718C710D
:106B70002012C87101A8009008230022054801884E
:106B8000491C89B20548008800F020FB002800D08D
:106B900086203EBDAC04002080030020620300205C
:106BA0000000C8420000204110B500F0D1FE10BD29
:106BB00010B500F0D3FE10BD0122D2070118090E56
:106BC0007F3910D449421F310FD4001805D2C001BB
:106BD0001043C84000D5D0437047C0011043C8409F
:106BE00005D440427047002070470042F3D51000A2
:106BF000704730B405004D400122D20715404B18B4
:106C00000418240E2ED01B0E32D0FF2C34D0FF2BB4
:106C10003AD0E4180002090210431143000A090A9D
:106C20009446C2B24A43000AC3B24B43000A4843E7
:106C3000110A5B181A43D2B2190A091801D449186B
:106C4000641E080A7F3C23DBFE2C08DAE4050906F3
:106C50001143634699416041284330BC7047FF208F
:106C6000C005F9E728001B0EFF2BF6D1D043F4E74F
:106C70002800FF2CF1D1F9E74002F7D1FF2B01D119
:106C80004902F3D1E005E7E7D8054902E4D0EDE792
:106C900043020020641CDFD15B129B1CDCD9D805A9
:106CA000DAE7704770B5144D2868903000F05AFE4E
:106CB000002812D1286890300068C04604460AE0D7
:106CC000204600F056FE002807D128682146903063
:106CD00000F05FFE2468002CF2D12868903000F0AC
:106CE00041FE012807D172B604484022006881782D
:106CF0001143817062B670BDBC060020B40600204E
:106D000070B572B612481022006881781143817004
:106D100062B6C046C046C046C04600F05DFE00F008
:106D20008BFE00F0ABFE00240A4D0CE0204600F084
:106D30001FFF002802D0204600F01AFF204600F076
:106D4000CEFF641CE4B2E87AA042EFD870BD000028
:106D5000B4060020A0140020FEB572B642480822F6
:106D6000006881781143817062B600203F4E6C4606
:106D7000316882005218126952884300401CC0B228
:106D8000E2520328F5D372B600200D68086062B69F
:106D9000E80702D00020FCF741FEA80702D5012039
:106DA000FCF73CFE680702D50220FCF737FE2807F7
:106DB00002D50320FCF732FEE80602D50420FCF7DA
:106DC0002DFE00251FE00F2818D2211D284A800023
:106DD000125820469047002810D072B62248F72259
:106DE000006881781140817062B62AE0462805D299
:106DF000211D82001F488258204690473068218814
:106E000038180069018069006846415A3068AF004F
:106E10003818006902889208920014180288083411
:106E20008A420ED0A1788A070BD08907890F0129E1
:106E300001D104460834A0788008C006E078D5D592
:106E4000C1E772B6306838180069418802888A4202
:106E500002D100210180418062B66D1CEDB2032D8C
:106E6000D1D300F065FFFEBDB4060020C0060020AF
:106E7000A83705109036051010B5C046C04610BDA5
:106E8000F8B52A48002504682E46283400F06AFF29
:106E9000002803D02648027F002019E001220020AC
:106EA000E36A1427014679439C46891C5B5C1F06F4
:106EB0000CD59B0705D56D1C002663465E54EDB2CC
:106EC0000126E36A5F5C7F067F0E5F54401CC0B200
:106ED0009042E5D3012E1AD1012D18D1134800217B
:106EE000006800F044FF13480225006880304078B5
:106EF000C0070CD010481B22006800238069294677
:106F000000F060FF010002D0284600F0B5FF2034F9
:106F1000E07C000608D5207D012805D10020C04670
:106F2000002801D102202075F8BD0000CC06002009
:106F3000A0140020BC060020C0060020F8B572B6E0
:106F40002C480222006881781143817062B62A4C75
:106F500020689C308089C046054609E02068694663
:106F60009C3000F09DFF009800F0B2FF6D1EADB2A6
:106F7000002DF3D120682030007CC0070BD0002109
:106F80001E4800F0BDFF002805D120682030017C9C
:106F900049084900017420682030007C800723D50F
:106FA000002000F0C1FF1649C98923314909491C55
:106FB000FBF796FE002817D00546124842260068C7
:106FC000012340228069314600F0FCFE01000BD015
:106FD00000228A80CD80304600F04EFF2068FD22DE
:106FE0002030017C1140017400F0B6FF00F0D8FFA2
:106FF000F8BD0000B4060020D8060020D1680510B6
:10700000A0140020C0060020F0B593B00020079027
:1070100072B660480422006881781143817062B6BC
:10702000C046C04600265C4D5C4F72E02868803048
:10703000816A7C2070430C1869D02089002866D0B2
:10704000617BC9075DD00005000D21462A31029001
:10705000102212910DA8FEF785F908A9204600F02C
:10706000A3FF00283AD0029800F0DEFF0C90207BAE
:1070700080070CD0029800F0E5FF0246484B002143
:10708000012001F001F8207B00090001207302209B
:107090000190029806900320049042480123006862
:1070A00080304078800711D53F481C220068019944
:1070B000806900F087FE010008D0069B8B80049B4E
:1070C00000228B71CA71019800F0D6FE0C983A2804
:1070D0000AD0607B40084000607312E008A9029863
:1070E00000F0F0FF0C90F1E710220DA91298FEF7C6
:1070F00039F972B62748FB22006881781140817007
:1071000062B6A07A002802D0204600F0EBFF761C81
:10711000F6B238682030007DB04287D834E007A945
:10712000286800F0BDFE0798808801F095F80400FB
:107130002AD007988168097B052905D0214601F0EE
:10714000B1F8FF2807D013E0A17AFB2918D0214617
:1071500001F040F914E007988168097B032909D000
:10716000E17A090706D50090019468461F20C046C1
:10717000002805D00799286801F034F913B0F0BD54
:107180000121079801F042F9286800F0EBFB002884
:10719000C5D0F3E7B4060020D0060020B0060020DA
:1071A00030750000BC060020C006002002490968B6
:1071B0005431C88000207047BC06002010B501F093
:1071C0003FF910BD10B501F0D5F910BD38B5049CDC
:1071D000009401F0D9F938BD3EB56C46069D20807B
:1071E0006180A280E3802581684601F0EDF93EBD13
:1071F00038B5049C009401F063FA002038BD10B546
:1072000001F064FA10BD7047024803490068086045
:1072100070470000A0140020C80600203EB53622AA
:107220000121164801F06FFA154D16492860CA7AF7
:10723000014620310A750024047044708470E122F4
:10724000C2708022027102224271302008724C7298
:1072500002AA01A9684601F069FA69460878097A24
:1072600000010902C01C0843694609790903084363
:107270002968488520310C733EBD0000C8060020F7
:10728000B0060020A0140020016880220A4302609A
:1072900001688022914301600020704710B50322ED
:1072A0000121104801F02FFA0F4C0021606041705D
:1072B000182101700020C046012804D16068802296
:1072C0000178114301700020C046012804D1606894
:1072D0000122017811430170606806220178114390
:1072E000017010BDC8060020B006002070B501F086
:1072F00031FA01F08BFB01F0CDFB01F005FC01F050
:107300001DFC114D0F4928688B8A5C221352002402
:10731000C4640465C97A05230C4AF03001F016FCF8
:1073200001F02AFC01F036FC01F068FC28681F21FE
:10733000403041728472204601F008FA01F06AFC84
:1073400070BD0000A0140020BC060020217A0510AA
:1073500010B501F0BDFC1448082200680021046843
:107360002046FEF705F8114BD88923304009401C10
:10737000C1B2002001F0DEFCD889D97A233040095F
:10738000801C4843401CC1B2012001F0D3FCE168DD
:1073900098894880E06801F0D7FCE06872B6008800
:1073A00062B62081002010BDC4060020A014002079
:1073B00010B51C2201211B4801F0A5F91A4C04222A
:1073C00020604321174801F09EF92168042248609B
:1073D000C321144801F097F9216804228860FF2135
:1073E0000431104801F08FF92168C86001F0E2FC17
:1073F00020684021406801F0E7FC21680861886846
:10740000C02101F0E1FC21684861C868FF21013119
:1074100001F0DAFC01462068042281610021FDF7B9
:10742000A7FF10BDC8060020C006002070B501F0FF
:10743000D1FC0D4C0E4DE17A07230C4A286801F06F
:1074400085FB286817210185218C172901D2862008
:1074500070BD4185E17AC06A0A010021FDF788FF0D
:107460000020C046002070BDA0140020117A051035
:10747000D406002070B501F0E7FC144C124A00213C
:10748000206801F019FD20680723114A0B211030F4
:1074900001F05CFB21680022084640300C468271F6
:1074A0000B46C2710125203465760721A176102193
:1074B000E17605710270DA6325768270C270002071
:1074C000C046C04670BD0000FFFF0000D00600208F
:1074D000317A0510F8B5B0220121214801F013F9E5
:1074E000204C214D2060E97A10221D4801F00BF953
:1074F000002322681946D362936208E00F013E1808
:10750000F380C155976AF760491CC9B29662EE7A5A
:107510008E42F3D8B006010E01221148491C01F039
:10752000F2F8216802220862E87A8006010E0C480F
:1075300001F0E9F80146206807234162E97A0B4A25
:107540008906090E01F002FB2068094A00219C30DF
:1075500001F0B2FC01F0B8FC01F0CCFCF8BD000079
:10756000C8060020D8060020A0140020817905104C
:10757000FFFF000010B501F0C1FC05480723034AD6
:107580000321006801F0E2FA10BD0000D179051076
:10759000CC060020C9B202788A4203D0401C002ADF
:1075A000F9D100207047704780B5002801D100BF95
:1075B00007A006490B68002B03D022220021984720
:1075C00001E001F0E9FC222002BD0000401500208E
:1075D000636F6E73747261696E742068616E646C3F
:1075E00065723A20626164206D657373616765003E
:1075F000431C0178401C0942FBD1C01A70477047F8
:10760000C9B2521E05D30378401C8B42F9D1401EEB
:1076100070470020704770479D2102000AD002D4B5
:10762000491E9218FCD5C905100A1206524100D312
:10763000012A4841704700009D210200EED55242C8
:10764000F446FFF7EBFF0122D2071043604730B446
:1076500005004D400122D20715404B180418240E96
:1076600028D01B0E2FD0FF2C34D0FF2B37D0E41A9C
:10767000000209021043114343084808D10D1B1AA8
:1076800002D2641EDB181B18DB18834200D31B1ABE
:107690004941F9D37F3426DDFE2C08DAE405480899
:1076A000C907194391416041284330BC7047FF200E
:1076B000C005F9E728001B0E03D0FF2BF5D14902C6
:1076C000F3D0D043F1E7FF2C01D14002F9D1FF20E4
:1076D000C005E9E74002F4D1FF2BF8D1F1E728001B
:1076E0004902E2D0EDE70B0200202442DCD15B121C
:1076F0009B1CD9D9D805D7E710B51F2901D8012877
:1077000001D9122010BD044A1268403251729072A1
:1077100001F01CF8002010BDBC06002080B5024816
:10772000FFF74CFD02BD00001C700510FFB587B0CF
:107730000F460020694608733F48164605682835FD
:10774000012A1DD801F02EFC002805D12C4620343A
:10775000A07C002802D085200BB0F0BD03A80799BB
:1077600001F08EFC0028F7D1607D694630436075DA
:1077700007200875012F05D0022F09D0002F12D045
:107780008220E9E7087B10210843694608730AE074
:10779000087B202108436946087305A903A88220B5
:1077A000C0460028D8D10026009668460196017888
:1077B000DF20014368460170417809200143684693
:1077C000082241708270022F03D1062001436846CF
:1077D000417000F0C7FA01280AD1684641781220AA
:1077E00001436846417081780720014368468170F3
:1077F000684601F053FCFF216846017041708170BA
:10780000C17001719F21417186712021C17101F008
:1078100057FC2846363001F065FC00289CD16846AC
:10782000007B8106890F03D0617D022211436175BF
:10783000A074002090E70000CC06002010B501F0F5
:1078400055FC10BD10B501F05BFC10BD034800688D
:107850004830407DC007C00F70470000CC060020B4
:1078600070B5054601F0B2FC002801D0852407E080
:107870000448002400680C2229463830FDF772FDC8
:10788000204670BDD006002010B5104B04461B6882
:1078900000204833002C06D0012C09D0022C07D040
:1078A000032C10D10AE0997CC90700D1852010BDB6
:1078B000997CC907FAD0002A05D110BD9A7C92079D
:1078C000F4D5C907F9D0822010BD0000CC060020F5
:1078D000FEB5114E0025346827464837787D283498
:1078E000800717D5684601F097FC684601F0FAFB5F
:1078F00005000FD12046062269463C30FDF732FDD7
:107900000122064B1146306801F0ADFC787DFD2167
:10791000084078752846FEBDCC060020A0BB0D00AF
:10792000F0B585B008461C4615460BA94EC903960E
:107930000A9F6E460EC63B462246294601F008FDC8
:1079400005B0F0BD10B51946104601F04FFD10BD51
:1079500010B50846114601F05BFD10BD10B501F0F1
:1079600069FD10BD0068002801D00020704701208B
:10797000704710B500210182817482688261426182
:10798000016001F081FD842801D0812010BD00201C
:1079900010BD10B504460068884209D10268226013
:1079A00000220260206800280BD1626009E01046C6
:1079B00002688A42FBD10A68026062688A4200D18A
:1079C0006060084601F0F0FDE189081AE081A089B5
:1079D000401EA08110BD7047F8B5002001F0EAFDFF
:1079E00006460024134F1EE0FF2019306043801923
:1079F0002C21095C032901D0022912D105468035CA
:107A00002968CA030BD5C18E002001F0E3FD3A2896
:107A100007D00121286809048843286001E001F0AB
:107A200015FE641CE4B238682030007DA042DBD82B
:107A3000F8BD0000B006002070B500240E4D15E022
:107A4000204601F0B7FD00280ED02030067C3046DD
:107A500001F000FE002807D1304601F006FE0028A4
:107A600002D0304601F009FE641CE4B228682030E0
:107A7000007DA042E4D870BDB0060020F0B589B00A
:107A8000002001F097FD002503905EE0FF201930F3
:107A90002946414303980C182C20005D032801D08F
:107AA000022850D10121284601F001FE064600219E
:107AB000284601F0FCFD3146014301D0012000E0E1
:107AC000002005900020FF340890013407902779AA
:107AD00038093E070001360F0090012E0DD0022E0E
:107AE00010D0032E1CD00120079072B62079B84226
:107AF00025D100983043207124E005980028F4D067
:107B00000226F2E7208861880122431A0A204343B3
:107B1000154829460068F03001F0A5FB0326E4E78C
:107B20008006E2D50598002804D0284601F0CBFD58
:107B30000028DAD00098DF2108400090D5E70898A7
:107B400000280AD062B66D1CEDB2084800682030EB
:107B5000007DA8429AD809B0F0BD0120089062B615
:107B600007980028B3D0EEE7BC060020B00600203E
:107B7000F1B586B000200290069801F0BCFD0546E4
:107B8000069801F017FD04460698002D25D001F057
:107B9000B9FD0188012211430180069801F0B7FD6B
:107BA00000287CD00021069801F0C0FD07468678A9
:107BB00000880022000A00900121069801F0C0FD13
:107BC000002201901146069801F0BAFD05462034C6
:107BD000207B022804D0012103E001F0D5FD6EE0F6
:107BE00000213046009A01F029FE0199294356D11F
:107BF000002814D078880127000A03900025394610
:107C0000069801F055FE01903946069801F058FE9D
:107C100007460198B04207D1042F04D004E006982B
:107C200001F056FE38E0012501233046069A0399FB
:107C300001F062FE002802D0042F00D101250020AF
:107C400001460490069801F033FE0746207B022887
:107C500001D0012000E0002001900499069801F075
:107C60002FFE0446012807D13046009A019901F001
:107C700085FE002800D0012500233046069A03998E
:107C800001F03AFE002801D0042C08D0B74201D1FF
:107C9000042C04D0002D02D1069801F093FE00249C
:107CA00002AD069801F098FE002804D121460698FE
:107CB00001F0D2FE2855641CE4B2022CF1D36846D0
:107CC000017A022909D0407A022806D0032904D07B
:107CD000032802D0002007B0F0BD0120FBE770B5FB
:107CE000064601F067FC0346848E304601F0B2FC84
:107CF00000281CD0002C1AD01D46E035687F0028D3
:107D000015D072B6FAF7EFFA044601F03DFF0146CE
:107D1000012080022018044601F03BFF012805D114
:107D20002146304601F03AFF0020687762B670BD08
:107D30003EB50B4801AA0468694602A8543401F014
:107D4000B5FF00280BD06846007AE1880122824006
:107D5000114204D069460978019AFDF767F83EBDE3
:107D6000BC06002010B50020C046C0B210BDF8B55A
:107D7000054600200C468646002D03D06B78184639
:107D8000844201D38220F8BD2E6A315D8C46A14227
:107D900016D02746024602E0B94203D00A46B15C3B
:107DA0008142F9D1B05C984208D06046B0549A4202
:107DB00004D16146284601F093FF8646286A04559F
:107DC0007046F8BDFEB5044600269C4617460D4693
:107DD000080616D572B601AB6A466146204601F028
:107DE00093FF00280BD0684681880098827892081B
:107DF0009200827001806180012662B615E062B651
:107E000020E001AB6A466146204601F07DFF002874
:107E100018D0680609D4684681880098827892084C
:107E2000920082700180618001260098AA0081780A
:107E300040238907890F1A4011438170C770002EB3
:107E40000CD113E00020009072B6A8060DD40848AB
:107E50000822006801681143016062B672B60548E5
:107E6000F722006881781140817062B60098FEBDEB
:107E7000C0060020B40600200A46400608D5D07887
:107E800046280AD2111D054B80001B581046184782
:107E9000907880088000801C8870704790360510AC
:107EA00010B504460068086020680268226000225D
:107EB00002602068002800D16260086801F074FB4D
:107EC000E189081AE081A089401EA08110BD704799
:107ED00010B5C2880446121D0021806892B201F0DC
:107EE00049FF2146042001F079FF002805D003480E
:107EF000214600689C3001F097FF10BDD806002095
:107F000070B50E460749054609680020CC6A05E0B1
:107F100031462046A847002802D1E468002CF7D15A
:107F200070BD0000D80600200A490968096872B6C9
:107F30000122824390004218095A0648528800687C
:107F40008A420068008902D9511A401A80B262B68A
:107F500070470000C406002070B586B001F07AFFBB
:107F6000002069460D4E0870306844308089C04654
:107F700004466D460EE03068291D4430FFF790FF3F
:107F80000198808801F090FF0290684601F09EFF02
:107F9000641EA4B2002CEED106B070BDD80600203D
:107FA00010B501F0DBFF10BDF3B585B00027044626
:107FB000054606460197807A2A353236BC2824D0F9
:107FC000F12811D1E07A00071FD420462030002389
:107FD00002AA2946039001F0C7FF0222314602A8F7
:107FE000FDF7D0F9002807D022462946304601F097
:107FF000F5FF812007B0F0BD0A48009700682B46C6
:1080000001AA0399083002F021F8102200210698F5
:10801000FDF7AEF9227F29460698FDF7A3F9002067
:10802000E8E70000B006002010B5044602F022F890
:10803000FF2805D000222146812002F039F810BD2A
:10804000022010BD30B501460D4800682030007D8B
:108050000029024613D00B4B0C0519680020240D93
:1080600080310AE07C2343438D6A0833EB5A1B05B9
:108070001B0DA34203D0401CC0B28242F2D830BDD7
:10808000B0060020D006002070B500240646204629
:10809000002900D103240A490D681035002E07D0AD
:1080A000012E04D1A018C1B22846FFF760FE70BDB2
:1080B000A018C1B20122284601F0D5F870BD000019
:1080C000D006002070B50C46054601F0D3FFFF280E
:1080D00005D022462946002001F0EAFF70BD0220AB
:1080E00070BD7047F0B50446807A2546603599B07A
:1080F000102820D0D1286BD0D22869D0D32867D0BF
:10810000D42865D0D52863D0F02865D0FE2867D064
:10811000A22871D0B2286FD0B4286BD0BF282046D7
:1081200069D0C046C046E07A000702D52046C04666
:10813000C04619B0F0BD607805AAC107C90FA01CE0
:1081400001F0DFFF424E434F002824D001F0E0FF52
:1081500000281ED0287DC0071BD001F0E3FF0028B7
:1081600017D0E079400614D50220009030682589A8
:1081700080308078012300070BD53868232280697E
:108180000099FFF71FFE010003D08D800098FFF7D4
:1081900073FE002045E005A9204601F0C7FF2089B5
:1081A0000104C0D502210505009130682D0D8030F5
:1081B000407801230007B6D538681E228069FFF792
:1081C00001FE0100AFD08D800098FFF755FEAAE7B1
:1081D000204602F017F8A6E7204602F0A1F8A2E731
:1081E000287D00069FD57C2200212046FDF7C0F89F
:1081F00099E701E019E027E0E17A0120090704D5B9
:1082000020461F20C04600288DD0E17F022902D1E0
:10821000E17EC90687D5002885D0287DC00702D019
:10822000B420A0727FE7A420FBE720461021643031
:1082300002F0BEF8E07A000703D52046C046C046EB
:1082400071E7B521A1726EE702F0C2F86BE700009A
:10825000BC060020C006002070B500281CD0030515
:108260000F480E4A00681268203000211B0D047D63
:1082700080320FE008467C267043956A0830285A01
:108280000005000D984203D17C225143681870BD4F
:10829000491CC9B28C42EDD8002070BDD006002028
:1082A000B0060020FEB506468068FF25077B887A69
:1082B0000C46D0280BD0E07A00070CD56846009613
:1082C00001941F20C0460546FF2804D079E03046BF
:1082D00002F09AF811E07420005DC0076BD0A07A1C
:1082E000002808D0F12806D0B5284DD0B62852D0A5
:1082F000FB2857D065E0012F01D0002561E0002761
:108300002089FFF79FFE024600212F4B0846FFF70A
:10831000BBFE207BC14389070AD0810714D5012108
:1083200008432073207B0107890F012911D00BE03E
:108330000C21084027D00428F4D0082822D00C288B
:1083400000D10127002F3CD02146304602F0C8F86A
:1083500036E0FB2108400821084320731B48022413
:1083600000688030407880060CD5194820220068CB
:10837000002380692146FFF725FD010002D0204639
:10838000FFF77AFD8320FEBD032F1AD12146304628
:1083900002F07AF914E0042F13D12146304602F09E
:1083A000B1F90DE0012F0CD1012300220921204653
:1083B00002F038FA04E06846009601941F20C04697
:1083C00005462846FEBD000030750000BC060020B2
:1083D000C006002010B50A4681681046497B02F0AD
:1083E00037FA10BD10B50446006808602068002800
:1083F00000D161600846216001F0D6F8E18940189B
:10840000E081A089401CA08110BD7047F8B50E46E0
:108410000A490838096807460C6802F04BFA054615
:108420003946E06802F050FA72B6B100605A401B5B
:10843000605220894019208162B6F8BDC406002030
:10844000F8B5044602F05BFA002823D08220002C05
:1084500021D0217D012901D002291CD1217C1029A4
:1084600002D0802917D11BE0A0894049884202D060
:10847000491E884214D1012002F050FA0EE0017822
:10848000002909D141680A7C102A05D1A28989896D
:108490008A4201D18520F8BD02F052FA0028EED1BF
:1084A000002002F061FA002806D04168C98A00293C
:1084B00004D04088401804E0012203E002F06CFA86
:1084C000401C82B200212346084602F073FA0600DF
:1084D00006D0701C82B2E08A401E87B2002515E0EB
:1084E0008720F8BDE08A002803D0002F23D07F1E0C
:1084F000BFB2E069A90043580021012002F05AFAF6
:1085000000281AD0401C6D1C82B2ADB2207EA84259
:10851000E8D81748022200686030017911430171E0
:10852000606A00281FD02046203000900078002884
:1085300019D0002513E082270AE0872708E02420CD
:10854000616A68430818314600F0DAFD070004D07C
:10855000304602F06DFA3846F8BD6D1CADB2009899
:108560000078A842EBD80020F8BD000001180000F8
:10857000D806002010B5034602220249012002F06D
:108580007BFA10BDFFFF0000FFB581B00A9E1F46B9
:108590001446050005D0022C06D0002C06D0012C74
:1085A00004D0822005B0F0BD202200E01022029904
:1085B00002F092FA0028F5D13B4622460096284662
:1085C000029902F0C7FAEDE7FEB5048841880191EF
:1085D0008688C78800890090204602F01DFB0500B0
:1085E00007D02879002802D0A878400703D085203A
:1085F000FEBD8020FEBD20222146002002F024FB8B
:10860000040048D001982D49801F88424FD8B01FE0
:1086100088424CD80198B04249D8FF20F5308742B3
:1086200045D20099781C7043890088423FD823497D
:108630000098091F0A38884239D8A06812210173AE
:10864000A06829794173A06808218173A06800217E
:10865000C173A068019901740199A068090A417465
:10866000A068310A8674A068C174A068390A0775C9
:10867000A0684175A068009981750099A068090AF1
:10868000C1750C20E0802146052001F0A7FB0028E1
:1086900003D081250CE08820FEBDA8780621084380
:1086A000A8701220A8712879E871002504E08225BD
:1086B00000212046FFF7AAFE2846FEBD7A0C0000E6
:1086C00038B5049C009402F0DFFA38BD70B50C4652
:1086D00001F0D0FC0546182801D3022070BD02F03D
:1086E00021FB002801D03A2070BD052C05D0132CA9
:1086F00003D01A2C01D0122070BD2146284602F06A
:1087000018FB002070BD70B5046805460320641E88
:10871000514304430E460A46641C00212046FCF7E0
:1087200027FEA0192860204670BD70477FB5040061
:108730000D001600684602F005FB684601782170BE
:1087400041782970807830707FBD000080B502F0DC
:108750003EFB01BDFFB5AA4887B0857F017F01912F
:10876000417F0291C07AFF210090174621310120FC
:1087700002F052FBA34C5B212060C900012002F0F3
:108780004BFB21688031C8651821012002F044FBB1
:10879000216805268031C96DF601891908653C21DB
:1087A000012002F039FB21688031C96D8919096DFA
:1087B0000860FF211931009802F02EFB21688031FA
:1087C000C96D8919096D48600421092002F024FB54
:1087D00021688031C96D8919096D086138210098B7
:1087E00002F01AFB21688031C96D8919096D886012
:1087F0003821009802F010FB21688031C96D891979
:10880000096DC8600898012809D10E21009802F06E
:1088100003FB21688031C96D8919096D48612021E8
:10882000009802F0F9FA774C2168803148652021E0
:10883000009802F0F1FA2168803188652C210098B7
:1088400002F0EAFA2168803148660799DC20394352
:1088500041430120443102F0DFFA21688031C864CD
:108860000799D820414301202C3102F0D5FA216824
:10887000803108651021012002F0CEFA2168803194
:1088800008660421012002F0C7FA21688031886659
:108890002421012002F0C0FA21688031C86602F06C
:1088A000C5FA0446FF340934002F73D02421012077
:1088B00002F0B2FAA0622421012002F0ADFAE062D7
:1088C0002421012002F0A8FA20632821012002F0CF
:1088D000A3FA60632821012002F09EFAA0632821F8
:1088E000012002F099FA0026E06307E03C21012014
:1088F00002F092FAB100761C6050F6B202988642FD
:10890000F4D300942146224628313432E36B02F03E
:1089100095FAFF210931019802F07EFA00220446FF
:10892000002F04D05421019802F076FA0246214625
:10893000019802F0D7FA0821A9400C46012002F064
:108940006BFA06462146012002F066FA07460A98AD
:10895000002831D02146012002F05EFA1021A94002
:1089600005900C46012002F057FA009021460120A4
:1089700002F052FA04462821A940012002F04CFAE4
:108980000490681C0099C2B2009601A892C0059B91
:108990001BE0FFE72421012002F03EFAA06228211B
:1089A000012002F039FA6063002022463432214669
:1089B000034628310090AAE700200190029004901D
:1089C000681C03970096C2B200232946084602F0AD
:1089D000DFFA0B4D0122E97A0B48491CFFF793FEA1
:1089E000084C02222168FF3101310861E97A06480A
:1089F000FFF789FE2168FF31013148610BB0F0BDFE
:108A0000A0140020BC060020C80600207CB51D492B
:108A100003C90191009002F03FFB04461A48192156
:108A200000690904884200D308466060A0601748C6
:108A300005210068C9018030C06D05224018006D15
:108A40002146006960610120C00220803031684603
:108A500002F02EFB0020E0700120C007A06302F0AE
:108A600043FB0020C0460024094D04E0204602F0EC
:108A700087FB641CE4B228682030007DA042F5D852
:108A80007CBD0000A0780510A0140020BC060020CA
:108A9000B006002070B51549002002F0C1FB144952
:108AA000012002F0BDFB1349022002F0B9FB12497C
:108AB000032002F0B5FB1149052002F0B1FB00F0E4
:108AC000C1FD02F0B6FB0E49082002F0A9FB00240C
:108AD0000C4D04E0204602F0B3FB641CE4B22868AD
:108AE0002030007DA042F5D870BD0000F1250510B2
:108AF000291405106D470510C13205109534051075
:108B0000C1670510B006002010B5002002F0D6FBAA
:108B100000210C46084B06E02C224A43121894749C
:108B2000491CD474C9B2DA7A8A42F5D802F0D0FB73
:108B3000FF214171047110BDA014002010B502F096
:108B4000CFFBFF2181770021C17710BD10B5002830
:108B500003D0002A01D00B2B01D9822010BD04467E
:108B6000037008344170036A5954491EFBD5A26052
:108B700060610020207310BD054800210068C030EE
:108B80000172417203218172C1720020704700009E
:108B9000BC06002070B5174D0024286864210C54D1
:108BA000042221466530FCF7E3FB28680522FF21FB
:108BB0006930FCF7DDFB2B681F2118466033997381
:108BC000DC7320221A745976072200217A30FCF7D0
:108BD000CFFB28680822FF218130FCF7C9FB06483B
:108BE000006820304475286880300484448402F092
:108BF0007FFB70BDBC060020B006002010B5044805
:108C0000042200680021A430FCF7B2FB10BD000074
:108C1000BC06002010B52D48416880229143416078
:108C20008268FF2109041D238A439B04D2188260B5
:108C3000826807231202120ADB06D2188260C26819
:108C400043128A43D218C260C2683F231B069A436C
:108C500001231B07D218C260C268120A1202143222
:108C6000C260C3680A120524934324021B19C3601F
:108C700003691B0A1B029B1C03614368C4139343D3
:108C80001B19436043688B433F2109045918416015
:108C9000416809230902090A1B06C9184160816855
:108CA000090A090276318160816891431D225202CE
:108CB000891881604169042211434161416952056B
:108CC0001143416102F022FB10BD0000C0000020F2
:108CD00070B5042201211448FFF715FD134C102232
:108CE000206001211048FFF70EFD21680C2208606A
:108CF00001210D48FFF707FD21680D4D0968282265
:108D0000C860A9890848FFF7FEFC216804220968A9
:108D1000C9688860A9890448491CFFF7F4FC2168E8
:108D20000968C968486070BDC8060020C4060020F4
:108D3000A0140020034A8000126812688018418045
:108D400070470000C406002070B4418800292DD06F
:108D50008668002E2AD00025058041682A460D60CD
:108D6000418800291FD928215143891900230B600C
:108D7000002913D072B60388002B03D044689B00EF
:108D8000E35819608D8003885B1C9BB203804468A4
:108D90009B00E15009680029F4D162B6521C418859
:108DA00092B29142DFD870BC0020704770BC862020
:108DB00070477047034800210068543041710171C9
:108DC000C1807047BC060020002202804280818062
:108DD0007047704770B50646702201211748FFF7AB
:108DE00092FC174C174D2060E97A10221348FFF7C8
:108DF0008AFC2168012EC86210D12E462036B17837
:108E00002C220E48FFF77FFC216810224863B078BF
:108E100041000A48FFF777FC21688865E97A01225A
:108E20000648491CFFF76FFC216802220862E97AB4
:108E30000248FFF768FC2168486270BDC806002040
:108E4000D4060020A014002010B5FF2221320121F9
:108E50001648FFF758FC164C7C2220601548C17A52
:108E60001248FFF750FC21680822803188620321F4
:108E70000E48FFF748FC216828228031C862012192
:108E80000A48FFF740FC21680122803108630C2169
:108E90000648FFF738FC2168022208630B210348CB
:108EA000FFF731FC2168486310BD0000C8060020B0
:108EB000D0060020A01400200023036043604181FD
:108EC0000281C3818381704770B5094C074D2068CA
:108ED0002A4600214430FFF7EFFF20682A46002190
:108EE0003430FFF7E9FF02F037FA70BDFFFF0000F2
:108EF000D806002010B502F041FA10BD70B50D463D
:108F00000646702201212148FFF7FDFB204C012E6F
:108F1000206014D1062201211C48FFF7F4FB2168D0
:108F20000E22886301211948FFF7EDFB21680E220C
:108F3000C86401211548FFF7E6FB21680865012D8B
:108F400018D0216800201422C86201210F48FFF7C1
:108F5000DAFB21680122486504210C48FFF7D3FBA6
:108F600021680222086203210848FFF7CCFB216830
:108F7000486270BD01221C210448FFF7C4FB216830
:108F80001422C8620348017FE0E70000C806002001
:108F9000CC060020A014002080B5012002F01AFAAF
:108FA00001BD7047F0B534489BB0066805A80025A0
:108FB0002836019002F018FA011E09A80DAC0F9096
:108FC00026D0062103A801F0F3F96946487CC021A8
:108FD000084369464874062203A92046FCF7C2F9F3
:108FE000102112A801F0E4F9102212A90198FCF74F
:108FF000B9F9102116A801F0DBF9102216A90F9873
:10900000FCF7B0F9019802F0FEF9050000D0F12557
:1090100027460620194C00902268014600202E3277
:1090200002F0FEF9002801D127682E373046394674
:109030003630009AFCF796F9226810263146002057
:10904000083202F0EDF9002805D020683246019977
:109050000830FCF787F9226831460020183202F008
:10906000DFF9002805D0206832460F991830FCF748
:1090700079F928461BB0F0BDCC060020B0060020D0
:109080000A07920F01D0822070478A07FBD002782E
:109090008907890F0A4302700020704730B5074ADC
:1090A000034600211268084654185D5C6034491C70
:1090B000C9B265760829F7D330BD0000BC06002090
:1090C00030B5074A034600211268084654185D5C13
:1090D0006034491CC9B265720829F7D330BD00005D
:1090E000BC06002010B502F0ACF910BD10B5034667
:1090F00000220249012001F0BFFC10BDFFFF00006B
:10910000F8B50D46044601F0FAFB00280ED02046C3
:1091100002F09CF9002808D1284602F0C3F90500A6
:1091200002D02878002803D08220F8BD8520F8BD21
:10913000217E2846891C02F0C7F90028F7D128466D
:1091400002F0DBF9054602F0ADF96D1C0146AEB246
:1091500023463246022001F02DFCB04201D0872088
:10916000F8BD304602F09EF90146701C82B22346DB
:10917000032001F01FFC002807D0E069002819D067
:10918000207E002816D0002511E0872708E01C204B
:10919000E16968430818314602F0BAF9070004D0C3
:1091A000304602F005FA3846F8BD6D1CADB2207E9F
:1091B000A842ECD8044802220068603001791143CB
:1091C00001710020F8BD0000D806002030B5104A1B
:1091D000002013680F4A014612682032147D803344
:1091E00013E07C229D6A4A43AA187425AD5CED0702
:1091F000957A06D0B02D06D3EAB2F02A03D8012022
:1092000030BDA02DF8D2491CC9B28C42E9D830BD7E
:10921000D0060020B006002010B586B0044601A894
:1092200002F0EAF902F0FCF969468870000A487019
:1092300002F0F6F969460870887840214006400E31
:1092400008436946887005AA01A802F007FA0322BC
:1092500005A92046FCF786F803226946E01CFCF7C6
:1092600081F806B010BDFFB585B00D4604000BD0E7
:1092700060780290854207D22178052000030027FC
:1092800088401E46834202D9822009B0F0BDF9F71A
:1092900052FB7200921913019A18130A4907C00869
:1092A0009A180843130C21789A181018491DC840C1
:1092B000694608800197206A0799405DA84209D055
:1092C000002904D029462046FEF751FD06E0822100
:1092D000019101E0002901D1A84236D16846616AB6
:1092E00000886A00885268460021415E0391F9F7C0
:1092F00022FB86466378206A1A468446805C13E027
:10930000666A4700F75B26787146761DF140CE0805
:10931000B91B0FB203997F1E8E1B36B2761EB74261
:1093200004DC02466146885C9842E9D16046815C73
:109330004155206A85540298824206D16846002130
:10934000415E204602F0A5F9019001989DE7704723
:10935000F0B50F460146244885B004681D46283400
:109360001646F80605D501208003864201D88542BD
:1093700002D9822005B0F0BDE26A00205070E06A98
:10938000017002F0ABF90490384602F0B9F90246D8
:10939000E06A2023417819434170012A06D0042A4B
:1093A00004D0002A0BD0022A09D00CE01023194364
:1093B000E06A012A417006D14023E06A01E0E06AD8
:1093C0000823194341700BA883C803970A9B6F4673
:1093D0000BC7A9B2B0B2049B02F0A8F90028C9D10A
:1093E000E26A01219174C5E7CC06002070B50446FD
:1093F0000D46C0B202F0EEF9002805D103490A6813
:10940000516D4D60516D0C8170BD0000CC06002087
:1094100070B504460D46C0B202F008FA002805D126
:1094200003490A68516DCD60516D0C8270BD00001A
:10943000CC06002070B50646124805682835002E77
:109440000DD0E86A807C012801D0D32070BD0021B6
:10945000084602F015FA040012D1FEF739FA304638
:1094600002F068FA04000BD100221146304602F0E7
:1094700073FA002E01D0012000E00020E96AC874D0
:10948000204670BDCC060020F8B50546022680882F
:1094900002F0B2FA04002BD072B600202860606F90
:1094A000002827D0A06F0560A56700F06DFB05467A
:1094B000F8F719FF0122920280182946064600F0AB
:1094C00068FB012818D002F0B7FA2546034620357C
:1094D000287C00F0BFF8002808D0687F984205D0AB
:1094E000A08E002802D00120E034607762B6842686
:1094F0003046F8BD6567D7E725462035287C00F063
:10950000A9F8002807D0A08E0028EFD0287C31468B
:1095100000F044FBEAE702F08FFA697F8142E5D16F
:10952000A668E06F0004C70F287C02F08AFA00905A
:10953000287C012100F0FAF80146204628308642B6
:1095400020D1002F1ED1009A012A1BD0676F154928
:10955000387C0968C0068031C00EC96C801C461872
:10956000A6603946204602F075FA2767287C01215B
:1095700000F09DF80028B9D070780028B6D0001D02
:109580007070B3E78642B1D08E42AFD0002FADD11C
:1095900000980128AAD0A068102201781143017018
:1095A000A4E70000BC06002010B5806801F082F935
:1095B00010BD7047064905220968D2018031C96D86
:1095C0008918096DFF2249681932504308187047FD
:1095D000BC06002070B50546084602F00DFA0028CA
:1095E00005D004462034217B032902D008E0022064
:1095F00070BDFF3001308079000701D41A2070BDA2
:10960000207C012102F066FA00280BD0002D05D144
:10961000207C012102F065FA032801D03A2070BDB8
:10962000002070BD207C012102F05FFA4574207C8F
:10963000012102F063FA207C00230322012102F0C1
:1096400065FAEDE780B502F079FA01BD80B502F068
:109650007DFA01BD00B5FFF7ADFF2030007B032888
:1096600001D0002000BD012000BD00B5FFF7A2FF22
:10967000A030C079C007C00F00BD10B5044601215D
:1096800002F028FA012820460DD002F076FA0121D6
:10969000204602F033FA012302221946204602F046
:1096A00035FA012010BD02F071FA002010BD10B58E
:1096B0000C4602F074FA0078002C02D00007C00FAC
:1096C00010BDC006FBE770B50546012102F002FAA5
:1096D000044601280BD00121284602F00FFA00238E
:1096E00008220121284602F011FA002C01D00020A6
:1096F00070BD012070BD00B5FFF75CFFFF30013089
:10970000007A00BD10B5FFF755FFA43010BD70B54D
:109710000546002402F048FA002805D0284602F049
:109720004BFA032800D00124204670BD00B50B463B
:10973000FFF740FF9900081880304068801C00BD8A
:10974000F8B5074615460024084602F03DFA0646DD
:109750000146384602F0BEF9002810D0314638469E
:1097600002F038FA002D04D0012D05D0022D06D1CB
:1097700007E00078800701E000784007C40F20462A
:10978000F8BD00780007F9E7F1B5009802F029FA72
:1097900006004CD00098FFF70DFF0546406F0028EB
:1097A00001D002F025FA00206867A8672846F43047
:1097B00002F03EFA1E4800682030007BC00701D04E
:1097C000002400E01024EF8E02238034E00603D54D
:1097D0000222BF20044006E0164800686030407A4C
:1097E000C00615D500222007000F032810D2124909
:1097F00080000968401800692146FEF7E3FA01007D
:1098000006D000220A71CF800E722046FEF734FB8C
:10981000284602F02BFA009802F03CFA009802F079
:1098200040FA009801F00CFD009801F0A9FCF8BD89
:10983000B0060020BC060020C006002010B50C4673
:10984000192830D84100194B4118C918497891425C
:1098500029D1030002F02CFA190E0E100E1E1E1054
:10986000100E100E1010101E2727101010121215B7
:109870001A212700204610BD012010BD0120C0463E
:1098800001E00020C0460028F6D110BD0020C046EF
:10989000002808D0002CEFD005E00020C0460028AA
:1098A00001D0002CE8D1002010BD000089AA0410CE
:1098B00010B50C46FFF77EFE0019A030807810BD71
:1098C00010B50C46FFF776FE00198030807F10BD82
:1098D00070B505460021FFF729FF04462846FFF72B
:1098E00011FFFF23A27801885B01994352011143C4
:1098F00010221143018070BDFFB5044681B01E46A1
:1099000017461946104602F0E0F905463846FFF7BB
:1099100051FE2030007B022801D0012200E000220D
:10992000112C01D0072C04D1029802F0D7F98542FE
:1099300021D1012E08D0072D11D0012D0FD0082DD7
:1099400011D0062D0FD016E0072D08D0012D06D01E
:10995000082D08D0032DF4D1072C07D00BE00D2CD7
:1099600006D0112C04D0072C02D004E0002A02D02B
:10997000012005B0F0BD0020FBE7704710B51928A5
:109980001AD843000E4CC3181B195B78934213D1AD
:10999000030002F08DF9170D0D110D111111110DAC
:1099A000110D1113110F11111113111311131100B6
:1099B000084610BD002901D0002010BD012010BDB7
:1099C00089AA041010B5002102F094F90188490811
:1099D0004900018010BD7047F8B50646002402F02A
:1099E00092F9002833D03046FFF78CFE0546007808
:1099F0008007C40F2BD13046FFF7DCFDA0308779FC
:109A0000002F24D0304602F0D7F800281FD17C0662
:109A1000640E01213046FFF789FE0E4901802102C4
:109A2000891C418028880221084328803046FFF79E
:109A3000C1FD0021A03081710121304602F06AF998
:109A4000002304220121304602F060F80124204660
:109A5000F8BD000003020000F3B581B00546FFF732
:109A600051FE044600780007C60F284602F0A4F80D
:109A7000002E09D0032807D10021284602F04AF918
:109A8000218808208143218028460299FFF718FF8A
:109A900006463446030002F00BF906040C11171CAD
:109AA0002142284602F02FF90024002837D0012453
:109AB00035E02846029902F03AF903E02846029977
:109AC00002F072F904462AE02846029902F0B6F93B
:109AD000F8E72846029902F0E9F9F3E702980090C6
:109AE000284602F02FFA0527002817D028460099AB
:109AF00002F0EBF802F02DFA04000CD0284602F038
:109B000038FA002801D0082200E007220023284666
:109B10000099A0470127284602F032FA3C46284621
:109B2000FFF7F0FD07460078C006C10F28460091F8
:109B300002F042F80099002918D0002816D1388880
:109B40004109009101212846FFF7F0FD0D490180F0
:109B500000990902C91D41803888102188430821D5
:109B6000084338800121284602F0D4F8A64206D0E6
:109B70002846029EFFF71EFD80198030847720461C
:109B8000FEBD00000302000010B501F0A1FB00685B
:109B900010BD081AC00F012148407047FEB50B46A2
:109BA000FFF708FD0446006C0190A76CC11A79D438
:109BB0007800884276D826462036707F502250435F
:109BC000394A80188446806800258004800E009001
:109BD0000820C3B23A469A408A4204D8891A012220
:109BE0009A40521995B2401E40B20028F1DAE08F37
:109BF000401B81B22046E187E0300290007F0028C0
:109C000008D060460068020C424092B2307C02F0FC
:109C1000C3F910E0717C2520684309180098684357
:109C2000081A80B202F032FA70740099401A253096
:109C300080B202F02BFA717F502251431A4A803AC7
:109C40008918CA6D800692099201800E0243CA6586
:109C5000606CE16C4200891AE16429467943019AFB
:109C60000B46521A1218608D02F01EFA616C814286
:109C700001D8084604E0081A0D2800D20D206064BF
:109C8000121A2264E16C40000918E164E06DC0180A
:109C9000E065707F02F00DFA707F02F011FA029811
:109CA00000214177FEBD00000001002030B50B4BC4
:109CB0001B6872B654335C79002C00D00124002557
:109CC0005D711D792D072D0F057018790009087039
:109CD0001868106062B6204630BD0000BC06002047
:109CE00010B542780024914206D1017D0830002948
:109CF00008D0F8F7C3FA05E0426A4900515E01F066
:109D0000C8FC0446204610BDF0B54488491CA4B2E6
:109D1000E5B2A40809B21C808EB287883619BE420B
:109D200004D9A6B2891B6D1C09B2EDB2A400241897
:109D3000083414601C88AD076418A400AD0F2C43D0
:109D4000A4B21C800388E31A9C07A40F012C02D83C
:109D500003D1002B01DD00230AE00123002907DAEB
:109D600011688C78A408A400641C8C700830106002
:109D70001846F0BDF7B50746174816460068046850
:109D80008120002F11D0384602F052FB0546B04228
:109D90000CD2301A81B2019802F056FB002804D18F
:109DA00032463946E06802F075FBFEBD3246394660
:109DB000E06802F06FFB6D1E761E69097209891A50
:109DC00072B6019A9200A35A5B1AA35222895118C3
:109DD000218162B6FEBD0000C406002010B50C460D
:109DE0000146042805D0052903D0062901D0A0206A
:109DF00010BDA068A2790272E088020AA0684272CF
:109E0000A0688172A068090AC172E088001DE08024
:109E1000022020732046FDF7ACFD0028E8D0E08842
:109E2000001FE080812010BD10B5044600200860AE
:109E3000206800280CD06068016008466160FFF768
:109E4000B3FBE1894018E081A089401CA08110BDCE
:109E50002160F2E710B5124C20686030007980076D
:109E600009D502F065FB2168FD22603108791040B8
:109E700008221043087120686030007900070DD572
:109E800000210848FEF73CF8002801D0812805D1C0
:109E90002068F722603001791140017110BD000087
:109EA000D8060020995E051007490246096800207F
:109EB000C96A05E0CB88934201D108467047C9685A
:109EC0000029F7D170470000D806002070B504467D
:109ED0000078002811D1606802F07EFB6070A168F4
:109EE0008868002809D1606802F07AFB050010D16B
:109EF000606802F0C7FB05000BD18625607802F090
:109F0000EDFB0E2805D213498000095820468847EA
:109F100005466068002809D00F4A882D0ED0072D0D
:109F20000CD0842D10D00121FEF770FA002D01D045
:109F3000862D02D1A06802F00DFC70BD01461068AC
:109F40004430FFF771FFF1E7014610683430FFF746
:109F50006BFF70BD04630510D8060020014800683F
:109F600000470000E0060020F0B591B0054619A0BA
:109F70000068069000200790174800930068144678
:109F80000E4601AB07AA06A9183000F05FF801A839
:109F9000009005AF1022002108A8FBF7E9F908227C
:109FA000314608A8FBF7DEF90CAA08A9009802F0D0
:109FB000EBFB02220CA93846FBF7D4F96846007D7A
:109FC0002978484020706846407D69784840607034
:109FD00011B0F0BD03000000B0060020F0B5064649
:109FE00097B0002014460F46159002F0D3FB12AD37
:109FF00010E068464079C0060CD5012316AA394600
:10A000002846FFF7B1FF0222314616A8FBF7BAF93E
:10A01000002807D001A802F0C3FB0028E9D0812066
:10A0200017B0F0BD01A9204600F080F80120009093
:10A0300005482346006821462A3315AA20310830F6
:10A0400000F004F80020EBE7B00600207FB5002404
:10A0500000940194029403940D786C46257049781D
:10A0600061701178A1705178E1701A46694602F06A
:10A070008BFB7FBDF0B5FF24054600230A4F0B4E36
:10A080000BE01846FFF796FAC08EA84203D1BD42F6
:10A0900001D01C4606E05B1CDBB230682030007D3E
:10A0A0009842EED82046F0BDFFFF0000B006002029
:10A0B00070B5054616460846FFF7DCFF0446FFF775
:10A0C000C9FA182C01D3022070BD00280ED000213F
:10A0D000204601F013FD0021204601F006FD002D71
:10A0E00006D000212030C172002070BD822070BDDA
:10A0F00001222B210A5410228118304600F0D8FF8B
:10A10000F2E710B51346012202F05EFB10BD704766
:10A11000034800684830807C8006800F704700004C
:10A12000CC06002010B502F087FB10BD70B50446C8
:10A1300001200D46A076C97821776978090603D5F4
:10A14000617F1022114361776A78617F60231A4032
:10A15000114361776978C90602D5A17F0143A177D0
:10A16000E86C6061A86C294620610E3120461022FF
:10A170000E463A30FBF7F6F82946204610221E31EB
:10A180005430FBF7EFF82946204610222E31643078
:10A19000FBF7E8F829462046022244312030FBF73D
:10A1A000E1F820460822A91D4A30FBF7DBF82046DB
:10A1B0000222291D5230FBF7D5F86878800704D5B4
:10A1C000208901214903084320816878400704D58C
:10A1D000208901218903084320816878000704D57C
:10A1E00020890121C90308432081A878010706D5E9
:10A1F000E0722046102231462A30FBF7B3F8F120F6
:10A20000A07270BDF0B58DB0002705460797008994
:10A2100020220105090D384600F016FD04006FD01C
:10A220002E466036307DC106284620300290002937
:10A2300006DB022100F0BCF8307D102108433075A8
:10A24000A87A2E462236D12808D0D2281BD0D3286F
:10A250002ED0D42837D0D52854D049E00821304614
:10A2600000F0A6F82D480097006803AB07AA0299F2
:10A270000830FFF7EBFEA068062101731120E08093
:10A280002A7F03AB1DE00B20E080A068072101734B
:10A29000002307AA31460298FFF766FE07AB0222A9
:10A2A0000521204602F0DBFA0822334607211CE094
:10A2B0001120E080A0680821017308A801F09CF932
:10A2C00029E0052111E069460F7008A9684602F0EF
:10A2D000CFFA0820E0800921A068062201736946B0
:10A2E000A0680978417308AB1146204602F0B7FA1E
:10A2F0002946204602F0D6FA002801D1DD20A872B6
:10A300000DB0F0BD1120E080A0680A21017308A9FA
:10A31000284602F0E3FA08AB1022D2E7B00600208C
:10A320007CB5044600890505A07E2D0DC04380073D
:10A3300009D1204602F0E6FA002804D00821204680
:10A3400000F086FA7CBD2846FDF77CFE0246164BDF
:10A3500000210120FDF798FEE07F0026032807D1A9
:10A3600012482822006800218030006BFBF700F8BB
:10A370002046042200210C30FAF7FAFF68460094C8
:10A38000067102F05DFBF120A0726846027900239D
:10A390002946022002F070FB20890004D2D529460C
:10A3A000022002F099FB7CBD30750000D006002031
:10A3B000F0B50E460746002407E03D1901F030F9DC
:10A3C0002870000A6870A41CE4B2B442F5D3F0BD52
:10A3D000C17A0A07817F03D4CA0701D0D12102E0E4
:10A3E0008A0702D5D32181727047490701D5D5214B
:10A3F000F9E77421095CC90704D0417F490701D0FE
:10A40000D021F0E7F021EEE77CB5054680680C46E8
:10A41000017B06291DD007291ED0082932D0092921
:10A420003BD00A2914D1607F400711D523466433FD
:10A4300010220521284602F07BFB607F4021084363
:10A4400060777420005DC007204645D0FFF768FFA5
:10A450007CBD23463A331AE02146427B40318A7460
:10A46000A8682346807BC8744A33082207212846FF
:10A4700002F05EFB607F1021084360774007800F89
:10A48000DFD07CBD607F8007FBD52346543310228C
:10A490000521284602F04CFB7CBD607F8007FBD580
:10A4A00000200090062301901A466946284602F0D3
:10A4B00048FB00280CD0A8680622407B6070A31CD3
:10A4C0001146284602F034FB607F20210843607764
:10A4D000607F4007B5D57CBDFFF77AFF7CBD704734
:10A4E000F3B5684800250068B4274030807983B010
:10A4F000C0430C462E4680070ED02089202201053D
:10A50000090D002000F0A0FB0290002807D0A17ADE
:10A510000020F12905D039E0082005B0F0BD8820E1
:10A52000FBE7E17E2F221140E1765649237F09683F
:10A530002031C97E8B4204D0039A9268127C8A42F1
:10A5400007D8039A92689446127C9A4203D08A42B2
:10A5500001D860771AE0617F8A0600D50226490695
:10A5600001D504210E436146497CB14203D001224A
:10A570001643B14202D16077A07707E0A07EC043C6
:10A58000800703D1204602F0BDF90546B0203D4EBC
:10A59000A072316840318879C243920701D0401CD3
:10A5A0008871002D59D1039802F0D0FA0500039864
:10A5B0008068C07B009050D13068014640318A7875
:10A5C000022A04D1009B1B0701D4032545E0530850
:10A5D0001A43CB782030D207417ED20F007E02F0A2
:10A5E000D1FA06460098182130400840E072000772
:10A5F00005D520461F20C04605002ED1B227204693
:10A6000002F0CCFAF00700D00220A0767007C00F4D
:10A61000E0762146039802F0DFFA204602F020FBA4
:10A6200005001AD1E07F022803D1E07EC00600D4E5
:10A63000B227A07F617F40074907400F490F009173
:10A640000190227E33460221029802F045FB21460A
:10A65000029802F027F9050008D001232946204678
:10A66000029A00F0DFF80546284656E720890721C0
:10A6700009038843208103480068A030C675A7728B
:10A68000F2E70000D006002070B5064608890C46A7
:10A6900001058AB0090D2022002000F0D5FA05003E
:10A6A00012D0002E06D023462A3310220521304630
:10A6B00002F03EFAE07A000709D505A8029001945D
:10A6C00001A8C046C04608E088200AB070BD2146F7
:10A6D00005AA6431204602F01DFB1120E880A8681D
:10A6E0000321017305AB10220521284602F0B7F8BB
:10A6F0002146284602F0D6F80028E6D1B621A172FC
:10A70000E3E77047F0B5064693B00020059008894E
:10A710000C460105090D2022002000F095FA0500E5
:10A7200019D023465433102205213046029302F0FB
:10A73000FFF9E07A010720462A30019000290DDA5E
:10A740000FA8089005A8099006A80A90079407A8E2
:10A75000C046C04610E0882013B0F0BD0FAA2046C6
:10A76000029902F0D7FA10220FA80199FAF70AFE0F
:10A770000590BC2069460876264605986436284F21
:10A78000002809D001232A460421204600F04AF877
:10A79000059800281CD041E01120E880A868042119
:10A7A0000173334610220521284602F058F821464D
:10A7B000284602F077F80028EAD16846007EA072A9
:10A7C0003868217F2030C07E8142E1D92077DFE7E1
:10A7D000E07A000722D4607FC10702D04008400021
:10A7E0006077102200210BA8FAF7C2FDE07F022853
:10A7F00002D0032806D00BE03868C16B0BA802F02A
:10A8000035FB05E0396810220BA84831FAF7AAFD9C
:10A8100031460BA8019B029A02F030FB00209BE717
:10A82000D0060020F8B51D4614460E460B460746D6
:10A830000522214602F035FB0446882801D1012D6E
:10A8400003D13146384600F003F82046F8BD704782
:10A850007CB504460D460089FDF7F4FB0246144B17
:10A8600000210120FDF710FC20890005000D02F0F9
:10A8700033FB0220694600940871684602F0E0F854
:10A880002046042200210C30FAF772FDE07E2F21D1
:10A890000840E076204602F03BFBFB20A0722089B6
:10A8A00002220105090D2B46104602F0E5F87CBD99
:10A8B000307500000021002804D0491C006889B2CE
:10A8C0000028FAD108467047002917D072B60288CE
:10A8D000002A03D0436892009A58116010B40023F4
:10A8E0008B800288521C92B2028044689200A15070
:10A8F00009680029F4D162B610BC7047704710B5E2
:10A9000002F080FB002803D102F092FB002801D066
:10A91000002010BD02F09AFB012010BD10B502F01E
:10A92000ADFB0549884201D1002010BD0349C0009C
:10A930000968C96E081810BDFFFF0000D806002086
:10A9400010B502F0B3FB074968220968401C525A4F
:10A9500080B2824203D9C96EC000081810BD002021
:10A9600010BD0000D806002010B50A490A68682109
:10A97000895A0BE0CB00D46E083BE35C834203D1E1
:10A98000C8000838201810BD491E89B20029F1D12D
:10A99000002010BDD8060020054801686820405AF4
:10A9A000002803D0C96EC000801F085A70470000FD
:10A9B000D8060020FFB51D4C81B0206817464030F6
:10A9C000068D408D86422ED2002916D0084602F010
:10A9D0006DFB401C86B220684030058D0BE020687E
:10A9E000C26EE8000346083BD11810180822FAF797
:10A9F000B9FC6D1EADB2B542F1D220680199C26EAC
:10AA0000F000115422680499D36E021D99502168F8
:10AA1000801CC96E0F5220684030018D491C018591
:10AA2000384605B0F0BD0020FBE70000D806002046
:10AA300010B50446FFF763FF002809D0204600F058
:10AA400031FD002802D00178002903D0822010BDFA
:10AA5000852010BD02F03EFB0146204602F040FB7F
:10AA6000044802220068603001791143017100201E
:10AA700010BD0000D806002010B502F075FB0028BC
:10AA800000D0408810BD010016000C02020802042C
:10AA90000203011702010D01010101010103150269
:10AAA000030309020309030101020101030506036F
:10AAB00014020303090116180316180314030308EC
:10AAC000010308010306090306090307030307033B
:10AAD000010705021603010070B515460C4606462F
:10AAE000FFF7E2F9002831D0194909686031097986
:10AAF000890702D48078400601D5812070BD641E8C
:10AB0000A0B200F0CFFC002820D04168097829428B
:10AB100016D002F03BFB040007D00322314602F0BE
:10AB20005BFB002803D0C02070BD862070BD102DB7
:10AB30000AD002252146304602F08BFB284201D183
:10AB4000852070BD002070BD0125F3E7822070BD17
:10AB5000D8060020FFB581B01E4617460446FFF711
:10AB6000A3F9050005D06888410707D4022F03D058
:10AB700006E0822005B0F0BD800701D58520F9E709
:10AB8000A888F11C884201D9F61C00E00646B6B23E
:10AB90003146204602F069FB0221044600281FD0FE
:10ABA000A068022F24D01B210173A068022202A9F1
:10ABB0000D30FAF7D7FBF01E82B2072120460A9B20
:10ABC00001F04DFEE680022F18D0F80703D0E07C9C
:10ABD00080210843E0742046FDF77AF90020C9E798
:10ABE0000C4800682030027C0A4302748820C1E7C8
:10ABF0001D220273688808436880D6E7E98801202F
:10AC000002F03CFB0500E6D000212046FDF7FEFBEC
:10AC10002846AFE7D806002030B504460848002192
:10AC200003680848C27A07E0D86A0D014019058810
:10AC3000A54204D0491CC9B28A42F5D8002030BDD3
:10AC4000D4060020A0140020F8B50D460D49521E70
:10AC5000096800240E681F210A431D3297B2394645
:10AC600001F0F2FB00280AD13946F06802F01AFB25
:10AC7000044608340068A0600020E074A5802046E7
:10AC8000F8BD0000C4060020FFB585B01F4605468C
:10AC9000FFF70AF904002ED0A06800282BD01F4E21
:10ACA000306834300068C04603E08188A94204D08F
:10ACB00000680028F9D1054606E0050004D00146E9
:10ACC00030683430FCF765FEA06801F085FC401E5A
:10ACD000C6B20798002810D00246A36830460699ED
:10ACE00002F0FCFA204601F035FD002D03D00121D1
:10ACF0002846FDF78BFB09B0F0BD142208496846D1
:10AD0000F6F7EAFE684646700195029487810E9830
:10AD100004906846FFF7DAF8EDE70000D806002057
:10AD20007463051010B5FEF7EDFC00788007C00FC6
:10AD300010BD10B50C46FEF73DFC80210C43A03041
:10AD4000847110BD81B0032101708021C9050A689A
:10AD50000F2312091A4042700A6813408370496831
:10AD600041602749096889B2491C89008160002136
:10AD700000910099002901D1012100910099491CFD
:10AD80008903C16001B0704770B5002300241D4ADB
:10AD9000A5005351641C0A2CFAD3116050600223A1
:10ADA000DE0399004418083CE0252D066519B542DC
:10ADB00001D2246854505B1C0A2BF2D3BFF34F8F8F
:10ADC000114812490860BFF34F8F00BFFDE710B56F
:10ADD0000F21C9430E4A0F4B0028186806D00224E1
:10ADE00004431C60106801400E2005E00224A043CB
:10ADF00018601068014004200843106010BD000076
:10AE000014100040340000200400FA050CED00E0AE
:10AE10001C005048541600600A4610B5014602480E
:10AE2000FDF771FC10BD0000C80600200248006854
:10AE30008030C06D70470000BC060020F8B50646A3
:10AE4000069FFFF7F3FF0446FF3409342546FF351C
:10AE50002135AE760868A0624868E06288682063A1
:10AE6000106860635068E363A063002004E0810021
:10AE70007A58401C6250C0B2A97E8142F7D8FF26A2
:10AE80006E74AE74AE730020E87160210855012223
:10AE900021466873120380318A600A612871A870A4
:10AEA0000120287424220021A06AFAF761FAA87E02
:10AEB000002809D024220021E06AFAF759FA242256
:10AEC0000021206BFAF754FA002006E08100625856
:10AED000401C16716158C0B24E71A97E8142F5D8EE
:10AEE000F8BD0000F7B50C460546FFF79FFF0B21A4
:10AEF00089014618FF3035750121013071754460B4
:10AF00008446002426E060464168FF200930604303
:10AF100009180B46FF27C0339F760020DF76C04319
:10AF20009E22505200251D715D710120CD66C00426
:10AF300048650D670A468865A03215760720D075EA
:10AF4000DD77E12047545420029A60438018641C46
:10AF5000E4B28862307DA042D5D80A480521006855
:10AF6000C9018030C36D064A5B18DA61C36D064AB9
:10AF70005B185A61C06D054A40188261FEBD000031
:10AF800061670510BC06002031660510A15B051045
:10AF9000F8B51E463F4B15251C686D018034E36DE6
:10AFA0000A9F5B191870E06D4B0740194170E06D06
:10AFB0004019827001205B0F01469940E36D5207F2
:10AFC0005B19D970520F01469140E26D521911710F
:10AFD000E16D49190A785207520F90404871E16DAE
:10AFE0000798FF31FF310231C864E16D0898FF31E5
:10AFF000FF3102310865E06DFF30FF3002304665F9
:10B00000E16D0698FF31FF3102318865E06DFF3058
:10B01000FF300230C765E16D0998FF31FF31023121
:10B020008864E16D49194979FF22C900F6F7DEFE0F
:10B03000002F01D0C046C046002E0DD01548FF227B
:10B0400000688030C06D4119FF30C978FF30023090
:10B05000C900406DF6F7CAFE0E4CFF222068803012
:10B06000C06D4119FF30C978FF300230C900806DD2
:10B07000F6F7BCFE206813228030C36D5201002118
:10B080009B181972C36D9B189972C06D801841721C
:10B09000F8BD0000BC060020044805210068C90175
:10B0A0008030C06D4018006D00687047BC060020FD
:10B0B00010B4002A0CD00B4CA2420BD80123012A59
:10B0C00006DB04780C70401C491C5B1C9342F8DDC5
:10B0D00010BC704703780B70401C491C521EF9D1FC
:10B0E00010BC7047FFFFFF7FF8B5FFF7D5FF0446A0
:10B0F0000120C046012828D01B2020840120C04602
:10B10000A927FF251C4E3F01493501281FD00020EB
:10B11000C046012823D0284660840120C04601286B
:10B120001FD01B20A0840120C04601281BD0002076
:10B13000C04601281DD02E46E6841B20208365834F
:10B14000A583E78320856585F8BDFB20D5E7002032
:10B15000C046012801D00948DEE73046DCE7384622
:10B16000DAE7FB20DEE70020C0460128E4D0034EEA
:10B17000E2E73E46E0E70000904200004808000099
:10B1800070B50346FEF716FA7D2149044166024672
:10B19000816620321374002104468034C167216027
:10B1A0001E4D11732D685B018035AE6DF61866601B
:10B1B0006D6DEB18A3605173012303852161A173A9
:10B1C0004B1EC3861F2393730723D373FF23537729
:10B1D000FD221154192212040265426541678265FD
:10B1E0008167FFF759FF05460120C046FF2149311D
:10B1F000012809D1288B1B2802D1688B884203D0F3
:10B2000020682022104320601B2060852085A085B7
:10B21000E18521866086A18670BD0000BC06002005
:10B2200070B50D460446FFF737FF4069A100455051
:10B2300070BD10B500210720FFF7F2FF10BD000020
:10B24000F1B582B00298FEF7B5F906461A48052313
:10B250000268DB018032D06D0299C018006D38247D
:10B26000806861434418304680304461D26D0024C8
:10B27000D218126D3746D26825465118A037816121
:10B2800030190090803085772146029800F0A2FCAA
:10B2900005700098FF21A030641C8170E4B2FD713C
:10B2A000022CEDD3BD710298FEF72CFA0580002028
:10B2B000C043F086FEBD0000BC06002003492C22DE
:10B2C000096850438031496E40187047BC06002021
:10B2D000024800688030006E70470000BC06002005
:10B2E000024800688030C06E70470000BC06002035
:10B2F00010B50548034A006800219030FDF7DCFDD9
:10B3000010BD0000FFFF0000BC06002010B50E4C71
:10B3100000232068014610310160024641600C3074
:10B32000D360906009488069002803D03022FFF77D
:10B33000BFFE00E01361064801682168016005490D
:10B340000120086110BD0000BC060020A0140020F0
:10B35000C00000200014006010B5064800891130BC
:10B3600080B201F0D5FF044801210068603001710E
:10B3700010BD0000A0140020D8060020F8B5124C23
:10B380002422A17A1148FDF7BEF9114A0023116861
:10B390000D4654354B658D650835CB650D661946F0
:10B3A00001270DE024260D46754347552D182B62C5
:10B3B0001668366E356020351668491CC9B2356688
:10B3C000A57A8D42EED8F8BDA0140020C806002052
:10B3D000D806002080B500BF00BF024A1100182027
:10B3E000ABBEFBE72600020008B50346262100207D
:10B3F000009102460221F6F79AFCC01C01D0002001
:10B4000008BD812008BD08B500210B46009101460A
:10B4100026220220F6F770FC002800D0812008BD0B
:10B4200030B401240023002908D9D55C854201D01D
:10B43000002403E05B1CDBB28B42F6D3204630BC19
:10B44000704710B501F078FF10BD000010B5040082
:10B450001FD0207D102802D080281AD111E0208A28
:10B460000E4988420DD1206A002812D00C498288EA
:10B47000C97AC908491C8A420BD380680021F9F7B0
:10B4800077FFA0782421084205D06078C01F0A28E1
:10B4900001D3822010BD002010BD0000292B000028
:10B4A000A014002010B501F05DFF0549884201D1CC
:10B4B000002010BD0349C0000968C96E081810BDFE
:10B4C000FFFF0000D806002070B50D46044600F0CE
:10B4D00014F86168C98A002908D06288801A081A9D
:10B4E000401E80B2A84206D2852070BD0020FFF722
:10B4F0003BFA8442F8D1002070BD10B501780029D4
:10B5000003D0022901D0408810BD01F0E3FD10BD39
:10B5100070B50E460446FFF7F2F900280ED020461B
:10B5200001F036FF002808D13046FFF7BBFF0500C9
:10B5300002D02878022803D0822070BD852070BDFB
:10B540003146002001F05AFF002815D00121FFF7F5
:10B55000BBFF0028F3D12846FFF7CFFF0546FFF7D2
:10B56000A1FF01466D1CAAB223460420FFF722FA70
:10B57000A84203D0872070BD862070BD207D102892
:10B5800009D1208A0849884205D1A0690021828812
:10B590008068F9F7EDFE0548022200686030017905
:10B5A00011430171002070BD02290000D80600205F
:10B5B00010B50446FFF7A3F9002809D02046FFF78D
:10B5C00071FF002802D00178022903D0822010BD2B
:10B5D000852010BD01F07EFD0146204601F080FD72
:10B5E0000448022200686030017911430171002093
:10B5F00010BD0000D80600200EB507A10968019112
:10B6000000210346054802910091006802AA01A9A1
:10B610001830FEF71BFD0EBD01000000B006002033
:10B620000D480021026852070DD5026804239A4391
:10B630000260026808231A43026004E0491C0529DD
:10B6400001DD0020704742689207F7D54168C907BD
:10B65000FCD0806880B270470000604870B588B048
:10B6600016460C460546102200216846F9F780FE72
:10B67000032221466846F9F775FE04AA6946284662
:10B6800001F082F8032204A93046F9F76BFE08B0F6
:10B6900070BDF8B507460E4605460837F7F74BF973
:10B6A000009129780446491DC840C008301A06B2E6
:10B6B000387B761E002802D03846F6F7DFFD2A7860
:10B6C0003046F117083201F0AFFE009B02194B41E2
:10B6D0003846F6F76BFDC0B2F8BD000000B507486C
:10B6E00000684830807CC10601D5012000BD80067D
:10B6F00001D5032000BDFCF7A9F800BDCC06002051
:10B70000132809D0152809D01D2809D0122809D0DE
:10B71000102809D00520704700207047042070478A
:10B72000012070470220704703207047FFB585B0A5
:10B730000F461E46154601210220119C01F086FE8F
:10B74000002807D168460599018047800571042DBE
:10B7500002D9122009B0F0BDC6710E9901720622FD
:10B7600009300F99F9F7FEFD68461099417184710F
:10B770000079012804D0042802D0032CE9D807E07E
:10B780006946097A012901D00029E2D1012810D0A7
:10B79000684601880E4A084620389042D9D2684649
:10B7A00040882028D5D3012292039042D1D88142EB
:10B7B000CFD80120C0466946C9798142C9D86846B8
:10B7C00040794007C5D0684601F04EFEC2E7000050
:10B7D000E13F0000F8B50F4605461F2801D930208B
:10B7E000F8BDFFF723FB044601F0A4FE0E4E3046E1
:10B7F00001F0C0FEF11C88420CD101F0DBFEFF28F5
:10B800000FD0FF340134FF22093261685043081819
:10B810008030C6833B462A460021304601F0E8FED0
:10B82000F8BD0120F8BD0000FCFF0000F8B50F4690
:10B8300005461F2801D93020F8BDFFF7F7FA044666
:10B8400001F078FE0D4E304601F094FEF11C884266
:10B850000CD101F0AFFEFF280ED0FF340134FF22DF
:10B8600009326168504308188030C6833A46294639
:10B87000304601F0FDFEF8BD0120F8BDFCFF0000E0
:10B8800070B5024628480024007F884201D88220F3
:10B8900070BD2648002A0068406D02D01422514332
:10B8A000401841788A06D30FCA060907D20FC90F7C
:10B8B000002B02D0002A02D103E0002901D0002091
:10B8C00070BD0289466805783146104601F010FFC8
:10B8D0001749884204D030188078410709D50AE01A
:10B8E000002D1ED0012D04D0022D02D0032D0AD12F
:10B8F00017E0D42415E0002D07D0012D08D0022D2B
:10B900000BD0032D01D012240BE08007F1D108E009
:10B910008007800F0128ECD103E08007800F022808
:10B92000E7D1204670BD0000A0140020CC06002006
:10B93000FFFF000010B504460121022001F086FD42
:10B94000002804D1012C03D0002C01D0122010BDFE
:10B95000204601F0E5FE10BD70B5234D0346286872
:10B960000029446D02D014214A43A4182178012BE8
:10B970001CD0A178890716D50021FCF7F8F91B48DF
:10B980000225006880304078C0070CD018481B2280
:10B990000068002380692946FCF714FA010002D0F0
:10B9A0002846FCF769FA0020A07070BD002300292A
:10B9B0000ED0012902D002290AD105E0A078022187
:10B9C0000843A0700B4B03E0A07804210843A0704B
:10B9D000A07861780843A070002BE6D001220021F6
:10B9E0002868FDF740FC70BDCC060020BC06002096
:10B9F000C006002020BF020070B5044600200346A8
:10BA00000B4E0C4D0EE01846FDF7D4FDC08EA04243
:10BA100005D1B44203D01846FDF7CCFD70BD00201F
:10BA20005B1CDBB229682031097D9942EBD870BDDF
:10BA3000FFFF0000B006002010B5FFF749FC407979
:10BA400010BD10B5012100F055F900880006C00FA7
:10BA500010BD0000F8B50C46C16F10260A04218AFB
:10BA600001D5A57C10E0E2888030521A408D95B255
:10BA7000A84205D20546E07C4006400EE07403E093
:10BA80002068002800D10026002904D1207B8007EF
:10BA900001D5022000E00120CF060643FF0EE81981
:10BAA00082B20B48A16900688030C06C001D01F0B3
:10BAB00053FE60610648A57400688030C16CB81CF4
:10BAC0000E54034800688030C06CFF1CC555F8BD9B
:10BAD000BC06002010B500F07DF80078C007C00F4C
:10BAE00010BD10B500F0F1F810BD10B50C46FDF713
:10BAF00061FDA10008188030406910BD10B500F04C
:10BB000069F8017810221143017010BDF8B51E4686
:10BB10000D4607461446FDF74DFD4019A030047050
:10BB20002946384600F056F80178DF221140F20726
:10BB3000920E1143012211430170F8BD10B5024964
:10BB40000620FFF76DFB10BD592D051038B589068D
:10BB500012D50446FFF7A0FA028B69460A80408B93
:10BB60004880E08E009901F01BFE3A2804D0803412
:10BB7000206820218843206038BD00B5FDF71AFDFC
:10BB8000A030C17949084900C17100BD00B5FDF779
:10BB900011FDA030C17901221143C17100BD00B572
:10BBA000FDF708FD7C3000BD10B5002100F0A2F8C3
:10BBB0000088C007C00F10BD10B5012100F09AF831
:10BBC00000888007800F10BD002801D0002070473A
:10BBD0000120704710B50C46FDF7ECFC00199C30B5
:10BBE00010BD00B5FDF7E6FC2D30007800BD00006B
:10BBF00070B5C17C04464906490EC1740A489025B7
:10BC000000680123002200692946FCF7DBF80100E7
:10BC100003D028464C60FCF72FF904480068C03078
:10BC2000417A491C417270BDC0060020BC0600204C
:10BC300038B50D4949220968D2008031C96D6B467B
:10BC400054581522520189180D780246294620467B
:10BC500001F0CEFD012805D168460278294620462C
:10BC600001F0FAFD38BD0000BC06002010B5C41D6F
:10BC7000F934217901290AD02030017C0448006878
:10BC8000F030FCF774F8002020806080207110BD37
:10BC9000BC06002000B5FDF78DFC0021203041736B
:10BCA00000BD00B5FDF786FC00212030017300BD0A
:10BCB00030B47446641E2578641CAB4200D21D4625
:10BCC000635D5B00E31830BC184710B50C46FDF708
:10BCD00071FC0019A030007810BD0000192804D8AC
:10BCE000410040180249085C704716207047000068
:10BCF00089AA041000B50B46FDF75CFC99000818F2
:10BD00008030406800BD10B5FDF7FCFC0078C0072E
:10BD1000C00F10BD10B50C460121FFF7EBFF0188E5
:10BD20008A089200A107890F0A43028010BD70B5EE
:10BD30000124054601290ED0FDF7E9FC002831D089
:10BD400001212846FDF7BCFD0646284601F012FEFB
:10BD5000042E09D106E00121FFF7BCFE002821D006
:10BD600002241FE000281DD001220021284601F0F6
:10BD700008FE00280FD000212846FFF7ABFE002860
:10BD80000DD00021284601F0B2FE002801D0052484
:10BD900005E0022403E000212846FDF7C7FC284601
:10BDA00001F0ACFE204670BDF8B50C4605460226F3
:10BDB000FFF710FF0078C006C70F2846FFF7FCFE0C
:10BDC000002F39D0002837D1012221462846FDF71F
:10BDD000B7FC002830D1FF222146284601F096FE0C
:10BDE000002829D121462846FFF76FFF00F0B1F85F
:10BDF000064601212846FDF799FC03460622214606
:10BE00002846B04721462846FFF764FE002812D096
:10BE100028462146FFF7DEFE0178EF22114001702F
:10BE2000FF222146284601F087FE01212846FFF720
:10BE300071FF032600E001263046F8BD70B50E46BE
:10BE400005460324FFF7B8FE03282DD131462846C6
:10BE5000FFF73BFF00F07DF8044600231A46314609
:10BE60002846A04702463146284601F065FE0021DB
:10BE70002846FFF74FFF31462846FFF72BFE0028E4
:10BE800011D03146284601F032FE002801D00524A9
:10BE90000AE031462846FDF70BFDFF2801D00424B7
:10BEA00002E0022400E00124204670BDF8B50D46F2
:10BEB00007460424FDF72BFC002841D00322294625
:10BEC000384601F05EFD00281AD029463846FFF7B3
:10BED00001FE00280FD02946384601F008FE002850
:10BEE00001D0052408E029463846FDF7E1FCFF288B
:10BEF00002D1022400E00124384601F0FFFD1FE0DA
:10BF0000384601F037FD06462846FFF75DFE054638
:10BF100001463846FDF7D4FC002E05D1042808D090
:10BF2000002D01D1012804D000213846FDF7FEFB89
:10BF3000E2E73846FDF7E6FB018804221143018061
:10BF40002046F8BD10B501F000FE00788007C00F54
:10BF500010BD10B50446142809D0152C07D0162C96
:10BF600005D0FFF799F84069A100405810BD0020A6
:10BF700010BD10B501F0E9FD00784007C00F10BDFD
:10BF800010B501F0E2FD0178FB221140017001784B
:10BF9000FD221140017010BDFEB513460C46FDF7A1
:10BFA00009FB0546C03006795C400021FF220232C1
:10BFB00020461040E7091740C00138435200274689
:10BFC00017407F013843670917403843520027461E
:10BFD0001740FF003843E708174038432746520010
:10BFE00017407F00640838431440204302011018B2
:10BFF000C018491CC9B284B20329D7D35C4020467B
:10C0000000F044F8294620314B7F502253431E4A0A
:10C010009B189C469B681F0C6B461F7063469B6871
:10C020001F0E6B465F704B7F50277B439B18DF686A
:10C030006B469F704B7F50277B439B18DB681F0A22
:10C040006B46DF70497F502359438918C9686B4696
:10C050008902890E1971C108CB006A46C31A5B07B1
:10C06000515C5B0F01229A4011420BD13046604374
:10C07000000C002E03D03146F6F732FE0846281891
:10C08000C0304079FEBD0000000100200549252296
:10C090004143090C5143401A80B2252800D325386A
:10C0A000C0B27047EB06000089084143880C401C71
:10C0B000704770B514460D46FFF700F930C070BDEB
:10C0C000F1B5AEB001200890FFF702F9012600900B
:10C0D00006730020D24D0E90296840310872FFF798
:10C0E000EDF82D68044654356E7128790009000773
:10C0F000000F28712E98C00919D02E98FF2823D040
:10C100004006400E2E902C21484306192E9FF6F72C
:10C11000EAF83168081AFF382D2805D501200E905D
:10C120000098002101730AE10098002101732E9804
:10C13000FF2809D02C214843001901210175817C79
:10C14000082901D10421817460210FA8F5F75EFE52
:10C15000182127A8F5F75AFE0898962148430B9016
:10C16000F6F7C1F80B9940180022174607904CE0EB
:10C170002C2078430619B17C0E20014225D00420E2
:10C18000B07433680799184601F0E4FC00280ED11A
:10C190000798F269C11AF0689047318A091831820C
:10C1A000317D0818FF2800D9FF2030750122B37DAA
:10C1B00001209C46737D317D9840634699408842BA
:10C1C00000D90846BB000FA9C850B07C30230146F7
:10C1D000C907C90F1840099100280BD0B16A00297E
:10C1E00001D0F06888470020B074F074BA000FA93D
:10C1F000885001220998002803D00020BB000FA915
:10C20000C85027A8C7557F1CFFB28648C17AB942DB
:10C21000AED8002AA4D1511E009A0B919160FF2143
:10C2200000230A9180E07046C01A401EC0B281000F
:10C230000FAE0246715819E0401EC0B287000FAE23
:10C24000F659B4468E4211D38C450DD12C26564357
:10C25000371927AE0297365C2C277E43029F36198A
:10C26000BF7DB67DB74201D8024661460028E3D1C2
:10C2700000295FD0002B10D001200C9027A8815CF2
:10C280002C267143091904910E68496871180291AE
:10C290007146491E634ECFB215E027A8805C0A9014
:10C2A00010462C21484300191FE027A8C15D2C200F
:10C2B000414308190068029901F04CFC002800D1A4
:10C2C0000C907F1EFFB2F07AC01A401EB842ECD329
:10C2D0000C9800280BD027A8805C0A90049801686D
:10C2E0000B98411A00988160049800680B9027A869
:10C2F000815C099196000FA84A498759C97ABE46C0
:10C30000CF1AB900091880398C46C96F815127A806
:10C3100038182038C67F27A98E540999C1777746E7
:10C3200061465B1CDBB2CF673E48C17A8E469942BC
:10C3300000D978E70A982C2148430A9F0619032060
:10C340004007826908210A438261FEF7C1FF044663
:10C35000FF2F53D00820B0743068039020606771BD
:10C36000326A7168F06890472F484169012292074C
:10C370001143416141687A06C909C901520E11434E
:10C3800041604168802211434160F07C8007C11701
:10C390000E98491C00280DD0F6F7EBFB0120207108
:10C3A00028790107F07C090F0001014329710398E6
:10C3B00028602EE001220398F5F71BFF0028EDD03E
:10C3C000089840000890102800D27DE61748A12563
:10C3D0000068062601230D2240692946FBF7F2FC7E
:10C3E000040016D00021267161710A46A01DF8F7DD
:10C3F000B9FF21462846FBF73FFD0AE0F5F76EFE40
:10C400000948426880218A434260FF206071002011
:10C410002071034901200968403108722FB0F0BD36
:10C42000BC060020A0140020C0000020C006002090
:10C430000021002804D0491C006889B20028FAD1E4
:10C440004805000C7047000070B5114A01231268BE
:10C45000834312689B00491E81249B184909491C8B
:10C4600089B272B615898D420ED31E885B88AD19CC
:10C47000ADB25B18AB4207D88000135A00245B189A
:10C4800013521089401A108162B6204670BD000018
:10C49000C406002030B400230C1E22D020339BB2EF
:10C4A00093421AD30A68002A39D072B60388002B47
:10C4B00003D044689B00E3581A60002393800488EB
:10C4C000641CA5B205804468AD0062511268002A60
:10C4D000F4D162B60020086021E00C46096800290A
:10C4E000DCD1D11A0904114A49098918090C72B61C
:10C4F00002888A420ED9511A8AB2511E89B201802D
:10C50000436890001858002905D089005A58002126
:10C51000116000E0002062B62060002802D030BC2C
:10C520000020704730BC86207047000000F8FFFFF5
:10C5300010B5CEB00024FF224194429443940532BA
:10C54000214668464494F8F713FF6846047141A8F1
:10C550000290102009903790684601F000FB0120FE
:10C5600001F017FB06E00146684601F017FB204684
:10C57000FEF7E6F90400F6D140A80288002A06D0AA
:10C58000202069460871684638A901F05DFB4DAA74
:10C5900049A9684601F09AFC0123102249A945A83F
:10C5A00001F0CAFC0A4C1022216845A88B31F8F72B
:10C5B000E9FE002809D02068102245A98B30F8F741
:10C5C000D1FE00210348FBF79BFC4EB010BD0000DC
:10C5D000D8060020D57A05108068007B70470000DF
:10C5E000F0B585B00F460546002069468880A868EA
:10C5F000067B304600F072F80446E888B988884225
:10C6000024D80E2C22D2601E022801D9072C0BD16F
:10C61000284604AA03A901F0C0FC69468889098A52
:10C6200088420CD800280AD015496000085A010633
:10C6300009D580218843E988814207D11BE06946FA
:10C640008880012403E0E988814214D20424700622
:10C650000ED41E2E0CD0F888052100F006FEB8601E
:10C66000031E0AD0684681882246304600F036FE16
:10C67000862005B0F0BD0020FBE78820F9E7000028
:10C680003C63051070B506468068047BB088FDF7F2
:10C690000BFC054660061BD41E2C19D0162C06D0A8
:10C6A000204600F01BF80E2803D3862070BDF188C9
:10C6B00006E041000848405AA988884200D2014655
:10C6C000B08800F0D2FDA860002803D1882070BD9A
:10C6D0000020A860002070BD5863051000B5102828
:10C6E0002AD00BDC801E0300FFF7E2FA0D18161AA1
:10C6F000161C161E16201622162416001E2827D0D9
:10C7000006DC12281AD016281ED0182804D11DE0E5
:10C71000522815D0D22815D00E2000BD002000BD13
:10C72000012000BD022000BD032000BD042000BD8B
:10C73000052000BD062000BD072000BD082000BD6B
:10C74000092000BD0A2000BD0B2000BD0C2000BD4B
:10C750000D2000BD10B504468068002813D0C288A3
:10C760000021121D806892B2FDF704FBA068FBF760
:10C77000AFFBE188002001F021FC60884008400008
:10C7800060800020A06010BD10B5002401F026FCE0
:10C79000204610BD0149002008707047F9060020AE
:10C7A00038B550210091074C0346002211462078ED
:10C7B000F5F7BDFAC01C03D001202070002038BD61
:10C7C000B32038BDF9060020FFB5002583B01C4614
:10C7D00016460F46002A07D0012F05D1039840794D
:10C7E0008009012800D10125124900200870204647
:10C7F0001E3001902030009014E0002D04D00199EB
:10C80000039801F02AFC0BE0002E04D16078C007E9
:10C81000C00FB84206D1062203990098F8F7B2FD7E
:10C82000002805D02046FFF7BBFF0028E5D0B32045
:10C8300007B0F0BDF9060020F8B5002425462646CD
:10C8400000231A46194628460096F5F770FA012586
:10C85000C01C02D0641CE4B2F2E72046F8BD10B55B
:10C860001C4613460A468068214601F007FC10BDAD
:10C87000024610B50A480024006840304078107025
:10C88000002804D0012806D01F24204610BD0846E9
:10C8900001F028FCF9E7084601F02EFCF5E700005E
:10C8A000D006002070B50D46064601460620FDF76D
:10C8B00095FA040005D000213046FBF7A7FD20467D
:10C8C00070BD2889FBF7BEFB02460021024B0846DB
:10C8D000FBF7DAFBF3E70000307500001CB507A298
:10C8E00012680B460192014600220548009200683A
:10C8F00001AA20310830FDF7A9FB1CBD0100000092
:10C90000B006002030B5A5B004465022002110A882
:10C91000F8F72EFD002110A80170417860780622FA
:10C92000C007C00F014310A84170A11C3E30F8F7AA
:10C9300019FD217F10A8C170607F404DC0066D4475
:10C9400019D520464030827C10A90A71C07C4871FC
:10C95000214611A808224A310230F8F703FD21468A
:10C9600010223A312846F8F7FDFC10A948788021BA
:10C97000084310A94870E07A010707D510A988700C
:10C98000214610222A312846F8F7ECFCA07F052129
:10C9900008420BD021460222203121A8F8F7E2FC00
:10C9A00010A948781021084310A94870607F8006BC
:10C9B0000CD5214617A8102254310230F8F7D2FCCA
:10C9C00010A948782021084310A94870607F4006CC
:10C9D0000CD521461BA8102264310230F8F7C2FCA6
:10C9E00010A948784021084310A948702089810483
:10C9F00003D510A94878022104E0400405D510A908
:10CA000048780421084310A948702089000405D5FE
:10CA100010A948780821084310A94870206922907D
:10CA200060692390402214A96846F5F755F810ADC7
:10CA30000FCD01F06BFB25B030BD00004E000000B3
:10CA400010B501686031097DCA070168897A0ED086
:10CA5000B02909D3F02907D806490A6840329179EC
:10CA60008B0701D0491E9171C046C04610BDA02958
:10CA7000F0D2F9E7D0060020F8B51D4604460123A0
:10CA800016460F46C00603D51F22BF20044008E00B
:10CA90000F48006880304078800701D40020F8BD3E
:10CAA0001C222007000F032810D20A4980000968C1
:10CAB000401800692146FBF785F9010006D08F80F8
:10CAC0008E71CD712046FBF7D7F9E7E70720F8BD57
:10CAD000BC060020C006002070B5044601230D46A8
:10CAE000C00603D52122BF20044008E00E4800689C
:10CAF00080304078000701D4002070BD1E2220073E
:10CB0000000F03280ED20949800009684018006907
:10CB10002146FBF757F9010004D08D802046FBF732
:10CB2000ABF9E9E7072070BDBC060020C006002075
:10CB300010B51C4613460A468068214601F06FFB7B
:10CB400010BD10B5806801F09BFB10BD01468968DF
:10CB500000204A7B042A05D88A7B012A02D8CA7B96
:10CB6000920701D50A207047054A097C12682032D5
:10CB7000927E914201D31029F5D90620704700001A
:10CB8000D0060020C007C907C00F490F0843D107CE
:10CB9000090F0843D907C90E0843704770B504460A
:10CBA0000C480025006806228030006BA11C4678E6
:10CBB000801CF8F7E7FB002809D16078C007C00F98
:10CBC000B04204D1207E0121084320760D4628463C
:10CBD00070BD0000D006002010B58268527B4A76F6
:10CBE0008268927B012A03D10A7E02231A430A76C5
:10CBF0001A4B82681B68D27BA0331A758468647CE8
:10CC00005C758468A47C9C758B7ED407E40F2343F9
:10CC10008B76CB7E042422401343CB768268127C31
:10CC20000A777422525CD20712D08B7F0522DC086F
:10CC3000E4008C7783689B7C5B075B0F23438B77D7
:10CC400080680830801800794007400F487710BD91
:10CC5000836806225B7C5B075B0FF0E7D006002051
:10CC6000F8B50446002501F047FB862803D0E07F95
:10CC7000022802D023E0E57F21E01448006840301C
:10CC8000007800281DD020890226070510483F0D96
:10CC9000006801238030407840070CD50D481D22E4
:10CCA000006831468069FBF78DF8010003D08F8062
:10CCB0003046FBF7E1F8E07EEF210840E0762846B9
:10CCC000F8BDE07E10210843F8E70000D006002000
:10CCD000BC060020C0060020F0B50724059E069D76
:10CCE000C480846844272173094C81682468D20772
:10CCF0003F5D4F738168D20F8A7381682034CB7394
:10CD00008168E27E0A7481684E7480688574F0BD23
:10CD1000D0060020F0B59BB015460E4604463C22D6
:10CD200000216846F8F724FB1022314604A8F8F7E2
:10CD300019FBE07F4C4E022802D0032806D00BE0FE
:10CD40003068C16B684600F091F805E03168102248
:10CD500068464831F8F706FB012008A90870607E94
:10CD60004870207E8007C00F887030680146A0316F
:10CD70000A460B7D08A9CB70237F0B71537D4B7145
:10CD8000937D8B710223CB7144210B5C08A90B723C
:10CD9000217E2030CB07DB0F08A94B72D27D8A722F
:10CDA000C07EC872607F4007400F0873A07F4007B5
:10CDB000400F48731531481C0E46189001F0F0FAE8
:10CDC000607808A9C007C00F88730BA8033006223B
:10CDD000A11C0746F8F7C6FA11A809A907220130D5
:10CDE0000331F8F7BFFA0FAC0722A01C08A9F8F727
:10CDF000B9FA01223146601CF8F7B4FA0BA90122F6
:10CE00000FA80231F8F7AEFA0020694613AE0A18EF
:10CE1000127C235C5A403254401CC0B21028F6D316
:10CE20002A4631466846FFF7AFFC102200210FA8C2
:10CE3000F8F79EFA06223946A01DF8F793FA062263
:10CE40000FA81899F8F78EFA0021685C625C5040D0
:10CE50007054491CC9B21029F7D32A4613A9684651
:10CE6000FFF792FC1BB0F0BDD006002001700A0A4B
:10CE700042700A0C8270090EC17070477FB5164669
:10CE800004461D46082202A8F8F76CFA082231462B
:10CE90006846F8F767FA2A4669462046FFF774FCA9
:10CEA0007FBD70B51C461546002908D10089202297
:10CEB0000105090D0020FDF7C7FE010009D0022081
:10CEC000C88088680573886844730620FCF786FF6D
:10CED00070BD882070BD0000F8B50C4E0546306866
:10CEE0000068C0462F0504463F0D0CE0A088256869
:10CEF000B84207D121463068FAF74BFD01212046A0
:10CF0000FBF784FA2C46002CF0D1F8BDD0060020A7
:10CF1000F8B5002407460126354D00940CE080301A
:10CF2000C16AE000801C08180622B91CF8F72AFA2A
:10CF3000002824D0641CE4B228684521095CA14281
:10CF4000EDD802464032517903293ED0491C517137
:10CF50002868E6008030C16AB01C08180622B91C97
:10CF6000F8F700FA296880208031C96A641C214BD7
:10CF70008855E2B201210020FBF786F8F8BD286849
:10CF8000E1008030C26A8023505C184350542A6804
:10CF90008032D26A830705D5174BC50712D13043BB
:10CFA00050540FE0C3070AD00223184350542A6894
:10CFB00040088032D26A40005054104B02E03043A7
:10CFC0000F4B5054641CE2B2D4E700248030C06A96
:10CFD000E100415C4906BBD4641CE4B2032CF7D3E6
:10CFE0000121002432460846009BFBF74DF8AFE7CD
:10CFF000D006002088130000580F0200C8AF0000C0
:10D00000983A000010B50948006834300068C046FE
:10D0100008E08168097B4A0603D41E2901D001205B
:10D0200010BD00680028F4D110BD0000D806002013
:10D0300010B500210448FAF763FF862801D00020CC
:10D0400010BD012010BD0000531E041070B50A4D24
:10D05000286834300068C04604460AE02868214643
:10D0600026683430FAF795FC01212046FBF7CEF90B
:10D070003446002CF2D170BDD806002030B50949E5
:10D08000034600200A686821895A07E0C400D56E6B
:10D09000A41C2C5B9C4204D2401C80B28142F5D877
:10D0A000014830BDD8060020FFFF000007490A688C
:10D0B000D16E4032528DD200083A8A18904203D87D
:10D0C000401A4003000C704701487047D806002002
:10D0D000FFFF000010B501F087F9408810BD000087
:10D0E000F8B50E460246FDF757FC050036D0B242B1
:10D0F00034D8AA4232D8104600F034F91849044610
:10D1000088422BD0AE4200D92E46304600F02AF994
:10D110000746144800684030018D491EB94215D9B0
:10D12000781C264685B20BE0C06EE9004118F2007B
:10D1300080180822F8F716F9761C6D1CB6B2ADB24D
:10D14000084868210068095AA942EDD805483A1BE9
:10D1500000684030018D891A491E0185F8BD000024
:10D16000FFFF0000D806002010B501F06DF9054959
:10D17000884205D00449C0000968C96E081810BD6E
:10D18000002010BDFFFF0000D806002030B58BB096
:10D19000044614220F496846F4F79EFC20780025C7
:10D1A000022801D0032812D12046FDF7C9FB041E36
:10D1B0000DD0207802280AD005A9204601F076F982
:10D1C00005A9684601F098F90028EDD125462846C2
:10D1D0000BB030BD485A0510F7B500260778154644
:10D1E0003446324602213B00FEF762FD050404048A
:10D1F0001A061E0002240AE0406803788278DE07DF
:10D2000000D002249B0701D54C231C434678012DF6
:10D210000CD0032D0ED0042D0ED0052D0ED012E013
:10D22000406882780478F1E70E20FEBDA0070AD49A
:10D230000846FEBD200702E0600700E06006002807
:10D2400001DB0320FEBD33462946019801F06BF94E
:10D25000FEBD10B50C4601F09BF9616889698A88AA
:10D260008B68022101F09DF910BD091D8AB210B52D
:10D2700001460020FDF7E8FC10BD000010B5044693
:10D28000084601F085F980000019C1B20448034B3B
:10D2900000220068FBF7E7FF10BD000030750000BA
:10D2A000D80600200C4AC9028918090C72B60288F7
:10D2B0008A420ED9511A8AB2511E89B2018043683E
:10D2C00090001858002905D08900595800220A609A
:10D2D00000E0002062B6704700F8FFFF7FB51C46F3
:10D2E0001546410612D41E2810D0002C0ED0A1687D
:10D2F00001220A73A16802224873A06801A90E30B6
:10D30000F8F730F8A06805740520E0807FBD0000C4
:10D3100010B50446014608220548FBF7F4F901461A
:10D3200004480068C166403044850021018510BD75
:10D33000C8060020D806002010B50446FDF776FD8B
:10D34000FF30FF302A30C079C00701D00C2010BD5B
:10D3500000F0F0F82146024801F036F910BD000057
:10D36000FCFF000010B50446FFF788FE064988421E
:10D3700008D0064A1268D36EC200921C9A5AA24282
:10D3800000D0084610BD0000FFFF0000D8060020B6
:10D3900010B500282DD0017D102902D0802928D178
:10D3A00006E0028A144B9A4202D18269002A20D0F8
:10D3B000827824231A4203D04378DB1F0A2B18D229
:10D3C000102914D1018A29231B02994205D01C1D62
:10D3D000A14202D05C1DA14209D10478012C08D1E0
:10D3E000002A06D1994202D18069002801D000208C
:10D3F00010BD822010BD00000229000010B50446B7
:10D400000846FFF73BFE07490968C96EC2008A5CFF
:10D41000A24202D1C000081810BD0028FCD0401E56
:10D4200080B2F3E7D8060020D2B2203A03D301003D
:10D430009140002070475242D041524220329140E8
:10D440004140D0409040414070470000054A12687A
:10D450002032537D034201D00C20704751750020CB
:10D4600070470000B0060020F8B50446FDF7DEFC6A
:10D47000074600202C4D0090284600F07BF8E91C60
:10D480000026884211D100F095F8FF280BD0FF3715
:10D490000137FF2209327968504308180146C0312C
:10D4A0000E764E7608E00720F8BDFF370137FF22E1
:10D4B000093279685043081801468031CD8305460A
:10D4C0006279A035EA75A2792A760122AA76AE772A
:10D4D00022881202426522791300FEF7E9FB050457
:10D4E000060B20220D00F32205E0FD220A830F49DE
:10D4F000416501E0F2220A83E279DF210A54227AAF
:10D50000E0210A542146227A09315C3001F096F874
:10D51000074800684030407A68760098F8BDF022ED
:10D52000E9E7F522E7E70000FCFF0000DC0500006A
:10D53000BC0600201FB50E4800F01CF80C49C91CA1
:10D54000884211D107216846417100210122817171
:10D55000D20202800171C171017206220930F7F70F
:10D5600007FF6846FFF780FF002004B010BD0000F1
:10D57000FCFF000070B50446FDF758FC0146CB1DCA
:10D580000B250020F933AD014919094A0D7D0BE047
:10D59000FF2109315E68414371188031C98BA14276
:10D5A00000D10246401CC0B28542F1D8104670BD81
:10D5B000FFFF000070B5FDF739FC0146CB1D0B24C1
:10D5C000FF220020F933A40109190C7D0CE0FF2192
:10D5D00009315D68414369188031C98B090B01D05D
:10D5E000024603E0401CC0B28442F0D8104670BD31
:10D5F000F8B51F4616460546FDF718FC04461B48BD
:10D60000854205D002210120FFF720FF00281BD111
:10D610002846FFF7AFFFFF340134FF22093261686B
:10D6200050430C18214630460020C04600280BD13C
:10D630002546C0352879002807D002202876803476
:10D64000E7642685E6850020F8BD287E002805D001
:10D65000C82001593A46A12001F002F8012028769D
:10D660008034A764A684A685EDE70000FCFF0000D7
:10D67000F8B517460E460546FDF7D8FB04461B488D
:10D68000854205D002210120FFF7E0FE00281BD1D2
:10D690002846FFF76FFFFF340134FF22093261682B
:10D6A00050430C18214630460020C04600280BD1BC
:10D6B0002546C0352879002807D0022068768034B6
:10D6C0006765668566860020F8BD687E002805D0FF
:10D6D000D02001593A46A12000F0C2FF012068760F
:10D6E00080342765E6842686EDE70000FCFF000015
:10D6F00030B503460948032B0CD300228C5C022C66
:10D7000003D18D186D78012D05D0521CA21892B24C
:10D710009A42F3D330BD104630BD0000FFFF000039
:10D7200038B50546FFF706FFC046C0460020084C46
:10D730000346009022460121284600F0B7FF054627
:10D74000044801682046893100F03EFF284638BD74
:10D75000FCFF0000BC06002070B50C461F21521EC5
:10D760000A430546521C002011044E0D17D02146D5
:10D7700008316A1A2846002A01DD082A03DB202224
:10D78000F4F710FA04E0082208C9521E08C0FBD1C1
:10D7900020352046761E24683604360CE7D170BD4D
:10D7A00013B5FEF729F9040006D0FF200730005D0D
:10D7B000800603D41A201CBD02201CBD012101A833
:10D7C00001F00EF8010011D16846828820468030B1
:10D7D000038D9A4204D16A46D288C08D824205D018
:10D7E0002034207C019901F021F81CBD08461CBDA5
:10D7F000F0B4CC06E40E0121A14014685268A4469E
:10D8000014020D46EA00083A8658EA00083A12184F
:10D810005268491E1502AC4203D3AC4205D1B4454F
:10D8200003D201250029ECD100E00025481C187026
:10D83000002D03D0002901D100201870100284426D
:10D8400007D1B44505D11878401E1870F0BC0120EE
:10D850007047F0BC00207047CB06DB0E01219940D9
:10D86000F0B4491E0A408C46914224D9624522D226
:10D87000D10009180C460D460B1D083C091F6646D1
:10D88000B71AFE0707D0AE68A6609E688E600831A2
:10D890000833083408357E100DD0AF68A7609F6844
:10D8A0008F602F6927611F690F61103110331034A9
:10D8B0001035761EF1D100236146DB43C900435089
:10D8C00009184B602A490B688033DC6D1523E51D70
:10D8D000FF35FA356E6D5B01864202D0AE6D864231
:10D8E0001ED1E418E4780020002C17D90C6880348D
:10D8F000E46DFF34FF340234E56D282444432C19D1
:10D900002034A579954201D96D1EA5710C68401C83
:10D910008034E46DE418E4788442E7D8F0BC7047C2
:10D92000EE6C864202D02D6D8542F7D1E418E47882
:10D930000020002CF2D90C688034E46DFF34FF34F1
:10D940000234E56D282444432C192034E5799542AE
:10D9500003D9FF2D01D06D1EE5710C68401C803489
:10D96000E46DE418E4788442E5D8F0BC7047000028
:10D97000BC06002010B5FBF7C5FE00784007C00FBD
:10D9800010BDF7B58CB00025164629460C98FBF75C
:10D99000CDFE0746847800880022000A02900D9987
:10D9A0000C98FBF7CDFE0A900D990C98FBF780FFC1
:10D9B000049022460D990C9800F0A8F809900C9854
:10D9C000FBF7F8FD2030007B022801D0012000E0A9
:10D9D000002003900D98FEF7F7F8014607900C9889
:10D9E000FBF766FF019007990C98FBF769FF089019
:10D9F0000998002807D00898042802D10198A0426D
:10DA000001D0042618E00A9800281AD07888079BCD
:10DA1000010A20460C9AFBF76FFF089904290AD1E6
:10DA20000D2C06D0112C04D0072C02D001998C4269
:10DA300001D1002853D1052607990C98FEF745F926
:10DA40003BE00D2C08D0112C06D0072C04D0012E61
:10DA500013D0032E46D042E0032E40D178880D9B90
:10DA6000010A20460C9AFBF747FF05460D990C98D2
:10DA7000FEF72BF9002D21D131E02046029A0399BF
:10DA8000FBF77CFF00282AD0204600F029FF0390F6
:10DA900001210C98FEF71EF8054601210C9800F0B4
:10DAA0002FFF01460398002804D0002D02D0002942
:10DAB00000D002262046FEF711F90125FEF749FAAB
:10DAC000040009D03B4632460D990C98A047024607
:10DAD0000D990C9800F030F80C98FBF773FF28466E
:10DAE0000FB0F0BD0498A042F9D10D99A5E710B58B
:10DAF000FEF770F800784006C00F10BD10B5FBF7B8
:10DB000001FE018804229143018010BD70B50024FC
:10DB10000D460646FF2A0CD0104600F0E1FE002814
:10DB200005D0022229463046FBF70AFE044620466D
:10DB300070BD00F0E5FEF2E770B515460C46FBF748
:10DB400039FD0019A030857070BD00B5FBF732FDBE
:10DB50008E3000BD401AC00F01214840704710B5FB
:10DB6000040007D002230022A16800F0D1FE0100CA
:10DB700003D00CE06120400110BD10202061002086
:10DB8000024683001B19401C5A610428F9DB084631
:10DB900010BD10B5FCF7C2FE10BD000070B5064602
:10DBA000087888B00C46032845D06946204600F026
:10DBB0007DFC6846007C10283DD161886846018361
:10DBC00080891E4A03AD811A90422AD021DC1C4A6A
:10DBD000811A90420AD005DC1A49401A06D0012861
:10DBE00029D103E0012901D0FE2924D106AA02216E
:10DBF000304600F0E9FE2A460221304600F0E4FEFD
:10DC000005AA2146002000F007FF05980188426818
:10DC10000EE0012905D0022903D0032901D00429EF
:10DC200009D106AA0221304600F0CEFE2A46022182
:10DC3000304600F0C9FE08B070BD000001290000A8
:10DC40000228000000280000F7B592B00F4604003B
:10DC500004D0002F06D11498002803DD6120400174
:10DC600015B0F0BD1498002804DB102804DA2079E0
:10DC7000800601D49448F3E72079410701D4810755
:10DC800002D59148401CEBE7402108432071204613
:10DC9000143000250F90143001901EE00026B000D3
:10DCA00004904019C019039000F0EAFE00BA010A7E
:10DCB00003980902C07807AA01430498761C00194A
:10DCC000406941400498042E1150E8DB636A07A8BC
:10DCD000019A0F9900F0DFFE059D2846103005904F
:10DCE00014998842DADB2079800620D400291EDDD1
:10DCF0000026B00004904019C019039000F0C0FE47
:10DD000000BA010A03980902C07807AA01430498DF
:10DD1000761C0019406941400498042E1150E8DB3C
:10DD2000636A07A8019A0F9900F0B5FECAE00020C7
:10DD30000B900C900D900E900BA9636A0846019A07
:10DD400000F0A9FE0B988721C00F48430B990C9A4D
:10DD50004900D20F11430B910C990D9A4900D20F33
:10DD600011430C910D990E9A4900D20F11430D9158
:10DD70000E99149A49004140284610300E91904265
:10DD80001CD10026B00002904019C019049000F088
:10DD900077FE00BA010A04980902C0780BAB014370
:10DDA0000298761C00194269029818584240514066
:10DDB000029807AA1150042EE4DB79E00B98872221
:10DDC000C00F50430B9A0C9B5200DB0F1A430B926F
:10DDD0000C9A0D9B5200DB0F1A430C920D9ACB0F3D
:10DDE00052001A430D924A00424014980E92401B72
:10DDF0000390C017820F039800261018801002901D
:10DE000019E0B00010904019C019049000F038FEDD
:10DE100000BA010A04980902C0780BAB01431098BC
:10DE2000001942691098185842405140109807AAAA
:10DE300011500298761CB042E3DCB00001190BAA25
:10DE400049691258514007AA1150039B00211B1A1F
:10DE500042199C4696460BE072465218BA5CCD00B9
:10DE600018235B1B9A4007AB1D586A401A50491C87
:10DE70008C45F1DC002909D0CD00182107AA4D1BE3
:10DE800013588021A9404B40135005E007A90A58B8
:10DE90000123DB075A400A5007A90BAA05E0B0008E
:10DEA00003195B6915586B400B50761C042EF6DB8A
:10DEB000636A07A8019A0F9900F0EDFD207904210B
:10DEC000084320710020CBE61D0C0000F8B5164673
:10DED0000F46040009D0002E07D025468035E86D96
:10DEE000401E102804D31348F8BD61204001F8BD3E
:10DEF0002079400604D4002211462046FFF7A4FEF4
:10DF00002079022108432071002018210CE0C2175B
:10DF1000920F121892089200121983075269DB0EB1
:10DF2000CB1ADA403A54401CEA6D8242EFDC002002
:10DF30003260F8BD1F0C0000002A2DD010B4540828
:10DF4000002B15D08018491ED20703D04A78401EF6
:10DF50000270491C002C09D002464B78203AD37736
:10DF60008A78801E891C0270641EF5D110BC70472F
:10DF7000401E491ED20703D04A784270401C491CFB
:10DF8000002CF3D04A7842708A788270801C891CF9
:10DF9000641EF7D110BC7047704770B50B4681689E
:10DFA00015460446022218460D31F7F7DBF9A16841
:10DFB000022228460F31F7F7D5F970BD10B5044697
:10DFC000084600F0E5FA80000019C1B20248006876
:10DFD000F9F7CDFE10BD0000D8060020F0B50F46C1
:10DFE000B5B01546002130AA0F23445C5E1A491CC7
:10DFF00094551029F9DB1022694630A800F04FFD36
:10E000000026B400E019401C00F03AFD395D000222
:10E0100008430321891B89002CAC761C6050042E18
:10E02000EFDB214610236A46084600F053FD00202E
:10E030000326311A8900635C8200AB54635A52197B
:10E040001B0A53706358401C1B0C93706158090ED7
:10E05000D1700428EDDB35B0F0BD38B50B46044671
:10E06000C11C6A461846FDF7F9FA032221466846A4
:10E07000F7F788F9002800D0812038BDFFB50446A5
:10E080005009000681B01F46000E06D0002C23D098
:10E09000401E24680006000EF8D1D606F60E17E0E2
:10E0A0002020851BBD4200D33D46A0192A460830DA
:10E0B0000299F7F757F90298711940190290781BE5
:10E0C00087B2A088884201D2A819A08024680026BF
:10E0D000002F04D0002CE3D1812005B0F0BD00203A
:10E0E00005B0F0BD10B5034906220968F7F73AF903
:10E0F00010BD0000B006002010B5034906220968D3
:10E100005E31F7F72FF910BDCC0600200FB470B5C3
:10E1100096B029A80022023002AB11460646FEF74F
:10E1200053FB002852D1502202A91AA8F7F72AF966
:10E1300000285FD00220F3F746FE18A8C17A68468F
:10E14000C07A814242D118A8407AC0060ED46846EF
:10E15000407AC0060AD5022213A92BA8F7F702F9C4
:10E1600018A9487A1021084318A9487218A8407ABB
:10E17000800616D46846407A800612D509A921A8DF
:10E18000102202310230F7F7EDF811A90622023110
:10E190003046F7F7E7F818A9487A2021084318A96C
:10E1A000487218A8407A400610D46846407A400663
:10E1B0000CD50DA925A8102202310230F7F7D2F8AC
:10E1C00018A9487A4021084318A9487218A8407A2B
:10E1D00000090FD00020034650221AA90090F3F73F
:10E1E0008BFD040005D08125601C08D0A01C06D042
:10E1F00006E0002016B070BC08BC04B01847B42577
:10E20000062231466846F7F7ADF8684684716B46DA
:10E2100007220521422000F08FFD2846EAE7F8B5E5
:10E220001D460E466B46002A09D0002824D084885B
:10E23000944204D8121B12040068120CF5D11A8003
:10E24000040019D014E06846A1880088091A8FB22A
:10E25000AF4200D32F4621183A4630460831F7F72F
:10E2600081F8F619E81B85B2246800206946088009
:10E27000002D03D0002CE6D18120F8BD0020F8BD90
:10E28000FFB581B01D466946002A09D000280CD090
:10E290008488944204D8121B12040068120CF5D131
:10E2A0000A80040001D000261FE0184605B0F0BD2A
:10E2B0006846A1880088814213D9091A8FB2AF42FB
:10E2C00000D32F460299201889193A460830F7F7EB
:10E2D00059F80028EAD1F01986B200206946088072
:10E2E00002E0401A694608802468B54201D9002C32
:10E2F000DED1A81B05B0F0BDF0B587B004461C22E6
:10E3000025496846F3F7E8FB217E0322C8438307CB
:10E310002248002B006805D0E37A9C461B0705D5F0
:10E32000CB0701D0E2771FE08907FBD4E17E05230C
:10E33000194215D0637E014640319E000D799E1929
:10E340006F46F619AD5DE577002D0DD165462D07B9
:10E3500008D4012B02D10979012901D0022102E060
:10E36000012100E00421E1772030407EC007C00F8A
:10E3700002D0E07F012806D0E07A000709D5E07FCF
:10E38000022804D005E0E277862007B0F0BD002027
:10E39000E0730020F9E7000084780510D006002023
:10E3A00070B503460F480024006801254830807C82
:10E3B0000A468006800F002804D00D70184600F031
:10E3C000E9FC07E0FDF78AF9002805D0157018462A
:10E3D000FFF792FE204670BD002010701846FFF730
:10E3E00081FEF7E7CC06002070B5044600780228CD
:10E3F00003D0002801D0204670BD2046FEF756FE0F
:10E40000401C81B20F4868230268985A0EE02378B6
:10E41000022B02D0002B10D006E0D36ECD005B5D46
:10E42000022B05D0002B03D0491C89B28842EED8BC
:10E43000D26EC8000838101870BDD36ECD005B5D79
:10E44000F0E70000D8060020FFB50F4681B0154662
:10E45000B84223D8134E31684031098D00291DD0B0
:10E46000FEF70CFE04463846FEF708FE0146326809
:10E470006820805A401E884200D281B220460BE0BC
:10E48000D46EC300E65CAE4204D11B1DE458049B6D
:10E490009C4204D0401C80B28842F1D9024805B0A9
:10E4A000F0BD0000D8060020FFFF000010B50C46AC
:10E4B0001021217401780B00FDF7FAFB05040D1003
:10E4C000141413004068007D012801D0094807E0BA
:10E4D0000520C00204E00748401C01E00548801CFC
:10E4E000A08110BD416814222046091DF6F73AFFAD
:10E4F00010BD00000128000010B5027C0B7C9A4280
:10E5000002D00020C04310BD102A05D0202A06D01A
:10E51000C068C968401A10BD80898989FAE710224D
:10E52000F6F730FF10BDF8B51E4614460D460746F7
:10E53000F9F792FE002812D0384600F035FC052D80
:10E5400013D0012D00D0E408E10702D04107890F64
:10E550000ED0A1070ED501070CD40820F8BD002C61
:10E5600001D00E20F8BD0020F8BDC007F9D1F8BDDC
:10E570000520F8BD6107F6D5C00707D031463846FB
:10E5800000F029FCB628EED10C20F8BD0F20F8BD14
:10E5900000B5FBF789FC002801D0007800BDFF2002
:10E5A00000BD30B504464C436403250C954201D9A7
:10E5B000002030BD4A1E0A43D2B210400446585DC6
:10E5C0004C43E040104030BDF8B50F460546FCF71F
:10E5D0002DFC044600262846FEF7CCFF154988424C
:10E5E00003D1FEF7E7FFFF281FD0FF340134FF22DD
:10E5F0000932616850430C1820468030C583007E84
:10E60000C00703D0C420005D012810D00A480622AC
:10E61000006839468930F6F7A5FE204601223946C2
:10E620006C3000F00BF83046F8BD0720F8BD0C2028
:10E63000F8BD0000FFFF0000BC060020F8B504464E
:10E6400017460D46084600F01BFA0602E81C266035
:10E6500000F016FA0002000A3E4326606060F8BD32
:10E6600070B50446022315460E46C00603D51C228B
:10E67000BF20044000E019222007000F032810D219
:10E68000094980000968401800692146F9F79AFB9A
:10E69000010006D04E6020468D60F9F7EDFB0020AA
:10E6A00070BD072070BD0000C0060020FFB581B01E
:10E6B0001D4606460A9FFCF7B9FB04460020009061
:10E6C000C046C0460298304308D00398FEF752FF78
:10E6D000424988421AD1422005B0F0BDE61D0B2008
:10E6E0000025F936800124180CE0FF2009307168FC
:10E6F00068430818C421095C002901D000F07BFBA5
:10E700006D1CEDB2207DA842EFD80FE0FF3401343C
:10E71000FF220932616850430C18012E08D0C42032
:10E72000005D002802D0204600F065FB0098D3E78A
:10E730002146C03108790028C87F16D0C00709D00B
:10E74000216DE06E0860216D206F4860216DE06CE6
:10E75000E1642065606F0028E8D0F3F7C4FD7D21F7
:10E7600049014D4340196067E0E7C20702D1C04349
:10E77000800705D1E06E002802D1206F00282BD041
:10E7800020468030028BD30702D0838DF52B23D80F
:10E7900012231340022B02D1038E002B08D0120744
:10E7A0000CD50E4BC28BDB1E9A4203D1802505E0AF
:10E7B0000C2091E7802D0FD8002D0DD07D22520125
:10E7C000554365674783002F01D001224A71878333
:10E7D000204600F02DFB7FE712207DE7FFFF0000C1
:10E7E00010B5044600881B38E12807D260880E4A1D
:10E7F000904203D8FF224932904201D2122010BD2C
:10E8000000290ED0FCF748FC01462288008C824289
:10E8100000D2104620806088498C884200D3084688
:10E820006080002010BD000090420000F3B581B070
:10E830000198FAF7BFFE054601210198FDF74AF954
:10E84000002801D03A20FEBDFCF726FC0746C68C06
:10E8500001210198FDF749F904460020C04601282E
:10E8600020D1FF200730405B0105684640890090B9
:10E870000FD5019800F09AFB002813D08079042866
:10E8800010D1A9210901009800F0A8FB6946488130
:10E8900008E0124900F0A6FB694648810F4886420D
:10E8A00000D3064668460189A1804089E080BA8C81
:10E8B0002280668080356A8E2283AA8E6283698672
:10E8C000A88601210198FDF719F9002306220121EC
:10E8D0000198FDF71BF90020FEBD0000480800006C
:10E8E000024610B50020054B01465C5C944201D104
:10E8F000012010BD491C0329F7D310BD86AA0410BE
:10E9000010B5FDF767F900788006C00F10BD000054
:10E91000F8B59E468C46002807D0002905D0590737
:10E920008C0F002A04D1012C02D061204001F8BDD7
:10E93000416A102903D0182901D0202905D1012CC2
:10E9400005D00169491E102901D31E48F8BDC260D7
:10E950000179F92319400171012C20D000210B46C7
:10E960008D002D18491C6B610429F9DB0021182743
:10E9700012E0CB179B0F5B189B089B001D182B46C2
:10E98000143300938B07565CDB0EFB1A6D699E40B7
:10E990003543009B491C1D6003698B42E9DC01790A
:10E9A000C9070CD1614681607146C90701D0032CAB
:10E9B00005D10146426A2831604600F070F8002017
:10E9C000F8BD00001F0C0000F7B5009F0E46FD1DAE
:10E9D000F935E0371CE02A88102A05D1394600981D
:10E9E000FFF732F90020288028881021091A8CB2FC
:10E9F000B44200D33446C01922460299F6F7B2FC5D
:10EA0000029800190290288800192880301B86B2CD
:10EA1000002EE0D1FEBD0000F8B50D46097816467F
:10EA200000240B00FDF744F9050413181D212600EE
:10EA3000124F3968084678314167686800F0D6FAA5
:10EA400001463868702211527030306013E0114670
:10EA5000284600F0E7FA0EE01146284600F026FBB3
:10EA600009E0294600F048FB02E0294600F094FB4B
:10EA7000044600E086242046F8BD0000D8060020A9
:10EA8000C3788278417800781B021A430902120485
:10EA900008431043704700B500F01CF800BDF7B5FF
:10EAA0000298860800240DE00098A7003D1828462B
:10EAB000FFF7E6FF00BA000AE9780002084301996F
:10EAC000641CC851B442EFDB0199029A084600F079
:10EAD00093FBFEBDFFB5D908490083B0891D0291A3
:10EAE0000368116854684B404168956861408468C8
:10EAF000C0686C40A446D4681E0E60408B4CC5B202
:10EB0000A65D655D3606354367460E023F04360E48
:10EB10003F0EA65DE75D36043F023E433543AE46F9
:10EB20000F0EDDB2E75D665D3F063E4365462F0290
:10EB300005043F0E2D0EE75D655D3F042D022F435A
:10EB40003E43CDB20096665D65462F0EE75D1D041F
:10EB50003F063E4307023F0E2D0EE75D655D3F0415
:10EB60002D022F433E4301966546EDB2070E665DCA
:10EB7000E75D0D043F063E431F023F0EE75D2D0E8D
:10EB8000645D3F0424022743029C3E43641E10320E
:10EB90000294002C63DD664C7046204043007046B2
:10EBA0006449C00908401B2148434340704658400F
:10EBB0001821C841434070461021C8414340704667
:10EBC0000821C841434010685A4D43400098594FAE
:10EBD000204041000098C00928401B25684341405F
:10EBE000009818254840E841414000981025E84128
:10EBF000414000980825E84141405068019D41404E
:10EC00000198ED0920403D4040001B277D436840AE
:10EC1000019F05467D401827FD416840019D102752
:10EC2000FD416840019D0827FD41684095686840A6
:10EC30008446304620403F4DF4092C4040001B25BF
:10EC40006C436040044674401825EC416040102439
:10EC50003546E54108246840E64170404BE7334CB7
:10EC6000C5B2665D1D0E645D240626430C02250EAA
:10EC70002E4C645D65462D042F0E2C4D2404ED5D55
:10EC80002D022C432643294C0096DDB2655D0E0E05
:10EC9000A45D2406254364462402260E234CA45D6D
:10ECA0000604370E214E2404F65D36023443254314
:10ECB000AE461E4CCDB2645D65461C4E2F0EF55D12
:10ECC0002D062C4305022F0EF55D1F042E043D0E6C
:10ECD000164F7F5D65463F023E433443EEB2134D0F
:10ECE000AF5D050E1148405D000607431802030E94
:10ECF0000E48C05C09040B0E0C490004C95C936803
:10ED00000902084307431068009E63405168049C51
:10ED10007040D2682060754604986940416004984C
:10ED20007A4083600498C26007B0F0BD4039051096
:10ED30007F7F7F7F01010101FFB50546012381B07F
:10ED400016460F46C00603D51022BF20054000E03E
:10ED50000D222807000F032817D20D4980000968EB
:10ED6000401800692946F9F72DF804000DD02771E5
:10ED700066713246A01D0499F6F7F4FA214628463A
:10ED8000F9F77AF8002005B0F0BD0720FBE7000096
:10ED9000C006002010B50349062209686431F6F761
:10EDA000E1FA10BDCC06002010B50024F9F754FAA2
:10EDB00000280ED00089C10407D50124810401D5A3
:10EDC000032402E0410400D50524000401D40820F6
:10EDD0000443204610BD10B50C46F9F73DFA002853
:10EDE00007D0817A002904D0007FA04201D30020FF
:10EDF00010BDB62010BD70B504460546C034E07E97
:10EE000000F0A2FAE07E00F0ADFAA07E00F09CFADD
:10EE1000A07E00F0A7FA0021217161712C46E03438
:10EE20006078FF2801D0FCF73CFFFF20607070BDC8
:10EE3000F8B504462746E037FF202646787080362E
:10EE4000307EC00704D000F0B9FA7870FF287DD07A
:10EE500000F0D8FA2546C035A876FF28307E77D056
:10EE6000C00604D400F0CEFAE876FF2878D0204619
:10EE70002C30E06410302065E87FC0077AD0E06C69
:10EE8000E16E0160E06C216F4160E06CE16D8160DA
:10EE9000E06C216EC160E87F02280AD3214600227F
:10EEA0005C31E06CC046C046E06C00210830C046D2
:10EEB000C046E06C8168206D8160E06C0168206D67
:10EEC0000160E06CC168206DC160E06C4168206D3C
:10EED0004160606F002804D0F3F705FA616F4118B4
:10EEE0006167012027462871A037F87D00F0AEFA4F
:10EEF0006877012000902346797EA87E143322464D
:10EF000000F0AEFAA87E5021484326494018C16D52
:10EF10003F2212029143272212028918C165A87E5E
:10EF2000502148431F498031401841682522090279
:10EF3000090A120689184160307EC006204620D496
:10EF4000C046C0461FE001E002E009E00C20F8BD29
:10EF5000C00702D07878FCF7A4FE0720F8BD09E0CE
:10EF6000307EC00702D07878FCF79BFEA87E00F0C8
:10EF7000BBFAF2E70C4800220168E06CFFF75EFB89
:10EF800083E700F0BDFAA87EE16F00F00BFBE06FB5
:10EF900000F00EFB012802D0A87EFDF791F80020BA
:10EFA000DCE7000080000020B006002010B5044619
:10EFB0000020C046012801D0002010BD06480521D0
:10EFC0000068C9018030C06D4018006D0E21406995
:10EFD0004C43001910BD0000BC060020884200D838
:10EFE00008467047884200D30846704710B50B4664
:10EFF000027C01460C31102A08D0202A0CD0014690
:10F0000010221846F6F7AEF9102010BD022218465D
:10F01000F6F7A8F9022010BD04221846F6F7A2F967
:10F02000042010BD7FB51F4C064620680D460146E2
:10F030007831416700221C4901207368FBF71CFDF1
:10F0400069460880002824D0FCF72CFAFCF755FA12
:10F050006946088120680222406FF6F783F920682C
:10F060000222406F02A9801CF6F77CF92068042177
:10F070007022115271680A7C102A0ED1406F022250
:10F08000001D0C31F6F76EF920684030018E891CA6
:10F0900002E020680021403001862068703028603E
:10F0A0007FBD0000D8060020FFFF0000F8B5114D1D
:10F0B000044628680E460146783048676168022297
:10F0C0000978017060886946401C08802868406F94
:10F0D000401CF6F747F92868416F6068C91C001D9D
:10F0E000FFF784FF29687022C01C505270313160D4
:10F0F000F8BD0000D8060020F8B5244C0D464B683A
:10F1000021681E7D7031102E0CD11E8A204FBE4208
:10F1100008D11160206801468B31416710214030D1
:10F1200001862FE01B6A002B2ED0116069680A7DD2
:10F13000102A22D1164B0A8A5B1E9A421DD12268E0
:10F14000114678315167012140321186FFF720FACC
:10F15000FF280DD06968096A8B680E49C97ACA0808
:10F160000121521CFFF71DFA21686031087609E081
:10F17000206800216030017604E0086A216870315F
:10F1800000F025FA0020F8BD8420F8BDD806002044
:10F190002A2B0000A014002038B54B689B69002B77
:10F1A00023D0134C2368703313604A68137D102BEF
:10F1B00014D1138A0F4DAB4210D122681346783315
:10F1C0005367022340321386FEF743F869460880EE
:10F1D00020680222406FF6F7C5F804E021689069C4
:10F1E000703100F0F4F9002038BD842038BD0000F3
:10F1F000D806002002290000F0B59208002303E0A1
:10F200009C0005590D515B1C9342F9DB4D4FF81FD3
:10F21000F938042A48D0062A6DD0082A43D10023A1
:10F22000CA6915022D0E140E455D045D2D062C4392
:10F2300015042D0ED2B2455D825C2D0412021543D9
:10F240002C439D007D590A686A40544001225B1C92
:10F250000C62940065180C59EE69521C66402E62CF
:10F26000042AF6DBCA6A150ED4B2455D045D2D068C
:10F270002C4315022D0E1204455D120E825C2D04E6
:10F28000120215430A692C43544005220C63940072
:10F2900065180C59EE69521C66402E62082AF6DB8E
:10F2A0002031072BBCDDF0BD0022CB681D022D0EE6
:10F2B0001C0E455D045D2D062C431D042D0EDBB296
:10F2C000455DC35C2D041B021D432C4395007D59F5
:10F2D0000B686B405C400123521C0C619C0065185C
:10F2E0000C59EE685B1C66402E61042BF6DB103176
:10F2F000092ADADDF0BD0022CB681D022D0E1C0E9E
:10F30000455D045D2D062C431D042D0EDBB2455DCD
:10F31000C35C2D041B021D432C4395007D590B68D3
:10F320006B405C400123521C0C619C0065180C5919
:10F33000EE685B1C66402E61042BF6DB1831092A4F
:10F34000DADDF0BD403A051010B5FF2806D0FBF716
:10F35000B5FF817C082902D01021817410BD2021C5
:10F36000FBE7000010B50446FF2813D072B6F2F791
:10F37000BAFFFF30EC3000F01BF903460D480021C6
:10F38000006802464032117262B6012B03D020465B
:10F39000FCF796FE10BD4164074B07E0147A002C81
:10F3A00001D0117210BD446C641C4464446C9C42D6
:10F3B000F4D310BDBC06002000E2040010B5FF2409
:10F3C0000020FAF7F7F80E49002309682031097D7B
:10F3D00009E0FF2219325A4312182032127B002A08
:10F3E00005D05B1CDBB29942F3D8204610BDFF224A
:10F3F0001C46193253430121181820300173F4E7D9
:10F40000B006002070B5FF250020FBF757FF0E491E
:10F410000024C97A09E072B62C2262431218927C49
:10F42000002A06D062B6641CE4B2A142F3D8284692
:10F4300070BD2C21614301220818827400212546E9
:10F44000816262B6F3E70000A0140020C10701D07A
:10F4500025207047800701D5262070472720704758
:10F46000F8B50446502044431C4816460F461D4636
:10F47000201850220021F5F77BFF18485C3821182E
:10F48000C86D40221043C865144824302018026813
:10F49000134A02604268134B120E1206D2184260E1
:10F4A0008268FB0652095201DB0E1A4382600A6E23
:10F4B0000E664A6E4D66069B8022012B0AD0CB6DEC
:10F4C0009343CB6581683F2212029143FF310131A2
:10F4D0008160F8BDC86D1043C865F8BDDC00002030
:10F4E000D6BE898E5555550010B504460020FBF751
:10F4F000E5FE2C220021544320188174C17410BDF4
:10F50000F0B589B00446FBF791FC2448204B214A12
:10F51000214904AD0FC5626DE06F012600920521FF
:10F5200001AB43C32546C0357D23A87EDB003246B0
:10F53000214600F056F8BA20005D012825D0184F6A
:10F5400000F072F8019000F077F802900096A97E22
:10F550004D232046019A00F073F80097019620464B
:10F56000A97E4D231430029A00F0AEF820462030D8
:10F57000C17820221143C170F2F7B5FEE067002187
:10F58000204600F0EFF809B0F0BD4627D8E70000AC
:10F59000ED7A0510551C05103920051065F704108B
:10F5A000EE02000010B50C46FBF788FE046010BDAB
:10F5B00070B505460024FBF78BFE0179012904D1C3
:10F5C00001682846FEF7C6FA0446204670BD8268E8
:10F5D0004A600278920701D5408800E08088088060
:10F5E0007047F8B51C4615460E460B9FFBF766FEA6
:10F5F000817C012916D144600699816007990160D8
:10F60000089941750999817501210175C5740182B7
:10F610000A990762C1610C9941620D99C6608162C5
:10F6200002218174F8BD0000024800688030C06C7F
:10F6300070470000BC06002010B5FBF7F7FB10BDBB
:10F64000F8B516461D46044614220021069FF5F71C
:10F650008FFE207920210843207121790420014365
:10F6600021712460A6602573290A6173A17B2A0396
:10F6700009090901120F1143A173A17B1022114343
:10F68000A17321794906490E2171E27B02210A43C7
:10F69000E273627902436271607908436071012FFD
:10F6A00008D0A07B40210843A07360794008400047
:10F6B0006071F8BD2079012108432071A07B802171
:10F6C0000843A073F8BD0000F8B516461D46044671
:10F6D00014220021069FF5F74BFE207920210843D4
:10F6E000207120790421084320712460A6602573CD
:10F6F000280A6073A07B290300090001090F084351
:10F70000A073A07B10210843A073607901210843F6
:10F71000607120794006400E2071E07B0222104388
:10F72000E0730E4B18690E4D28403D0228431861C6
:10F73000A07B40231843A073E07B80231843E07331
:10F7400060791043607107980128207902D008433E
:10F750002071F8BD40084000FAE70000C00000201A
:10F76000FF0000F0F0B58BB0002204460892C06F95
:10F77000451806E0616DE06F4018E0670898401C8E
:10F7800008902846E16FFEF7E5F90028F2D12546FA
:10F790008035287E000706D400F0D8F80005E16F18
:10F7A000000D4018E0672746A037F87D2646C107C0
:10F7B0008207C90FD20F89184207D20F8918C036A5
:10F7C000491E3177297E890700D00221A982FFF7DF
:10F7D0003DFE7077B17E50225143584A8918CA6D58
:10F7E0003F231B0280069A43800C0243CA65B07E09
:10F7F0005021484351494018C16D80221143C165D1
:10F800000020B875307E02280BD101203076EA6CDA
:10F81000A96CAA64E88DA885288DA884A120FEF78C
:10F820001FFF707E02280BD1012070766A6D296D52
:10F830002A65688E2886688DE884A120FEF710FF6F
:10F84000616FE06F0A1A688B002802D17379012B6F
:10F8500003D0002A65DA002963D03179002960D00D
:10F86000297E374B090742D536492046096864305E
:10F8700060310A7C920651D54A7ED20717D000210A
:10F880000291039104910591411C0078019100902F
:10F8900018682030007BC00701D0002000E0102055
:10F8A000012300223C21803000F05AF836E0897EA6
:10F8B000890733D5002109910A9104910591069198
:10F8C0000791411C007809AA0292039201910090CD
:10F8D00018682030007BC00701D0002000E0102015
:10F8E000012300223C21803000F080F816E000283F
:10F8F0000CD03C212A7F101AC0B200901868AA7F51
:10F900002030007BC00703D0002002E04321F1E754
:10F910001020A12318430C4B00F0BCF8204600F047
:10F92000EFF8688B401E6883B07EE16FFFF73AFE08
:10F930000020B87508980BB0F0BD000080000020D2
:10F94000B0060020BC060020FF0F000010B5FBF73A
:10F9500067FE0446FBF764FE0004201810BD00009B
:10F96000FFB50646052381B01746C00603D505221C
:10F97000BF20064009E01B4800686030017C890612
:10F980002BD5407EC00728D003223007000F032864
:10F9900026D2154980000968401800693146F8F7F9
:10F9A00011FA04001CD002982071E780049820729C
:10F9B0000A9860722046251D06220A300B99F5F739
:10F9C000D1FC0C98A8810D98E8810E9828820F9898
:10F9D000A87421463046F8F74FFA002005B0F0BD74
:10F9E0000720FBE7BC060020C0060020FFB5064646
:10F9F000082381B01746C00603D50D22BF2006405C
:10FA00000CE0224800686030017C890602D5807EC7
:10FA1000800702D4002005B0F0BD0B223007000F94
:10FA2000032830D21A49800009684018006931461D
:10FA3000F8F7C8F9040026D002982071E7800498EE
:10FA400020720A9860722046251D06220A300B9902
:10FA5000F5F788FC284606220C300C99F5F782FC55
:10FA60002846062212300D99F5F77CFC0E98288363
:10FA70000F9868831098A8831198A877214630467C
:10FA8000F8F7FAF9C6E70720C5E70000BC06002032
:10FA9000C0060020F8B51D460446022316460F4650
:10FAA000C00603D50A22BF2004400BE012480068BC
:10FAB0006030017C890602D5C07E800701D4002019
:10FAC000F8BD08222007000F032812D20B4980003E
:10FAD0000968401800692146F8F774F9010008D058
:10FAE0000F714E71CD80069A0A722046F8F7C4F95C
:10FAF000E5E70720F8BD0000BC060020C006002096
:10FB000070B504460546C034E07EFFF71DFCA07EBC
:10FB1000FFF71AFC0020207160712C46E0346078F9
:10FB2000FF2801D0FCF7BDF8FF20607070BD000019
:10FB3000FFB506469BB0002010901E985021484308
:10FB4000FE4905904718F86D4001400F0790B17BC2
:10FB5000F07B0202307C0304707C000618431043E3
:10FB600008431290B17CF07C0202307D0004104307
:10FB700008431890707D11903046163000F0B4FBA9
:10FB800002903046183000F0AFFB0D9030461A302E
:10FB900000F0AAFB009030461C3000F0A5FB0F904F
:10FBA00030461E3016902320815DC806C00E179087
:10FBB000480903901C98F9F7FDFC044625462035BA
:10FBC0001E9868771C9BE11D2B740022F931CA60D6
:10FBD0000A6120468030E26709900260D848C880F8
:10FBE00018460020C046204600F083FB2046E03047
:10FBF00000211590817717986874FBF74DFA0490EF
:10FC0000CE4905985C31401850220021F5F7B0FB31
:10FC1000F86D40210843F865C849059880314018BF
:10FC20000E9080684109C748490100684030407A19
:10FC3000C006C00E01430E988160F96D07200006D2
:10FC40008143079800060143F965F96D0720000715
:10FC50008143079800070143F96519A800F08EFB5E
:10FC6000079804280CD0122019990A1A25980128FF
:10FC700008D002280ED01D9801281BD088321AE027
:10FC80009D20F1E707983E3A012801D0121D12E0AD
:10FC90000B3216E00E21079800F07CFB121A079831
:10FCA0003E3A042801D014320BE0AF208000B43279
:10FCB000109008E090320798042804D02598002876
:10FCC00003D0022002E0032000E001200299401846
:10FCD00040020B9080180190304608301D99059025
:10FCE000002947D0F96D80208143F96503202873EE
:10FCF00030784006C00F1390B01C06909148006801
:10FD00004030818B0791039800F062FB0799081837
:10FD100080B260850B99FCF7C7F901990D300A1A7A
:10FD2000049943008968E164CB188B4200D9E364ED
:10FD300060640099A18684494843010A1098081814
:10FD400010902264279801680998416727984168B4
:10FD500009988167049800880B90401C80B27B4909
:10FD60000B90884203D94942401880B20B9000237F
:10FD700002902AE0F86D80210843F865022028737C
:10FD80000020039060853178C90913910599069187
:10FD900011990A020199A08652180799042900D1E5
:10FDA000022189000919096DE1646064C9E71846F8
:10FDB000F9F700FCC18E0298814204D1644988425F
:10FDC00001D00B98C9E75B1CDBB2624800682030A9
:10FDD000007D9842EBD804990B9808800B98E08638
:10FDE000584800686030807E80074AD50020139014
:10FDF000149013A8844602901D9801282798007833
:10FE00000FD0C0B2022801D0032801D10598844642
:10FE10003078400615D5F0798009012811D1B01C41
:10FE20000EE0C0B2022801D0032801D1B01C8446E4
:10FE30003078C00905D0707B8009012801D1059870
:10FE40000290039B0D9807930F9A009904AB07C388
:10FE5000279861460378401C9B0701909B0F3D4803
:10FE60000093039100682030007BC00701D0002080
:10FE700000E01020002180301D9B0B9A00F0B6FAA4
:10FE800019E00D9800990290039B0F9A03A80EC0E9
:10FE90001398009006992F48019100682030007B4C
:10FEA000C00701D0002000E01020002180301D9B01
:10FEB0000B9A00F0EFFA26492498C91E884251D0C7
:10FEC0001D9801284ED1234800682030007BC007D0
:10FED00001D0002000E01020A121084300902498C8
:10FEE0000223C0B205900B9803900098C00605D578
:10FEF00000980A22BF21084000900AE011480068DB
:10FF00006030017C89062DD5C07E80072AD50098F7
:10FF100008220007000F032824D281000E48006841
:10FF2000081800690099F7F74DFF01001AD0002268
:10FF30000A71059B4B71039BCB800FE08000002072
:10FF4000FFF70000BC060020E2040000FF0E0000E6
:10FF5000FFFF0000B0060020C00600200A720098D3
:10FF6000F7F78AFF30788006C60F00F0D9FA00282C
:10FF700004D0002E02D02698002802D1259800280F
:10FF800000D00120159901230877A1200090159831
:10FF90000B9E007F0390CB4800686030017C89068F
:10FFA00011D5C07E00070ED5C748152200680099FC
:10FFB0004069F7F707FF010005D08E80039A8A7128
:10FFC0000098F7F759FF03210D9889024843E0652F
:10FFD0000F98000320660020E0870D984002A0647F
:10FFE00001202085099900208884099908770999BA
:10FFF0004877A621085509998968086009994968D0
:020000041005E5
:10000000086068737D2040046066A066204600F0AA
:100010008FFA1C98F9F7CEFA0121FF3001300172F6
:10002000142200212046F5F7A3F91422A01800217C
:1000300000900790F5F79CF9217910200143217178
:10004000207E102108432076E17B02200143E173EA
:10005000E9780143E970E87880210843E870E8789E
:1000600001210843E870E87804210843E870E87843
:1000700040263043E87020462830A060FAF7D6FECC
:10008000801CE0612460079860614D202870002189
:100090006970A97809090901A970207300206073AB
:1000A000A07B00090001A073207930432071207EDD
:1000B00030432076607E012108436076A8781021C5
:1000C0000843A870A07B0843A0731D98002817D090
:1000D000A8783043A870E87820210843E870207E93
:1000E000012108432076207E80210843207677492D
:1000F000119848431099401810901198608622E09A
:100100002079012108432071207980210843207142
:100110000020C046012805D00120400711D5FF204E
:1001200091300FE0674805210068C9018030C06D3B
:100130000E224018006D41691C985043C01D085C98
:10014000EBE7FA2010900720E8732179042001439F
:100150002171217E014321766179014361716179C9
:10016000022001436171617E014361760998109913
:10017000C16657490869574A1040109A120312097C
:10018000104308610120C04601280E9849D04068FC
:100190001F210002000A090641180E9841600E98BE
:1001A0008068169980B24A780B78110219430904C5
:1001B00008430E9988601698801CFEF761FC0E9922
:1001C0008002C968800A890D890508430E99C860B4
:1001D000F86D80098001F8650E9800680E991298F4
:1001E000086015983F26007F360200281ED0169919
:1001F0001C9800F0B1F912981299000C484082B294
:1002000000211C98FBF7C8FE0E9989680E9AB1432D
:100210009160F96D800689098901800E0143F965B5
:1002200010E04168FF2000060143B6E7F86D800941
:100230008001F8650E9880681799B0430902084359
:100240000E9988600E984068010E189809060143BF
:100250000E984160386E3C66786E00987866E16C66
:10026000A06C814200D9E064287C00F0A1F9E16C27
:10027000091AE1641D98002821D00222A87BEB7B9B
:10028000099D29671D99002904D01099099DFF3106
:100290005F3129671349124D04910F4F0F4E05A985
:1002A000E0C1256CA16C029000910998019503931F
:1002B000036F21461E9800F09FF91FB0F0BD052284
:1002C000DCE70000BC060020C0060020E2040000BD
:1002D000C0000020FF0000F0E17A051089630510DE
:1002E000D95D05101D100510017840780002084303
:1002F0007047F8B504462030027CFAF7CDFE05467B
:10030000002637461046FEF751FE002807D08179B7
:10031000042900D10126C079042800D10127012039
:10032000C046FF21A92249311201803401280FD192
:10033000288B1B2808D1002E03D0E88B904203D1D4
:1003400006E0A88B884203D0206820231843206051
:100350001B202085A085002E0DD01346E385002F9D
:1003600000D01146218660856086A386E88CE086F1
:1003700021876387F8BD0B46F0E7000004490A684F
:10038000126C02600868FF300130007E7047000088
:10039000BC060020042807D0012809D007484143A3
:1003A00007480818000A7047064841430648F8E71E
:1003B000FF20A43041430548F3E700004703000055
:1003C000C6200000381A0000E926010006120000CD
:1003D0001FB5054C40071ECC03946C460EC4000F9D
:1003E0006946085A04B010BDA8780510FFB5064646
:1003F000082381B01746C00603D50D22BF20064052
:100400000CE0224800686030017C890602D5807EBD
:10041000800702D4002005B0F0BD0B223007000F8A
:10042000032830D21A498000096840180069314613
:10043000F7F7C8FC040026D002982071E7800498E2
:1004400020720A9860722046251D06220A300B99F8
:10045000F4F788FF284606220C300C99F4F782FF47
:100460002846062212300D99F4F77CFF0E98288357
:100470000F9868831098A8831198A8772146304672
:10048000F7F7FAFCC6E70720C5E70000BC06002026
:10049000C0060020FFB50646052381B01746C006FA
:1004A00003D50522BF20064009E01B4800686030E4
:1004B000017C89062BD5407EC00728D00322300757
:1004C000000F032826D215498000096840180069EA
:1004D0003146F7F777FC04001CD002982071E780C2
:1004E000049820720A9860722046251D06220A3060
:1004F0000B99F4F737FF0C98A8810D98E8810E98B6
:1005000028820F98A87421463046F7F7B5FC0020E2
:1005100005B0F0BD0720FBE7BC060020C0060020A8
:1005200010B5FAF783FC0B2189014018407D10BDFE
:10053000828E816C0A3251430901090C054A4B1D18
:10054000934200D31A46FF300130028041800121DE
:1005500001717047B80B0000F3B5F9F72BF80746A7
:10056000C537002319461A464418C034491CC9B27D
:1005700062712529F8D3002200210DE0019D01269A
:10058000AD5C8E403540CD4002D0FC545B1CDBB2EC
:10059000491CC9B2082903D2D4006418252CEDD314
:1005A000521CD2B2052AE7D3C0300371FCBD000053
:1005B00070B5F8F7FFFF3D21095C502251430D4A09
:1005C0008918CA6DC96D5201520F044649004D0F7A
:1005D0008034618D104600F029F80646A18D28462A
:1005E00000F024F8218E80B2884200D308463018EB
:1005F000B93070BD80000020F8B51C4615460E4687
:100600000C9FFAF75BFEC66007990160069944608B
:100610008160C57408994175099981750A99C1610C
:100620000B99476201620D998162F8BD10B50128EE
:1006300014D004280AD0C90006280CD07031080252
:10064000FF3008490130F2F74BFB10BD88013D2116
:1006500009014118F3E7FF31C431F0E789003C316B
:10066000EDE7000071020000F0B5044693B00020F1
:10067000069004900A90FE48FE490068014000D0B0
:1006800001218C460122E16FD2039143E21DF93230
:10069000E1670892254617692035D668002F08D0F3
:1006A0006A7F50235A43F44BD218D26D9204920EB3
:1006B00006926246002A0ED0F1F710FD01200A9042
:1006C0000121E06FC9030843E067002E02D0F088E3
:1006D000401CF08024E3012292021143E1671105DE
:1006E0000140C00FC007E24B0A460C90002E02D01A
:1006F0003088401C3080002F04D006984000395AC2
:10070000491C3952204680300390002A2BD0E06FDC
:100710004106C90F08D0F1F7E1FCE16F40208143A9
:100720000120E1670A900AE040210843E067207950
:1007300040084000207120794006400E20710121C0
:10074000E06FC9030843E067002E02D07088401CA8
:100750007080002F06D006984000C01940304189B3
:10076000491C418191E218881E46800402D50C98EC
:1007700000283DD1287C00F0E9FA0790E769402184
:10078000387801228007800F0190206EE065E06FCD
:1007900012068843E067316880071140C60F0F9149
:1007A000B878FBF79BFA0F99002915D0002E13D0CB
:1007B000F1F794FC16200490E16F02208143E16779
:1007C0000399002008770399487703998873287C58
:1007D0000321FBF79FFA58E20799002913D00C99DF
:1007E000002910D00199032907D0787800280AD071
:1007F000F1F774FC3D20049047E2012803D014284F
:1008000001D00428F4D100200D900E900B900C988C
:1008100000286ED0287B02283ED1A168387809785C
:100820000843C00604D4F1F759FC01200A9033E0D4
:10083000F1F759FD216C411A0398006F401A01909D
:10084000697F502041438C480818C16DC06D490133
:100850004A0F4000400F05900398418D1046FFF766
:10086000E5FE06460398818D0598FFF7DFFE81B20D
:100870000398008E814200D2084630180199B930A1
:100880000029D0DB8142CED320794008400020717E
:1008900020794006400E2071E06FC006C00F0600B0
:1008A0000CD00120C046012813D01C2178780142C9
:1008B00004D0001F787008990220087138788007EA
:1008C000800F032807D0287CF8F7C4FE012834D015
:1008D0004DE0FC21EAE7B878022802D178780228B6
:1008E00008D0287CFBF760F901280AD001200B9082
:1008F0001DE041E001200E90E06F04210843E06715
:1009000015E0697F502041435B480818C16D012202
:100910000904C90F5140CA03C16D0123DB03994388
:100920001143C165002E02D0687F00F017FA012143
:10093000E06F49040843E0671EE07878002816D08D
:10094000FE20005D002812D0697F502041434A48B4
:100950000818C16D01220904C90F5140CA03C16DB5
:100960000123DB0399431143C165022003E03946AB
:10097000204600F015FA0D90A1680191287C012114
:10098000666FF8F7D3FE0199814201D1012100E0A1
:100990000021099121462831019A06918A4201D10C
:1009A000012100E000210B4600218C46002E06D0DC
:1009B000F27CD20903D03268002A00D00121099AC2
:1009C0001A4303D1002901D001218C460F99002937
:1009D00002D1614600297DD00998002804D0287CE6
:1009E0000321FBF797F918E0002B16D1318AB27C6E
:1009F0000020891831827169B161B074318AF2883E
:100A0000914202D33668042004E0C90602D1B169DC
:100A10000968B1610D9908430D90287CFBF711F826
:100A20000190287CFBF7C8F80E99002901D1012814
:100A300004D000F0EBF900287ED191E0287C012160
:100A4000F8F774FE0190A06001988078022805D123
:100A5000E06F02210843E067206EA066287C012138
:100A600000F0E2F9002841D00026697F502005E01F
:100A7000B806002000000404800000204143B04874
:100A80000918CA6D03121A43CA65697F502251437F
:100A90000918CA6F83051A43CA67697F50225143F8
:100AA00009184A6F4E67697F5022514309188A6FAF
:100AB000120A12028A67297B02290ED1697F50220D
:100AC00051430818816F80221143826FC9B2120A04
:100AD000120200E064E00A438267287C012100F0F2
:100AE000B1F9E06F08210843E0671FE0287C01218D
:100AF00000F0B6F9002819D0697F50204143904892
:100B00000918CB6D02129343CB65697F5022514384
:100B10000818C16F012252079143C167287C012147
:100B200000F0ACF9E16F08208143E167287C0221E5
:100B3000FBF7F0F8287C00E01AE00121FBF7DAF877
:100B400000884007C00F1DD0287C00F0A5F9287C44
:100B50000121FBF7CFF8018804229143018011E0C5
:100B6000002E05D00E98002802D10198002821D02F
:100B70000C98002801D0012000E011202085069863
:100B80000190A060287C0121F8F791FD002827D072
:100B900001984078002823D00199001D48701FE07B
:100BA000297B032917D10199814214D0084606995F
:100BB000884210D06349307C0968C0068031C00E7D
:100BC000C96C801C40180190A06031462046FAF79D
:100BD00041FF2667D6E70121E06FC9030843E067BC
:100BE0005748403041688022114341600D984007CA
:100BF0000BD5606FFAF7FCFF616F08686067002033
:100C00000860616F002900D1A0670D98C0071DD052
:100C10000120C046012817D01F267878B91C06404D
:100C2000E06E3246806800F040F9E06EC680E06E0B
:100C3000002606603878E16E8007800F0873E06E4A
:100C400000F05EF9E66607E0FF26E6E70D9880070C
:100C500002D5687F00F082F80B98002815D0287C18
:100C60000021F8F763FD06463846FFF73DFB30806C
:100C70007A78B91CB01CF4F775FB287C0021FBF7CF
:100C800039F80188012211430180606C00280BD0E3
:100C90000020C04601281ED001266846FFF76EFBE3
:100CA000012827D001200A900498002835D0687FB9
:100CB00000F042F9287C049900F046F901200A90DE
:100CC000687F502148431E494018C06D4000400FC6
:100CD000042829D030E01B4805210068C901803074
:100CE000C06D0E224018006D4169287C5043C01D24
:100CF0000E5CD2E7042E0ED012200099081A206450
:100D0000616CE06C4900401AE064039908670020B8
:100D100060646086C8E79D20EFE70A980028CFD07E
:100D2000204600F018F9CBE70748006BC00703D056
:100D3000F1F7D4F901200A900A9813B0F0BD000031
:100D400080000020BC0600208016006010B5012144
:100D5000FAF7D0FF0088C005C00F10BD50214843EE
:100D60000E4910B54118886FCA6F000A1206104369
:100D7000CA6F1204120E401E00D2521E8B6F040264
:100D8000DBB223438B671202000E024390B2CA6F9C
:100D9000120C12041043C86710BD00008000002030
:100DA000F8B50F46044600250120C04601280AD0A8
:100DB0001F267878064025D00020E06600F020F954
:100DC000002802D00BE0FF26F3E7E18E3246012037
:100DD000F9F73AFFE066002801D0012512E020343F
:100DE000607F5021484308494018C16D0122090421
:100DF000C90F5140CA03C16D0123DB03994311435D
:100E0000C16502252846F8BD80000020054800681D
:100E1000C030417AC07A814201D901207047002058
:100E200070470000BC06002010B50C460121FAF7FF
:100E300061FF0088002C02D00007C00F10BDC00663
:100E4000C00F10BD10B50C460121FAF753FF018801
:100E5000002C03D008229143018010BD1022FAE734
:100E600010B50C460121FAF745FF0088002C03D08D
:100E70004009C007C00F10BD8009FAE710B50C4645
:100E80000121FAF737FF0188002C03D0202291437B
:100E9000018010BD4022FAE700B5F8F78BFB8030E7
:100EA000817B01221143817300BDF8B504460D46D4
:100EB000501E1F210843401C00041646470D1ED03B
:100EC000204608302946421A002A01DD082A03DBA1
:100ED0002022F0F767FE04E0082208C9521E08C06D
:100EE000FBD12035202E01D2304600E02020A0800A
:100EF000301A7F1E24683F0486B23F0CE0D1F8BD53
:100F000070B504460A489025006801231A46006916
:100F10002946F6F757FF010003D028464C60F6F744
:100F2000ABFF04480068C030017A491C017270BDF3
:100F3000C0060020BC06002010B5FAF7BFF910214A
:100F400081740021C17410BD00B50B46F8F732FB67
:100F50002030437300BDF8B5856804460746203746
:100F6000387C0021FAF7B6FD0646387C0121FAF7F5
:100F7000B1FDE16F0A04D20F8903C90F064307D1FF
:100F800020462830A84203D1002A01D1002901D0EF
:100F9000012002E0A08E401C80B2A16C414320469B
:100FA00000F03CF8FF200D300059002802D0818865
:100FB000491C8180606F002821D0002602681CE057
:100FC000D07C1568C00917D0606F904208D10168C5
:100FD00061670660606F00280AD1A66708E00846CE
:100FE00001689142FBD10560A16F914200D1A067D9
:100FF00000211046F7F70AFA2A46002AE0D1F8BD88
:1010000005480068C030017A807A814201D9012008
:101010007047002070470000BC060020F3B504466E
:101020008DB020300390017C0491407F059000201A
:101030000690E06D012805D5E06F3E254005C00F04
:1010400071D145E10E99401AE065012120460E9AC2
:1010500000F0B2F90500F4D1002120460E9A00F00C
:10106000ABF90500EDD1A56800210498FAF732FD2F
:10107000064601210498FAF72DFD0246E06F0104AF
:10108000CF0F8103CB0F3146114307D121462831C1
:101090008D4203D1002F01D1002B01D0012602E0A7
:1010A000A18E491C8EB2012149048843E067039850
:1010B0005021407C009005984843BB490C90401853
:1010C0000B90806825468004800E0190216C0E985C
:1010D000E78F08180A900198704380350290A26C3F
:1010E000236C7243A87B9B1823640A9A9C469A1A25
:1010F0000892069A009B92190692BA1997B2029A20
:10110000C107D21892B20092628EC90F52020992A0
:10111000002978D0A989C91B0904090C04D0080446
:101120007BD52825D4E0D2E00107C006C90FC00F47
:10113000002938D0EB6B5868196860442064039A22
:10114000127B022A05D0C801000C0991608698899B
:1011500021E049084018206403985021407F5A69D3
:101160004843914980394018C06D4001400F0790B5
:10117000042801D0062801D102200790F9F78CFF3E
:101180004068904200D2024607988000001902652C
:10119000E26400202A67A0869868A0641869206627
:1011A000A87BF7212CE000282ED003985021407F07
:1011B00048437D49401881682B6C89B25A781B7866
:1011C00012021A43120411438160286C801CFDF73F
:1011D00057FC810203985022407F890A5043724A8B
:1011E0008018C268920D92051143C160FC20005D19
:1011F000002803D0296C0498FFF7AEF9A87BEF21F3
:101200000840A87303E008E00498C046C046A87BE5
:101210000221400840000843A873E7870898002887
:1012200000DA5CE7FC20005D002809D00B9800681C
:10123000010C41408AB239460498FAF7ADFE0AE043
:101240000098FAF723FF0399487400990198081A47
:1012500080B2FAF71BFF54490C9A80395618F16D89
:10126000800689098901800E0143F1650398007B9E
:10127000032814D02079012108432071217980208E
:1012800001432171F16D0143F1650121E06FC90254
:101290000843E067236CA26CE16C059870E0089944
:1012A0000E98626C4118206C530080182064E06C2A
:1012B000C01AE064608DFAF7F7FE8018002A00D1AA
:1012C0000D306064A16C49087A3981420ED208253C
:1012D0000598FFF731FE00208034A073039829465B
:1012E000007CFFF731FE06980FB0F0BD216C47007F
:1012F000091A2164E06CC119814200D9E16400201F
:10130000C04601283FD00120E16F4905C90F0428DC
:1013100048D01220C219099810180090E06C286774
:10132000002909D00498FFF743F9E16CC019814204
:1013300002D9FF305F3028671C4900984843000AF3
:1013400088301949E86640390A69194B00031A4088
:10135000000902430A61207E012108432076217E94
:10136000802001432176F16D8143F1650121E06F19
:10137000C9020843E067236CA26C296F323B0598D1
:1013800000F03FF8AFE70B4805210068C901803045
:10139000C06D0E224018006D416904985043C01D75
:1013A000085CB1E79D20B5E7000100207102000054
:1013B000FF0000F0BC060020F7B5064604462036C4
:1013C0000025307C0199FAF785FB0746307C0199AE
:1013D00000F01FF8002F12D0012810D001988000D3
:1013E0000119486E012801D5222508E07D2252040A
:1013F000904203D8029A801A486600E04A6628465E
:10140000FEBD70B51C4616460D46F9F757FF70C075
:1014100070BD10B50024FAF758FC002801D002284E
:1014200000D10124204610BDFFB589B01C461646E8
:10143000FF270A990998FAF758FB0546052E7DD033
:101440000998F8F707F9014620460B303A1D0C239E
:101450000590002902D0012E71D03AE12E462036A7
:10146000307A012816D0022821D0032822D004285F
:1014700036D0052839D006283BD007287DD008284B
:101480007CD009287BD00A287AD00B2879D00C2868
:1014900078D03AE222800A20A070012211460998F1
:1014A00000F084FA099800F096FA0220D4E00320B4
:1014B00030727FE1A0780B2840D1042030720221E5
:1014C000099800F091FA01210998FAF717FB002218
:1014D0000121099800F06AFA099800F098FA14E2DC
:1014E00022800B20A0700520B6E00620307201217A
:1014F00011E2FEF72BFA0590FEF728FA069005A8F0
:101500000790FEF723FA019001A80890F848208080
:1015100028463030A41C00F084FA0002C01C206071
:101520002846333000F085FA69466060087DE98D11
:10153000000609020843F17D084301E0B8E1C0E07C
:10154000A0600798401C00F074FAE0600798401D06
:1015500000F067FA6946097909060843206108988E
:10156000401C00F05EFA60610822294605A8F9F7E0
:101570009FFD0422314601A805E00BE00EE042E0A9
:1015800062E06BE06CE0F9F793FD07200122307216
:10159000114665E1082030720427B6E1A1780429DC
:1015A00006D00D291FD011291DD007291BD0A8E175
:1015B000092131720822A918E01CF9F779FD2946A2
:1015C000042224310598F9F773FD2946099800F0A3
:1015D0003BFA00220121099800F0E8F9099800F08F
:1015E00016FA052791E1099800F035FA0246C1483C
:1015F00000682030007BC00701D0002000E01020F0
:1016000000231A211CE0A078052804D00D2808D05A
:10161000112806D075E101210998FAF76FFA0A201E
:101620001AE0099800F017FA0246B2480068203024
:10163000007BC00701D0002000E01020002306211D
:10164000803000F00DFA2FE022800620A0700221E9
:10165000099800F035FA0B20307256E1337245E1FB
:10166000A0780628A3D100203072307B0128099889
:101670000AD000F0F0F902469E4800682030007B56
:10168000C0071AD0002019E000F0E5F90246994899
:1016900000682030007BC00701D0002000E010204F
:1016A0000021803000F020FA099800F04BFA0998E8
:1016B00000F051FA0122114671E1102001230021AE
:1016C000BEE7A078032801D00A2802D100202921F2
:1016D00048552E4620362146707A0D310391083147
:1016E0000291002818D001284CD002285CD0032891
:1016F00062D0042867D005287ED006287DD0072830
:101700007CD00C287BD008287AD0092879D00A28E8
:1017100078D00B2877D0F8E000221146099800F025
:1017200045F9099800F073F900210998FAF7E6F9EC
:1017300000210998F7F7BBFF012820D0052070721F
:10174000294608223031E01CF9F7B2FC2946022272
:101750002E310598F9F7ACFC082229460398F9F7D1
:10176000A7FC042231460298F9F7A2FC002030734E
:101770000023012219460998FAF7C8F9C5E00120AB
:101780007072F4E722800B20A07002207072012298
:101790000021099800F00AF9099800F01CF90021CD
:1017A000099800F021F9B0E0032070720121099836
:1017B00000F01AF90B27A8E0A0780B2878D10420B4
:1017C00070720327A1E0A078032871D105217172FE
:1017D000294608223031E01CF9F76AFC294602222A
:1017E0002E310598F9F764FC082229460398F9F789
:1017F0005FFC0422314607E00AE038E04DE065E096
:1018000072E07BE08BE097E00298F9F751FC81E011
:10181000FEF79CF80290FEF799F80390FEF796F811
:101820000790032020700D2060700420A070082213
:10183000E11C02A8F9F73CFC042207A80599F9F776
:1018400037FC0822A91802A8F9F732FC294604221D
:10185000243107A8F9F72CFC062001227072002120
:10186000099800F0A3F8099800F0B5F84DE00720BA
:101870007072099800F0EFF801461E48EB8D006881
:101880002030007BC00701D0002000E010202A4655
:101890003032803000F06AF937E0F07A012808D061
:1018A000154820800D20A0700620E07073722CE097
:1018B00027E022800520A0702946099800F0C4F88E
:1018C0000021099800F0FCF808200BE0099800F0CE
:1018D00039F9099800F03FF901220021099800F038
:1018E0007FF90020707210E00920707206270CE06A
:1018F00003170000B006002003020000A0780628AD
:1019000006D03D21099800F084F938460DB0F0BDAD
:101910000A20707200210998FAF7F0F8F5E72280A2
:101920000620A0700B2070720121099800F0C8F801
:10193000099800F080F9E8E700207072307B0128F8
:1019400009980AD000F087F802461748006820304E
:10195000007BC00712D0002011E000F07CF80246A6
:10196000114800682030007BC00701D0002000E053
:1019700010200021803000F0B7F805E0102001238E
:101980000021803000F06CF8099800F0DBF809982D
:1019900000F0E1F8099800F055F90A990122099838
:1019A00000F01EF9B1E70000B006002010B51446A3
:1019B000FAF710F9002C08D0012C09D0022C03D121
:1019C000017808221143017010BD01780222F9E765
:1019D00001780422F6E710B50121FAF78BF90188A6
:1019E00080221143018010BD10B50C460121FAF789
:1019F00081F94023002C07D020220188012C00D03F
:101A000019431143018010BD01881943FAE710B54D
:101A10000121FAF76FF90188FF2201321143018099
:101A200010BD017842788078120200041043084308
:101A300070470178427813028278C0781204000659
:101A4000104318430843704700B50B46F7F7B2FD43
:101A50008030036100BD00B5F7F7ACFDC08E00BD5E
:101A6000F8B51D460446022316460F46C00603D5A8
:101A70000322BF20044008E00F4800686030407A2D
:101A8000000601D40020F8BD01222007000F032822
:101A900010D20A4980000968401800692146F6F70B
:101AA00091F9010006D00F71CE800D722046F6F735
:101AB000E3F9E7E70720F8BDBC060020C0060020D8
:101AC00010B50C460121FAF715F91023002C07D0A8
:101AD00008220188012C00D019431143018010BD58
:101AE00001881943FAE7000070B504460123154642
:101AF0000E46C00603D50422BF20044008E00F486C
:101B000000686030807B000601D4002070BD022296
:101B10002007000F03280FD20949800009684018E8
:101B200000692146F6F74EF9010005D00E71CD800F
:101B30002046F6F7A1F9E8E7072070BDBC060020B3
:101B4000C006002010B50121FAF7D4F801888022E0
:101B50009143018010BD10B50121FAF7CBF801883F
:101B6000FF2201329143018010BD0000FFB51E46E7
:101B70000546032381B0C00603D50622BF200540D9
:101B80000CE0154800686030017C890602D5407E73
:101B9000C00602D4002005B0F0BD04222807000FC3
:101BA000032817D20D4980000968401800692946AA
:101BB000F6F708F904000DD00298A080271D08222E
:101BC000A01D0399F3F7CEFB7E8121462846F6F748
:101BD00053F9DFE70720DEE7BC060020C00600203F
:101BE00070B515460C460646FAF76FF885420DD1DA
:101BF00021463046F9F7EEFF002101703046F7F735
:101C0000D9FC7D214904012C01D0416670BD81665B
:101C100070BD70B50B460546F7F7CCFC0446194677
:101C20002846FFF791F92034607FFFF785F9607F40
:101C3000FDF798FB70BD00B5F7F7BCFC0121E03063
:101C4000817700BD00B5F7F7B5FC0021E030817762
:101C500000BD0000F0B591B00546F9F7E7F8FDF7D3
:101C6000EBFC064600200B9001200A909B48294679
:101C70000068A031099120312C4680340891002859
:101C80007EDA9748314600680831FF300130007E27
:101C90000F903078C20906A8FCF7D0FC3078B11C50
:101CA0004006C20F0CA8FCF7C9FC30780007000FF3
:101CB0000390052801D1F0F711FAE28B09980E90F4
:101CC0002946007E5C316B4607C3237E04AA0CA81C
:101CD000039900F011F907460498000A00023843FE
:101CE0000490C0B2FE2802D10498FD380490EA6C3A
:101CF00006991068884203D150680799884200D03D
:101D0000FF270398032807D1FF2F05D0207E8007E7
:101D100002D50F98012805D004A800F033F9002857
:101D200031D03BE0287941084900297101200B900E
:101D30000E98807F01280BD1E08B6A49884207D03A
:101D400069460A7C04ABC1B20133A12000F03AF924
:101D50000898817E5020414363480818C16D802651
:101D60003143C1650E98062181750021284600F097
:101D700063F900200A905C4840304168314300E03C
:101D80000EE041600CE00398052807D1FF2F05D035
:101D9000207EC00702D00F98012810D00020A0821A
:101DA0004E4801685148014201D10020A082089E9E
:101DB000307F00285AD0A28A002A1DD059E0287905
:101DC000410849002971F0F789F9E08B04AB012241
:101DD00000216F460FC708980746837EE120415DCA
:101DE0003046FDF7A5FE04A800F054F90021397132
:101DF000B87EFAF765F9D3E7401E3077207E80077A
:101E000031D00221A1820998717F0746C07D00F080
:101E100067F97077B17E50225143334A8A18D16DE9
:101E20003F231B0280069943800C0143D165B07E9D
:101E3000502148432C494018C16D80263143C1656B
:101E40002879012108432871F0F748F90021B97574
:101E5000284600F0F1F824484030416831434160A1
:101E6000F0F787FE21E00020A082CCE7A08A0028BE
:101E700024D0480619D528790121084328710998EA
:101E8000807E012828D01A49174840300269194B32
:101E900009021A400A430261A18A491EA182002157
:101EA0000A9141688022114341600B98002802D0BA
:101EB000A08A401EA0820A9811B0F0BDF0F70EF97A
:101EC000287901210843287100212846FDF74AFCA2
:101ED000B07EFAF7F5F8E8E74621D5E7B806002026
:101EE000BC060020FCFF00008000002040000080B5
:101EF000EE020000FF0000F0F8B55B07DF0F03689B
:101F0000079E069CDDB2136043685360002F08D023
:101F100001683268914230D14068716888422AD0A5
:101F20002BE0012C01D0032C01D1032905D0022C78
:101F300001D0032C1FD105291DD1114C4368026823
:101F4000206815218030C06D49014118FF30FF30F5
:101F500002304978806D00F0DAF8FF280DD0216852
:101F6000C0008031C96DFF31FF310231896D001D24
:101F70000858C00F01D02846F8BDFF20F8BD00006A
:101F8000BC06002010B50446F9F786F8C078002892
:101F900013D10B481521006849018030C06D63687A
:101FA0004118FF30FF30023022680978806C00F061
:101FB000AEF8FF2801D0012010BD002010BD0000A8
:101FC000BC060020FFB50546022381B016460F4629
:101FD000C00603D51622BF2005400CE01448006857
:101FE0006030017C890602D5C07E400702D4002003
:101FF00005B0F0BD13222807000F032815D20D49A4
:1020000080000968401800692946F5F7DBFE0400E6
:102010000BD0277166710622A01D0499F3F7A2F96F
:1020200021462846F5F728FFE1E70720E0E7000012
:10203000BC060020C0060020F8B50446F8F7F6FEFE
:102040002546A035A87E00F083F82146C0318B7E5E
:10205000502253430E4A9E18F36D07273F06BB4399
:1020600047077F093B43F365897E502359438A180C
:10207000D16D07231B074007994340080143D165F1
:10208000FDF7D2FA0246A87D214600F06BF8F8BDB4
:102090008000002070B5114D04464368026828682E
:1020A00015268030C06D76018119FF30FF30023077
:1020B0000978806C00F02BF8FF2801D0012070BD5A
:1020C000286822468030C06D8119FF30FF30023011
:1020D0000978806C00F0B8F8002070BDBC060020C4
:1020E00010B5252904D026290CD0FDF7AFF910BD75
:1020F000810701D5262010BD400701D5272010BD3E
:10210000252010BD4107F9D4C007F9D1F2E7F0B49A
:102110000546C906C90E01208840C1B21E02002032
:1021200049084318DCB2E3005B191F685B681B02B7
:102130009E4203D89E4206D1BA4204D32046BA42F8
:1021400001D19E4202D00029EAD1FF20F0BC7047A5
:10215000022803D0032803D00020704701207047D5
:1021600004207047F8B507460E460020803114461B
:102170000090002F08D004202070087E0D464007F4
:1021800016D4002F10D015E00A8B0020530701D57C
:102190000120F1E793079B0F022B03D09207EBD1AD
:1021A0000220E9E70620E7E7A88D801D60700BE0BC
:1021B000002F3ED0288E801D6070F16C20460622D4
:1021C00008300931EFF7A2FCF16C0622A01C491C73
:1021D000EFF79CFC20782F2108402070F16C0978E3
:1021E000C90728D001210091890108432070F16CB2
:1021F000097AC90108432070FEF792F9217840015D
:1022000008432070002F18D02E8E296D288B42078E
:1022100001D5002F14D00825400701D5002F10D07C
:1022200060193246EFF772FCA819801E607000201A
:10223000F8BD0C20C0E70099D6E7AE8DA96CE5E7A4
:102240000E25AD1E6570F2E7F7B50546C80682B0EB
:10225000C00E012484400F466B462846049AFBF7C3
:10226000C7FA01287BD028463946264600F0A6F852
:10227000B04202D1FF2005B0F0BD69460E78601E65
:10228000B04231D9E0004119084608380B460A1F10
:10229000A61B0127091DF607FF078446FE4207D04B
:1022A000083863460668083A1E60083916680E60EA
:1022B0006E463678A41B641E641015D006461F4671
:1022C000803EB66F803FBE6716460F46803E803F19
:1022D000B66F1038BE67103B0668103A1E601039A2
:1022E00016680E60641EE9D10498334A0168684696
:1022F00000781524C000295004986401416868469C
:102300000078C0004019416010688030C16DC81D60
:10231000FF30FA30436DAB4202D0836DAB421FD128
:10232000684609190578C978002000293FD9116845
:102330008031C96DFF31FF310231CB6D282141431E
:10234000591820318B79AB4201D35B1C8B7111681A
:10235000401C8031C96D0919C9788142E7D826E04F
:10236000C36CAB4202D0006DA84220D16846091967
:102370000578C9780020002919D911688031C96D04
:10238000FF31FF310231CB6D2821414359182031F3
:10239000CB79AB4203D3FF2B01D05B1CCB7111680F
:1023A000401C8031C96D0919C9788142E5D8684659
:1023B000007805B0F0BD0000BC0600200346C8064A
:1023C000C00E0121814010B4002000290BD9C200A9
:1023D000D2185468641C02D11268521C04D0401CEC
:1023E000C0B28842F3D3C8B210BC7047F0B50546FE
:1023F00085B0002001900090E86F2E4640072C46E3
