:020000041004E6
:1000000000000120311F0410991B04102F0D041053
:10001000AA5555AA45554C420000000000000000BA
:10002000000000000000000000000000611E04103D
:100030000000000000000000631E0410651E041094
:100040008B1004102F1104109B1B0410B71B0410FD
:10005000C71D04100F1F04101B1F04103D1F0410A8
:10006000711E04103F1F0410411F0410431F041091
:10007000451F0410471F0410491F0410811E04105F
:100080004B1F04104D1F04104F1F0410511F04106C
:10009000531F0410551F0410571F0410591F04103C
:1000A0005B1F04105D1F0410000000000000000032
:1000B0000000000000000000000000000000000040
:1000C00038B5040014D025007C356868002803D1B9
:1000D0002870200000F0CDFD2420686020680168B1
:1000E000012291430160200000F0C6F9012801D1EE
:1000F000012032BDA06A002802D0200000F01AFBC7
:1001000020684168084A0A404260206881682A22C3
:1001100091438160FFE72068016801220A43026081
:10012000200000F071FB32BDFFB7FFFFF0B5030008
:100130007C335C68202C44D100290BD0140009D0FA
:10014000846880256D01AC4206D10669002E03D17A
:10015000CE0701D50120F0BD7C26865D012E30D072
:1001600001261E700165010054310A804A80002278
:10017000CA61DA6021265E600E696F04BE420FD14B
:10018000AC4204D10469002C01D1554C00E0554C1F
:10019000CC611A7000688168EA020A4382600EE04E
:1001A000AC4204D10469002C01D14F4C00E04F4C0B
:1001B000CC611A700068016880220A430260002046
:1001C000F0BD0220F0BDF8B503007C339B68202B06
:1001D00000D080E000290FD06B461A806A46128852
:1001E000002A09D0836880225201934206D1046913
:1001F000002C03D1CC0701D50120F2BD7C24045D85
:10020000012C68D001247C254455816501005C31B6
:100210006C4624880C806C4624884C8000240C6139
:100220001504FF26934204D10369002B07D12B4B01
:100230000FE07F27002B04D10369002B06D18E80AD
:100240000AE0AB4207D10369002B01D18F8003E0A4
:100250003F238B8000E08C8003007C33DC60222312
:1002600006007C36B36003689E68012737439F60B1
:100270008B685604B3421AD16B461B888E89B342F1
:1002800015D38368934204D10269002A01D1184A28
:1002900000E0184A0A617C21445401680A682B0D69
:1002A00013430B60006881680D43856011E083682B
:1002B000934204D10269002A01D10F4A00E00F4A9B
:1002C0000A617C21445400680168902252000A436C
:1002D00002600020F2BD0220F2BD0000FF0100001C
:1002E0000D0A0410B10904106D090410410904102D
:1002F000A30B04100F0B0410AF0A0410710A0410B2
:10030000F8B504002668F0693168B26807073F0F46
:1003100020230025002F0BD1870602D58F0601D49C
:10032000D70079D5E16E002901D020008847F1BDC2
:100330004F4F174003D190277F000F406CD0C70765
:1003400008D5CF0506D5012737628826A659374339
:100350008826A75186070AD5D60708D5022627681A
:100360003E628826A75904263E438827E651460761
:100370000AD5D60708D5042627683E628826A759DD
:1003800002263E438827E651082630420BD00B4018
:1003900002D1374B134006D023681E6223008833F6
:1003A0001F683E431E60260088363368002B5DD0F0
:1003B000800608D5880601D4D00004D5E16E002956
:1003C00001D020008847306821688968490601D437
:1003D00000071CD5200000F083FA206881684906D8
:1003E00011D58168402291438160A06F00280AD016
:1003F00020498163A06F00F073FC002836D0A06F05
:10040000816B8847F1BD200000F029FDF1BD20007F
:1004100000F025FD3560F1BD070609D50F0601D4B2
:10042000120205D5216F002920D020008847F1BD98
:1004300042060CD54A060AD5306840218843306010
:10044000802023502567200000F002FDF1BD02024C
:1004500005D54A0003D5200000F01BFDF1BDC00109
:1004600004D5002902D5200000F0AAFDF1BD00004E
:10047000010000102D090410F1B582B0002069467A
:1004800008700298006801900068A2490140029833
:10049000806808430299096901430298406908434A
:1004A0000299C96901430298406E084301990860A6
:1004B00001984068984901400298C0680843019932
:1004C000486002988069954E0199B14203D00100BD
:1004D0000298006A084301998968914A0A401043CA
:1004E000019988600198C06A0F2188430299496A7E
:1004F00001430198C1620298456A8A4841008A4ACC
:100500008300C400019FB74275D1002D29D0012D71
:1005100001D1200026E0022D01D1180022E0032D98
:1005200001D110001EE0042D01D108001AE0052DB4
:1005300001D17E4816E0062D01D1500812E0072DAA
:1005400010D0082D01D140080CE0092D01D1800800
:1005500008E00A2D01D1C00804E00B2D01D10009EB
:1005600000E0000102994A6851008918884201D3CD
:100570001103814200D2BFE0002D2BD0012D01D10B
:100580005C0228E0022D01D11C0224E0032D01D1E0
:10059000674C20E0042D01D1DC011CE0052D01D1C8
:1005A000964C18E0062D01D1954C14E0072D01D191
:1005B0009C0110E0082D01D15C010CE0092D01D156
:1005C0001C0108E00A2D01D1DC0004E00B2D01D153
:1005D0009C0000E08B4C0025500800210019694167
:1005E000002300F0EEFCA0494118A04A914240D2FD
:1005F0009F49086083E0029EF66980273F02BE4261
:100600003ED1002D29D0012D01D1000126E0022D7F
:1006100001D1200022E0032D01D150001EE0042D65
:1006200001D118001AE0052D01D1AC4816E0062DC5
:1006300001D1100012E0072D01D108000EE0082DB5
:100640000CD0092D01D1400808E00A2D01D1800805
:1006500004E00B2D01D1C00800E040010299496877
:100660004A08801800F0F6FC80B201001639A44A4E
:10067000914241D2921D02400007400F104338E0E2
:10068000002D29D0012D01D1200026E0022D01D11D
:10069000180022E0032D01D110001EE0042D01D12D
:1006A00008001AE0052D01D1204816E0062D01D1E1
:1006B000500812E0072D10D0082D01D140080CE0A1
:1006C000092D01D1800808E00A2D01D1C00804E0FD
:1006D0000B2D01D1000900E00001029949684A0888
:1006E000801800F0B7FC80B201001639844A9142AC
:1006F00002D20199C86002E00120694608700298A0
:10070000683001214180018000214160816068469C
:100710000078FEBDF369FFCFFFCFFFFF005000411F
:10072000FFF4FF1140420F00AAB02800006A180031
:1007300000AAB0282821415CC90706D501684A688B
:10074000704B1340C26A1A434A602821415C8907F2
:1007500006D501684A686C4B1340026B1A434A6025
:100760002821415C490706D501684A68674B134058
:10077000426B1A434A602821415C090706D501688B
:100780004A68634B1340826B1A434A602821415CDC
:10079000C90606D501688A685E4B1340C26B1A43CE
:1007A0008A602821415C890606D501688A685A4B0F
:1007B0001340026C1A438A602821415C490611D516
:1007C00001684A68554B1340426C1A434A60426CB8
:1007D00080235B039A4205D14A68514B1340826CD7
:1007E0001A434A602821415C090606D501684A6817
:1007F0004C4B1340C06C18434860704700006A18A7
:1008000000555814000024F4F8B5040000257C308D
:10081000C56000F03BFC0700434E206800680007FD
:1008200009D500963B00002280218903200000F0BA
:1008300021F800280DD12068006840070BD50096EC
:100840003B0000228021C903200000F013F800289B
:1008500001D00320F2BD21007C3120204860886057
:100860000D700020F2BD000000FDFFFF00FD0F0035
:100870000C500041FEB5089E002405000F0068469C
:10088000027001932868C0693840B84201D1012044
:1008900000E000206946097888421DD10020C0434D
:1008A0008642EFD000F0F2FB0199401A864201D354
:1008B000002EE7D128680168534A0A400260286880
:1008C000816801229143816028007C3020214160B1
:1008D000816004700320FEBD0020FEBD00D4300006
:1008E00001680A68604B13400B6001688A685F4BBF
:1008F00013408B602021842281500021C166704703
:10090000EAFF0000FFFFFDFFFFFFFEFFFFFFFBFF11
:10091000FF7FFFFFFFEFFFFFFFDFFFFFFFFFEFFFA7
:10092000FFFF9FFFFFFFF7FFFFFFFF0180B5806A1A
:100930000100563100220A810A8000F090FA01BDC0
:1009400080214158212910D101685622825A002A5B
:1009500000D123E0026D12788A62016D491C0165A5
:100960005621415A491E56228152704780214158D2
:10097000212912D101685622825A002A00D10DE0A5
:10098000026D1288D205D20D8A62016D891C016543
:100990005621415A491E5622815270470A688023C7
:1009A0009A430A600068016840220A430260704767
:1009B00080214158212900D0704730B501005631BF
:1009C0008C8A9E4A0DE0DD692D0609D5056D2D78CE
:1009D0009D62036D5B1C03655623C35A9B180B80F5
:1009E000A41823040DD003685625455B002DEAD1D9
:1009F00099681C4A0A409A600068016840220A43CC
:100A0000026030BD000000005FFEFFFF8021415802
:100A1000212900D0704730B5010056318C8A874AB1
:100A20000FE0DD692D060BD5056D2D88ED05ED0D6B
:100A30009D62036D9B1C03655623C35A9B180B8054
:100A4000A41823040DD003685625455B002DE8D17A
:100A50009968044A0A409A600068016840220A4383
:100A6000026030BDFFFF7FFFDFFEFFFFFEFFFFEFF5
:100A700010B501006C3102688B69222B12D1536AC8
:100A800002005E3254881C40836D1C70836D5B1CB9
:100A900083655E23C35A5B1E13805E22825A002A3E
:100AA00004D123E0906908210143916110BD10B584
:100AB00001006C3102688B69222B12D1536A02004B
:100AC0005E3254881C40836D1C80836D9B1C836543
:100AD0005E23C35A5B1E13805E22825A002A04D111
:100AE00004E0906908210143916110BD0268136818
:100AF000534C1C401460026893680124A343936024
:100B000020228A6100220A6000F0A4F910BDF8B525
:100B100001005E31498802006C329269222A3AD182
:100B200007005E377E8920240500009123E02868B5
:100B3000406A00990140A86D0170A86D401CA8652D
:100B40005E20285A401E38805E20285A002811D185
:100B5000286801683B4A0A400260286881683A4A6E
:100B60000A40826028006C30846100210160280006
:100B700000F070F9761E3004D9D15E20285A002882
:100B80000ED0798988420BDA286881682F4A0A409A
:100B900082602F4860E00068816908220A43826110
:100BA000F1BDF8B501005E31498802006C329269EE
:100BB000222A3CD107005E377E8920240500684642
:100BC000018024E02868406A694609880140A86DD0
:100BD0000180A86D801CA8655E20285A401E3880C0
:100BE0005E20285A002811D128680168154A0A4059
:100BF000026028688168144A0A40826028006C30CC
:100C0000846100210160280000F024F9761E300480
:100C1000D8D15E20285A00280ED0798988420BDA74
:100C200028688168094A0A4082600A4814E000681E
:100C3000816908220A438261F1BD0000FFFF0000C4
:100C4000DFFEFFFFFFFEFFFFFEFFFFEFFFFFFFEFF7
:100C5000710A0410AF0A0410E866286801680C43A2
:100C60000460F1BD80B500210020C04300F031FADE
:100C700001BD00681749884200D0704770B586B042
:100C80008020C00014490A6802430A6009680840CD
:100C900005900598022400940194012602960025EF
:100CA0000395049469469020C00500F041FA00962F
:100CB00001940296039504956946084800F038FAB5
:100CC0000021082000F005FA082000F006FA06B01E
:100CD00070BD00000040004158004048000010482E
:100CE00070B50022002401212523C35C022B03D010
:100CF0000422C263012418E003681D680E26B54370
:100D00001D6003681D688D431D604423C35C3C2542
:100D10001D400123AB40056C6B602523C154242189
:100D20004254816B002900D08847200070BD704775
:100D300081B051490A6802430A600968084000907E
:100D4000009801B07047F8B5FF21022000F00CFEBA
:100D5000002800D0FEE700F021FF0420FFF7E8FFA5
:100D60000820FFF7E5FF454C45486060E120400260
:100D7000A0600025E560256165610C20A061E5614A
:100D800025626562A562E562201DFFF799F90028DA
:100D900001D000F079F80021201D00F099F800281A
:100DA00001D000F071F80021201D00F0ABF8002800
:100DB00001D000F069F8201D00F06CF8002801D087
:100DC00000F062F8002000F05BFF012000F058FF07
:100DD000022000F055FF2700E43751223900201D82
:100DE000FFF7F1F9002808D000F04EF805E00220E6
:100DF00000F0AAFFC82000F0D1FF20780128F6D12A
:100E00002570022000F08FFF26009036512231001D
:100E1000201DFFF78BF9002801D000F035F820786D
:100E20000128FCD12570512001E0761C7F1C0100B7
:100E3000481E090408D031783A789142F5D0000470
:100E400002D000F021F8FEE7022000F05BFFFAE795
:100E500001E0000000BF012008490870704780B51C
:100E6000002000F04FFFFEE78020C000814202D149
:100E70000120044908607047500040486C0300207E
:100E800000400041C404002080B5002000F03AFF7B
:100E9000FEE7704730B57C21415C012901D1022079
:100EA00030BD01007C3101220A7024224A600268B0
:100EB000136814680125AC43146000224266234C79
:100EC0001C4000680460202048600A70002030BD8B
:100ED00070B504007C20205C012801D1022070BD87
:100EE00026007C3601203070242070602068056860
:100EF000026801239A43026020688268D200D20807
:100F0000114318E070B504007C20205C012801D159
:100F1000022070BD26007C360120307024207060D5
:100F200020680568026801239A430260206882688D
:100F3000074B134019438160200000F00BF8206834
:100F40000560202070600020307070BDFFFFFFDF63
:100F5000FFFFFFF1F0B585B0040003A814A10CC990
:100F60000CC001A814A10CC90CC0606E002802D1ED
:100F70000120012515E0206881680901490F0091D1
:100F80008068410F01AE03AF785CC000715C00F077
:100F90004DF805000098385CC0000099715C00F0C5
:100FA00045F8210068314D80088005B0F0BD000093
:100FB0000101010307010000080402040801010106
:100FC0007047124224D0994228D970B500251B429F
:100FD00002D00C00002109E00024012649186441D8
:100FE000944200D3A41A7641F8D33100012601E0DF
:100FF000764109D2001864416D41A41A9D41F7D28F
:10100000A4185D41B619F5D3300022002B0070BD45
:101010001B42D8D108B500F0D5FE08BD01D19042E1
:10102000D3D202000B00002100207047CA0F00D06D
:10103000494203105A400DD004B500D3404200F09D
:1010400009F8009AD20701D34942124200D5404222
:1010500004BD0000094214D088420FD30122030CC2
:1010600001D100041204002300185B418B4200D31D
:101070005B1A5241F8D3190010007047010000209C
:10108000704708B500F0A0FE08BD70470148006831
:10109000704700BF5C03002010B5C2001823134046
:1010A000FF249C40E2438907090E9940030004D4C1
:1010B0001A489B089B00C01806E0194B0007000F58
:1010C000083880088000181803681A40114301602E
:1010D00010BD80B5FFF7E0FF01BD010005D401217F
:1010E000C006C00E81400F480160704710B5401E19
:1010F00080214904884201D3012010BD0A4C606060
:1011000003210020C043FFF7C7FF0020A060072194
:10111000216010BD80B500F009F801BD00E400E0D9
:101120001CED00E000E100E010E000E070477047D7
:10113000F0B586B002007E48009200220EE0130453
:1011400023610AE02B00039D1D43A560009B9025B1
:10115000ED05AB42E368F2D12261521C0B68D3402B
:1011600000D1E3E0DB07F8D54B68022B01D0122B4E
:101170000ED1009BD408A4001B191C6A96001C25E4
:1011800035400F26AE40B4430E69AE4026431E6282
:10119000009B1D68530003269E40F44325400E79B2
:1011A000B607B60F9E402E43009D2E604D68012D60
:1011B00005D0022D03D0112D01D0122D14D1009D88
:1011C000AD682C40CD689D402543009B9D60009BF1
:1011D0005C68012301259540AC434D682D092B40E7
:1011E00093402343009C63608B68009C9025ED0531
:1011F000AC421DD1002B03D0022B11D008D334E018
:101200000C68E34304681C400460446823400DE01C
:101210000B6844689C43446004682343036024E0F3
:101220000B6804689C4304604468234343601CE0EB
:10123000002B03D0022B11D008D316E00C68E34337
:1012400084681C408460C46823400DE00B68C46857
:101250009C43C46084682343836006E00B68846811
:101260009C438460C4682343C3604D68EB0000D492
:1012700073E700233A4C246801269640049636040E
:101280000396F64302962D09802676013540954057
:1012900001279740FE430196009E9027FF05BE421E
:1012A00002D1019E264002E0029E26402D043543D5
:1012B0002B4C25604D680595ED031DD46568009E97
:1012C000BE4201D1019E00E0029E2E40059FC02536
:1012D000AD033D40C027BF03BD420CD10123A66032
:1012E000009D9027FF05BD4202D13500049E01E01C
:1012F0003500039E2E436660A568002B00D024E7CE
:101300009023DB05009E9E4202D12E00019D01E04C
:101310002E00029D35404E68F60200D415E7009E6F
:101320009E4200D00EE72B00049D0DE706B0F0BDF5
:1013300020005048E0B50A040A4D9026F605B04258
:101340002F6801D10F4000E01740002F06D0B042B7
:1013500001D1296000E02A60FFF786FDE0BD0000B2
:101360000C0000401C00004010B5C20018231340C0
:10137000FF249C40E2438907090E9940030004D4EE
:101380005F489B089B00C01806E05E4B0007000FFB
:10139000083880088000181803681A40114301605B
:1013A00010BD000081B05848016802220A43026063
:1013B000002102E000BF0099491C00910099062914
:1013C000F8DB016804220A43026001B0704780B56F
:1013D0004E480068002811D14D48006800280DD003
:1013E00001204C49886000F0F0FCBFF34F8F4A4861
:1013F0004A490860BFF34F8F00BFFDE7012002BDDF
:1014000080B503210020FFF7AFFF03210120FFF784
:10141000ABFF03210220FFF7A7FF03210320FFF703
:10142000A3FF03210420FFF79FFF03210520FFF7FF
:101430009BFF03210620FFF797FF03210720FFF7FB
:1014400093FF03210820FFF78FFF03210920FFF7F7
:101450008BFF03210A20FFF787FF03210B20FFF7F3
:1014600083FF03210C20FFF77FFF03210D20FFF7EF
:101470007BFF03210E20FFF777FF03210F20FFF7EB
:1014800073FF03211020FFF76FFF03211120FFF7E7
:101490006BFF00211220FFF767FF03211320FFF7E6
:1014A00063FF03211420FFF75FFF03211520FFF7DF
:1014B0005BFF03211620FFF757FF01211720FFF7DD
:1014C00053FF00211820FFF74FFF03211920FFF7DA
:1014D0004BFF01BD30B50D00AE4C002A0AD0FA21F9
:1014E0008900FFF7B7FD401E684360600020A060E0
:1014F000052002E0206801218843206030BD000003
:1015000000E400E01CED00E0080040489400404882
:1015100010005048040000200400FA050CED00E023
:10152000FEB50121002819D09B480368E024A3439D
:1015300020241C430460836D0624A34302241C431F
:101540008465836B0B438363836B8B438363836DFE
:101550000B438365806D0840009000980F238F48EF
:1015600004698F4DAC4213D10468056806680268AF
:101570005202520F029200684001420F0091300C5B
:1015800018402E0AF0253540240A1C40019404E03E
:1015900008200190702500240094824C0F26F64309
:1015A000276B374038432063E06AF027B843054390
:1015B000E562E06A064001983043E0623820009D11
:1015C000002D0DD025680726B543029E7607760FBD
:1015D0002E43266025688543D20002402A432260BC
:1015E0003F22D243A56F15400A262E43A667A56F5A
:1015F00040262E43A667E56F154004262E43E66776
:10160000E56F80262E43E667E56F4026B543E56724
:10161000654D2E6816402E606E68164010273743C1
:101620006F60AE68164020273743AF60EE68164003
:1016300030273743EF602E691640304328616869D0
:101640001040392606436E61A86910403A260643C9
:10165000AE61E86910403B260643EE61286A1040FF
:101660003C2606432E62686A02403D2010436862B1
:101670005522FF25ED43B64806682E401643066006
:10168000C6682E4066273743C760066A2E4032433D
:101690000262026C2A401D2616430664C26B2A4071
:1016A00059261643C663426C15402D222A434264D4
:1016B000426A0A4342628A0715681268F0262E4081
:1016C00013403343202B63D3A24A11705E2353701F
:1016D000236B9370D1705D231371E36A53710623FA
:1016E000009D002D05D091715223D3712368137290
:1016F0000923D1545B1C1224DDB254555B1C0468D1
:10170000DDB254555B1CDDB251555B1C1524DDB2B6
:1017100054555B1CC468DDB254555B1CDDB2515599
:101720005B1C1A24DDB254555B1C046ADDB25455AF
:101730005B1CDDB251555B1C2224DDB254555B1C91
:10174000046CDDB254555B1CDDB251555B1C212489
:10175000DDB254555B1CC46BDDB254555B1CDDB26D
:1017600051555B1C2324DDB254555B1C446CDDB227
:1017700054555B1CDCB211555B1C1B21DCB21155AE
:101780005B1C406AD9B2505400205B1CDBB2D054C1
:10179000F7BD000010E000E008004048E81E00101F
:1017A000CCECBCFC48160060E8160060F3B581B0D4
:1017B0008020C00501680068F0220A400007000F81
:1017C00010430090644E012264213000FFF782FE36
:1017D000624D286880214902014329600027604C3E
:1017E0002868800303D42068C003F9D504270022A9
:1017F00000210020FFF76EFE380034D168460079E2
:10180000002804D1009810286AD10620FEBDE020EF
:10181000C04369460979491E062950D801A2525C85
:10182000974400BF08465462707E8C00A968084047
:10183000A86070004B4E30600122C821FFF74AFEBD
:10184000286880218901014329602868400403D465
:101850002068C003F9D50527002200210020FFF7EA
:1018600039FE38002CD03800FEBDA9680840202180
:101870000143A9603000DDE7A96808404021014329
:10188000A9607008D6E7A968084060210143A960F3
:10189000B008CFE7A968084080210143A960F0089B
:1018A000C8E7A9680840A0210143A9603009C1E741
:1018B000A9680840C0210143A9607009BAE7FEE7A2
:1018C0003021C9439F4832689F4B9A42026804D135
:1018D000114010220A43026004E01140016001E05F
:1018E000FFF760FD6846007AFF2822D00621C94331
:1018F000012803D06A461279032A06D1286E0140D6
:10190000042008432866012004E02A6E11400222C8
:101910000A432A66009910290BD18C496A4612792C
:10192000012A08D101280ED12A2008604868000742
:10193000FCD40020FEBD6A461279022A05D1012896
:1019400003D12920F1E70028FBD02820EDE7000093
:1019500048150060A40400200048E8010000404849
:1019600010E000E068030020F3B583B078487949BF
:10197000086079490861794F3868E021014339608E
:10198000002500240122C8217548FFF7A3FD7549F1
:1019900038690191400704D40868C003F8D50124D0
:1019A00001252E002500002200210020FFF792FDD6
:1019B0006D4C002D2ED030002BD100250122962118
:1019C00049006748FFF786FD6848796A01407962F7
:1019D000B96A0840B862A0686549014080200002E9
:1019E0000843A060E06860210143E16020681021A5
:1019F000014321602068800604D401980068C00378
:101A0000F8D50225002200210020FFF763FD280001
:101A100074D095E0A068574901408020C000084379
:101A2000A060B8693021884320210143B961A068D2
:101A3000802149010143A1604F4A50694F498842C2
:101A400019D110681168156813681B041B0F0293E5
:101A5000136801221E02FC239B053340EE091E255C
:101A600035400095CD01E021890129408501F02014
:101A70008000284007E0D00CC021490110220092CC
:101A8000F0235B050022E5683D4E2E403343E360C2
:101A9000E36880252D041D43E5601E23DB43002AF7
:101AA00009D0E2681A40029D6D001543E560E268C6
:101AB00001251543E560334A15682B40009D1D4301
:101AC0001560136801251D43156013682E4D1D40D8
:101AD00028431060106820230343136010682B4BC9
:101AE00003401943116010688021C900014311604F
:101AF000B869802149000143B9615EE76846047C0A
:101B0000FF2C02D00120FFF70BFD6846007B204927
:101B100080220A600A681F4B1340802292011A43F8
:101B20000A600A6870239A43302313430B60210034
:101B3000FFF73CFE010003D1FFF762FC62B6002014
:101B400005B0F0BD041000400090D00300500040EC
:101B50000000041008ED00E00400002004005048DC
:101B60000024F40010E000E000004048FFCFFFFF39
:101B7000FF7FFEFFFFF3FFFFE41E0010CCECBCFC78
:101B8000FFFFFFC0940050483FFCFFFFFFC7FFFF6F
:101B900098004048FFC0FFFF7047704710B5002411
:101BA000032000F013F9002801D0012401E0FFF721
:101BB00059F8200010BD704781B06F490A68024390
:101BC0000A60096808400090009801B0704710B59D
:101BD0000B004B4301685C00E418A14353430B43E3
:101BE000036010BD43688B43514319434160704704
:101BF00010B50B004B4381685C00E418A1435343CC
:101C00000B43836010BD30B5CB435C4C9025ED0594
:101C1000A8421AD1002A03D0022A0FD007D330BD20
:101C200020681840206060680340636030BD6068D1
:101C30000340636020680143216030BD2068034099
:101C4000236060680143616030BD002A03D0022A2E
:101C50000FD007D330BDA0681840A060E0680340F3
:101C6000E36030BDE0680340E360A0680143A16029
:101C700030BDA0680340A360E0680143E16030BD6F
:101C800038B5010018D10420FFF796FF9024E40531
:101C90004020A061012240212000FFF798FF02228E
:101CA00040212000FFF7A4FF002240212000FFF781
:101CB00099FF0122402121E0314C012805D1082063
:101CC000FFF77AFF80256D0006E0022819D1082071
:101CD000FFF772FF8025AD00A561012229002000D9
:101CE000FFF775FF022229002000FFF781FF002285
:101CF00029002000FFF776FF012229002000FFF7CE
:101D000082FF31BD010002D140201E4909E01E4979
:101D1000012802D18020400003E0022802D1802067
:101D2000800008607047010002D14020174909E097
:101D30001749012802D18020400003E0022802D187
:101D40008020800008607047010005D111480168BB
:101D500040224A40026070470F49012803D10868B9
:101D60008022520004E0022804D1086880229200F8
:101D700042400A6070470000500040482000504830
:101D800000001048280000482800104818000048AB
:101D900018001048140000481400104838B5050019
:101DA000FFF774F904000020C043854202D00448C4
:101DB00080682D18FFF76AF9001BA842FAD331BDDD
:101DC0005C0300207047704770477047F8B5060005
:101DD0000024104DA868002818D000F01DF8070056
:101DE000FA208000A968FFF735F901003800FFF7F5
:101DF00031F9FFF77BF9002808D1042E06D2310013
:101E00000020C043FFF765F96E6000E00124200068
:101E1000F2BD00BF5C03002001480068704700006D
:101E20006803002030B501684118446862088A18C8
:101E30008368E40704D54C461B1901E0641C06D1F5
:101E400091420BD00C7864B2491C0D78491C1D706E
:101E50005B1C002CF2D4641EF7D5F1E70C3030BDCA
:101E60007047704780B500F013F8FFF753F901BDD4
:101E700080B50248FEF744FA01BD0000700300205F
:101E800080B58021C9009020C005FFF753FA01BD3D
:101E90000248016882688918016070475C0300206D
:101EA00010B5074979441831064C7C44163404E0D7
:101EB000081D0A68891888470100A142F8D110BDA1
:101EC00008000000240000005DFFFFFFF00000009C
:101ED00018000000C00000204DFFFFFF820000003E
:101EE000BC0000005C030020FFF771FA002801D05D
:101EF000FFF7D6FF00BF00BF002000BF00BFFEF706
:101F000022FF00F000F880B500F002F801BD704734
:101F10000746384600F002F8FBE7704780B500BF7F
:101F200000BF024A11001820ABBEFBE726000200EA
:101F300000BF00BF00BF00BFFFF7D6FF704770476C
:101F400070477047704770477047704770477047D9
:101F50007047704770477047704770477047FC0084
:101F60000004FD000001FC000290D0038100EF009E
:101F70000020FC2A10554152545F54776F426F6124
:101F80007264735F4954FC2AFE20FC2A10554152AA
:101F9000545F54776F426F617264735F4954FC2AD7
:101FA000FE20FC2A10554152545F54776F426F61F6
:101FB0007264735F4954FC2A00208500810081000F
:081FC000810081008100DF00B7
:0400000510041F3193
:00000001FF
