:020000041004E6
:1000000000000120DD1F0410D11F0410D31F0410B5
:10001000AA5555AA45554C420000000000000000BA
:10002000000000000000000000000000D71F0410C6
:100030000000000000000000D91F0410DB1F0410A6
:10004000CB1204104B130410A3130410AF180410A8
:100050004F1F04105B1F0410A71F0410052004107D
:1000600007200410092004100B2004100D20041098
:100070000F20041011200410132004101520041068
:1000800017200410192004101B2004101D20041038
:100090001F20041021200410232004102520041008
:1000A0002720041029200410000000000000000098
:1000B0000000000000000000000000000000000040
:1000C000F0B5020052B2002A1CD40322B64B040041
:1000D00064B2A40804256C431C59FF251600064091
:1000E00008277E43B540AC438D01EDB2024008269F
:1000F000724395402543020052B2920804246243A1
:100100009D5022E00F24A94A032305006DB225402B
:10011000083DAD0804267543060076B23440083C1D
:10012000A408042674431659FF27BC461C0004404B
:1001300008277C436746A740BE438C01E4B20340D6
:1001400008277B439C4034435451F0BD00B5BFF3B6
:100150004F8F974897490860BFF34F8F00BFFDE767
:1001600095480168802252020A4302607047924813
:100170000068410C0800C007C00F70478F498022FB
:100180000A600A688E4B134002021A430A607047E5
:100190008A490A6870239A4302430A607047CD492E
:1001A0000A68CD4B134002061A430A600A6880238E
:1001B0001B0413430B60704780B5CD4801680222D1
:1001C0000A430260002100910099062904DA00BF69
:1001D0000099491C0091F7E7016804220A43026074
:1001E00001BDC3490A68C34B134003430B6070470A
:1001F0007148016810220A43026070476E48006827
:1002000041090800C007C00F7047B2490A6860235F
:100210009A4302430A607047AE490A681E239A4314
:10022000430013430B600A68012313430B607047BC
:10023000B1490A6806239A4302430A607047AC49F1
:100240000A68AE4B134003430B607047A8490A6825
:10025000AB4B134003430B60704757480168802243
:1002600092010A430260704753480068810B0800FE
:10027000C007C00F70479E490A68E0239A430243B3
:100280000A607047D1490A6802430A607047D04843
:10029000006881080800C007C00F7047CD490A6890
:1002A000CD4B134003430B607047CA490A683023A3
:1002B0009A4302430A607047C8490A6882430A6049
:1002C000C7490A6882430A60704710B4C5490A6882
:1002D000C54B1340C202E024A40114401C430C602F
:1002E0000A688023DB0013430B6010BC704710B416
:1002F000BC490A68D14B13408201F024A400144089
:100300001C430C600A68202313430B6010BC704729
:1003100010B4B4490A681E239A4343001E241C40AB
:1003200014430C600A68012313430B6010BC704730
:10033000426830239A430A434260704781B06E4955
:100340000A6802430A60096801400091009901B0FF
:100350007047BB490A6802430A607047B8490A6897
:1003600082430A6070478020C00500680007000FC4
:1003700070478020C005006800090007000F704723
:1003800080B5B048006800280BD1AF48006800284D
:1003900007D00120AD49886000F090FCFFF7D6FE41
:1003A000FCE7012002BD000000E400E01CED00E0DD
:1003B0000400FA050CED00E00000404898004048B9
:1003C000FFC0FFFF80B503210020FFF779FE032166
:1003D0000120FFF775FE03210220FFF771FE0321C4
:1003E0000320FFF76DFE03210420FFF769FE0321C0
:1003F0000520FFF765FE03210620FFF761FE0321BC
:100400000720FFF75DFE03210820FFF759FE0321B7
:100410000920FFF755FE03210A20FFF751FE0321B3
:100420000B20FFF74DFE03210C20FFF749FE0321AF
:100430000D20FFF745FE03210E20FFF741FE0321AB
:100440000F20FFF73DFE03211020FFF739FE0321A7
:100450001120FFF735FE00211220FFF731FE0321A6
:100460001320FFF72DFE03211420FFF729FE03219F
:100470001520FFF725FE03211620FFF721FE01219D
:100480001720FFF71DFE00211820FFF719FE03219A
:100490001920FFF715FE01BD70B504000D00160010
:1004A0003000C0B200280FD02000FA21890000F0EF
:1004B00006FC401E684366490860002065490860E4
:1004C00005206549086004E0634801680122914302
:1004D000016070BD0C004048FFFFFFC000B55E48E2
:1004E0000068C00301D5012000E0002000BD00002D
:1004F00008004048FF7FFEFF60004048FFEFFFFF1D
:10050000FFF3FFFFFEB500263000694608700122A8
:10051000C8215248FFF7C0FFFFF7B9FE002806D1F7
:10052000FFF7DCFF0028F7D00120694608700022A1
:1005300000210020FFF7B0FF68460078002802D0B5
:100540006846007841E08020C000FFF77FFE202051
:10055000FFF7ABFE80204001FFF771FE5A480068AC
:100560005A49884215D10F203D490A68024002923B
:100570000A68120957077F0F0A68140A04400A68BC
:10058000120B104001900868000C8506AD0E012684
:1005900003E00824029403271E252800FFF7FFFD2F
:1005A0003000C0B2002802D00198FFF735FE2000CD
:1005B000FFF7AEFE0298FFF79AFE3800FFF785FEC0
:1005C00080204000FFF76AFE0020FEBD0400504876
:1005D000140050481C005048FFFEFFFF2800504800
:1005E0002C00504894005048FFC7FFFF10B500246E
:1005F0000122962149001948FFF74EFFC0208001D3
:10060000FFF75AFE80200002FFF7EBFD6020FFF7A6
:10061000FCFDFFF7EDFDFFF7F1FD002805D1FFF729
:100620005DFF0028F7D002200400002200210020F6
:10063000FFF732FF2000C0B210BD00003FFCFFFFFB
:1006400040004048940040481000504804000020FA
:1006500014E000E018E000E010E000E00024F40006
:10066000E41E0010F1B586B06846007E00280ED06A
:100670002020FFF700FE0220FFF7DAFD0120FFF740
:1006800068FE0120FFF76AFE0120FFF757FE0E48C3
:1006900000680E4988421BD10F21CF480268120A18
:1006A0000A4004920268140B0C400268120C1140BC
:1006B000039107210268120D0A4002920068000EA1
:1006C00001400191012508E0F81E0010CCECBCFCB3
:1006D000082004900724039000250F20BF490968D3
:1006E0000F229143039A02400A43BC490A60BC4965
:1006F0000968F02291432201F02313400B43B849CB
:100700000B60B74909680F229143049A10400843CF
:10071000B34908602800C0B2002811D0B148016870
:1007200007229143029A5207520F0A43026001685E
:1007300038229143019AD200382313400B430360BF
:10074000A94801683F2291430A220A4302600168D6
:1007500040220A430260A54801683F2291430422D7
:100760000A430260016880220A4302600168402255
:10077000914301609E4801683F22914301609D487A
:1007800001683F22914310220A4302609A4801689F
:100790003F22914320220A430260984801683F2289
:1007A000914330220A430260954801683F229143F9
:1007B00038220A430260934801683F22914339225C
:1007C0000A430260904801683F2291433A220A435B
:1007D00002608E4801683F2291433B220A43026037
:1007E0008B4801683F2291433C220A4302608948BA
:1007F00001683F2291433D220A4302605520864909
:100800000968FF2291430143834A116083490968C3
:10081000FF22914366220A4380490A6080490968A1
:10082000FF22914308437E4908607E480068FF210B
:1008300088431D2101437B4801607B480068FF21FC
:100840008843592101437848016078480068FF21B6
:1008500088432D21014375480160012674480068D2
:10086000304373490860FFF784FD0701FFF77BFD04
:10087000384305900598202800D2ABE000210800FD
:100880006C4A33000700FFB2D355401C5E230700BB
:10089000FFB2D355401C514B1B680700FFB2D35524
:1008A000401C33000700FFB2D355401C5D230700F6
:1008B000FFB2D355401C4A4B1B680700FFB2D3550B
:1008C000401C2B00DBB2002B0FD033000700FFB21F
:1008D000D355401C52230700FFB2D355401C414B57
:1008E0001B680700FFB2D355401C33000700FFB25E
:1008F000D355401C12230700FFB2D355401C464B72
:100900001B680700FFB2D355401C33000700FFB23D
:10091000D355401C15230700FFB2D355401C3F4B55
:100920001B680700FFB2D355401C33000700FFB21D
:10093000D355401C1A230700FFB2D355401C384B37
:100940001B680700FFB2D355401C33000700FFB2FD
:10095000D355401C22230700FFB2D355401C314B16
:100960001B680700FFB2D355401C33000700FFB2DD
:10097000D355401C21230700FFB2D355401C2A4BFE
:100980001B680700FFB2D355401C33000700FFB2BD
:10099000D355401C23230700FFB2D355401C234BE3
:1009A0001B680700FFB2D355401C0300DBB2D654CE
:1009B000401C1B230600F6B29355401C1C4B1B68C1
:1009C0000600F6B29355401C0300DBB2D154401C24
:1009D0006946087007B0F0BDE81E00107816006088
:1009E0007416006048160060C0160060C4160060EF
:1009F000E8160060EC160060F0160060F416006067
:100A0000F8160060FC160060001700600417006014
:100A1000081700600C17006048150060541500604E
:100A20006815006088150060841500608C150060F2
:100A30006C15006088000020F8B506000F00002546
:100A4000FFF797FC0401FFF78EFC204300908D4CCC
:100A5000012264212000FFF71FFDFFF781FBFFF754
:100A600086FB002805D1FFF739FD0028F7D00420C8
:100A70000500002200210020FFF70EFD2800C0B273
:100A8000002802D02800C0B2BCE03000C0B200286C
:100A900004D10098102801D10620B3E03000C0B284
:100AA00000286BD03000C0B201280AD039D3032807
:100AB00014D00DD305281FD017D307282AD022D34E
:100AC0002FE00020FFF7D7FB6F487049086029E04E
:100AD0002020FFF7D0FB6D48046023E04020FFF7A3
:100AE000CAFB6B48694908601CE06020FFF7C3FB44
:100AF00068486649086015E08020FFF7BCFB66483F
:100B0000624908600EE0A020FFF7B5FB63485F492B
:100B1000086007E0C020FFF7AEFB61485B49086052
:100B200000E0FEE7594C0122C8212068FFF7B4FC21
:100B3000FFF793FBFFF798FB002805D1FFF7CEFCEA
:100B40000028F7D005200500002200210020FFF733
:100B5000A3FC2800C0B2002802D02800C0B251E097
:100B600020684949884204D110214E48FFF7E0FB34
:100B700006E000214B48FFF7DBFB01E0FFF71CFB21
:100B80003800C0B2FF2801D100203BE03800C0B2DD
:100B9000012803D03000C0B2032805D10420FFF79C
:100BA00047FB0120070002E00220FFF741FB00980D
:100BB000102826D13000C0B2012807D13800C0B2B9
:100BC000012803D12A203849086016E03000C0B25D
:100BD000012803D13800C0B2002807D03000C0B2CD
:100BE000022807D13800C0B2012803D129202E499C
:100BF000086002E028202C4908602C4800680007A3
:100C0000FBD40020F2BDF8B507000C0028482949A4
:100C1000086029490861E020FFF734FBFFF772FC08
:100C200006003000C0B2002802D03000C0B228E078
:100C3000FFF7DCFC05002800C0B2002802D0280025
:100C4000C0B21EE02000C0B2FF2802D00120FFF792
:100C500009FD2020FFF792FA3020FFF799FA2100D2
:100C6000C9B23800C0B2FFF7E7FE06003000C0B2DC
:100C7000002802D03000C0B203E0FFF7A3FB62B649
:100C80000020F2BD0048E8010090D00334000020AD
:100C90000024F40000127A0000093D0080841E0048
:100CA00040420F000010004000500040045000403F
:100CB0000000041008ED00E004000020704700224E
:100CC000030A8B420BD203098B4219D243088B4291
:100CD0002ED2411A00D20146524110467047FF22DF
:100CE00009023FD012068B4205D3121209028B4231
:100CF00001D31212090203098B4219D300E0090A39
:100D0000C3098B4201D3CB01C01A524183098B42E4
:100D100001D38B01C01A524143098B4201D34B01CD
:100D2000C01A524103098B4201D30B01C01A524130
:100D3000C3088B4201D3CB00C01A524183088B42B7
:100D400001D38B00C01A524143088B4201D34B00A0
:100D5000C01A5241884200D3401A5241CFD20146B4
:100D60001046704708B500F001F808BD7047430011
:100D7000F0B597B0050016001F001C986A460023C6
:100D8000002418C2059104A92B2288540B930395C3
:100D90000F960EE023000F9A04A9039800F07AFA48
:100DA000002800D5D8E001E0F4D501240F980019FF
:100DB0000F900F980078252809D1002008900990FD
:100DC0000A9002240821029104210F9D0CE06A463A
:100DD0000021C9430F9800F0A7FA0400E4D10B9852
:100DE000BCE00200012010436D1C2A78202AF8D0B4
:100DF000232A0AD02B2A04D02D2A04D0302A07D047
:100E000009E02043F0E70843EEE702000820EAE7A4
:100E100002001020E7E72A2A0CD13B681A681B1D44
:100E20003B600D92002A03D553420D930143080005
:100E30006D1C14E000210D91004A0BE0CBCCCC0CD2
:100E40000D9B934205DA9E00F3185B005918303968
:100E50000D916D1C29780B00303B0A2BF0D32978BB
:100E60002E2903D00021C9430C9125E06D1C29785F
:100E70002A2906D139680A68091D39600C926D1C4F
:100E80001AE02D2902D12D236D1C00E00023002142
:100E90000C910CE0002B09D10C9AB84EB24205DA45
:100EA0009600B2185200511830390C916D1C2978F7
:100EB0000A00303A0A2AEDD304A908852E783100B9
:100EC000AFA000F039FA002801D06D1C00E0002628
:100ED00004A82A214654405C682807D1287868284D
:100EE00004D1622004A92A2288546D1C11A80790FD
:100EF0002A78681C0F90252A13D0582A4FD0632ACD
:100F000000D1B1E0642A79D0692A77D06F2A46D01F
:100F1000702A3BD0732A0AD0752A40D0782A3ED056
:100F2000ABE001200890252011A90870AFE03868D7
:100F30000468001D38600694002C14D104A82B21ED
:100F4000405C00280CD00024E44300BF8EA000F0D9
:100F5000FDF9201A00D19AE00020C04317B0F0BD7F
:100F600090A0069093E00C9D002D03D5200000F08A
:100F700011FA09E02A000021200000F013FA0028ED
:100F800001D0001B00E02800099080E0386801686B
:100F9000001D3860049111A80690782160E004AB30
:100FA0002A20185C622803D0682807D06C280BE040
:100FB00039680868091D3960C0B209E039680868F5
:100FC000091D396080B203E039680868091D39607D
:100FD0000490188D0299C0B208423CD004980028B1
:100FE00039D020201043782835D1089811A9302312
:100FF0000B54401C431C08930A542CE004AB2A20D9
:10100000185C622803D0682807D06C280BE0396888
:101010000868091D396040B209E039680868091D8F
:10102000396000B203E039680868091D396004902E
:10103000002802D508982D2109E0188D204202D001
:1010400008982B2103E0C00705D50898202111AB93
:101050001954401C089011A80899401806901100D6
:1010600004A800F0A0F812E0012008903868016898
:10107000001D386011A8017009E0012008902520AA
:1010800011A90870100002D0089411A842700D98A0
:101090000899401A0A99401A0999401A109004A810
:1010A0002821405C400713D420206946087210981C
:1010B00000280DDD109C039D012302AA04A928002D
:1010C00000F0E8F8002800D046E7641EF4D103954C
:1010D000089D11AC002D0ED0039E21780598B047D5
:1010E0000590002800D137E70B98401C0B90641C3A
:1010F0006D1EF2D103963020694608720A9C002CBE
:101100000CDD039D012302AA04A9280000F0C2F807
:10111000002800D020E7641EF4D10395069C099DA9
:10112000002D0ED0039E21780598B0470590002829
:1011300000D111E70B98401C0B90641C6D1EF2D17E
:10114000039604A82821405C400700D431E6202003
:10115000694608721098002800DC2AE6109C039D5E
:101160000F9E012302AA04A9280000F093F800288A
:1011700000D0F1E6641E00D109E6F2E7CBCCCC0C3E
:10118000686C747A4C0000007072696E74665F73EC
:101190003A2062616420257320617267756D656E07
:1011A000740000000000F0B583B00A00C4686F2925
:1011B00001D1082506E020211143782901D00A2514
:1011C00000E01025182701680E00642A01D0692A62
:1011D00003D1002901D571420E00002E0CD1016A05
:1011E000002909D1082D31D12821415C09072DD5CD
:1011F00017273021E17529E00290684602707F1EB2
:10120000019730002900FFF75AFD3031C8B23A2863
:1012100003DB6846007851380918E1553000290091
:10122000FFF74DFD060004D002988068E11988425E
:10123000E5D30298082D09D12821415C090705D57D
:10124000E15D302902D07F1E3021E1551821C91BF4
:101250004161E2198260026A914206DA511A8161A3
:10126000018D0B4A0A40028510E0002A0ED5282283
:10127000825C14231340102B08D1426A0369D21AEE
:101280008369D21A511A012900DB816103B0F0BDD4
:10129000EFFF0000F8B50024002B11D007000E006E
:1012A00014001D0021787068B8477060002809D0CC
:1012B000F069401CF0610020641C6D1EF2D1040036
:1012C0002000F2BD0020C043F9E7704730B45368F6
:1012D000D41803E05B1C491E641C401C042B06DA76
:1012E000002904D0057825700578002DF2D15360CF
:1012F00030BC704738B500290ED01D001400FFF730
:10130000E5FF616820006A6B90470122D243811A91
:1013100002D0491E02D004E0012000E00020C043BA
:1013200032BD0021616032BD80B5024BFFF7E2FFA4
:1013300002BD000038000020C9B202788A4203D002
:10134000401C002AF9D100207047704780B5002862
:1013500001D100BF07A006490B68002B03D0222251
:101360000021984701E000F028F8222002BD00008B
:10137000A8000020636F6E73747261696E742068D8
:10138000616E646C65723A20626164206D6573738E
:1013900061676500431C0178401C0942FBD1C01AFB
:1013A00070477047C9B2521E05D30378401C8B4268
:1013B000F9D1401E70470020704780B5012000F031
:1013C00001F801BD80B500BF00BF024A110018201E
:1013D000ABBEFBE72600020000B5010049B20029C0
:1013E00005D40121C206D20E9140B94A116000BD58
:1013F000F0B5020052B2002A1CD40322B54B0400FF
:1014000064B2A40804256C431C59FF25160006404D
:1014100008277E43B540AC438D01EDB2024008265B
:10142000724395402543020052B29208042462435D
:101430009D5022E00F24A84A032305006DB22540E9
:10144000083DAD0804267543060076B23440083CDA
:10145000A408042674431659FF27BC461C00044008
:1014600008277C436746A740BE438C01E4B2034093
:1014700008277B439C4034435451F0BD81B09749C9
:101480000A6802430A60096801400091009901B0AE
:10149000704781B092490A6802430A6009680140B6
:1014A0000091009901B070478E490A6882430A6032
:1014B0008D490A6802430A6070478B490A68824373
:1014C0000A6088490A6802430A60704786490A68C8
:1014D00082430A6083490A6882430A607047C849A8
:1014E0000A6882430A60C7490A6802430A60704773
:1014F000C4490A6882430A60C1490A6802430A6013
:101500007047C0490A6882430A60BD490A6882433D
:101510000A60704730B403680C004C4303256C43E9
:10152000A3430C004C4354431C43046030BC70473D
:1015300010B443688B430C0054431C43446010BCFC
:10154000704730B483680C004C4303256C43A343BD
:101550000C004C4354431C43846030BC704770B54E
:1015600004000D0016009020C005844211D1002E09
:1015700003D0022E09D004D31CE02800FFF7A6FFF9
:1015800018E02800FFF790FF14E02800FFF795FF10
:1015900010E0002E03D0022E09D004D30AE0280068
:1015A000FFF7AFFF06E02800FFF799FF02E02800F1
:1015B000FFF79EFF70BD30B4446A0B0A0D0A6B43FF
:1015C0000D0A6B430D0A6B430F256B439C430B0ABB
:1015D0000D0A6B430D0A6B430D0A6B4353432343C0
:1015E000436230BC7047016801220A4302607047C1
:1015F0000168802292050A43026070478268D20027
:10160000D2084B0713438360704782688B4B1340AB
:101610004A061A438260704702680C239A430A43C1
:101620000260704730B40468854D254015430D4372
:1016300005604468834D25401D43456030BC7047BC
:101640008268814B13400B4383607047FCB50400F4
:101650000D0016001F008020000286421DD17B482D
:101660007B492A0092B202235343C95AFFF727FB52
:1016700002214843790840183900FFF720FB80B267
:101680000090009973480840009949084907490F9C
:10169000084301900198E0600FE06C486C492A0013
:1016A00092B202235343C95AFFF709FB7908401845
:1016B0003900FFF704FB80B2E060F3BD4168664A81
:1016C0000A40426081682A2291438160704700008D
:1016D00000E100E000E400E01CED00E050004048C4
:1016E000580040482400504820005048C069C109B3
:1016F0000800C007C00F7047016820220A4302603B
:1017000070470A00D2B28262704770B506000420AA
:10171000FFF7B4FE9024E4058025AD0002222900E5
:101720002000FFF7F7FE022229002000FFF709FF43
:10173000002229002000FFF7FBFE012229002000E3
:10174000FFF70DFF002229002000FFF734FF0420DF
:10175000FFF794FE80256D00022229002000FFF78C
:10176000D9FE022229002000FFF7EBFE002229000B
:101770002000FFF7DDFE012229002000FFF7EFFE29
:10178000002229002000FFF716FF8020C000FFF78D
:1017900080FE324CE1235B02002200212000FFF793
:1017A00055FF0023002200212000FFF73BFF0C2102
:1017B0002000FFF731FF00212000FFF741FF00214B
:1017C0002000FFF722FF00212000FFF717FF200075
:1017D000FFF70EFF2000FFF771FF2000FFF703FF68
:1017E000300000280BD01E4806602000FFF784FF61
:1017F00001210820FFF7FCFD0820FFF7EDFD70BD7B
:101800002C00504828005048F8B507000E0000246E
:1018100020003100C0B2C9B288420DD20F4D28005D
:10182000FFF764FF0028F9D02000C0B2395C28001F
:10183000FFF767FF641CEBE7F1BD0000FFFFFFF15E
:10184000FFE9FFEFFFCFFFFFFFFCFFFF0024F400E5
:10185000781F0410F0FF0000FFB7FFFF00400041B9
:1018600080000020F8B507000C0016000025012FAD
:1018700004D0022F02D00020C0430FE0002C01D181
:1018800000200BE03000461E002806D00121200079
:10189000FFF7BAFF641C6D1CF4E72800F2BD01B528
:1018A000012269460120FFF7DDFF009802BD704765
:1018B000F0B5020052B2002A1CD40322B14B04003E
:1018C00064B2A40804256C431C59FF251600064089
:1018D00008277E43B540AC438D01EDB20240082697
:1018E000724395402543020052B292080424624399
:1018F0009D5022E00F24A44A032305006DB2254029
:10190000083DAD0804267543060076B23440083C15
:10191000A408042674431659FF27BC461C00044043
:1019200008277C436746A740BE438C01E4B20340CE
:1019300008277B439C4034435451F0BD82681823F0
:101940009A430A4382607047826860239A430A433D
:1019500082607047826880239A430A43826070479E
:10196000016170474161704701607047020011805A
:101970007047017070470068704781B083490A68FA
:1019800002430A60096801400091009901B0704764
:10199000816170478162704742694A404261704785
:1019A00070B5FF210220FFF72EF9002800D0FEE7D6
:1019B00000F036F87648006800F019F90020FFF7CB
:1019C000A4FE00F050F800F032F8724800F030F950
:1019D0000025272D1CDA70A000F02AF96F4E704CFC
:1019E000615D300000F024F96D1C615D300000F095
:1019F0001FF96D1C615D300000F01AF96D1C615D0E
:101A0000300000F015F967A000F012F96D1CE0E756
:101A1000272000F045F86449086000F080F8FEE7F0
:101A200080B501210020C043FFF742FF01BD10B582
:101A300080204001FFF7A1FF5C4C00212000FFF750
:101A400083FF00212000FFF785FF59492000FFF7A1
:101A500089FF00212000FFF771FF0021C94320000A
:101A6000FFF77EFF10BD38B586B00820FFF785FF71
:101A7000504C80256D0029002000FFF789FF00955C
:101A800001200190002002900390049069462000FC
:101A900000F093F929002000FFF77AFF07B030BD6E
:101AA000F8B50700002400942000B80884421CD236
:101AB0003B48042161434118C9780A060421614367
:101AC000411889780904114304226243821852782C
:101AD00012020A4304216143405C104300900099C4
:101AE0003248FFF741FF641CDFE7304E2C4D0420E5
:101AF000604328184078010204206043285C0143B9
:101B000089B23000FFF732FF042060432818817843
:101B10003000FFF72EFF3000FFF72DFFF2BD38B584
:101B2000254C214D28682168884204D0FA20800085
:101B300000F01CF812E000F012F8204800F078F8ED
:101B400029681F4800F074F821681E4800F070F8FA
:101B50001D4800F06DF813A000F06AF831BD80B5A3
:101B6000802149001348FFF715FF01BD10B504009F
:101B7000802149000F48FFF70FFF200000F03FF8D9
:101B8000F6E7000000E400E01CED00E050004048F3
:101B900034000020F41F041030780000FC1F0410F3
:101BA000B81E04100A0D0000840000200000204828
:101BB000B71DC10400001048300000208C1E041026
:101BC000A81F04105C1F0410BC1F041030B50400D3
:101BD0000D0020002900FFF772F8401E114908602F
:101BE00000201149086007201049086030BD10B579
:101BF0000400FA2189002000FFF7E8FF10BD80B53E
:101C000002000A490B680093009B0023DB439A42C1
:101C100000D0521C002A04D00B68DB03FAD5521EF8
:101C2000F8E701BD14E000E018E000E010E000E09B
:101C30000EB4C0B5020003A801900020009001ABD3
:101C40000121044878440C30FFF792F8029906B05D
:101C5000084700BF3D03000079490A6882430A60D3
:101C600078490A6802430A60704776490A688243E5
:101C70000A6073490A6802430A60704771490A683A
:101C800082430A606E490A6882430A6070476E495F
:101C90000A6882430A606D490A6802430A60704715
:101CA0006A490A6882430A6067490A6802430A600F
:101CB000704766490A6882430A6063490A6882433A
:101CC0000A60704730B403680C004C4303256C4332
:101CD000A3430C004C4354431C43046030BC704786
:101CE00010B443688B430C0054431C43446010BC45
:101CF000704730B483680C004C4303256C43A34306
:101D00000C004C4354431C43846030BC704770B596
:101D100004000D0016009020C005844211D1002E51
:101D200003D0022E09D004D31CE02800FFF7A6FF41
:101D300018E02800FFF790FF14E02800FFF795FF58
:101D400010E0002E03D0022E09D004D30AE02800B0
:101D5000FFF7AFFF06E02800FFF799FF02E0280039
:101D6000FFF79EFF70BD30B4036A0C004C434C4338
:101D70004C430F256C43A3430C004C434C434C4352
:101D800054431C43046230BC704730B4446A0B0AAD
:101D90000D0A6B430D0A6B430D0A6B430F256B4312
:101DA0009C430B0A0D0A6B430D0A6B430D0A6B43F0
:101DB00053432343436230BC7047F8B506000C0020
:101DC00000252068E84000282DD020680121A94086
:101DD00001400F00002F24D0606802280CD1FF2F93
:101DE00005D8626939003000FFF7BDFF04E0626981
:101DF00039003000FFF7C9FF626839003000FFF793
:101E000061FF6068012802D06068022804D1A268DE
:101E100039003000FFF76DFF226939003000FFF70D
:101E200076FF6D1CCDE76068012802D0606802284B
:101E300004D1E26821683000FFF752FF0020F2BDB4
:101E400024005048200050482C005048280050489A
:101E500030B501684118446862088A188368E4074D
:101E600004D54C461B1901E0641C06D191420BD0ED
:101E70000C7864B2491C0D78491C1D705B1C002C49
:101E8000F2D4641EF7D5F1E70C3030BD436F6D70AE
:101E900061726520746865204352432076616C75D9
:101EA0006520746F2074686520457870656374657B
:101EB00064206F6E650A0D0021100000633042201F
:101EC000A5508440E770C6604AA129918CC16BB1CE
:101ED000CEE1ADD13112EFF152227332A1B2C30083
:101EE00010B5074979441831064C7C44163404E097
:101EF000081D0A68891888470100A142F8D110BD61
:101F0000080000002400000049FFFFFF4601000018
:101F100018000000C000002039FFFFFF0E01000084
:101F20003600000030000020FEF72AFA002801D019
:101F3000FFF7D6FF00BF00BF002000BF00BFFFF7C4
:101F40002FFD00F000F880B500F002F801BD7047E9
:101F500007463846FFF736FAFBE77047252358094E
:101F60007577457870656374656443524356616C58
:101F700075650A0D00000000010002000400060063
:101F800008000A000C001000200040008000000142
:101F900038B505000C002000FFF781FCA04200D0FE
:101FA0000025280032BD7047252358097577435214
:101FB0004356616C75650A0D000000005269676840
:101FC00074204352432076616C75652E0A0D000023
:101FD000704700B5FEE770477047704700BF00BF0D
:101FE00000BF00BFFFF7A0FF0078401E8041C04344
:101FF000C00F7047446174613A0A0D0025303258B1
:102000000000000070477047704770477047704786
:102010007047704770477047704770477047704708
:10202000704770477047704770470C436086A9003F
:1020300090D0036E0D041001D10003E91F0410F8C5
:10204000000001CD000000000000000000000000C2
:0E205000000081008100810081008100DF001E
:0400000510041FDDE7
:00000001FF
