:020000041004E6
:1000000000000120B1140610BDFB0510C9FB05104E
:10001000AA5555AA45554C420000000000000000BA
:10002000000000000000000000000000D5FB0510EB
:1000300000000000000000006B6A0410D7FB0510F0
:10004000EB6F0410FF71041027750410BF980410A3
:100050002B9A04106B9A0410DF9B041007A3041062
:10006000D9FB051043B3041063B3041033B5041077
:100070005FB60410FFBA04105BBB0410E3FB05106D
:1000800093C20410E1FB051009FC051063C60410BF
:10009000F5FB051087C80410D3C90410EDFB05104B
:1000A000E5FB0510A3CE04100000000000000000D6
:1000B0000000000000000000000000000000000040
:1000C000FEB51C00089FBE4D6B4658706846017017
:1000D00016001CE00422A9192C3101A801F016F920
:1000E000002F0FD101A8C07869464978884209D10C
:1000F0006846007806280FD06846007801A98978FC
:10010000884209D0684680883618B6B20027688DC4
:100110008642DFD10020FEBD002C00D026800120C9
:10012000FEBDA84A514380081B224243881825304F
:100130007047F8B584B004000F001600A04D607B36
:10014000002802D12A8D002300E0E289009301AB50
:1001500001212078FFF7B4FF002801D1042019E025
:100160000120607368468088E081684680882C188A
:10017000062221002C3102A801F0C8F820003230FC
:10018000386068460089801F308002A800790A998B
:100190000870002005B0F0BD7CB5894D298D6A46F8
:1001A00091800021060019E0684680882C180422FE
:1001B00021002C31684601F0A9F800F074FC694672
:1001C0000988421A61182C3120002C3001F0EAF81D
:1001D000688D69460988401A68850121009101AB44
:1001E0006846828806213000FFF76AFF0028DBD1CD
:1001F00073BD016800220281428182730B78FF2B5C
:1002000005D0FE2B09D103895B1C03810AE04268FB
:10021000511A091F818100207047002B0DD143899D
:100220005B1C43814A88D21C032313435B1CC918FF
:100230004A1D43689A42E1D3EDE703207047FCB5BD
:1002400085B00D9F427B002A1BD10C9A130005D06C
:1002500002AB5A80FE221A7002AD00E04568426887
:1002600083689A4215D26A4691712978FF29544EC3
:1002700001D10EE020000021027B002A12D0017380
:100280001EE000970123069A0599FFF752FF002808
:1002900047D0042045E0032043E06A786B469B7911
:1002A0009A4216D042686B88DB1C03241C43641CF2
:1002B0001519456082689542E3D22A78FF2AE0D07A
:1002C0002A78002AEED0FE2AE5D16A469279FF2AE2
:1002D000E3D1328D6B469A8004000CE00822684618
:1002E000808831182C3103A801F010F80498616857
:1002F0008842BFD00121009101AB6846828802216B
:100300002078FFF7DDFE0028E8D16068001D059920
:100310000860688806990880002F01D068783870D6
:10032000002007B0F0BD7FB515001C00099E00221B
:1003300032800B9A01926A46128D009202AB03AA98
:10034000FFF77DFF010013D1694609898D4201D372
:1003500006200DE0089A481B904200DA02002000B7
:100360000399491900F0D2FF6846008930800020C7
:1003700004B070BDFEB5B44D0D40491B6B461970FD
:100380000024070016000AE00422311901A800F039
:10039000BDFF019A3919AD4801F01CF8241DAC428B
:1003A000F2DB0020C043019068460278711901A871
:1003B00000F0ACFF019A7919A44801F00BF8F7BDE1
:1003C0007C0A002034230000F6B585B00E001C0026
:1003D00025000027FF43417B002918D00021009110
:1003E000002301AA921C02A9FFF7A3FE00283AD11C
:1003F0006846C088801B80B2A04246D32A0002987B
:100400008119069801F01EF800283FD03DE04168B0
:1004100002918268914202D20978FF2901D1042019
:1004200034E0027B002A1ED1FE291CD18849098DA7
:100430006A46918004000120009001AB68468288E2
:1004400002212078FFF73CFE00280ED008228048C9
:100450006946898841182C3103A800F057FF049899
:1004600061688842E7D1052010E0029949888E42F0
:1004700001D306200AE020732A006068001D81195C
:10048000069800F0DFFF002800D0380007B0F0BD6C
:10049000FFB585B000270E9A178069460C8C417B0A
:1004A000002919D0009700230E9A01A9FFF741FEF9
:1004B000002846D10E9800886946098B421A684682
:1004C000008C824200DB220001986946098B4118AA
:1004D000079800F01BFF50E00F990A0005D002AA10
:1004E0005180FE21117002AD00E0456841688268CC
:1004F000914202D22978FF2901D104203EE0027BFB
:10050000002A1ED1FE291CD15149098D6A469180CD
:1005100006000120009001AB6846828802213078F5
:10052000FFF7CEFD00280ED0082249486946898889
:1005300041182C3103A800F0E9FE04987168884244
:10054000E7D105201AE06846008B6988884201D30C
:10055000062013E037736846008B69880A1A6946DB
:10056000098C8A4200DB22007168091D091807986E
:1005700000F0CCFE68880E990880002009B0F0BD1C
:1005800038B5050000210420FFF7CBFDEFF3108400
:1005900072B600F071FF002803D184F310880720A1
:1005A00032BD2900FF22D243284800F013FF84F314
:1005B0001088002032BDF8B507000E00150000F0CD
:1005C00041FF00281BD0681EB3490143491C4B035F
:1005D0001B0EB2483818C20A00211C4800F00CFF5C
:1005E00000240AE06010800F00198010800032584B
:1005F0003919164800F0EEFE241DAC42F2D3F1BDCD
:1006000070B506000D00EFF310840DE00123327881
:1006100000210E4800F0F0FE84F310883078401C72
:1006200030702878401E2870287800280BD00121CF
:100630000020FFF776FD72B600F01EFF0028E5D11E
:1006400084F31088072070BDFCFF000000100040FC
:100650007C0A0020012101700021418081807047C7
:10066000F8B58AB005000E0017001C0000200090AD
:10067000FF223900300000F09BFFFE20694608761B
:10068000099508960794109D009C06AE1AE06846EE
:10069000008A6988401A401E03240443641CA4B2E3
:1006A00068886946098A091A4A1E03211143491CB0
:1006B00089B2059A8A4244DB01209142287049D0D0
:1006C00000206880381B001F80B205902878002821
:1006D00028D0701C0390A888029004A80190059867
:1006E00080B200900898001D03190022FF2109988C
:1006F000FFF719FE6946098AA98001000ED16846F4
:10070000008A7080042206A90898001900F0FEFDF6
:100710007088C01C032101436418BFE707990C804F
:100720000BB0F0BDA888019004A80090059883B292
:100730000898021969880998FFF7AAFE0100A6D057
:10074000EEE7002129700599401868800798078016
:100750000020E5E70020F8E7F1B58B488544002745
:10076000CA48842109016944097814225143411877
:1007700001914989002901D100208AE000970023D6
:10078000028D06218420000168440078FFF798FC60
:10079000002801D009207CE0202000F08AF9002800
:1007A00001D1082075E006A9842000016844007882
:1007B00000F018FB079C04A8FFF74CFFEFF310862E
:1007C00004A803C80AAA03C20CA806A9102200F0B4
:1007D00083FD04A8009003AB8022120110A906A893
:1007E000FFF73EFF0500042D08D0002D51D16846CB
:1007F0008089802109018842E2D103E0684680892E
:10080000002816D0012168468089FFF78AFC72B65D
:1008100000F032FE002829D06846828910A9200005
:10082000FFF7C9FE86F310880127F8022418002D6F
:10083000C6D00898401E18490143491C081BC00A2D
:100840006946487015482018C00A0870491C684657
:10085000FFF7D6FE072819D1684642780178842030
:1008600000016844007800F0AFF912E086F31088C8
:10087000002F01D107200CE00AA803C801900291C3
:1008800000940CA80FC800F070F902E00198FFF77F
:10089000B0FCCB498D44F0BDFF0700000000FCEF29
:1008A000F8B5C84CA54480273F010500EFF310863A
:1008B00002A829001831062200F028FD04A8291DED
:1008C000102200F009FD28001830009001AB3A001A
:1008D00008A9281DFFF7C4FE040068468088B842B6
:1008E00005D0002CE4D068468088002816D000216E
:1008F00068468088FFF715FC72B600F0BDFD002841
:1009000029D06846828808A96869FFF754FE86F3F3
:1009100010886869C0196861002CC9D0E868401E59
:10092000791E0143491C6869081AC00A6946487063
:100930006869B4494018C00A69460870491C68468D
:10094000FFF75EFE072815D16846427801782879BE
:1009500000F03AF915E086F31088281D04A910224A
:1009600000F0BAFC2800183002A9062200F0CEFCE4
:10097000072006E045482979142251434018FFF723
:1009800038FCC6498D44F0BDC0F7FFFFF8B58D4C6B
:10099000A54400216A469171002400253B4F0600C2
:1009A00000E06D1C3079854216DAB0680C2169438D
:1009B000405C01001422514379184989002900D074
:1009C00001240021009100233A8D0621FFF778FBD6
:1009D0000028E6D0092055E03500002C24D08027DF
:1009E0003F013A00FF2108A800F00BFE00240DE0B3
:1009F00002A8FFF72FFE02A8009001ABBA1B92B22B
:100A000008A8811904A8FFF72BFE641C28798442EA
:100A10000CDAA8680C226243011D8E5804A9805C80
:100A200000F0E0F90028E3D000202BE0012138009D
:100A3000FFF777FBEFF3108672B600F01DFD00287C
:100A400003D186F3108807201CE03A0008A9286823
:100A5000FFF7B1FD86F3108800260C4F68468479B5
:100A60000CE0A8680C217143405C142148433818FD
:100A7000FFF7BFFB010000D00400761C28798642F6
:100A8000EFDB200085498D44F0BD00007C0A00208A
:100A9000C1498A79824201D102207047897C814212
:100AA000FAD000207047CE48418D008D081A80B2E0
:100AB000704770B50400FFF7F6FF05008020400086
:100AC000411BA14201DA002070BDC54E718D401A54
:100AD000A0420BDA2A0030002C30318D4118300052
:100AE0002C3000F05FFC002030857585012070BD42
:100AF00070B50C00BA4D6E8D80214900891B220013
:100B0000914201DA002070BD0100A8192C3000F0DC
:100B1000FDFB30196885012070BDFEB504000D0095
:100B2000099F581E03210143491C68460180008823
:100B3000C619B61DB0B2FFF7BCFF002801D10820CE
:100B4000FEBD01A8012181700680C47005710621D7
:100B5000FFF7CEFF684601880898FFF7C9FF390004
:100B60000A98FFF7C5FF0020FEBD1FB588B0202002
:100B7000FFF79FFF002801D108201EE00E9C684669
:100B80002021018003218170001D08A9102200F09E
:100B9000A3FB0594684618300FA9062200F0B6FBA7
:100BA00020216846FFF7A4FF01208D4908AA12788A
:100BB00014235A438918887300200CB010BD00001C
:100BC00044080000E0F7FFFF7CB504000D001600AC
:100BD0000620FFF76EFF002801D1082076BD684689
:100BE0000621018004218170C470057146710621BF
:100BF000FFF77EFF01207A491422544309198873B4
:100C0000002076BD0000FCEFF8B5944CA544070029
:100C10000D0080221201FF2108A800F0F2FC002440
:100C20001BE00C266643A868805DB84214D004A976
:100C300000F0D8F8A8688019466802A8FFF70AFDF6
:100C400002A8009001AB80200001821B92B208A88C
:100C5000811904A8FFF704FD641C28798442E0DBB5
:100C60002E0080252D0101212800FFF75AFAEFF30D
:100C7000108472B600F000FC002803D184F31088C1
:100C8000072007E02A0008A93068FFF794FC84F3E6
:100C90001088002001498D44F0BD000024080000A8
:100CA000FBB582B003236E495218032515436D1C12
:100CB0000CE03778FF2F17D0FE2F01D0002F2BD15B
:100CC0007288D21C1A43521CB2184260826846686D
:100CD000741D9442EDD34249007814225043081801
:100CE000408900281AD015E00190901B884200D35B
:100CF00008003B4C80B2A9B26A46128D8918091DC2
:100D000088420DDA01980078142148432018408960
:100D1000002803D00B203DE003203BE0022039E017
:100D20006846007BFE216A46117069464870684635
:100D3000008D281848800021001D80B2FFF7F1F9CE
:100D4000EFF3108772B600F097FB002803D187F30A
:100D5000108807201EE0009A31007C4800F03AFB22
:100D6000049AA9B2301DFFF705FB0B9A6846018D66
:100D7000ADB27019001DFFF7FDFA87F3108820004F
:100D80000830019909781422514340180188491C00
:100D90000180002005B0F0BD7812061010B50024C7
:100DA0009B480C21614341188A79694814235343B5
:100DB000C0180368002B11D1012A0FDC0A680260F9
:100DC0008B88D218426009890182FFF712FA01006C
:100DD00005D1641C012CE3DD002010BD012010BDF5
:100DE0007C0A002010B50200022A01DB012010BDA0
:100DF000574B142462439A1813684B6052688A60F8
:100E000001220A7308700020487310BD7FB5504C52
:100E10000578142675436419A47B002C01D00A20A0
:100E200008E003940294099C01946C46248C00947D
:100E3000FFF779FA04B070BD7CB5454C05781426EF
:100E400075436419A47B002C01D00A2076BD01945F
:100E5000069C0094FFF71CFB76BD0000E0F7FFFF47
:100E6000FFFF0000F0B585B0060030786C462071B9
:100E7000374D68460079142460432818847B002C81
:100E800001D0092041E0521E03241443641C8789C9
:100E9000BC46A7B26A46128DBA18944506DA408954
:100EA000002801D00B2030E002202EE068460173BC
:100EB00004930B9F0020009000232A8D0621684692
:100EC0000079FFF7FDF8002821D002976846008DD1
:100ED000019004980090A3B272686846017B307854
:100EE000FFF71BFE010010D128000C3031781422CE
:100EF0005143401801886A46128DA218521E0323DE
:100F00001343C91A491F0180002005B0F0BD0197A5
:100F10006846008D0090049BA2B26846017B3000B9
:100F2000FFF7BEFE0100DFD00728EED1029768462A
:100F3000008D019004980090A3B272686846017B0E
:100F40003078FFF7EAFD0100CED0DEE70010004068
:100F50007C0A0020FEB50500684E30000E3029786E
:100F600014225143405C002801D00920FEBD00241A
:100F7000687B002810D0E8893518062229002C311A
:100F8000684600F0C3F96846847006226946280066
:100F90002C3000F0BBF938E06868A96888421DD29F
:100FA0000178FF291AD0FE2916D1FFF7E9FA0100CE
:100FB00001D015D129E0300008302978142251439E
:100FC00040180188491E01802878142148433018B0
:100FD0004189491C418118E00520FEBD0420FEBD69
:100FE000072813D16F682D7808260820FFF761FDC8
:100FF000002801D10820FEBD6846068002218170CC
:10100000C57001970821FFF773FD0020FEBD0000A9
:1010100078120610F0B585B00400384F142148430B
:1010200038180290807B002801D0092063E001A9D4
:101030002000FFF72DFD022822D10298056846689E
:101040002000FFF7A9F8A0482818C00A6946487090
:10105000761E9E483043401C401BC00A087000A802
:10106000401CFFF7CDFA072806D168460278417880
:101070002000FFF7A9FD3EE00298FFF7BAF835E03F
:10108000012837D101992000FFF7BEFD060013D1DA
:1010900000240198007984422ADA019880680C21A2
:1010A0006143455C2800FFF777F814204543781921
:1010B000FFF79FF8641CECE7072E19D1019F082663
:1010C0000820FFF7F6FC002801D1082013E02000DB
:1010D000FFF762F803A8068005218170C4700497A9
:1010E0000821FFF705FD012002998873002002E026
:1010F000300000E0012005B0F0BD00007C0A0020B7
:101100001CB504006946FFF7C3FC022803D1200088
:10111000FFF722FB16BD012803D10098FFF736FC2C
:1011200016BD012016BDF0B58BB00027684C208D90
:10113000618D884238D02518042229002C3102A85C
:1011400000F0E4F802A88078012808D006D303282C
:1011500069D051D3052800D190E071D3B2E00622C6
:1011600029002C3103A800F0D1F805A903A8C07804
:10117000FFF738FE01970097208D23183233684619
:101180008089821F92B203A8017905A8FFF788FD24
:10119000050053D1208D6946098940182085618D4D
:1011A00080B28842C3D1A7624A4800214156C8B2E2
:1011B00014224243A2185389002B03D09389128A28
:1011C000934213D3401CC0B2022800D100208842B1
:1011D000EED100210020C0433E4A1170010602D426
:1011E000C0B2FFF78DFF00200BB0F0BD411C4AB22A
:1011F000022AF1D10021EFE7082229002C316846AC
:1012000000F084F80198FFF7BBF9050016D1684695
:10121000C0781421484320180189491E0181418961
:10122000491C4181B6E7202229002C3103A800F097
:101230006DF803A8FFF734FB0500ABD02800D3E717
:10124000062229002C31684600F060F86846411DEE
:10125000001DFFF7D5F905000622694620002C3055
:10126000238DC01800F052F8002DE7D16846C078F1
:10127000142148432018FEF7BCFF8BE70822290001
:101280002C31684600F042F801996846C078FFF7B3
:10129000BBFC0500D2D10025019801798D42ECDA22
:1012A00080680C216943465C30006946C9788842F1
:1012B00001D0FEF771FF14204643A019FEF799FFF5
:1012C0006D1CE9E70C208FE70000FCEFFF07000032
:1012D0007C0A00205D0D002070B4103A03D378C959
:1012E000103A78C0FBD2530701D318C918C001D5F2
:1012F00008C908C0D20704D30B880380891C801C4E
:10130000002A01D50B78037070BC70478B0701D1A0
:101310008307E1D0124205D00B78491C0370401CB2
:10132000521EF9D17047F1B401684218416848086B
:10133000131800988068C9071ED5494640181BE05D
:101340001778521C0770401C761EF9D1002C13D060
:101350001678521C89080D40032D01D11578521CB6
:10136000290271184D424119A41C05D00D78491C61
:101370000570401C641EF9D19A420FD01178521C9E
:10138000032503260E4002D11678F61C521C0C09C8
:101390000F2CD9D114780F34521CD5E700980C309B
:1013A000F2BC7047814202D25318984203D300B571
:1013B000FFF7ACFF00BD521E03D38B5C8354521E5B
:1013C000FBD2704700690840884201D10120704774
:1013D0000020704710B50F2303618903090C816158
:1013E00002643321FFE70160040001212000FFF7C0
:1013F000E9FF0128F9D110BDF8B505000F26FF2936
:1014000009D12E612220286001212800FFF7DAFF90
:101410000128F9D1F1BD17003C00009306E001213D
:101420002800FFF7CFFF0128F9D1641C0098381875
:101430008442EFD22E61E0028003000CA8611120EB
:101440002860ECE7A446521E08D303780C78401CB1
:10145000491CA342F7D0181B64467047002064461D
:101460007047FF30FF212130417481748173002166
:10147000C17101210176704758B5040000F0FFFAF0
:101480000600684600F0ACFC002803D00098801BE2
:10149000844201DA012052BD002052BD10B5FFF791
:1014A0007DFC424C211D0020FFF79CFC21001431E3
:1014B0000120FFF797FC201D206010BD3EB53B4C7E
:1014C000022802D12500143500E0251D2560019376
:1014D0006B461B8B00930B0001002068FFF7C2FCDA
:1014E000002805D0022801D1002000E00120C043DF
:1014F0003EBDF8B584B00E0019002C4C022E03D16D
:1015000025001435012301E0251D00230700256077
:1015100028466D466A8103910A9D022F08D102A9CF
:1015200000912B00039A69464989FFF785FC0FE07B
:10153000002F03D101001800FFF754FC02A801900E
:101540000095039B6846428931002068FFF75EFCE6
:10155000010001D1002005E0042801D1022000E0B3
:101560000120C04305B0F0BD10B5140023000A00EF
:1015700001000E480068FEF727FF002804D001D5BF
:10158000200010BD0220C04310BD80B5022807D145
:10159000064908681431884207D0FFF7DBFC01BD1B
:1015A000032802D10020FFF735FD01BD980C002073
:1015B0001206130A1A43130C1A4300BF094205D03E
:1015C000830707D00270401C491EF9D17047000004
:1015D0000022FFE71300103906D330B414001500C1
:1015E00010393CC0FCD230BC490700D30CC000D538
:1015F00004C0890002D30280801C002900D502703B
:10160000704710B504000800110002002000FFF729
:10161000CFFF200010BD08B50846891D00918388C2
:10162000C278817800880020C04608BDF3B589B033
:1016300000250D700998807A002859D0994803C870
:10164000AE4A1268002312184B4106A80CC0EFF3F3
:101650001080029072B600F03AFD02000B0009986B
:1016600003C804AC03C4012404A803C8009001917A
:1016700006A803C8C826B602002736184F410098AE
:101680000199B9420ED301D8B0420BD306A803C8C2
:10169000B9267600002736184F419F4223D801D340
:1016A000964220D200200A32434104A803C88B424C
:1016B00011D801D382420ED20998027AC37A04A8C3
:1016C00003C8190000F0B2FD0A99087009988572E4
:1016D0000998447209E0A0488572029880F3108846
:1016E0000A98047004E085484476029880F31088D4
:1016F0000BB0F0BD80B500F08AFC01209D49087157
:1017000001BDF3B587B004460020087000E02469ED
:10171000002C5DD0207B0028F9D0EFF310800190E1
:1017200072B6002069460870491C8B48FFF77EFF9F
:1017300000F0CDFC02000B0003CC083C0F00861A21
:101740009F4104AAC0C2012504AA0CCA002B34DBA5
:1017500001DC012A31D3804A0CCA02AE0CC602AAAF
:10176000C0CA664A926B002312184B419F4210D8A0
:1017700001D396420DD2784A527A002A09D002AAA1
:101780000CCA8B4207D301D8824204D35B4805764A
:1017900001E068460570694604A80CC8100000F016
:1017A00005FD68460078012809D16B48817A427AA4
:1017B0000A4382720021417201E008980570019885
:1017C00080F3108808980078002801D0079800E07E
:1017D000200009B0F0BD1CB5664C6946A068FFF753
:1017E00090FFA06068460078012806D1207D411C4A
:1017F000627D914200D0401C207513BDFEB50025CE
:101800006C462570017B002901D00120FEBD0CC073
:10181000083801210173574CA6680196070001E0C2
:1018200035003669002E08D00CCE083E03CF083FA5
:101830008B42F5D301D88242F2D338000661002DE5
:1018400001D1019000E028610199814213D16946DC
:10185000FFF757FFA0606846007800280BD0EFF331
:10186000108072B6217D4A1C637D9A4200D0491CCB
:10187000217580F3108868460078FEBD10B51F4CB6
:10188000002808D0207B00280BD120002030FFF753
:1018900031FF012004E02000203000F0BBF80020E0
:1018A000207310BD000D0020FEB500F047FCA94DCF
:1018B00000246C72AC72EFF3108672B600F007FC75
:1018C0006A4603C200F062FC07000CCD684603C8FC
:1018D000121A8B410021D21B8B4186F3108804DC45
:1018E00001DB012A01D20120FEBD002B04DC01DB5B
:1018F0000F2A01D20220FEBD0020FEBD280C0020D0
:1019000080B569461448FFF791FE1A48017E002908
:1019100003D00021017600F008F88F480168012209
:101920000A4302600068009001BD18B5114900200B
:1019300008768A4802688A4B134003600A7D531C6C
:101940004C7DA34200D0521C0A75C16901220A4392
:10195000C261C069009011BD180D00205048016897
:10196000022900D1704780B50068032801D0FFF735
:1019700032FF01BD280C002010B5FFF73FFF040027
:101980000120FFF77BFFE0B210BDFEB5030000258C
:10199000684605726F4CE1722272724803C81A1AC7
:1019A000002312184B410CC4083C65720126A67234
:1019B0006D4DAF6803CC083C0090019103CF083F08
:1019C00002000B00A86B002180185941009A019B6E
:1019D0008B4217D801D3824214D2387B002811D011
:1019E00002A92000FFF722FEAF680CCC03CF083F0E
:1019F0008B4209D301D8824206D3387B002803D01A
:101A00002E7601E0FFF7E7FE0120FFF737FF68467B
:101A1000007AFEBD7CB50300534CA268150000217E
:101A20000026100001E02E002D69002D09D09D42F6
:101A3000F9D101932B69954201D1180002E033617D
:101A400000E001936D462970019B1973824214D006
:101A50006946FFF756FEA0606846007800280DD062
:101A6000EFF3108072B6217D4A1C637D9A4200D04C
:101A7000491C217580F3108873BDA06073BD80B5CB
:101A800000F025FB04BD00B5801A99410A2200230D
:101A900000F084FC000B0A051043090B00BD000098
:101AA0000C000060F8B5050000F03CFC8B480126F6
:101AB0004168314341600168314301608848310623
:101AC00001602988C92900DAC821274CA1633105A2
:101AD00001606846A97881706968C17029880180B1
:101AE00000F036FA1F4800F015FB0027A7602673A8
:101AF000184A002050729072002103C22888206189
:101B0000A782686800030A2100F07AFC2060277130
:101B1000AC4D002804D1280000F01DFC20600AE034
:101B2000280000F018FC2168814203D3280000F04F
:101B300012FC01002160A448A062676300F0C7FAAC
:101B40002268002312184B4120002030FFF756FE78
:101B5000F1BD0000180D002044180060301800602E
:101B6000FFFFFFBF000D0020280C0020F8B584B057
:101B7000002469460C70EFF3108672B69348407AE1
:101B800000280CD000F0A3FA02000B008F4D03CD0B
:101B9000083D994203D801D3904200D26C7286F37B
:101BA0001088814F22E0401C19E004690021017374
:101BB0008168002900D088472000F6D16946B868BE
:101BC000FFF79FFDB8606846007801280AD1EFF35F
:101BD000108172B6387D421C7B7D9A42E3D1387504
:101BE00081F31088787D039940187875787D397D68
:101BF0000A1A02D2802040001218002A28D003922C
:101C0000BC68002602940194002502E026002469A5
:101C10006D1C002C0FD0207B0028F7D000F057FA65
:101C200002000B0003CC083C801A99410029EDDB2F
:101C300001DC0628EAD3002D03D000203061029495
:101C400001E0002001900298B86001980028B4E7F4
:101C50005F4E01243879002823D000F0E4F90028F1
:101C60003AD100253D7100F0EFF9300000F052FA52
:101C7000787E00280AD07D76544884726946FFF742
:101C8000D5FC6946B868FFF73CFDB86000F01FFA64
:101C90003A68002312184B4138002030FFF7AEFDA0
:101CA0001AE0307C002817D000F011FA02AA03C213
:101CB00003CEFA225203002312184B4102A803C894
:101CC0008B4209D801D3824206D238002030FFF778
:101CD000A1FE00F09CF93C7105B0F0BD4018006019
:101CE00000E100E0FEB5040000F060F8002859D0E3
:101CF00001A800F02FFA2C4F344E69460C70717A0F
:101D0000002902D1B17A00291CD0012833D000F07B
:101D1000DEF904000D0000F039FA020003CE0023C2
:101D200012196B413C690025A4185D4100221E3444
:101D30005541A9421FD301D8A0421CD302246946B1
:101D40000C7003E0022816D0012814D0B8680028CF
:101D500026D0007B002823D000F0B9F902000B0048
:101D6000BD6803CD083D00261E327341994204D858
:101D700001D3904201D20120FEBD032C10D128696D
:101D800000280DD138002030854209D10020FFF70E
:101D900075FD10480168104A0A4002600320FEBD2C
:101DA00068460078FEBD0000280C00200B48017D2D
:101DB000427D914204D10079401E8041C00F70479E
:101DC00000207047FFEFFFFFF5160410180D0020EC
:101DD000000D002030180060FFFFFFBF280C00201E
:101DE000034909684A6D5431026008790009704757
:101DF0003C0600209048816801220A43826000214D
:101E00000160704730B58D4B8B490A681A400C68E9
:101E10001C40A242F9D1002AF7D0894B14125C432E
:101E2000D5B25D432B12E31810335B11436282611C
:101E3000844A4B6813404C681440A342F9D1002BEC
:101E4000F7D09911A54A5143803109120162C3614B
:101E500030BD10B50400FFF7CDFFAD480068C007E6
:101E6000FBD52000FFF7CEFF10BD68214143090AD2
:101E7000DB225043000C0818704780B5FFF7F5FFD0
:101E800063E238B530C80838954A13680B60AA4A2F
:101E9000416AC06A181A00F011FB0021001969415B
:101EA00034BD70B505008F4C607A7D214843C90070
:101EB00000F0A3FA461CF6B2A54A296A1B2000F0DE
:101EC000FDFA20706078FFF7D8FF3D216854E07874
:101ED0008019FFF7D2FF3521685420798019FFF768
:101EE000CCFF362168546079FFF7C7FF372168546B
:101EF000A079FFF7C2FF3821685470BD38B50400DF
:101F0000774805688C4AA16A206B281A00F0D6FA37
:101F1000210008310CC900218018594103C4083C34
:101F2000E56225632200083203C2606AA06231BD07
:101F300080B5874A00F0C2FA9349884201DD080063
:101F400002E0102800DA102000119249888201BDB9
:101F5000F8B507008F4C388820618F4EB0797D210D
:101F60004843C90000F049FA451CEDB2F878002852
:101F700002D1B87800280DD08848C168C907FBD5C0
:101F8000016817220A4302602000FFF762FF606ABF
:101F9000A06209E0C8204003A0626062804820621D
:101FA0008048A0618048E061F87834216054216A5B
:101FB000206980B2FFF7BCFF00203E216054002161
:101FC00003C4083C464A1268E262226322000832D7
:101FD00003C22000FFF765FF30784019FFF745FF87
:101FE0001B303921605470784019FFF73EFF1B30D9
:101FF0003A216054B078FFF738FF1B303B21605422
:10200000F078FFF732FF1B303C216054F1BD864869
:102010000078002806D00848816801220A438260BF
:102020000021016070473A480068C107C90F0120CC
:10203000484070470000000008100060FFFF0700E4
:10204000F6BC0800FFFFFF0738B590B0514C3420B4
:10205000205C002831D0684621004022FFF73CF97F
:102060006846FFF7CFFE0899049880B2FFF760FF3B
:102070006846FFF716FFEFF3108572B60698A06169
:102080000798E06108982062099860620A98A06247
:1020900068463521415C3522A1543621415C362207
:1020A000A1543721415C3722A1543821415C3822A8
:1020B000A1543D21405C605402E0EFF3108572B6FC
:1020C0002000FFF71BFF85F3108811B030BD80B5ED
:1020D0006946A448FFF7D5FE04BD00005307000081
:1020E00010180060C5000020F8B50500294C6946AD
:1020F0002000FFF7C6FE06000F009B4A616A0098A9
:10210000401B00F0DBF900233900301A9941F4BD7F
:10211000101000600200934B3420185C1074D869D2
:10212000D0601800083003C803C2083A986990606C
:10213000186B5061704700003506000000208B4985
:1021400008608B4801688B4A0A40026070470000B3
:102150002603000088494A68520003D509680160D7
:102160000320704781490A68022A03D14968016047
:10217000012070470A68032A03D1496801600220E0
:102180007047002070470000FF0F00007B48007878
:1021900070470000E80B0020C80000200410006019
:1021A000C2F528008D5B0000ECEB650170B50C00FA
:1021B000734A6C49096A00F081F90100202900D8AE
:1021C0002021714A9068411808315162136A8025B4
:1021D000AD051D431562936A8025ED051D4395628B
:1021E0000023624D2E68022E05D02D68032D02D0EB
:1021F0002578012D01D0237070BD644C25786D06C3
:102200006D0E2570A374E374012313600F239943AB
:10221000D161116A072399431162116AC023DB055A
:102220000B43136270BD00001C0C0020FEB50400BF
:102230004C4D3920285C012905D1002A01D03521D7
:1022400006E0362104E0002A01D0372100E03821E1
:10225000695C0091019002A92800FFF712FE201A84
:102260004A4E494C0027464A01992B69C918C83182
:102270008142296A17D200F021F97178401A009939
:10228000401A02990918E161216A072291432162EB
:1022900036490F60216AC022D2050A4322620099A2
:1022A00072788B1812E000F009F93D21695C401A40
:1022B000009A801A029A12182C4B5A6002221A6055
:1022C000226A2C4B13402362009A5318A98A21607A
:1022D000317880220A433270F021B174FF21F17409
:1022E000C118581D814207D220480760206A214941
:1022F000014021620120FEBD1B4A696A180000F0FE
:10230000DDF83E2168540020FEBDEFF3108072B668
:102310001C490968154A891C51600221116080F32B
:10232000108870471A48012142680A4342600268D7
:10233000114301608020000416490860704780B591
:1023400015480068FFF7D0FE04BD0D4A0549096A2B
:1023500000F0B4F802BD80B5034A0249496AF7E7C4
:1023600000000000E80B0020350600000C000060B3
:1023700028180060FFFFFFBF24180060260C002013
:10238000260300001018006008180060C400002038
:102390004818006000E100E01400006030B44343DE
:1023A00051435D18010C0C00130C5C432D1980B2D5
:1023B000434392B251430024C918644124040B04DE
:1023C000090C09195043C018694130BC7047F446E4
:1023D000002804D4494200F013F8404260474042CC
:1023E000002905D45FD000F00BF840424942604715
:1023F000494200F005F84942604703460B43E6D4E2
:102400000022030A8B420BD203098B4219D24308E4
:102410008B422ED2411A00D20146524110467047DB
:10242000FF2209023FD012068B4205D31212090285
:102430008B4201D31212090203098B4219D300E027
:10244000090AC3098B4201D3CB01C01A5241830947
:102450008B4201D38B01C01A524143098B4201D3F5
:102460004B01C01A524103098B4201D30B01C01A20
:102470005241C3088B4201D3CB00C01A524183089A
:102480008B4201D38B00C01A524143088B4201D3C7
:102490004B00C01A5241884200D3401A5241CFD259
:1024A00001461046704708B5C046C04608BD807852
:1024B000800701D5862070470020704710B59042F4
:1024C00016D98AB2030C090C0C46594380B2534307
:1024D000444350431B191A041B0C10185941802205
:1024E0005203002312184B41520DD802104310BD65
:1024F0004843802252031218520D104610BD10B5E9
:102500000888C046C04610BD81B02F490A68024302
:102510000A60096808400090009801B07047000008
:1025200081B02A48016802220A430260002102E0C9
:1025300000BF0099491C009100990629F8DB016849
:1025400004220A43026001B07047214881680422D6
:102550009143816001684905FCD58168022291435D
:102560008160704719480168890703D500684107F1
:10257000C80F70470020704716490A6883B213439A
:102580000B608A6A000C104388627047020C80B2AC
:10259000114B0129196805D108431860986A024354
:1025A0009A62704781431960986A904398627047B5
:1025B0000A490028086803D0042202430A607047D1
:1025C000042290430860704760004048080040487B
:1025D00000004048080050480C00504810ED00E052
:1025E000FEB5FFB0F5B00400002069468870EFF337
:1025F0001080089072B600201549886000F018FD20
:10260000002801D100F060FC200000F0B0FD0500C2
:102610002000FFF767FBA54200D92500A84200D99A
:102620002800694608700B480B49086188636846B2
:102630000078002804D06846007801280ED130BF09
:10264000FC990870089880F31088002000F0C8FCFE
:1026500004000020FFFF000000005048F4A80078AC
:10266000002803D080200002FFF786FF684600782C
:10267000022803D1C0208001FFF77EFFF69DF59C64
:10268000280020431A901A98FFF776FF00212800AF
:10269000FFF77CFF01212000FFF778FF002069464B
:1026A0004870A021CCA8FEF793FF01A800210022CA
:1026B00000230EC0182114A8FEF78AFF2C2181A840
:1026C000FEF786FF2C2176A8FEF782FF6821B2A8CC
:1026D000FEF77EFF40218CA8FEF77AFF242137A861
:1026E000FEF776FF24212EA8FEF772FF242125A8ED
:1026F000FEF76EFF58219CA8FEF76AFF30216AA8FA
:10270000FEF766FF30215EA8FEF762FF2C2153A87A
:10271000FEF75EFF2C2148A8FEF75AFF914E306D60
:10272000CCAD40ACC00755D59120C00540A902688A
:102730000A60001D211D02680A60001D2100083189
:1027400002680A60001D21000C3102680A60001D49
:102750002100103102680A60001D21001431026856
:102760000A60001D2100183102680A60001D210066
:102770001C3102680A6014227B49CCA8FEF7ACFD2C
:1027800014227A4928001430FEF7A6FD1422784955
:1027900028002830FEF7A0FD1422764928003C309E
:1027A000FEF79AFD1422744928005030FEF794FD7C
:1027B0001422724928006430FEF78EFD14227049FD
:1027C00028007830FEF788FD14226E4928008C30EE
:1027D000FEF782FD306D400303D56B4801A98CC81C
:1027E0008CC1306DC00303D5684804A98CC88CC166
:1027F000306DC00404D51822654914A8FEF76CFD9D
:10280000306D400705D52C229021C90581A8FEF71F
:1028100063FD306D000704D52C225E4976A8FEF7D3
:102820005BFD706DC00504D5402211068CA8FEF733
:1028300053FD706DC00704D568225749B2A8FEF752
:102840004BFDB06DC00704D52422544937A8FEF7CC
:1028500043FDB06DC00404D5242251492EA8FEF7D3
:102860003BFDB06D400404D524224E4925A8FEF757
:1028700033FDB06DC00604D558224B499CA8FEF725
:102880002BFDB06DC00504D5302248496AA8FEF77B
:1028900023FDB06D400504D5302245495EA8FEF702
:1028A0001BFDB06D800205D52C228221C90553A8DD
:1028B000FEF712FDB06D000204D52C223D4948A858
:1028C000FEF70AFDD74800682490D7480068239097
:1028D000D6480068229000210CAB8800364A0B9243
:1028E00012581A50491C0829F7DBCE4880692190FC
:1028F000324800682090314840681F90306B1E902D
:10290000B06B1D90306D1C90B06D1B90306EC10788
:10291000C90F099102D10120FFF7F6FD2848006890
:10292000800006D426480168802212060A4302600D
:1029300004E023480168490049080160099800281B
:1029400003D1306E01218843306668460078032841
:102950003BD1306807903068C006306832D510210E
:1029600031E000BF00004048080070481C0070487B
:102970003000704844007048580070486C0070483F
:1029800080007048940070480000604800003048A3
:1029900000002048000010480020004000200041B6
:1029A00000300041007000410060004100500041D3
:1029B000004000410010004100E400E010E000E0B1
:1029C000281800600421884330600020D649096837
:1029D00050390A91D54A11651346116D0A6887006E
:1029E000DA51401C091D1A4611651428F5DBD04840
:1029F0000068CF4908600869896B80B20904014307
:102A00001A98084000D050E20120FFF7D1FDFFF7EF
:102A1000A9FD002802D0FFF798FD0120099000F0E1
:102A2000DFFB80488068042188437E4988606846CF
:102A3000007803280DD10798400703D5306804219A
:102A40000143316010200799014002D031680843EA
:102A50003060B8488068002800D122E200200A993E
:102A6000B24A1165116D8300D2580A60401C091DDD
:102A7000AE4A11651428F5DB24986A49086023984A
:102A800069490860229869490860002081000CAA01
:102A900052580B9B5A50401C0828F7DB1E98306395
:102AA0001D98B0631C9830651B98B065306DC007E9
:102AB0005ED540A89121C90502680A60201D091D44
:102AC00002680A6020000830091D02680A602000C0
:102AD0000C30091D02680A6020001030091D0268D0
:102AE0000A6020001430091D02680A6020001830B6
:102AF000091D02680A6020001C30091D02680A6076
:102B00000020CD90D290D790DC90E190E690EB90B1
:102B1000F0901422CCA9B848FEF7DEFB142229005D
:102B20001431B648FEF7D8FB142229002831B448E6
:102B3000FEF7D2FB142229003C31B248FEF7CCFB51
:102B4000142229005031B048FEF7C6FB1422290098
:102B50006431AE48FEF7C0FB142229007831AC483E
:102B6000FEF7BAFB142229008C31AA48FEF7B4FB09
:102B7000306D400303D501A8A7491CC81CC1306DA6
:102B8000C00303D504A8A5491CC81CC1306DC004EE
:102B900004D5182214A9A248FEF79EFB306D400709
:102BA00009D59020C005899901628A9941622C2239
:102BB00081A9FEF791FB306D000708D5C7487E99C3
:102BC00001627F9941622C2276A9FEF785FB706D28
:102BD000C00504D540228CA91006FEF77DFB706D60
:102BE000C0070BD5B29CB29801218843B290BC4D6E
:102BF0006822B2A92800FEF76FFB2C60B06D40245C
:102C0000E443C00717D5379D379820403790B54F1C
:102C100037A80EC80EC70C3F142237A80100103188
:102C2000B14805E008ED00E00410004000E100E0DC
:102C3000FEF76CFB3D60B06DC00410D52E9D2E9844
:102C400020402E90A94F2EA80EC80EC70C3F14226C
:102C50002EA801001031A648FEF758FB3D60B06D6C
:102C6000400410D5259D259804402594A14C25A805
:102C70000EC80EC40C3C142225A8010010319E4839
:102C8000FEF744FB2560B06DC00604D558229CA910
:102C90009A48FEF721FBB06D0124E443C0050CD532
:102CA0006A9D6A9820406A90954F24226AA938004C
:102CB000FEF712FB7598F8623D60B06D40050CD5CB
:102CC0005E9D5E9820405E908E4F24225EA9380063
:102CD000FEF702FB6998F8623D60B06D80020BD58B
:102CE000539D5398204053908227FF05202253A9DB
:102CF0003800FEF7F1FA3D60B06D00020AD5489D3C
:102D0000489820404890B94F202248A93800FEF743
:102D1000E3FA3D60306E0125284014D10120FFF711
:102D2000F3FBB34808E000BF000004105C00002083
:102D30000000504804000020016849004908016073
:102D4000306E044034660122AF214900A948006872
:102D500000F02EFB684644783068800304D400F00D
:102D60003CFB0028F8D0042468464470002200216F
:102D7000002000F01DFB0998002817D10122C8216E
:102D80009C48006800F014FB6846447830684004B2
:102D900004D400F022FB0028F8D0052468464470D3
:102DA00000220021002000F003FB01E0FFF7B8FB48
:102DB000A90708680968F02202400807000F1043BD
:102DC000316E8D4C294039D0102837D1A0084100F0
:102DD000326E06231340022B01D10A0000E00200EC
:102DE000844B1F68854B974222D0A7421AD182425A
:102DF00035D12A201BE000BF080070481C00704835
:102E00003000704844007048580070486C007048AA
:102E1000800070489400704800006048000030480E
:102E2000000020488F4203D1824201D1292018603E
:102E300058680007FCD4002000F0E8FA68460078E3
:102E4000032824D10122AF2149006A48006800F01C
:102E5000AFFA68480068A04204D1042502E08A4223
:102E6000E6D1E3E700243068C0066846477852D4CC
:102E70003068000704D400F0B0FA0028F8D0032727
:102E80006846477000220021002000F091FA219846
:102E90005B4988615B481F994160002181602099EE
:102EA0000160684640786946887057480169826BBE
:102EB00089B212040A4355494A65554982680A4055
:102EC0008260026B11400163089880F310885148BA
:102ED0008068002832D1694608707BE00000104805
:102EE000002000400020004110200041003000413F
:102EF000103000410070004110700041006000413E
:102F000000500041004000410122AF2149003948F2
:102F1000006800F04DFA30688006B1D400F05DFA28
:102F20000028F8D000220021002000F041FA200003
:102F3000641CC0B2A842E7DB0227A1E7334C606DF6
:102F40003549014046D0616D002500200026F02261
:102F500012010F0C314B3B4017000F401F430197EC
:102F60000B0C1A40CBB213438022D205002B05D0A4
:102F700097691B043B4001D001250120284B019F8C
:102F8000002F30D0926917402DD00126606D254961
:102F9000014001D0F0031860234F280005D0606D78
:102FA000384002D0802040021860606DC046C046A4
:102FB0001E48002E06D0616D1A4A0A4002D08021B8
:102FC00009020160002D05D0616D0F4002D0802103
:102FD0004902016068460078FC990870684680786C
:102FE0007FB078B0F0BD0028D6D1F3E700100041E3
:102FF00028180060280600200090D00300500040F0
:1030000008ED00E010E000E0000050485C00002007
:103010000000FFFF04000020FF0FFFFFFFF0000093
:1030200080E100E0000FFFF0FF00000F00E100E092
:103030000749002049680A7889788A4306D10549FA
:1030400009684031C97A002900D103207047000087
:103050002C0600203C06002018B58BB0504C02A86E
:1030600021002422FEF738F9A020C0024D490A6849
:1030700002430A60096808400090009802A800F026
:1030800001FD002805D001002000243000F022FDC1
:10309000FEE700BF50A003C86A4603C26846FEF7B9
:1030A00001FDFEF7FBF90CB010BDF0B585B00026B0
:1030B00000240021012000F0CDFB002800D0FEE715
:1030C00000F034FD384800F013FEFFF7C5FF00F0B4
:1030D00023FF00F071FF00F09FFF00F088FF0496CF
:1030E000039669460E72314DFF205E302F18FEF7B1
:1030F0003DFD01F0EBFBFEF716F801F0C9FC01A85D
:10310000009002A80EC80320FFF76AFA287800286A
:1031100002D000F0ACFF2E707020285C002806D092
:1031200001F06CF870216E54FEF7A9FC04003878A9
:10313000002805D001F0A5FA3E70FEF7A0FC0400BF
:10314000FEF79DFC220000230021FEF79CFC184A9C
:10315000B142CCDB01DC9042C9D3FEF790FC040005
:10316000688814498842C2D001F0C8FABFE780B528
:1031700000F07CFE002803D100F07FFE002801D083
:10318000002002BD032002BD042808DABFF34F8FE0
:1031900009480A490860BFF34F8F00BFFDE7704739
:1031A0006C040610500040483B3E041028040020E8
:1031B000B80B0000FFFF00000400FA050CED00E072
:1031C000042800DB704780B5132113785078000283
:1031D000184301F0C1FE01BD4001000000000000E5
:1031E000EFF31482EFF30981002080F31488BFF31A
:1031F0006F8FF0B543464C4655465E466746F8B479
:103200000F4CEFF30883636006B4BFF34F8F30BFFA
:1032100000BF00BF0A4C646884F3088882B003BC16
:10322000F8BC9846A146AA46B346BC46F0BC04BCCE
:1032300080F3098881F31488BFF36F8F1047000073
:103240000400002010B5C20018231340FF249C4046
:10325000E2438907090E9940030007D5634B000735
:10326000000F083880088000181803E060489B08A9
:103270009B00C01803681A401143016010BD000094
:1032800081B05C48016802220A430260002102E02A
:1032900000BF0099491C009100990629F8DB0168DC
:1032A00004220A43026001B0704780B552480068AA
:1032B000002811D15148006800280DD00120504944
:1032C0008860FFF7A7FFBFF34F8F4E484E49086055
:1032D000BFF34F8F00BFFDE7012002BD80B5032182
:1032E0000020FFF7AFFF03210120FFF7ABFF032111
:1032F0000220FFF7A7FF03210320FFF7A3FF03210D
:103300000420FFF79FFF03210520FFF79BFF032108
:103310000620FFF797FF03210720FFF793FF032104
:103320000820FFF78FFF03210920FFF78BFF032100
:103330000A20FFF787FF03210B20FFF783FF0321FC
:103340000C20FFF77FFF03210D20FFF77BFF0321F8
:103350000E20FFF777FF03210F20FFF773FF0321F4
:103360001020FFF76FFF03211120FFF76BFF0021F3
:103370001220FFF767FF03211320FFF763FF0321EC
:103380001420FFF75FFF03211520FFF75BFF0321E8
:103390001620FFF757FF01211720FFF753FF0021E9
:1033A0001820FFF74FFF03211920FFF74BFF01BD46
:1033B00030B50D00B24C002A0AD0FA218900FFF77F
:1033C0001FF8401E684360600020A060052002E0F6
:1033D000206801218843206030BDA9480068802111
:1033E0004902084000D00120C0B270471CED00E047
:1033F00000E400E0080040489400404810005048B5
:10340000040000200400FA050CED00E0FEB50121E7
:10341000002819D09B480368E024A34320241C43C0
:103420000460836D0624A34302241C438465836BDC
:103430000B438363836B8B438363836D0B43836590
:10344000806D0840009000980F238F4804698F4DCD
:10345000AC4213D104680568066802685202520F34
:10346000029200684001420F0091300C18402E0A71
:10347000F0253540240A1C40019404E00820019006
:10348000702500240094824C0F26F643276B3740AA
:1034900038432063E06AF027B8430543E562E06AF9
:1034A000064001983043E0623820009D002D0DD089
:1034B00025680726B543029E7607760F2E432660C1
:1034C00025688543D20002402A4322603F22D2432E
:1034D000A56F15400A262E43A667A56F40262E43EA
:1034E000A667E56F154004262E43E667E56F802644
:1034F0002E43E667E56F4026B543E567654D2E68C8
:1035000016402E606E681640102737436F60AE6815
:10351000164020273743AF60EE6816403027374308
:10352000EF602E69164030432861686910403926E3
:1035300006436E61A86910403A260643AE61E86909
:1035400010403B260643EE61286A10403C260643A5
:103550002E62686A02403D20104368625522FF25B2
:10356000ED43B64806682E4016430660C6682E40F6
:1035700066273743C760066A2E4032430262026CF8
:103580002A401D2616430664C26B2A40592616435C
:10359000C663426C15402D222A434264426A0A43A4
:1035A00042628A0715681268F0262E4013403343A2
:1035B000202B63D3A24A11705E235370236B937048
:1035C000D1705D231371E36A53710623009D002DB2
:1035D00005D091715223D371236813720923D154FA
:1035E0005B1C1224DDB254555B1C0468DDB25455DB
:1035F0005B1CDDB251555B1C1524DDB254555B1CC0
:10360000C468DDB254555B1CDDB251555B1C1A24F5
:10361000DDB254555B1C046ADDB254555B1CDDB24F
:1036200051555B1C2224DDB254555B1C046CDDB289
:1036300054555B1CDDB251555B1C2124DDB2545541
:103640005B1CC46BDDB254555B1CDDB251555B1C79
:103650002324DDB254555B1C446CDDB254555B1C15
:10366000DCB211555B1C1B21DCB211555B1C406A9E
:10367000D9B2505400205B1CDBB2D054F7BD00001F
:1036800010E000E008004048E81E0010CCECBCFC54
:1036900048160060E8160060F3B581B08020C005D0
:1036A00001680068F0220A400007000F10430090F4
:1036B000644E012264213000FFF77AFE624D2868D3
:1036C00080214902014329600027604C286880035B
:1036D00003D42068C003F9D504270022002100206C
:1036E000FFF766FE380034D168460079002804D11F
:1036F000009810286AD10620FEBDE020C04369462C
:103700000979491E062950D801A2525C974400BF8E
:1037100008465462707E8C00A9680840A86070005A
:103720004B4E30600122C821FFF742FE28688021FD
:103730008901014329602868400403D42068C0033C
:10374000F9D50527002200210020FFF731FE3800BF
:103750002CD03800FEBDA968084020210143A96093
:103760003000DDE7A968084040210143A9607008E6
:10377000D6E7A968084060210143A960B008CFE7F7
:10378000A968084080210143A960F008C8E7A9683A
:103790000840A0210143A9603009C1E7A968084099
:1037A000C0210143A9607009BAE7FEE73021C9438F
:1037B0009F4832689F4B9A42026804D11140102200
:1037C0000A43026004E01140016001E0FFF758FD88
:1037D0006846007AFF2822D00621C943012803D079
:1037E0006A461279032A06D1286E01400420084354
:1037F0002866012004E02A6E114002220A432A664C
:10380000009910290BD18C496A461279012A08D1F6
:1038100001280ED12A20086048680007FCD4002047
:10382000FEBD6A461279022A05D1012803D129205A
:10383000F1E70028FBD02820EDE7000048150060E4
:10384000E00C00200048E8010000404810E000E0E3
:1038500028060020F3B583B0784879490860794993
:103860000861794F3868E021014339600025002460
:103870000122C8217548FFF79BFD75493869019100
:10388000400704D40868C003F8D5012401252E00A0
:103890002500002200210020FFF78AFD6D4C002D3D
:1038A0002ED030002BD100250122962149006748F7
:1038B000FFF77EFD6848796A01407962B96A08407D
:1038C000B862A06865490140802000020843A060FA
:1038D000E06860210143E16020681021014321601C
:1038E0002068800604D401980068C003F8D502253A
:1038F000002200210020FFF75BFD280074D095E036
:10390000A068574901408020C0000843A060B86902
:103910003021884320210143B961A06880214901F9
:103920000143A1604F4A50694F49884219D110683C
:103930001168156813681B041B0F0293136801229A
:103940001E02FC239B053340EE091E2535400095E1
:10395000CD01E021890129408501F0208000284027
:1039600007E0D00CC021490110220092F0235B0532
:103970000022E5683D4E2E403343E360E368802536
:103980002D041D43E5601E23DB43002A09D0E268B5
:103990001A40029D6D001543E560E268012515435C
:1039A000E560334A15682B40009D1D431560136880
:1039B00001251D43156013682E4D1D4028431060DE
:1039C000106820230343136010682B4B03401943F6
:1039D000116010688021C90001431160B86980211D
:1039E00049000143B9615EE76846047CFF2C02D0C0
:1039F0000120FFF70BFD6846007B204980220A600A
:103A00000A681F4B1340802292011A430A600A6819
:103A100070239A43302313430B602100FFF73CFED1
:103A2000010003D1FFF75AFC62B6002005B0F0BDDB
:103A3000041000400090D00300500040000004102B
:103A400008ED00E004000020040050480024F400C9
:103A500010E000E000004048FFCFFFFFFF7FFEFFC7
:103A6000FFF3FFFFE41E0010CCECBCFCFFFFFFC027
:103A7000940050483FFCFFFFFFC7FFFF98004048FD
:103A8000FFC0FFFF10B5C17A002418290CD8018CA3
:103A9000172909D301229202914205D8C189172919
:103AA00002D3121F914201D982240EE00146242242
:103AB000074801F055FA01F067FA05494968814263
:103AC00001D5872401E001F0BFFA204610BD0000B7
:103AD000BC0C00200EB4C0B5020003A80190002069
:103AE000009001AB0121044878440C3001F000FB48
:103AF000029906B0084700BFE1D70100094902E07A
:103B0000084908E008494A6882434A600A68104345
:103B10000860704704490A6882430A604A68104393
:103B2000486070472000504828005048F8B50120F0
:103B3000FFF7E6FF0220FFF7E3FF0420FFF7E0FFB7
:103B40000820FFF7DDFF1020FFF7DAFF2020FFF746
:103B5000D7FF4020FFF7D2FF8020FFF7D1FF802062
:103B60004000FFF7CDFF80208000FFF7C7FF8020D7
:103B7000C000FFF7C5FF80200001FFF7C1FF8027CD
:103B80007F013800FFF7BCFF7C002000FFF7B8FF83
:103B900065002800FFF7B4FFA6003000FFF7B0FF74
:103BA0000120FFF7B7FF0220FFF7B4FF0420FFF763
:103BB000B1FF0820FFF7AEFF1020FFF7ABFF20207A
:103BC000FFF7A8FF4020FFF7A5FF8020FFF7A2FF27
:103BD0006009FFF797FF2009FFF794FFE008FFF760
:103BE00099FFA008FFF796FF3800FFF793FF20002A
:103BF000FFF790FF2800FFF78DFF3000FFF78AFFE7
:103C0000F1BD10B503C9C046C04610BD81B0A14981
:103C10000A6802430A60096808400090009801B0F1
:103C2000704710B50B004B4301685C00E418A143DA
:103C300053430B43036010BD43688B435143194307
:103C40004160704710B50B004B4381685C00E4187D
:103C5000A14353430B43836010BD30B5CB438E4C1F
:103C60009025ED05A8421AD1002A03D0022A0FD0D0
:103C700007D330BD2068184020606068034063604F
:103C800030BD60680340636020680143216030BD3F
:103C900020680340236060680143616030BD002AF2
:103CA00003D0022A0FD007D330BDA0681840A0600F
:103CB000E0680340E36030BDE0680340E360A06873
:103CC0000143A16030BDA0680340A360E0680143E8
:103CD000E16030BD10B5090A0B004B434B434B4329
:103CE000416A1C01E41AA14353430B43436210BDD4
:103CF0007CB506000420FFF789FF9025ED058024A0
:103D0000A400022221002800FFF78BFF02222100DD
:103D10002800FFF797FF002221002800FFF78CFF03
:103D2000012221002800FFF798FF0022210028002F
:103D3000FFF7D0FF0420FFF769FF6408022221008B
:103D40002800FFF76EFF022221002800FFF77AFF0C
:103D5000002221002800FFF76FFF01222100280028
:103D6000FFF77BFF002221002800FFF7B3FFA00030
:103D70004A490A6802430A600968084000900098AE
:103D800047488B21C1600168464A0A400260416889
:103D9000454A0A40426001680C220A430260816879
:103DA000424A0A4082608168414A0A4082608168D2
:103DB000C900C9088160016862050A430260416860
:103DC0003C4A0A40426081682A229143816001682E
:103DD00001220A43026031000ED037490E600168AB
:103DE00020220A43026035480168FF2291434022A5
:103DF0000A4302603248046073BD10B50023314AA3
:103E000006E014682406FCD5DCB2045DD4605B1CBB
:103E1000DCB28C42F5D310BD27480268002A00D1DD
:103E2000704780B527480168890605D580686946CE
:103E3000087001216846904701BDF8B502000800EE
:103E4000214C2168214D009200220AE0009E97B289
:103E5000F65D6E54491C8026F600B14200D1002167
:103E6000521C96B28642F1D32160F1BD154800681C
:103E70000002C10F0120484070471248016809063E
:103E800002D50068400601D4012070470020704729
:103E900000000000500040482000504858004048B2
:103EA00000400041FFE9FFEFFFCFFFFFFFFCFFFFF6
:103EB000FFFFFFF1FFB7FFFF3000002008E400E044
:103EC00000E100E01C400041340D00207C06002091
:103ED00070B50025012804D0022802D00020C0437C
:103EE00070BD002901D1002070BD0C00160005E056
:103EF00001212000FFF781FF641C6D1C3000461E6D
:103F00000028F5D1280070BD01B5012269460120C5
:103F1000FFF7DEFF009802BD18B58BB004A800BF04
:103F200016A10CC90CC000BF16A11222FDF7EEF9B4
:103F3000934800240470010070310C809121445496
:103F4000F7214454663144548E494180062204A925
:103F50006846FDF7C1F968461221817106A90291F0
:103F600019218173848100F0CBFC040003D021006F
:103F700009A0FFF7AFFD20000CB010BDFC1200E15E
:103F80008002000053656E736F7244656D6F20434D
:103F9000656E7472616C00004D61737465725F4987
:103FA0006E69742829207374617475733A203078AF
:103FB000253032780D0A00001FB5012069460872CD
:103FC00030224A808A8088710020C8714872684611
:103FD00000F06BFD04006C48210002D0FFF77AFD71
:103FE00002E03430FFF776FD200004B010BD1FB5AD
:103FF0000120694608700872684600F0FDFC040064
:10400000CF48210002D0FFF765FD02E02C30FFF71A
:1040100061FD200004B010BD10B559480121C62231
:1040200052008154B4214900401803210170C54950
:104030004160302101814181802149018181C24952
:10404000C1810021C17528220283382242838183E5
:104050001421C18305210184418400F047FD04003F
:1040600003D02100B948FFF735FD200010BD10B581
:10407000434C2079BC21490060540622611DFF2079
:104080007A302018FDF742F9B4204000201800F0E3
:104090004BFD040003D02100AD48FFF71BFD2000BD
:1040A00010BD0000F8B586B0AA48FFF713FD344CE8
:1040B000E17AD648FFF70EFD00260020210070317E
:1040C000019154E0142505E0C1B26118097B012972
:1040D000F8D106256946401C0870F1B2491C00BFA2
:1040E0002AA0FFF7F7FC2F1F3A0068460078211836
:1040F000103102A8FDF70AF93A00C8204000211843
:1041000002A8FDF79FF9002803D100BF21A0FFF707
:10411000E1FC3A00C9204000211802A8FDF792F9FD
:10412000002807D122A0FFF7D5FC0120019A50708A
:10413000019908703A00CA204000211802A8FDF732
:1041400081F9002803D100BF20A0FFF7C3FC3A008B
:10415000D2204000211802A8FDF774F9002802D1EE
:1041600020A0FFF7B7FC684600784019761CE27A79
:10417000F1B29142A8D3A648FFF7ACFC07B0F0BD5E
:1041800028040020FFFF000094FE051025642D2D5B
:104190002000000047656E657269632041636365B6
:1041A00073732050726F66696C650D0A0000000021
:1041B00047656E65726963204174747269627574D3
:1041C000652050726F66696C650D0A004163636516
:1041D0006C65726174696F6E205365727669636590
:1041E0000D0A0000456E7669726F6E6D656E7461C2
:1041F0006C20536572766963650D0A00F8B588B066
:10420000002200250027B94C0192039269460A70EA
:104210007FE0142606E020000C30F9B2405C012853
:10422000F7D106267F1CFFB2321FE119103104A816
:10423000FDF76CF8321FC9204000211804A8FDF7D3
:1042400001F9002819D17120205C002815D0E0194F
:104250000C3002A9891C02780A7042784A70E01971
:104260000E3002A902780A7042784A70200072303B
:1042700001902000733003901E25321FCA20400099
:10428000211804A8FDF7DEF8002819D19120205C40
:10429000002815D0E0190C3002A9891C02780A7098
:1042A00042784A70E0190E3002A902780A7042780A
:1042B0004A702000923001902000933003906425D2
:1042C000321FD2204000211804A8FDF7BBF80028B7
:1042D00019D1F720205C002815D0E0190C3002A974
:1042E000891C02780A7042784A70E0190E3002A9DF
:1042F00002780A7042784A702000F830019020005D
:10430000F93003906425BF1968460078401C69465F
:10431000087068460078E17A884200D27BE7019B0A
:10432000019503980090684602894189608800F0F1
:1043300061FC010002D0A948FFF7CCFB09B0F0BD39
:10434000C401061030750000F22B00004405061071
:10435000AC070610FCF30510F8B5644F9120385CEB
:1043600000282FD0002428E01620604338180500CC
:104370009435060099361022E220400039183000AA
:10438000FDF760F8002806D1B020400038182978E1
:104390000170697841701022DA204000391830002D
:1043A000FDF750F8002806D1AF20400038182978D2
:1043B000017069784170641CE4B238009130407833
:1043C0008442D1DB3E00F736307800281CD0002430
:1043D00017E0162060433D181022EA2040003918EB
:1043E0002800FF30FDF72EF8002808D12800FA3009
:1043F000B1214900791802780A7042784A70641C29
:10440000E4B270788442E4DBF1BD00003CF40510B6
:1044100060F40510F1B582B017001E000078012885
:104420004BD10091097800BF31A0FFF753FB00BFCB
:1044300034A0FFF74FFB00250024E0B2395C00BF39
:1044400033A0FFF747FB641CE0B20628F5DBB8A0F9
:10445000FFF740FB317800BF2FA0FFF73BFB089C24
:1044600004E0215C32A0FFF735FB6D1C3178E8B227
:104470008842F6D3099DAEA0FFF72CFB00202956F9
:104480002DA0FFF727FB06222FA1601DFCF7DAFF06
:10449000002812D12EA0FFF71DFB144800990978BF
:1044A000017106223900401DFCF730FFFFF7DFFDE8
:1044B000002802D09F48FFF70DFB029800780228E1
:1044C00002D19D48FFF706FB0298007803280CD123
:1044D000984C20006C30FFF7FDFAFFF788FD0028AC
:1044E00003D020009430FFF7F5FAF7BD2804002030
:1044F000414444522054797065203D2025640D0AC2
:104500000000000041444452203D2030780000006B
:1045100025303278000000004144204441544120BD
:10452000284C656E6774683D2564293A0D0A0000C1
:10453000253032782000000052535349203D20306E
:1045400078253032780D0A00426C75654E5247006E
:10455000426C75654E5247206465766963652066D6
:104560006F756E640D0A0000F8B5744D744C0078D8
:10457000012807D031D3032820D01DD3052828D007
:1045800024D3F1BD16000F0031882000FFF7A2FAF6
:104590003878002821D13088688064232A000C32C2
:1045A00029000B3100F0F6FA002816D00100200097
:1045B0003030FFF78FFAF1BD09A00CE010A0FFF733
:1045C00089FAFFF714FDB9486880F1BD2000783002
:1045D00001E02000A030FFF77DFAF1BDE4070610EE
:1045E0002A2A2A2A434F4E4E454354494F4E2046CD
:1045F00041494C4544204556454E540D0A000000A3
:104600002A2A2A2A444953434F4E4E454354494F80
:104610004E204556454E540D0A000000F8B500786E
:10462000012802D0022806D0F1BD0878002827D141
:10463000FFF738FDF1BD0878002821D19C4C2700F8
:104640007037012500267878002802D07E709120EE
:1046500008E09120205C002807D0FFF77DFE912024
:104660002654F72025543D70F1BDF720205C00282A
:1046700006D0FFF771FEF72026547D706630255472
:10468000F1BD38B58B4D8A4C7120205C002814D0C8
:1046900020007730694602780A7042784A70012318
:1046A000002268460188891C89B2608800F0E4FA1B
:1046B000010002D02800FFF70DFA200091300178A8
:1046C00000291AD04178491E4170AF2040002018BF
:1046D000090601D0008800E04088801C69460880F7
:1046E0000023012268460188608800F0C5FA00288E
:1046F00003D001002800FFF7EDF931BD80B50F4868
:1047000002210091B32149004318891E4218891ED5
:10471000415A491C89B2408800F0FCFA0100664801
:1047200002D0FFF7D7F901BD4C30FFF7D3F901BD37
:104730000D0A0000D4EE051004EF05102804002037
:104740006CE90510FEB55A49AF2252008F185B4D37
:104750005B4C46260078052806D0062877D0092825
:1047600023D00A286DD0F7BD501E0D1808009130D7
:10477000012600227123CB5C002B05D07123CA5483
:1047800006702E7020005FE0017800290CD041787F
:10479000002903D1027020002C3002E006702000B6
:1047A0005430FFF797F92E70F7BD00933888401CFE
:1047B0001988884207D158680078002803D0200063
:1047C0007830FFF787F97888401C0099098888427B
:1047D0006AD13CA0FFF77EF93BA73800FFF77AF9D2
:1047E000761EFAD100988178062903D02000C030C7
:1047F000FFF770F900984068A91C02780A704278A7
:104800004A70811C2A1D0B7813704B785370001D61
:10481000A91D02780A7042784A7000202E5E30008E
:104820000A21FDF7EAFD019130000A21FDF7E5FDBF
:10483000009006202B5E04202A5E0220295E842040
:104840002EE09C2040002018FFF744F9F7BD1DA082
:10485000FFF740F91CA000900098FFF73BF9761E87
:10486000FAD1F988022904D0B22040002018FFF7BD
:1048700031F9787A0602387A06432E8036B2300053
:104880000A21FDF7BAFD019130000A21FDF7B5FDBF
:10489000009006202B5E04202A5E0220295ED22092
:1048A00040002018FFF716F9F7BD0000FFFF0000D9
:1048B00028040020C805061070F905103C0D0020E2
:1048C000C0B005100D0000002000000010B50B481E
:1048D00000682030007BC00706D000F0C9FE00F061
:1048E000F5FE00F01FFF10BD00F0ACFF00F0AEFFC2
:1048F00001F00AF801F06EF8F1E700002C06002044
:1049000030B585B0040022000621002001F034F902
:10491000050001D021A014E001F032F9050001D01A
:1049200025A00EE003A80290801C019004A800902E
:10493000237BA279617B042001F026F9050004D0D5
:1049400022A0FFF7C7F8280026E0A079002808D0A9
:10495000082801DD0820A071A268A179002001F0DB
:1049600083F9A17B002001F0C9F9040004D0884834
:10497000FFF7B0F820000FE019A0FFF7ABF800F048
:1049800087F89B48802149020160491C4160016809
:104990000020C046C046002005B030BD5365747489
:1049A000696E672042445F41444452206661696CED
:1049B00065642E0A00000000474154545F496E6947
:1049C00074206661696C65642E0A00004741505F7F
:1049D000496E6974206661696C65642E0A00000086
:1049E000424C4520537461636B20496E6974696160
:1049F0006C697A65642E0A00F8B598490C687C4F9A
:104A000039688026B6027208914206D0920091421F
:104A100003D0B14201D00C251BE0009000230022FE
:104A2000017A007801F0FFF9050003D09048FFF704
:104A300051F80EE00120E0600020607220700098C4
:104A4000007820723E60701C786031464008C04695
:104A5000C0462800F2BD70B580480468854D207AB4
:104A6000002803D101F0E3F9060006E0012001F07F
:104A7000DEF906002800FFF72DF8300004D02800EA
:104A80005030FFF727F801E002206072300070BD5F
:104A90001FB5574C0ECC0C3C684601F0AFFC684685
:104AA0000EC80EC4184604B010BD1CB56F49096885
:104AB00080225202914207D09200914204D05208C3
:104AC000914201D00C2016BD0400637A227AE1796C
:104AD000A07901F0BFFAA088019060880090637A05
:104AE000227AE179A07901F082F916BD1FB55F49FC
:104AF000096880225202914207D09200914204D06C
:104B00005208914201D00C200CE0418C0291018CA2
:104B10000191C18B0091838B428B018B2424005D1A
:104B200001F06FF904B010BDF1B582B000276946FD
:104B30000F704A4804682822029920000C30FCF7C4
:104B4000CBFB382167540120714D484E3168420437
:104B500091420DD02070681E30607560014650088B
:104B6000C046C0460298007803280ED167630CE067
:104B700027706063FFF76FFF69460870691E316038
:104B8000756080208002C046C04668460078FEBD41
:104B90003C4F0410F7B500226C4622702F4C24685D
:104BA000324D2E688027FF02BE420AD0C027FF0286
:104BB000BE4206D07F08BE4203D00C206946087072
:104BC00011E0029E012727702082A160E660A38089
:104BD000A0680270A020C0022860401C686029689C
:104BE000B804C046C04668460078FEBD000000001C
:104BF000280D0020F5B583B000206A461070174AD2
:104C000012681A4C2668A025ED02AE4207D0802714
:104C1000FF02BE4203D00C20694608701CE00B9EC8
:104C20000A9F01936B465980694689890223137054
:104C3000118201999160D7609680694649885182B6
:104C40006946098A9182916808702560681C6060D5
:104C500029465804C046C04602E000004406002031
:104C60006846007805B0F0BD00000000280D002067
:104C7000500B061048FB0510F3B581B089490C684C
:104C8000894E31688027FF02B94209D0C025ED0264
:104C9000A94205D0A025ED02A94201D00C2534E09F
:104CA00069460B704A704880A04B68460078400007
:104CB000497801431970022268460189408801F051
:104CC0001BFC050021D10020262160540521217004
:104CD0006946498821852721605402A821000D31A9
:104CE00002780A7042784A7068464078E0736846F5
:104CF00000782074022020730120E0623760781C65
:104D0000706039463800C046C0462800FEBD00002D
:104D100001000300F7B51F0062490C68844E31683A
:104D20008022D202914209D0C022D202914205D003
:104D3000A022D202914201D00C2527E069460880CA
:104D400068468188008801F0E3FB05001ED10898C1
:104D5000029900222623E254062323706B461B8807
:104D600023856160A760A08401A821000D3103782C
:104D70000B7043784B70272022540120E06280049E
:104D80003060411C71600146C046C0462800FEBD2F
:104D9000FBB5170043490C68654909688022D202B7
:104DA000914209D0C022D202914205D0A022D20263
:104DB000914201D00C252BE0089E69460880320004
:104DC00068468188008801F0ABFB050020D1099876
:104DD000029900222623E254082323706B461B8885
:104DE00023856760A160A08401A821000D310378AC
:104DF0000B7043784B70E673272022540120E06249
:104E000080044B490860421C4A600146C046C046C7
:104E10002800FEBDF2B582B022490C68444E3168CC
:104E20008027FF02B94209D0C025ED02A94205D072
:104E3000A025ED02A94201D00C2530E0019369467E
:104E40000A704880019B684602780189408801F019
:104E500053FB050023D10020262160540721217037
:104E60006946498821852721605402A821000D3117
:104E700002780A7042784A70684600782073684663
:104E80000278019920000F30FCF740FA0120E0621F
:104E90003760781C706039463800C046C04628002C
:104EA000FEBD000044060020280D0020F8B5214A70
:104EB00014681D4D2E688022D202964209D0A0228D
:104EC000D202964205D0C0229202964201D00C270F
:104ED00028E06A4610806846008800F0B0FF0700AE
:104EE00020D10120E0620020207026216054694614
:104EF000098861852721605428216054302160543D
:104F00000D4A49038020C002864202D129606A60AE
:104F100006E0A020C002864229606A6000D04808EE
:104F2000C046C0463800F2BD280D00205A0D0020B2
:104F3000280D00204406002001000600536574205F
:104F40004F757470757420506F7765722066616953
:104F50006C65642E0A00000010B501F0E9FA10BD7E
:104F600010B50400FCF7D2F9200010BD10B5040004
:104F70000800110002002000FCF71AFB200010BD01
:104F800080B5FCF75FFA02BD70B50120C046012074
:104F9000C0460120C046012805D00120C046002897
:104FA00004D0DC2103E0FF21B53100E00021244CD6
:104FB000A922E07A9200504322892423D200821849
:104FC000A07A58431218A0892C23584310180D18A2
:104FD0000120C04601281AD000202D180120C0460B
:104FE000012818D000202D180120C04601281CD00F
:104FF00000202918A27F102090400C180120C046E4
:10500000012816D000200F492018401870BDE07A02
:1050100000012830E1E7207FFF2171314843617FA3
:105020003C2251434018A030DDE7A17F502088404A
:10503000DFE703484C21203080784843E3E7000055
:10504000BC0C0020CA110000F8B5012024498004DE
:10505000086024484168802291434160FCF724FCA9
:1050600000202149C043086003214907486001200E
:10507000C046C0B200900120C046C5B20120C04663
:10508000C4B20120C046C7B20120C0460120C046BC
:105090000120C046C6B201F04FFA01F057FA13489A
:1050A00001F095FA01F02EFB3B4622462946009876
:1050B00001F050FB01F080FB01F0AEFB304601F047
:1050C000E9FB01F00BFC01F039FC2146284601F018
:1050D00085FC01200249800480390860F8BD000089
:1050E00080E100E0C00000203806002000003048C9
:1050F000F8B596B0050017001E001C98049103A98E
:105100002B22885400200A9002950E9700960EE0FC
:10511000252912D00498029A90470490002800D1C3
:10512000D2E00A98401C0A900E98401C0E900E98EF
:1051300001780029ECD10A98C8E000200790089077
:105140000990022608210191012404210E9D00E00E
:1051500020436D1C2A78202AFAD0232A0AD02B2A31
:1051600004D02D2A04D0302A08D00AE03043F0E7DA
:105170000843EEE7020008201043EAE7020010208F
:10518000FAE72A2A0ED1009A17683A683F1D009B59
:105190001F600C92002A03D553420C930143080070
:1051A0006D1C14E000210C91004A0BE0CBCCCC0C20
:1051B0000C9B934205DA9F00FB185B0059183039AD
:1051C0000C916D1C29780B00303B0A2BF0D3297809
:1051D0002E2903D00021C9430B9127E06D1C2978AB
:1051E0002A2908D1009909680A68091D009B1960DD
:1051F0000B926D1C1AE02D2902D12D236D1C00E0AD
:10520000002300210B910CE0002B09D10B9ABC4F1D
:10521000BA4205DA9700BA185200511830390B918A
:105220006D1C29780A00303A0A2AEDD303A90885B3
:105230002F783900B3A001F0E1FB002801D038003D
:105240006D1C03AF2A217854785C682805D1287832
:10525000682802D1622078546D1C10A806902A7824
:10526000681C0E90252A15D0582A52D0632A00D1E6
:10527000BCE0642A00D17FE0692A00D17CE06F2A7B
:1052800047D0702A3AD0732A08D0752A41D0782A9C
:105290003FD0B5E0079410A90A70BAE00098006802
:1052A0000468001D009908600594002C13D12B2080
:1052B000385C00280CD00024E44300BF93A001F028
:1052C000A9FB201A00D1A4E00020C04317B0F0BD14
:1052D00095A005909DE00B9D002D03D5200001F0C9
:1052E000BDFB09E02A000021200001F0BFFB0028DF
:1052F00001D0001B00E0280008908AE000980068B8
:105300000168001D009A1060039110A80590782193
:1053100068E0785C622803D0682809D06C280FE028
:10532000009801680868091D009B1960C0B20DE073
:10533000009801680868091D009B196080B205E0AB
:10534000009801680868091D009B19600390388D5A
:105350000199C0B2084240D0039800283DD02020D7
:105360001043782839D1079810A930230B54401CDA
:10537000431C07930A5430E0785C622803D0682805
:1053800009D06C280FE0009801680868091D009B8F
:10539000196040B20DE0009801680868091D009B83
:1053A000196000B205E0009801680868091D009BBB
:1053B00019600390002802D507982D2109E0388D47
:1053C000304202D007982B2103E0C00705D507988B
:1053D000202110AB1954401C079010A807994018C1
:1053E0000590110003A800F0A0F812E007940098BF
:1053F00000680168001D009A106010A8017008E0A4
:105400000794252010A90870100002D0079610A854
:1054100042700C980799401A0999401A0899401A45
:105420000F902820385C400713D42020694608716B
:105430000F9800280DDD0F9C029D012301AA03A9EE
:10544000280000F0FAF8002800D03DE7641EF4D1EF
:105450000295079D10AC002D0ED0029E227803A964
:10546000300000F0D9F8002802D4641C6D1EF5D17C
:105470000296002800D027E7302069460871099C71
:10548000002C0CDD029D012301AA03A9280000F0D5
:10549000D4F8002800D017E7641EF4D10295059CCB
:1054A000089D002D0ED0029E227803A9300000F046
:1054B000B3F8002802D4641C6D1EF5D102960028B2
:1054C00000D001E72820385C400700D42FE62020D8
:1054D000694608710F98002800DC28E60F9C029DA1
:1054E0000E9F009E012301AA03A9280000F0A5F841
:1054F000002800D0E8E6641E00D105E6F2E70000CF
:10550000CBCCCC0C686C747A4C0000007072696E65
:1055100074665F733A20626164202573206172674C
:10552000756D656E740000000000F0B583B00A0070
:10553000C4686F2901D1082506E02021114378298C
:1055400001D00A2500E01025182701680E00642A02
:1055500001D0692A03D1002901D571420E00002E25
:105560000CD1016A002909D1082D31D12821415CD3
:1055700009072DD517273021E17529E002906846EB
:1055800002707F1E019730002900FCF739FF30318F
:10559000C8B23A2803DB6846007851380918E1554B
:1055A00030002900FCF72CFF060004D00298806828
:1055B000E1198842E5D30298082D09D12821415CE0
:1055C000090705D5E15D302902D07F1E3021E15564
:1055D0001821C91B4161E2198260026A914206DA10
:1055E000511A8161018D0B4A0A40028510E0002AA0
:1055F0000ED52822825C14231340102B08D1426A56
:105600000369D21A8369D21A511A012900DB816118
:1056100003B0F0BDEFFF000010B503000C00110057
:10562000606898476060002804D0E069401CE06131
:10563000002010BD0020C04310BDF8B50024002B91
:1056400011D007000E0014001D0021787068B847C3
:105650007060002809D0F069401CF0610020641CD3
:105660006D1EF2D104002000F2BD0020C043F9E716
:1056700070B5144D2868903001F003FA002812D15B
:10568000286890300068C04604460AE0204601F0D1
:10569000FFF9002807D128682146903001F008FA68
:1056A0002468002CF2D12868903001F0EAF9012832
:1056B00007D172B604484022006881781143817096
:1056C00062B670BD3C0600203006002070B572B690
:1056D00012481022006881781143817062B600F090
:1056E0004EFB00F006FC01F005FA01F033FA01F080
:1056F00053FA00240A4D0CE0204601F0C7FA0028B6
:1057000002D0204601F0C2FA204601F076FB641C6C
:10571000E4B2E87AA042EFD870BD00003006002065
:10572000BC0C0020FEB572B64248082200688178A1
:105730001143817062B600203F4E6C463168820092
:105740005218126952884300401CC0B2E25203282A
:10575000F5D372B600200D68086062B6E80702D083
:105760000020FDF711FDA80702D50120FDF70CFD73
:10577000680702D50220FDF707FD280702D50320A0
:10578000FDF702FDE80602D50420FDF7FDFC00252B
:105790001FE00F2818D2211D284A800012582046E9
:1057A0009047002810D072B62248F722006881780E
:1057B0001140817062B62AE0462805D2211D820080
:1057C0001F48825820469047306821883818006961
:1057D000018069006846415A3068AF003818006996
:1057E0000288920892001418028808348A420ED067
:1057F000A1788A070BD08907890F012901D10446B6
:105800000834A0788008C006E078D5D5C1E772B624
:10581000306838180069418802888A4202D1002124
:105820000180418062B66D1CEDB2032DD1D301F031
:105830000DFBFEBD3006002040060020FCC7051011
:10584000E4C6051010B500F0B4FB10BDF8B52A4849
:10585000002504682E46283401F012FB002803D0EE
:105860002648027F002019E001220020E36A142765
:10587000014679439C46891C5B5C1F060CD59B073F
:1058800005D56D1C002663465E54EDB20126E36A21
:105890005F5C7F067F0E5F54401CC0B29042E5D330
:1058A000012E1AD1012D18D113480021006801F0F2
:1058B000ECFA13480225006880304078C0070CD00D
:1058C00010481B22006800238069294601F008FB6C
:1058D000010002D0284601F05DFB2034E07C000688
:1058E00008D5207D012805D100F0D7FA002801D184
:1058F00002202075F8BD000034060020BC0C0020FA
:105900003C06002040060020F8B572B62C48022262
:10591000006881781143817062B62A4C20689C30FF
:105920008089C046054609E0206869469C3001F040
:1059300045FB009801F05AFB6D1EADB2002DF3D16E
:1059400020682030007CC0070BD000211E4801F0E9
:1059500065FB002805D120682030017C49084900FA
:10596000017420682030007C800723D5002001F0DE
:1059700069FB1649C98923314909491CFCF740FDD7
:10598000002817D00546124842260068012340220D
:105990008069314601F0A4FA01000BD000228A8010
:1059A000CD80304601F0F6FA2068FD222030017CDF
:1059B0001140017401F05EFB01F080FBF8BD0000B6
:1059C000300600205006002065000610BC0C0020A8
:1059D00040060020F0B593B00020079072B66048F2
:1059E0000422006881781143817062B600F08DFA5C
:1059F00000265C4D5C4F72E028688030816A7C2014
:105A000070430C1869D02089002866D0617BC907D3
:105A10005DD00005000D21462A310290102212911E
:105A20000DA8FFF79DFA08A9204601F04BFB0028BE
:105A30003AD0029801F086FB0C90207B80070CD0B6
:105A4000029801F08DFB0246484B0021012001F035
:105A5000A9FB207B0009000120730220019002981D
:105A6000069003200490424801230068803040786B
:105A7000800711D53F481C2200680199806901F018
:105A80002FFA010008D0069B8B80049B00228B71AB
:105A9000CA71019801F07EFA0C983A280AD0607B0E
:105AA00040084000607312E008A9029801F098FBDA
:105AB0000C90F1E710220DA91298FFF751FA72B677
:105AC0002748FB22006881781140817062B6A07A75
:105AD000002802D0204601F093FB761CF6B238680D
:105AE0002030007DB04287D834E007A9286801F053
:105AF00065FA0798808801F03DFC04002AD00798D9
:105B00008168097B052905D0214601F059FCFF2851
:105B100007D013E0A17AFB2918D0214601F0E8FC58
:105B200014E007988168097B032909D0E17A090705
:105B300006D500900194684600F023FA002805D0AD
:105B40000799286801F0DCFC13B0F0BD012107982B
:105B500001F0EAFC286800F094FF0028C5D0F3E7C4
:105B600030060020580600202C060020307500006A
:105B70003C0600204006002010B501F0EFFC10BDEF
:105B800010B501F089FD10BDFFB583B00E9F1C4616
:105B90000E4605000BD0A80703D1680701D42807DB
:105BA00005D5002E05D0012E03D0022E01D082246F
:105BB00017E00C986A460D9983C222463146284662
:105BC000059B01F071FD04000BD131462846059A72
:105BD00000F00AF8040004D13A460D990C9800F040
:105BE0002FF8204607B0F0BDF8B505000E003F4F76
:105BF000380001F0E1FD04001AD1684605703C4D03
:105C0000380001F0DDFD070068460078800706D007
:105C100039002800483001F0D7FD040008D1022ED9
:105C200008D1390028006C3001F0CEFD040001D00D
:105C30002000F2BD2FA20721002000F015F8F7E7A1
:105C4000F8B504000F001500294E3000903001F027
:105C5000B7FD2080300001F0BBFD388030002430DB
:105C600001F0B6FD2880F1BD70B504000D001600EE
:105C70001F48FFE701F0ACFD33002A002100401C63
:105C800080B200F001F870BDF3B581B017001D00BF
:105C90000024174E6946088024206043301801F024
:105CA00097FD002804D0401C69460988884202D02C
:105CB000641C042CF0D3042C09D0684603892420EA
:105CC00044433419206A8188DA19914201DA82202A
:105CD000FEBD29003A008068C018FBF717FB206A58
:105CE0000178890700D547800020FEBD0004002010
:105CF00070030020426C75654E52470010B501F0EC
:105D00006BFD10BD80B501F079FD02BD80B501F0DD
:105D1000EBFD01BD1CB56C46247C009401F0F4FD44
:105D200016BD80B501F040FE02BD80B501F072FEE7
:105D300002BD80B501F094FE02BD80B501F0A4FE65
:105D400001BD80B501F024FF02BD80B502F07AF8F4
:105D500001BD80B502F0C8F801BD80B502F056F96A
:105D600002BD1CB5049C009402F060FB13BD80B51D
:105D700002F0A2FC01BD80B502F0CCFC02BD80B5F2
:105D800002F0DEFC01BD80B502F074FE01BD80B5FD
:105D900002F0B0FE01BD1FB56C46248C0294079C36
:105DA00001946C46247E009402F0EAFE04B010BD1B
:105DB0001FB5099C039408AC247802946C46247F98
:105DC00001946C46247E009403F0C8F804B010BD22
:105DD0001CB56C46247C009403F0A2FA16BD80B575
:105DE00003F0E2FA01BD80B503F028FB01BD1CB54C
:105DF0006C46A48A01946C46248A009403F0DAFB72
:105E000016BD1FB56C46248C02946C46A48B01947D
:105E10006C46248B009403F0DEFB04B010BD80B50B
:105E200003F0EDFB02BD80B503F0F1FB02BD80B5D0
:105E300003F009FC02BD80B503F022FC02BD80B571
:105E400003F032FC02BD18B585B00CAC2478049484
:105E50000BAC247803946C46248D02946C46A48C7D
:105E600001946C46248C009403F023FC06B010BD12
:105E700080B503F033FC01BD80B503F051FC02BDD9
:105E800080B503F05DFC02BD80B5C0B203F0ECFC50
:105E900001BD80B503F00CFD02BD80B503F010FD1F
:105EA00002BD80B503F024FD02BD80B503F064FDA2
:105EB00001BD80B503F087FD02BD80B503F0ACFDE8
:105EC00001BD80B503F0B2FD01BD80B503F0B6FDA4
:105ED00001BD80B503F0CAFD02BD80B503F036FEFA
:105EE00001BD80B503F054FE01BD80B503F078FE1E
:105EF00001BD80B503F0BAFE01BD80B503F070FFAF
:105F000001BD80B503F08AFF02BD80B503F0A2FF9A
:105F100001BD80B503F0B8FF01BD80B503F0F4FF0B
:105F200001BD80B504F00EF801BD80B504F046F85F
:105F300002BD80B504F05CF801BD80B504F06EF8D8
:105F400001BD80B504F082F801BD80B504F096F87B
:105F500002BD80B504F0B4F801BD80B504F0E4F8EA
:105F600001BD80B504F0FAF801BD80B504F044F934
:105F700002BD80B504F076F901BD80B504F09EF94C
:105F800002BD80B504F0C0F902BD80B504F000FA8E
:105F900001BD80B504F004FA01BD80B504F052FAE9
:105FA00002BD80B504F05AFA02BD80B504F08EFA45
:105FB00002BD80B504F0CEFA01BD80B504F01CFB33
:105FC00002BD80B504F036FD02BD80B504F040FD91
:105FD00002BD80B504F080FD01BD80B504F09EFDDA
:105FE00001BD10B50120C046C04610BD7CB50400FF
:105FF0001500002902D02089618901E0A089E1898A
:10600000A84E01910090F378B27871783078FFF75C
:10601000EEFE01002420205C2678032E08D10E001D
:1060200022001132217CFFF7FAFE0400344308E01D
:106030000C000023002201003000FFF7F4FE204393
:106040000400200004D100206870FBF718FDA86050
:10605000200076BD10B5934C20706170A270E37083
:1060600010BD914A531EC11A08D0491E07D18F484E
:1060700000680078002801D0501C7047100070475D
:10608000F0B587B0894A1468894A0127002602259D
:10609000531EC11A08D0491E08D0491E1FD0491EE0
:1060A00055D0491E70D078E0A67002E02078002814
:1060B00001D1100071E02200012120000C30FFF717
:1060C00095FF694648726846407A002852D13820C8
:1060D00026542069800003210143616335E0FBF70A
:1060E000CEFCA26800230021FBF7CDFC02000B00D0
:1060F000206900210090019110001900009A0023EE
:106100008B4206DB01DC824203D33820205C00286E
:1061100018D0207B032803D106206946087201E0CD
:10612000684605726846007AFFF781FE6946487244
:106130006846407A002802D16763AB482DE004200E
:10614000087219E0A078002824D1A84825E06078DA
:10615000002801D1901C20E0220020000C30FFF725
:1061600045FF694648726846407A002802D1676355
:106170009F4812E06846057203AB221D02A9491C24
:1061800002A8FEF7F1F905E0A078002802D16078B6
:10619000002801D0974800E0D01C07B0F0BD3EB504
:1061A000424A1468944A951C531EC11A15D0491EC0
:1061B00002D0491E13D03EBD2620205C00280CD002
:1061C000220028322100273120002A30C046C04654
:1061D0002078002863D0681E3EBD10003EBD002020
:1061E000694608722078052806D04DD3072825D0A7
:1061F00012D3082833D047E020000D3002A9891CB3
:1062000002780A7042784A70237CE27B68464189B2
:10621000608DFEF731FD35E020000D3002A9891CAC
:1062200002780A7042784A70A08C0090A368626875
:1062300068464189608DFEF76DFD23E020000D303A
:1062400002A9891C02780A7042784A7023000F3331
:10625000227B68464189608DFEF7DCFD12E020005C
:106260000D3002A9891C02780A7042784A70A08C0D
:106270000190E07B0090A368626868464189608D68
:10628000FEF786FD694608726846007A002806D047
:10629000002322002A3202A92000FEF753FA280028
:1062A0003EBD0000500D0020020002004406002008
:1062B00002000300F8B5874A1468874F874E01250E
:1062C000BA1E811A10D0491E21D0491E2AD0891E1B
:1062D0002DD0491E38D0491E3BD0491E46D0491EFC
:1062E00049D0491E5AD0F2BD6170E1802178012960
:1062F00001D1501CF2BD022901D17948F2BD032918
:1063000001D1B81CF2BD042954D1B01EF2BD208ABF
:1063100004F034FC6946087068460078002835D1DE
:10632000A56102E0607800283BD13800F2BDA28A66
:10633000618A208A04F026FC694608706846007865
:10634000002823D1A56102E06078002829D1F81C3B
:10635000F2BDA28A618A208A04F01EFC6946087098
:1063600068460078002822D1A56102E06078002804
:1063700017D1F01EF2BDA28A618A208A04F016FCB1
:106380006946087068460078002805D0220010325F
:106390002000FEF743F90AE0A5610AE060780028D2
:1063A00007D022001032A11C2000FEF737F9300080
:1063B000F2BD701EF2BD30B5464A1468494A531EFC
:1063C000951E411B02D0491E05D030BD2078401FCC
:1063D000032804D805E02620205C002801D0100006
:1063E00030BD180030BD00000400030003000300AE
:1063F000050003000600030002000600FEB584B09D
:106400000400684604A92CC92CC0324F3868364DA8
:106410006E1E0499002911D06A08914210D0C02242
:10642000920291421AD0B14235D0A022D2029142BA
:1064300025D0C022D20291423AD045E0002042E06D
:1064400005000598FFF70DFE01902849884203D109
:10645000B0080090401C0190E86834E00390059873
:10646000FFF70EFE01902249884205D103988088EB
:1064700039680885009601950398406B23E0070072
:106480000598FFF717FF01901449884201D1009643
:106490000195B86917E005000598FFF78CFF01909A
:1064A000F11C884202D10120E8620096E86A0AE005
:1064B00007000598FFF773FE01900E49884201D14D
:1064C00000960195F86A029068460EC80EC407B09F
:1064D000F0BD000044060020030005000B0005008D
:1064E000070005000300040001000400030002008F
:1064F000060003000400060010B5002906D0002A9B
:1065000001D0002B02D004F057FB10BD822010BD3B
:1065100010B5002902D004F05DFB10BD822010BD33
:1065200010B5002902D004F061FB10BD822010BD1F
:1065300010B504F068FB10BD02480349006808600C
:1065400070470000BC0C00204C0600203EB53622EF
:106550000121164804F074FB154D16492860CA7ACB
:10656000014620310A750024047044708470E122D1
:10657000C2708022027102224271302008724C7275
:1065800002AA01A9684604F06DFB69460878097AF9
:1065900000010902C01C0843694609790903084340
:1065A0002968488520310C733EBD00004C06002050
:1065B0002C060020BC0C002010B50B00521E815C84
:1065C0009C5C091B01D1002AF8D1080010BD0168AC
:1065D00080220A430260016880229143016000200A
:1065E000704733480078002801D0012070473148B7
:1065F0000068002800D00120C0B2704770B50E00BE
:106600002B4D2C7801281AD1202200BF35A1300053
:10661000FFF7D2FF002801D404201BE0FB2020401C
:1066200028702548002100229300F458C3181C60EC
:10663000521C082AF8DB20300160002070BD00BF2A
:1066400020A102280FD120223000FFF7B5FF00283B
:1066500004D4012020432870012070BDFE2020407A
:1066600028701648DEE70328F6D120223000FFF715
:10667000A3FF002801D40220ECE7FD202040287071
:106680000F48CFE7012808D10B480022835C8B54C8
:10669000521C202AFADB00207047022801D107484B
:1066A000F3E7032801D10648EFE701207047000017
:1066B0005C0D0020000430486C04304890043048E1
:1066C000B4043048FFFFFFFFFFFFFFFFFFFFFFFFA6
:1066D00000000000000000000000000001000000B9
:1066E000FFFFFFFF512563FCC2CAB9F3849E17A7C1
:1066F000ADFAE6BCFFFFFFFFFFFFFFFF0000000059
:10670000FFFFFFFF10B503220121104804F098FAA3
:106710000F4C002160604170182101700120C046BB
:10672000012804D1606880220178114301700120A2
:10673000C046012804D1606801220178114301702C
:106740006068062201781143017010BD4C060020DC
:106750002C06002070B504F0C5FA04F01FFC04F00C
:1067600061FC04F099FC04F0B1FC114D0F4928685C
:106770008B8A5C2213520024C4640465C97A052301
:106780000C4AF03004F0AAFC04F0BEFC04F0CAFC91
:1067900004F0FCFC28681F214030417284722046BE
:1067A00004F07BFA04F0FEFC70BD0000BC0C00207D
:1067B0003C0600202114061010B504F051FD1448C9
:1067C00008220068002104682046FEF7CFFB114B29
:1067D000D88923304009401CC1B2002004F072FD6A
:1067E000D889D97A23304009801C4843401CC1B263
:1067F000012004F067FDE16898894880E06804F0B2
:106800006BFDE06872B6008862B62081002010BD82
:1068100048060020BC0C002010B51C2201211B489A
:1068200004F00EFA1A4C042220604321174804F0A9
:1068300007FA216804224860C321144804F000FAD2
:10684000216804228860FF210431104804F0F8F91F
:106850002168C86004F076FD20684021406804F09B
:106860007BFD216808618868C02104F075FD2168FE
:106870004861C868FF21013104F06EFD01462068BF
:10688000042281610021FEF771FB10BD4C0600203F
:106890004006002070B504F065FD0D4C0E4DE17A08
:1068A00007230C4A286804F019FC28681721018581
:1068B000218C172901D2862070BD4185E17AC06AFA
:1068C0000A010021FEF752FBFFF76FFB002070BDAD
:1068D000BC0C0020111406105406002070B504F002
:1068E0007BFD144C124A0021206804F0ADFD2068A5
:1068F0000723114A0B21103004F0F0FB216800221D
:10690000084640300C4682710B46C2710125203486
:1069100065760721A1761021E17605710270DA63B0
:1069200025768270C2700020FFF7E7FA70BD000084
:10693000FFFF00005806002031140610F8B5B02201
:106940000121214804F07CF9204C214D2060E97A96
:1069500010221D4804F074F9002322681946D362FE
:10696000936208E00F013E18F380C155976AF76003
:10697000491CC9B29662EE7A8E42F3D8B006010E77
:1069800001221148491C04F05BF9216802220862C7
:10699000E87A8006010E0C4804F052F9014620689E
:1069A00007234162E97A0B4A8906090E04F096FB37
:1069B0002068094A00219C3004F046FD04F04CFD9B
:1069C00004F060FDF8BD00004C06002050060020D9
:1069D000BC0C002081130610FFFF000010B504F06E
:1069E00055FD05480723034A0321006804F076FBA0
:1069F00010BD0000D113061034060020C9B2027881
:106A00008A4203D0401C002AF9D100207047FF21A0
:106A10000171704780B5002801D100BF07A0064969
:106A20000B68002B03D022220021984701E004F0DC
:106A30007BFD222002BD0000540D0020636F6E73A9
:106A4000747261696E742068616E646C65723A205C
:106A5000626164206D65737361676500431C017832
:106A6000401C0942FBD1C01A70477047C9B2521E80
:106A700005D30378401C8B42F9D1401E704700209B
:106A800070470068002801D000207047012070473F
:106A900010B50021018281748268826142610160C7
:106AA00004F048FD842801D0812010BD002010BDD5
:106AB00010B504460068884209D1026822600022AD
:106AC0000260206800280BD1626009E0104602686D
:106AD0008A42FBD10A68026062688A4200D1606023
:106AE000084604F0B7FDE189081AE081A089401E3C
:106AF000A08110BDF8B5002004F0B2FD06460024C8
:106B0000134F1EE0FF201930604380192C21095CCF
:106B1000032901D0022912D1054680352968CA030C
:106B20000BD5C18E002004F0ABFD3A2807D001211F
:106B3000286809048843286001E0FFF7C6F9641C4F
:106B4000E4B238682030007DA042DBD8F8BD0000F8
:106B50002C06002070B500240E4D15E0204604F0F0
:106B60007FFD00280ED02030067C304604F0C0FDAA
:106B7000002807D1304604F0C6FD002802D0304678
:106B800004F0C9FD641CE4B228682030007DA042F6
:106B9000E4D870BD2C060020F0B589B0002004F0C8
:106BA0005FFD002503905EE0FF2019302946414338
:106BB00003980C182C20005D032801D0022850D126
:106BC0000121284604F0C1FD06460021284604F0B4
:106BD000BCFD3146014301D0012000E000200590BA
:106BE0000020FF34089001340790277938093E07C8
:106BF0000001360F0090012E0DD0022E10D0032E72
:106C00001CD00120079072B62079B84225D1009897
:106C10003043207124E005980028F4D00226F2E7E2
:106C2000208861880122431A0A20434315482946D7
:106C30000068F03004F095FD0326E4E78006E2D515
:106C40000598002804D0284604F0FFFD0028DAD07B
:106C50000098DF2108400090D5E7089800280AD066
:106C600062B66D1CEDB2084800682030007DA84275
:106C70009AD809B0F0BD0120089062B607980028A4
:106C8000B3D0EEE73C0600202C060020F1B586B01C
:106C900000200290069804F0F0FD0546069804F0E6
:106CA000DFFC04460698002D25D004F0EDFD018898
:106CB000012211430180069804F0EBFD00287CD0EE
:106CC0000021069804F0F4FD07468678008800222B
:106CD000000A00900121069804F0F4FD00220190C2
:106CE0001146069804F0EEFD05462034207B02286C
:106CF00004D0012103E004F009FE6EE000213046DB
:106D0000009A04F05DFE0199294356D1002814D061
:106D100078880127000A039000253946069804F078
:106D200089FE01903946069804F08CFE07460198CA
:106D3000B04207D1042F04D004E0069804F08AFE84
:106D400038E0012501233046069A039904F096FEA7
:106D5000002802D0042F00D1012500200146049014
:106D6000069804F067FE0746207B022801D0012028
:106D700000E0002001900499069804F063FE0446A8
:106D8000012807D13046009A019904F0B9FE002885
:106D900000D0012500233046069A039904F06EFEC8
:106DA000002801D0042C08D0B74201D1042C04D013
:106DB000002D02D1069804F0C7FE002402AD06980B
:106DC00004F0CCFE002804D12146069804F006FF0A
:106DD0002855641CE4B2022CF1D36846017A0229DA
:106DE00009D0407A022806D0032904D0032802D013
:106DF000002007B0F0BD0120FBE770B5064604F0A7
:106E00002FFC0346848E304604F072FC00281CD010
:106E1000002C1AD01D46E035687F002815D072B6C8
:106E2000FAF72DFE044604F071FF014601208002AE
:106E30002018044604F06FFF012805D12146304692
:106E400004F06EFF0020687762B670BD3EB50B4857
:106E500001AA0468694602A8543404F0E9FF002836
:106E60000BD06846007AE18801228240114204D0AA
:106E700069460978019AC046C0463EBD3C060020DE
:106E800010B50120C046C0B210BDF8B505460020BF
:106E90000C468646002D03D06B781846844201D3F9
:106EA0008220F8BD2E6A315D8C46A14216D027465D
:106EB000024602E0B94203D00A46B15C8142F9D1F0
:106EC000B05C984208D06046B0549A4204D1614602
:106ED000284604F0C7FF8646286A04557046F8BD68
:106EE000FEB5044600269C4617460D46080616D5F4
:106EF00072B601AB6A466146204604F0C7FF00281F
:106F00000BD068468188009882789208920082703F
:106F100001806180012662B615E062B620E001AB17
:106F20006A466146204604F0B1FF002818D0680682
:106F300009D468468188009882789208920082700D
:106F40000180618001260098AA008178402389078A
:106F5000890F1A4011438170C770002E0CD113E0C5
:106F60000020009072B6A8060DD4084808220068D8
:106F700001681143016062B672B60548F7220068E5
:106F800081781140817062B60098FEBD40060020F5
:106F9000300600200A46400608D5D07846280AD296
:106FA000111D054B80001B5810461847907880082B
:106FB0008000801C88707047E4C6051010B5044638
:106FC0000068086020680268226000220260206871
:106FD000002800D16260086804F03CFBE189081ACF
:106FE000E081A089401EA08110BD704710B5C28805
:106FF0000446121D0021806892B204F07DFF2146F4
:10700000042004F0ADFF002805D0034821460068A5
:107010009C3004F0CBFF10BD5006002070B50E462A
:107020000749054609680020CC6A05E0314620463C
:10703000A847002802D1E468002CF7D170BD0000F9
:10704000500600200A490968096872B60122824385
:1070500090004218095A0648528800688A4200681F
:10706000008902D9511A401A80B262B670470000F6
:107070004806002070B586B004F0AEFF00206946D7
:107080000D4E0870306844308089C04604466D4615
:107090000EE03068291D4430FFF790FF019880888A
:1070A00004F0C4FF0290684604F0D2FF641EA4B24C
:1070B000002CEED106B070BD5006002010B505F0D2
:1070C0000FF810BDF3B585B0002704460546064607
:1070D0000197807A2A353236BC2824D0F12811D184
:1070E000E07A00071FD420462030002302AA294658
:1070F000039004F0FBFF0222314602A8FDF740FF97
:10710000002807D022462946304605F029F881207C
:1071100007B0F0BD0A48009700682B4601AA039902
:10712000083005F055F8102200210698FDF71EFFE3
:10713000227F29460698FDF713FF0020E8E70000AC
:107140002C06002010B5044605F056F8FF2805D09F
:1071500000222146812005F06DF810BD022010BDEF
:1071600030B501460D4800682030007D00290246F8
:1071700013D00B4B0C0519680020240D80310AE058
:107180007C2343438D6A0833EB5A1B051B0DA34236
:1071900003D0401CC0B28242F2D830BD2C06002081
:1071A0005806002070B5002406462046002900D16C
:1071B00003240A490D681035002E07D0012E04D192
:1071C000A018C1B22846FFF760FE70BDA018C1B27A
:1071D0000122284604F0C5FA70BD000058060020C0
:1071E00070B50C46054605F007F8FF2805D0224685
:1071F0002946002005F01EF870BD022070BD7047C2
:10720000F0B50446807A2546603599B0102820D024
:10721000D1286BD0D22869D0D32867D0D42865D0A4
:10722000D52863D0F02865D0FE2867D0A22871D079
:10723000B2286FD0B4286BD0BF28204669D0FEF7A3
:1072400034FEE07A000702D52046FEF792FE19B020
:10725000F0BD607805AAC107C90FA01C05F013F89E
:10726000424E434F002824D005F014F800281ED0C9
:10727000287DC0071BD005F017F8002817D0E0794B
:10728000400614D50220009030682589803080782F
:10729000012300070BD53868232280690099FFF786
:1072A0001FFE010003D08D800098FFF773FE0020C1
:1072B00045E005A9204604F0FBFF20890104C0D564
:1072C00002210505009130682D0D803040780123A2
:1072D0000007B6D538681E228069FFF701FE01005D
:1072E000AFD08D800098FFF755FEAAE7204605F045
:1072F0004BF8A6E7204605F0D5F8A2E7287D000662
:107300009FD57C2200212046FDF730FE99E701E061
:1073100019E027E0E17A0120090704D52046FEF7AD
:1073200024FE00288DD0E17F022902D1E17EC9062A
:1073300087D5002885D0287DC00702D0B420A07250
:107340007FE7A420FBE720461021643005F0F2F827
:10735000E07A000703D52046FEF7EFFD71E7B5217F
:10736000A1726EE705F0F6F86BE700003C0600201E
:107370004006002070B500281CD003050F480E4AB7
:1073800000681268203000211B0D047D80320FE060
:1073900008467C267043956A0830285A0005000D7F
:1073A000984203D17C225143681870BD491CC9B270
:1073B0008C42EDD8002070BD580600202C0600201D
:1073C000FEB506468068FF25077B887A0C46D028E4
:1073D0000BD0E07A00070CD5684600960194FEF7C2
:1073E000CCFD0546FF2804D079E0304605F0CEF804
:1073F00011E07420005DC0076BD0A07A002808D08F
:10740000F12806D0B5284DD0B62852D0FB2857D049
:1074100065E0012F01D0002561E000272089FFF7FA
:107420009FFE024600212F4B0846FFF7BBFE207B44
:10743000C14389070AD0810714D50121084320736D
:10744000207B0107890F012911D00BE00C21084096
:1074500027D00428F4D0082822D00C2800D10127F6
:10746000002F3CD02146304605F0FCF836E0FB21E9
:1074700008400821084320731B480224006880301C
:10748000407880060CD519482022006800238069C6
:107490002146FFF725FD010002D02046FFF77AFDC7
:1074A0008320FEBD032F1AD12146304605F0AEF9E8
:1074B00014E0042F13D12146304605F0E5F90DE024
:1074C000012F0CD1012300220921204605F06CFA7E
:1074D00004E0684600960194FEF7EBFC054628465A
:1074E000FEBD0000307500003C0600204006002074
:1074F00010B50A4681681046497B05F06BFA10BD4D
:1075000010B50446006808602068002800D161605A
:107510000846216004F09EF8E1894018E081A089C6
:10752000401CA08110BD7047F8B50E460A490838C6
:10753000096807460C6805F07FFA05463946E06899
:1075400005F084FA72B6B100605A401B605220897F
:107550004019208162B6F8BD480600207FB50400BE
:107560004A48164600680D4619D0062C11D0082C42
:107570000CD0182C0AD0282C0BD02A2C09D02C2C5B
:107580000AD02E2C0BD0D02C42D043E0102D08D0A6
:1075900040E0022D05D03DE0012D02D03AE0062D5D
:1075A00038D10A4600193146FDF7DAFC2C2C28D1D7
:1075B0003078002825D00120C046012824D01B2087
:1075C0001F304009401C41004118012003F07AFEA1
:1075D0000120C046012819D01B201F30400941005E
:1075E00040182B498989081AC01E81B2002003F077
:1075F00069FE28484022016808781043C008C0008E
:107600000870002004B070BDFB20D9E7FB20E4E740
:10761000012D04D00120C046012804D005E01078D7
:1076200005F02FFAEEE7D12C04D0302C20D0D32C4B
:1076300024D025E0082D23D1022231466846FDF7EB
:107640008FFC0222B11C01A8FDF78AFC0222311D29
:1076500002A8FDF785FC0222B11D03A8FDF780FCFE
:1076600068468389028981880088FEF732FCC9E771
:10767000012D05D1307805F015FAC3E7012D01D0B1
:107680001220BFE7307805F014FABBE72C06002083
:10769000BC0C00203006002080B5024800F08CF8B9
:1076A00002BD00009C090610FFB587B00F46002000
:1076B000694608733F48164605682835012A1DD8D3
:1076C00005F006FA002805D12C462034A07C0028BD
:1076D00002D085200BB0F0BD03A80799FEF7D9FBB7
:1076E0000028F7D1607D6946304360750720087532
:1076F000012F05D0022F09D0002F12D08220E9E7F8
:10770000087B10210843694608730AE0087B2021A2
:1077100008436946087305A903A8FEF72CFB002857
:10772000D8D100260096684601960178DF200143F3
:10773000684601704178092001436846082241707B
:107740008270022F03D10620014368464170FFF783
:1077500097FB01280AD16846417812200143684608
:10776000417081780720014368468170684605F0C2
:107770001DFAFF216846017041708170C17001716E
:107780009F21417186712021C17105F021FA28469F
:107790003630FEF7CEFA00289CD16846007B810681
:1077A000890F03D0617D022211436175A07400200E
:1077B00090E700003406002010B505F01BFA10BD5C
:1077C00010B505F0B1FA10BD10B505F0B7FA10BD4F
:1077D00010B505F019FB10BD10B51F2901D80128FF
:1077E00001D9122010BD044A1268403251729072C1
:1077F00003F053FA002010BD3C060020F7B53848CE
:1078000084B0006800242830009036480F46007F7E
:1078100016462546B84202D2122007B0F0BD0498A1
:1078200038431DD10021084605F0F8FA044617E058
:1078300006206843315C049801280FD10098142376
:10784000C26A084658431230105C012800D0D32485
:10785000002C03D1012005F025FB04466D1CEDB280
:10786000BD4202D2002CE3D035E0002C33D1049885
:10787000002803D005F070FB04002CD132463946B5
:10788000049805F0CBFA040025D1002521E0284614
:1078900006214843315C029101218019019101794F
:1078A000002902D14088002801D002200190012146
:1078B000029A049805F078FB049801280DD0002165
:1078C00000981423C26A0298584313306D1C115457
:1078D000EDB2BD42DBD320469FE70199F0E70000FF
:1078E00034060020BC0C0020002809D105481422D1
:1078F00000685143406D80224018817811438170A7
:107900007047000034060020FFB5844624488E46A8
:10791000026895B0114630311E9F0E910F911046AE
:10792000916B3C32283011921091416A1291806A19
:1079300013901CA000681490087B0026012801D138
:1079400002200743002402A814A9095D394218D077
:10795000A30011A9CD580EA9C95832010B88835232
:10796000131849885980298899806988D980A988FD
:107970001981E9885981298999816989761CD98178
:10798000F6B2641CE4B2032CDED301906346724667
:1079900000971799189805F057FB19B0F0BD000033
:1079A0003406002001020400F0B5844617488BB06D
:1079B00004680025204630300090A06B019014A090
:1079C00000682B462834099009A8C05C08420FD0F3
:1079D0009A006846875806222E465643387902AAEE
:1079E0009055B2183888508078886D1C9080EDB220
:1079F0005B1CDBB2022BE7D360780A46014602AB80
:107A0000604605F097FB0BB0F0BD00003406002087
:107A100001040000F1B510480024056882B020463A
:107A200026460E4F283511E0214614235943EA6AB1
:107A30001331515C012907D16846047046800671F4
:107A40006A46029805F0EAF9641CE4B2397FA14263
:107A500001D90028E8D0FEBD34060020BC0C00206F
:107A600070B5064600200446064D05E03146204626
:107A700005F0C2FB641CE4B2297FA14201D90028B1
:107A8000F4D070BDBC0C0020F0B58FB0044605F0FA
:107A9000B7FB204605F0BCFB2646A0360A960146F9
:107AA000F07E626D4243401C48431718AC20015BD6
:107AB000204605F0C3FB3B18304D33480795304A4C
:107AC000304904AD07C5E16F606D012705222546E9
:107AD00002920191C03503970090A87E3A46214654
:107AE00005F008FCB07E012843D0284E05F024FCA8
:107AF000029005F029FC06900097A97E722320468B
:107B0000029A05F025FC019700962046A97E722373
:107B10001430069A05F060FC6079384360712046A5
:107B20002030C17820221143C1700A98007F0128BB
:107B300021D002281FD0154E0097E97E4D23A06A60
:107B4000029A05F005FC01970096A06AE97E4D2394
:107B50001430069A05F040FCA06A4179394341711E
:107B6000F9F78DFFC830E067204605F083FC0FB0C1
:107B7000F0BD4626BAE74626DEE7000021150610CE
:107B8000FDD70510F1D8051075D90510EE020000DB
:107B9000F0B591B0074605F033FB0646FF360936CF
:107BA0000896FEF71CF93446FF3478782134A07526
:107BB00038780028E0797CD0C00701D00C202AE179
:107BC0000020E07405F0DAFC0120FF2160721D3115
:107BD000885300200D907888354600038035E8638F
:107BE0003879C00428647988002907D039790029B8
:107BF00004D0E96B814201D30C20D8E02079012820
:107C000001D003280CD100200090019002A805F0BB
:107C1000EBFC0622694602A8F9F714FC00287DD087
:107C2000F9F72DFF7D21C900401828626862A8611C
:107C3000E8616864A864E86B002803D0F9F71FFFC7
:107C4000E96B4018A863FEF784F874480F90207C15
:107C5000C00704D005F0D2FC6074FF287ED0207CE1
:107C6000400704D505F0CAFCA074FF2877D0207C1B
:107C7000C00743D06A4B6D4807936A4A6A4904AB10
:107C800007C3296AA86800900123062201A80EC034
:107C9000607C03220F9B089905F02CFB03200090C9
:107CA000726B63481346006814334030417A607C3D
:107CB00000E0AAE005F0C6FC617C502041435D482D
:107CC0000818C26D3F2109028A4327210902511871
:107CD000C165617C50204143564880300818416896
:107CE0000A022521120A090651184160286A05F086
:107CF000EDFC012802D0607C05F0F8FC207C4007F8
:107D00004AD5474B4E4807934B4A4C4904AB07C3EF
:107D10000123696AE8680622009000E041E001A8BA
:107D20000EC0A07C03220F9B089905F0E3FA032004
:107D300000903F48B26B006813464030417A1433DC
:107D4000A07C05F07FFCA17C5020414339480818F5
:107D5000C26D3F2109028A43272101E026E029E084
:107D600009025118C165A17C50204143314880303F
:107D7000081841680A022521120A090651184160B3
:107D8000A07CFF2800D137E7686A05F09FFC012836
:107D900002D0A07C05F0AAFC787901282BD0002520
:107DA00023E00020E071122011B0F0BD0720002177
:107DB000E171F9E7207C0725C00702D0607C05F05F
:107DC0004DFE0020E0712846EEE7A80030580190F3
:107DD00005F014FC0090FF2802D0032105F04AFEB4
:107DE000019900986D1C4871EDB2A07EA842ECD8B4
:107DF0007879012803D1E07902210843E071E07924
:107E000001210843E0710D98CEE7C00700D1D5E607
:107E100005F036FE00200D90C6E70000DC050000EE
:107E200063140410D514061005150610ED14061081
:107E30003C06002080000020E11406100F150610FB
:107E4000F9140610F8B505F0DBF90546FF35FF20FB
:107E5000093500260090F9F712FE22492C464718F2
:107E6000FF342134207CC0070ED0607CFF280BD06B
:107E700005F016FE607C0090A0204059394605F0C0
:107E80001CFE002800D00126207C400710D5A07CD5
:107E9000FF280DD005F004FEA07C0090A4204059DE
:107EA000394605F00AFE002801D0012600E0002630
:107EB000E07980070DD4002708E0B8002858407901
:107EC000FF2801D005F0ECFD7F1CFFB2A07EB84278
:107ED000F3D8002E04D0009805F0F4FD01202076A0
:107EE000F8BD0000FE1F0000FEB505F089F904464C
:107EF000FF3409340746264600208036B062F0621F
:107F000001223046A030029001460276E51DF93587
:107F10005522D200B8186F61A8610A79D00715D030
:107F2000364800688930014600902046E43005F06C
:107F3000F5FD706EF066B06E306731480622391874
:107F4000009805F0FDFD0020FF2107E02D480068A6
:107F5000E9E78200A258401C1171C0B2029A927ED9
:107F60008242F6D8002603200090B0000719AA69C3
:107F70004D230021786B05F0EBF903212248019194
:107F80000090786B6A694D230021143005F024FAC3
:107F9000786B2030C17804221143C170786B203097
:107FA000C17820221143C170761CF6B2022EDAD3BA
:107FB00003260096AA694D230021E06B05F0C8F95D
:107FC0007D20000101960090E06B6A694D2300213D
:107FD000143005F001FAE06B2030C17840221143E3
:107FE000C170E06B2030C17820221143C17002992A
:107FF0002520087502994875FEBD00003C0600204A
:10800000AA0200002C06002010270000F0B59FB047
:10801000054605F0F5F80446002008A9059008700B
:10802000199001201890FB482E460068FF34FF305D
:108030000130017EF848183600680934002801DA5A
:10804000012911D040067DD500201890E06B017EFB
:108050004908490001762878401C2870EF4841689B
:10806000802211434160A0E100200190E01DF93021
:1080700003904769B878800601D0012019902879CB
:1080800050214843E54940394018C06D4000400F39
:108090001A90042801D102201A9028460C30199910
:1080A000009000292AD02878062801D1F9F7FCFB96
:1080B00000200290F878C00706D00020A875697DDE
:1080C000009805F059FD0290F878810701D40198D5
:1080D00010E0C007387803D0C20939460A3101E000
:1080E000C209391D1BA805F019FD697D1BA805F003
:1080F00085FD019002990843FF2809D00398406943
:10810000844600780007000F072802D008287DD099
:10811000D2E00CAB04930BAA0DA90AA801AB07C3CC
:1081200009A800901DAB16AA15A9604605F087FDA9
:10813000179000280BD12878002808D120466978AC
:10814000FF3000E0FFE02330085C01287CD0F9F725
:10815000ABFBE06B017E01221143017610A8007D8C
:10816000E870059217980090287950214843AB4950
:1081700040394018C06D4000400F019002A805F042
:10818000C5FD019804286FD012200299091A0098A1
:108190000818009008A8017C179805F0C3FDA049B5
:1081A000179A4143090A002A02D0009A101A009037
:1081B00008027D2109034018010198480909026954
:1081C000984B1A40114301612879009905F0BEFDD2
:1081D000012108A8017014A8009013AB08AA284632
:1081E000179905F0B9FD23462A46059905F028FEA2
:1081F000189010A8017C027B08A8007D05900497C8
:108200000692079108A81BAB017B00E051E00079C2
:10821000199A6F460FC708A8037A10A8027E28464D
:10822000179905F037FE7068109008A80079B168BA
:10823000000601431191307800220107C90F400662
:10824000800F27D027E0FFE7B8788109C0D08009E8
:1082500002280AD0012200211A9805F073FE002896
:108260000ED005202870B3E712E0012211461A98BB
:1082700005F068FE002801D00320F3E700202870F5
:10828000F9F712FBE06B017E0122114301769FE7B3
:108290009D207AE7012210A805F0FCFE002803D0FB
:1082A000002008A9087000E00120FF2129310855AD
:1082B0007BE02878062808D0F9F7F6FA0120234653
:1082C0002A46059905F0BCFD6FE0F9F7EDFA1A981A
:1082D0000622800000190290806A391D0830F9F7E3
:1082E00015F802982746806AFF3784462137F87DC3
:1082F000012815D0009B4C480993039300220121CB
:108300006B4607C32B79B97B604605F039FF0998A6
:1083100006F012FB0220F875FF20B8730020F871F8
:10832000787CFF2801D005F0BBFBB87CFF2801D08A
:1083300005F0B6FB287906F025FBFF202871687947
:1083400005F0D4F931E0F9F7AFFAE16B0A7E0120CC
:1083500002430A7623462A46059905F071FD2878DE
:10836000042802D1204606F028FB2878112803D0E3
:10837000142801D0012818D12146FF312131087A73
:10838000002812D030789F221040402210433070D5
:108390000020FF343077013460693062887BFF2829
:1083A00035D13378317F00222EE008A800780028EC
:1083B0002DD0307F00273378E52803D9E538C7B2C0
:1083C00020200343FF342134A07BFF280DD1A87D5A
:1083D000012803D17068FF2108437060307F0022BC
:1083E000C01BC1B23046FDF7C2FC002F0FD0A07BEE
:1083F000FF280CD1A87D012803D17068FF21084314
:1084000070603378E52239463046FDF7B0FC1898A5
:108410001FB0F0BD3C06002038060020C000002040
:1084200071020000FF0000F0FFFF0000FFB597B0F1
:1084300006460AAB09AA14A90EA801AD0FC50FA8DC
:108440000090F01DF93015900024406913AB08AA84
:108450000DA905F0F4FB0546119018988000C7B2ED
:10846000169012A805F052FC042F25D01220129964
:10847000081A4019109008A8017A119805F052FCCA
:108480008249119A4143090A002A02D0109A101A0F
:10849000109008027D210903401801017C48090958
:1084A00002697C4B1A401143016100203546FF35BB
:1084B0000746213500901AE09D20D8E7B8003058D3
:1084C000FF2201792D32FF290FD083681099591AA4
:1084D00000D54942914208DA0446012000901099E3
:1084E000A1602079109905F031FC7F1CFFB2A97EB4
:1084F000B942E3D8009800280DD1119800280AD07D
:10850000002006E08200B2581279FF2A64D0401C95
:10851000C0B28142F6D8287E002854D0002C52D018
:108520006079FF284FD020715B4F5E4907975B4B06
:108530005B4A04AF0EC70822109909275A4B0392D1
:108540000191029700930322214604F0D3FE0320F9
:1085500000905648F26B006813464030417A14335D
:10856000207905F06FF852A103C90C910B90207986
:10857000474F502148434037C01981688AB2694645
:10858000898D09040A4382600BA8023006F040FA84
:10859000810220795022890A5043C019C268920D85
:1085A00092051143C160207950214843C0194168A8
:1085B000FF2212061143416008A9087DE070087887
:1085C000A07018986070287E002808D0002C06D073
:1085D00020798021084303E0800034589BE7FF2086
:1085E00005F084F8F9F74BFA0146169880198030A7
:1085F000026A891A826A511881620020E874002C8C
:108600002BD008A8007818A9844608A80EC90779B5
:108610000020109D2070A560254620356075EF7103
:108620002076A275002B06D0209B1B68E362209B5E
:108630005B68236301E0E0622063002A1FD0E061F1
:1086400020624800401C28716046401C68711598E3
:108650004069C0788007C00F2075119800280CD1A0
:1086600008A800796B461A9A209907C308A8037FC7
:10867000017E3046199A06F0D6F91BB0F0BD159868
:108680000068E06115984068DAE7000071020000B8
:10869000C0000020FF0000F00F6A04105B5D0410B2
:1086A0004DF705109DFC0510581B00003C060020EE
:1086B000FFFFFFFF1F00000070B5066A8AB0057D4E
:1086C000B2180646153607960695099208911025A8
:1086D0000F22002645578256817B059602AE26C69C
:1086E0001C46031D417B007B0090094801910068F6
:1086F0001A782030007BC00701D0002000E0102055
:10870000A121084321465B1C06F0F0F90AB070BDB8
:108710002C06002070B50446E1200D46800006F0CE
:1087200043FA012006F068FA002801D0862070BDC7
:10873000207820210843207009202870002070BD77
:10874000F0B585B0F9F79BF9C94F05243968E40104
:108750008031CA6D4F2314192668DB0005249B580D
:10876000E4011419C31A64680025F3186C41052547
:10877000ED0155192B600523DB01D2185460CA6D39
:108780009D25FF32FF3202329067C86D2724C21840
:10879000AD0024012E581268C318245815255B68B3
:1087A0006D01121BB34133D305240023E4010419E6
:1087B0001A4623600523DB01C0184260C86D1321EF
:1087C00049014118097A002922D04019C0780024B3
:1087D000002815D9386828218030C06D6143FF30EA
:1087E000FF300230C06D461806F00AFA3062386871
:1087F000641C8030C06DE4B24019C078A042E9D852
:1088000038688030C16D0520C00108188069804734
:10881000386813228030C16D52018A18D27A002A3A
:108820007ED00522D20189188A680192C968009118
:1088300003910292C06D152149014118FF30FF30AC
:1088400002304978406D06F0E4F90024064600281D
:108850001FD9874861060068890D8030C06D091DE9
:10886000FF30FF300230426D515849004D0E7F2DD0
:108870000BD0C16D282068430F1800233846009A9A
:10888000019906F0DEF9002823D0641CE4B2B4425A
:10889000DFD3774C05212068C9018030C36D039A6E
:1088A0005B181B7C15251B061A430392C26D6D01D4
:1088B0005218117C491C1174C06D02AA4119FF3075
:1088C000FF3002308978406E06F0E8F9FF287DD04D
:1088D000A5E020370097FA79FF2A0DD064481521CA
:1088E000006849018030C06D4118FF30FF30023010
:1088F0008978406E06F08CFA29060122D207039887
:10890000114308435A4D0390286815248030C06DE8
:1089100064010119FF30FF3002308978406E00E0B9
:10892000A4E002AA06F0BAF9FF2854D1286821462B
:108930008030C06D4118FF30FF3002308978406EC2
:1089400006F067F900210446002810D92868803015
:10895000C66D9920800080594A06520ED3001B1D17
:10896000C3581B0E3DD0491CC9B2A142F4D3002C00
:1089700021D000212A6848068032D26DFF32FF32B2
:108980000232566E820D121DB358180E07060DD412
:108990001B021B0AB3502E688036F66DFF36FF3679
:1089A0000236401E766E00060343B350491C641E17
:1089B0002406240EDED1286815218030C06D4901BF
:1089C0004118FF30FF308978023000E019E0406E36
:1089D00002AA06F063F90099FF28C87100D158E790
:1089E0001DE0152149017118897806F011FA2868EF
:1089F0008030C16D0520C0010818017C491E01743A
:108A0000B5E706F093FA206802AA8030C06D4119DC
:108A1000FF30FF3002308978406E06F03FF9144C89
:108A2000132521686D018031CA6D01205219D07261
:108A3000CA6DFF32FF320232536E106E1366CA6D7A
:108A4000FF32FF3202325066C96D152252018A1878
:108A5000FF311279FF310231D200096EF8F73CFC88
:108A6000216800208031C96D4919C87205B0F0BD78
:108A70003C06002070B5154606460A68FE201C4CD0
:108A8000824320684B688030C06D15214901411830
:108A9000FF30FF3002304978406D06F0A1FA400601
:108AA000400E7F2822D02168C0008031C96D001D92
:108AB000FF31FF3102314A6D10584000400E7F28CF
:108AC00014D028225043C96D024610328C182368F6
:108AD00062681A43A3681343E2681A4306D0203041
:108AE0000A582B463146204606F09BFA70BD00001E
:108AF0003C060020F8B506460268FE201F4D824362
:108B000028680F468030C06D152149014118FF309B
:108B1000FF30023073684978406D06F061FA400614
:108B2000400E7F2829D02968C0008031C96D001D02
:108B3000FF31FF3102314A6D10584000440E7F2C46
:108B40001BD0C86D28214C430019026841681143AD
:108B50008268C0680A4310430FD006F051F82968B4
:108B600002468031C96D3B46FF31FF310231C96D8C
:108B70000C193146204606F054FAF8BD3C06002098
:108B8000FFB58BB005460020149C00900E98F14F65
:108B90004007C00F079038680E468030C06DFF3028
:108BA000FF300230C06D059028780106090E04914F
:108BB00068680AD001028A0F05D00022890F0129B6
:108BC00005D0002103E00122F8E7002211460D9BA9
:108BD000132758600D982B680360DE487F010068FA
:108BE0008030C06DC3191B7A012B7DD1002A13D0B0
:108BF0000798002879D1032E02D0052E05D0A5E1D3
:108C0000012C72D0032C04D1A0E1022C6DD0032CD6
:108C10006BD001200FB0F0BD002965D07F216A46DE
:108C20001176002109910191152149014118FF3068
:108C3000FF30023089786B682A68006E06F0D0F940
:108C4000FF2819D0C34940060968800D8031C96DDD
:108C5000FF31FF310231096E001D0858000E010678
:108C600003D401200990002004E04006400E69462C
:108C70000876012001905BE0032E01D0052E57D12C
:108C8000B44800688030C06DC119C97A00290CD180
:108C90005121C9004018294606F00CFAAD490120BF
:108CA00009688031C96DC919C872052E1DD1AA493C
:108CB0001698884202D00E98C00616D506A80590D0
:108CC000002007460890A34801688031CA6D15212D
:108CD00049015218D278002A28D99E48006880306D
:108CE000C06DFF30FF3001E096E0A4E00230C16DBE
:108CF0002820784308182421095C01290AD101237E
:108D00006A68296805F09DFF002803D101200890BA
:108D1000059807708F487F1C0068FFB28030C16DD6
:108D2000152040010818C078B842D6D8089800909D
:108D30000798022500282AD00099019808437AD084
:108D4000844C69462068097E8030C06D2823FF303E
:108D5000FF3002305943C26D2631515C406DCE0068
:108D600081190D9806F0A6F9206807228030C06DA1
:108D70001599FF30FF300230406D8019F8F762FB23
:108D8000002858D10D9800780FB02843F0BD0998FD
:108D900000280BD0012C07D0032C07D0032E38D08D
:108DA000022C03D0032C01D0052E32D0009901985B
:108DB000084328D0674869460068097E8030C06D46
:108DC0002823FF30FF3002305943C26D2631515CF9
:108DD000032E02D0052E05D008E0012C06D0032C6E
:108DE0000AD103E0022C01D0032C05D1CA00436D47
:108DF000121D9A58002A1EDA406DC90009180D98F4
:108E000006F058F9BEE7022C15D0032C13D0052E1E
:108E100011D1FE200FB0F0BD11430DD007990029EC
:108E20006AD0159829680068814204D1159869684C
:108E3000406881424BD089E0002106910F46152100
:108E400049014118FF30FF30023049786B682A68C9
:108E5000406D06F0C5F8FF282BD03E49C0000968D8
:108E6000001D8031C96DFF31FF310231496D085855
:108E7000000EC1094006400E06917F2819D0282215
:108E80005043059A01218018036842681A43836899
:108E90001343C2681A4303D02030407901280AD016
:108EA00000270798002813D0002906D0002F4DD1A5
:108EB00003E00021F5E70127F3E71598296800682A
:108EC000814243D115986968406881423ED13AE0B9
:108ED000012C01D0032C01D1032E05D0022C01D08E
:108EE000032C04D1052E02D1069800282ED000298B
:108EF00029D0002F2AD126E0012C01D0032C01D14A
:108F0000032E05D0022C01D0032C1CD1052E1AD122
:108F1000152149014118FF30FF3002300D4C4978CE
:108F20006B682A68406D06F05BF8FF280ED0216858
:108F3000C0008031C96DFF31FF310231496D001D24
:108F40000858C00F02D004980FB0F0BDFF200FB03A
:108F5000F0BD00003C060020FCFF0000FFB583B020
:108F600005460C980C46C007C00F0C90EB480D9EB0
:108F700001688031C96DFF31FF310231C96D029145
:108F8000296821606968616029780F9AC907C90F4B
:108F90000191FF211170006813218030C06D4901DB
:108FA0004118097A2A68012954D0D10706D06B6884
:108FB00019028F0F012F7DD0890F7BD01521490118
:108FC0004118FF30FF30023049786B68406D06F081
:108FD00007F87F210027FF2823D0D049C000096867
:108FE0000F9A8031C96DFF31FF310231496D001D8B
:108FF0000858010E4806400E1070C243520610D0A9
:1090000028225043029A8018036842681A438368F2
:109010001343C2681A4303D02030407901287DD021
:1090200000270E9801287AD0012E79D0032E77D010
:109030000598012875D02078C1070C98C90F814286
:1090400070D106990622601C491CF8F7FBF900282C
:1090500068D118E1D107B1D06B6819028F0F012FC9
:1090600016D0890FAAD1012E5CD0032E5AD00598B4
:1090700001287DD0D1070C98C90F814252D10699A1
:109080000622681C491CF8F7DDF9002871D01AE1A6
:109090000E99012922D0152149014118FF30FF30D6
:1090A00002309E4F8978006E05F09AFF0146FF203E
:1090B000002200E0EDE0FF297ED03B6849068033C6
:1090C000DB6D890DFF33FF3302331B6E091D5958C9
:1090D000090E0B0656D40122002156E06946029182
:1090E00000210E460191152149014018C0788B4F8F
:1090F000002817D938688030C06DFF30FF3002304B
:10910000C16D2820704308182421095C012910D161
:1091100001236A68296805F094FD04E0A1E0A2E05B
:10912000ACE0B3E060E0002803D101200190029898
:1091300006703868761C8030C16D15204001081813
:10914000C078F6B2B042D5D8019801284CD1694612
:109150000F9809780170386869468030C06D0978C9
:10916000FF30FF300230282359432631C26D01E021
:1091700043E073E0515C406DC9004118204605F0A2
:1091800099FF37E04806400E01210F9B0029187017
:1091900035D0396828238031C96D5843FF31FF31FC
:1091A0000231CA6D2630105C496DC000021D8A581C
:1091B000150E0918204600E017E005F07BFF012E90
:1091C00016D0032E14D00598012813D02078C1079B
:1091D0000C98C90F814276D106990622601C491C61
:1091E000F8F730F9002805D06DE00F9B18701EE0ED
:1091F000E80968D02078801CC0B207B0F0BD002A12
:1092000015D0012E5FD0032E5DD005980128F4D033
:109210002078C1070C98C90F814254D106990622C3
:10922000601C491CF8F70EF9002817D04BE038688D
:1092300013248030C06D64010119C97A3E460029AB
:1092400041D15121C9004018294605F033FF31684A
:1092500001208031C96D0919C87234E0012007B0BE
:10926000F0BD0127DDE62068296888422BD16168BE
:109270006A68914227D1002F25D121E0C80922D068
:10928000002F20D13DE0002F1DD13AE0002F1AD150
:1092900037E00E9901290DD0012E17D0032E15D0DD
:1092A000059801282DD02078C1070C98C90F81425C
:1092B0002AD008E02068904205D16168994202D125
:1092C000C0B207B0F0BDFF2007B0F0BD15214901C5
:1092D0004118FF30FF3002300024104D4978406DB6
:1092E00005F07EFEFF280AD02968C0008031C96DD4
:1092F000FF31FF310231496D001D0858040EE009AD
:10930000E1D0019807B0F0BD06990622601C491C07
:10931000F8F798F80028F4D0D5E700003C060020C4
:10932000F8B50D461F491446096813228031C96DEE
:1093300052018A18167A4268012E09D10668B4468D
:10934000F60705D01602B70F012F0CD0B10F08D0C9
:1093500061688A4205D1216800680E2291438842E3
:109360001CD0FF20F8BD5806400EFF280DD0FF315D
:10937000FF3102312823C96D584308180123614683
:10938000103005F05EFC002803D06808E9D0FE200C
:10939000F8BD2078C007C00F801CF8BDC007C00F03
:1093A000F8BD00003C060020F8B5234C13252068CA
:1093B0006D018030C06D05264119497AF6010027FC
:1093C000002918D08019C0698047002813D120686F
:1093D00015218030C06D49014118C978FF30FF3038
:1093E000CA000230416D806DF7F776FF206880304B
:1093F000C06D4019477220688030C06D4119897A6C
:10940000002918D0801940698047002813D12068AE
:1094100015218030C06D49014118C978FF30FF30F7
:10942000CA000230816D406DF7F756FF206880302A
:10943000C06D40198772F8BD3C060020F8B55B4C42
:10944000152520686D018030C06D28224119FF303C
:10945000C978FF3002305143C06DF8F7B9F8206881
:10946000FF228030C06D4119FF300979FF30023092
:10947000C900C06CF8F79CF82068FF228030C06DEE
:109480004119FF300979FF300230C900006DF8F74B
:109490008FF8236800278033DE6D7019C1780029AA
:1094A00031D0C9070020C90FFF22002906D0FF369E
:1094B000FF360236F06D272682550120DB6D5B19E1
:1094C000DB788B421FDD236828268033DB6D464323
:1094D000FF33FF330233DB6D27369A552368282686
:1094E0008033DB6D401CFF33FF330233DB6D4643BB
:1094F00027369A552368401C8033DB6D891C5B1925
:10950000DB788B42DFDC206805228030C16DD20120
:1095100089180F74C16D2723FF31FF310231CA6CE6
:109520000A66C16D1B01FF31FF3102310A6D4A66C7
:109530001322C16D52018918CF72C06D1C4A1A5096
:10954000FF30FF30002102304167F8F798FA2168B8
:1095500005268031CA6DF601FF32FF320232906774
:10956000CB6D00229E19104632600522D2019A1856
:109570005060C86D00264019C078002815D92068B1
:109580008030C06DFF30FF300230C16D2820704345
:109590000F1805F035FB38622068761C8030C06DEE
:1095A000F6B24019C078B042E9D8F8BD3C060020B8
:1095B0000000F9157FB56C46099E089D2072617206
:1095C0000020A072258066802371694602A805F0FC
:1095D00079FD04B070BDF0B585B00C460AA9E0C9AC
:1095E00069460C804A808B80CD800E814F8101229C
:1095F0000A730146684605F091FD05B0F0BD1346BB
:109600000A4610B50146402005F0B6FD10BD1CB558
:10961000002200920192030005F014FE06040608E1
:109620000A0C0E13012008E0022006E0042004E0EA
:10963000082002E0102000E020206B4605F09CFD91
:109640001CBD82201CBD10B5030005F0FBFD080504
:1096500007090B0D0F11131701200CE002200AE07F
:10966000042008E0082006E0102004E0202002E0AA
:10967000402000E0802005F0F3FD10BD822010BDE9
:1096800070B500220546134605F030FE0446002D55
:1096900006D104481C220168C86A0021FBF766FC59
:1096A000204670BD3406002010B5012205F042FEB0
:1096B00010BDF0B585B06C460A9F0B9E0E9D2080B4
:1096C0006180A280E380278166810C98A0812A4670
:1096D00068460D9905F0DAFE05B0F0BD38B50F4AC1
:1096E000146823466C334834E27C150601D5002803
:1096F0000FD0DC2002400BD0684602700021417080
:109700006946022005F013FFE07C23210840E07445
:1097100038BD01202075598038BD00003406002076
:1097200000220078012906D0002806D0012804D0A4
:10973000042802D002E0C00700D001221046704782
:10974000F0B5002287B00F46019211460092012F1A
:1097500003D00178042918D018E0028804461007C5
:1097600018D4E57DE01CA6690190A0780090D00691
:1097700005D400220099019805F008FF0146002950
:109780000BD00125012F5DD06AE00122057AC66861
:10979000002A02D0012007B0F0BD324928460968EE
:1097A00000250122283108E0B35C012B0AD0B31850
:1097B000203BDB7F9A18521C92B28242F4D3012FD5
:1097C00011D04DE0521C90B23322525CD30702D02C
:1097D000305CC00703E09207F1D5305C80070028B9
:1097E000EDD00125EBE7002D3AD02088C20637D412
:1097F0004006800F012833D101980590009804900D
:10980000002006904F680546E800401BC6B20020C5
:1098100002900390B819072202A9FBF7B1FB0006DA
:10982000000E05D06D1CEDB2042DEDD3069D17E0A2
:10983000B8190125064606220599FBF791FB049805
:10984000B07101E001290BD120784006810F02D0D0
:10985000800F022804D101220099019805F096FE9C
:10986000284698E73406002038B5104800210468DF
:1098700008462834FCF7DFFA694648702034E07C5B
:10988000C10704D001216A4611708843E074C0B258
:10989000810705D502216A461170FD210840E07458
:1098A0006946022005F043FE38BD00003406002062
:1098B00002780907090F0A430270002070477047B9
:1098C00000B585B0142207496846F7F705FD06483C
:1098D0006B460068054A6C304088012105F082FE25
:1098E00005B000BD3813061034060020FFFF00004D
:1098F0007FB5AC218172817B05468A072A350446F3
:10990000002A09DA102200216846FBF72FFB69467E
:109910002B460A46AD250FE0C80701D1480719D5E7
:1099200021464A312246E07A5232000701D52B46C1
:1099300001E023463A33AE2520890005000D05F0ED
:1099400063FE00280BD03A2801D00C2800D100205B
:1099500004B070BDC808C000A0738520F8E7A17BE3
:10996000CA0703D010221143A173F125C9B2C90857
:10997000C900A173A572EBE710B57421095CC90792
:109980000BD1817AA42909D0AC2916D0AF2904D1F2
:10999000417F002914D0D021817210BD04461021CE
:1099A000543002F0C7FDE07A0007204602D5FCF7EC
:1099B000C0FA10BD05F073FE10BDFCF772FA10BDC1
:1099C00002F0C8FD10BD10B504684168A268FF2010
:1099D000137B8A7A002A0DD0F12A0BD0A12A0FD04E
:1099E000A52A13D0A62A04D1042B02D1204605F0C3
:1099F00089FE10BD0B2BFCD1204605F0F5FE10BDF5
:109A0000022BFCD1204605F031FF10BD032BFCD109
:109A1000204605F061FF10BD10B50146807AA928E7
:109A200002D1002005F058FF10BD704710B5024963
:109A3000062005F07DFF10BD95B2051038B58906EA
:109A400012D5044605F07EFF028B69460A80408BE2
:109A50004880E08E009905F081FF3A2804D08034D8
:109A6000206820218843206038BD7047FFB581B051
:109A70001E461746002405F065FF054601981B2881
:109A800000D230240120C046012840D01B2101987B
:109A9000814200D23024FF2102984931884200D20D
:109AA00030240120C046012833D00120C0460128BF
:109AB00037D0FF2149310298814200D230241B2F38
:109AC00000D230240120C04601282DD01B20B842EE
:109AD00000D23024FF204930864200D230240120B9
:109AE000C046012822D00120C046012826D0FF20F0
:109AF0004930B04200D2302472B6019828840298CE
:109B00006884AF84EE8462B6204605B0F0BDFB21C8
:109B1000BDE70120C046012801D00A49CBE70A4928
:109B2000C9E7A9210901C6E7FB20D0E70120C0460B
:109B3000012801D00348DCE70348DAE7A920000147
:109B4000D7E700004808000090420000F8B5077908
:109B500004468668384601F083FD0546384605F020
:109B600025FF002813D08079042810D1A96C700239
:109B700088420CD024682B4622463946304605F0F0
:109B80002DFF2B4622460121384605F065FFF8BD22
:109B9000FEB507790668384601F062FD054638468D
:109BA00005F004FF002819D08079042816D12C462E
:109BB0008034E18DB08C814210D0E0852B46324656
:109BC0000021384605F048FF218EA08D00900191BC
:109BD000E38D228DE98E802005F064FFFEBD704785
:109BE000F8B50468007901F03BFD03468030C18E72
:109BF000028F914200D31146A9221201E1809142C5
:109C000000D21146A181858E418F8D4200D2294616
:109C1000A1800025164614E0002D12D0A189828D66
:109C200097013D221201BA188A4200D811460E4F00
:109C30009A6CFF317A43120A2D318A4203D9521AA3
:109C400002E0E188EBE70022A188914200D20A46B7
:109C500092B231468A4200D311466A0012196D1C35
:109C60001181022DD8DBF8BD71020000F0B5574D0F
:109C700091B0286860300079800771D55448006839
:109C80008007C00F6DD00024012005F043FF064679
:109C9000FCF7A7FC012800D1032430007ED0022766
:109CA0004C4E012802D0022878D13CE069460220BF
:109CB00005F03AFF032008A905F036FF002C04D177
:109CC00029680120A83105F02FFF30682030007B83
:109CD000C00701D0002600E0102668463E4311234D
:109CE0001090F00603D50B22BF20064008E028683C
:109CF0006030017C890659D5407E000656D5092280
:109D00003007000F032851D281003348006808183B
:109D100000693146FDF7E4F8070047D0381D3C7173
:109D20004022109939E06946022005F0FDFE002C22
:109D300004D02022FF216846FBF718F93068203054
:109D4000007BC00701D0002600E0102668463E4395
:109D500009230890F00605D50C22BF2006400AE032
:109D60002AE031E028686030017C89061ED5807EBB
:109D7000C0071BD00A223007000F032816D281002B
:109D800015480068081800693146FDF7A9F8070072
:109D90000CD0381D3C712022089900E006E0401CE0
:109DA000FBF7DEF839463046FDF7F4F82868FD2267
:109DB000603001791140017172B608488022006854
:109DC00081781143817062B611B0F0BD3C0600206D
:109DD000000030482C0600204006002030060020FD
:109DE00010B5012815D10B4C0823216808464031D5
:109DF0008A7968301A438A7120220749FBF7B0F844
:109E000005492068202220318830FBF7A9F805F0A9
:109E10008FFE10BD5806002034FE051030B50446F4
:109E2000C07A0025000711D5208905F08FFE002893
:109E300001D008250AE0E07A01210843E0720448D5
:109E4000042200684030817911438171284630BD79
:109E50005806002010B50B4C206840308079410630
:109E60000ED5902108420BD105F092FE002807D1B3
:109E70002168BF22403188791040802210438871C8
:109E800010BD00005806002070B504680579E07A1E
:109E9000000735D5208905F059FEE17A49084900C7
:109EA000E172184C002805D12168FB2340318A79E2
:109EB0001A408A71002D07D021684031CA791032CA
:109EC000CA71002806D009E020684030C179491CD9
:109ED000C17103E08879CF22104088712068032186
:109EE0004030C07905090007000FF8F789FA4019DA
:109EF000032805D305F06AFE206800214030C171B7
:109F000070BD00005806002070B50D4C0D4622684B
:109F1000403291794906490E9171002802D005F02E
:109F200055FE70BD05F05EFE002802D005F000FE73
:109F300070BD2068402229466830FBF711F870BDDB
:109F40005806002070B51B4D46222B68D25CD20605
:109F50002AD5002806D01849002009682031097D3B
:109F6000803324E018462022FC30FAF7F9FF2868F5
:109F7000202240308179114315E07C229C6A4243C3
:109F8000A41812D02289002A0FD0E27A12060CD52A
:109F9000012300220B21204602F006FD2868CF2273
:109FA000403081791140817170BD401CC0B2814246
:109FB000E3D870BD580600202C06002010B50B4ACF
:109FC000016812688968403292784068C97B022A29
:109FD00003D10A0701D4032010BD1823C27ADB4342
:109FE00019430A40C272FBF78CFF10BD58060020CF
:109FF00010B5C17F012908D0042906D0022907D055
:10A00000032901D105F0F8FD10BDA521817210BD15
:10A01000C17B491CC17305F042FB10BD10B5C17F67
:10A02000012908D0042906D0022909D0032901D129
:10A0300005F0E2FD10BD0146002002F0E7FB10BD77
:10A04000C17B491CC173B521817210BD38B514C8DC
:10A05000D07F02280FD10848D17B0068491EC36B0E
:10A060000094CB40DB070146DB0FBC316830543233
:10A07000803305F007FE38BD5806002038B514C8F7
:10A08000D17F0023032904D00C480229006804D0A2
:10A090000AE0AA209072EB2038BDD17BC36B491E29
:10A0A000CB40DB07DB0F803301466831BC306432C4
:10A0B000009405F0E7FD002038BD000058060020A0
:10A0C0001CB50446C07F042806D0AA21022820D04F
:10A0D000012800D1A1721CBD01A8009010482346A0
:10A0E00000682246014664335432BC31683005F0C2
:10A0F000F1FDB920A07201A805F018FE0949F8F792
:10A100007FF920890A460105090D022005F01AFE93
:10A110001CBDE07B1428DDD2A420A0721CBD000071
:10A120005806002040420F0038B514C80A48D17FB5
:10A1300000230068022906D1D17BC36B491ECB40A6
:10A14000DB07DB0F80330146BC316830643200949A
:10A1500005F098FD38BD000058060020FEB50468E3
:10A16000416802918668C568BA2028700020306076
:10A17000E17F1F4804291ED002291BD10068E77B1C
:10A18000C16B7A1ED140CB07029900910146DB0FCB
:10A19000224654326831BC30803305F073FD2146CD
:10A1A00010222A310298FAF7EBFE3060142F01D208
:10A1B000B4202870FEBD01A9009100682346014625
:10A1C0002246643354326831BC3005F083FDB92037
:10A1D000287001A805F0AAFD0649F8F711F92089B1
:10A1E0000A460105090D022005F0ACFDFEBD000088
:10A1F0005806002040420F0070B50446174801255C
:10A20000026840210020683205F0CAFD0646144865
:10A21000202102680020A83205F0C2FD0146304628
:10A22000084303D0002505F0D1FC0EE0E07AC143DD
:10A230004906890F09D07421095D0025C90706D098
:10A24000400602D5204605F0BDFD284670BD8106BA
:10A25000FBD49B210840E072F4E700005806002080
:10A260003C06002010B50446807AAA280BD0BA28F4
:10A2700009D0B92810D07420005DC00702D1204653
:10A28000FBF71BFE10BD204605F0D2FD0028F9D0DB
:10A29000012300220B210DE0E07F0428F2D1E07EB3
:10A2A000410602D5BA20A07210BD0006FCD50123DC
:10A2B00000220C21204602F077FB10BD10B5036888
:10A2C00041689A68FF20147B8A7AA22A0BD0B22AAE
:10A2D00009D0AB2A01D0BB2A04D10D2C02D11846DB
:10A2E00005F0FAFD10BD0C2CFCD17422525CD20793
:10A2F000CA7A05D05206F5D4184605F027FE10BDDF
:10A300009206F9D410BD704770B502684168926832
:10A31000FF20137B0E2B13D1CB7ADB0610D5CB7F1E
:10A32000022B0DD14B7E022B0AD174235B5CDB0721
:10A330008B7A06D0B22B0AD0B42B08D0B52B06D01E
:10A3400070BDA22B03D0A42B01D0A52BF8D1088976
:10A35000022406050C48360D0068557B8030807855
:10A36000012340060DD50948252200682146806951
:10A37000FCF7B6FD010004D08E808D712046FCF7FD
:10A3800009FE002070BD00003C06002040060020B1
:10A3900010B50249072005F0CBFA10BDD78A051089
:10A3A000F8B5064601F05CF90446304605F0FEFAC1
:10A3B000254603468035A87B80063BD5304601F014
:10A3C00097F9002803D0587A00280AD108E0187AB3
:10A3D000002800D198799871597A002905D103E0B5
:10A3E00098799871197AF8E7D979D9719879042808
:10A3F00021D04008042900D049082034637F50222E
:10A4000053430F4A9E18F36D07273F064007BB438F
:10A4100040090343F365607F502358438218D06D91
:10A420003B014907984349080843D065A87BDF21D1
:10A430000840A873F8BD1A88012ADBD10620D9E7A5
:10A440008000002010B505F07DFA0146072220307B
:10A450008273C27302208885002010BDF8B50546BE
:10A4600005F0A4FA04002AD005F06CFA0746284645
:10A4700001F0F6F806460E2200212046FAF776FD96
:10A480003D462035A87BA070E87BE070B88D208029
:10A490002036707F502148430B494118C86DC96D63
:10A4A0004001400F49004A0F0121042802D00B4609
:10A4B00083401846A071042A03D09140E171002026
:10A4C000F8BD1146FAE7000080000020F8B51F4CE7
:10A4D0001D4E2068B2780146203002740025457474
:10A4E0002C204243486B2946FAF740FD184F20685C
:10A4F0003A460021383000F0A7FF20683A46002194
:10A50000483000F0A1FF20680146C5655C31456612
:10A51000016608318166002010E0216802018B6D20
:10A5200011460C315D5023689F6D1B6EBA181A607E
:10A530002268936D5918401CC0B21166B178490069
:10A540008142EAD80020F8BDDC0C0020540600202F
:10A55000FFFF0000F8B50024009472B6244F0122DA
:10A56000386881781143817062B605F045FD05F0C9
:10A57000FDFD204D286848308089C046064609E028
:10A58000286869464830FCF719FD009805F0C4FEBC
:10A59000761EB6B2002EF3D112E028686946383034
:10A5A000FCF70CFD009805F0D9FE040004D0862CC1
:10A5B00002D0882C04D115E001210098FCF7B4FFEB
:10A5C00028683830FCF75DFA0028E6D0862C01D0E8
:10A5D000882C06D172B638688178490849008170A4
:10A5E00062B6F8BD286800993830FCF789FFF1E7BA
:10A5F0003006002054060020F0B504688DB00079C4
:10A6000000210A91A1680A7B0692FF4A4E7BD27A0A
:10A61000824211D9FD4A03011268FB4FD26A2037EA
:10A62000D518A2880392069A142A0DD007DC062AB0
:10A630007ED0072A29D16FE180200DB0F0BD152A08
:10A6400077D0162AF6D1A6E1A87840071DD4204677
:10A6500005F0A6FF07900A2802D0002816D01EE0B9
:10A660006E71022200216846FAF780FCA068817CA6
:10A67000C07C0002081869468870000AC8706B46E2
:10A6800002223146039805F0B9FFD1E104AA002166
:10A69000039806F009F8002801D004200790A0686C
:10A6A000017C407C0002081880B200906846B978AE
:10A6B000007C81424DD9079900294AD1D34F2C23E0
:10A6C00039685843496B1022C01C0A54386802216B
:10A6D000426B6846007C5843801C115438680099CE
:10A6E000426B6846007C584308301152A068817C58
:10A6F000C07C000209183868426B6846007C5843E9
:10A700000E301152A068017D407D000209183868A2
:10A71000426B6846007C584310301152A068017E9D
:10A72000407E000209183868426B6846007C01E0F0
:10A730008EE019E0584316301152A068817DC07D2B
:10A74000000209183868426B6846007C5843001DB7
:10A7500011522A463146069805F0E6FF0021029480
:10A760000191039B079A38E00699AA79491E8A420B
:10A770008BD1314605F0E0FF002886D101200690FC
:10A78000A0680026017E407E10220002081880B2D8
:10A7900004900121039805F0F5FFB9780546A94218
:10A7A0000ED99A4A2C231068416B28465843034619
:10A7B0000833CE5A049B002B13D0284606F006F827
:10A7C00092482C2100684D43406B0A35405B019054
:10A7D000039B049A069900960294422006F00EF814
:10A7E00026E11127C31CCF54A168884A0B7C497C01
:10A7F00009025B1811684F6B01460E317B52A1684C
:10A800008B7CC97C09025B1811684F6B01461031C3
:10A810007B52A1688B7DC97D09025B1811684F6B63
:10A82000014616317B52A16812680B7D497D071DD8
:10A8300009025918536B89B2DA5B914200D3114671
:10A84000724A1230195211680020496BC853B7E799
:10A85000A8784007C4D44A7C087C120280188A7CFD
:10A86000C97C80B20902511889B20091039906F09F
:10A870002BF8B978814211D864492C240B686043C5
:10A880005B6B0122841D1A550A68536BC21D9E54CE
:10A8900009680222496B001D0A52C8E05B4C2C2259
:10A8A0000746216857433846496B0E300590095AD0
:10A8B000009881422BD12A463146069805F034FF94
:10A8C0002068D021426BF81C115420680022416B93
:10A8D00038460A300B5A1020039906F017F8206802
:10A8E0000022416B05980B5A2020039906F00EF8C0
:10A8F0000021009A039806F03BF820680721426B7C
:10A90000B81D11542068FF1D406BC65590E0A87813
:10A91000FD210840A8708BE00699AA79491E8A4259
:10A9200038D1314605F008FF002833D1A068427CB9
:10A93000017C120289188CB2817CC07C000208184C
:10A9400085B22846039905F0BFFFB97881426FD9D7
:10A950002E4909684A6B2C2141430E31515AA142BC
:10A9600066D105F033FF2A48422600680123803073
:10A97000007A039C80075BD526482B22006831466D
:10A980008069FCF7ADFA010052D08C80CD80304652
:10A99000FCF700FB4CE06879B04203D3012E47D1AD
:10A9A000012845D04A7C087C120280188A7CC97C28
:10A9B00080B20902511889B20891039906F00CF887
:10A9C000B978814233D9114A2C2311685843496B15
:10A9D000C31CCB5C112B2AD1089B002B27D002462D
:10A9E000163294468A5A0C4B089F9B1A9F421BD2E0
:10A9F000089B064FD21892B26346CA5239680A3091
:10AA0000496B00920B5A09E0BC0C00205406002050
:10AA10003C06002040060020FFFF000022464220A6
:10AA2000039905F0F7FF02E00622801D0A546E71BB
:10AA30000A9802E6142809D0152807D0162805D050
:10AA4000062803D0072801D0002070470120704756
:10AA5000F8B501784468002936D0012933D1A68899
:10AA6000E588304606F00EF80146A068827AC07A82
:10AA70000002101887B2002D25D0002923D03846B7
:10AA800006F018F800281ED03146384605F01CFFA5
:10AA9000104A2C2311685843496B03461233CB5A92
:10AAA000AB420DD303461A331D46CB5A002B07D0B9
:10AAB0005B1E4B5310682146383001F077FA06E0F0
:10AAC0000622801D0A5401212046FCF72DFD00209E
:10AAD000F8BD000054060020F8B5074600240D4ECE
:10AAE0000D4D12E030682C22416B204650430A5A2B
:10AAF000BA4208D1C01C085C102801D0D02802D16D
:10AB0000204605F063FE641CE4B2A878A042E9D8B0
:10AB1000F8BD000054060020DC0C0020F8B5074604
:10AB20000024144E144D10E030682C22416B204656
:10AB300050430A5ABA4206D1C01C085C002802D011
:10AB4000204605F043FE641CE4B2A878A042EBD88E
:10AB5000002301223946102005F0D8FE00230122EF
:10AB60003946202005F0D2FE00220121384605F0AA
:10AB7000FFFEF8BD54060020DC0C002010B505F0E7
:10AB8000BBFF10BD10B5002901D0914201D9822030
:10AB900010BD05F0CBFF10BD10B5002901D09142CA
:10ABA00001D9822010BD05F0DDFF10BD10B5491C94
:10ABB00089B205F0E4FF10BD10B58AB06C46608024
:10ABC0000C202071218162816846039305F0E4FF27
:10ABD0000AB010BD00B589B06A46508008201071D7
:10ABE0001181684605F0D8FF09B000BD00B589B0F5
:10ABF0006B4658800A20187119815A81684605F001
:10AC0000CBFF09B000BD70B50C4601F0F5FA054662
:10AC1000182801D3022070BD06F01EF8002801D0CC
:10AC20003A2070BD052C05D0132C03D01A2C01D06E
:10AC3000122070BD2146284606F015F8002070BD90
:10AC400070B5046805460320641E514304430E4654
:10AC50000A46641C00212046FAF788F9A0192860EA
:10AC6000204670BD7FB504000D001600684606F052
:10AC700003F8684601782170417829708078307037
:10AC80007FBD0000002901D00EA100E005A1202811
:10AC900001D37F2070470856704780B506F031F821
:10ACA00001BD0000CAEBECEDEFF0F1F2F3F4F5F6C4
:10ACB000F7F8F9FAFAFCFDFDFEFEFFFF00000102C5
:10ACC00003040506CAEDEEEFF0F1F2F3F4F5F6F742
:10ACD000F8F9FAFBFCFDFDFEFF000102030808087D
:10ACE00008080808FFB5AA4887B0857F017F019151
:10ACF000417F0291C07AFF21009017462131012047
:10AD000006F024F8A34C5B212060C900012006F066
:10AD10001DF821688031C8651821012006F016F859
:10AD2000216805268031C96DF601891908653C2125
:10AD3000012006F00BF821688031C96D8919096D71
:10AD40000860FF211931009806F000F82168803171
:10AD5000C96D8919096D48600421092005F0F6FFC5
:10AD600021688031C96D8919096D08613821009801
:10AD700005F0ECFF21688031C96D8919096D886083
:10AD80003821009805F0E2FF21688031C96D8919EA
:10AD9000096DC8600898012809D10E21009805F0B6
:10ADA000D5FF21688031C96D8919096D486120215D
:10ADB000009805F0CBFF774C216880314865202151
:10ADC000009805F0C3FF2168803188652C21009828
:10ADD00005F0BCFF2168803148660799DC203943C3
:10ADE00041430120443105F0B1FF21688031C8643E
:10ADF0000799D820414301202C3105F0A7FF216895
:10AE0000803108651021012005F0A0FF2168803104
:10AE100008660421012005F099FF216880318866C9
:10AE20002421012005F092FF21688031C86602F0DC
:10AE3000E7F90446FF340934002F73D024210120A0
:10AE400005F084FFA0622421012005F07FFFE0626D
:10AE50002421012005F07AFF20632821012005F03C
:10AE600075FF60632821012005F070FFA063282191
:10AE7000012005F06BFF0026E06307E03C21012084
:10AE800005F064FFB100761C6050F6B2029886426D
:10AE9000F4D300942146224628313432E36B05F086
:10AEA0005FFFFF210931019805F050FF00220446A1
:10AEB000002F04D05421019805F048FF0246214696
:10AEC000019805F0A1FF0821A9400C46012005F0DA
:10AED0003DFF06462146012005F038FF07460A9847
:10AEE000002831D02146012005F030FF1021A94073
:10AEF00005900C46012005F029FF00902146012015
:10AF000005F024FF04462821A940012005F01EFF7A
:10AF10000490681C0099C2B2009601A892C0059BDB
:10AF20001BE0FFE72421012005F010FFA06228218B
:10AF3000012005F00BFF60630020224634322146D9
:10AF4000034628310090AAE7002001900290049067
:10AF5000681C03970096C2B200232946084605F0F4
:10AF6000A9FF0B4D0122E97A0B48491CFFF768FE47
:10AF7000084C02222168FF3101310861E97A064854
:10AF8000FFF75EFE2168FF31013148610BB0F0BD73
:10AF9000BC0C00203C0600204C0600207CB51D495E
:10AFA00003C90191009004F0CDFC04461A48192110
:10AFB00000690904884200D308466060A060174811
:10AFC00005210068C9018030C06D05224018006D60
:10AFD0002146006960610120C0022080303168464E
:10AFE00002F0AEFD0020E0700120C007A06305F074
:10AFF000E5FFFAF7D2FF0024094D04E0204606F0F1
:10B0000029F8641CE4B228682030007DA042F5D8FD
:10B010007CBD000060120610BC0C00203C06002025
:10B020002C06002070B51549002004F081FC14495D
:10B03000012004F07DFC1349022004F079FC124940
:10B04000032004F075FC1149052004F071FCFAF7A7
:10B0500038FFFAF79AFF0E49082004F069FC002433
:10B060000C4D04E0204606F045F8641CE4B2286864
:10B070002030007DA042F5D870BD00004DA805101D
:10B08000AD8205109DD6051061B60510E9C4051006
:10B0900055FF05102C06002010B5002006F068F8BA
:10B0A00000210C46084B06E02C224A4312189474E7
:10B0B000491CD474C9B2DA7A8A42F5D806F062F82B
:10B0C000FF214171047110BDBC0C002010B506F0C9
:10B0D00061F8FF2181770021C17710BD10B50028EC
:10B0E00003D0002A01D00B2B01D9822010BD0446C9
:10B0F000037008344170036A5954491EFBD5A2609D
:10B1000060610020207310BD054800210068C03038
:10B110000172417203218172C172002070470000E8
:10B120003C06002070B5174D0024286864210C549B
:10B13000042221466530F9F719FF28680522FF210E
:10B140006930F9F713FF2B681F2118466033997394
:10B15000DC7320221A745976072200217A30F9F71D
:10B1600005FF28680822FF218130F9F7FFFE064815
:10B17000006820304475286880300484448406F0D8
:10B1800011F870BD3C0600202C06002010B50448C4
:10B19000042200680021A430F9F7E8FE10BD000089
:10B1A0003C06002010B52D48416880229143416043
:10B1B0008268FF2109041D238A439B04D218826000
:10B1C000826807231202120ADB06D2188260C26864
:10B1D00043128A43D218C260C2683F231B069A43B7
:10B1E00001231B07D218C260C268120A120214326D
:10B1F000C260C3680A120524934324021B19C3606A
:10B2000003691B0A1B029B1C03614368C41393431D
:10B210001B19436043688B433F210904591841605F
:10B22000416809230902090A1B06C918416081689F
:10B23000090A090276318160816891431D22520218
:10B2400089188160416904221143416141695205B5
:10B250001143416105F0B4FF10BD0000C0000020A3
:10B2600070B5042201211448FFF7EAFC134C1022A8
:10B27000206001211048FFF7E3FC21680C220860E0
:10B2800001210D48FFF7DCFC21680D4D09682822DB
:10B29000C860A9890848FFF7D3FC2168042209681F
:10B2A000C9688860A9890448491CFFF7C9FC21685E
:10B2B0000968C968486070BD4C0600204806002037
:10B2C000BC0C0020034A800012681268801841807C
:10B2D000704700004806002070B4418800292DD036
:10B2E0008668002E2AD00025058041682A460D6018
:10B2F000418800291FD928215143891900230B6057
:10B30000002913D072B60388002B03D044689B0039
:10B31000E35819608D8003885B1C9BB203804468EE
:10B320009B00E15009680029F4D162B6521C4188A3
:10B3300092B29142DFD870BC0020704770BC86206A
:10B340007047704703480021006854304171017113
:10B35000C18070473C06002000220280428081802C
:10B360007047704770B50646702201211748FFF7F5
:10B3700067FC174C174D2060E97A10221348FFF73D
:10B380005FFC2168012EC86210D12E462036B178AC
:10B390002C220E48FFF754FC216810224863B07835
:10B3A00041000A48FFF74CFC21688865E97A0122D0
:10B3B0000648491CFFF744FC216802220862E97A2A
:10B3C0000248FFF73DFC2168486270BD4C06002032
:10B3D00054060020BC0C002010B5FF2221320121B0
:10B3E0001648FFF72DFC164C7C2220601548C17AC8
:10B3F0001248FFF725FC216808228031886203216A
:10B400000E48FFF71DFC216828228031C862012107
:10B410000A48FFF715FC21680122803108630C21DE
:10B420000648FFF70DFC2168022208630B21034840
:10B43000FFF706FC2168486310BD00004C060020A1
:10B4400058060020BC0C00200023036043604181AB
:10B450000281C3818381704770B5094C074D206814
:10B460002A4600214430FFF7EFFF20682A460021DA
:10B470003430FFF7E9FF05F0C9FE70BDFFFF0000A3
:10B480005006002010B505F0D3FE10BD70B50D4676
:10B490000646702201212148FFF7D2FB204C012EE5
:10B4A000206014D1062201211C48FFF7C9FB216846
:10B4B0000E22886301211948FFF7C2FB21680E2282
:10B4C000C86401211548FFF7BBFB21680865012D01
:10B4D00018D0216800201422C86201210F48FFF70C
:10B4E000AFFB21680122486504210C48FFF7A8FB47
:10B4F00021680222086203210848FFF7A1FB2168A6
:10B50000486270BD01221C210448FFF799FB2168A5
:10B510001422C8620348017FE0E700004C060020C7
:10B5200034060020BC0C002080B5012005F0ACFEE4
:10B5300001BD7047F8B505460226808805F0AEFECD
:10B5400004002BD072B600202860606F002827D03E
:10B55000A06F0560A56700F0D9FB0546F6F78FFAE6
:10B560000122920280182946064600F0D4FB0128E9
:10B5700018D005F0B3FE254603462035287C00F0A0
:10B58000B7F8002808D0687F984205D0A08E002820
:10B5900002D00120E034607762B684263046F8BDE0
:10B5A0006567D7E725462035287C00F0A1F80028FC
:10B5B00007D0A08E0028EFD0287C314600F0B0FBE9
:10B5C000EAE705F08BFE697F8142E5D1A668E06F6E
:10B5D0000004C70F287C05F086FE0090287C01211E
:10B5E00000F066F9014620462830864220D1002F1F
:10B5F0001ED1009A012A1BD0676F1549387C096853
:10B60000C0068031C00EC96C801C4618A660394641
:10B61000204605F071FE2767287C012100F095F88F
:10B620000028B9D070780028B6D0001D7070B3E73C
:10B630008642B1D08E42AFD0002FADD10098012804
:10B64000AAD0A0681022017811430170A4E700007D
:10B650003C06002010B5806801F0EEF910BD70477F
:10B66000064905220968D2018031C96D8918096D22
:10B67000FF22496819325043081870473C060020E1
:10B6800070B50546084605F009FE002805D00446B9
:10B690002034217B032902D008E0022070BDFF3056
:10B6A00001308079000701D41A2070BD207C01216F
:10B6B00005F062FE00280BD0002D05D1207C012171
:10B6C00005F061FE032801D03A2070BD002070BD56
:10B6D000207C012105F05BFE4574207C012105F0F2
:10B6E0005FFE207C00230322012105F061FEEDE7CF
:10B6F00000B5FFF7B5FF2030007B032801D0002004
:10B7000000BD012000BD00B5FFF7AAFFA030C07941
:10B71000C007C00F00BD10B50446012105F02CFE86
:10B72000012820460DD005F05BFE0121204605F0E2
:10B7300037FE012302221946204605F039FE01207A
:10B7400010BD05F056FE002010BD10B50C4605F0EA
:10B7500059FE0078002C02D00007C00F10BDC006B3
:10B76000FBE7FFB585B00D4604000BD06078029072
:10B77000854207D2217805200003002788401E4615
:10B78000834202D9822009B0F0BDF6F7A0FC720016
:10B79000921913019A18130A4907C0089A18084306
:10B7A000130C21789A181018491DC8406946088062
:10B7B0000197206A0799405DA84209D0002904D06A
:10B7C00029462046FBF761FB06E08221019101E05A
:10B7D000002901D1A84236D16846616A00886A0012
:10B7E000885268460021415E0391F6F770FC864658
:10B7F0006378206A1A468446805C13E0666A4700D4
:10B80000F75B26787146761DF140CE08B91B0FB262
:10B8100003997F1E8E1B36B2761EB74204DC0246A9
:10B820006146885C9842E9D16046815C4155206A56
:10B8300085540298824206D168460021415E204626
:10B8400005F0E5FD019001989DE770B505460121E1
:10B8500005F092FD044601280BD00121284605F091
:10B860009FFD002308220121284605F0A1FD002CA0
:10B8700001D0002070BD012070BD00B5FFF7F0FEC3
:10B88000FF300130007A00BD10B5FFF7E9FEA430AB
:10B8900010BD70B50546002405F0DDFD002805D07B
:10B8A000284605F0E0FD032800D00124204670BDA5
:10B8B00000B50B46FFF7D4FE9900081880304068A9
:10B8C000801C00BDF8B5074615460024084605F063
:10B8D000D2FD06460146384605F04EFD002810D040
:10B8E0003146384605F0CDFD002D04D0012D05D0A0
:10B8F000022D06D107E00078800701E000784007BC
:10B90000C40F2046F8BD00780007F9E7F1B50098AC
:10B9100005F0BEFD06004CD00098FFF7A1FE0546DD
:10B92000406F002801D005F0B9FD00206867A867C6
:10B930002846F43005F0D2FD1E4800682030007B18
:10B94000C00701D0002400E01024EF8E02238034D1
:10B95000E00603D50222BF20044006E01648006836
:10B960006030407AC00615D500222007000F03285A
:10B9700010D2124980000968401800692146FBF77F
:10B98000AFFA010006D000220A71CF800E72204665
:10B99000FBF700FB284605F0BFFD009805F0D0FD41
:10B9A000009805F0D4FD009805F0A4FB009805F080
:10B9B00051FBF8BD2C0600203C060020400600206C
:10B9C00010B50C46192830D84100194B4118C91838
:10B9D0004978914229D1030003F034FC190E0E106E
:10B9E0000E1E1E10100E100E1010101E2727101005
:10B9F000101212151A212700204610BD012010BD7B
:10BA00000120C04601E00120C0460028F6D110BD4B
:10BA10000120C046002808D0002CEFD005E001200E
:10BA2000C046002801D0002CE8D1002010BD000045
:10BA300099D5041010B50C46FFF712FE0019A0307E
:10BA4000807810BD10B50C46FFF70AFE0019803053
:10BA5000807F10BD70B505460021FFF729FF044621
:10BA60002846FFF711FFFF23A27801885B01994365
:10BA70005201114310221143018070BDFFB50446ED
:10BA800081B01E4617461946104605F067FD05466B
:10BA90003846FFF7E5FD2030007B022801D0012267
:10BAA00000E00022112C01D0072C04D1029805F0EF
:10BAB0005DFD854221D1012E08D0072D11D0012D29
:10BAC0000FD0082D11D0062D0FD016E0072D08D06D
:10BAD000012D06D0082D08D0032DF4D1072C07D056
:10BAE0000BE00D2C06D0112C04D0072C02D004E062
:10BAF000002A02D0012005B0F0BD0020FBE770470E
:10BB000010B519281AD843000E4CC3181B195B78BE
:10BB1000934213D1030003F095FB170D0D110D1186
:10BB20001111110D110D1113110F11111113111309
:10BB300011131100084610BD002901D0002010BDCE
:10BB4000012010BD99D5041010B5002105F01AFD93
:10BB5000018849084900018010BD7047F8B50646C4
:10BB6000002405F018FD002833D03046FFF78CFE86
:10BB7000054600788007C40F2BD13046FFF770FDD3
:10BB8000A0308779002F24D0304605F06CFC0028C7
:10BB90001FD17C06640E01213046FFF789FE0E4955
:10BBA00001802102891C41802888022108432880C5
:10BBB0003046FFF755FD0021A0308171012130464C
:10BBC00005F0F0FC002304220121304605F0F0FBD3
:10BBD00001242046F8BD000003020000F3B581B047
:10BBE0000546FFF751FE044600780007C60F2846B9
:10BBF00005F039FC002E09D0032807D10021284682
:10BC000005F0D0FC21880820814321802846029934
:10BC1000FFF718FF06463446030003F013FB060443
:10BC20000C11171C2142284605F0B5FC0024002801
:10BC300037D0012435E02846029905F0C0FC03E026
:10BC40002846029905F0F8FC04462AE028460299A5
:10BC500005F03CFDF8E72846029905F06FFDF3E793
:10BC600002980090284605F0B5FD0527002817D05A
:10BC70002846009905F072FC05F0B3FD04000CD0D5
:10BC8000284605F0BEFD002801D0082200E007226A
:10BC9000002328460099A0470127284605F0B8FD53
:10BCA0003C462846FFF7F0FD07460078C006C10F66
:10BCB0002846009105F0D7FB0099002918D00028EC
:10BCC00016D138884109009101212846FFF7F0FD7F
:10BCD0000D49018000990902C91D41803888102151
:10BCE00088430821084338800121284605F05AFC82
:10BCF000A64206D02846029EFFF7B2FC801980308B
:10BD000084772046FEBD00000302000010B505F058
:10BD100039FA006810BD081AC00F01214840704769
:10BD2000FEB50B46FFF79CFC0446006C0190A76C27
:10BD3000C11A79D47800884276D826462036707F9A
:10BD400050225043394A8018844680680025800478
:10BD5000800E00900820C3B23A469A408A4204D826
:10BD6000891A01229A40521995B2401E40B2002809
:10BD7000F1DAE08F401B81B22046E187E03002908B
:10BD8000007F002808D060460068020C424092B252
:10BD9000307C05F049FD10E0717C252068430918CE
:10BDA00000986843081A80B205F0B8FD70740099D5
:10BDB000401A253080B205F0B1FD717F5022514309
:10BDC0001A4A803A8918CA6D800692099201800E3B
:10BDD0000243CA65606CE16C4200891AE16429463D
:10BDE0007943019A0B46521A1218608D05F0A4FD92
:10BDF000616C814201D8084604E0081A0D2800D27F
:10BE00000D206064121A2264E16C40000918E1649C
:10BE1000E06DC018E065707F05F093FD707F01F064
:10BE200065FC029800214177FEBD00000001002062
:10BE300030B50B4B1B6872B654335C79002C00D0C4
:10BE4000012400255D711D792D072D0F05701879CE
:10BE5000000908701868106062B6204630BD000006
:10BE60003C06002010B542780024914206D1017DA5
:10BE70000830002908D0F5F7CDFD05E0426A4900F9
:10BE8000515E05F0C4FA0446204610BDF0B5448862
:10BE9000491CA4B2E5B2A40809B21C808EB28788FE
:10BEA0003619BE4204D9A6B2891B6D1C09B2EDB287
:10BEB000A4002418083414601C88AD076418A4007A
:10BEC000AD0F2C43A4B21C800388E31A9C07A40F77
:10BED000012C02D803D1002B01DD00230AE001234D
:10BEE000002907DA11688C78A408A400641C8C70FF
:10BEF000083010601846F0BDF7B5074617481646DB
:10BF0000006804688120002F11D0384605F020FD1C
:10BF10000546B0420CD2301A81B2019805F024FDDA
:10BF2000002804D132463946E06805F043FDFEBDE5
:10BF300032463946E06805F03DFD6D1E761E690902
:10BF40007209891A72B6019A9200A35A5B1AA35217
:10BF500022895118218162B6FEBD000048060020EA
:10BF600010B50C460146042805D0052903D0062942
:10BF700001D0A02010BDA068A2790272E088020A58
:10BF8000A0684272A0688172A068090AC172E08844
:10BF9000001DE080022020732046FAF779FD00287A
:10BFA000E8D0E088001FE080812010BD10B5044675
:10BFB00000200860206800280CD0606801600846F6
:10BFC0006160FFF747FBE1894018E081A089401CD0
:10BFD000A08110BD2160F2E710B5124C20686030DE
:10BFE0000079800709D505F033FD2168FD22603115
:10BFF00008791040082210430871206860300079E9
:10C0000000070DD500210848FBF708F8002801D0EB
:10C01000812805D12068F722603001791140017133
:10C0200010BD00005006002051F3051007490246DC
:10C0300009680020C96A05E0CB88934201D108460F
:10C040007047C9680029F7D17047000050060020EA
:10C0500070B504460078002811D1606805F04CFDE9
:10C060006070A1688868002809D1606805F048FD03
:10C07000050010D1606805F095FD05000BD18625FF
:10C08000607805F0BBFD0E2805D2134980000958E1
:10C090002046884705466068002809D00F4A882D49
:10C0A0000ED0072D0CD0842D10D00121FBF73CFAC7
:10C0B000002D01D0862D02D1A06805F0DBFD70BDFA
:10C0C000014610684430FFF771FFF1E70146106840
:10C0D0003430FFF76BFF70BDECF805105006002000
:10C0E000014800680047000060060020F0B591B0EC
:10C0F000054619A000680690002007901748009395
:10C10000006814460E4601AB07AA06A9183000F0D5
:10C110005FF801A8009005AF1022002108A8F8F7E9
:10C1200025FF0822314608A8F8F71AFF0CAA08A92B
:10C13000009805F0B9FD02220CA93846F8F710FF67
:10C140006846007D2978484020706846407D6978BF
:10C150004840607011B0F0BD030000002C060020C4
:10C16000F0B5064697B0002014460F46159005F02E
:10C17000A1FD12AD10E068464079C0060CD5012340
:10C1800016AA39462846FFF7B1FF0222314616A803
:10C19000F8F7F6FE002807D001A805F091FD002869
:10C1A000E9D0812017B0F0BD01A9204600F080F849
:10C1B0000120009005482346006821462A3315AA2D
:10C1C0002031083000F004F80020EBE72C060020B6
:10C1D0007FB5002400940194029403940D786C467A
:10C1E0002570497861701178A1705178E1701A4614
:10C1F000694605F059FD7FBDF0B5FF2405460023D3
:10C200000A4F0B4E0BE01846FFF72AFAC08EA842E1
:10C2100003D1BD4201D01C4606E05B1CDBB2306896
:10C220002030007D9842EED82046F0BDFFFF000090
:10C230002C06002070B5054616460846FFF7DCFFC1
:10C240000446FFF755FA182C01D3022070BD0028D0
:10C250000ED00021204605F0A3F80021204605F06D
:10C2600096F8002D06D000212030C172002070BD4C
:10C27000822070BD01222B210A54102281183046E1
:10C2800001F05EFCF2E710B51346012205F02CFD2B
:10C2900010BD7047034800684830807C8006800FDE
:10C2A000704700003406002010B505F055FD10BDA4
:10C2B00070B5044601200D46A076C97821776978CB
:10C2C000090603D5617F1022114361776A78617F87
:10C2D00060231A40114361776978C90602D5A17FAE
:10C2E0000143A177E86C6061A86C294620610E319A
:10C2F000204610220E463A30F8F732FE29462046F4
:10C3000010221E315430F8F72BFE29462046102209
:10C310002E316430F8F724FE2946204602224431AB
:10C320002030F8F71DFE20460822A91D4A30F8F7F4
:10C3300017FE20460222291D5230F8F711FE6878B8
:10C34000800704D5208901214903084320816878AA
:10C35000400704D52089012189030843208168789A
:10C36000000704D520890121C90308432081A8784A
:10C37000010706D5E0722046102231462A30F8F730
:10C38000EFFDF120A07270BDF0B58DB0002705461D
:10C390000797008920220105090D384605F0F0FCB9
:10C3A00004006FD02E466036307DC106284620300E
:10C3B0000290002906DB022100F0BCF8307D10213C
:10C3C00008433075A87A2E462236D12808D0D228C4
:10C3D0001BD0D3282ED0D42837D0D52854D049E02C
:10C3E0000821304600F0A6F82D480097006803ABFE
:10C3F00007AA02990830FFF7EBFEA0680621017337
:10C400001120E0802A7F03AB1DE00B20E080A068B4
:10C4100007210173002307AA31460298FFF766FE41
:10C4200007AB02220521204605F0CAFC082233464C
:10C4300007211CE01120E080A0680821017308A8F2
:10C4400005F0C8FC29E0052111E069460F7008A934
:10C45000684605F0D3FC0820E0800921A068062288
:10C4600001736946A0680978417308AB11462046FC
:10C4700005F0A6FC2946204605F0DAFC002801D18B
:10C48000DD20A8720DB0F0BD1120E080A0680A2167
:10C49000017308A9284605F0E7FC08AB1022D2E793
:10C4A0002C0600207CB5044600890505A07E2D0DD4
:10C4B000C043800709D1204605F0EAFC002804D0DB
:10C4C0000821204600F086FA7CBD2846FAF748FE8F
:10C4D0000246164B00210120FAF764FEE07F002699
:10C4E000032807D112482822006800218030006B01
:10C4F000F8F73CFD2046042200210C30F8F736FD09
:10C5000068460094067105F061FDF120A07268464E
:10C51000027900232946022005F074FD20890004D9
:10C52000D2D52946022005F09DFD7CBD3075000066
:10C5300058060020F0B50E460746002407E03D19D6
:10C5400005F0BCFD2870000A6870A41CE4B2B44277
:10C55000F5D3F0BDC17A0A07817F03D4CA0701D0A1
:10C56000D12102E08A0702D5D321817270474907A1
:10C5700001D5D521F9E77421095CC90704D0417FB1
:10C58000490701D0D021F0E7F021EEE77CB5054660
:10C5900080680C46017B06291DD007291ED008297A
:10C5A00032D009293BD00A2914D1607F400711D528
:10C5B0002346643310220521284605F09DFD607F47
:10C5C0004021084360777420005DC007204645D0B5
:10C5D000FFF768FF7CBD23463A331AE02146427BD1
:10C5E00040318A74A8682346807BC8744A33082285
:10C5F0000721284605F080FD607F10210843607701
:10C600004007800FDFD07CBD607F8007FBD52346CD
:10C61000543310220521284605F06EFD7CBD607F55
:10C620008007FBD500200090062301901A4669463A
:10C63000284605F06AFD00280CD0A8680622407B39
:10C640006070A31C1146284605F056FD607F20212E
:10C6500008436077607F4007B5D57CBDFFF77AFF60
:10C660007CBD7047F3B5684800250068B4274030AA
:10C67000807983B0C0430C462E4680070ED02089B7
:10C6800020220105090D002005F07AFB0290002808
:10C6900007D0A17A0020F12905D039E0082005B0A3
:10C6A000F0BD8820FBE7E17E2F221140E17656495C
:10C6B000237F09682031C97E8B4204D0039A926897
:10C6C000127C8A4207D8039A92689446127C9A4256
:10C6D00003D08A4201D860771AE0617F8A0600D5CC
:10C6E0000226490601D504210E436146497CB14228
:10C6F00003D001221643B14202D16077A07707E050
:10C70000A07EC043800703D1204605F0C1FB05464B
:10C71000B0203D4EA072316840318879C243920703
:10C7200001D0401C8871002D59D1039805F0F2FC0E
:10C73000050003988068C07B009050D130680146A6
:10C7400040318A78022A04D1009B1B0701D40325BB
:10C7500045E053081A43CB782030D207417ED20FF0
:10C76000007E05F0F3FC0646009818213040084092
:10C77000E072000705D52046F9F7C3FB05002ED16E
:10C78000B227204605F0EEFCF00700D00220A0768C
:10C790007007C00FE0762146039805F001FD2046A2
:10C7A00005F042FD05001AD1E07F022803D1E07EAA
:10C7B000C00600D4B227A07F617F40074907400F21
:10C7C000490F00910190227E33460221029805F024
:10C7D00067FD2146029805F02BFB050008D00123D8
:10C7E00029462046029A00F0DFF80546284656E71B
:10C7F0002089072109038843208103480068A0306D
:10C80000C675A772F2E700005806002070B506460C
:10C8100008890C4601058AB0090D2022002005F088
:10C82000AFFA050012D0002E06D023462A3310227C
:10C830000521304605F060FCE07A000709D505A81F
:10C840000290019401A8F9F788FB08E088200AB05B
:10C8500070BD214605AA6431204605F03FFD112038
:10C86000E880A8680321017305AB10220521284642
:10C8700005F0A6FA2146284605F0DAFA0028E6D1A6
:10C88000B621A172E3E77047F0B5064693B00020E9
:10C89000059008890C460105090D2022002005F0AD
:10C8A0006FFA050019D02346543310220521304673
:10C8B000029305F021FCE07A010720462A3001901E
:10C8C00000290DDA0FA8089005A8099006A80A907B
:10C8D000079407A8F9F745FB10E0882013B0F0BDD6
:10C8E0000FAA2046029905F0F9FC10220FA8019921
:10C8F000F8F746FB0590BC20694608762646059861
:10C900006436284F002809D001232A4604212046F6
:10C9100000F04AF8059800281CD041E01120E8807A
:10C92000A86804210173334610220521284605F02A
:10C9300047FA2146284605F07BFA0028EAD16846E6
:10C94000007EA0723868217F2030C07E8142E1D90C
:10C950002077DFE7E07A000722D4607FC10702D0AA
:10C96000400840006077102200210BA8F8F7FEFA7B
:10C97000E07F022802D0032806D00BE03868C16BA4
:10C980000BA805F057FD05E0396810220BA84831C7
:10C99000F8F7E6FA31460BA8019B029A05F052FD22
:10C9A00000209BE758060020F8B51D4614460E46A9
:10C9B0000B4607460522214605F057FD0446882808
:10C9C00001D1012D03D13146384600F003F820464D
:10C9D000F8BD70477CB504460D460089FAF7C0FBE8
:10C9E0000246144B00210120FAF7DCFB20890005E8
:10C9F000000D05F055FD0220694600940871684657
:10CA000005F0E4FA2046042200210C30F8F7AEFAD3
:10CA1000E07E2F210840E076204605F05DFDFB20FA
:10CA2000A072208902220105090D2B46104605F04F
:10CA3000E9FA7CBD307500000021002804D0491CB3
:10CA4000006889B20028FAD108467047002917D03B
:10CA500072B60288002A03D0436892009A58116087
:10CA600010B400238B800288521C92B2028044686A
:10CA70009200A15009680029F4D162B610BC704739
:10CA8000704770B505460024204603F05FF8002883
:10CA900001D0852404E0012D02D10120F9F72DFAFF
:10CAA000204670BD00B5024602F04CFFC270002067
:10CAB00000BD10B5044600F0A3FB0B218901002C3A
:10CAC00001D0002200E0012240184275002010BD74
:10CAD000F0B534489BB0066805A8002528360190BB
:10CAE00005F074FD011E09A80DAC0F9026D006219B
:10CAF00003A8FFF71FFD6946487CC021084369462B
:10CB00004874062203A92046F8F72AFA102112A831
:10CB1000FFF710FD102212A90198F8F721FA102151
:10CB200016A8FFF707FD102216A90F98F8F718FAB4
:10CB3000019805F05AFD050000D0F1252746062092
:10CB4000194C00902268014600202E3203F028F98B
:10CB5000002801D127682E37304639463630009AF2
:10CB6000F8F7FEF92268102631460020083203F05B
:10CB700017F9002805D02068324601990830F8F7E7
:10CB8000EFF9226831460020183203F009F9002835
:10CB900005D0206832460F991830F8F7E1F9284699
:10CBA0001BB0F0BD340600202C06002030B5074A2B
:10CBB000034600211268084654185D5C6034491C25
:10CBC000C9B265760829F7D330BD00003C060020C5
:10CBD00030B5074A034600211268084654185D5CC8
:10CBE0006034491CC9B265720829F7D330BD000012
:10CBF0003C060020F8B5044605F004FD002823D0CB
:10CC00008220002C21D0217D012901D002291CD1B4
:10CC1000217C102902D0802917D11BE0A08940492E
:10CC2000884202D0491E884214D1012005F0FAFC46
:10CC30000EE00178002909D141680A7C102A05D14B
:10CC4000A28989898A4201D18520F8BD05F0FCFCC2
:10CC50000028EED1002005F00BFD002806D0416829
:10CC6000C98A002904D04088401804E0012203E06A
:10CC700005F016FD401C82B200212346084605F04F
:10CC80001DFD060006D0701C82B2E08A401E87B2ED
:10CC9000002515E08720F8BDE08A002803D0002F8A
:10CCA00023D07F1EBFB2E069A900435800210120B4
:10CCB00005F004FD00281AD0401C6D1C82B2ADB2F4
:10CCC000207EA842E8D81748022200686030017927
:10CCD00011430171606A00281FD020462030009067
:10CCE0000078002819D0002513E082270AE0872762
:10CCF00008E02420616A68430818314600F01EF8F5
:10CD0000070004D0304605F017FD3846F8BD6D1C0D
:10CD1000ADB200980078A842EBD80020F8BD000022
:10CD2000011800005006002010B5034600220249F9
:10CD3000012005F025FD10BDFFFF0000F8B50D46F0
:10CD4000044605F05FFC00280ED0204605F020FDCB
:10CD5000002808D1284605F047FD050002D02878B4
:10CD6000002803D08220F8BD8520F8BD217E28460A
:10CD7000891C05F04BFD0028F7D1284605F05FFD22
:10CD8000054605F031FD6D1C0146AEB22346324624
:10CD9000022005F093FCB04201D08720F8BD304658
:10CDA00005F022FD0146701C82B22346032005F0E7
:10CDB00085FC002807D0E069002819D0207E0028D3
:10CDC00016D0002511E0872708E01C20E1696843A0
:10CDD0000818314605F03EFD070004D0304605F046
:10CDE00089FD3846F8BD6D1CADB2207EA842ECD856
:10CDF000044802220068603001791143017100206B
:10CE0000F8BD00005006002010B50346022202497A
:10CE1000012005F0B5FC10BDFFFF0000FEB50C467B
:10CE2000054616460221012005F088FD002804D1A0
:10CE3000012D01D83F2C01D91220FEBD002D01D0BB
:10CE4000002CF9D02946214307D100200346024691
:10CE500000902146284605F07FFD00211EE0481C79
:10CE6000019006225143C0B2725C07E006270346D8
:10CE70007B43F35C9A42DFD0401CC0B2A042F5D3A2
:10CE8000EF2AD9D88819438800790090214628468E
:10CE900005F062FD0028D0D10199C9B2A142DED3CC
:10CEA000FEBD704770B5024628480024007F8842C6
:10CEB00001D8822070BD2648002A0068406D02D04B
:10CEC00014225143401841788A06D30FCA06090735
:10CED000D20FC90F002B02D0002A02D103E0002993
:10CEE00001D0002070BD02894668057831461046A1
:10CEF00005F0CCFD1749884204D0301880784107EE
:10CF000009D50AE0002D1ED0012D04D0022D02D03B
:10CF1000032D0AD117E0D42415E0002D07D0012DF0
:10CF200008D0022D0BD0032D01D012240BE0800776
:10CF3000F1D108E08007800F0128ECD103E08007E1
:10CF4000800F0228E7D1204670BD0000BC0C0020F5
:10CF500034060020FFFF0000FEB5114E00253468A6
:10CF600027464837787D2834800717D5684605F06E
:10CF7000A5FD6846F8F7DDFE05000FD12046062224
:10CF800069463C30F7F7ECFF0122064B114630684A
:10CF9000FEF7E7FB787DFD21084078752846FEBD49
:10CFA00034060020A0BB0D0070B5234D0346286851
:10CFB0000029446D02D014214A43A4182178012B82
:10CFC0001CD0A178890716D50021F9F75EFF1B4810
:10CFD0000225006880304078C0070CD018481B221A
:10CFE0000068002380692946F9F77AFF010002D022
:10CFF0002846F9F7CFFF0020A07070BD002300295C
:10D000000ED0012902D002290AD105E0A078022120
:10D010000843A0700B4B03E0A07804210843A070E4
:10D02000A07861780843A070002BE6D0012200218F
:10D030002868FEF796FB70BD340600203C060020F1
:10D040004006002020BF0200FFB58DB01F4600241F
:10D0500008210420179E169D05F070FC002805D1BC
:10D060000D98002804D0012802D0122011B0F0BD84
:10D070000320C0460E998142F7D80622394608A8F7
:10D08000F7F76EFF0F98012801D00028EDD1A8070F
:10D0900001D16807E9D500202946C140C90701D060
:10D0A000641CE4B2401CC0B20828F5D30022122050
:10D0B00034E01101775A89194B88042F9C468B88DC
:10D0C0000393CB889E460B890B934B890A938B89DC
:10D0D0000693C9890791C9D361460429C6D3BC45C3
:10D0E000C4D8039B12499B1F8B42BFD273469B1F20
:10D0F0008B42BBD2039B9E45B8D3FF230B99F433DD
:10D100009942B3D80A4B0A991B1F0A399942ADD2EA
:10D11000079B06998B42A9D3521CD2B2A242C8D314
:10D120000DAC0196009507CC08AB05F0EEFC9DE731
:10D130007B0C0000FFB50F4683B01D461646082144
:10D14000042005F0FBFB040053D10320C0460399E3
:10D1500081423FD8002F05D0012F03D0022F01D0EC
:10D16000032F37D10520064234D06846017047703E
:10D170008670F00718D02878002801D0012829D11E
:10D180006988042926D3A888042823D3884221D873
:10D190000021684601722978C17069888180A98858
:10D1A000C18005F019FD0446700722D50020F10763
:10D1B00000D0012006214843295C002901D0012923
:10D1C00008D141194A88042A04D38B88042B01D33F
:10D1D000934201D912240CE001236A461372285CA1
:10D1E000D070488890808888D080684605F0F4FC2C
:10D1F0000443204607B0F0BD10B505F019FD10BD81
:10D20000024800688030C06D704700003C06002076
:10D21000A030C17D807ECA078B07D20FDB0F490784
:10D22000D218C90F5118032804D0B1204143084631
:10D23000BC3070474B20C000F8E77047F3B50021C1
:10D2400085B00F460E46009105990420A031069D39
:10D250000291002401AB03AA059905F023FD69465C
:10D260000979CA0700D006248A0700D5A41D0A0739
:10D2700000D5A41C002800D0E41C480600D5641C7E
:10D280000699FD20001BC91B814200D8084680B2C8
:10D29000291A8DB239188FB20299097F012904D059
:10D2A000022908D003290CD013E02018C1000098EF
:10D2B000081860300CE020188100009808183430FD
:10D2C00006E020188101009808183521090140184E
:10D2D00000900220761C002DBBD10098044900026A
:10D2E000F5F78EF8CD214E433018CD3807B0F0BD9C
:10D2F00071020000F8B51C4615460E460B9F03F060
:10D3000037FF817C012916D1446006998160079915
:10D310000160089941750999817501210175C574EC
:10D3200001820A990762C1610C9941620D99C66038
:10D33000816202218174F8BD024800688030C06CAF
:10D34000704700003C06002010B5FFF759FF10BDE4
:10D35000F8B516461D46044614220021069FF7F72D
:10D3600005FE207920210843207121790420014302
:10D3700021712460A6602573290A6173A17B2A03A9
:10D3800009090901120F1143A173A17B1022114356
:10D39000A17321794906490E2171E27B02210A43DA
:10D3A000E273627902436271607908436071012F10
:10D3B00008D0A07B40210843A0736079400840005A
:10D3C0006071F8BD2079012108432071A07B802184
:10D3D0000843A073F8BD7047F8B516461D460446CD
:10D3E00014220021069FF7F7C1FD20792021084370
:10D3F000207120790421084320712460A6602573E0
:10D40000280A6073A07B290300090001090F084363
:10D41000A073A07B10210843A07360790121084309
:10D42000607120794006400E2071E07B022210439B
:10D43000E0730E4B18690E4D28403D0228431861D9
:10D44000A07B40231843A073E07B80231843E07344
:10D4500060791043607107980128207902D0084351
:10D460002071F8BD40084000FAE70000C00000202D
:10D47000FF0000F0F8B504460027E0308770A06A8E
:10D480000125078604F01AFE030568000146A26A1A
:10D490001B0D30315352A26A2E30105A6D1C1818D1
:10D4A000EDB25052112DEDD32046FFF7B1FE2546C7
:10D4B000803500902646AF86A036F07E224639465B
:10D4C00005F063FC014600980A18F07E616D034682
:10D4D0004843E16F5B1C401812182A60AB8205209C
:10D4E000B075501AA067F07D2036C1078207C90FBA
:10D4F000D20F89184207D20F8918491E317705F0DB
:10D500004FFC70772F846F8404F0D8FDC0B22521C2
:10D51000F4F776FFB177626FE06F111A688B00281D
:10D5200002D17379012B03D000291FDA002A1DD004
:10D53000317900291AD000280DD03C212A7F101AF9
:10D54000C0B200900B48AA7F00682030007BC00763
:10D5500003D0002002E04321F0E71020A12318436C
:10D56000054B05F027FC204605F05AFC688B401E51
:10D570006883F8BD2C060020FF0F000010B5FFF7F0
:10D580003FFEFF21002269310A54FF302421493037
:10D59000F4F71EF810BD010016000C020208020488
:10D5A0000203011702010D0101010101010315022E
:10D5B0000303090203090301010201010305060334
:10D5C00014020303090116180316180314030308B1
:10D5D0000103080103060903060903070303070300
:10D5E000010705021603010010B503490622096868
:10D5F0008931F7F7B5FC10BD3C06002070B5FF255A
:10D60000002003F0B5FD0E490024C97A09E072B686
:10D610002C2262431218927C002A06D062B6641C47
:10D62000E4B2A142F3D8284670BD2C216143012207
:10D630000818827400212546816262B6F3E7000073
:10D64000BC0C0020F8B50446502044431C48164644
:10D650000F461D46201850220021F7F787FC184876
:10D660005C382118C86D40221043C8651448243026
:10D6700020180268134A02604268134B120E120609
:10D68000D21842608268FB0652095201DB0E1A432F
:10D6900082600A6E0E664A6E4D66069B8022012BE2
:10D6A0000AD0CB6D9343CB6581683F221202914330
:10D6B000FF3101318160F8BDC86D1043C865F8BD08
:10D6C000DC000020D6BE898E5555550070B5054644
:10D6D000002403F057FD0179012904D1016828468F
:10D6E00000F0EBF90446204670BD0000F1B5AEB085
:10D6F0000120089003F046FD0126009006730020EB
:10D70000D24D0E9029684031087203F031FD2D682A
:10D71000044654356E71287900090007000F2871FE
:10D720002E98C00919D02E98FF2823D04006400E0D
:10D730002E902C21484306192E9FF4F7A0F931684A
:10D74000081AFF382D2805D501200E9000980021D9
:10D7500001730AE10098002101732E98FF2809D077
:10D760002C214843001901210175817C082901D130
:10D770000421817460210FA8F3F72AFF182127A83C
:10D78000F3F726FF0898962148430B90F4F777F9B2
:10D790000B9940180022174607904CE02C20784344
:10D7A0000619B17C0E20014225D00420B0743368E4
:10D7B0000799184600F081F900280ED10798F26900
:10D7C000C11AF0689047318A09183182317D0818F2
:10D7D000FF2800D9FF2030750122B37D01209C462F
:10D7E000737D317D984063469940884200D9084650
:10D7F000BB000FA9C850B07C30230146C907C90F30
:10D800001840099100280BD0B16A002901D0F068B6
:10D8100088470020B074F074BA000FA98850012224
:10D820000998002803D00020BB000FA9C85027A8E2
:10D83000C7557F1CFFB28648C17AB942AED8002ACC
:10D84000A4D1511E009A0B919160FF2100230A91EF
:10D8500080E07046C01A401EC0B281000FAE024682
:10D86000715819E0401EC0B287000FAEF659B44699
:10D870008E4211D38C450DD12C265643371927AE35
:10D880000297365C2C277E43029F3619BF7DB67DFA
:10D89000B74201D8024661460028E3D100295FD093
:10D8A000002B10D001200C9027A8815C2C267143FE
:10D8B000091904910E684968711802917146491E50
:10D8C000634ECFB215E027A8805C0A9010462C2149
:10D8D000484300191FE027A8C15D2C2041430819C7
:10D8E0000068029900F0E9F8002800D10C907F1E32
:10D8F000FFB2F07AC01A401EB842ECD30C98002850
:10D900000BD027A8805C0A90049801680B98411AF4
:10D9100000988160049800680B9027A8815C0991A9
:10D9200096000FA84A498759C97ABE46CF1AB9004E
:10D93000091880398C46C96F815127A838182038BA
:10D94000C67F27A98E540999C177774661465B1C2B
:10D95000DBB2CF673E48C17A8E46994200D978E75C
:10D960000A982C2148430A9F061903204007826920
:10D9700008210A43826103F005FC0446FF2F53D0BF
:10D980000820B0743068039020606771326A716853
:10D99000F06890472F484169012292071143416185
:10D9A00041687A06C909C901520E114341604168B4
:10D9B000802211434160F07C8007C1170E98491CFA
:10D9C00000280DD0F4F7A1FC01202071287901076F
:10D9D000F07C090F000101432971039828602EE0B3
:10D9E00001220398F3F7D1FF0028EDD008984000FA
:10D9F0000890102800D27DE61748A1250068062669
:10DA000001230D2240692946F9F76AFA040016D06D
:10DA10000021267161710A46A01DF7F7A1FA21467F
:10DA20002846F9F7B7FA0AE0F3F73EFF09484268DB
:10DA300080218A434260FF206071002020710349E9
:10DA400001200968403108722FB0F0BD3C0600206B
:10DA5000BC0C0020C00000204006002010B5044689
:10DA6000002003F085FB2C220021544320188174F0
:10DA7000C17410BD10B50C4603F07AFBC47410BD20
:10DA800010B5FFF7BDFBFF3009300446FF3400211D
:10DA900021342176F8F759F9207E0028FCD010BDFA
:10DAA00010B5FF2806D003F063FB817C082902D063
:10DAB0001021817410BD2021FBE7401AC00F012105
:10DAC0004840704710B50446FF2813D072B6F3F7EC
:10DAD000D6FFFF30EC30FFF7F9FD03460D4800217B
:10DAE000006802464032117262B6012B03D0204614
:10DAF000FFF7FCFD10BD4164074B07E0147A002CD2
:10DB000001D0117210BD446C641C4464446C9C428E
:10DB1000F4D310BD3C06002000E20400F8B5044632
:10DB200017460D46084600F073FF0602E81C266003
:10DB300000F06EFF0002000A3E4326606060F8BD00
:10DB400010B4002A0CD00B4CA2420BD80123012A9E
:10DB500006DB04780C70401C491C5B1C9342F8DD0A
:10DB600010BC704703780B70401C491C521EF9D141
:10DB700010BC7047FFFFFF7FF0B587B00E4605462B
:10DB8000FFF73EFB0446FF34FF20093415300159EE
:10DB900008780207120F072A2ED0082A2CD0891CD9
:10DBA0004006C20F04A8FFF7B9FF2046FF3021301E
:10DBB000837B01224179FF2B01D081790022274606
:10DBC0008037F86D2346FF333033C0B203930191A1
:10DBD00000900296533B294604A8F8F7E9F801465D
:10DBE0002868F864686838652868000A00020843F5
:10DBF0002860084607B0F0BD091DD1E738B50546D5
:10DC0000FFF7FEFA0446FF3409342046FF30213086
:10DC10000091C37B41792246EC322846F8F7D8F8C8
:10DC200001468034E06E2860226F6A60020A1202A8
:10DC30000A432A60FE2900D10021084638BDF0B50C
:10DC40009C46069C0023059E2370089B7F241C7025
:10DC5000FF23337083789B0639D0C3780424DD0713
:10DC600000D00A249D0700D5A41D5D0700D5641CC3
:10DC70001B070ED507197B781B071D0D035D5B196C
:10DC800065462B807B7801251B093370069BA41CFD
:10DC90001D70C378DB0622D5035D9B069B0E0B70BF
:10DCA000015DCD094906CB0F0999ED010B700319F0
:10DCB00059789B78DE06F60C7118802D0CD0FF2564
:10DCC0008A35694349095B091370E41C0BE0079826
:10DCD000032101700020F0BD7B256943F3E7002399
:10DCE0000B70137019468278079B9206920ED21C15
:10DCF0001A70C278930601D51234E4B2520602D5E6
:10DD0000025D089802700846F0BD000004490A68E8
:10DD1000126C02600868FF300130007E704700001E
:10DD20003C06002010B504460620414388B205F0A9
:10DD30008FF8054909684031898B401880B2214627
:10DD400003F0FAFDC01D10BD3C06002010B50C46C6
:10DD500003F00EFA046010BDFFB581B01D46074602
:10DD6000FFF74EFA002602462E70FF320A9B093258
:10DD70001E7000290DD000213878012403460B4382
:10DD8000002B08D0002808D001280AD0112808D07C
:10DD900009E00121F0E73C704EE000294BD02C70E7
:10DDA00049E00029FBD1012801D0112803D1002925
:10DDB00010D0112810D0032811D0052813D0042822
:10DDC00020D0142821D0042827D014282CD00628AD
:10DDD0002FD030E0112025E000292DD001E00029CE
:10DDE00029D02C7028E0002925D003990020FF328B
:10DDF00008702132D07D012802D10126F3F754FDAD
:10DE00007C75EEE7002902D109E000290ED010460A
:10DE100005F02CF80A980470C1E700290BD10A9884
:10DE200004701420387007E0002904D10A980470A7
:10DE300002E0002900D10126304605B0F0BD000007
:10DE400070B501251446002808D0207905F035F872
:10DE5000FF202071F3F728FD60790FE0802600296C
:10DE60000FD0FF332133187E002804D0F3F71CFDB8
:10DE70002079304302E0F3F717FD2079FFF736FCF5
:10DE800004E003484168314341600025284670BDE5
:10DE9000C0000020F8B506460A9FFFF7B1F9054615
:10DEA0003446FF3518340935002901D0521C6273FD
:10DEB000012B01D10698A0730798E07305F004F8D0
:10DEC0002074FF35013569690B980818206268696C
:10DED000817840788906890E401A401E2077207884
:10DEE0001721084020700C99002902D120210843F5
:10DEF00020700D98002803D0207808210843207056
:10DF0000696920788978890908432070F878C00702
:10DF100006D00898002803D0F06860603069A060DF
:10DF2000F87880070CD50898002809D020780421BB
:10DF30000843207009980068606109984068A061F2
:10DF4000F8BD0000F7B584B0FFF75AF90446FF3476
:10DF5000093401274D4E054600291BD02146FF31CB
:10DF60002131C879400731D4487A002805D0401EB5
:10DF70000006000E487201D061E04872706880218E
:10DF800008437060152040010321281801720C21FC
:10DF900041721BE02046CC3004F0BEFF00284ED179
:10DFA000FF202830005D400749D570688021084374
:10DFB000706006980122002804D0049802220228EA
:10DFC00000D103222046049904F0C6FF1520224602
:10DFD0004001FF3229182132029194461279087AC1
:10DFE000D3075B0E1843E31D0872F93303935B6993
:10DFF00040261B7833405B0018430872022A20D366
:10E0000026468036F06E7066306FB0666046C17B23
:10E0100020460122E43004F0E1FF706E0090B06E03
:10E02000019002980099007AC907490E08430299A5
:10E0300006220872164800A92818013106E00027B8
:10E0400020E0134821460622ED312818F3F75EF947
:10E050000399022049690A781207120F072A00D192
:10E06000042009182B20000106222818F3F74EF986
:10E070000498552180000019C900806A0E22691891
:10E08000F3F744F9384607B0F0BD0000C0000020A7
:10E09000AA020000FFB50346FFF7B2F8002403947C
:10E0A000019400941C68240A24021C605C68240209
:10E0B000240A5C60002902D00321090701E0032142
:10E0C00089070291002A00D100210022D4002418DF
:10E0D000FF340134A56C1E68AE46B446B54205D186
:10E0E0005D68029EE76C3543AF423DD0E6450BD1FB
:10E0F000E56C5F682E0A3F0ABE4205D12E0E03D1A1
:10E100000D43E56401240194521CD2B2042ADDD3EC
:10E11000019A002A25D10246FF326132147A042C7A
:10E1200012D1002409E0E5002D18FF3501352E6DD0
:10E13000AE646E6D641CE4B2EE64157A6D1EA54289
:10E14000F1D8147A641E14722406640D2418FF3466
:10E1500001341D68A5645B680B43E364117A491CB4
:10E1600011720399002907D0112149014018807FBD
:10E17000002801D001200090009804B0F0BD0000FC
:10E18000FFB506469BB0002010901E9850214843D2
:10E19000FE4905904718F86D4001400F0790B17B8C
:10E1A000F07B0202307C0304707C000618431043AD
:10E1B00008431290B17CF07C0202307D00041043D1
:10E1C00008431890707D11903046163004F02CFFF3
:10E1D00002903046183004F027FF0D9030461A3078
:10E1E00004F022FF009030461C3004F01DFF0F9019
:10E1F00030461E3016902320815DC806C00E179051
:10E20000480903901C98FDF72BFA04462546203553
:10E210001E9868771C9BE11D2B740022F931CA609F
:10E220000A6120468030E26709900260D848C880C1
:10E230001846F7F7B6FE204604F0FBFE2046E03015
:10E240000021159081771798687401F07BFB04908A
:10E25000CE4905985C31401850220021F6F786FE21
:10E26000F86D40210843F865C84905988031401889
:10E270000E9080684109C748490100684030407AE3
:10E28000C006C00E01430E988160F96D072000069C
:10E290008143079800060143F965F96D07200007DF
:10E2A0008143079800070143F96519A804F006FFA8
:10E2B000079804280CD0122019990A1A25980128C9
:10E2C00008D002280ED01D9801281BD088321AE0F1
:10E2D0009D20F1E707983E3A012801D0121D12E077
:10E2E0000B3216E00E21079804F0F4FE121A07987C
:10E2F0003E3A042801D014320BE0AF208000B43243
:10E30000109008E090320798042804D0259800283F
:10E3100003D0022002E0032000E00120029940180F
:10E3200040020B9080180190304608301D990590EE
:10E33000002947D0F96D80208143F96503202873B7
:10E3400030784006C00F1390B01C069091480068CA
:10E350004030818B0791039804F07AFD07990818E3
:10E3600080B260850B9903F0E7FA01990D300A1A23
:10E37000049943008968E164CB188B4200D9E364B7
:10E3800060640099A18684494843010A10980818DE
:10E39000109022642798016809984167279841687E
:10E3A00009988167049800880B90401C80B27B49D3
:10E3B0000B90884203D94942401880B20B90002349
:10E3C00002902AE0F86D80210843F8650220287346
:10E3D0000020039060853178C90913910599069151
:10E3E00011990A020199A08652180799042900D1AF
:10E3F000022189000919096DE1646064C9E71846C2
:10E40000FDF72EF9C18E0298814204D164498842F9
:10E4100001D00B98C9E75B1CDBB262480068203072
:10E42000007D9842EBD804990B9808800B98E08601
:10E43000584800686030807E80074AD500201390DD
:10E44000149013A8844602901D98012827980078FC
:10E450000FD0C0B2022801D0032801D1059884460C
:10E460003078400615D5F0798009012811D1B01C0B
:10E470000EE0C0B2022801D0032801D1B01C8446AE
:10E480003078C00905D0707B8009012801D105983A
:10E490000290039B0D9807930F9A009904AB07C352
:10E4A000279861460378401C9B0701909B0F3D48CD
:10E4B0000093039100682030007BC00701D000204A
:10E4C00000E01020002180301D9B0B9A04F020FEFC
:10E4D00019E00D9800990290039B0F9A03A80EC0B3
:10E4E0001398009006992F48019100682030007B16
:10E4F000C00701D0002000E01020002180301D9BCB
:10E500000B9A04F059FE26492498C91E884251D01E
:10E510001D9801284ED1234800682030007BC00799
:10E5200001D0002000E01020A12108430090249891
:10E530000223C0B205900B9803900098C00605D541
:10E5400000980A22BF21084000900AE011480068A4
:10E550006030017C89062DD5C07E80072AD50098C1
:10E5600008220007000F032824D281000E4800680B
:10E57000081800690099F8F7B3FC01001AD00022CE
:10E580000A71059B4B71039BCB800FE0800000203C
:10E59000FFF700003C060020E2040000FF0E000030
:10E5A000FFFF00002C060020400600200A720098A1
:10E5B000F8F7F0FC30788006C60F04F043FE002820
:10E5C00004D0002E02D02698002802D125980028D9
:10E5D00000D00120159901230877A12000901598FB
:10E5E0000B9E007F0390CB4800686030017C890659
:10E5F00011D5C07E00070ED5C748152200680099C6
:10E600004069F8F76DFC010005D08E80039A8A718D
:10E610000098F8F7BFFC03210D9889024843E06594
:10E620000F98000320660020E0870D984002A06448
:10E630000120208509990020888409990877099983
:10E640004877A62108550999896808600999496899
:10E65000086068737D2040046066A066204604F070
:10E66000F9FD1C98FCF7FCFF0121FF30013001721D
:10E67000142200212046F6F779FC1422A01800216C
:10E6800000900790F6F772FC217910200143217168
:10E69000207E102108432076E17B02200143E173B4
:10E6A000E9780143E970E87880210843E870E87868
:10E6B00001210843E870E87804210843E870E8780D
:10E6C00040263043E87020462830A060FEF798FDD1
:10E6D000801CE0612460079860614D202870002153
:10E6E0006970A97809090901A97020730020607375
:10E6F000A07B00090001A073207930432071207EA7
:10E7000030432076607E012108436076A87810218E
:10E710000843A870A07B0843A0731D98002817D059
:10E72000A8783043A870E87820210843E870207E5C
:10E73000012108432076207E8021084320767749F6
:10E74000119848431099401810901198608622E063
:10E75000207901210843207120798021084320710C
:10E760000120C046012805D00120400711D5FF2017
:10E7700091300FE0674805210068C9018030C06D05
:10E780000E224018006D41691C985043C01D085C62
:10E79000EBE7FA2010900720E87321790420014369
:10E7A0002171217E01432176617901436171617993
:10E7B000022001436171617E0143617609981099DD
:10E7C000C16657490869574A1040109A1203120946
:10E7D000104308610120C04601280E9849D04068C6
:10E7E0001F210002000A090641180E9841600E9888
:10E7F0008068169980B24A780B781102194309048F
:10E8000008430E9988601698801C00F001F90E9953
:10E810008002C968800A890D890508430E99C8607D
:10E82000F86D80098001F8650E9800680E991298BD
:10E83000086015983F26007F360200281ED01699E2
:10E840001C9804F01BFD12981299000C484082B2EB
:10E8500000211C9802F0E8FF0E9989680E9AB143D6
:10E860009160F96D800689098901800E0143F9657F
:10E8700010E04168FF2000060143B6E7F86D80090B
:10E880008001F8650E9880681799B0430902084323
:10E890000E9988600E984068010E18980906014389
:10E8A0000E984160386E3C66786E00987866E16C30
:10E8B000A06C814200D9E064287C04F00BFDE16C7F
:10E8C000091AE1641D98002821D00222A87BEB7B65
:10E8D000099D29671D99002904D01099099DFF31D0
:10E8E0005F3129671349124D04910F4F0F4E05A94F
:10E8F000E0C1256CA16C02900091099801950393E9
:10E90000036F21461E9804F009FD1FB0F0BD0522DB
:10E91000DCE700003C06002040060020E204000086
:10E92000C0000020FF0000F0C9140610E9F905102E
:10E93000A1F20510D177051070B5114D044643685A
:10E940000268286815268030C06D76018119FF3075
:10E95000FF3002300978806C00F042FBFF2801D0C4
:10E96000012070BD286822468030C06D8119FF30BB
:10E97000FF3002300978806C00F090F9002070BD03
:10E980003C060020F8B50646FEF73AFC0446FF3484
:10E99000093427460025FF3721370AE0A800205810
:10E9A0004079FF2803D0B04201D0FFF779F86D1C01
:10E9B000EDB2B87EA842F1D8F8BD70B50546FF3576
:10E9C0002135EA79C41D9109F934002901D00021CB
:10E9D00008E0A08B01214004000C0B02A0839842A8
:10E9E00000D9A3839006800E89010843E871A08BAB
:10E9F000012809D003F062FBA18BC0B2491EF3F7D6
:10EA0000FFFC491C697270BD0120687270BD000076
:10EA1000C3788278417800781B021A4309021204F5
:10EA2000084310437047FFB50446C71D83B0054631
:10EA3000F93778680190386864340C990090606008
:10EA40007868A060A3731E46E17304F03DFA207459
:10EA5000786902228078800920707969C97811402C
:10EA60004900084320707869417880788006800EDC
:10EA7000081A401E2077786981788906890E091D59
:10EA8000401820620E98002805D00D98006860613B
:10EA90000D98406801E000206061A06104980028A2
:10EAA00005D00198310608430001000901900122B8
:10EAB00000216846FFF7EEFA002814D1FF35213512
:10EAC000A87BFF280FD10598002806D02078C00623
:10EAD00003D46068FF21084360602378217F00220F
:10EAE0002046F7F744F907B0F0BD0000FFB581B04C
:10EAF0000746129803211B300843401C8308F80680
:10EB000003D50822BF2007400CE02548006860308C
:10EB1000017C890602D5807EC00602D4002005B0A3
:10EB2000F0BD06223807000F032836D21D498000A9
:10EB30000968401800693946F8F7D2F904002CD06A
:10EB40000298A0800398A0712646251D2036062233
:10EB5000E01D0499F6F704FA0A9868720B98A872F7
:10EB60000C98E8720D9828730E9868730F98E881D6
:10EB7000109828742846062211301199F6F7F0F9FA
:10EB80001298E875AE613046129A1399F6F7E8F9D3
:10EB900021463846F8F7FEF9C0E70720BFE7000036
:10EBA0003C0600204006002010B51921890304F01E
:10EBB000CFFB104C272322681B018032D26D985066
:10EBC000FF32FF3202325167F2F759FF2168052305
:10EBD0008031CA6DDB01FF32FF3202329067C96DAE
:10EBE0000022CB1810461A600522D201891848600D
:10EBF000002010BD3C06002010B504F0C3FB10BD82
:10EC000010B503F05BFA044603F058FA000420182C
:10EC100010BD0346C806C00E0121814010B400207B
:10EC200000290BD9C200D2185468641C02D11268A2
:10EC3000521C04D0401CC0B28842F3D3C8B210BCEE
:10EC400070477FB50668456881683543C4682943C5
:10EC50000C43002188B0002C06D0002B07D0099966
:10EC600004F0ACFB0CB070BD01200CB070BD009185
:10EC700001910291039169460A70130A4B70120CBC
:10EC80008A7004AA04F0BEFB09A90131032204A87A
:10EC9000F2F7D8FB0028E7D10CB070BDF7B50546F8
:10ECA000C80682B0C00E012484400F466B46284639
:10ECB000049A04F0E6FB01287BD028463946264614
:10ECC000FFF7A7FFB04202D1FF2005B0F0BD6946B3
:10ECD0000E78601EB04231D9E0004119084608386C
:10ECE0000B460A1FA61B0127091DF607FF078446CE
:10ECF000FE4207D0083863460668083A1E600839A5
:10ED000016680E606E463678A41B641E641015D01B
:10ED100006461F46803EB66F803FBE6716460F46CA
:10ED2000803E803FB66F1038BE67103B0668103AD1
:10ED30001E60103916680E60641EE9D10498334ACB
:10ED40000168684600781524C000295004986401C1
:10ED5000416868460078C000401941601068803002
:10ED6000C16DC81DFF30FA30436DAB4202D0836DD8
:10ED7000AB421FD1684609190578C97800200029DF
:10ED80003FD911688031C96DFF31FF310231CB6D40
:10ED900028214143591820318B79AB4201D35B1CA8
:10EDA0008B711168401C8031C96D0919C978814285
:10EDB000E7D826E0C36CAB4202D0006DA84220D158
:10EDC000684609190578C9780020002919D9116801
:10EDD0008031C96DFF31FF310231CB6D28214143B4
:10EDE00059182031CB79AB4203D3FF2B01D05B1CE8
:10EDF000CB711168401C8031C96D0919C9788142F5
:10EE0000E5D86846007805B0F0BD00003C0600205B
:10EE1000CB06DB0E01219940F0B4491E0A408C4616
:10EE2000914224D9624522D2D10009180C460D46E0
:10EE30000B1D083C091F6646B71AFE0707D0AE68CF
:10EE4000A6609E688E6008310833083408357E104D
:10EE50000DD0AF68A7609F688F602F6927611F6919
:10EE60000F611031103310341035761EF1D10023AC
:10EE70006146DB43C900435009184B602A490B68BF
:10EE80008033DC6D1523E51DFF35FA356E6D5B01B2
:10EE9000864202D0AE6D86421ED1E418E47800208E
:10EEA000002C17D90C688034E46DFF34FF34023431
:10EEB000E56D282444432C192034A579954201D9C5
:10EEC0006D1EA5710C68401C8034E46DE418E47874
:10EED0008442E7D8F0BC7047EE6C864202D02D6DBC
:10EEE0008542F7D1E418E4780020002CF2D90C68B0
:10EEF0008034E46DFF34FF340234E56D282444434C
:10EF00002C192034E579954203D9FF2D01D06D1ECF
:10EF1000E5710C68401C8034E46DE418E4788442A8
:10EF2000E5D8F0BC704700003C060020F8B52B4D3A
:10EF3000152728687F018030C06DC119FF30FF3070
:10EF400002308978406EFFF764FE002104460028F5
:10EF500010D928688030C66D9920800080594A06F3
:10EF6000520ED3001B1DC3581B0E28D0491CC9B21A
:10EF7000A142F4D3002C21D000212A684806803217
:10EF8000D26DFF32FF320232566E820D121DB3581F
:10EF9000180E07060DD41B021B0AB3502E688036CC
:10EFA000F66DFF36FF360236401E766E00060343CE
:10EFB000B350491C641E2406240EDED1F8BDF1199D
:10EFC0008978FFF725FF28688030C16D0520C001D2
:10EFD0000918087C401E0874CCE700003C0600209D
:10EFE000F0B40546C906C90E01208840C1B21E0210
:10EFF000002049084318DCB2E3005B191F685B6816
:10F000001B029E4203D89E4206D1BA4204D3204638
:10F01000BA4201D19E4202D00029EAD1FF20F0BCC1
:10F020007047F0B50E4691028646890A01208FB0DE
:10F03000800500229C460AAC014310251346089423
:10F0400001E0032A04D2D0000F46C740277000E039
:10F050002370521C641C6D1E2D062D0EF1D16046CE
:10F06000002821D0704604900AA8059068460690B2
:10F07000037704A804F03AFA0898017831714178CE
:10F0800071718078B0716846007870706846407819
:10F09000B07068468078F07030680121000A000284
:10F0A000084330600FB0F0BD6A467046089904F01E
:10F0B000A9F9E1E70A6802608B8883808A79827106
:10F0C00070470000F8B514460E46054604F03CFAB9
:10F0D0000746F7F7D5FE1049012C02D0042C03D0C7
:10F0E00017E00868303005E0002F12D0002810D05B
:10F0F0000868806B0B682978283319706978597013
:10F1000099780622214399703146F5F729FF0020AE
:10F11000F8BD8220F8BD000034060020F8B50C468A
:10F12000064604F011FA074604F013FA0546F7F70D
:10F13000A7FE1049012C04D0022C05D0042C0AD0C3
:10F1400015E008683C300CE0002D10D000280ED0EF
:10F150000868C06C05E0002F09D0002807D00868B7
:10F16000006D0E223146F5F7FBFE0020F8BD82202F
:10F17000F8BD000034060020FFB5314881B00568B5
:10F180000E460024283504F0E4F947007F1C04F003
:10F19000DBF9800007433046B84300D08224A978C9
:10F1A0003046884300D0D1240198402804D0332031
:10F1B000405D05E0852405E03320405DE7210840FF
:10F1C0000028F7D12F462037B87C410704D4019995
:10F1D000DF22114200D08524000704D40198800664
:10F1E00001D5852429E0002C27D1787D800703D51F
:10F1F000FDF7B2FE040021D101982321084204D07A
:10F200003146019804F0AAF916E0F00703D03878E7
:10F21000002800D1D224700703D5A86A007B0028FB
:10F2200002D0002C02D008E0D22406E03146049B34
:10F23000039A019804F0C8F90446204605B0F0BDD1
:10F240003406002030B47446641E2578641CAB423A
:10F2500000D21D46635D5B00E31830BC1847000018
:10F26000F8B5214F00253E6804462836002802D014
:10F27000411E084200D082252036F07C204201D178
:10F2800085252FE0002D2DD1C4210C4207D1E106A8
:10F2900001D5410603D421070AD5400608D504F05C
:10F2A000E5F9050009D1F07CBF210840F07404E0C5
:10F2B00000210846F6F7BFFD0546A00706D0002D41
:10F2C00010D102213868F7F7E0FD01E0002D09D1E7
:10F2D000F07C6946A043F0740C7000204870022056
:10F2E00000F025F92846F8BD34060020FEB50C468E
:10F2F00005461E4617460821042003F01FFB002880
:10F3000004D1012D03D0002D09D01220FEBD002C08
:10F3100005D0012C03D0022CF7D1002EF5D0684681
:10F32000447047800671002141710570F6F709FDB0
:10F33000FEBD0000F7B50E4684B007210191009193
:10F34000F8F718F8040004D07420005DC0071ED13F
:10F3500002E0802007B0F0BDA01C04F08BF900286B
:10F3600017D0A07BC00612D4474D28684030817862
:10F370004A081143C90702D08179490707D40021FF
:10F380000291A173A17A002907D0F12903D0852029
:10F39000E0E7B020DEE7F1071FD08079C0438007A7
:10F3A00021D0208920220105090D002002F0E8FC6F
:10F3B00007001AD0A020A072E07E2F210840E0763E
:10F3C000B00703D5A07B20210843A073069800282E
:10F3D00028680CD02030417E0DE00120A07320462B
:10F3E000F6F75FFDB6E73820B4E78820B2E7A03033
:10F3F000007E4007C10F28680346064640339878D0
:10F40000DB7842081043C2073820D20F805D02F03B
:10F410009DFE0646204602F0A5FE01990098009147
:10F420000190227E33460121384602F039FF214601
:10F43000384602F0FDFC002802D08120029089E7C6
:10F44000296840318879C243920701D0401C8871F5
:10F450002046542200212030F5F788FD304618213F
:10F460000840E072A07EF10700D002210843A07698
:10F47000E07E7107C90F0843E0762868A030C675A2
:10F48000A120A072029865E758060020F7B5009801
:10F490000F46008801F0F6FA050009D0A878810728
:10F4A00004D4400702D5A879122803D08520FEBDD8
:10F4B0008020FEBD6879B84201D08220FEBD009850
:10F4C00020220188002002F05BFC040009D0029891
:10F4D0000126002808D0009804F0EEF8002802D099
:10F4E00002E08820FEBD0026A06813210173A068F9
:10F4F00002214773A0688173A0680021C173A068CE
:10F50000310A0674A06841740620E0802146052077
:10F51000FCF726FD002805D000212046F8F704F866
:10F520008120FEBD284604F0F9F80020FEBD0A4601
:10F5300010B58921002A27D01178CB0701D00021EE
:10F540001CE08B0701D5012118E04B0701D50221F2
:10F5500014E00B0701D5032110E0CB0601D50421EF
:10F560000CE08B0601D5052108E04B0601D50621EC
:10F5700004E0C90901D0072100E0FF211170014614
:10F58000022004F0D5F80146084610BDF7B582B058
:10F5900000200090124800240068C76AE000001BA9
:10F5A000C6B2B819054606220299F5F7E9FC00062D
:10F5B000000E0ED1A979039881420AD10120009052
:10F5C0000498002809D0B81907220021F5F7CEFCCD
:10F5D00003E0641CE4B2042CE0D3009805B0F0BD55
:10F5E0003406002010B58AB06C4660800920207176
:10F5F000218162811422194603A8F5F7B1FC6846FF
:10F6000001F0CAFA0AB010BDFFB581B01E460F4620
:10F6100001F044FE00280DD005462035287B032844
:10F620000AD0287C012101F0A7FE002806D03A204C
:10F6300005B0F0BD0220FBE78220F9E7287C01211C
:10F6400001F0A5FE01460446082230313846FEF797
:10F6500077FA1022A1183046FEF772FA21460222EC
:10F660002E310398FEF76CFA287C012101F098FEF8
:10F67000287C0021FCF769F801280CD006202034F2
:10F680002072002020730122287C0023114601F003
:10F690008FFE0020CCE7012020342072F2E730B545
:10F6A0000446008989B00105090D2022002002F0DE
:10F6B00067FB050009D0E07A000709D505A802908C
:10F6C000019401A8F6F73DFC08E0882009B030BDA0
:10F6D000214605AA5431204604F066F81120E8803E
:10F6E000A8680321017305AB10220521284602F00A
:10F6F00067FB2146284602F09BFB0028E6D1A521A6
:10F70000A172E3E7F0B50B4693B00C4664330025D5
:10F7100010220521099302F0EFFCE07A00070BD5D7
:10F7200004A80F900E940EA8F6F70FFC0546EB28E0
:10F7300007D1002013B0F0BD04AA2046099904F0B7
:10F7400033F821462A3110220F4604A8F5F718FC99
:10F75000002806D000231A4604212046FDF724F98C
:10F760003DE0204E217F30682030C07E814200D9AC
:10F770002077E07A000703D52046F6F7EAFB2FE072
:10F78000102200216846F5F7F1FBE07F022802D045
:10F79000032806D00BE03068C16B684602F04AFED1
:10F7A00005E03168102268464831F5F7D9FB22465A
:10F7B0000AAB54326846099902F044FE1022002137
:10F7C0003846F5F7D3FB227F0AA93846F5F7C8FB80
:10F7D000A07B02210843A0732046F6F762FB054692
:10F7E0002846A7E75806002070B506460C460025B7
:10F7F0000889F7F7B5FC024600211A4B0846F7F7CF
:10F80000D1FC1949B06809684222525C407B022A47
:10F8100003D1020701D4032018E0A27AF12A06D10D
:10F8200022895204920F02D1420700D50125C00659
:10F83000C00EA0310876208900220005000D29465F
:10F84000FFF778FD002808D0882805D0014601235D
:10F8500000222046FDF7A8F870BDA17B802211434D
:10F86000A17370BD30750000580600207CB50C46B1
:10F870000646A42502F04EFC00281BD1E07A0007C2
:10F8800007D5684600960194F6F74FFB002811D182
:10F89000A225A07EFB2140084000A076E07E084023
:10F8A000E0762146304602F07BFC204602F0BCFCAC
:10F8B000002808D0882805D00146012300222046D0
:10F8C000FDF772F87CBDE17F022903D1E17EC90614
:10F8D00000D4A225A5727CBD70B5064608890D46E8
:10F8E0000105090D2022002002F04AFA04001DD073
:10F8F000002E06D02B462A3310220521304602F076
:10F90000FBFB1120E080A068042101732B465433D7
:10F9100010220521204602F053FA2946204602F023
:10F9200087FA002801D1A621A97270BD882070BD78
:10F9300070B50D46044600F005F84069A100455039
:10F9400070BD0000044805210068C9018030C06D09
:10F950004018006D006870473C06002013B501F0A8
:10F960009DFC040006D0FF200730005D800603D414
:10F970001A201CBD02201CBD012101A803F0BAFF02
:10F98000010011D16846828820468030038D9A425A
:10F9900004D16A46D288C08D824205D02034207CB2
:10F9A000019903F0CDFF1CBD08461CBD10B50446EF
:10F9B0000120C046012801D0002010BD06480521C5
:10F9C0000068C9018030C06D4018006D0E2140698B
:10F9D0004C43001910BD00003C060020FFB581B06B
:10F9E0001D4616460846FBF783FE019980350F68D1
:10F9F00018492C8E4F43A98D8A013D2109015118C8
:10FA00008C4200D30C46FF342D34012809D0A920A4
:10FA100000012018874204D20E49F2F7F1FC019947
:10FA20000860A74201D9391B00E00021AA8E688F27
:10FA3000824200D21046884200D30846A92109011B
:10FA400080B2884200D20846B084688DF08405B048
:10FA5000F0BD0000E204000070B51C4615460E46DD
:10FA6000FFF7A4FF002802D00088022815D001214A
:10FA7000A88CFF387938C8400949400340188034C1
:10FA8000218D000C814200D20846002E03D0E98C63
:10FA9000814200D20846608570BD0321E8E700007E
:10FAA00000A0F6FFF8B51D460446032316460F4690
:10FAB000C00603D51722BF2004400BE0134800689E
:10FAC0006030017C890602D5407E400601D40020CA
:10FAD000F8BD14222007000F032814D20C4980001F
:10FAE0000968401800692146F7F7FAF901000AD0C1
:10FAF0008F80CE800D81069A4A81079A8A8120469E
:10FB0000F7F748FAE3E70720F8BD00003C060020BD
:10FB100040060020034900280A7801D00020087020
:10FB2000104670477A06002010B5F6F7ABFD10BD01
:10FB300010B50548202200680249A830F5F710FAF0
:10FB400010BD000074FE05103C06002070B50E4A82
:10FB5000044613680D4A0020126801462032157DC4
:10FB600080330DE07C229E6A4A43B218D67AF607AB
:10FB700004D01289A24201D0012070BD491CC9B233
:10FB80008D42EFD870BD0000580600202C060020E2
:10FB900010B50C4800240068603001798A070ED443
:10FBA00002221143017172B6074800688178490644
:10FBB000490E817062B603F01DFF012800D13A247E
:10FBC000204610BD3C060020300600200448016895
:10FBD00040318879020602D4402210438871704770
:10FBE0005806002003480068403080790007C00FA5
:10FBF000704700005806002070B588B00446002504
:10FC000002F0B0FA1E4E012823D105AB01220021DB
:10FC1000204603F025FF06AB02220021204603F018
:10FC20001FFF01A8009031680023BC31059A0846E7
:10FC300000F028F8102201A90698F5F7A1F900288C
:10FC400007D00421012300222046FCF7ADFE054623
:10FC500010E0207EC10707D0800705D4306810224D
:10FC600000214830F5F782F97420005DC00704D008
:10FC7000B620A072284608B070BDA920F9E70000A0
:10FC800058060020F0B599B00E461C4617460146AE
:10FC90000123202268461E9D03F006FF0123202237
:10FCA000314608A803F000FF10A8047001231022B9
:10FCB000394611A803F0F8FE15AB11AA4121684698
:10FCC00003F023FF0123102215A9284603F0ECFEC0
:10FCD00019B0F0BDF0B59DB00D461E461746014661
:10FCE000012320226846229C03F0DEFE012320220D
:10FCF000294608A803F0D8FE01231022314610A897
:10FD000003F0D2FE01231022394614A803F0CCFEE2
:10FD100018AB14AA5021684603F0F7FE0123042211
:10FD20001BA9204603F0C0FE1DB0F0BD017842784B
:10FD300013028278C0781204000610431843084367
:10FD40007047000070B50446022315460E46C006F3
:10FD500003D52722BF20044008E00F480068803008
:10FD60008078800601D4002070BD24222007000F77
:10FD700003280FD20949800009684018006921460C
:10FD8000F7F7AEF8010005D08E8020468D60F7F7BA
:10FD900001F9E8E7072070BD3C060020400600207E
:10FDA00030B401240023002908D9D55C854201D054
:10FDB000002403E05B1CDBB28B42F6D3204630BC50
:10FDC0007047000070B50646008981250105090DC0
:10FDD0002022002001F0D4FF040025D0002145227C
:10FDE000A068FCF789F805001ED14120E080A068DA
:10FDF0000C2101730D484022036805212046683319
:10FE000001F0DEFF3146204602F012F805000BD16A
:10FE1000F07A20210843F072FFF7E4FE002803D0B7
:10FE2000F07A04210843F072284670BD580600207D
:10FE3000F0B5284D462229680446525C00209206FF
:10FE4000920F93B0032A3AD1202207A8FC31F5F78C
:10FE500087F82868CF224030817926461140817189
:10FE60006036307D11AFC0072BD00FA805AB3A46E6
:10FE700006A90090204603F065FE6A462968127EB6
:10FE80002046FC312A30039104900FA86B4685C3AD
:10FE90006A46137D224621466432543107A803F096
:10FEA00069FE2A680121FF3220460D3203F0D2FE9E
:10FEB000002804D1317DC90708D0BB21A17213B03D
:10FEC000F0BD06AB0FAA05A90097D3E7204603F0C3
:10FED0005BFFF4E75806002030B589B00C466B464E
:10FEE0001022052102F008F904AA0021204603F09F
:10FEF000B1FE0546102204A96846F5F741F800282E
:10FF000001D1002D06D0012300220B212046FCF751
:10FF10004BFD17E07420005DC00703D0204603F0BE
:10FF200033FF10E0207F10210A1A21462A314018A1
:10FF30000021F5F71BF8A07B02210843A07320469F
:10FF4000F5F7AFFF0546284609B030BD70B5284D1E
:10FF50000E462B684621C95C090601D53A2445E0C6
:10FF600040220521BC3302F0C7F828684621095C0D
:10FF70009022114202D18906890F01D0382435E040
:10FF8000BC3003F02FFF040004D0122C23D01F2C10
:10FF900025D02BE028681022034640308179114398
:10FFA0008171F07AC0210843F0721846114920226D
:10FFB000BC30F4F7E5FF002818D10E49286820313D
:10FFC0002022DC30F4F7DCFF00280FD1F07A042186
:10FFD0000843F0720AE0012300220B2102E0012312
:10FFE000002208213046FCF7DFFC0024204670BDCB
:10FFF0005806002034FE0510F0B500208FB00546ED
:020000041005E5
:10000000564E574F0B90A1E030682C46416B2C2088
:100010004443A01D0990085CE21C06928A5C002AF9
:1000200076D000281BD1112A72D120461830085CE6
:1000300001286DD1284603F013FF31684A6B214631
:100040001A31515A814201D2411A00E0002189B28D
:10005000022901D2022877D81620231DD1523168F7
:10006000231D4A6BE11D515C07938C46D15A135BEB
:10007000029323460A33D35A049323460E33D35AAA
:10008000012834D0062804D0072807D016284FD1DD
:100090003FE00499029803F0F5FE48E00698105CF2
:1000A000D02845D16146049A029803F071FF0B9065
:1000B000002849D1029806900498059029484224C6
:1000C000006801238030007A800734D526482B222F
:1000D000006821468069F6F703FF01002BD0069ADD
:1000E0008A80059ACA802046F6F754FF23E0022949
:1000F0001ED1684604990170090A41708370190A7B
:10010000C1706B4602226146029800F077FA0EE059
:100110001AE00698105C11280AD10CA80090183437
:100120000798135D125A0499029803F09DFF0B90F3
:100130000B98002808D1316800204A6B0999505467
:1001400031684A6B079950526D1CEDB2B878A842DD
:1001500000D959E70B980FB0F0BD000054060020FD
:10016000DC0C00203C06002040060020F0B566486C
:1001700085B00068446EC2E02089029060890299CF
:1001800000F02AFC6149897881426FD95E492C23AD
:100190000A685843526B0190C01C105C112865D14D
:1001A00022886088121A97B2002801D1BF1CBFB202
:1001B000002F5BD0019816300090534A1068416BB5
:1001C0000098085A0028F4D0019812300D5ABD4208
:1001D00000D93D46281D82B20020029901F0D0FDD1
:1001E00006007DD0B068A17A81726189B068090A81
:1001F000C17260880021002807D1B068217801739E
:100200002188B068090A41730221681A80B20390FC
:1002100062886068091D83183046039A01F0D0FD9A
:10022000F5803146384E30684830FBF7BFFE306805
:10023000009A416B0098085A401E885261880398C2
:1002400008186080781B07043F0CB6D1258800236E
:100250002380638030460268506EA04208D1C06897
:10026000506600280DD11046643009E046E008468B
:10027000C168A142FBD1C968C160002901D10C301D
:100280009066E360106E204B0460204619680C30C5
:10029000086608462030427C4227521E427401986C
:1002A0004A6B1430115C491E115418680199406B57
:1002B0000A31029E415A029161680191009904231A
:1002C000405A0090124800688030007AC00615D568
:1002D00010482D22006839468069F6F701FE00E0DB
:1002E00010E001000AD08E80029ACA800D81019A26
:1002F000CA60009A0A823846F6F74CFEE468002C81
:1003000000D039E705B0F0BD54060020DC0C002019
:100310003C0600204006002070B5C6880446351D06
:1003200000218068AAB2FBF7E7FDA068310A0672D7
:10033000A0684172E580022020732046F6F7A8FBF2
:10034000002808D0E0882146001FE08002480068AD
:100350004830FBF72BFE70BD54060020F1B588B085
:1003600008988088039000F08DFB04460898806808
:10037000817AC07A0002081880B2039900F0A4FACA
:10038000002C27D082498978814223D908992C22D0
:10039000CE88042100917F49044609685443496B83
:1003A00025461935485D00285DD10898E31C806812
:1003B000027B407B0002101880B26A461082CB5C40
:1003C000112B65D123460C33CB5A834203D206202E
:1003D000A41D08555CE006232246263200930592B0
:1003E000B61E8B5A821CB6B2934202D2882009B044
:1003F000F0BD2346674A2833C852116800204B6B72
:1004000021462A31585210680839406B0291475AE8
:10041000891E0691415AC91B89B201293AD0214649
:100420001C3140580222C01904A9F4F799FD59481B
:100430000068406B01900699415AB81CF1F7E0FF43
:10044000029A0198815253486A460068128A416BA9
:100450000598085A801A059A801E88524D48012135
:100460000068406B41554B4B214618682831406B62
:10047000415A049121462A3147180E3941580691B4
:100480003A880499891AB14213DA0621A41D01554C
:100490008620ACE76B46198A3E4A0B0A21461C317E
:1004A0004058C35512686B46526B188A51580870F1
:1004B000BDE7415D012901D0022932D12146203119
:1004C0000591425A891C0291405A111A89B2019130
:1004D000B142069903D94318324600990DE04318FA
:1004E000019A0099089801F007FE01980199301AC5
:1004F00082B20098069B401881B2089801F0FCFD7A
:100500002448029A0068406B00900599415A805A2D
:100510008019F1F775FF029A009881523888801986
:10052000388039880498814227D11A48002102680E
:100530000223526B51554221009100682146406BC5
:100540000A311A34465A075B1348039D0068049C1D
:100550008030007A800618D510482E220068009955
:100560008069F6F7BDFC01000FD08D80CE800F8131
:100570004C810098F6F70EFD07E006480068406BD6
:10058000415D012901D10221415500202FE70000E2
:10059000DC0C0020540600203C0600204006002011
:1005A000F0B584466146896800208A7CC97C0902CE
:1005B0005118104A89B215680F4A8E460146947840
:1005C00014E02C260A4672436B6BD61C9E5D002EEF
:1005D0000AD067469E5ABF88BE4205D10E329B5A4A
:1005E000734501D10A20F0BD491CC9B28C42E8D83C
:1005F000F0BD000054060020DC0C0020FFB581B0E7
:1006000016460D46044600F03DFA070007D07879FB
:10061000A84201D1032E04D3822005B0F0BD802072
:10062000FBE7B878800701D58520F6E72022214630
:10063000002001F0A5FB04000CD0A068012101738B
:10064000A06800224573002E09D0012E04D0022E8E
:1006500004D004E08820E0E7022200E00422A06841
:10066000911C8173A068090AC173A068310A0674DD
:10067000A068951D4174002E04D00A212046049BD9
:1006800001F09EFBE58021460520FBF769FC002870
:1006900005D000212046F6F747FF8120BDE7384608
:1006A00003F03CF80020B8E7F7B51D4E0F46306860
:1006B0003021095C00290FD01A4900248A7809E00A
:1006C00021462C256943436BC91C595C002905D080
:1006D000641CE4B2A242F3D88820FEBD2C2125463A
:1006E0004D430A4658190021F4F740FC30680121B7
:1006F000426BE81C115431680098496B002F485335
:1007000001D17F20071B30680A35406B47533068A2
:100710002030017C491E0174029804700020FEBD47
:1007200054060020DC0C002010B5937804242343E9
:1007300093709071517110BD70B5114B05011B681C
:100740008122DC6A6419A5786D0716D5E5798D429A
:1007500013D101461846F6F798FBA078FB21084014
:10076000A0702079401C0006000E207101D10120EC
:1007700020710020A071E0710246104670BD00009B
:1007800054060020F0B594460E4A074616680E4AF5
:100790000020957812E02C220346746B5343E25AF2
:1007A000BA4209D19A1CA25C9207920F8A4203D1E5
:1007B000DB1CE35C634503D0401CC0B28542EAD831
:1007C000F0BD000054060020DC0C002010B50949E3
:1007D000897881420DD9084C2C2221685043496BFD
:1007E00008180021F4F7C2FB20682030017C491C66
:1007F000017410BDDC0C002054060020FFB5044637
:10080000002083B0019007460646052300900D4660
:10081000E00603D52D22BF20044006E028480068EA
:100820008030007AC00744D02A222007000F032816
:1008300041D2244980000968401800692146F6F732
:100840004FFB010037D00E9A081D93681A460832F4
:100850005B7B022D19D2002D2FD00827D65DD2192F
:1008600057783F02F619B6B20196D77896783F02CC
:10087000F619B6B20096577916793F02F619B7B253
:100880009679D2791202B21896B2069A02808570D1
:10089000059A828083710C9A02810D9A4281019A95
:1008A0008281009AC281078246822046F6F772FB57
:1008B000002007B0F0BD0720FBE70A27CEE70000C5
:1008C0003C06002040060020F0B50E4A0746166898
:1008D0000D4A0020957811E02C2302465A43134616
:1008E000746B0A33E35ABB4206D1A35A8B4203D13D
:1008F000D21CA25C012A03D8401CC0B28542EBD8AE
:10090000F0BD000054060020DC0C0020FFB51749A4
:1009100081B00D68102808D0202825D10026483540
:1009200028460068C04604461CE001263835F7E733
:10093000A068A288817AC07A276800020818029904
:1009400080B28A420DD10399012902D004998842CC
:1009500007D121462846F6F7ABF831462046F6F790
:10096000E3FD3C46002CE3D105B0F0BD5406002069
:10097000F0B5184F3B685B6E29E01C89844225D195
:10098000012902D05C89944220D13E68746E9C4259
:1009900007D1E4687466002C0CD13446643408E056
:1009A0002C46E5689D42FBD1ED68E560002D01D144
:1009B0000C34B4660024DC60346E1D4623603C6851
:1009C0000C3525662034657C6D1E6574DB68002B54
:1009D000D3D1F0BD54060020F0B50C4A0746156887
:1009E0000B4A002094780DE02C2302465A4313460C
:1009F0006E6B0E33F35ABB4202D1B25A8A4203D015
:100A0000401CC0B28442EFD8F0BD00005406002064
:100A1000DC0C0020F8B51D460446022316460F469E
:100A2000C00603D52F22BF20044008E01348006809
:100A30008030007A400701D40020F8BD2C22200726
:100A4000000F032817D20E4980000968401800697A
:100A50002146F6F745FA01000DD0B068837CC07CD2
:100A60008F8000021B18CD800B810698488120469C
:100A7000F6F790FAE0E70720F8BD00003C060020FA
:100A80004006002030B504460848002103680848A5
:100A9000C27A07E0D86A0D0140190588A54204D042
:100AA000491CC9B28A42F5D8002030BD5406002046
:100AB000BC0C0020F0B50E4A074615680D4A002010
:100AC000014694780EE02C230A465A4313466E6B77
:100AD0000A33F35ABB4203D1D21CB25C112A03D0B1
:100AE000491CC9B28C42EED88C4200D90120F0BD1D
:100AF00054060020DC0C002010B58EB004461422F1
:100B0000094909A8F0F7E8FB684644800221017111
:100B100001210181142209A903A8F4F721FA6846EA
:100B200000F03AF80EB010BD7409061070B58EB022
:100B300014460E4605461422094909A8F0F7CCFBD5
:100B40006B465D80042018711E815C81142209A906
:100B500003A8F4F705FA684600F01EF80EB070BD61
:100B60008809061000B589B06B46588005201871B9
:100B700019815A81684600F00FF809B000BD00B530
:100B800089B06B4658800720187119815A816846D0
:100B900000F002F809B000BDF8B507462C492B4813
:100BA0002C4D08602868C06D002806D0788803F0B6
:100BB000F3FA002803D08520F8BD8820F8BD286806
:100BC000C46D216AC165002902D101465C3101660C
:100BD000242239462046F4F7C3F90120207020462C
:100BE00003F0E8FA0646862825D0822E23D0852EEB
:100BF00021D02079012806D17888FBF717FA41889F
:100C0000042211434180882E04D13879102812D053
:100C1000112810D0002020622868806D04602046D2
:100C20002968203088652078022108434008400068
:100C300020700020F8BD002020622868006E04604B
:100C40002868203404663046F8BD00002DF10510F8
:100C5000600600205006002010B5FAF715FE007857
:100C60008007C00F10BD10B50C46FAF7F9FC8021C3
:100C70000C43A030847110BD81B00321017080212C
:100C8000C9050A680F2312091A4042700A68134006
:100C90008370496841602749096889B2491C890005
:100CA0008160002100910099002901D1012100916A
:100CB0000099491C8903C16001B0704770B50023D9
:100CC00000241D4AA5005351641C0A2CFAD311605C
:100CD00050600223DE0399004418083CE0252D06ED
:100CE0006519B54201D2246854505B1C0A2BF2D31B
:100CF000BFF34F8F114812490860BFF34F8F00BFF9
:100D0000FDE710B50F21C9430E4A0F4B00281868A4
:100D100006D0022404431C60106801400E2005E048
:100D20000224A043186010680140042008431060AA
:100D300010BD000014100040340000200400FA052B
:100D40000CED00E01C005048541600600A4610B537
:100D500001460248F9F774FF10BD00004C06002060
:100D6000F8B50646069FFCF74BFA0446FF340934F3
:100D70002546FF352135AE760868A0624868E062F6
:100D800088682063106860635068E363A063002094
:100D900004E081007A58401C6250C0B2A97E8142B2
:100DA000F7D8FF266E74AE74AE730020E871602130
:100DB0000855012221466873120380318A600A6156
:100DC0002871A8700120287424220021A06AF4F759
:100DD000CDF8A87E002809D024220021E06AF4F78B
:100DE000C5F824220021206BF4F7C0F8002006E0AB
:100DF00081006258401C16716158C0B24E71A97EC4
:100E00008142F5D8F8BD0000F7B50C460546FCF761
:100E1000F7F90B2189014618FF30357501210130A2
:100E2000717544608446002426E060464168FF20D6
:100E30000930604309180B46FF27C0339F76002016
:100E4000DF76C0439E22505200251D715D71012046
:100E5000CD66C00448650D670A468865A0321576E0
:100E60000720D075DD77E12047545420029A604373
:100E70008018641CE4B28862307DA042D5D80A484C
:100E800005210068C9018030C36D064A5B18DA612C
:100E9000C36D064A5B185A61C06D054A40188261ED
:100EA000FEBD0000F5FE05103C06002005FD051006
:100EB0000DEE0510F8B51E463F4B15251C686D015B
:100EC0008034E36D0A9F5B191870E06D4B07401981
:100ED0004170E06D4019827001205B0F014699401E
:100EE000E36D52075B19D970520F01469140E26DD4
:100EF00052191171E16D49190A785207520F904049
:100F00004871E16D0798FF31FF310231C864E16D2E
:100F10000898FF31FF3102310865E06DFF30FF3086
:100F200002304665E16D0698FF31FF310231886578
:100F3000E06DFF30FF300230C765E16D0998FF3189
:100F4000FF3102318864E16D49194979FF22C900F6
:100F5000F0F72EFB002F01D0F4F745FF002E0DD047
:100F60001548FF2200688030C06D4119FF30C978F4
:100F7000FF300230C900406DF0F71AFB0E4CFF2223
:100F800020688030C06D4119FF30C978FF300230D1
:100F9000C900806DF0F70CFB206813228030C36D10
:100FA000520100219B181972C36D9B189972C06D74
:100FB00080184172F8BD00003C060020F8B5FEF72D
:100FC000C1FC04460120C046012828D01B202084F3
:100FD0000120C046A927FF251C4E3F0149350128A5
:100FE0001FD00120C046012823D02846608401205C
:100FF000C04601281FD01B20A0840120C046012824
:101000001BD00120C04601281DD02E46E6841B209F
:1010100020836583A583E78320856585F8BDFB2054
:10102000D5E70120C046012801D00948DEE7304657
:10103000DCE73846DAE7FB20DEE70120C04601287E
:10104000E4D0034EE2E73E46E0E7000090420000B5
:101050004808000070B50346FAF702FB7D214904F9
:1010600041660246816620321374002104468034B2
:10107000C16721601E4D11732D685B018035AE6D17
:10108000F61866606D6DEB18A3605173012303853C
:101090002161A1734B1EC3861F2393730723D37350
:1010A000FF235377FD221154192212040265426571
:1010B000416782658167FEF745FC05460120C04611
:1010C000FF214931012809D1288B1B2802D1688BC7
:1010D000884203D020682022104320601B206085B6
:1010E0002085A085E18521866086A18670BD0000EF
:1010F0003C060020F1B582B00298FAF7B1FA064634
:101100001A4805230268DB018032D06D0299C018AD
:10111000006D382480686143441830468030446153
:10112000D26D0024D218126D3746D2682546511868
:10113000A037816130190090803085772146029870
:1011400000F09FF905700098FF21A030641C8170A9
:10115000E4B2FD71022CEDD3BD710298FAF794FB55
:1011600005800020C043F086FEBD00003C06002044
:1011700003492C22096850438031496E401870475A
:101180003C060020024800688030006E7047000076
:101190003C060020024800688030C06E70470000A6
:1011A0003C06002010B50548034A00680021903035
:1011B000FAF74AF910BD0000FFFF00003C060020CE
:1011C00010B50E4C00232068014610310160024624
:1011D00041600C30D360906009488069002803D0DA
:1011E0003022FCF7ADFC00E013610648016821687D
:1011F000016005490120086110BD00003C06002087
:10120000BC0C0020C00000200014006010B506488F
:101210000089113080B202F0DFFF0448012100682C
:101220006030017110BD0000BC0C00205006002091
:10123000F8B5124C2422A17A1148F9F701FD114AA0
:10124000002311680D4654354B658D650835CB6517
:101250000D66194601270DE024260D4675434755B6
:101260002D182B621668366E356020351668491CBD
:10127000C9B23566A57A8D42EED8F8BDBC0C002007
:101280004C0600205006002080B500BF00BF024A77
:1012900011001820ABBEFBE72600020070B5044623
:1012A000002003460B4E0C4D0EE01846FAF7D8F915
:1012B000C08EA04205D1B44203D01846FAF7D0F947
:1012C00070BD00205B1CDBB229682031097D99428A
:1012D000EBD870BDFFFF00002C06002010B5FFF713
:1012E00051FF407910BD10B5012100F04BF9008885
:1012F0000006C00F10BD0000F8B50C46C16F1026E7
:101300000A04218A01D5A57C10E0E2888030521AB7
:10131000408D95B2A84205D20546E07C4006400EBD
:10132000E07403E02068002800D10026002904D1E1
:10133000207B800701D5022000E00120CF06064374
:10134000FF0EE81982B20B48A16900688030C06CBA
:10135000001D02F055FF60610648A57400688030EA
:10136000C16CB81C0E54034800688030C06CFF1C70
:10137000C555F8BD3C06002010B500F082F8007895
:10138000C007C00F10BD10B500F0E8F810BD10B5D3
:101390000C46FAF765F9A10008188030406910BDC5
:1013A00010B500F06EF8017810221143017010BDE5
:1013B000F8B51E460D4607461446FAF751F940198E
:1013C000A03004702946384600F05BF80178DF222F
:1013D0001140F207920E1143012211430170F8BD32
:1013E00000B5FAF73DF9A030C17949084900C1714B
:1013F00000BD00B5FAF734F9A030C17901221143DC
:10140000C17100BD00B5FAF72BF97C3000BDF8B50D
:1014100007460E4605460837F0F759FE0091297831
:101420000446491DC840C008301A06B2387B761EF3
:10143000002802D03846F0F7EDFA2A783046F11746
:10144000083202F001FF009B02194B413846F0F7C9
:1014500093FAC0B2F8BD10B5002100F093F80088EF
:10146000C007C00F10BD10B5012100F08BF8008837
:101470008007800F10BD002801D000207047012098
:10148000704710B50C46FAF7EBF800199C3010BD08
:1014900000B5FAF7E5F82D30007800BD70B5C17CD5
:1014A00004464906490EC1740A4890250068012384
:1014B000002200692946F5F713FD010003D02846F4
:1014C0004C60F5F767FD04480068C030417A491C5C
:1014D000417270BD400600203C06002038B50D4921
:1014E00049220968D2008031C96D6B4654581522D3
:1014F000520189180D7802462946204601F0C1FFA5
:10150000012805D16846027829462046FDF780FC6F
:1015100038BD00003C06002010B5C41DF934217907
:1015200001290AD02030017C04480068F030F5F72A
:10153000ACFC002020806080207110BD3C060020A3
:1015400000B5FAF78DF800212030417300BD00B5D9
:10155000FAF786F800212030017300BD10B50C4663
:10156000FAF77EF80019A030007810BD192804D8C9
:10157000410040180249085C70471620704700007F
:1015800099D5041000B50B46FAF76AF899000818C7
:101590008030406800BD10B5FAF776F90078C007D2
:1015A000C00F10BD10B50C460121FFF7EBFF0188FD
:1015B0008A089200A107890F0A43028010BD70B506
:1015C0000124054601290ED0FAF763F9002831D02D
:1015D00001212846FAF736FA0646284602F045FE6B
:1015E000042E09D106E00121FFF7C6FE002821D014
:1015F00002241FE000281DD001220021284602F00D
:101600003BFE00280FD000212846FFF7B5FE00283A
:101610000DD00021284602F0E5FE002801D0052467
:1016200005E0022403E000212846FAF741F92846A4
:1016300002F0DFFE204670BDF8B50C4605460226D6
:10164000FFF71FFF0078C006C70F2846FFF70BFF04
:10165000002F39D0002837D1012221462846FAF739
:1016600031F9002830D1FF222146284602F0C9FE78
:10167000002829D121462846FFF770FF00F0B1F875
:10168000064601212846FAF713F9034606222146A9
:101690002846B04721462846FFF76EFE002812D0A4
:1016A00028462146FFF7EDFE0178EF221140017038
:1016B000FF222146284602F0BAFE01212846FFF704
:1016C00071FF032600E001263046F8BD70B50E46D6
:1016D00005460324FFF7C7FE03282DD131462846CF
:1016E000FFF73CFF00F07DF8044600231A46314620
:1016F0002846A04702463146284602F098FE0021BF
:101700002846FFF74FFF31462846FFF735FE0028F1
:1017100011D03146284602F065FE002801D005248C
:101720000AE031462846FAF785F9FF2801D004245B
:1017300002E0022400E00124204670BDF8B50D4609
:1017400007460424FAF7A5F8002841D003222946C9
:10175000384602F091FD00281AD029463846FFF796
:101760000BFE00280FD02946384602F03BFE002829
:1017700001D0052408E029463846FAF75BF9FF282E
:1017800002D1022400E00124384602F032FE1FE0BC
:10179000384602F06AFD06462846FFF76CFE05460D
:1017A00001463846FAF74EF9002E05D1042808D034
:1017B000002D01D1012804D000213846FAF778F82D
:1017C000E2E73846FAF760F8018804221143018005
:1017D0002046F8BD10B502F033FE00788007C00F38
:1017E00010BD10B50446142809D0152C07D0162CAE
:1017F00005D0FEF7A7F84069A100405810BD0020B1
:1018000010BD10B502F01CFE00784007C00F10BDDF
:1018100010B502F015FE0178FB221140017001782D
:10182000FD221140017010BDFEB513460C46F9F7BC
:1018300017FF0546C03006795C400021FF220232C6
:1018400020461040E7091740C001384352002746A0
:1018500017407F0138436709174038435200274635
:101860001740FF003843E708174038432746520027
:1018700017407F00640838431440204302011018C9
:10188000C018491CC9B284B20329D7D35C40204692
:1018900000F044F8294620314B7F502253431E4A22
:1018A0009B189C469B681F0C6B461F7063469B6889
:1018B0001F0E6B465F704B7F50277B439B18DF6882
:1018C0006B469F704B7F50277B439B18DB681F0A3A
:1018D0006B46DF70497F502359438918C9686B46AE
:1018E0008902890E1971C108CB006A46C31A5B07C9
:1018F000515C5B0F01229A4011420BD1304660438C
:10190000000C002E03D03146F0F77AFD0846281867
:10191000C0304079FEBD00000001002005492522AD
:101920004143090C5143401A80B2252800D3253881
:10193000C0B27047EB06000089084143880C401C88
:10194000704770B514460D46FFF712FC30C070BDED
:101950000021002804D0491C006889B20028FAD16F
:101960004805000C7047000070B5114A0123126849
:10197000834312689B00491E81249B184909491C16
:1019800089B272B615898D420ED31E885B88AD1957
:10199000ADB25B18AB4207D88000135A00245B1825
:1019A00013521089401A108162B6204670BD0000A3
:1019B0004806002030B400230C1E22D020339BB2F6
:1019C00093421AD30A68002A39D072B60388002BD2
:1019D00003D044689B00E3581A6000239380048876
:1019E000641CA5B205804468AD0062511268002AEB
:1019F000F4D162B60020086021E00C460968002995
:101A0000DCD1D11A0904114A49098918090C72B6A6
:101A100002888A420ED9511A8AB2511E89B20180B7
:101A2000436890001858002905D089005A580021B1
:101A3000116000E0002062B62060002802D030BCB7
:101A40000020704730BC86207047000000F8FFFF80
:101A500010B5CEB00024FF22419442944394053245
:101A6000214668464494F3F781FA6846047141A818
:101A70000290102009903790684602F0E6FC0120A1
:101A800002F0FDFC06E00146684602F0FDFC20463F
:101A900000F0DAFD0400F6D140A80288002A06D042
:101AA000202069460871684638A902F043FD4DAA16
:101AB00049A9684602F080FE0123102249A945A8E1
:101AC00001F0F2FF0A4C1022216845A88B31F3F790
:101AD00057FA002809D02068102245A98B30F3F767
:101AE0003FFA00210348F5F799FA4EB010BD000007
:101AF00050060020BD1406108068007B704700006F
:101B0000F0B585B00F460546002069468880A86874
:101B1000067B304600F072F80446E888B9888842AF
:101B200024D80E2C22D2601E022801D9072C0BD1FA
:101B3000284604AA03A902F075FE69468889098A25
:101B400088420CD800280AD015496000085A0106BE
:101B500009D580218843E988814207D11BE0694685
:101B60008880012403E0E988814214D204247006AD
:101B70000ED41E2E0CD0F888052102F064FEB86049
:101B8000031E0AD0684681882246304602F063FE72
:101B9000862005B0F0BD0020FBE78820F9E70000B3
:101BA00024F9051070B506468068047BB088FAF702
:101BB0003DFA054660061BD41E2C19D0162C06D003
:101BC000204600F01BF80E2803D3862070BDF18854
:101BD00006E041000848405AA988884200D20146E0
:101BE000B08802F030FEA860002803D1882070BDC4
:101BF0000020A860002070BD40F9051000B5102835
