:020000041004E6
:1000000000000120D1BE0610F19F0610FD9F0610D2
:10001000AA5555AA45554C420000000000000000BA
:1000200000000000000000000000000009A0061011
:100030000000000000000000235704100BA0061071
:10004000E357041023590410875A04103F68041022
:10005000837104108B730410E37304105375041040
:1000600015A00610877804106B7C0410637E0410C2
:1000700043A004107BA10410BBA304104FA50410DF
:100080008FA5041017A006105FA0061003A7041088
:100090004BA0061063AF041057B0041043A0061025
:1000A0003BA00610E7BC04100000000000000000A8
:1000B0000000000000000000000000000000000040
:1000C00010B5062B01DC002010BD14000278417829
:1000D0000906090C0A438178100004F009FAE0705F
:1000E000042020700F216170A07001212171062170
:1000F000617100F0A5FD10B5062B01DC002010BDDC
:100100001400017842781206120C1143080004F022
:10011000F3F9E070042020700F216170A0700121BC
:1001200021711D21617100F08BFD10B5062B01DCE2
:10013000002010BD140004F0F5F9A0710420207017
:100140000E216170A0700120E07010E010B5140065
:10015000062B01DC002010BD04F0F6F9A07104208C
:1001600020700E216170A0700120E07003202071CA
:100170000C206071072010BD38B500216C4621703D
:10018000092B01DC002032BD1400050028786978B5
:100190000906090C08436A46A97804F0DAF9A07147
:1001A000287869780906090C0843E071000A207272
:1001B000684600786072042020700E20607007206E
:1001C000A0700120E0702D2020710C2060710A20A9
:1001D00032BD10B5062B01DC002010BD140004F068
:1001E000C7F9A071042020700E216170A070012059
:1001F000E0706320BBE738B500216C4621800B2BF3
:1002000001DA002032BD140005002878697809065B
:10021000090C0843694604F0BBF9A0712878697895
:100220000906090C0843E071000A2072684600883C
:100230006072000AA072042020700E2060700820F6
:10024000A0700120E0707B2020710C2060710B20D9
:1002500032BD38B5092B01DA002032BD140005008B
:10026000A978E8780006000C014328786A7812061D
:10027000120C104304F090F9A071287869780906EF
:10028000090C0843E071000A2072042020700E203F
:1002900060700620A0700120E0707C2020710C208E
:1002A000E4E31FB500206C466946606088600F2B50
:1002B0002DDB140001A8801C009002AB01AA02A94A
:1002C000891C01A8401C04F06BF9A07168464079B4
:1002D000E071684640892072000A607268460079C1
:1002E000A07268460089E072000A20736846C088E0
:1002F0006073000AA073042020700E2060700C2030
:10030000A0700120E0702071102060710F2004B0F7
:1003100010BD10B590B0472B01DA002016E0140094
:10032000684604F04DF9A07140226946E01D04F0D2
:1003300022FA042020700E2060704420A07001205A
:10034000E0700220207110206071472010B010BDB5
:100350001CB50F2B01DA002016BD1400684604F00E
:100360001EFAA07108226946E01D04F004FA042078
:1003700020700E2060700C20A0700120E07003201F
:10038000207110200BE31CB50D2B01DA002016BDE7
:100390001400684604F04CFAA07106226946E01D7C
:1003A00004F0E9F9042020700E2060700A20A0708B
:1003B0000120E07009202071102000F0EFFC38B51A
:1003C00000216C462170092B01DC002032BD140095
:1003D0000500287869780906090C0843694604F085
:1003E00031FAA071287869780906090C0843E07190
:1003F000000A2072684600786072042020700E2087
:1004000060700720A0700120E0700520207114208A
:1004100060710A2032BD10B5062B01DC002010BD32
:10042000140004F025FAA071042020700E216170E0
:10043000A0700120E070207120209AE61CB50020F9
:10044000694648800870092B1ADD140000A8801C3A
:1004500004F020FAA07168464088E071000A20721A
:10046000684600786072042020700E2060700720BB
:10047000A0700120E07002202071202060710A200D
:1004800016BD1CB50F2B01DA002016BD14006846FE
:1004900004F01CFAA07108226946E01D04F06BF913
:1004A000042020700E2060700C20A0700120E070ED
:1004B000032072E210B5062B01DC002010BD1400F1
:1004C00004F009FAA071042020700E216170A07060
:1004D0000120E0700520207120204AE638B584B064
:1004E000062B01DC002024E014008178C27812067B
:1004F000120C1143057842781206120C1543827BC8
:100500000392427B0292C21D01928279009243794A
:100510000279280004F0EEF9A071042020700E2169
:100520006170A0700120E0700620207120206071B1
:10053000072005B030BD1CB51400002069460870C6
:10054000072B13DD684604F029FAA071684600788D
:10055000E071042020700E2060700520A070012042
:10056000E0700720207120206071082016BD10B5B2
:10057000062B01DC002010BD1400411C007804F0A3
:1005800063FBA071042020700E216170A070012017
:10059000E070082020712020EBE510B5062B01DC6F
:1005A000002010BD1400411C007804F053FBA07122
:1005B000042020700E216170A0700120E0700920DD
:1005C00020712020D5E510B5062B01DC002010BDE0
:1005D0001400007804F056FBA071042020700E2156
:1005E0006170A0700120E0700A2020712020C0E519
:1005F0001CB5062B01DC002016BD1400C278017961
:100600000906090C0A43417883781B061B0C194321
:10061000837900934379007804F08CFCA071042066
:1006200020700E216170A0700120E0700B2000F09E
:100630002AFD10B5062B01DC002010BD1400417806
:10064000007804F073FCA071042020700E2161700A
:10065000A0700120E0700C202071202089E5F8B501
:100660008AB0062B01DC002050E014000100CA7D96
:10067000087E0006000C0243684682844A7D887D1D
:100680000006000C0243CB7C087D0006000C0343EF
:100690004D7C887C0006000C0543CE7B087C000660
:1006A000000C0643487B8F7B3F063F0C38436F4668
:1006B00078848878CF783F063F0C38436F4638847B
:1006C00008784F783F063F0C38436F46BF8C07973A
:1006D00006920593049503966A46528C02920A7B11
:1006E00001928A1D00924B790A796946098C04F0BF
:1006F00000FCE070042020700F216170A0700120C8
:1007000020710D2060712020A07107200BB0F0BD7A
:1007100010B5062B01DC002010BD140004F011FC04
:10072000A071042020700E216170A0700120E07083
:10073000217120201DE51CB51400002069460870B9
:10074000072B13DD684604F095FDA071684600781C
:10075000E071042020700E2060700520A070012040
:10076000E0700F20207120206071082016BD10B5A8
:100770001400062B01DC002010BD04F082FDA071E6
:10078000042020700E216170A0700120E070102004
:1007900020712020EDE410B5062B01DC002010BDF7
:1007A0001400411C007804F070FDA071042020703A
:1007B0000E216170A0700120E070112020712020B6
:1007C000D7E410B5062B01DC002010BD1400411C3D
:1007D000007804F073FDA071042020700E21617078
:1007E000A0700120E070122020712020C1E4F8B533
:1007F00084B0062B01DC00203DE01400027B417B2D
:100800000906090C0A43857AC17A0906090C0D43C9
:10081000067A417A0906090C0E438379C1790906E3
:10082000090C0B43017947793F063F0C39436F466A
:10083000F9818178C7783F063F0C39436F46B9810B
:10084000017847783F063F0C394308000292019532
:1008500000966946CA89898904F077FBE070042014
:1008600020700F216170A070012020711320607131
:100870002020A071072005B0F0BD10B5062B01DCCB
:10088000002010BD140004F072FBA0710420207041
:100890000E216170A0700120E070142020712020D2
:1008A00067E43EB50E2B01DA00203EBD14000500C2
:1008B000287869780906090C0843694604F010FD98
:1008C000A071287869780906090C0843E071000ACC
:1008D0002072052269462000093003F04CFF0420F5
:1008E00020700E2060700B20A0700120E070152099
:1008F0002071202060710E203EBD10B5062B01DC5A
:10090000002010BD1400017842781206120C114329
:10091000080004F0E9FCE070042020700F216170F1
:10092000A07001202071162088E11FB5172B01DA75
:10093000002018E014006A460100103104F0DAFCCF
:10094000A07110226946E01D03F015FF04202070FD
:100950000E2060701420A0700120E070172020711C
:1009600020206071172004B010BD1CB50F2B01DAD8
:10097000002016BD1400684604F0C2FCA0710822D5
:100980006946E01D03F0F7FE042020700E20607021
:100990000C20A0700120E0701820207120206071D0
:1009A0000F2016BD38B5062B01DC002032BD140027
:1009B000827AC17A0906090C0A430578417809064A
:1009C000090C0D4303000C33811C280004F0CBFA02
:1009D000E070042020700F216170A0700120207150
:1009E0001920ABE238B5092B01DA002032BD140022
:1009F0000500287869780906090C0843A91C04F049
:100A000083FCA071287869780906090C0843E07115
:100A1000000A2072042020700E2060700620A07052
:100A20000120E0701A201FE038B5092B01DA002000
:100A300032BD14000500287869780906090C0843BE
:100A400004F071FCA071287869780906090C084344
:100A5000E071000A2072042020700E2060700620D1
:100A6000A0700120E0701B202071202060710920FF
:100A700032BD1CB50F2B01DA002016BD14006846EC
:100A800004F05FFCA07108226946E01D03F073FECC
:100A9000042020700E2060700C20A0700120E070F7
:100AA0001C207AE710B5062B01DC002010BD1400D5
:100AB000007804F04BFCA071042020700E216170BE
:100AC000A0700120E0701D2020712020FFF751FB55
:100AD00010B5062B01DC002010BD1400827841788F
:100AE000007804F039FCA071042020700E216170A0
:100AF000A0700120E0701E2020712020FFF739FB3C
:100B00001CB51400002069460880092B15DB6846D7
:100B100004F036FCA07168460088E071000A20727B
:100B2000042020700E2060700620A0700120E0706C
:100B30001F20207120206071092016BD38B5092BB7
:100B400001DA002032BD140005002A796879000618
:100B5000000C0243A978E8780006000C01432878CD
:100B60006B781B061B0C184304F081FAA0712878DF
:100B700069780906090C0843E071000A2072042014
:100B800020700E2060700620A0700120E0702220EE
:100B90006AE71CB50020694608600B2B1CDB1400BB
:100BA00000A8801C04F067FAA07168464088E071D4
:100BB000000A2072684600886072000AA072042051
:100BC00020700E2060700820A0700120E0702320AB
:100BD0002071202060710B2016BD10B5062B01DCA2
:100BE000002010BD14008178C2781206120C114347
:100BF000027843781B061B0C1A43100004F03FFADE
:100C0000A071042020700E216170A0700120E0709E
:100C1000242020712020FFF7ACFA10B51400062B19
:100C200001DC002010BD04F052FAE07004202070B6
:100C30000F216170A070012020712520607120209B
:100C4000A071072010BD10B5062B01DC002010BDDF
:100C5000140004F040FAE070042020700F2161704D
:100C6000A070012020712620E8E710B5062B01DCDA
:100C7000002010BD140003001733C21D411C007872
:100C800004F0D3F8A071042020700E216170A070D0
:100C90000120E070272020712020FFF76AFA10B5AC
:100CA000062B01DC002010BD1400411C007804F06C
:100CB000B8F8A071042020700E216170A07001208E
:100CC000E070282020712020FFF753FA10B514009F
:100CD000062B01DC002010BD04F0BFF8A071042039
:100CE00020700E216170A0700120E0702920207119
:100CF0002020FFF73EFA1CB514000020694608705A
:100D0000072B13DD684604F0A4F8A071684600784C
:100D1000E071042020700E2060700520A07001207A
:100D2000E0702A20207120206071082016BD1CB5BB
:100D30000D2B01DA002016BD14006A46411C007814
:100D400004F07FF8A07106226946E01D03F013FD50
:100D5000042020700E2060700A20A0700120E07036
:100D60002B2019E01CB50D2B01DA002016BD140054
:100D70006A46411C007804F068F8A07106226946B2
:100D8000E01D03F0F8FC042020700E2060700A20A3
:100D9000A0700120E0702C202071202060710D20B7
:100DA00016BD10B5062B01DC002010BD1400007824
:100DB00004F043F8A071042020700E216170A0702F
:100DC0000120E0702D2020712020FFF7D2F910B50E
:100DD000062B01DC002010BD1400017842781206B9
:100DE000120C1143080004F024F8A07104202070B4
:100DF0000E216170A0700120E0702E202071202053
:100E0000FFF7B7F91CB500206946486008600F2B52
:100E10002ADB14006B4600AA921C01A901A8801CC1
:100E200004F031F9A0716846C088E071000A2072B0
:100E3000684680886072000AA07268464088E07246
:100E4000000A2073684600886073000AA0730420BB
:100E500020700E2060700C20A0700120E0702F2008
:100E60002071202060710F2016BD38B500216C461E
:100E700021800A2B01DC002032BD140005002878F7
:100E800069780906090C08436A4600A9491C04F060
:100E900076F9A071287869780906090C0843E07191
:100EA000000A207268464078607268460078A07236
:100EB000042020700E2060700820A0700120E070D7
:100EC00030202071202060710B2032BD10B5062B20
:100ED00001DC002010BD140082784178007804F015
:100EE00052F9A071042020700E216170A0700120C1
:100EF000E070312020712020FFF73BF938B5062B38
:100F000001DC002032BD1400417982791206120CF6
:100F10001143057842781206120C154300910379AB
:100F2000C2788178280004F032F9E0700420207043
:100F30000F216170A070012020713220607120208B
:100F4000A071072032BD10B5062B01DC002010BDBA
:100F5000140082784178007804F020F9A071042010
:100F600020700E216170A0700120E070332020718C
:100F70002020FFF7FEF810B5062B01DC002010BD85
:100F80001400C37882784178007804F00BF9A071DE
:100F9000042020700E216170A0700120E0703420C8
:100FA00020712020FFF7E5F810B5062B01DC0020AA
:100FB00010BD1400411C007803F09FFEA0710420B6
:100FC00020700E216170A0700120E070352020712A
:100FD0002020FFF7CEF818B58DB000210CAC2170A1
:100FE000072B01DC002035E01400417882781206DE
:100FF000120C11430CAA0B92027E0A92C27D099236
:10100000827D0892427D0792027D069213228256CB
:101010000592827C049202000C320392C27A029200
:10102000827A0192427A0092831DC21C007803F0FA
:101030003BFEA0710CA80078E071042020700E2007
:1010400060700520A0700120E07036202071202003
:10105000607108200EB010BD1CB5062B01DC00200D
:1010600016BD1400011D0091C37882784178007884
:1010700003F0ADFDA071042020700E216170A070FE
:101080000120E0703720207120206071072016BDFC
:101090001CB5062B01DC002016BD1400011D0091BB
:1010A000C37882784178007803F096FDA07104201F
:1010B00020700E216170A0700120E0703820E2E7FE
:1010C00078B5BFB0062B01DC002028E00024030027
:1010D00010E06846062161434018A10059188D7838
:1010E0000570CD780E793606360C35434580497942
:1010F0000171641C59788C42EBDB14006A46187845
:1011000003F0FFFDA071042020700E216170A0701B
:101110000120E0703920207120206071072040B04C
:1011200070BD1CB51400002069460880092B15DB32
:10113000684603F0EAFDA07168460088E071000A85
:101140002072042020700E2060700620A070012004
:10115000E0703A20207120206071092016BD1CB576
:101160001400002069460870072B13DD684603F061
:10117000D0FDA07168460078E071042020700E2038
:1011800060700520A0700120E0703B2020712020BD
:101190006071082016BD10B5062B01DC002010BDC3
:1011A0001400007803F0B9FDA071042020700E2116
:1011B0006170A0700120E0703C2020712020FEF7BB
:1011C000D8FF10B51400062B01DC002010BD03F081
:1011D000A8FDA071042020700E216170A070012074
:1011E000E0703D2020712020FEF7C3FFF4B5C0B0B1
:1011F000062B01DC00203AE0002100230022847845
:10120000D440E40700D55B1C521C082AF7D301AA7E
:10121000009315E006244C4313198D006D184519F1
:10122000EE781E702E796F793F063F0C3E43971C77
:101230003E53AC79EE793606360C34439C80491C1B
:10124000009B9942E6DB409C01AB827841780078B4
:1012500003F074FDA071042020700E216170A07055
:101260000120E0704120207120206071072041B0F2
:10127000F0BD10B5062B01DC002010BD1400037971
:1012800041790906090C0B438278C1780906090CDB
:101290000A434178007803F055FDA07104202070C6
:1012A0000E216170A0700120E0704220207120208A
:1012B000FEF75FFFF4B5C2B0062B01DC00205AE058
:1012C0000026002100220125437AD3402B4000D084
:1012D000491C521C082AF7D334E03301C218947A0F
:1012E000D77A3F063F0C3C4302AFFB181C80147BAF
:1012F000577B3F063F0C3C435C80947BD77B3F068B
:101300003F0C3C439C80147C577C3F063F0C3C4385
:10131000DC80947CD77C3F063F0C3C431C81147DD1
:10132000577D3F063F0C3C435C81947DD77D3F0653
:101330003F0C3C439C81147E577E3F063F0C3C4350
:10134000DC81761C8E42C8DB429C02A90191417A65
:101350000091C31C82784178007803F0E6FCE070CD
:10136000042020700F216170A070257143206071EE
:101370002020A071072043B0F0BD1CB500206946B5
:101380000880082B18DD140000A8401C04F008F8A1
:10139000A07168464078E0716846007820720420A9
:1013A00020700E2060700620A0700120E0704B209D
:1013B000207120206071092016BD1CB500206946EF
:1013C00008600B2B1CDB140000A8801C03F0F4FF4A
:1013D000A07100980014E071000A2072009800B219
:1013E0006072000AA072042020700E206070082035
:1013F000A0700120E0704C202071202060710B2033
:1014000016BD10B5062B01DC002010BD140081783C
:10141000C278120612141143027843781B061B147B
:101420001A4309B210B203F0D5FFA0710420207056
:101430000E216170A0700120E0704D2020712020ED
:10144000FEF797FE10B5062B01DC002010BD14003E
:10145000C279411C007803F004FDA07104202070C3
:101460000E216170A0700120E0704E2020712020BC
:10147000FEF77FFE38B5002568460580092B01DAA6
:10148000002032BD140003F0B7FFA0716846008849
:10149000E071000A2072042020700E206070062087
:1014A000A0700120E0702571FC20FFF7DFFA18B56D
:1014B0008BB0002008AC2060694608856C46E0616E
:1014C0004862152B50DB140009A80690801C05907B
:1014D00007A80490401C039007A8801C029007A84E
:1014E000C01C01900AA8009008AB08AA521C08A9C9
:1014F000891C08A8C01C03F08DFFA07108A8C01C9F
:101500000078E07108A8801C0078207208A8401CB0
:101510000078607208A80078A0726846008DE072BA
:10152000000A20736846C07F60736846807FA0739E
:101530006846407FE0736846007F20746846C08C30
:101540006074000AA0746846808CE074000A2075FC
:10155000042020700E2060701220A0700120E07026
:101560002071FC20607115200CB010BD10B5062B49
:1015700001DC002010BD1400821C4178007803F0CB
:10158000C5FFA071042020700E216170A0700120A1
:10159000E0700C202071FC20FEF7EBFD50B5C1B0CF
:1015A0001E0000216B461970072E0FDB140001AAE4
:1015B0006946007803F0AEFFA071072E06DD68468D
:1015C0000078E07102460830864201D2002014E023
:1015D00001A92000083003F0CEF8E079801C042136
:1015E00021700E216170C11CA1700121E1700D21DB
:1015F0002171FC216171801D80B241B050BD10B5D8
:10160000062B01DC002010BD14004178007803F0A7
:1016100085FFA071042020700E216170A070012050
:10162000E0700F202071FC20FEF7A3FD1CB5002008
:1016300000900B2B15DB1400684603F073FFA071BC
:10164000E11D009803F078FF042020700E206070E8
:101650000820A0700120E07014202071FC2060712F
:101660000B2016BD10B5062B01DC002010BD1400A8
:101670004178007803F06AFFA071042020700E21E9
:101680006170A0700120E07015202071FC20FEF731
:1016900070FD10B51400062B01DC002010BD03F016
:1016A000AFFFA071042020700E216170A070012096
:1016B000E07016202071FC20FEF75BFD10B586B0AF
:1016C0001F2B01DA00201EE0140002AA69460078F0
:1016D00003F0ACFFA07108226946E01D03F04BF84F
:1016E000102202A920000F3003F045F804202070DA
:1016F0000E2060701C20A0700120E0701720207167
:10170000FC2060711F2006B010BD10B5062B01DC57
:10171000002010BD1400017842781206120C11430B
:10172000080003F0EBFFA071042020700E2161700F
:10173000A0700120E07018202071FC20FEF719FD38
:1017400010B5062B01DC002010BD140003F0DEFFF5
:1017500003F0E8FFA071042020700E216170A070DA
:101760000120E0701A202071FC20FEF702FD10B568
:101770001400062B01DC002010BD03F043FEA07115
:10178000042020700E216170A0700120E0702020E4
:101790002071FC20FEF7EDFC1CB5062B01DC0020BF
:1017A00016BD1400C37801790906090C0B43417971
:1017B000009182784178007803F068FEE0700420A0
:1017C00020700F216170A070012020712B206071AA
:1017D000FC20A071072016BD10B5062B01DC0020EF
:1017E00010BD1400417882781206120C114303795F
:1017F000C278007803F0A2FFA071042020700E21AF
:101800006170A0700120E07030202071FC20FEF794
:10181000B0FC18B585B000210491039102910191AB
:10182000172B01DA002029E0140001A9009102AB76
:1018300003AA04A9007803F085FFA071E11D0498B4
:1018400003F07AFE21000B31039803F075FE2100AE
:101850000F31029803F070FE21001331019803F05C
:101860006BFE042020700E2060701420A0700120F8
:10187000E07031202071FC206071172006B010BD8F
:101880001CB5002000900B2B15DB140068460020CF
:10189000C046A071E11D009803F04EFE04202070A8
:1018A0000E2060700820A0700120E07032202071AE
:1018B000FC2060710B2016BD10B5062B01DC00204A
:1018C00010BD140003F022FF0020C046A0710420C8
:1018D00020700E216170A0700120E0703320207113
:1018E000FC20FEF746FC10B5062B01DC002010BDE5
:1018F0001400017842781206120C1143080003F01C
:1019000027FFA071042020700E216170A0700120BB
:10191000E07034202071FC20FEF72BFC38B5050068
:10192000062B01DC002032BD140003F0EFFE6A1D1F
:10193000297903F012FFA071042020700E2161703C
:10194000A0700120E0703520A7E0D8B5C1B01E001E
:1019500000216B461970072E12DB1400070003F0FC
:10196000D5FE01AB6A46397903F010FFA071072E4E
:1019700006DD68460078E07102460830864201D2F2
:10198000002014E001A92000083002F0F4FEE07904
:10199000801C042121700E216170C11CA1700121E5
:1019A000E17036212171FC216171801D80B242B04D
:1019B000D0BD10B5062B01DC002010BD140000784E
:1019C00003F007FFA071042020700E216170A07049
:1019D0000120E07085202071FC20FEF7CAFB38B59D
:1019E00084B00500062B01DC00201DE01400E81D7A
:1019F00003F08CFE0390A879029068790190287911
:101A00000090EB78AA786978287803F0EBFEA07153
:101A1000042020700E216170A0700120E0708620EB
:101A20002071FC206071072005B030BD10B5062B79
:101A300001DC002010BD1400027841780906090C71
:101A40000A438178100003F013FFA0710420207076
:101A50000E216170A0700120E07087202071FC20B1
:101A6000FEF787FB38B50500062B01DC002032BDF0
:101A70001400A81C03F04AFE010028786A781206B8
:101A8000120C104303F0FEFEA071042020700E2102
:101A90006170A0700120E07088202071FC206071CE
:101AA000072032BD10B5062B01DC002010BD14004C
:101AB000027841780906090C0A438178100003F086
:101AC000EDFEA071042020700E216170A070012035
:101AD000E07089202071FC20FEF74BFB18B585B023
:101AE00000216C462182E1600D2B01DA002029E003
:101AF000140003A90291891C019104A90091C378E3
:101B000082784178007803F0D3FEA0716846008A9D
:101B1000E071000A20726846C0896072000AA072F3
:101B200068468089E072000A2073042020700E202D
:101B300060700A20A0700120E0708A202071FC20D3
:101B400060710D2006B010BD10B5062B01DC002021
:101B500010BD1400017842781206120C11430800DF
:101B600003F0D6FEE070042020700F216170A07099
:101B7000012020718D206071FC20FFF761F81CB5F9
:101B800000216C462180082B01DC002016BD1400CA
:101B9000037841780906090C0B436A4600A9491CE1
:101BA000180003F0B9FEA07168464078E0716846FD
:101BB00000782072042020700E2060700620A07033
:101BC0000120E07090202071FC206071092016BD7A
:101BD00010B5062B01DC002010BD140001784278FE
:101BE0001206120C1143080003F09CFEA0710420A1
:101BF00020700E216170A0700120E0709120207192
:101C0000FC20FEF7B6FA10B5062B01DC002010BD53
:101C10001400027841780906090C0A438178100003
:101C200003F08EFEE070042020700F216170A07020
:101C30000120207193206071FC20FFF701F810B59E
:101C40001400062B01DC002010BD03F07DFEA07106
:101C5000042020700E216170A0700120E07094209B
:101C60002071FC20FEF785FA10B5062B01DC002060
:101C700010BD1400017842781206120C11430800BE
:101C800003F066FEA071042020700E216170A07028
:101C90000120E07095202071FC20FEF76AFA10B553
:101CA000062B01DC002010BD1400821C4178007856
:101CB00003F079F9E070042020700F216170A070AA
:101CC000012020719C206071FC20FEF7B9FF10B547
:101CD000062B01DC002010BD1400007803F06FF922
:101CE000A071042020700E216170A0700120E070AE
:101CF0009D202071FC20FEF73CFAF8B584B0062B3D
:101D000001DC00203DE01400027B417B0906090C48
:101D10000A43857AC17A0906090C0D43067A417A8D
:101D20000906090C0E438379C1790906090C0B4396
:101D3000017947793F063F0C39436F46F981817835
:101D4000C7783F063F0C39436F46B9810178477821
:101D50003F063F0C39430800029201950096694600
:101D6000CA89898903F02FF9E070042020700F21BF
:101D70006170A070012020719E206071FC20A07114
:101D8000072005B0F0BD10B5062B01DC002010BD0A
:101D90001400027841780906090C0A438178100082
:101DA00003F023F9E070042020700F216170A0700F
:101DB000012020719F206071FC20FEF741FF1CB5BF
:101DC0000D2B01DA002016BD1400694603F0C4FD96
:101DD000A07106226946E01D02F0CDFC04202070AF
:101DE0000E2060700A20A0700120E070A0202071F9
:101DF000FC20FEF7D3FFF8B5C0B01F0000246B46EF
:101E00001C70072F28DB150001AB6A46417800786B
:101E100003F0A6FDA871072F1EDD68460078E87163
:101E2000022606E00622491C093002F0A4FCB61D79
:101E3000641C68460078844210DAF11D8F420BD38F
:101E4000E000011B681801AA51180A780272761C7A
:101E500033000C339F42E5DA00200DE004202870A7
:101E60000E206870F01CA8700120E870A320287173
:101E7000FC206871B61DB0B241B0F0BD10B5062BA4
:101E800001DC002010BD1400411C007803F072FD3D
:101E9000A071042020700E216170A0700120E070FC
:101EA000A4202071FC20FEF764F910B5062B01DC9C
:101EB000002010BD1400027841780906090C0A437D
:101EC0008178100003F0FFF8A071042020700E212B
:101ED0006170A0700120E070A5202071FC20FEF749
:101EE00048F910B5062B01DC002010BD1400027863
:101EF00041780906090C0A438178100003F0DFF8E5
:101F0000A071042020700E216170A0700120E0708B
:101F1000A6202071FC20FEF72CF938B588B00021EE
:101F20006C46A180202B01DA00202CE01400050073
:101F300004A8009001AB02AA01A9491C287803F06B
:101F400029FDA07168464079E071062202A92000AF
:101F5000083002F010FC2878A07368460079E0731E
:101F6000102204A92000103002F005FC042020708B
:101F70000E2060701D20A0700120E070A72020714D
:101F8000FC206071202009B030BD1CB5062B01DC9F
:101F9000002016BD140001000A310191417A009120
:101FA000037A821C4178007803F0FEFCA0710420C3
:101FB00020700E216170A0700120E070A8202071B7
:101FC000FC20FFF762F810B5062B01DC002010BDE5
:101FD0001400411C007803F0FBFCA0710420207069
:101FE0000E216170A0700120E070AA202071FC20F9
:101FF000FEF7BFF878B58BB0062B01DC002036E089
:1020000014000500083003F081FB0600281D03F0D2
:102010007DFBAA78E9780906090C0A43A97E0A9192
:10202000697E0991297E0891E97D0791A97D069134
:10203000152169560591297D049129000E310391DE
:10204000697B0291297B01910096030069782878C9
:1020500003F0C8FCA071042020700E216170A070F4
:102060000120E070AB202071FC20607107200CB0D3
:1020700070BD78B5BFB0062B01DC002028E000243D
:10208000030010E06846062161434018A10059187A
:102090008D780570CD780E793606360C354345803F
:1020A00049790171641C59788C42EBDB14006A4653
:1020B000187803F0BEFCA071042020700E2161701E
:1020C000A0700120E070AC202071FC20607107201E
:1020D00040B070BD10B5062B01DC002010BD14000F
:1020E000C31C82784178007802F0C0FDA071042002
:1020F00020700E216170A0700120E070AD20207171
:10210000FC20FEF736F810B5062B01DC002010BDD0
:102110001400C31C82784178007802F0ACFDA071F5
:10212000042020700E216170A0700120E070AE20AC
:102130002071FC20FEF71DF81CB5062B01DC0020E9
:1021400016BD14008179C2791206120C114302796E
:1021500043791B061B0C1A4301910092C3788278C5
:102160004178007802F007FFA071042020700E2152
:102170006170A0700120E070AF202071FC20FEF79C
:1021800084FFF8B584B0062B01DC002035E0140094
:10219000C27A017B0906090C0A43457A817A09064D
:1021A000090C0D43C679017A0906090C0E434379DF
:1021B00081790906090C0B43C17807793F063F0C6A
:1021C00039436F46B981417887783F063F0C3943E0
:1021D0000292019500966A469289007802F0D5FE37
:1021E000A071042020700E216170A0700120E070A9
:1021F000B0202071FC206071072005B0F0BD10B543
:10220000062B01DC002010BD14000379417909067A
:10221000090C0B438278C1780906090C0A434178FE
:10222000007802F0C4FEA071042020700E216170BD
:10223000A0700120E070B1202071FC20FDF799FF13
:1022400010B5062B01DC002010BD1400821C417863
:10225000007802F0B0FEA071042020700E216170A1
:10226000A0700120E070B2202071FC20FDF781FFFA
:1022700078B5BFB01600072B01DA002024E0002457
:1022800005000CE0E000011B684640186918CA7898
:1022900002700622091D401C02F06DFA641CAA7827
:1022A0009442EFDB6B466978287803F0C6FBB07187
:1022B000042030700E217170B0700120F070B320D6
:1022C0003071FC207071072040B070BD10B5062B36
:1022D00001DC002010BD1400007803F0C1FBA071E8
:1022E000042020700E216170A0700120E070B420E5
:1022F0002071FC20FDF73DFF10B51400062B01DC1A
:10230000002010BD03F0BBFBA071042020700E2143
:102310006170A0700120E0702071FD20FDF729FFA1
:10232000F0B587B0070038780125012801D10320D6
:1023300004E0022801D1112000E0012038180290A9
:1023400000206C46A080092B28DB39780224012963
:1023500001D1022002E0022900D110201600020063
:10236000791C03A802F007FA01A8009002984378AC
:10237000027803A9387803F0B3FBB071684680880F
:10238000F071000A3072042030700E207070062048
:10239000B070F5703471FD207071092007B0F0BD88
:1023A0001CB500216C462180092B01DA002016BDE6
:1023B00014008178C2781206120C11430378427817
:1023C0001206120C13436A46180003F0CBFBA071EF
:1023D00068460088E071000A2072042020700E20F8
:1023E00060700620A0700120E07003202071FD20A5
:1023F0006071092016BD78B58BB00400A078012863
:1024000001D1052004E0022801D1132000E00320BF
:10241000251800206E463083092B39DBA17801296D
:1024200001D1022002E0022900D110201600020092
:10243000E11C07A802F09FF92B7868780006000CD1
:102440000343207861780906090C084306A9059121
:10245000A97904916979039129790291E978019127
:10246000A978009107AAA17803F09DFBB071684696
:10247000008BF071000A3072042030700E217170F0
:102480000621B1700121F1703071FD2070710920B9
:102490000CB070BDF8B58EB00400A07805260128F8
:1024A00002D1651D052007E0022803D12500133560
:1024B000132001E0E51C0320A978EF783F063F0CCC
:1024C000394340182018001D099000206F463884B9
:1024D000092B4ADBA178012901D1022002E002295F
:1024E00000D1102017000200E11C0AA802F043F9F5
:1024F000A878E9780906090C08432B786978090659
:10250000090C0B43217862781206120C11436A46BB
:10251000518408A907910999097906910999C978FF
:102520000591099989780491099949780391099944
:1025300009780291291D019100900AAAA1786846A4
:10254000408C03F005FCB8716846008CF871000AF5
:102550003872042038700E2078700620B870012080
:10256000F8703E71FD20787109200FB0F0BD38B5CC
:10257000062B01DC002032BD1400027941790906E6
:10258000090C0A438178C3781B061B0C1943057894
:1025900043781B061B0C1D43831D280003F0ECFC35
:1025A000A071042020700E216170A0700120E070E5
:1025B00006202071FD20FFF772FA10B5062B01DC12
:1025C000002010BD1400017842781206120C11434D
:1025D000080003F067FCA071042020700E216170D8
:1025E000A0700120E07007202071FD20FDF7C1FDE3
:1025F00010B5062B01DC002010BD140001784278D4
:102600001206120C1143080003F05DFCA0710420B7
:1026100020700E216170A0700120E07008202071F0
:10262000FD20FDF7A6FD10B5062B01DC002010BD36
:102630001400017842781206120C1143080003F0CE
:1026400052FCA071042020700E216170A070012046
:10265000E07009202071FD20FDF78BFD10B5062BE1
:1026600001DC002010BD140003F050F804F012F853
:10267000A071042020700E216170A0700120E07014
:102680000A202071FD20FDF774FD10B5062B01DC3A
:10269000002010BD1400017842781206120C11437C
:1026A000080004F003F8E070042020700F2161702E
:1026B000A070012020710B206071FD20FEF7C0FA90
:1026C0007CB5062B01DC002076BD14000500AB793B
:1026D000E8790006000C03432A7968790006000CAB
:1026E0000243A978E8780006000C014328786E7848
:1026F0003606360C30430835009503F0DBFFE070FA
:10270000042020700F216170A07001202071102022
:102710000AE210B5062B01DC002010BD140002787F
:1027200041780906090C0A438178100003F0D0FFB4
:10273000E070042020700F216170A07001202071D2
:1027400011206071FD20FEF77BFA10B5062B01DC2D
:10275000002010BD1400017842781206120C1143BB
:10276000080003F0BDFFE070042020700F216170AD
:10277000A0700120207112206071FD20FEF760FA28
:1027800038B584B0062B01DC002026E00500A878CF
:10279000012801D1022004E0022801D1102000E02C
:1027A000002014000200E91C684601F0E4FF2878CC
:1027B00069780906090C08436A46A97803F094FF72
:1027C000E070042020700F216170A0700120207142
:1027D00013206071FD20A071072005B030BD38B511
:1027E000062B01DC002032BD140002794179090674
:1027F000090C0A438178C3781B061B0C1943037824
:1028000045782D062D0C2B43180003F07EFFE07059
:10281000042020700F216170A0700120207114200D
:102820006071FD20FEF78CFB38B5062B01DC002023
:1028300032BD1400027941790906090C0A438178F6
:10284000C3781B061B0C1943037845782D062D0C05
:102850002B43180003F063FFE070042020700F2169
:102860006170A0700120207115206071FD20FEF7BD
:1028700067FB30B585B0062B01DC002031E0040099
:10288000A079012801D1022004E0022801D1102002
:1028900000E0002015000200E11D01A801F06BFF1F
:1028A000227960790006000C0243A178E0780006E6
:1028B000000C0143207863781B061B0C184301AB06
:1028C0000093A37903F035FFE870042028700F21EE
:1028D0006970A8700120287116206871FD20A87108
:1028E000072005B030BD38B5062B01DC002032BD15
:1028F0001400027941790906090C0A438178C378EA
:102900001B061B0C1943037845782D062D0C2B4311
:10291000180003F027FFE070042020700F21617081
:10292000A0700120207117206071FD20FEF708FBC8
:1029300010B5062B01DC002010BD14008178C27890
:102940001206120C1143027843781B061B0C1A4323
:10295000100003F00DFFE070042020700F21617063
:10296000A0700120207118206071FD20FEF768F929
:1029700030B585B0062B01DC002031E00400A079E1
:10298000012801D1022004E0022801D1102000E03A
:10299000002015000200E11D01A801F0ECFE2279E3
:1029A00060790006000C0243A178E0780006000C74
:1029B0000143207863781B061B0C184301AB00937E
:1029C000A37903F0DDFEE870042028700F21697000
:1029D000A8700120287119206871FD20A8710720B6
:1029E00005B030BD38B5062B01DC002032BD140027
:1029F000027941790906090C0A438178C3781B06DC
:102A00001B0C1943037845782D062D0C2B43180019
:102A100003F0CFFEE070042020700F216170A070E1
:102A2000012020711A206071FD20FEF789FA70B52F
:102A3000C0B0062B01DC002026E0002109E04B009D
:102A4000C518EC782E793606360C34436D46EC52B8
:102A5000491C83789942F2DB140003784178090617
:102A6000090C0B436A468178180003F0AAFEE07057
:102A7000042020700F216170A070012020711B20A4
:102A80006071FD20A071072040B070BD38B5062BE5
:102A900001DC002032BD1400027941790906090CDD
:102AA0000A438178C3781B061B0C194305784378C9
:102AB0001B061B0C1D43831D280003F054FCE07013
:102AC000042020700F216170A070012020711C2053
:102AD0006071FD20FEF734FA7CB5062B01DC002086
:102AE00076BD14000500AB79E8790006000C0343BD
:102AF0002A7968790006000C0243A978E878000674
:102B0000000C014328786E783606360C30430835C1
:102B1000009503F0D4FBE070042020700F21617059
:102B2000A070012020711D206071FD20A071072080
:102B300076BD7CB5062B01DC002076BD14000500B7
:102B4000AB79E8790006000C03432A79687900061E
:102B5000000C0243A978E8780006000C01432878AD
:102B60006E783606360C30430835009503F0D1FBFD
:102B7000E070042020700F216170A070012020718E
:102B80001E20D1E738B5062B01DC002032BD140031
:102B9000027941790906090C0A438178C3781B063A
:102BA0001B0C1943057843781B061B0C1D43831D22
:102BB000280003F016FEA071042020700E21617021
:102BC000A0700120E07023202071FD20FEF767FF38
:102BD00038B5062B01DC002032BD140002794179A2
:102BE0000906090C0A438178C3781B061B0C19439C
:102BF000057843781B061B0C1D43831D280003F03A
:102C0000FCFDA071042020700E216170A0700120D5
:102C1000E07024202071FD20FEF741FF10B5062B47
:102C200001DC002010BD1400017842781206120C5D
:102C30001143080003F0EDFDA071042020700E2167
:102C40006170A0700120E07025202071FD20FDF74B
:102C500090FA10B5062B01DC002010BD140002789C
:102C600041780906090C0A438178100003F0B4F991
:102C7000A071042020700E216170A0700120E0700E
:102C800028202071FD20FDF774FAD8B5C3B01E00CE
:102C900000216B469960062E2EDD140002794179E1
:102CA0000906090C0A438178C3781B061B0C1943DB
:102CB000037847783F063F0C3B43180003AB019372
:102CC00002AB00939B1C03F012F9A071092E13DBD9
:102CD00068464089E071000A20720B2E0CDB6846C2
:102CE00000896072000AA072607AA17A0906090C54
:102CF00008430B30864201D200201DE0627AA07AA0
:102D00000006000C024303A920000B3001F033FD44
:102D1000607AA17A0906090C0843401D042121703C
:102D20000E216170C11CA1700121E1702A21217165
:102D3000FD216171801D80B244B0D0BD10B5062B5D
:102D400001DC002010BD1400027841780906090C4E
:102D50000A438178100003F079F9A07104202070F3
:102D60000E216170A0700120E0702E202071FD20E6
:102D7000FDF7FFF938B5062B01DC002032BD140049
:102D8000437981790906090C0B438178C2781206D0
:102D9000120C1143057842781206120C1543C21D1D
:102DA00000920279280003F038FDA0710420207001
:102DB0000E216170A0700120E0702F202071FD2095
:102DC000FEF76DFE10B5062B01DC002010BD1400CF
:102DD000027841780906090C0A438178100003F053
:102DE000F1F9E070042020700F216170A0700120C3
:102DF000207131206071FD20FDF722FF7FB5062B89
:102E000001DC00202BE014000200137A507A000647
:102E1000000C03439579D0790006000C05439178A6
:102E2000D0780006000C0143107856783606360C30
:102E3000304316000A3602960193009553791279B1
:102E400003F04EF9E070042020700F216170A07033
:102E50000120207133206071FD20A071072004B093
:102E600070BD58B5C4B01E0000216B4699819960B1
:102E7000072E2EDB1400010008784A781206120C87
:102E8000104304AA019202AA009202AB9B1C03AA5F
:102E9000897803F0FCF9A071092E1ADB6846808955
:102EA000E071000A20720B2E13DB684640896072C5
:102EB000000AA0720D2E0CDB68460089E072000A41
:102EC0002073E07A217B0906090C08430D30864205
:102ED00001D200201DE0E27A207B0006000C0243B4
:102EE00004A920000D3001F046FCE07A217B0906A0
:102EF000090C0843C01D042121700E216170C11C02
:102F0000A1700121E17035212171FD216171801DC8
:102F100080B245B050BDF8B5062B01DC0020F2BDF3
:102F20001400067A417A0906090C0E438379C179A7
:102F30000906090C0B43027941790906090C0A4379
:102F40008178C5782D062D0C2943057847783F06F2
:102F50003F0C3D432800009603F065FCE070042020
:102F600020700F216170A07001202071812060719C
:102F7000FD20A0710720F2BDF8B586B0062B01DC5C
:102F8000002041E0140001000A7B487B0006000C91
:102F900002438D7AC87A0006000C05430E7A487AFF
:102FA0000006000C06438B79C8790006000C034329
:102FB00008794F793F063F0C38436F46F88288788E
:102FC000CF783F063F0C38436F46B88208784F7879
:102FD0003F063F0C3843CF7B0497897B03910292D5
:102FE000019500966946CA8A898A02F002F8A071A2
:102FF000042020700E216170A0700120E0708220FA
:103000002071FD206071072007B0F0BDFEB5062BD2
:1030100001DC0020FEBD140005002E7A687A00064F
:10302000000C0643AB79E8790006000C03432A79CB
:1030300068790006000C0243A978E8780006000CC5
:10304000014328786F783F063F0C3843AD7A0195ED
:10305000009603F03DFCE070042020700F216170A9
:10306000A0700120207183206071FD20A0710720D5
:10307000FEBDFEB5062B01DC0020FEBD14000100E4
:103080004D7A887A0006000C0543CE79087A00064E
:10309000000C06434B7988790006000C0343CA787C
:1030A00008790006000C024308784F783F063F0C71
:1030B0003843CF7A029701950096897803F039FC5E
:1030C000A071042020700E216170A0700120E070BA
:1030D00084202071FD2060710720FEBD3EB50021D7
:1030E0006C46A180092B01DA00203EBD14000300CC
:1030F0001A7958790006000C02439978D8780006AE
:10310000000C014318785D782D062D0C284301AD85
:1031100000959B7902F07EF8A07168468088E07186
:10312000000A2072042020700E2060700620A0701B
:103130000120E07085202071FD20607109203EBDD6
:1031400010B5062B01DC002010BD14008178C27878
:103150001206120C1143027843781B061B0C1A430B
:10316000100002F05DF8E070042020700F21617003
:10317000A0700120207186206071FD20FDF760FDA8
:1031800038B5062B01DC002032BD140002794179EC
:103190000906090C0A438178C3781B061B0C1943E6
:1031A000057843781B061B0C1D43831D280003F084
:1031B0001FFCA071042020700E216170A0700120FE
:1031C000E07087202071FD20FEF769FC70B5062BAA
:1031D00001DC002070BD14008379C1790906090C57
:1031E0000B43027941790906090C0A438178C578B5
:1031F0002D062D0C2943057846783606360C3543C6
:10320000280002F059F9A071042020700E2161708D
:10321000A0700120E07000202071FE206071072066
:1032200070BD38B5062B01DC002032BD14000279D8
:1032300041790906090C0A438178C3781B061B0CE7
:103240001943037845782D062D0C2B43180002F006
:1032500037F9A071042020700E216170A070012048
:10326000E0702071FE20FEF71AFC10B5062B01DC81
:10327000002010BD14008178C2781206120C114390
:10328000037842781206120C13430279180002F0F8
:103290001BF9A071042020700E216170A070012024
:1032A000E07002202071FE20FCF763FF10B5062BB2
:1032B00001DC002010BD1400007802F009F9A071B3
:1032C000042020700E216170A0700120E0700320A6
:1032D0002071FE20FCF74DFF1FB5002003900290E7
:1032E0006C4620800190152B26DB140001AB6A464A
:1032F00002A903A802F0FBF8A071E11D039802F0F7
:103300001BF921000B31029802F016F9684600887B
:10331000E073000A207421001131019802F00CF9C9
:10332000042020700E2161701221A1700121E17032
:103330002071FE206071152004B010BD78B5C1B0B9
:1033400004000D001600280002F0C2FB6846C4709D
:1033500005712D0A457186710421017005224270A4
:1033600081700022072100F0BDFE00B5C1B06B46A0
:10337000D8701971090A59719A71042018700821BE
:1033800059709870012201F0ADF818B5C1B06C46C3
:10339000E0702171090A6171A271E3711B0A237245
:1033A00044A800886072000AA072042020700C20DB
:1033B00060700820A07002220B2101F067F800B5B0
:1033C000C1B06946C8700420087010204870012000
:1033D00088700522042101F086F8F0B5C1B00B0019
:1033E00000216C46E070002506000CE0A8002218C1
:1033F0001F5A17713F0A57719F1C385A9071000A63
:10340000D071091D6D1CB542F0DB04202070132023
:103410006070491CA1700622C9B2C91C89B26846F5
:1034200003F0FAFC41B0F0BD00B5C1B06A46D070FF
:103430001171090A5171042010703020507003205E
:1034400090700722062101F04EF800B5C1B0694620
:10345000C870000A087104200870572048700220C4
:1034600088700022D243052101F03DF800B5844662
:10347000FFB086B060466946887182200870FF20E0
:103480004870032088700020C87001220A714871BA
:103490000822072102E1F6B5FFB086B01E00929D1A
:1034A000939F6C46A071E11D859802F045F82100BC
:1034B0000B31869802F040F821000F31300002F005
:1034C0003BF8210013318C9802F036F821001731B7
:1034D0008D9802F031F821001B318E9802F02CF803
:1034E00021001F318F9802F027F821002331909896
:1034F00002F022F821002731919802F01DF82B20CC
:1035000025542A00390020002C3001F034F98220A3
:103510002070FF20607028002830A070290008006B
:1035200028300004000EE07003202071002060713C
:103530000022D2432C3189B2684603F06DFC7FB083
:1035400008B0F0BD18B5FFB086B0030010006C469F
:10355000A371E1712100083101F0EEFF822020709B
:10356000FF2060700820A0700020E070042121710D
:1035700060710022D2430C2154E218B5FFB086B02E
:103580000B0011006C46A071E37106222000083088
:1035900001F0F1F882202070FF2060700A20A070F6
:1035A0000020E0700521217138E230B5FFB086B00F
:1035B0000D0011006C46A071E5712A002000083052
:1035C00001F0D9F882202070FF206070281DA070C3
:1035D00029000004000EE0700620207100206071B8
:1035E0000022D243083189B294E300B58446FFB08B
:1035F00086B0604669468871000AC87182200870EA
:10360000FF204870042088700020C87007220A71CB
:1036100048710022D24340E000B5FFB086B0684652
:1036200082210170FF214170022181700021C1704F
:103630000171042141710922062130E000B5844660
:10364000FFB086B060466B469871000AD871197257
:103650005A7282201870FF2058700620987000203F
:10366000D87001201871042058710A220A2115E02F
:1036700000B58446FFB086B0604669468871000A8E
:10368000C87182200870FF204870042088700022D2
:10369000CA7002220A7148710B220821684603F0A1
:1036A000BBFB7FB006B000BD00B58446FFB086B05E
:1036B000604669468871000AC87182200870FF2040
:1036C0004870042088700022CA7003220A71487171
:1036D0000C22E2E700B5FFB086B068468221017097
:1036E000FF214170022181700021C170042101710C
:1036F00041710D220621D2E700B5FFB086B06846C1
:1037000082210170FF214170022181700021C1706E
:1037100005210171042141710E220621BFE778B510
:10372000FFB086B00E00150019006C46A071E6715E
:1037300025722000093001F01EF882202070FF2041
:103740006070681DA07029000004000EE070072062
:103750002071042060710F22093189B295E200B511
:103760008446FFB086B0604669468871000AC87119
:1037700082200870FF204870042088700022CA70E0
:1037800008220A714871102287E718B5FFB086B089
:10379000020008006C46A271120AE2712100083191
:1037A00001F0CAFE82202070FF2060700820A07007
:1037B0000020E070092020710420607136220C2165
:1037C00030E100B58446FFB086B060466A4690712D
:1037D000000AD071117282201070FF2050700520F5
:1037E00090700020D0700A20107104205071372290
:1037F000092153E700B58446FFB086B060466A46AB
:103800009071000AD0711172090A517282201070F1
:10381000FF205070062090700020D070107108209A
:10382000507111220A2139E730B5FFB086B00D0082
:1038300011006C46A071000AE07125722A00200078
:10384000093000F098FF82202070FF206070681D12
:10385000A07029000004000EE070012020710820F3
:1038600060711222093189B254E218B5FFB086B0F6
:103870006C46A071000AE07121726272120AA27293
:10388000E3721B0A237388A800886073000AA07380
:1038900089A80088E073000A20748AA800886074F0
:1038A000000AA07482202070FF2060700F20A0709A
:1038B0000020E07002202071082060711322132183
:1038C000B0E0F5B5FFB08CB00D001C00969F979E40
:1038D0000596049795A80088039094A80088029004
:1038E00093A80088019092A8008800908BA8008877
:1038F00003F053F8002837D106A88BA909888171F5
:10390000090AC17105728CA909884172090A81727C
:10391000C47292A909880173090A417393A909889D
:103920008173090AC17394A909880174090A417451
:1039300095A909888174090AC17407753F0A4775FA
:103940008675360AC67582210170FF2141701421E7
:1039500081700021C1700321017108214171002291
:10396000D243182103F058FA7FB00EB0F0BD30B545
:10397000FFB086B005000C0003F019F8002817D13D
:10398000684685712D0AC5710472240A4472822129
:103990000170FF214170062181700021C170042156
:1039A0000171082141710022D2430A2103F034FA47
:1039B000B3E118B5FFB086B06C46A071000AE071A3
:1039C0002172090A6172A272120AE27223731B0A3F
:1039D000637382202070FF2060700A20A070002096
:1039E000E070052018E018B5FFB086B06C46A071F5
:1039F000000AE0712172090A6172A272120AE2726F
:103A000023731B0A637382202070FF2060700A20DA
:103A1000A0700020E0700620207108206071002254
:103A2000D2430E21684603F0F7F97FB007B010BD0E
:103A300030B585B01400089A01ADA871000AE8718C
:103A40002972090A6972AC72240AEC722B73180A83
:103A5000687382202870FF20687018000A30A870F0
:103A600018000A300012E8700720287108206871D9
:103A70000020C04300900E2101A803F0E1F905B039
:103A800030BD30B5FFB086B01D00889B6C46A0717C
:103A9000000AE07121726272120AA272E5722A00B3
:103AA000190020000C3000F066FE82202070FF20FC
:103AB000607028000830A070290008000830000459
:103AC000000EE0700A202071082060710122D243AC
:103AD0000C3189B21EE1F1B5FFB087B00F001500BF
:103AE0001E0086A8008803F09AFA002826D16C46AA
:103AF00086A80088A071000AE07127723F0A6772E9
:103B0000A572280AE0722A00310020000C3000F073
:103B100032FE82202070FF20607028000830A070E4
:103B2000280008300012E070012020710C20607124
:103B300014220C35A9B2684603F06EF97FB008B0C4
:103B4000F0BD00B58446FFB086B060466946887116
:103B5000000AC87182200870FF2048700420887015
:103B60000020C870022008710C204871152294E5CD
:103B700000B58446FFB086B060466A469071000A80
:103B8000D0711172090A517282201070FF2050709A
:103B9000062090700020D070032010710C2050710E
:103BA00016220A217AE578B5FFB086B00E0015001E
:103BB00019006C46A071000AE07126726572280A2D
:103BC000A07220000B3000F0D6FD82202070FF2074
:103BD0006070E81DA0700012E070042020710C20BD
:103BE000607117224FE0F0B5FFB086B06C46A0714F
:103BF000030AE371217200250E00130000210CE07E
:103C0000AA009818A218078857723F0A977240882E
:103C1000D072000A1073091D6D1CB542F0DB8220C2
:103C20002070FF206070481DA0700012E070052019
:103C300020710C2060711822093189B2684603F0A6
:103C4000EBF87FB006B0F0BD78B5FFB086B00E00DF
:103C5000150019006C46A071000AE07126726572A9
:103C6000280AA07220000B3000F085FD8220207011
:103C7000FF206070E81DA0700012E0700620207127
:103C80000C20607119220B35A9B2684603F0C4F804
:103C90007FB007B070BD30B5FFB086B00D00110029
:103CA0006C46A071000AE0712572280A60722A0031
:103CB00020000A3000F05FFD82202070FF2060703D
:103CC000A81DA0700012E070072020710C20607108
:103CD0001A221DE030B5FFB086B00D0011006C4611
:103CE000A071000AE0712572280A60722A00200083
:103CF0000A3000F040FD82202070FF206070A81D77
:103D0000A0700012E070082020710C2060711B224E
:103D10000A35A9B2684603F07FF87FB006B030BD1F
:103D200030B5FFB086B00D0011006C46A071000ADE
:103D3000E0712572280A60722A0020000A3000F023
:103D40001AFD82202070FF206070A81DA070001254
:103D5000E070092020710C2060711C22D8E778B532
:103D6000FFB086B00E00150019006C46A071000A65
:103D7000E07126726572280AA07220000B3000F0F4
:103D8000FAFC82202070FF206070E81DA0700012F5
:103D9000E0700A2020710C2060711D2273E730B59D
:103DA000FFB086B01D00889B6C46A071000AE071D0
:103DB0002172090A6172A272120AE2722573280A3C
:103DC00060732A00190020000E3000F0D4FC82201D
:103DD0002070FF20607028000A30A07028000A3090
:103DE0000012E0700C20207160711F220E3590E7E8
:103DF00000B58446FFB086B0604669468871000A07
:103E0000C87182200870FF2048700420887000204C
:103E1000C8700D2008710C20487120223DE478B54F
:103E2000FFB086B00E00150019006C46A071000AA4
:103E3000E0712672360A6672A572280AE0722000C6
:103E40000C3000F098FC82202070FF206070280069
:103E50000830A070280008300012E0700E20207199
:103E60000C20607121220C350EE7F1B5FFB087B050
:103E70000F0015001E0086A8008803F0C6F8002871
:103E800026D16C4686A80088A071000AE0712772CE
:103E90003F0A6772A572280AE0722A0031002000EA
:103EA0000C3000F068FC82202070FF206070280039
:103EB0000830A070280008300012E0700F20207138
:103EC0000C20607122220C35A9B2684602F0A4FFD2
:103ED0007FB008B0F0BD30B5FFB086B005000C0073
:103EE00001F0F2FD684685712D0AC57104728221C8
:103EF0000170FF214170052181700021C1701021E6
:103F000001710C2141712322092104E718B5FFB08A
:103F100086B06C46A071000AE07121726272120ACA
:103F2000A272E37282202070FF2060700820A070CF
:103F30000020E070112020710C20607124220C21DF
:103F400070E578B5FFB086B00E00150019006C461C
:103F5000A071000AE0712672360A6672A57220000E
:103F60000B3000F008FC82202070FF206070E81DFC
:103F7000A07029000004000EE070122020710C20B7
:103F8000607125220B3189B27FE630B5FFB086B073
:103F900005000C0003F04DF8002816D16846857125
:103FA0002D0AC5710472240A447282210170FF2116
:103FB0004170062181700021C170162101710C2110
:103FC000417129220A2102F027FFA6E600B58446A6
:103FD000FFB086B0604669468871000AC8718220C9
:103FE0000870FF204870042088700020C8701720D7
:103FF00008710C2048712A22FFF74FFB00B5844658
:10400000FFB086B060466A469071000AD0711172A6
:1040100082201070FF205070052090700020D0701A
:104020001C2010710C2050712B220921FFF736FB48
:1040300078B5FFB086B01E008A9D8B9B6C46A07140
:10404000000AE0712172090A6172A272E672360AF0
:10405000267365732A00190020000E3000F08BFBD8
:1040600082202070FF20607028000A30A070290094
:1040700008000A300004000EE0701D2020710C20A2
:1040800060712C220E3189B2FFE578B5C1B01E00F7
:10409000469B4A9D6C4620716171090AA171E271CB
:1040A0002672062219002000093000F064FB47A8A0
:1040B0000088E073000A207448A800886074000A31
:1040C000A07449A80088E074000A20756575042072
:1040D00020703E2060701320A0700120E0702C2220
:1040E0001621684602F098FE42B070BDF0B5C3B02C
:1040F000002502AA107100276A461070019124E081
:10410000001D4619019814217943441820787070D5
:104110006078B0700622A11CF01C00F02CFB207A05
:104120007072227AE16830000A3000F024FB207AB5
:10413000010009316D1801222100103133000A33CA
:10414000181800F018FB6D1C7F1C68460078874229
:1041500002A8D5DB042202703E224270A91C8170A5
:104160000222C2702D2207E118B5C1B06C46207141
:104170006171090AA171E271120A227263721B0A4B
:10418000A37244A80088E072000A20730420207003
:104190003E2060700A20A0700320E0702E220D21C6
:1041A00074E118B5C1B00B0011006C462071637149
:1041B0001B0AA3710822E01D00F0DDFA0420207024
:1041C0003E2161700C21A170E0702F220F215DE172
:1041D00030B5C1B015006C462071000A607108222C
:1041E000A01D00F0C8FAA5732D0AE5730420207005
:1041F0003E2060700D20A0700520E070302210215C
:10420000684602F009FE41B030BD18B5C1B06C4639
:104210002071000A6071A171090AE1712272120A0B
:104220006272A3721B0AE37244A800882073000A1A
:104230006073042020703E2060700B20A070072067
:10424000E07031220E2121E118B5C1B06C46207119
:104250004022601D00F08FFA042020703E20607024
:104260004220A0700820E070322245210EE118B5EE
:10427000C1B06C4620712022601D00F07CFA042041
:1042800020703E2060702220A0700920E070332250
:104290002521FBE0F3B5C1B04899499F4A9E4E9D48
:1042A0006C46207142A800886071000AA071E2711A
:1042B000237206222000093000F05DFA0622390040
:1042C00020000F3000F057FA062231002000153090
:1042D00000F051FA4BA80088E076000A20774CA83D
:1042E00000886077000AA0774DA80088E077000A70
:1042F000641CE077641E21202554042020703E2099
:1043000060701F20A0700A20E070342222216846CD
:1043100035E0F0B5C3B0002602AA107100276A4646
:10432000107001911AE0380102A90D1801990C18BA
:10433000207868716078A8710622A11CE81D00F041
:104340001AFA207A687306222100093128000E30FB
:1043500000F011FAE07B287510367F1C6846007863
:104360008742E0DB02A8042202703E224270B11CA8
:1043700081700B22C2703522C9B2C91C89B202F009
:104380004BFD43B0F0BD18B5C1B06C4620716171F2
:10439000090AA171E2712372042020703E2060702E
:1043A0000620A0700C206DE0F0B5C3B0002602AA74
:1043B000107100276A461070019134E001981C21A9
:1043C0007943441802A8851920886871000AA871E9
:1043D000A078E8710622E11C2800083000F0CBF933
:1043E000607AA873A07AE873E07A2874207B6874F6
:1043F000607BA874E089E874000A2875207C6875E1
:104400000622210011312800163000F0B4F9E07DB9
:104410002877E27DA16928001D3000F0ACF9E07D2D
:10442000183036187F1C684600788742C6DB02A821
:10443000042202703E224270B11C81700D22C270B3
:104440000022D24398E700B5C1B06846042101704C
:104450003E214170012181701121C1700022D2439F
:10446000042141E018B5C1B06C4620716171A271A0
:10447000120AE2712372042020703E206070062030
:10448000A0701220E0700022D2430921684602F099
:10449000C3FC42B010BD18B5C1B00B0011006C4692
:1044A000207163710622A01D00F065F904202070C0
:1044B0003E2060700920A0701320E0700022D243DB
:1044C0000C21E3E700B5C1B06A461071000A5071D3
:1044D0009171042010703E21517090701420D070A2
:1044E0000022D2430721684602F096FC41B000BD8D
:1044F00010B502F0F9FD10BD38B50546002000905A
:104500006946284602F00DFE040002D0842C06D035
:1045100006E029460220009A02F034FE00E0002462
:10452000204638BD30B5074A0346002112680846C8
:1045300054185D5C6034491CC9B265720829F7D310
:1045400030BD0000B811002010B502F055FE00206B
:1045500010BD10B51446002903D0012901D0122046
:1045600003E002F09DFE002801D07F21217010BDE4
:1045700010B5064A00211268445C53186033491C88
:10458000C9B25C740829F7D3002010BDB81100200F
:1045900010B502F0AFFE10BD10B502F0B9FE10BDAF
:1045A00030B50B24039D047004480068408D0880DA
:1045B0001470302018800020288030BDAC110020FD
:1045C000F8B504464022002100F0DBF820202070DE
:1045D000002565708020A070E5702571C027677187
:1045E000A571E571257265720420A072E5722573CC
:1045F00065732821A1732221E17325746574A57464
:10460000E57425756575A075E5752576F7206076E6
:104610000120C0468600F61C0120C046C0000643AB
:104620000120C046000106430120C0464001064368
:104630003E43A6760120C0468600F61C0120C046F7
:10464000C0000643F0200643E6760120C0467E21E6
:10465000084320776577A577E577302020342070F0
:104660000120C04686010120C046C0010643667095
:104670000120C04606460120C046400006430120F6
:10468000C046800006430120C046C000064301200A
:10469000C046000106430120C046400106430120F8
:1046A000C046800106430120C046C0010643A670F3
:1046B0000120C04606460120C046400006430120B6
:1046C000C046800006430120C046C00006430120CA
:1046D000C046000106430120C046400106430120B8
:1046E000C0468001064380200643E6700120C04694
:1046F0004600761C0120C046800006430120C046CB
:10470000C00006430120C046000106430120C04608
:10471000400106430120C046800106430120C046F7
:10472000C001064326710120C04646010120C04653
:1047300046430120C04687010120C04647433E430F
:104740000120C04607460120C046400007433E43C3
:104750000120C046C7010120C04647433E43667161
:104760008020A0710120C0468000C01CE07125722D
:1047700065720020F8BD10B5040002F0F9FD2000BC
:1047800010BD10B50400080011000200200002F066
:10479000FDFD200010BD80B502F024FE02BD10B565
:1047A000044608220021FFF7ECFF60202071002062
:1047B00010BDF1B401684218416848081318009808
:1047C0008068C9071ED5494640181BE01778521C5F
:1047D0000770401C761EF9D1002C13D01678521C9D
:1047E00089080D40032D01D11578521C290271183A
:1047F0004D424119A41C05D00D78491C0570401C80
:10480000641EF9D19A420FD01178521C0325032659
:104810000E4002D11678F61C521C0C090F2CD9D16F
:1048200014780F34521CD5E700980C30F2BC704756
:1048300010B5034906220968FFF79DFF002010BD4F
:10484000AC11002010B50C460146204602F0D9FDFF
:10485000002801D07E21217010BDFF30FF212130C2
:104860004174817481730021C17101210176704707
:1048700030B5074A034600211268084654185D5CAB
:104880006034491CC9B265760829F7D330BD0000F1
:10489000B811002010B50C46FB2101800120C04654
:1048A00001280ED01B201F30400941004018064946
:1048B0008989081A0921C01E02F0CAFD2070002053
:1048C00010BDFB20EFE700000C25002010B502F022
:1048D00016FE002010BD10B502F03CFE10BD08B55C
:1048E0000846891D00918388C2788178008800205D
:1048F000C04608BDFFB585B00F461E4615460121CE
:104900000220119C02F03CFE002807D16846059960
:10491000018047800571042D02D9122009B0F0BD35
:10492000C6710E990172062209300F99FFF723FF15
:1049300068461099417184710079012804D00428D7
:1049400002D0032CE9D807E06946097A012901D091
:104950000029E2D1012810D0684601880E4A084695
:1049600020389042D9D2684640882028D5D30122E9
:1049700092039042D1D88142CFD80320C0466946E5
:10498000C9798142C9D8684640794007C5D0684690
:1049900002F004FEC2E70000E13F000010B504464B
:1049A0000121022002F0ECFD002802D1204602F095
:1049B0005BFE10BD80B502F089FE01BDF8B584B084
:1049C00006001225FE2805D10BA80078002801D08A
:1049D0001220FAE0684602720F00144603930AA9F7
:1049E0000978002949D1FE2E75D0F02E1CDA042F4B
:1049F0001ADC6A4602A9491C300002F01BFF00289D
:104A000067D1684600881421014014290CD06846FB
:104A100000882840022807D068460088C00605D5CF
:104A2000032F01D1202C12DB1224CDE0032F08D15B
:104A3000002469460C710AA80178300002F0ADFE2E
:104A40005EE0042F03D06846007A0028ECD0684668
:104A5000407A002847D0032FEAD0042F37D10BA883
:104A6000007801900AA800780090039B6846027ABB
:104A70000421300000F0BEF8A7E0FE2E2BD0042F5A
:104A8000D2DA6A4602A9491C300002F0D3FE00289F
:104A90001FD168460088800703D46846007A002842
:104AA000C2D1684600882840122804D1032FBBD108
:104AB000202C06DBB8E7032FBAD06846007A00281E
:104AC000B2D06846407A00280DD0032FB0D00C2415
:104AD0007AE0422478E0012069464872032FA3D18E
:104AE000202CA5DBA0E70024380006D0022F04D03C
:104AF0009FD3042FB3D09CD302E0012069460871F4
:104B00000AA80078009002AB9B1C68460279017AE3
:104B1000300002F0F9FD050016D16846007A002841
:104B200012D00BA8007801900AA80078009000230A
:104B300000220321300000F05DF80AA8017830005F
:104B400002F069FE072040E06846027A0399408936
:104B5000281802F00DFC684640896946097A421817
:104B6000022F15D0032F13D0012F2DD10BA80078C1
:104B700001900AA800780090002300220321300051
:104B800000F038F80AA80178300002F044FE1BE07B
:104B90000BA8007801900AA8007800902B0092B230
:104BA0000321300000F026F804000AA8017808D19B
:104BB000300002F030FE0AA80178300002F020FE3A
:104BC00002E0300002F0E9FD200005B0F0BD1CB5A8
:104BD0001A00049B002450E01CB51A00049B00241A
:104BE000019401244AE0814200D1704780B502F06F
:104BF000E1FD01BD58B51400049A059E002A10D1AC
:104C0000002E03D0220002F03AFE52BDFE2804D14D
:104C10001900E0B202F038FE52BD220002F060FE40
:104C200052BD002E04D01A00210002F099FE52BDA0
:104C3000FE2804D11900E0B202F096FE52BD1A001F
:104C4000210002F0BBFE52BDE0B502000B000020C7
:104C5000019005E0E0B502000B000020019001206A
:104C600000900321FE20FFF7A9FE0EBD1CB5012414
:104C70000194002402E01CB5012401940094FFF784
:104C80009DFE16BD10B504460121022002F078FCFD
:104C9000002804D1012C03D0002C01D0122010BD1B
:104CA000204602F0CBFE10BD38B58CB01B9C0B9497
:104CB0001AAC24780A9419AC2478099418AC247896
:104CC000089417AC2478079416AC247806946D46A3
:104CD00054242C57059414AC24780494139C039406
:104CE00012AC2478029411AC2478019410AC24788E
:104CF000009402F0BFFE0DB030BD80B502F03EFF63
:104D000002BD80B502F03EFF02BD80B502F07DFF1E
:104D100002BD80B502F086FF02BD80B502F08FFFB4
:104D200002BD80B502F097FF02BD1CB5059C019441
:104D30006C46247C009402F099FF16BD80B503F008
:104D40000BF802BD80B503F069F802BD30B58BB039
:104D500018AC24780A9417AC2478099416AC2478FB
:104D6000089415AC2478079414AC247806946D4606
:104D70004C242C57059412AC24780494119C039471
:104D800010AC247802940FAC247801940E9C00940B
:104D900003F068F80BB030BD80B503F0C1F802BD78
:104DA00080B503F0DDF802BD80B503F0F9F802BD6F
:104DB00080B503F06BF901BD1CB56C46247C0094F2
:104DC00003F074F916BD80B503F0C0F902BD80B5DB
:104DD00003F0F2F902BD80B503F014FA02BD80B50C
:104DE00003F024FA01BD80B503F0A4FA02BD80B53A
:104DF00003F0FAFB01BD80B503F048FC01BD80B5AE
:104E000003F0D6FC02BD1CB5049C009403F0E0FE48
:104E100013BD80B504F022F801BD80B504F04CF854
:104E200002BD80B504F05BF802BD80B504F063F804
:104E300002BD80B504F080F802BD80B504F080F8B2
:104E400002BD80B504F086F802BD80B504F094F888
:104E500002BD80B504F0A2F802BD80B504F0A5F84B
:104E600002BD80B504F0A5F802BD80B504F0A5F838
:104E700002BD80B504F0B7F802BD80B504F0DAF8E1
:104E800002BD80B504F0E4F801BD80B504F07AFA03
:104E900001BD80B504F0B6FA01BD1FB56C46248C87
:104EA0000294079C01946C46247E009404F0F0FA6E
:104EB00004B010BD1FB5099C039408AC247802947B
:104EC0006C46247F01946C46247E009404F0CEFC52
:104ED00004B010BD1CB56C46247C009404F0A8FE00
:104EE00016BD80B504F0E8FE01BD80B504F02EFFCC
:104EF00001BD10B588B011AC2488079410AC24888B
:104F000006946C46A48F05946C46248F04946C46DA
:104F1000A48E03946C46248E02940BAC24780194E6
:104F20000A9C009404F0CEFF08B010BD80B505F0D7
:104F30001BF802BD1CB56C46247C009405F032F8C9
:104F400016BD80B505F068F802BD1FB56C46248C0F
:104F500002946C46A48B01946C46248B009405F05B
:104F60005FF804B010BD80B505F06CF802BD80B5E7
:104F700005F080F802BD1CB56C46A48A01946C460D
:104F8000248A009405F07AF816BD1FB56C46248C6F
:104F900002946C46A48B01946C46248B009405F01B
:104FA0007EF804B010BD80B505F08DF802BD80B567
:104FB00005F091F802BD80B505F0A9F802BD80B5F5
:104FC00005F0ADF802BD1FB56C46248C02946C460A
:104FD000A48B01946C46248B009405F0BDF804B0BA
:104FE00010BD80B505F0CAF802BD80B505F0DAF84D
:104FF00002BD18B585B00CAC247804940BAC2478B1
:1050000003946C46248D02946C46A48C01946C46E7
:10501000248C009405F0CBF806B010BD80B505F0E7
:10502000DBF801BD80B505F0F9F802BD80B505F0EB
:1050300005F902BD80B5C0B205F094F901BD80B597
:1050400005F0B4F902BD80B505F0B8F902BD80B530
:1050500005F0CCF902BD80B505F00CFA01BD80B5B4
:1050600005F02FFA02BD80B505F054FA01BD80B5F8
:1050700005F059FA02BD80B505F05DFA02BD80B5B4
:1050800005F05DFA02BD80B505F05DFA02BD80B5A0
:1050900005F05EFA01BD80B505F062FA01BD80B58C
:1050A00005F076FA02BD80B505F0E2FA01BD80B5E3
:1050B00005F000FB01BD80B505F024FB01BD80B506
:1050C00005F066FB02BD80B505F06AFB02BD80B548
:1050D00005F070FB02BD80B505F08AFB02BD80B50E
:1050E00005F0C4FB01BD80B505F07AFC01BD80B5BB
:1050F00005F094FC02BD80B505F0ACFC01BD80B5A7
:1051000005F0C2FC02BD80B505F0ECFC01BD80B528
:1051100005F028FD01BD80B505F042FD01BD80B55B
:1051200005F07AFD02BD80B505F090FD01BD80B5AA
:1051300005F0A2FD01BD80B505F0B6FD01BD80B54D
:1051400005F0CAFD02BD80B505F0E8FD01BD80B5E2
:1051500005F018FE01BD80B505F02EFE01BD80B53D
:1051600005F078FE02BD80B505F0AAFE01BD80B550
:1051700005F0D2FE02BD80B505F0F4FE02BD80B59B
:1051800005F034FF02BD80B505F03CFF02BD1CB543
:105190006C46248A009405F039FF16BD80B505F0F1
:1051A00042FF02BD80B505F042FF02BD80B505F0AB
:1051B00053FF01BD80B505F057FF01BD80B505F077
:1051C000A5FF02BD80B505F0ADFF02BD1FB5099C6E
:1051D00003946C46248C02946C46247F01946C46A4
:1051E000248B009405F0D6FF04B010BD18B585B02F
:1051F0000C9C04946C46A48D03940AAC247802940D
:105200006C46A48C01946C46248C009405F0E6FF57
:1052100006B010BD1CB5049C009406F007F816BD3E
:1052200080B506F009F802BD80B506F009F802BDA8
:105230001CB5049C009406F007F816BD80B506F076
:1052400009F802BD80B506F049F801BD80B506F049
:1052500097F802BD80B506F0B1FA02BD80B506F040
:10526000BBFA02BD80B506F0FBFA01BD80B506F0C1
:1052700019FB01BD10B5044606F044FB2070002068
:1052800010BD10B506F04AFB10BD7CB504460D46B6
:10529000012803D0002C01D012207CBD084600F06C
:1052A00035FA000220430090E81C00F02FFA0002BB
:1052B000000A0190684606F099FB7CBD1CB50128E8
:1052C00003D0002801D012201CBD6A46107000A82F
:1052D00006220130FFF74FFA684606F0E9FB1CBDD5
:1052E00010B506F04BFC10BD10B50146012006F0CC
:1052F00075FC10BD10B5002406F0A8FC204610BDBA
:1053000010B506F0E2FC10BD70B50C46054606F07F
:10531000EBFCFF2805D022462946002006F002FDBE
:1053200070BD022070BD10B5044606F0DDFCFF28FC
:1053300005D000222146812006F0F4FC10BD022099
:1053400010BD10B506F018FD002010BD10B50022EC
:10535000012106F01DFD10BDFEB514460D460646A2
:105360000C2200216846FFF70CFA6846067045706B
:1053700084700121C1706B4607CB06F01DFDFEBD98
:1053800010B506F03FFD002806D1044909686031D8
:105390000A79520852000A7110BD0000B8110020AD
:1053A00010B506F07AFD002010BD8078800701D589
:1053B0008620704700207047054A136880331B8C95
:1053C000038010688030408C088000207047000007
:1053D000B811002005221202904201DCD14201DA0C
:1053E00082207047034A1268803210845184002062
:1053F00070470000B811002001490180002070476B
:10540000B3720000284829498862012028490870A1
:1054100000207047FFB583B00F9F109E119D12981A
:10542000FFF7EAFF002468468460446001A800900A
:1054300002AB9B1C01AA921C02A9C01CFFF7B0F88A
:10544000012003990870049A1470059A1470069943
:1054500008700C9804800F206946098901400D9A54
:105460001170694689880906090F0E9A11706946FC
:1054700089880840387068468088C00B307028885A
:10548000EF2101432980002007B0F0BD10B51C00BA
:1054900001D1122010BD029BFFF784FE010001D153
:1054A00004490C8010BD000001010101040000202E
:1054B000600400205C03002080B501F007FD02BD00
:1054C00080B501F032FD02BD80B501F057FD02BD8F
:1054D00080B5002802D0012804D006E001F062FD6A
:1054E000002002BD01F065FDFAE7122002BDF8B50B
:1054F00005000C0017001E0001F0A5FD286031001A
:10550000380001F0A3FD20600020F2BD10B506F0C8
:10551000EFFC10BD10B506F089FD10BD10B506F00A
:10552000D1FD10BD10B5044606F0DEFD2060002060
:1055300010BDFF210171704784460870000A487051
:10554000000A8870000AC8706046704770B5284E1F
:10555000054630680C464030C07A002801D00C2047
:1055600070BD282D01D2022C01D9122070BD06F089
:10557000C0FD0028F3D1316801204031C8724203D8
:105580001C4B2804C018012C02D0022C02D002E0CF
:10559000801800E0801A0201D30E4202520FDB0095
:1055A0001343401C0203140E0205497A0007120E31
:1055B000000EC900104D891D696110490B600F492B
:1055C0004039CC638A63093048630C48092180382C
:1055D000016309490322F8390A6039210163074947
:1055E00040318A69042AFCD13B210163002070BD4F
:1055F000B81100200000B1040015006040160060E2
:10560000074801684031C87A002806D00020C872D7
:10561000044908630449086070470C207047000083
:10562000B8110020C015006008140060F7B50F46DF
:10563000304982B0086816462030007D029A401E2C
:10564000904202D2122005B0F0BD00202A4A034643
:105650003B544400401CC0B232530828F8D32548BC
:1056600000682030007D082803D90820002400901D
:1056700036E00024009030E0E8B206F041FD042856
:1056800003D0082801D0012825D1E8B206F03DFD5D
:105690003855022806D0052804D0012807D0032851
:1056A0000FD018E0E8B206F035FDC08E06E001200C
:1056B000C04600280FD0E8B206F03CFD61007052F1
:1056C00009E006F053FDFF30FF302A30C079400773
:1056D00001D504203855641CE4B20098844207D2F6
:1056E00002982518034800682030007D8542C3D306
:1056F0000020A8E7AC110020FFFF00000249096864
:105700005431C88000207047B8110020C3788278D7
:10571000417800781B021A4309021204084310431F
:105720007047704701B50448042200686946A430F8
:10573000FFF721F8002008BDB811002010B506F0D1
:105740001DFD10BD38B5049C009406F033FD38BD36
:1057500010B506F049FD002010BDF0B50B4603431F
:105760009B0701D01220F0BD00238E080AE0002420
:1057700003219D0027026C18145D3C43491EF9D596
:1057800044515B1C9E42F2D80020F0BDFFB5864616
:105790000843800702D0122004B0F0BDEFF3108060
:1057A000844672B6002588080AE0AE007246945915
:1057B0000022B718DC55240A521C042AF9DB6D1CA0
:1057C000A842F2D8604680F3108802980170002049
:1057D000E2E710B5042801D9822010BD06F012FDC1
:1057E00010BD7047FFB583B00C9D1E4614460700E0
:1057F00004D0012F02D0822007B0F0BD0498002809
:1058000001D00128F7D1E81F0A28F4D20D981028FA
:10581000F1D8A842EFD30E98002801D00128EAD190
:1058200012490F988842E6D80120C046012804D0CA
:105830002046304305D01120DEE7022CDBD8012EB4
:10584000D9D869460F70049848708C72CE728D70EA
:105850000D98C8700E9808720F98019006F0F2FC2F
:1058600069464872684606F0F7FCC5E73F420F00FC
:1058700010B5002903D0012901D0822010BD06F007
:10588000FFFC10BD044A10B5914201D9822010BD21
:1058900006F014FD10BD00003F420F0010B50129B5
:1058A00003D0022901D0822010BD06F01FFD10BDDB
:1058B000FFB583B00E9F1C460E4605000BD0A8070F
:1058C00003D1680701D4280705D5002E05D0012E85
:1058D00003D0022E01D0822417E00C986A460D995D
:1058E00083C2224631462846059B06F03DFD040052
:1058F0000BD131462846059A06F0BEFD040004D1BE
:105900003A460D990C9806F0E3FD204607B0F0BD2D
:1059100010B506F09BFE10BD10B506F0E9FE0020A4
:1059200010BD704701B505486946006809788030A8
:105930004170694649788170002008BDB811002087
:1059400010B506F0F7FE10BD10B506F0F7FE10BD5D
:1059500010B506F0F7FE10BD10B506F008FF10BD3B
:1059600010B51C461346CA00511ACAB2214606F0A9
:1059700017FF10BD00B595B00B46012804D00028D4
:1059800002D0822015B000BD01466A46184606F0D6
:1059900041FFF7E738B5049C022801D9822038BDC1
:1059A000009406F03DFF38BD7CB5079D069C01289C
:1059B00007D8022B05D8102C03D8012903D00029C1
:1059C00001D082207CBD0195009406F04BFF7CBD88
:1059D00010B5002803D0012801D0822010BD06F0A8
:1059E00095FF10BDFFB58BB0189C1C9F22461D9ED5
:1059F0001E9D0D990C9806F093FF002817D106F014
:105A0000B3FF002813D11B9808970A9507900996B1
:105A1000179A19991A9814AB049403920591069059
:105A200007CB6B4607C30BA80FC8FFF78FF90FB062
:105A3000F0BD10B5FFF7B8F910BD7FB515461C468F
:105A40000E461A46684606F0B7FF002806D168469B
:105A500023462A463146007806F0CDFF04B070BDDB
:105A600008B56946087001221146684606F0A4FF91
:105A7000002803D16846007806F0E1FF08BD10B5A4
:105A800006F0FEFF10BD704780B5B04800214160B0
:105A9000016007F02FF801BD70B505000C0016007D
:105AA000FFF7F2FF3100280007F0F0F8200005D0E2
:105AB00007F02EF9002802D1002400E000200100A8
:105AC000200007F01BF870BD80B500F0C6FD01BDD9
:105AD00010B5040000F0C1FD200007F01BF810BD58
:105AE000F3B581B017001E00102007F011F9040073
:105AF00007D0102101F05AFC282007F009F9050011
:105B000001D18720FEBD684606702821280001F0DB
:105B10004DFC002620216E5468460078E8822F75DF
:105B20002E762A0002996846007900F059FD280077
:105B300007F027F907000DD1280007F026F960804B
:105B4000A66065602670200000F0E4FC608808997B
:105B5000088005E0606807F00DF9200007F00AF9F9
:105B60003800FEBDF8B507000C00160007F011F96B
:105B7000050016D106F0B3FFA04202D106F0B4FF33
:105B80000AE006F053FDA04202D106F054FD03E006
:105B9000200000F01AFD40680100380007F0FDF811
:105BA00030802800F2BDF7B58EB01E00BB498E4292
:105BB00001D38220BEE0102007F0AAF8040028D00C
:105BC000102101F0F3FB242007F0A2F805001DD0FE
:105BD000199F242101F0EAFB2A1D10990FA80078D3
:105BE00000F0FEFC6F7016A80078287017A80078E7
:105BF000A870002028766560B01D80B207F088F894
:105C0000A060002807D1606807F0B4F8200007F012
:105C1000B1F887208EE01A9A18996B461F8F46803C
:105C2000A0680270A0688680A06841703100A068FA
:105C3000801D01F0BBFB3900280007F0B2F8060018
:105C40007AD11B9F280007F0B0F83880401C608094
:105C500001202070200000F05DFC17A80078382497
:105C600004402878302101401DD0032109A801F00B
:105C70009FFB8B486946088508A80790002006907E
:105C8000072005900120049003200390029409A8A6
:105C900001900320009003230AAA0121388800F014
:105CA00057F8060020D12878C0071FD508A8002182
:105CB00001704170C7486946088508A8801C079094
:105CC00000200690072005900120049003200390F7
:105CD000029408A801900220009002230AAA012140
:105CE000388800F035F80600300022D12878000608
:105CF0001FD508A8002101704170A42080016946C9
:105D0000088508A8801C07900020069007200590B1
:105D100000200490012003900020029008A8019028
:105D20000220009002230AAA0121388800F010F80E
:105D30000600300011B0F0BDA06807F01BF86068E5
:105D400007F018F8200007F015F8F2E7C825002042
:105D5000F3B583B014001D008720694608704F49D1
:105D60008D4201D3822097E0102006F0D1FF07007A
:105D700000D18FE0102101F019FB1C2006F0C8FFB4
:105D8000060000D17EE01C2101F012FB7E60019430
:105D90000E9C6846007C012824D101980088404967
:105DA000884202D0891E88421CD10C2006F0B0FF28
:105DB000B061002863D00021002200230EC028001B
:105DC00006F0A6FFB169886000284DD069460A8DAB
:105DD0000B99FEF7D0FCB0698580E1071DD5012144
:105DE00001701AE0A81D80B206F092FFB86000288A
:105DF0003AD069460A8D0B99801DFEF7BCFC6846B7
:105E0000008DB968488010A80078B9680870B86833
:105E10008580B86844700020B0610F9C0D9D321DD4
:105E200001996846007C00F0DBFB7470A807800FC6
:105E300030700CA80078B07068468189300006F098
:105E4000B8FF694608706846007800280CD1119C9C
:105E5000300006F0B2FF78802080022038703800D1
:105E600000F058FB002017E0B069002807D08068D8
:105E7000002801D006F07EFFB06906F07BFF3000FD
:105E800006F078FFB868002801D006F073FF3800EC
:105E900006F070FF6846007805B0F0BD0102000012
:105EA0000229000038B5050006F08BFF040008D178
:105EB0006D1CA8B200F089FB002802D0012100F07F
:105EC00043FB200032BD38B5050006F07EFF04001C
:105ED00007D1280000F079FB002802D0002100F053
:105EE00033FB200032BD80B506F073FF02BDB8B5AC
:105EF0000BB482B015006A4619466846008906F060
:105F00006CFF0400684687890ED104980088C11B85
:105F1000A94200DAC51B0A9805800A9802880099F0
:105F20000B98FEF728FC24E0008900F04EFB0028C7
:105F300001D182241DE0806841886A4692898A42A4
:105F400001D3822016E06A469289891A049A118048
:105F50004188CA1BAA4202DA6A4692898D1A0A99B6
:105F60000D800A990A88C019811D0B98FEF703FC61
:105F70000024200006B0B0BDF8B507000C001500E5
:105F80001E0006F0C9FA002823D0380000F01DFBDF
:105F9000002804D0836899886219914201DA82202E
:105FA000F2BD0178022909D14068017D102905D18F
:105FB000008A4949884201D18520F2BD187801281C
:105FC00000D15D802A0031001819801DFEF7D3FB37
:105FD0000020F2BD0329000038B505000C00C020E8
:105FE000204031D1280006F066FD812810D1210023
:105FF000280006F0E9FA81280AD1280000F0E5FA25
:10600000002821D00178012903D140688470002044
:1060100032BD022918D14068017D1029F6D1018ACC
:106020002D4A914202D0521C914202D1610709D1FE
:10603000ECE7D21E914205D0121D914202D0521CB3
:106040009142E3D1852032BD822032BD38B5002493
:106050000223CA0700D502240822194200D01443A3
:106060000423194202D0250004242C43114202D0FB
:10607000210040240C430500210006F006FD01002C
:1060800014D02100280006F079FA01000ED0280073
:1060900000F09BFA00281CD00178012907D1406844
:1060A0000178B1220A4014430470002032BD022955
:1060B0000FD14068017D1029F2D1018A074A91422F
:1060C00005D0521C914202D0521F9142E8D1852046
:1060D00032BD822032BD00000229000004290000E8
:1060E000F8B584B01C0004D0082C02D0803C202CD1
:1060F00011D20024002602946D46E8806846818013
:10610000027018004DD1002A14D16846808800F032
:106110005CFA002801D1822052E0806841886A46FA
:10612000128D914201D2072440E00E008018801D9C
:1061300002903BE00B9D0C9F122A0DD100972B0083
:106140006846028D8188C08806F048FD002800D08E
:1061500009242E00029729E0102A01D0112A21D10A
:106160006846808800F031FA0390806881882A00B0
:10617000914201D20D2403E03900801DFEF7FBFAA5
:10618000039880680178012900D145804178C907CA
:1061900008D5831D2A0068468188C088FDF79BFCCE
:1061A00000E01C0068460078112808D00298009092
:1061B0003300220068468188C08806F012FE002065
:1061C00005B0F0BDF0B585B004000026012934D13A
:1061D000002769460C80002402AD1AE0002F3AD057
:1061E000B868019081886888814236D3AA8882186D
:1061F000914234DBAA880499019B1818801DFEF790
:10620000BAFAB8680178012903D16988AA8889187F
:10621000418002AA21006846008806F0B8FC0028E8
:106220001FD12000DAD168460489204600F0CDF95C
:106230000700D3D10E2668460488200006F06AFCC9
:1062400000200090002332000021200006F0C9FD4C
:10625000002005B0F0BD0A26EDE70726EBE70D2686
:10626000E9E72000E7D0002F0FD0B8684178C907D0
:106270000BD50178012901D1428800E08288831D75
:10628000210068460088FDF726FC0024C1E77FB5A1
:1062900014001E006A4606F064FC05000CD1099843
:1062A00008996A46138823805388338093880B802B
:1062B00092880299FEF75FFA280004B070BDF9B524
:1062C00081B00F001600812568461A46012180889A
:1062D00000F09DF904001AD0089960680780468094
:1062E0006A461289828022000C32826068460289E6
:1062F00020000C30FEF73FFA61686846808806F09F
:1063000077FD050003D06846808800F0A6F92800D4
:10631000FEBDF9B581B00F001600812568461A460A
:106320000121808800F073F904001AD00899606890
:10633000078046806A461289828022000C32826081
:106340006A4612898068FEF716FA6268012168467B
:10635000808806F05CFD050003D06846808800F068
:106360007CF92800FEBDF5B581B00E001F00812428
:1063700068460121808800F04AF9050014D03900F0
:106380006846028928000C30FEF7F5F92B000C3323
:10639000684602893100808806F051FD040003D070
:1063A0006846808800F059F92000FEBDF6B583B03C
:1063B00006000D001C00104600F007F9070042D04F
:1063C000B86869460E8126000A99427892070ED570
:1063D000002D01D0102200E011220191F6B20096AA
:1063E00000236846018A0089FDF722FE2BE082889F
:1063F000B24201D20D2404E03200801DFEF7BBF949
:106400000024B8680178012900D14680012D08D107
:1064100000200090002322006846018A008906F0CF
:10642000E0FC002C0FD1B8684178C9070BD5017882
:10643000012901D1428800E08288831D6846018AD3
:106440000089FDF748FB05B0F0BDF2B582B007004A
:1064500014000026002501966846008900F0B5F872
:10646000002801D101221BE08068002801D10E2202
:1064700016E023004178490708D5019500950022D0
:10648000684601893800FDF7D3FDF7BD4188A14278
:1064900001D2072204E00D00C018801D01900022E7
:1064A000019800902B0068460189380006F099FC9D
:1064B000F7BDF1B582B00C0015001F00089E20004A
:1064C00000F083F800281CD02A00806840788007FC
:1064D0000AD50196FFB200971300122221006846E8
:1064E0000089FDF7A5FDF7BD00963B002100684639
:1064F000008906F073FB002801D0092202E0002287
:1065000000E0012200963B0021006846008906F069
:1065100068FCF7BD10B55E494A68002A03D148609F
:106520000021C16010BD43885488A34203D2C260D9
:10653000486010BD0A00D168002902D04C88A342EF
:10654000F8D2C160D06010BDF2B50500504C00E03B
:106550003D00002D35D0EF68606800280FD06988B5
:1065600042888A4203D1C068606008E01000C268B7
:10657000002A04D053888B42F8D1D168C1602878B2
:10658000012802D002281DD00BE06868066A002EA0
:1065900007D0B068002801D006F0ECFB300006F010
:1065A000E9FBA868002801D006F0E4FB686806F063
:1065B000E1FB280006F0DEFB38786946097888425E
:1065C000C6D1F1BD68688669E1E7010030484068DE
:1065D00000E0C068002802D042888A42F9D17047A2
:1065E00010B51400012808D1022220000C30FEF75B
:1065F000C2F810202074002010BD022805D11022FE
:106600002000FEF7B8F88020F4E7822010BD70B5B6
:1066100004000D0010000C3080B206F079FB06007B
:1066200019D00C20684306F073FB70600025002829
:1066300004D1300006F09EFB00260CE0B5603480EB
:1066400013480168002902D1066004E0010088684F
:106650000028FBD18E60300070BD38B500230C4996
:106660000A68140001E02300A468002C0ED02588DD
:106670008542F8D1A068944201D1086000E098609A
:10668000606806F077FB200006F074FB31BD000067
:10669000C825002001B504480422006869468330FB
:1066A000FEF769F8002008BDB811002010B506F00B
:1066B000D2FB10BD38B5049C002907D0002B01D0B7
:1066C000002C03D0009406F0D1FB38BD822038BDE9
:1066D00010B5012901D9822010BD06F0DEFB10BDE6
:1066E00010B506F0E7FB10BD10B5134686B00446A2
:1066F0000A461946684606F0F7FB002803D16946AA
:10670000204606F007FC06B010BD10B5002901D0E8
:10671000914201D9822010BD06F00EFC10BD10B5CB
:10672000002901D0914201D9822010BD06F020FC41
:1067300010BD70B586B00C000A991546064601D00A
:10674000AC4202D9822006B070BD1A46684606F0F7
:10675000CBFB0028F7D16B462A462146304606F08F
:1067600014FCF0E710B5491C89B206F020FC10BDFE
:1067700010B5002902D006F027FC10BD822010BD04
:1067800070B586B00C000A991546064601D0AC4299
:1067900002D9822006B070BD1A46684606F0A4FBF6
:1067A0000028F7D16B462A462146304606F018FCF1
:1067B000F0E710B5002902D006F024FC10BD8220BD
:1067C00010BD10B5002305E05C00145B002C06D062
:1067D0005B1CDBB28B42F7D306F021FC10BD82209C
:1067E00010BD10B5002906D0002A01D0002B02D020
:1067F00006F022FC10BD822010BD10B5002906D085
:10680000002A01D0002B02D006F023FC10BD82200C
:1068100010BD10B506F02AFC10BD38B5049C0094DC
:1068200006F02EFC38BD3EB56C46069D208061808A
:10683000A280E3802581684606F042FC3EBD704799
:10684000914892490180D7229200815270470020DE
:106850008D49C2B2D7239B005A438A5A8B4B9A4226
:1068600006D0401CC2B2022AF3DB0020C0437047AE
:1068700040B2704710B502000020834BD724A4001B
:1068800044431B191C88944202D15B888B4205D07B
:10689000401C0128F1DD0020C04310BD40B210BDF6
:1068A00010B5794BD724A4006043181801804280AA
:1068B0000021621E815410BD80B5FFF7DBFF002868
:1068C00005D47249704AD7239B005843115201BD29
:1068D000F0B585B004000F0015001E00FFF7B7FFEC
:1068E0000490002801D5072021E033002E00390054
:1068F00025006548049AD724A40062438018001D2F
:1069000003909620800002900BA8007801906846C2
:10691000008D009032002800FEF758FC040005D1DD
:10692000320029000498C0B2FFF7BAFF200005B07A
:10693000F0BDF8B586B004000F0015001E00FFF78B
:1069400086FF0590002801D5072024E033002E00A3
:10695000390025004C48059AD724A40062438018CA
:10696000001D04909620800003900EA800780290ED
:106970006846808E01906846008E009032002800A4
:10698000FEF734FC040005D1320029000598C0B29E
:10699000FFF786FF200007B0F0BD80B5012904D1C4
:1069A000002A02D00399FFF787FF002002BD80B5BF
:1069B000FFF782FF002002BD78B5FFB098B0060057
:1069C0000D00140097A8009001AB962292003000B1
:1069D000FEF72EFC002808D1220001A8009097A8FD
:1069E000038829003000FDF723F87FB019B070BD8F
:1069F000F8B507000E0014001D00FFF73BFF00284C
:106A000001D51220F2BD2049D722920042438918B5
:106A10001F4A891800910978002901D08820F2BD09
:106A2000FF2C01DD0720F2BD2900174AD7239B0068
:106A3000584310189722920085182200280000F071
:106A400097FC2B00220031003800FEF7EDFB01001F
:106A500002D10121009A1170F2BDF8B506000C00B8
:106A60001500FFF707FF00280DD4069B2A0000251C
:106A70000549D727BF0078430818791E45542100DF
:106A80003000FCF7B0FFF1BDF8110020FFFF00005F
:106A90005B03000010B5604C607C002805D15F48A6
:106AA000201806F091FB002803D1CB48201806F0EF
:106AB0008BFB002010BDF7B504001A000120564DD5
:106AC000574B9C4204D15749486128740020FEBDB1
:106AD000210A0423544FE719082F20D2EE7C002E00
:106AE00026D1A8740025EE000096504FBE5BB4423C
:106AF0000CD06D1CB42DF6D313700F255570937008
:106B0000D0701071547191710720FEBD6846038CDE
:106B100001890198A94C009D6459A047FEBDA84F6A
:106B2000E619152EDED2AE7C002E01D1E874D9E72D
:106B30000C25CA4FBC420ED03637BC420BD07F1C4E
:106B4000BC4208D013700E2656709370D07014712A
:106B500051719571D8E713700F2656709370D570E8
:106B6000CFE77CB5684606F02BFC00984108491E2B
:106B7000B0480025B04A91420AD84160AF490B683D
:106B80001A40C0231B0613430B6085600721016078
:106B900002260168314301600168012291430160CE
:106BA00006F09AFC06F0E0FC06F0D3FC06F0F6FCDA
:106BB000012006F01EFD06F028FD174C04232200DC
:106BC0001832B3491548201806F0F6FA0423B148E4
:106BD0002218852189008048201806F0EDFA2570DA
:106BE00004206070FF20A0700A20E070267165719B
:106BF000A21D0020002106F0A3FD73BD0A00064976
:106C00004B7C002B00D0704780B501234B740100F2
:106C1000012006F050FD01BD500400203C0D000095
:106C2000030C000004000020FADFFFFF440A0610F6
:106C3000F8B5994CA544002669468E809748984936
:106C40000860984C9848201806F0BEFA002812D127
:106C5000207C00280FD0954801680906FBD5016803
:106C60004906FCD5BFF34F8F914892490860BFF3A6
:106C70004F8F00BFFDE79048006869464880A18AB1
:106C800068464088081A6A4610808C4D009800B209
:106C9000002814D5E08A281806F062FDE08AA18A4F
:106CA00040184112890D091889128902401AE082A0
:106CB0008020C00069464988401A694608800098CB
:106CC00000B200280FD081B2E08A281806F048FDF3
:106CD000009800B2E18A08184112890D091889123A
:106CE0008902401AE08268464088A082744D2800DC
:106CF00006F06AFA00280FD0607C00280CD16A46A2
:106D000001A9280006F042FB002805D168468188C9
:106D10000098001DFFF772FF2F48201806F054FA64
:106D2000002828D0207C002825D187AA01A92A483C
:106D3000201806F017FB87A9087801282FD148787A
:106D40008A781206120C10430427852292000092C2
:106D500002AB9C466A469388DA1B634692B2C91915
:106D6000FFF7A9FE0122010002A800F055F81A4819
:106D7000201806F034FA207801280DD1009600235F
:106D8000621C0D21280006F05BFA002804D1267051
:106D9000A21D002106F0D4FC4A488544F0BD81289C
:106DA00006D148788A781206120C10430527CCE7E2
:106DB0000948201806F013FAEEE70000480A06100A
:106DC000CADFFFFF80B502000020009000233E488C
:106DD00006F036FA01BD00004C0D00007CB5069CA3
:106DE000009406F02DFA002815D069461C200C5698
:106DF000402C10D201252B4E3570B01D06F032FD0F
:106E0000B21D0123A3401C00DD1704430D432000E5
:106E1000290006F095FC73BD0B0000D17047E0B56A
:106E2000019200220092002302002548FFF7D6FFBE
:106E300007BD000010E000E0FFFFFF0020ED00E0D4
:106E40003EB50C0008D06D4618242C5701940092D2
:106E500002001B48FFF7C2FF37BD00000D200000F5
:106E60001CB5174C200006F09DFA200006F0ACF986
:106E700000280CD001AA6946200006F087FA0028F5
:106E800005D1684601880198001DFFF7B7FE13BDC4
:106E9000FC080000280B0000D0FBFFFFAAAA00009E
:106EA00000300040500400203C0D00001C40004118
:106EB0000400FA050CED00E020007048B018002036
:106EC0008C110020340400009C110020F8B5C0B0E3
:106ED0000E00834C2178002901D00C2023E0694664
:106EE0008B801700C880F82102A800F061FA002505
:106EF000E560029502A80090684683880022791C0C
:106F000089B2C088FFF789FC01000CD16846C088AF
:106F10006080A680E7806846808820810120E0604C
:106F200020706570002041B0F0BDF0B5BFB06C4C72
:106F30002378002B01D00C201EE016000F006946BC
:106F40000880F82101A800F033FA0025E5600195DA
:106F500001AB3200390068460088FFF742FC0100AF
:106F60000AD1684600886080E78026810120E060C1
:106F700002202070657000203FB0F0BD10B5594B65
:106F80001C78002C01D00C2010BD002A01D1012258
:106F900000E002221A705880998000209860D86022
:106FA000186110BD4E480178002901D10C207047AE
:106FB00005E04C480178002901D10C2070470021E0
:106FC00001700020704730B5464C658885421AD163
:106FD000A088884217D11878597809020143987817
:106FE00005040D43D87800062843E168884202D0A2
:106FF0002169491C2161401CE060A068401CA06020
:10700000A282012030BD002030BD10B5354C24785F
:10701000012C02D1FFF7D7FF10BD002010BD10B525
:10702000304C2478022C02D1FFF7CDFF10BD002098
:1070300010BD2B480178002903D0002141700120A8
:107040007047002070472648C0687047254A0028CE
:1070500001D0938A0380002901D0106908609068EC
:10706000704730B5BFB01E4C6078002835D120780D
:107070000125012819D1F82101A800F099F9E0684B
:1070800001E00198401C019001A800902389002292
:10709000E188491C89B26088FFF7BFFB0028F0D067
:1070A000882800D16570019816E0022815D1F821D2
:1070B000684600F07DF9E06801E00098401C00900F
:1070C0006B462289E1886088FFF78BFB0028F4D0AB
:1070D000882800D165700098E0603FB030BD0000A6
:1070E000B82500206825002070B50C4604F0FCFD92
:1070F0000546182801D3022070BD06F0C8FB002801
:1071000001D03A2070BD052C05D0132C03D01A2CC9
:1071100001D0122070BD2146284606F0BFFB00209A
:1071200070BD70B50D4604F0DFFD064604F0F2FFB9
:107130000446182E01D3022070BD304606F0B7FB7E
:1071400000280DD13020005D012106F0B8FB002899
:1071500001D03A2070BD802000594003C00F03D0F9
:10716000383400202C6070BD05240121304606F023
:10717000ADFB002322460121304606F0AFFB842000
:1071800070BD704770B50546022314460E46C00612
:1071900003D51222BF20054008E015480068603082
:1071A000807A000701D4002070BD0F222807000F4D
:1071B00003281AD20F49800009684018006929463F
:1071C00006F0A4FB010010D08E8022788A716378CB
:1071D000A27812021A430A81E37822792846120221
:1071E0001A434A8106F0ECFBDDE7072070BD000082
:1071F000B8110020C0110020F8B5012024498004F6
:1072000008602448416880229143416006F02AFDCD
:1072100000202149C043086003214907486001203C
:10722000C046C0B200900120C046C5B20120C04691
:10723000C4B20120C046C7B20120C0460120C046EA
:107240000120C046C6B206F09DFF06F0A5FF134818
:1072500006F0E3FF07F07CF83B46224629460098FB
:1072600007F09EF807F0CEF807F0FCF8304607F07C
:1072700037F907F059F907F087F92146284607F052
:10728000D3F901200249800480390860F8BD00006C
:1072900080E100E0C0000020B41100200000304870
:1072A00070B5144604F020FD182801D3022070BDEB
:1072B000502148430D49401880680D49C0060968AF
:1072C000C00E4031897A04F0DDFD054607F0BCF9B7
:1072D000281800B2142801DD142004E01D21C94340
:1072E000884200DA08462070002070BD00010020AE
:1072F000B811002010B50C4607F0B2F9002805D0EF
:10730000FF30013000882080002010BD022010BD19
:1073100010B50C4607F0A4F900280BD0002C0BD0B8
:107320002030007C0122214607F0BAF9002803D062
:10733000002010BD022010BD122010BD70B4103A04
:1073400003D378C9103A78C0FBD2530701D318C9C8
:1073500018C001D508C908C0D20704D30B88038020
:10736000891C801C002A01D50B78037070BC704703
:107370008B0701D18307E1D0124205D00B78491C5D
:107380000370401C521EF9D1704770471206130A51
:107390001A43130C1A4300BF094205D0830709D0D2
:1073A0000270401C491EF9D1704700000022F3E72B
:1073B0000022FFE71300103906D330B41400150083
:1073C00010393CC0FCD230BC490700D30CC000D5FA
:1073D00004C0890002D30280801C002900D50270FD
:1073E00070477047A446521E08D303780C78401C9F
:1073F000491CA342F7D0181B64467047002064461E
:10740000704710B50446084607F02AF9002804D052
:107410008030C07B2070002010BD802010BDF4465D
:10742000002804D4494200F013F84042604740422B
:10743000002905D45FD000F00BF840424942604774
:10744000494200F005F84942604703460B43E6D441
:107450000022030A8B420BD203098B4219D2430844
:107460008B422ED2411A00D201465241104670473B
:10747000FF2209023FD012068B4205D312120902E5
:107480008B4201D31212090203098B4219D300E087
:10749000090AC3098B4201D3CB01C01A52418309A7
:1074A0008B4201D38B01C01A524143098B4201D355
:1074B0004B01C01A524103098B4201D30B01C01A80
:1074C0005241C3088B4201D3CB00C01A52418308FA
:1074D0008B4201D38B00C01A524143088B4201D327
:1074E0004B00C01A5241884200D3401A5241CFD2B9
:1074F00001461046704708B5C046C04608BD70B585
:107500000446042000262654401CC0B20828FAD3A2
:107510000120C046450119350120C04680010543C0
:107520000120C046C001054325700120C046054624
:107530000120C046C00005430120C04600010543AC
:1075400007F0D6F8800105436570A6700820E0704A
:1075500070BD704710B5044604F008FEFF30FF30E0
:107560002A30C079C00701D00C2010BD07F0C8F840
:107570002146024807F0E4F810BD0000FCFF0000BF
:10758000054A12682032537D034201D00C20704717
:107590005175002070470000AC110020F8B504467A
:1075A00004F0E4FD074600202C4D0090284607F02B
:1075B00001F9E91C0026884211D107F01BF9FF28C8
:1075C0000BD0FF370137FF22093279685043081882
:1075D0000146C0310E764E7608E00720F8BDFF3731
:1075E0000137FF220932796850430818014680317B
:1075F000CD8305466279A035EA75A2792A76012203
:10760000AA76AE772288120242652279130007F02B
:107610000FF90504060B20220D00F32205E0FD22E0
:107620000A830F49416501E0F2220A83E279DF21F2
:107630000A54227AE0210A542146227A09315C3028
:1076400007F003F9074800684030407A68760098F0
:10765000F8BDF022E9E7F522E7E70000FCFF0000B3
:10766000DC050000B8110020F1B5002404F07EFD17
:10767000C51D0B220021F93592018018114B124EC5
:10768000077D16E0FF22093268684A438018DA2233
:10769000125CFF2A0BD08030C08BB04204D1502046
:1076A0004243D018806800E09868C406E40E491C84
:1076B000C9B28F42E6D820460020C0460099087023
:1076C0000020F8BD00010020FCFF00000C48FF2155
:1076D000017001750B48017001757047002901D1D7
:1076E000074900E0074900220B78834201D188183E
:1076F000704714220B7D8342F9D0002070470000B0
:1077000098240020C0240020FEB506000F000024AD
:107710001C8008A801783000FFF7E0FF05000BD1BE
:1077200008A80178FF20FFF7D9FF05001ED02E70B2
:107730006C60AC60EC602C8268460079002812D145
:107740006868002812D1E868002801D007F08FF897
:10775000380002D007F08CFB00E00020E860002831
:1077600018D02F8217E0E868002801D10020FEBD64
:10777000298AC91907F07FF8002807D0E860288A0D
:1077800002990880288AC019288204E0E86807F076
:107790006EF8EC602C82E868FEBD10B5FFF79EFF26
:1077A000040005D0E06807F062F80020E060208265
:1077B00010BD0000002800D1704738B50025002218
:1077C000002300BF19A19400095914245C430C192B
:1077D0006168814209D0A16881420AD05B1C012BFB
:1077E000EFDD521C012AEBDD31BD07F040F865608A
:1077F00031BD080007F03BF8A560FF20207031BDC7
:1078000080B5FFF76BFF002804D0C16881600021BC
:10781000C160018201BD80B5FFF760FF002803D081
:10782000816841600021816001BD00009824002032
:10783000C0240020F8B514460D46064604F096FC18
:10784000C11D0B220023F93192018018027D12E044
:10785000FF27093748685F43C0199E273F5AB74240
:1078600007D1C421095C29708030008B2080002062
:10787000F8BD5B1CDBB29A42EAD84220F8BD10B5D5
:10788000FDF78EFA10BD7047F8B50F4605461F2864
:1078900001D93020F8BD04F069FC044606F030FF41
:1078A0000E4E304606F086FFF11C88420CD106F0E1
:1078B000A1FFFF280FD0FF340134FF220932616895
:1078C000504308188030C6833B462A460021304684
:1078D00000F006F8F8BD0120F8BD0000FCFF000034
:1078E000F8B51F461646054604F040FC04461B4802
:1078F000854205D002210120FFF742FE00281BD15E
:10790000284606F057FFFF340134FF220932616830
:1079100050430C1821463046FDF77FFA00280BD162
:107920002546C0352879002807D0022028768034E3
:10793000E7642685E6850020F8BD287E002805D06E
:10794000C82001593A46A12008F062FF012028769C
:107950008034A764A684A685EDE70000FCFF000044
:1079600010B5FDF719FA10BDF8B50F4605461F28EA
:1079700001D93020F8BD04F0F9FB044606F0C0FE42
:107980000D4E304606F016FFF11C88420CD106F071
:1079900031FFFF280ED0FF340134FF220932616825
:1079A000504308188030C6833A462946304600F0D6
:1079B00005F8F8BD0120F8BDFCFF0000F8B517463A
:1079C0000E46054604F0D2FB04461B48854205D00E
:1079D00002210120FFF7D4FD00281BD1284606F024
:1079E000E9FEFF340134FF220932616850430C186C
:1079F00021463046FDF711FA00280BD12546C03547
:107A00002879002807D0022068768034676566856B
:107A100066860020F8BD687E002805D0D020015978
:107A20003A46A12008F0F4FE0120687680342765EC
:107A3000E6842686EDE70000FCFF000038B5054629
:107A400006F05EFEFDF74DFA0020084C034600905C
:107A500022460121284608F001FF05460448016836
:107A60002046893106F06CFE284638BDFCFF000038
:107A7000B8110020FFB587B00C4606460221012050
:107A8000159F169DFFF77CFD002804D168460670FF
:107A9000EF2E02D912200BB0F0BD4480E00604D4D2
:107AA000E0438007F6D02007F4D401A8099908F034
:107AB0006FFF02A80A9908F06BFF01982028E9D30C
:107AC00002982028E6D3029901988842E2D86946B4
:107AD000109808734007DDD0119848730320C04602
:107AE0006946497B8142D5D8694612988873C0B2ED
:107AF0000128CFD803A8062203301399FCF73BFED8
:107B0000694614984875C0B20328C3D81A4C7F2F11
:107B1000206806D04030817A384604F09DF96946E5
:107B200001E04030407A887520684030817A6846AC
:107B3000807D04F0A7F91B9908706846C575E8B206
:107B4000012801D0032DA5D1694617980876189809
:107B50004876C0B2401E03289CD219988876C0B2DD
:107B60000F2897D81A98C876C0B2012892D808462C
:107B700008F018FF8FE70000B811002010B506F0DC
:107B8000DFFD10BDFEB50C4605461646022101205C
:107B9000FFF7F6FC002804D1012D01D83F2C01D9B4
:107BA0001220FEBD002D01D0002CF9D02946214322
:107BB00007D100200346024600902146284608F0DF
:107BC0004DFE00211EE0481C019006225143C0B228
:107BD000725C07E0062703467B43F35C9A42DFD0E2
:107BE000401CC0B2A042F5D3EF2AD9D888194388E7
:107BF000007900902146284608F030FE0028D0D1B8
:107C00000199C9B2A142DED3FEBD10B504460221DE
:107C10000120FFF7B5FC002803D108F025FF2080E4
:107C2000002010BD10B5044602210120FFF7A8FC7A
:107C3000002803D108F01CFF2070002010BD10B5F3
:107C4000044602210120FFF79BFC002802D12046B8
:107C500008F016FF10BD10B502210120FFF790FCBF
:107C6000002801D108F04CFF10BD7047FFB58DB062
:107C70001F46002408210420179E169DFFF780FC54
:107C8000002805D10D98002804D0012802D0122028
:107C900011B0F0BD0320C0460E998142F7D80622EC
:107CA000394608A8FCF767FD0F98012801D0002885
:107CB000EDD1A80701D16807E9D500202946C140C8
:107CC000C90701D0641CE4B2401CC0B20828F5D337
:107CD0000022122034E01101775A89194B88042FB1
:107CE0009C468B880393CB889E460B890B934B89CC
:107CF0000A938B890693C9890791C9D361460429E0
:107D0000C6D3BC45C4D8039B12499B1F8B42BFD22C
:107D100073469B1F8B42BBD2039B9E45B8D3FF2368
:107D20000B99F4339942B3D80A4B0A991B1F0A39AD
:107D30009942ADD2079B06998B42A9D3521CD2B26D
:107D4000A242C8D30DAC0196009507CC08AB08F051
:107D50000FFF9DE77B0C0000FFB50F4683B01D466B
:107D6000164608210420FFF70BFC040053D1032022
:107D7000C046039981423FD8002F05D0012F03D080
:107D8000022F01D0032F37D10520064234D0684698
:107D9000017047708670F00718D02878002801D04D
:107DA000012829D16988042926D3A888042823D347
:107DB000884221D80021684601722978C1706988FB
:107DC0008180A988C18008F039FF0446700722D558
:107DD0000020F10700D0012006214843295C00293A
:107DE00001D0012908D141194A88042A04D38B887B
:107DF000042B01D3934201D912240CE001236A46DB
:107E00001372285CD070488890808888D08068463B
:107E100008F014FF0443204607B0F0BDFEB50C4641
:107E200005461E46174608210420FFF7A9FB002837
:107E300004D1012D03D0002D09D01220FEBD002C4D
:107E400005D0012C03D0022CF7D1002EF5D06846C6
:107E5000447047800671002141710570FCF7C3FF33
:107E6000FEBD7047FFB505462B488DB006682B4810
:107E70002836007F17468C46A84202D8822011B0CF
:107E8000F0BD2C4614204443F26A0021601C1154BA
:107E9000F90602D5F16A20220A54B90704D5F16A1D
:107EA00008230A5C1A430A5479070AD5F26A102398
:107EB000115C194311543A0703D54023F26A194360
:107EC0001154F90704D0F16A01230A5C1A430A54D9
:107ED000F16A6046085508F0DDFE84461EA807C812
:107EE00008900CAB09A80EC01AA80FC8049005A8EA
:107EF0000EC017A80DC8039361466B4607C316ABA7
:107F000010AA39462846FFF7B5FD0028B7D1012150
:107F1000F26A12341155B2E7BC1100200C25002082
:107F200070B504460C481646007F0D46A04201D8A5
:107F3000822070BD2046FFF741FD01000AD10748AD
:107F4000142300685C432346426D0C33D650406DC9
:107F500010340553084670BD0C250020BC110020CC
:107F600070B504460C481E46007F1546A04201D855
:107F7000822070BD2046FFF7B3FC010009D10748FD
:107F8000142300685C43426D231DD650406D0834B5
:107F90000553084670BD00000C250020BC110020D0
:107FA000F7B5384884B0006800242830009036487F
:107FB0000F46007F16462546B84202D2122007B06F
:107FC000F0BD049838431DD100210846FFF7DAFDC3
:107FD000044617E006206843315C049801280FD15D
:107FE00000981423C26A084658431230105C0128D6
:107FF00000D0D324002C03D1012008F05DFE0446FC
:108000006D1CEDB2BD4202D2002CE3D035E0002C55
:1080100033D10498002803D004F0A6FC04002CD12E
:10802000324639460498FFF7ADFD040025D10025FE
:1080300021E0284606214843315C02910121801944
:1080400001910179002902D14088002801D0022045
:1080500001900121029A049808F088FE04980128F2
:108060000DD0002100981423C26A0298584313309F
:108070006D1C1154EDB2BD42DBD320469FE7019940
:10808000F0E70000BC1100200C250020002809D1D9
:108090000548142200685143406D802240188178C1
:1080A0001143817070470000BC110020FFB5844669
:1080B00024488E46026895B0114630311E9F0E91BD
:1080C0000F911046916B3C32283011921091416A09
:1080D0001291806A13901CA000681490087B0026FF
:1080E000012801D102200743002402A814A9095D38
:1080F000394218D0A30011A9CD580EA9C958320190
:108100000B88835213184988598029889980698877
:10811000D980A9881981E988598129899981698932
:10812000761CD981F6B2641CE4B2032CDED3019034
:1081300063467246009717991898FFF797FD19B094
:10814000F0BD0000BC11002001020400F0B584461F
:1081500017488BB004680025204630300090A06B93
:10816000019014A000682B462834099009A8C05C2F
:1081700008420FD09A006846875806222E4656437A
:10818000387902AA9055B2183888508078886D1CCA
:108190009080EDB25B1CDBB2022BE7D360780A461D
:1081A000014602AB6046FFF7D7FD0BB0F0BD000003
:1081B000BC11002001040000F1B51048002405683E
:1081C00082B0204626460E4F283511E02146142362
:1081D0005943EA6A1331515C012907D1684604709A
:1081E000468006716A460298FFF7CCFC641CE4B234
:1081F000397FA14201D90028E8D0FEBDBC11002082
:108200000C25002070B5064600200446064D05E00A
:1082100031462046FFF7B2FC641CE4B2297FA1423C
:1082200001D90028F4D070BD0C250020F0B58FB026
:10823000044603F09BFF204608F0E8FD2646A036E2
:108240000A960146F07E626D4243401C484317186F
:10825000AC20015B204608F0EFFD3B18304D334861
:108260000795304A304904AD07C5E16F606D0127BD
:108270000522254602920191C03503970090A87E01
:108280003A46214608F034FEB07E012843D0284EFD
:1082900008F050FE029008F055FE06900097A97E67
:1082A00072232046029A08F051FE0197009620465C
:1082B000A97E72231430069A08F08CFE6079384348
:1082C000607120462030C17820221143C1700A9885
:1082D000007F012821D002281FD0154E0097E97E8B
:1082E0004D23A06A029A08F031FE01970096A06A19
:1082F000E97E4D231430069A08F06CFEA06A41799D
:108300003943417105F099FDC830E067204608F017
:10831000AFFE0FB0F0BD4626BAE74626DEE7000006
:108320005FBF06108D88061081890610058A061029
:10833000EE020000F0B591B0074603F017FF0646C5
:10834000FF3609360896FCF7CCFD3446FF347878C2
:108350002134A07538780028E0797CD0C00701D09E
:108360000C202AE10020E07408F006FF0120FF2124
:1083700060721D31885300200D90788835460003C7
:108380008035E8633879C00428647988002907D0EB
:108390003979002904D0E96B814201D30C20D8E05F
:1083A0002079012801D003280CD1002000900190F1
:1083B00002A808F0EFFE0622694602A8FFF712F8AD
:1083C00000287DD005F039FD7D21C90040182862C4
:1083D0006862A861E8616864A864E86B002803D05B
:1083E00005F02BFDE96B4018A863FCF704FD744809
:1083F0000F90207CC00704D008F0D6FE6074FF28E0
:108400007ED0207C400704D508F0CEFEA074FF2863
:1084100077D0207CC00743D06A4B6D4807936A4AE7
:108420006A4904AB07C3296AA868009001230622A1
:1084300001A80EC0607C03220F9B089908F058FD2C
:1084400003200090726B6348134600681433403079
:10845000417A607C00E0AAE008F0CAFE617C50200E
:1084600041435D480818C26D3F2109028A43272114
:1084700009025118C165617C502041435648803043
:10848000081841680A022521120A0906511841609C
:10849000286A08F0F1FE012802D0607C08F0FCFE9A
:1084A000207C40074AD5474B4E4807934B4A4C49DE
:1084B00004AB07C30123696AE8680622009000E064
:1084C00041E001A80EC0A07C03220F9B089908F090
:1084D0000FFD032000903F48B26B00681346403008
:1084E000417A1433A07C08F083FEA17C50204143E4
:1084F00039480818C26D3F2109028A43272101E04B
:1085000026E029E009025118C165A17C50204143B1
:1085100031488030081841680A022521120A0906EC
:1085200051184160A07CFF2800D137E7686A08F045
:10853000A3FE012802D0A07C08F0AEFE78790128C5
:108540002BD0002523E00020E071122011B0F0BDF7
:1085500007200021E171F9E7207C0725C00702D040
:10856000607C09F051F80020E0712846EEE7A80091
:108570003058019008F018FE0090FF2802D0032127
:1085800009F04EF8019900986D1C4871EDB2A07E7B
:10859000A842ECD87879012803D1E0790221084378
:1085A000E071E07901210843E0710D98CEE7C00742
:1085B00000D1D5E609F03AF800200D90C6E700009A
:1085C000DC0500005B480410F5BE061025BF061050
:1085D0000DBF0610B81100208000002001BF06105A
:1085E0002FBF061019BF0610F8B503F0BFFD0546F2
:1085F000FF35FF2009350026009005F01EFC2249BA
:108600002C464718FF342134207CC0070ED0607CF4
:10861000FF280BD009F01AF8607C0090A020405988
:10862000394609F020F8002800D00126207C4007B8
:1086300010D5A07CFF280DD009F008F8A07C009090
:10864000A4204059394609F00EF8002801D001262F
:1086500000E00026E07980070DD4002708E0B8008C
:1086600028584079FF2801D008F0F0FF7F1CFFB2A6
:10867000A07EB842F3D8002E04D0009808F0F8FF8E
:1086800001202076F8BD0000FE1F0000FEB503F0BB
:108690006DFD0446FF340934074626460020803627
:1086A000B062F06201223046A030029001460276AC
:1086B000E51DF9355522D200B8186F61A8610A7915
:1086C000D00715D036480068893001460090204612
:1086D000E43006F0BAF8706EF066B06E306731487C
:1086E00006223918009808F0EFFF0020FF2107E06C
:1086F0002D480068E9E78200A258401C1171C0B201
:10870000029A927E8242F6D8002603200090B000A2
:108710000719AA694D230021786B08F017FC032183
:10872000224801910090786B6A694D230021143032
:1087300008F050FC786B2030C17804221143C170DE
:10874000786B2030C17820221143C170761CF6B2BC
:10875000022EDAD303260096AA694D230021E06B8E
:1087600008F0F4FB7D20000101960090E06B6A693F
:108770004D230021143008F02DFCE06B2030C1782F
:1087800040221143C170E06B2030C1782022114398
:10879000C17002992520087502994875FEBD000038
:1087A000B8110020AA020000AC1100201027000020
:1087B000F0B59FB0054603F0D9FC0446002008A997
:1087C00005900870199001201890FB482E4600680B
:1087D000FF34FF300130017EF84818360068093454
:1087E000002801DA012911D040067DD5002018901B
:1087F000E06B017E4908490001762878401C28700A
:10880000EF484168802211434160A0E100200190BF
:10881000E01DF93003904769B878800601D0012047
:108820001990287950214843E54940394018C06DD6
:108830004000400F1A90042801D102201A902846C7
:108840000C301999009000292AD02878062801D1E7
:1088500005F008FA00200290F878C00706D0002042
:10886000A875697D009808F04BFF0290F8788107A1
:1088700001D4019810E0C007387803D0C209394606
:108880000A3101E0C209391D1BA805F0DEFF697D30
:108890001BA808F077FF019002990843FF2809D030
:1088A00003984069844600780007000F072802D02B
:1088B00008287DD0D2E00CAB04930BAA0DA90AA81E
:1088C00001AB07C309A800901DAB16AA15A9604605
:1088D00008F079FF179000280BD12878002808D1DC
:1088E00020466978FF3000E0FFE02330085C012873
:1088F0007CD005F0B7F9E06B017E012211430176CF
:1089000010A8007DE87005921798009028795021F2
:108910004843AB4940394018C06D4000400F0190BA
:1089200002A808F0B7FF019804286FD0122002991E
:10893000091A00980818009008A8017C179808F0F8
:10894000B5FFA049179A4143090A002A02D0009AAC
:10895000101A009008027D2109034018010198486F
:1089600009090269984B1A4011430161287900995D
:1089700008F0B0FF012108A8017014A8009013AB03
:1089800008AA2846179908F0ABFF23462A460599FE
:1089900009F01AF8189010A8017C027B08A8007D45
:1089A000059004970692079108A81BAB017B00E095
:1089B00051E00079199A6F460FC708A8037A10A8EA
:1089C000027E2846179909F029F87068109008A8C7
:1089D0000079B16800060143119130780022010747
:1089E000C90F4006800F27D027E0FFE7B87881093C
:1089F000C0D0800902280AD0012200211A9809F06B
:108A000065F800280ED005202870B3E712E0012297
:108A100011461A9809F05AF8002801D00320F3E70C
:108A20000020287005F01EF9E06B017E0122114341
:108A300001769FE79D207AE7012210A809F0EEF861
:108A4000002803D0002008A9087000E00120FF21C1
:108A5000293108557BE02878062808D005F002F96E
:108A6000012023462A46059908F0AEFF6FE005F085
:108A7000F9F81A980622800000190290806A391DC0
:108A80000830FEF775FC02982746806AFF37844657
:108A90002137F87D012815D0009B4C48099303939A
:108AA000002201216B4607C32B79B97B604609F090
:108AB0002BF9099809F004FD0220F875FF20B8731E
:108AC0000020F871787CFF2801D008F0BFFDB87C49
:108AD000FF2801D008F0BAFD287909F017FDFF2022
:108AE0002871687908F0D8FB31E005F0BBF8E16B3C
:108AF0000A7E012002430A7623462A46059908F099
:108B000063FF2878042802D1204609F01AFD28784E
:108B1000112803D0142801D0012818D12146FF3193
:108B20002131087A002812D030789F22104040224C
:108B3000104330700020FF343077013460693062B8
:108B4000887BFF2835D13378317F00222EE008A8BA
:108B5000007800282DD0307F00273378E52803D90E
:108B6000E538C7B220200343FF342134A07BFF281F
:108B70000DD1A87D012803D17068FF2108437060E2
:108B8000307F0022C01BC1B23046FCF742F9002FF3
:108B90000FD0A07BFF280CD1A87D012803D17068DD
:108BA000FF21084370603378E52239463046FCF7F0
:108BB00030F918981FB0F0BDB8110020B411002092
:108BC000C000002071020000FF0000F0FFFF000065
:108BD000FFB597B006460AAB09AA14A90EA801ADC5
:108BE0000FC50FA80090F01DF930159000244069C2
:108BF00013AB08AA0DA908F0E6FD054611901898D8
:108C00008000C7B2169012A808F044FE042F25D0A9
:108C100012201299081A4019109008A8017A119888
:108C200008F044FE8249119A4143090A002A02D001
:108C3000109A101A109008027D21090340180101B2
:108C40007C48090902697C4B1A40114301610020EC
:108C50003546FF350746213500901AE09D20D8E7BC
:108C6000B8003058FF2201792D32FF290FD08368D8
:108C70001099591A00D54942914208DA0446012058
:108C800000901099A1602079109908F023FE7F1CB4
:108C9000FFB2A97EB942E3D8009800280DD11198FF
:108CA00000280AD0002006E08200B2581279FF2A7C
:108CB00064D0401CC0B28142F6D8287E002854D02F
:108CC000002C52D06079FF284FD020715B4F5E4955
:108CD00007975B4B5B4A04AF0EC708221099092720
:108CE0005A4B03920191029700930322214608F008
:108CF000FFF8032000905648F26B0068134640309E
:108D0000417A1433207908F073FA52A103C90C9107
:108D10000B902079474F502148434037C019816854
:108D20008AB26946898D09040A4382600BA8023021
:108D3000FCF7ECFC810220795022890A5043C019CB
:108D4000C268920D92051143C160207950214843B9
:108D5000C0194168FF2212061143416008A9087D2D
:108D6000E0700878A07018986070287E002808D0FD
:108D7000002C06D020798021084303E0800034587D
:108D80009BE7FF2008F088FA05F057F8014616988F
:108D900080198030026A891A826A51188162002023
:108DA000E874002C2BD008A8007818A9844608A8DD
:108DB0000EC907790020109D2070A560254620353A
:108DC0006075EF712076A275002B06D0209B1B6882
:108DD000E362209B5B68236301E0E0622063002A7A
:108DE0001FD0E06120624800401C28716046401C92
:108DF000687115984069C0788007C00F2075119878
:108E000000280CD108A800796B461A9A209907C34C
:108E100008A8037F017E3046199A09F0BCFB1BB0FD
:108E2000F0BD15980068E06115984068DAE7000029
:108E300071020000C0000020FF0000F03355041054
:108E4000FF4D0410BDA40610ADA80610581B00006D
:108E5000B8110020FFFFFFFF1F00000070B5066A79
:108E60008AB0057DB2180646153607960695099212
:108E7000089110250F22002645578256817B0596C2
:108E800002AE26C61C46031D417B007B00900948AC
:108E9000019100681A782030007BC00701D00020C3
:108EA00000E01020A121084321465B1C09F0D6FBFD
:108EB0000AB070BDAC11002070B505460C460846DE
:108EC00007F0A4FF06462946204607F0B5FF616D6E
:108ED0003018814201D2452070BD002070BD1CB504
:108EE0006A46107000A806220130FBF744FC684671
:108EF00009F012FC1CBD70B58AB01D46164600284C
:108F000004D0012802D012200AB070BD6A46107049
:108F10006C460622601CFBF72EFC10223146E01D39
:108F2000FBF729FC05A8102229460330FBF723FC98
:108F3000684609F091FCE7E710B509F047FE10BD5F
:108F400010B5002803D0012801D0122010BD09F06F
:108F500065FE10BD1CB514466A46107000A80622B6
:108F60000130FBF708FC22466946002009F072FE3A
:108F7000022800D000201CBD1CB514466A461070A3
:108F800000A806220130FBF7F6FB224669460120C5
:108F900009F060FE022800D000201CBD10B5044678
:108FA00009F0ACFE2070002010BD10B509F0B2FE33
:108FB00010BD10B509F004FF10BD70B50446E120E6
:108FC0000D46800009F002FE012009F04BFF002849
:108FD00001D0862070BD2078202108432070092010
:108FE0002870002070BD70B504460E46002088B081
:108FF0001546E10705D011463046FCF746F9002832
:1090000016D1A10714D56A462946304609F02EFF2D
:10901000002804D0102200216846FBF7B2FB04A808
:1090200009F038FF04AB6A4629463046FFF763FF74
:1090300008B070BD10B504460020E10703D0FCF76E
:1090400020F9002803D1A10701D5FFF7AEFF10BD1D
:10905000F0B585B004F0F1FEC94F05243968E4018C
:109060008031CA6D4F2314192668DB0005249B58F4
:10907000E4011419C31A64680025F3186C4105252E
:10908000ED0155192B600523DB01D2185460CA6D20
:109090009D25FF32FF3202329067C86D2724C21827
:1090A000AD0024012E581268C318245815255B689A
:1090B0006D01121BB34133D305240023E4010419CD
:1090C0001A4623600523DB01C0184260C86D1321D6
:1090D00049014118097A002922D04019C07800249A
:1090E000002815D9386828218030C06D6143FF30D1
:1090F000FF300230C06D461809F0E0FE306238687B
:10910000641C8030C06DE4B24019C078A042E9D838
:1091100038688030C16D0520C0010818806980471B
:10912000386813228030C16D52018A18D27A002A21
:109130007ED00522D20189188A680192C9680091FF
:1091400003910292C06D152149014118FF30FF3093
:1091500002304978406D09F0BAFE00240646002826
:109160001FD9874861060068890D8030C06D091DD0
:10917000FF30FF300230426D515849004D0E7F2DB7
:109180000BD0C16D282068430F1800233846009A81
:10919000019909F0B4FE002823D0641CE4B2B44263
:1091A000DFD3774C05212068C9018030C36D039A55
:1091B0005B181B7C15251B061A430392C26D6D01BB
:1091C0005218117C491C1174C06D02AA4119FF305C
:1091D000FF3002308978406E09F0BEFEFF287DD056
:1091E000A5E020370097FA79FF2A0DD064481521B1
:1091F000006849018030C06D4118FF30FF300230F7
:109200008978406E09F062FF29060122D20703988F
:10921000114308435A4D0390286815248030C06DCF
:1092200064010119FF30FF3002308978406E00E0A0
:10923000A4E002AA09F090FEFF2854D12868214634
:109240008030C06D4118FF30FF3002308978406EA9
:1092500009F03DFE00210446002810D9286880301E
:10926000C66D9920800080594A06520ED3001B1DFE
:10927000C3581B0E3DD0491CC9B2A142F4D3002CE7
:1092800021D000212A6848068032D26DFF32FF3299
:109290000232566E820D121DB358180E07060DD4F9
:1092A0001B021B0AB3502E688036F66DFF36FF3660
:1092B0000236401E766E00060343B350491C641EFE
:1092C0002406240EDED1286815218030C06D4901A6
:1092D0004118FF30FF308978023000E019E0406E1D
:1092E00002AA09F039FE0099FF28C87100D158E799
:1092F0001DE0152149017118897809F0E7FE2868F9
:109300008030C16D0520C0010818017C491E017420
:10931000B5E709F069FF206802AA8030C06D4119E5
:10932000FF30FF3002308978406E09F015FE144C92
:10933000132521686D018031CA6D01205219D07248
:10934000CA6DFF32FF320232536E106E1366CA6D61
:10935000FF32FF3202325066C96D152252018A185F
:10936000FF311279FF310231D200096EFDF7E6FFBD
:10937000216800208031C96D4919C87205B0F0BD5F
:10938000B811002070B5154606460A68FE201C4C30
:10939000824320684B688030C06D15214901411817
:1093A000FF30FF3002304978406D09F077FF40060A
:1093B000400E7F2822D02168C0008031C96D001D79
:1093C000FF31FF3102314A6D10584000400E7F28B6
:1093D00014D028225043C96D024610328C182368DD
:1093E00062681A43A3681343E2681A4306D0203028
:1093F0000A582B463146204609F071FF70BD000027
:10940000B8110020F8B506460268FE201F4D8243C1
:1094100028680F468030C06D152149014118FF3082
:10942000FF30023073684978406D09F037FF40061D
:10943000400E7F2829D02968C0008031C96D001DE9
:10944000FF31FF3102314A6D10584000440E7F2C2D
:109450001BD0C86D28214C43001902684168114394
:109460008268C0680A4310430FD009F027FD2968BD
:1094700002468031C96D3B46FF31FF310231C96D73
:109480000C193146204609F02AFFF8BDB81100201A
:10949000FFB58BB005460020149C00900E98F14F4C
:1094A0004007C00F079038680E468030C06DFF300F
:1094B000FF300230C06D059028780106090E049136
:1094C00068680AD001028A0F05D00022890F01299D
:1094D00005D0002103E00122F8E7002211460D9B90
:1094E000132758600D982B680360DE487F010068E1
:1094F0008030C06DC3191B7A012B7DD1002A13D097
:109500000798002879D1032E02D0052E05D0A5E1B9
:10951000012C72D0032C04D1A0E1022C6DD0032CBD
:109520006BD001200FB0F0BD002965D07F216A46C5
:109530001176002109910191152149014118FF304F
:10954000FF30023089786B682A68006E09F0A6FE49
:10955000FF2819D0C34940060968800D8031C96DC4
:10956000FF31FF310231096E001D0858000E01065F
:1095700003D401200990002004E04006400E694613
:109580000876012001905BE0032E01D0052E57D113
:10959000B44800688030C06DC119C97A00290CD167
:1095A0005121C9004018294609F0E2FEAD490120C9
:1095B00009688031C96DC919C872052E1DD1AA4923
:1095C0001698884202D00E98C00616D506A80590B7
:1095D000002007460890A34801688031CA6D152114
:1095E00049015218D278002A28D99E480068803054
:1095F000C06DFF30FF3001E096E0A4E00230C16DA5
:109600002820784308182421095C01290AD1012364
:109610006A68296809F073FC002803D101200890CA
:10962000059807708F487F1C0068FFB28030C16DBD
:10963000152040010818C078B842D6D80898009084
:109640000798022500282AD00099019808437AD06B
:10965000844C69462068097E8030C06D2823FF3025
:10966000FF3002305943C26D2631515C406DCE004F
:1096700081190D9809F07CFE206807228030C06DAA
:109680001599FF30FF300230406D8019FDF7AAFEBA
:10969000002858D10D9800780FB02843F0BD0998E4
:1096A00000280BD0012C07D0032C07D0032E38D074
:1096B000022C03D0032C01D0052E32D00099019842
:1096C000084328D0674869460068097E8030C06D2D
:1096D0002823FF30FF3002305943C26D2631515CE0
:1096E000032E02D0052E05D008E0012C06D0032C55
:1096F0000AD103E0022C01D0032C05D1CA00436D2E
:10970000121D9A58002A1EDA406DC90009180D98DA
:1097100009F02EFEBEE7022C15D0032C13D0052E27
:1097200011D1FE200FB0F0BD11430DD007990029D3
:109730006AD0159829680068814204D11598696833
:10974000406881424BD089E0002106910F461521E7
:1097500049014118FF30FF30023049786B682A68B0
:10976000406D09F09BFDFF282BD03E49C0000968E1
:10977000001D8031C96DFF31FF310231496D08583C
:10978000000EC1094006400E06917F2819D02822FC
:109790005043059A01218018036842681A43836880
:1097A0001343C2681A4303D02030407901280AD0FD
:1097B00000270798002813D0002906D0002F4DD18C
:1097C00003E00021F5E70127F3E715982968006811
:1097D000814243D115986968406881423ED13AE0A0
:1097E000012C01D0032C01D1032E05D0022C01D075
:1097F000032C04D1052E02D1069800282ED0002972
:1098000029D0002F2AD126E0012C01D0032C01D130
:10981000032E05D0022C01D0032C1CD1052E1AD109
:10982000152149014118FF30FF3002300D4C4978B5
:109830006B682A68406D09F031FDFF280ED0216861
:10984000C0008031C96DFF31FF310231496D001D0B
:109850000858C00F02D004980FB0F0BDFF200FB021
:10986000F0BD0000B8110020FCFF0000FFB583B080
:1098700005460C980C46C007C00F0C90EB480D9E97
:1098800001688031C96DFF31FF310231C96D02912C
:10989000296821606968616029780F9AC907C90F32
:1098A0000191FF211170006813218030C06D4901C2
:1098B0004118097A2A68012954D0D10706D06B686B
:1098C00019028F0F012F7DD0890F7BD015214901FF
:1098D0004118FF30FF30023049786B68406D09F065
:1098E000DDFC7F210027FF2823D0D049C000096874
:1098F0000F9A8031C96DFF31FF310231496D001D72
:109900000858010E4806400E1070C243520610D08F
:1099100028225043029A8018036842681A438368D9
:109920001343C2681A4303D02030407901287DD008
:1099300000270E9801287AD0012E79D0032E77D0F7
:109940000598012875D02078C1070C98C90F81426D
:1099500070D106990622601C491CFDF743FD0028C2
:1099600068D118E1D107B1D06B6819028F0F012FB0
:1099700016D0890FAAD1012E5CD0032E5AD005989B
:1099800001287DD0D1070C98C90F814252D1069988
:109990000622681C491CFDF725FD002871D01AE13C
:1099A0000E99012922D0152149014118FF30FF30BD
:1099B00002309E4F8978006E09F070FC0146FF204E
:1099C000002200E0EDE0FF297ED03B6849068033AD
:1099D000DB6D890DFF33FF3302331B6E091D5958B0
:1099E000090E0B0656D40122002156E06946029169
:1099F00000210E460191152149014018C0788B4F76
:109A0000002817D938688030C06DFF30FF30023031
:109A1000C16D2820704308182421095C012910D148
:109A200001236A68296809F06AFA04E0A1E0A2E06B
:109A3000ACE0B3E060E0002803D10120019002987F
:109A400006703868761C8030C16D152040010818FA
:109A5000C078F6B2B042D5D8019801284CD16946F9
:109A60000F9809780170386869468030C06D0978B0
:109A7000FF30FF300230282359432631C26D01E008
:109A800043E073E0515C406DC9004118204609F085
:109A90006FFC37E04806400E01210F9B002918702B
:109AA00035D0396828238031C96D5843FF31FF31E3
:109AB0000231CA6D2630105C496DC000021D8A5803
:109AC000150E0918204600E017E009F051FC012EA0
:109AD00016D0032E14D00598012813D02078C10782
:109AE0000C98C90F814276D106990622601C491C48
:109AF000FDF778FC002805D06DE00F9B18701EE084
:109B0000E80968D02078801CC0B207B0F0BD002AF8
:109B100015D0012E5FD0032E5DD005980128F4D01A
:109B20002078C1070C98C90F814254D106990622AA
:109B3000601C491CFDF756FC002817D04BE0386824
:109B400013248030C06D64010119C97A3E46002992
:109B500041D15121C9004018294609F009FC31685A
:109B600001208031C96D0919C87234E0012007B0A5
:109B7000F0BD0127DDE62068296888422BD16168A5
:109B80006A68914227D1002F25D121E0C80922D04F
:109B9000002F20D13DE0002F1DD13AE0002F1AD137
:109BA00037E00E9901290DD0012E17D0032E15D0C4
:109BB000059801282DD02078C1070C98C90F814243
:109BC0002AD008E02068904205D16168994202D10C
:109BD000C0B207B0F0BDFF2007B0F0BD15214901AC
:109BE0004118FF30FF3002300024104D4978406D9D
:109BF00009F054FBFF280AD02968C0008031C96DE4
:109C0000FF31FF310231496D001D0858040EE00993
:109C1000E1D0019807B0F0BD06990622601C491CEE
:109C2000FDF7E0FB0028F4D0D5E70000B8110020D4
:109C3000F8B50D461F491446096813228031C96DD5
:109C400052018A18167A4268012E09D10668B44674
:109C5000F60705D01602B70F012F0CD0B10F08D0B0
:109C600061688A4205D1216800680E2291438842CA
:109C70001CD0FF20F8BD5806400EFF280DD0FF3144
:109C8000FF3102312823C96D58430818012361466A
:109C9000103009F034F9002803D06808E9D0FE201C
:109CA000F8BD2078C007C00F801CF8BDC007C00FEA
:109CB000F8BD0000B8110020F8B5234C132520682A
:109CC0006D018030C06D05264119497AF6010027E3
:109CD000002918D08019C0698047002813D1206856
:109CE00015218030C06D49014118C978FF30FF301F
:109CF000CA000230416D806DFDF720FB2068803086
:109D0000C06D4019477220688030C06D4119897A52
:109D1000002918D0801940698047002813D1206895
:109D200015218030C06D49014118C978FF30FF30DE
:109D3000CA000230816D406DFDF700FB2068803065
:109D4000C06D40198772F8BDB8110020F8B55B4CA2
:109D5000152520686D018030C06D28224119FF3023
:109D6000C978FF3002305143C06DFDF721FB2068F8
:109D7000FF228030C06D4119FF300979FF30023079
:109D8000C900C06CFDF702FB2068FF228030C06D67
:109D90004119FF300979FF300230C900006DFDF72D
:109DA000F5FA236800278033DE6D7019C178002929
:109DB00031D0C9070020C90FFF22002906D0FF3685
:109DC000FF360236F06D272682550120DB6D5B19C8
:109DD000DB788B421FDD236828268033DB6D46430A
:109DE000FF33FF330233DB6D27369A55236828266D
:109DF0008033DB6D401CFF33FF330233DB6D4643A2
:109E000027369A552368401C8033DB6D891C5B190B
:109E1000DB788B42DFDC206805228030C16DD20107
:109E200089180F74C16D2723FF31FF310231CA6CCD
:109E30000A66C16D1B01FF31FF3102310A6D4A66AE
:109E40001322C16D52018918CF72C06D1C4A1A507D
:109E5000FF30FF3000210230416703F0EEFF216840
:109E600005268031CA6DF601FF32FF32023290675B
:109E7000CB6D00229E19104632600522D2019A183D
:109E80005060C86D00264019C078002815D9206898
:109E90008030C06DFF30FF300230C16D282070432C
:109EA0000F1809F00BF838622068761C8030C06DFE
:109EB000F6B24019C078B042E9D8F8BDB811002018
:109EC0000000F915FFB58DB01C4604210820199F2C
:109ED0001B9E1A9DFDF754FB002816D11D991C9856
:109EE0000491039000970296019505A8189B0E9A7D
:109EF0000D9909F045FA002807D10F9808A90871B3
:109F0000002804D0012802D0122011B0F0BD4C71FD
:109F1000012C05D0002C03D0022C01D0032CF3D14E
:109F200009A8062202301699FAF725FC08A9179805
:109F300008730320C04608A9097B8142E4D801299F
:109F400001D0032907D1684607F024F9684609F0D3
:109F50004BFA0028D8D06D1C7D43B0008542D3D287
:109F600005A809F04DFAD0E77CB50C46054604215A
:109F70000820FDF705FB002804D1012D03D0002D9A
:109F800001D012207CBD012C01D0002CF9D101217F
:109F90006846417105704470002141800171FAF7F3
:109FA00022FF7CBDFFB583B00E460746154604214F
:109FB00008200C9CFDF7E4FA002804D1002F04D0FF
:109FC000012F02D0122007B0F0BD1248311F81428C
:109FD000F8D2291F8142F5D2B542F3D8002C05D022
:109FE000012C03D0022C01D0032CEBD10320C0465E
:109FF00006998142E6D86846C7708680C580069972
:10A0000001704470012181700021017209F02CFA65
:10A01000D9E70000FD3F000010B509F035FA10BD8A
:10A02000F0B589B00EAF70CF04AF03976F4670C71D
:10A0300009F084FA002802D104A809F0B1FA09B0A5
:10A04000F0BD70477FB51D460E46044601F04CFE3C
:10A0500007498C4209D8FF2807D02B4602AA31466F
:10A06000204609F0CFFA04B070BD0220FBE70000E3
:10A07000FF0E000010B509F011FB10BD7FB56C4656
:10A08000099E089D207261720020A0722580668062
:10A090002371694602A809F041FB04B070BDF0B518
:10A0A00085B00C460AA9E0C969460C804A808B80BD
:10A0B000CD800E814F8101220A730146684609F066
:10A0C00059FB05B0F0BD13460A4610B501464020C5
:10A0D00009F07EFB10BD1CB5002200920192030026
:10A0E00004F0A6FB060406080A0C0E13012008E083
:10A0F000022006E0042004E0082002E0102000E036
:10A1000020206B4609F064FB1CBD82201CBD134659
:10A110000A4610B50146802009F05AFB10BD10B563
:10A12000030004F085FB080507090B0D0F11131739
:10A1300001200CE002200AE0042008E0082006E0EC
:10A14000102004E0202002E0402000E0802009F000
:10A15000A5FB10BD822010BDF0B589B00EAF70CF49
:10A1600004AF03976F4670C709F0E8F9002802D1E1
:10A1700004A809F0D9FB09B0F0BD704770B5002202
:10A1800005461346FDF74AFE0446002D06D1044855
:10A190001C220168C86A0021FAF7F3FA204670BD54
:10A1A000BC11002010B5012209F0CEFB10BDF0B5A6
:10A1B00085B06C460A9F0B9E0E9D20806180A28018
:10A1C000E380278166810C98A0812A4668460D9914
:10A1D00009F066FC05B0F0BD38B50F4A1468234697
:10A1E0006C334834E27C150601D500280FD0DC2002
:10A1F00002400BD06846027000214170694602207F
:10A2000009F09FFCE07C23210840E07438BD012068
:10A210002075598038BD0000BC1100200022007854
:10A22000012906D0002806D0012804D0042802D035
:10A2300002E0C00700D0012210467047F0B50022AE
:10A2400087B00F46019211460092012F03D001788A
:10A25000042918D018E002880446100718D4E57DB8
:10A26000E01CA6690190A0780090D00605D40022D9
:10A270000099019809F094FC014600290BD00125B2
:10A28000012F5DD06AE00122057AC668002A02D05B
:10A29000012007B0F0BD3249284609680025012297
:10A2A000283108E0B35C012B0AD0B318203BDB7FD8
:10A2B0009A18521C92B28242F4D3012F11D04DE071
:10A2C000521C90B23322525CD30702D0305CC007DC
:10A2D00003E09207F1D5305C80070028EDD001251E
:10A2E000EBE7002D3AD02088C20637D44006800F15
:10A2F000012833D101980590009804900020069021
:10A300004F680546E800401BC6B20020029003904B
:10A31000B819072202A9FAF73EFA0006000E05D086
:10A320006D1CEDB2042DEDD3069D17E0B819012583
:10A33000064606220599FAF71EFA0498B07101E064
:10A3400001290BD120784006810F02D0800F02280E
:10A3500004D101220099019809F022FC284698E7CF
:10A36000BC11002038B51048002104680846283484
:10A37000FAF737FE694648702034E07CC10704D004
:10A3800001216A4611708843E074C0B2810705D587
:10A3900002216A461170FD210840E07469460220DE
:10A3A00009F0CFFB38BD0000BC110020027809077E
:10A3B000090F0A43027000207047704700B585B04E
:10A3C000142207496846FCF7B9FF06486B46006847
:10A3D000054A6C304088012102F002FE05B000BD44
:10A3E00068BD0610BC110020FFFF00007FB5AC2146
:10A3F0008172817B05468A072A350446002A09DADC
:10A40000102200216846FAF7BCF969462B460A4635
:10A41000AD250FE0C80701D1480719D521464A31BB
:10A420002246E07A5232000701D52B4601E023464E
:10A430003A33AE2520890005000D09F0E3F8002825
:10A440000BD03A2801D00C2800D1002004B070BDF8
:10A45000C808C000A0738520F8E7A17BCA0703D015
:10A4600010221143A173F125C9B2C908C900A17313
:10A47000A572EBE710B57421095CC9070BD1817A8D
:10A48000A42909D0AC2916D0AF2904D1417F0029D5
:10A4900014D0D021817210BD04461021543009F02F
:10A4A000ABFBE07A0007204602D5FAF73CFE10BD70
:10A4B00009F0B2FB10BDFAF7CAFD10BD09F0DFFBD1
:10A4C00010BD10B504684168A268FF20137B8A7A2A
:10A4D000002A0DD0F12A0BD0A12A0FD0A52A13D023
:10A4E000A62A04D1042B02D1204609F0E5FB10BDB9
:10A4F0000B2BFCD1204609F051FC10BD022BFCD1E6
:10A50000204609F08DFC10BD032BFCD1204609F03C
:10A51000BDFC10BD10B50146807AA92802D10020EB
:10A5200009F0B4FC10BD08B56B4619805A8000993B
:10A5300009F0D8FC08BD10B509F0FCFC10BD10B541
:10A5400009F004FD10BD10B509F030FD10BD7047D5
:10A5500010B50249062009F03AFD10BD6D4F0610F6
:10A5600038B5890612D5044609F03AFD028B6946D2
:10A570000A80408B4880E08E009909F0B3FC3A28AD
:10A5800004D08034206820218843206038BD704783
:10A59000FFB581B01E461746002409F021FD05468F
:10A5A00001981B2800D230240120C046012840D049
:10A5B0001B210198814200D23024FF2102984931A9
:10A5C000884200D230240120C046012833D0012027
:10A5D000C046012837D0FF2149310298814200D27C
:10A5E00030241B2F00D230240120C04601282DD05A
:10A5F0001B20B84200D23024FF204930864200D2CE
:10A6000030240120C046012822D00120C046012864
:10A6100026D0FF204930B04200D2302472B60198D3
:10A62000288402986884AF84EE8462B6204605B020
:10A63000F0BDFB21BDE70120C046012801D00A4939
:10A64000CBE70A49C9E7A9210901C6E7FB20D0E702
:10A650000120C046012801D00348DCE70348DAE7BF
:10A66000A9200001D7E70000480800009042000040
:10A67000F8B5077904468668384601F04BFD054673
:10A68000384609F0B9FC002813D08079042810D18D
:10A69000A96C700288420CD024682B4622463946A9
:10A6A000304609F0C1FC2B4622460121384609F00C
:10A6B000F9FCF8BDFEB507790668384601F02AFDB9
:10A6C0000546384609F098FC002819D080790428FE
:10A6D00016D12C468034E18DB08C814210D0E085BB
:10A6E0002B4632460021384609F0DCFC218EA08D35
:10A6F00000900191E38D228DE98E802009F0F8FC15
:10A70000FEBD7047F8B50468007901F003FD03460B
:10A710008030C18E028F914200D31146A9221201CE
:10A72000E180914200D21146A181858E418F8D42F8
:10A7300000D22946A1800025164614E0002D12D033
:10A74000A189828D97013D221201BA188A4200D850
:10A7500011460E4F9A6CFF317A43120A2D318A420C
:10A7600003D9521A02E0E188EBE70022A188914266
:10A7700000D20A4692B231468A4200D311466A009C
:10A7800012196D1C1181022DD8DBF8BD7102000079
:10A7900010B5042901D9822010BD09F0E1FC10BDDB
:10A7A00010B5002903D0012901D0822010BD09F085
:10A7B000F7FC10BD10B50C4800240068603001792A
:10A7C0008A070ED402221143017172B6074800684D
:10A7D00081784906490E817062B609F0FBFC0128B8
:10A7E00000D13A24204610BDB8110020B01100203D
:10A7F00070B51C4C064622686420805C002590B031
:10A80000800701D53A2522E020210020A83209F056
:10A8100017FD002801D01F2519E040223146684667
:10A82000F9F7A9FF20680223014660310A79A830B0
:10A830001A430A71694609F015FD01280AD072B65B
:10A840000948006881784906490E817062B6284639
:10A8500010B070BD2068122560300179FD221140D2
:10A860000171F4E7B8110020B0110020F0B5574D88
:10A8700091B0286860300079800771D5544800682D
:10A880008007C00F6DD00024012009F017FD064697
:10A8900003F0CDFC012800D1032430007ED0022734
:10A8A0004C4E012802D0022878D13CE069460220B3
:10A8B00009F00EFD032008A909F00AFD002C04D1BF
:10A8C00029680120A83109F003FD30682030007BA1
:10A8D000C00701D0002600E0102668463E43112341
:10A8E0001090F00603D50B22BF20064008E0286830
:10A8F0006030017C890659D5407E000656D5092274
:10A900003007000F032851D281003348006808182F
:10A910000069314602F0FAFF070047D0381D3C714C
:10A920004022109939E06946022009F0D1FC002C40
:10A9300004D02022FF216846F9F723FF3068203039
:10A94000007BC00701D0002600E0102668463E4389
:10A9500009230890F00605D50C22BF2006400AE026
:10A960002AE031E028686030017C89061ED5807EAF
:10A97000C0071BD00A223007000F032816D281001F
:10A980001548006808180069314602F0BFFF07004B
:10A990000CD0381D3C712022089900E006E0401CD4
:10A9A000F9F7E9FE3946304603F00AF82868FD2237
:10A9B000603001791140017172B608488022006848
:10A9C00081781143817062B611B0F0BDB8110020DA
:10A9D00000003048AC110020C0110020B011002050
:10A9E00010B5012815D10B4C0823216808464031C9
:10A9F0008A7968301A438A7120220749F9F7BBFE29
:10AA000005492068202220318830F9F7B4FE09F08A
:10AA100063FC10BDD011002044AA061030B50446D6
:10AA2000C07A0025000711D5208909F063FC0028B1
:10AA300001D008250AE0E07A01210843E0720448C9
:10AA4000042200684030817911438171284630BD6D
:10AA5000D011002010B50B4C2068403080794106A1
:10AA60000ED5902108420BD1FFF7A4FE002807D194
:10AA70002168BF22403188791040802210438871BC
:10AA800010BD0000D0110020F8B5144E002432682B
:10AA900040212046683209F0D3FB054610482021AA
:10AAA00002680020A83209F0CBFB01462846084383
:10AAB00001D006240FE030681021483009F09CF8DE
:10AAC0003168002308460A46583068310090483201
:10AAD000084609F031FC2046F8BD0000D0110020E6
:10AAE000B811002070B504680579E07A000735D503
:10AAF000208909F0FFFBE17A49084900E172184C0E
:10AB0000002805D12168FB2340318A791A408A71D7
:10AB1000002D07D021684031CA791032CA7100284F
:10AB200006D009E020684030C179491CC17103E0BA
:10AB30008879CF2210408871206803214030C07985
:10AB400005090007000FFCF783FC4019032805D313
:10AB500009F01AFC206800214030C17170BD00006E
:10AB6000D011002070B50D4C0D462268403291790D
:10AB70004906490E9171002802D009F005FC70BD0C
:10AB800009F00EFC002802D009F0A6FB70BD206879
:10AB9000402229466830F9F7EEFD70BDD011002043
:10ABA00070B51B4D46222B68D25CD2062AD50028F0
:10ABB00006D01849002009682031097D803324E03F
:10ABC00018462022FC30F9F7D6FD286820224030B4
:10ABD0008179114315E07C229C6A4243A41812D06B
:10ABE0002289002A0FD0E27A12060CD50123002216
:10ABF0000B21204609F0DEFB2868CF224030817906
:10AC00001140817170BD401CC0B28142E3D870BD5B
:10AC1000D0110020AC11002010B50B4A0168126859
:10AC20008968403292784068C97B022A03D10A07BA
:10AC300001D4032010BD1823C27ADB4319430A4014
:10AC4000C272FAF754FA10BDD011002010B5C17FBE
:10AC5000012908D0042906D0022907D0032901D1EF
:10AC600009F0BEFB10BDA521817210BDC17B491C3E
:10AC7000C17308F0D1FF10BD10B5C17F012908D004
:10AC8000042906D0022909D0032901D109F0A8FB23
:10AC900010BD0146002009F0E9FB10BDC17B491C35
:10ACA000C173B521817210BD38B514C8D07F022898
:10ACB0000FD10848D17B0068491EC36B0094CB407C
:10ACC000DB070146DB0FBC3168305432803309F0BA
:10ACD00033FB38BDD011002038B514C8D17F002314
:10ACE000032904D00C480229006804D00AE0AA20F5
:10ACF0009072EB2038BDD17BC36B491ECB40DB0784
:10AD0000DB0F803301466831BC306432009409F0B7
:10AD100013FB002038BD0000D01100201CB50446F4
:10AD2000C07F042806D0AA21022820D0012800D103
:10AD3000A1721CBD01A8009010482346006822465D
:10AD4000014664335432BC31683009F0CCFBB92081
:10AD5000A07201A809F0F3FB0949FCF779FB2089EF
:10AD60000A460105090D022009F0F4FB1CBDE07B39
:10AD70001428DDD2A420A0721CBD0000D011002038
:10AD800040420F0038B514C80A48D17F002300683C
:10AD9000022906D1D17BC36B491ECB40DB07DB0FF9
:10ADA00080330146BC3168306432009409F0C4FA43
:10ADB00038BD0000D0110020FEB504684168029142
:10ADC0008668C568BA20287000203060E17F1F487F
:10ADD00004291ED002291BD10068E77BC16B7A1EB3
:10ADE000D140CB07029900910146DB0F2246543235
:10ADF0006831BC30803309F09FFA214610222A3195
:10AE00000298F9F7C8FC3060142F01D2B4202870E2
:10AE1000FEBD01A900910068234601462246643325
:10AE200054326831BC3009F05EFBB920287001A8AB
:10AE300009F085FB0649FCF70BFB20890A46010552
:10AE4000090D022009F086FBFEBD0000D011002094
:10AE500040420F0070B504461748012502684021A2
:10AE60000020683209F0ECF90646144820210268F7
:10AE70000020A83209F0E4F901463046084303D027
:10AE8000002509F081FA0EE0E07AC1434906890FF6
:10AE900009D07421095D0025C90706D0400602D5F6
:10AEA000204609F085FB284670BD8106FBD49B2116
:10AEB0000840E072F4E70000D0110020B811002033
:10AEC00010B50446807AAA280BD0BA2809D0B92830
:10AED00010D07420005DC00702D12046FAF7C3F8F5
:10AEE00010BD204609F09AFB0028F9D0012300226A
:10AEF0000B210DE0E07F0428F2D1E07E410602D56F
:10AF0000BA20A07210BD0006FCD5012300220C213E
:10AF1000204609F04FFA10BD10B5036841689A68E1
:10AF2000FF20147B8A7AA22A0BD0B22A09D0AB2A3E
:10AF300001D0BB2A04D10D2C02D1184609F0C2FB66
:10AF400010BD0C2CFCD17422525CD207CA7A05D0F9
:10AF50005206F5D4184609F0EFFB10BD9206F9D45D
:10AF600010BD704770B5026841689268FF20137B7E
:10AF70000E2B13D1CB7ADB0610D5CB7F022B0DD154
:10AF80004B7E022B0AD174235B5CDB078B7A06D0E5
:10AF9000B22B0AD0B42B08D0B52B06D070BDA22B93
:10AFA00003D0A42B01D0A52BF8D1088902240605D3
:10AFB0000C48360D0068557B8030807801234006B0
:10AFC0000DD50948252200682146806902F09EFCC3
:10AFD000010004D08E808D71204602F0F1FC00202B
:10AFE00070BD0000B8110020C0110020044B10B546
:10AFF000984201D9022010BD09F0F4FB10BD0000F9
:10B00000FF0E000010B509F004FC10BD7CB56C46C5
:10B01000069D208021716271A3716580019900985D
:10B0200009F01DFC7CBD10B500F0B2FE10BDFEB5F0
:10B0300015460E4607461C460C2200216846F9F7C5
:10B04000A0FB6846077046708570C4706B4607CBDE
:10B0500000F0B2FEFEBD704710B50249072008F0AF
:10B06000B6FF10BDDD1C0610F8B5064601F052F81B
:10B070000446304608F0C0FF254603468035A87BCD
:10B0800080063BD5304609F033FC002803D0587ABF
:10B0900000280AD108E0187A002800D19879987120
:10B0A000597A002905D103E098799871197AF8E75F
:10B0B000D979D9719879042821D04008042900D081
:10B0C00049082034637F502253430F4A9E18F36D82
:10B0D00007273F064007BB4340090343F365607FF2
:10B0E000502358438218D06D3B01490798434908C3
:10B0F0000843D065A87BDF210840A873F8BD1A88F3
:10B10000012ADBD10620D9E78000002010B508F025
:10B1100067FF0146072220308273C27302208885B0
:10B12000002010BDF8B5054608F066FF04002AD0DF
:10B1300008F056FF0746284600F0ECFF06460E22B0
:10B1400000212046F9F71DFB3D462035A87BA07065
:10B15000E87BE070B88D20802036707F5021484316
:10B160000B494118C86DC96D4001400F49004A0F95
:10B170000121042802D00B4683401846A071042AFE
:10B1800003D09140E1710020F8BD1146FAE70000BC
:10B1900080000020F0B585B084464D1E0C9F0D9EAA
:10B1A0000A9C0B98FF2D0CD2002A0AD0202A08D323
:10B1B0007F2A06D8172B04D3172C02D3064DAC4296
:10B1C00002D9822005B0F0BD019002970396009449
:10B1D000604609F099FBF5E7FDFF0000F0B585B08A
:10B1E0000D9F0E9E0B9D0A9C844600290ED0002ABE
:10B1F0000CD0202A0AD37F2A08D8172B06D3172C65
:10B2000004D30948844201D80B2D02D9822005B00D
:10B21000F0BD0C9801900397049602950094604647
:10B2200009F04AFCF3E70000FDFF000038B5049C7C
:10B23000009409F00BFD38BD10B509F09FFD10BD5D
:10B2400010B509F021FE10BD38B5049C009409F03A
:10B250007BFE38BDF8B51F4C1D4E2068B278014604
:10B2600020300274002545742C204243486B294647
:10B27000F9F787FA184F20683A460021383009F06C
:10B2800017FF20683A460021483009F011FF206876
:10B290000146C5655C31456601660831816600205E
:10B2A00010E0216802018B6D11460C315D5023685E
:10B2B0009F6D1B6EBA181A602268936D5918401C56
:10B2C000C0B21166B17849008142EAD80020F8BDC9
:10B2D0002C250020C8110020FFFF0000F8B5002435
:10B2E000009472B6244F012238688178114381702E
:10B2F00062B609F0E5FE09F09DFF204D2868483050
:10B300008089C046064609E02868694648300AF048
:10B3100067F800980AF07CF8761EB6B2002EF3D1DA
:10B3200012E02868694638300AF05AF800980AF0A6
:10B3300091F8040004D0862C02D0882C04D115E0AA
:10B34000012100980AF0A8F9286838300AF0BEF9FF
:10B350000028E6D0862C01D0882C06D172B6386839
:10B36000817849084900817062B6F8BD2868009963
:10B3700038300AF0B2F9F1E7B0110020C81100200E
:10B38000F0B504688DB0007900210A91A1680A7BAC
:10B390000692FF4A4E7BD27A824211D9FD4A0301BE
:10B3A0001268FB4FD26A2037D518A2880392069AFA
:10B3B000142A0DD007DC062A7ED0072A29D16FE196
:10B3C00080200DB0F0BD152A77D0162AF6D1A6E15F
:10B3D000A87840071DD420460AF092F907900A2861
:10B3E00002D0002816D01EE06E71022200216846AD
:10B3F000F9F7C7F9A068817CC07C0002081869468B
:10B400008870000AC8706B460222314603980AF021
:10B41000A5F9D1E104AA002103980AF0F5F9002862
:10B4200001D004200790A068017C407C000208182D
:10B4300080B200906846B978007C81424DD9079966
:10B4400000294AD1D34F2C2339685843496B102225
:10B45000C01C0A5438680221426B6846007C58437D
:10B46000801C115438680099426B6846007C584330
:10B4700008301152A068817CC07C0002091838682D
:10B48000426B6846007C58430E301152A068017D23
:10B49000407D000209183868426B6846007C5843BA
:10B4A00010301152A068017E407E000209183868F1
:10B4B000426B6846007C01E08EE019E0584316308C
:10B4C0001152A068817DC07D000209183868426B66
:10B4D0006846007C5843001D11522A4631460698A2
:10B4E0000AF0D2F9002102940191039B079A38E0F7
:10B4F0000699AA79491E8A428BD131460AF0CCF9C5
:10B50000002886D101200690A0680026017E407E9A
:10B5100010220002081880B20490012103980AF05A
:10B52000E1F9B9780546A9420ED99A4A2C23106848
:10B53000416B2846584303460833CE5A049B002BE0
:10B5400013D028460AF0F2F992482C2100684D43A6
:10B55000406B0A35405B0190039B049A0699009664
:10B56000029442200AF0FAF926E11127C31CCF54B5
:10B57000A168884A0B7C497C09025B1811684F6BF3
:10B5800001460E317B52A1688B7CC97C09025B1895
:10B5900011684F6B014610317B52A1688B7DC97DCC
:10B5A00009025B1811684F6B014616317B52A16886
:10B5B00012680B7D497D071D09025918536B89B22A
:10B5C000DA5B914200D31146724A12301952116867
:10B5D0000020496BC853B7E7A8784007C4D44A7C19
:10B5E000087C120280188A7CC97C80B2090251183A
:10B5F00089B2009103990AF017FAB978814211D8FB
:10B6000064492C240B6860435B6B0122841D1A552E
:10B610000A68536BC21D9E5409680222496B001DC3
:10B620000A52C8E05B4C2C22074621685743384633
:10B63000496B0E300590095A009881422BD12A4659
:10B64000314606980AF020F92068D021426BF81C98
:10B65000115420680022416B38460A300B5A1020E2
:10B6600003990AF003FA20680022416B05980B5AEF
:10B67000202003990AF0FAF90021009A03980AF0B1
:10B6800027FA20680721426BB81D11542068FF1D5E
:10B69000406BC65590E0A878FD210840A8708BE06B
:10B6A0000699AA79491E8A4238D131460AF0F4F83F
:10B6B000002833D1A068427C017C120289188CB228
:10B6C000817CC07C0002081885B2284603990AF0E4
:10B6D000ABF9B97881426FD92E4909684A6B2C21A0
:10B6E00041430E31515AA14266D10AF01FF92A484E
:10B6F0004226006801238030007A039C80075BD5D6
:10B7000026482B2200683146806902F0FFF80100CC
:10B7100052D08C80CD80304602F052F94CE06879EE
:10B72000B04203D3012E47D1012845D04A7C087C82
:10B73000120280188A7CC97C80B20902511889B231
:10B74000089103990AF0F8F9B978814233D9114A7E
:10B750002C2311685843496BC31CCB5C112B2AD195
:10B76000089B002B27D00246163294468A5A0C4B6F
:10B77000089F9B1A9F421BD2089B064FD21892B279
:10B780006346CA5239680A30496B00920B5A09E085
:10B790000C250020C8110020B8110020C011002085
:10B7A000FFFF00002246422003990AF0E3F902E07D
:10B7B0000622801D0A546E710A9802E6142809D0E8
:10B7C000152807D0162805D0062803D0072801D051
:10B7D0000020704701207047F8B5017844680029BF
:10B7E00036D0012933D1A688E58830460AF0FAF927
:10B7F0000146A068827AC07A0002101887B2002D34
:10B8000025D0002923D038460AF004FA00281ED09B
:10B81000314638460AF008F9104A2C23116858437B
:10B82000496B03461233CB5AAB420DD303461A334E
:10B830001D46CB5A002B07D05B1E4B531068214688
:10B8400038300AF009FA06E00622801D0A54012168
:10B85000204609F021FF0020F8BD0000C81100209B
:10B86000F8B5074600240D4E0D4D12E030682C222D
:10B87000416B204650430A5ABA4208D1C01C085CAA
:10B88000102801D0D02802D120460AF04FF8641CBD
:10B89000E4B2A878A042E9D8F8BD0000C8110020A1
:10B8A0002C250020F8B507460024144E144D10E056
:10B8B00030682C22416B204650430A5ABA4206D1C6
:10B8C000C01C085C002802D020460AF02FF8641C37
:10B8D000E4B2A878A042EBD8002301223946102018
:10B8E0000AF0C4F800230122394620200AF0BEF8ED
:10B8F0000022012138460AF0EBF8F8BDC8110020FB
:10B900002C25002004481521006849018030C06DB5
:10B910004018C07870470000B8110020F0B5324ED2
:10B920000521306800248030C06DC9014018C0690D
:10B9300085B08047002802D00C2005B0F0BDF9F793
:10B94000D0FA306813238030C26D5B010121D21818
:10B950009172C06D15277F01C1194978FF30FF3002
:10B96000C9060230C90E806D07F0B1FA00250090BB
:10B9700000281AD91C4864060268640E8032D06D13
:10B98000FF30FF300230866DE000011D73585F000C
:10B990007F0E7F2F0ED058004008641C7050E4B218
:10B9A0006D1C0098EDB28542E4D3F9F79AFA0020B5
:10B9B00005B0F0BD0393D16D4B22D200565802AAB8
:10B9C00030580290152040010818477801AB3946DD
:10B9D00030460AF057F90128E2D168460279394623
:10B9E000304607F073FBDBE7B811002070B52F4C31
:10B9F0000646206805218030C06DC9014018C06925
:10BA000084B08047012835D0F9F76BFA25681322F6
:10BA10008035E96D52018918012088720020039059
:10BA20000722314602A8FBF7A3FCE86D15256D013E
:10BA30004119FF30FF3002304978806D01AB02AA16
:10BA40000AF020F9012818D0FF21039809060843BD
:10BA50000390206802AA8030C06D4119FF30FF308A
:10BA600002304978806D07F077FA69460871FF283F
:10BA700018D012E00C2004B070BD20680123803083
:10BA8000C06DDB07FF30FF300230816D6846007902
:10BA9000C000001D0A581A430A50F9F722FA002084
:10BAA00004B070BD072004B070BD0000B8110020C4
:10BAB00070B5064684B000202F4C01902068052107
:10BAC0008030C06DC9014018C0698047002802D08D
:10BAD0000C2004B070BDF9F704FA256813228035F4
:10BAE000E96D5201891801208872072231466846A3
:10BAF000FBF73EFCE86D15256D014119FF30FF3065
:10BB000002304978806D02AB6A460AF0BBF8002823
:10BB100019D020684B218030C06DC9000C5869468F
:10BB2000097ACA00121DA2585200520E7F2A0DD067
:10BB30004806400E69460872C000001D21584900A1
:10BB40004908215012E0022004B070BD4019457828
:10BB50006A4603AB294620460AF094F8012805D12D
:10BB60006846027B2946204607F0B0FAF9F7B9F992
:10BB7000002004B070BD0000B811002010B50C46C4
:10BB800002F06EFD002824D02030427F50214A432D
:10BB90001149521892685023120C2270427F5A4366
:10BBA00052189268120E6270427F5A435218D2683D
:10BBB000A270427F5A435218D268120AE270407F44
:10BBC000502250434018C0688002800E207100202F
:10BBD00010BD022010BD00000001002070B5054618
:10BBE000084602F03DFD002805D004462034217BA4
:10BBF000032902D008E0022070BDFF3001308079B7
:10BC0000000701D41A2070BD207C012101F057FEED
:10BC100000280BD0002D05D1207C01210AF066F808
:10BC2000032801D03A2070BD002070BD207C012186
:10BC30000AF060F84574207C012101F047FE207C69
:10BC400000230322012101F049FEEDE7F0B50F4684
:10BC5000B5B01546002130AA0F23445C5E1A491C7A
:10BC600094551029F9DB1022694630A80AF04BF8E8
:10BC70000026B400E019401CF9F748FD395D0002C8
:10BC800008430321891B89002CAC761C6050042ECC
:10BC9000EFDB214610236A4608460AF04FF80020E1
:10BCA0000326311A8900635C8200AB54635A52192F
:10BCB0001B0A53706358401C1B0C93706158090E8B
:10BCC000D1700428EDDB35B0F0BD70B50446002519
:10BCD0000AF066F92070000A6070A41C6D1C042D27
:10BCE000F6DB002070BD7047F0B5FF240546002349
:10BCF0000A4F0B4E0BE0184600F00CFAC08EA8421B
:10BD000003D1BD4201D01C4606E05B1CDBB23068AB
:10BD10002030007D9842EED82046F0BDFFFF0000A5
:10BD2000AC11002070B5054616460846FFF7DCFF4B
:10BD3000044608F0DDFD182C01D3022070BD002858
:10BD40000ED00021204601F0C1FD0021204609F05F
:10BD5000D1FF002D06D000212030C172002070BD1F
:10BD6000822070BD01222B210A54102281183046F6
:10BD700005F0AAFCF2E77047044A00214254491C2E
:10BD8000120AC9B20829F9D370470000FF00003336
:10BD900010B5272801D9122010BD0AF01FF900287C
:10BDA000FAD104490123096860310A791A430A71FA
:10BDB00010BD0000B811002037B525240120C04671
:10BDC000012800D1FF2468460078272807D8684654
:10BDD0004078A04203D868468078072801D912200D
:10BDE0003EBD6B4607CB0AF0E9F90028F8D10449BB
:10BDF0000123096860310A791A430A713EBD0000C7
:10BE0000B811002070B504460C250AF031FB817F83
:10BE1000FF290ED0C27F002172B6C17762B6837F40
:10BE2000FF2BFCD1012A00D1818B2170080A6070A0
:10BE30000025284670BD70477FB504000D00160030
:10BE400068460AF01DFB6846017821704178297028
:10BE5000807830707FBD000010B5002902D000BF8F
:10BE60001BA200E012A20021CCB21457A04203DBB7
:10BE7000491CCBB2202BF7D3080600D0491EC8B20C
:10BE800010BD0000002901D011A100E008A1202868
:10BE900001D37F207047085670472722D243027093
:10BEA00006200870704780B50AF038FB01BD00001D
:10BEB000CAEBECEDEFF0F1F2F3F4F5F6F7F8F9FA7E
:10BEC000FAFCFDFDFEFEFFFF000001020304050673
:10BED000CAEDEEEFF0F1F2F3F4F5F6F7F8F9FAFB4C
:10BEE000FCFDFDFEFF000102030808080808080821
:10BEF0007FB504004A48164600680D4619D0062C46
:10BF000011D0082C0CD0182C0AD0282C0BD02A2C9D
:10BF100009D02C2C0AD02E2C0BD0D02C42D043E0B0
:10BF2000102D08D040E0022D05D03DE0012D02D0BB
:10BF30003AE0062D38D10A4600193146F8F71BFCC5
:10BF40002C2C28D13078002825D00120C04601288B
:10BF500024D01B201F304009401C41004118012003
:10BF60000AF000FB0120C046012819D01B201F3019
:10BF70004009410040182B498989081AC01E81B226
:10BF800000200AF0EFFA28484022016808781043A0
:10BF9000C008C0000870002004B070BDFB20D9E7C5
:10BFA000FB20E4E7012D04D00120C046012804D085
:10BFB00005E010780AF0E0FAEEE7D12C04D0302C3E
:10BFC00020D0D32C24D025E0082D23D102223146C5
:10BFD0006846F8F7D0FB0222B11C01A8F8F7CBFBAA
:10BFE0000222311D02A8F8F7C6FB0222B11D03A8E8
:10BFF000F8F7C1FB68468389028981880088F9F7D0
:10C000004EF8C9E7012D05D130780AF0C6FAC3E72A
:10C01000012D01D01220BFE730780AF0C5FABBE746
:10C02000AC1100200C250020B011002070B50C468A
:10C030002249154606220B688AB0002820D002212A
:10C04000062815D01026082810D018280ED0282829
:10C050000ED02A280CD02C280CD02E2810D08028C6
:10C0600013D0812823D012200AB070BD267008E0BA
:10C07000217006E001212170185C0840287014E04E
:10C0800022701918227828460DE0227068460AF0BE
:10C090009AFA2278002804D0FF212846F8F771FB8D
:10C0A00003E0284608A9F8F766FB0020DCE704480F
:10C0B0002270016828466431F5E70000AC110020C9
:10C0C000BC11002010B51F2901D8012801D9122068
:10C0D00010BD044A1268403251729072FFF7E3FEBD
:10C0E000002010BDB811002010B50AF0C1F9808BF6
:10C0F00010BD10B50AF076FA002800D0012010BD5E
:10C1000010B50AF075FA807C10BD10B50AF070FA0F
:10C11000C07C10BD064905220968D2018031C96D75
:10C120008918096DFF224968193250430818704771
:10C13000B811002070B5044600F018F80021FF3057
:10C140000130094A4368FF20093048431818DA25AE
:10C150002D5CA54201D18030C28B491CC9B2022995
:10C16000F1D3104670BD0000FFFF000002480068D8
:10C170008030C06D70470000B811002070B50024F9
:10C180001D461646002805D0012803D0022801D0FC
:10C19000032801D012240AE00846FFF7A5FDFFF7A7
:10C1A000B9FF2030407F0AF023FA46758575204696
:10C1B00070BD7047F8B515460A4A0E460146D27A58
:10C1C0001220069F1C468A420BD908460AF010FA34
:10C1D000817D3160018A2960816821604068386012
:10C1E0000020F8BD0C25002010B5024607F0F8FE2F
:10C1F000044610020249FBF72BF9A060002010BD95
:10C200007102000070B50D4A0D4B14681B68224680
:10C210000021803220331D7D0AE07C234B43966A47
:10C220000833F35A002B01D0852070BD491CC9B2D8
:10C230008D42F2D840342071002070BDD011002012
:10C24000AC110020034800684830407DC007C00F93
:10C2500070470000BC11002070B505460AF0D2F905
:10C26000002801D0852407E00448002400680C223F
:10C2700029463830F8F77FFA204670BDD0110020EB
:10C2800010B50C460AF0E4F900280FD00189002C03
:10C290000ED00122D203114301814804800F0AD03D
:10C2A0000905090D02200AF0F9F904E0802010BD0B
:10C2B0004904490C0181002010BD704710B50C469F
:10C2C0000AF0C6F9002804D0C17F022903D08520D6
:10C2D00010BD802010BD044910220968CC63C17EC6
:10C2E0001143C176002010BDD011002010B50C46BE
:10C2F0000AF0AEF9002805D001890A0409D5012CFD
:10C3000002D004E0802010BD4904490C01810020C6
:10C3100010BD852010BD010016000C0202080204A9
:10C320000203011702010D010101010101031502C0
:10C3300003030902030903010102010103050603C6
:10C340001402030309011618031618031403030843
:10C350000103080103060903060903070303070392
:10C360000107050216030100FFB587B00F46002044
:10C37000694608733F48164605682835012A1DD8C6
:10C380000AF0B8F9002805D12C462034A07C0028FA
:10C3900002D085200BB0F0BD03A80799F8F74FFE37
:10C3A0000028F7D1607D6946304360750720087525
:10C3B000012F05D0022F09D0002F12D08220E9E7EB
:10C3C000087B10210843694608730AE0087B202196
:10C3D00008436946087305A903A8F8F746FD002835
:10C3E000D8D100260096684601960178DF200143E7
:10C3F000684601704178092001436846082241706F
:10C400008270022F03D106200143684641700AF072
:10C41000DFF901280AD168464178122001436846B5
:10C420004170817807200143684681706846F8F7BB
:10C430001FFAFF216846017041708170C17001715F
:10C440009F21417186712021C171F8F76BF8284650
:10C450003630F8F7C0FC00289CD16846007B810686
:10C46000890F03D0617D022211436175A074002001
:10C4700090E70000BC110020F8B505000E006F4FDA
:10C48000380000F07EFC04001AD1684605706C4D3F
:10C49000380000F07AFC070068460078800706D074
:10C4A00039002800483000F07CFC040008D1022E3E
:10C4B00008D1390028006C3000F073FC040001D072
:10C4C0002000F2BD5FA20721002000F015F8F7E779
:10C4D000F8B504000F001500594E3000903000F000
:10C4E00054FC2080300000F060FC388030002430A4
:10C4F00000F05BFC2880F1BD70B504000D00160053
:10C500004F48FFE700F051FC33002A002100401C97
:10C5100080B200F001F870BDF3B581B017001D00C6
:10C520000024474E6946088024206043301800F0FC
:10C530003CFC002804D0401C69460988884202D08F
:10C54000641C042CF0D3042C09D0684603892420F1
:10C5500044433419206A8188DA19914201DA822031
:10C56000FEBD29003A008068C018FAF701FF206A72
:10C570000178890700D547800020FEBDF8B5070087
:10C580004E250D402E4E300000F00FFCB124002847
:10C5900007D0401CB84204D13078044025433570A0
:10C5A0000EE03000243000F000FC00280AD0401CCF
:10C5B000B84207D12420305C044025432420355460
:10C5C0000020F2BD8120F2BDF8B507000C001C4E22
:10C5D000300000F0EAFB0725002806D0401CB842D6
:10C5E00003D12C421AD1B4701CE03000243000F08A
:10C5F000DCFB002806D0401CB84203D12C420DD1F0
:10C6000026200EE03000483000F0CFFB00280BD091
:10C61000401CB84208D13820204001D08520F2BD0E
:10C620004A2034540020F2BD8120F2BD80B5034879
:10C6300000F0ABFB02BD0148704700000804002079
:10C6400078030020426C75654E52470070B509F0C2
:10C65000FFFF040007D07420005DC0070AD0207BD4
:10C66000800707D101E0802070BDA07A002803D0A8
:10C67000F12801D0852070BD1C4E30684030807993
:10C68000C04380072ED0208920220105090D0020FB
:10C690000AF0A4F8050027D00220E880A8680B2142
:10C6A00001733168084640318A78203053081A43B4
:10C6B000CB78417E007ED207C007D20FC00F0AF0B0
:10C6C000ADF801463068A0300176A8684173214674
:10C6D00028460AF0AFF80028CDD1217B0122114372
:10C6E000217370BD382070BD882070BDD01100202E
:10C6F000F0B514460E46074609F0AAFF050016D00D
:10C7000038460AF0B3F80122297F3270C30709D0F6
:10C7100043070322002B03DA102903D1042004E08D
:10C72000800701D52270F0BD02202070F0BD0020EE
:10C730003070FAE710B5FAF7D7FC10BD10B50AF063
:10C74000ACF810BD00B50005000D09F081FF002810
:10C7500006D0017B0A07920F022A03D0852000BD74
:10C76000802000BD0C2211430173002000BD10B5D4
:10C770000C46417994B0490610D56A46012100F073
:10C7800049F8002802D0D02014B010BD0FA906220D
:10C7900020460231F7F7EFFF0020F5E78220F3E7AC
:10C7A000FFB5002695B01F46344635461E700AF088
:10C7B0007BF805E068460AF07DF86D1C0646EDB290
:10C7C0001598854202D2002EF4D020E0002E1ED112
:10C7D00016E0E0B21799C01D884218D86846407824
:10C7E0000622C1071698C90F01551698641C001936
:10C7F0002946F7F7C0FF3878401C3870A41D01E0C7
:10C800000FAD023568460AF055F80028E1D0002047
:10C8100019B0F0BD10B5134601220AF05FF810BD43
:10C82000F8B51E460B460E490025069F0C680028E9
:10C8300005D0012803D0022803D082250DE048341A
:10C8400000E05834114618460AF080F81020307085
:10C85000024621463846F7F78EFF2846F8BD00000D
:10C86000D0110020FFB5002483B01F4605462646A0
:10C87000009409F0C7FE01280DD02800224D0DD0EC
:10C880006846067131466B463A4600200AF078F851
:10C89000040024D035E0852007B0F0BD0C980028B6
:10C8A0000CD0002F14D0012F12D0022F13D00098DB
:10C8B0008224002825D00C9A0D9920E00120C04642
:10C8C000012801D011241CE0F8F719FC044618E0F7
:10C8D0002868483001E0286858300090E9E7296866
:10C8E00004988031096B06224870286805998030C9
:10C8F000006B801CF7F73FFF0C9A0D990098F7F733
:10C900003AFF2046C8E70000D011002070B50C4661
:10C9100005460AF059F8214628460AF062F870BD2B
:10C9200010B5104B04461B6800204833002C06D07D
:10C93000012C09D0022C07D0032C10D10AE0997CDD
:10C94000C90700D1852010BD997CC907FAD0002AFB
:10C9500005D110BD9A7C9207F4D5C907F9D0822081
:10C9600010BD0000BC110020FEB5114E002534683A
:10C9700027464837787D2834800717D568460AF05F
:10C9800041F86846F8F727FA05000FD1204606223D
:10C9900069463C30F7F7EFFE0122064B114630683E
:10C9A0000AF057F8787DFD21084078752846FEBDCD
:10C9B000BC110020A0BB0D0070B505460078002416
:10C9C000002801D0032800D98224002A03D001299D
:10C9D00005D982240DE082240129FAD809E0002C2F
:10C9E00007D10120C046002803D12878FD21084046
:10C9F0002870204670BDFFB5002581B01E46174641
:10CA0000002902D00198F8F738FA002410E0E0007D
:10CA1000001B335C82191846521C0AF08EF8050080
:10CA200004D119460198F8F724FA0546641CE4B2CB
:10CA3000BC4201D2002DEAD0284605B0F0BD70B549
:10CA400094B00646F8F719FA044609F02DFF0FAD29
:10CA500002350BE068464078C00701D0012100E0B4
:10CA600000212A463046F8F704FA0446684609F0E1
:10CA700021FF002801D1002CECD0204614B070BD5D
:10CA800080B51A4800F07DF902BD70B505000C00B4
:10CA9000174E300000F091F900280AD0A84208D1C2
:10CAA0003078B12101404E202040084330700020F2
:10CAB00070BD812070BD70B505000C000C4E3000BB
:10CAC00000F07BF9002808D0A84206D16007400F8B
:10CAD00001D0852070BDB47070BD812070BD80B55F
:10CAE000024800F052F902BD00487047E0B306105A
:10CAF0003004002000206149088070475F4A604B85
:10CB000003405380491E03200843401C506000200E
:10CB100010807047F8B50500584C07E016680660AD
:10CB2000001D121D491E0E04F8D123806B46002201
:10CB30005449280000F07FF8002811D1009862685D
:10CB4000811AC688F61D032333435B1C8EB29FB245
:10CB5000F61992192688F31A591A0904890CE2E782
:10CB6000F1BD1CB514006B460A00474900F063F89C
:10CB700001000BD100994988218000998988618042
:10CB80000099C988A18000990831A16016BDF8B547
:10CB90001500002407000E0000E0641C6B46A2B2E2
:10CBA0003949380000F047F8010016D1009949884A
:10CBB000320001D0B142F0D1298000998988698082
:10CBC0000099C988A98000990831A960009909884D
:10CBD000802212020A4300990A80F2BDF8B51C00B7
:10CBE0008623264D6D886E4635806D462D88002D36
:10CBF0001FD06D462D88214F3F88EF1BBFB2250007
:10CC00000835AF4215D303001C4D68682F88C01942
:10CC1000038041808280C480220006990830F7F7A3
:10CC2000AAFD2888E41D03212143491C40182880BF
:10CC300000231800F2BDF8B50024104D6E46308078
:10CC4000100007E0401ED288D21D03261643A41907
:10CC5000641CA4B22A8894420DDA6A6812191788F3
:10CC60000E003E406F463F88BE42ECD10604E9D13B
:10CC70001A600020F2BD8620F2BD0000D025002001
:10CC8000FCFF0000FF7F0000FFFF0000384A5160FA
:10CC90001160088000204860704735490A6890425A
:10CCA00003D14068086070470A00002A04D0516828
:10CCB0008142F9D1406850607047002800D1704728
:10CCC00010B52B4B1A68002A01D1186010BD904294
:10CCD00003D24260186010E01A005368002B01D0A4
:10CCE0009842F9D2436050601388D418844204D12A
:10CCF0004468546004881B19138042680388C11873
:10CD0000914204D15168416011885918018010BDC9
:10CD100070B50024002516490968401E0326064305
:10CD2000761DB6B209E00888B04205DB002D02D0BE
:10CD30002A88904200D20D0049680029F3D1002DC5
:10CD400014D02800FFF7A9FF2888811B88B20D287E
:10CD50000AD3300008388008800028180830018085
:10CD60004460FFF7AAFF2E80281D70BD002070BD13
:10CD7000D825002080B500210160001FFFF79DFF2E
:10CD800001BD10B509F0E2FE10BD10B509F078FF45
:10CD900010BD10B509F07EFF10BD10B509F0C0FF41
:10CDA00010BD10B509F0CEFF10BD10B50AF030F877
:10CDB00010BD10B50AF036F810BD10B50AF082F8B3
:10CDC00010BD10B50AF088F810BD10B50AF0A8F82B
:10CDD00010BD10B50AF0C8F810BD10B50AF0E6F89D
:10CDE00010BD38B5049C00940AF0F7F8002038BD57
:10CDF00010B50A88002A08D08A88002A02D08A68DA
:10CE0000002A02D00AF0EFF810BD822010BD70B5E4
:10CE100000230DE00C245C43155B002D0DD0A418FD
:10CE2000A588002D02D0A468002C06D05B1CDBB2C4
:10CE30008B42EFD30AF0E8F870BD822070BD10B5C8
:10CE4000002906D0002A01D0002B02D00AF0ECF80D
:10CE500010BD822010BD00B589B069464880012010
:10CE6000087168460AF0EEF809B000BD30B58DB023
:10CE70006C46109DA184E28423850B956080102070
:10CE8000207109A804900020608101212172607244
:10CE900068460AF0D7F80DB030BD00B589B06A46D3
:10CEA000508011201071117268460AF0CBF809B059
:10CEB00000BD000010B58EB004461422094909A82F
:10CEC000FAF73CFA68464480022101710121018190
:10CED000142209A903A8F7F74EFC68460AF0B2F835
:10CEE0000EB010BDB8B3061010B50446012A03D029
:10CEF000022A08D0822010BD204602220C30F7F70B
:10CF00003AFC102003E01022F7F735FC8020207453
:10CF1000002010BD00B589B06A4650800320107112
:10CF200001201081142203A8F7F725FC68460AF0B7
:10CF300089F809B000BD000070B58EB014460E46E9
:10CF400005461422094909A8FAF7F8F96B465D80ED
:10CF5000042018711E815C81142209A903A8F7F727
:10CF60000AFC68460AF06EF80EB070BDCCB306102D
:10CF700000B589B06B4658800520187119815A8117
:10CF800068460AF05FF809B000BD10B58AB06C467B
:10CF9000608006202071218162811422194603A835
:10CFA000F7F7E9FB68460AF04DF80AB010BD00B586
:10CFB00089B06B4658800720187119815A816846DC
:10CFC0000AF040F809B000BD00B589B06A4650804B
:10CFD00008201071118168460AF034F809B000BDCC
:10CFE00010B58AB06C466080092020712181628171
:10CFF0001422194603A8F7F7BEFB68460AF022F888
:10D000000AB010BD00B589B06B4658800A2018716F
:10D0100019815A8168460AF015F809B000BD00B5BB
:10D0200089B06B4658800B201871197268460392BC
:10D030000AF008F809B000BD1FB56C4660805220A8
:10D040002070A180E280684602930AF05BF804B089
:10D0500010BD1FB56C466080D2202070A180E28098
:10D06000684602930AF04EF804B010BD1FB5694639
:10D0700048801E20087068460AF044F804B010BDCD
:10D08000FFB581B00A9E1F461446050005D0022C4C
:10D0900006D0002C06D0012C04D0822005B0F0BDB3
:10D0A000202200E0102202990AF09AF80028F5D117
:10D0B0003B4622460096284602990AF0CFF8EDE753
:10D0C000FEB50488418801918688C7880089009050
:10D0D000204608F087FD050007D02879002802D0F7
:10D0E000A878400703D08520FEBD8020FEBD202209
:10D0F0002146002009F072FB040048D001982D4918
:10D10000801F88424FD8B01F88424CD80198B04247
:10D1100049D8FF20F530874245D20099781C7043EA
:10D12000890088423FD823490098091F0A3888425D
:10D1300039D8A06812210173A06829794173A068C9
:10D1400008218173A0680021C173A068019901744E
:10D150000199A068090A4174A068310A8674A06820
:10D16000C174A068390A0775A0684175A068009964
:10D1700081750099A068090AC1750C20E0802146DC
:10D1800005200AF0CDF8002803D081250CE0882086
:10D19000FEBDA87806210843A8701220A87128793E
:10D1A000E871002504E082250021204608F074FA89
:10D1B0002846FEBD7A0C000010B50024448004808F
:10D1C00081808260037310BD418802888A4201D346
:10D1D000501A02E08088401A801880B270470021FF
:10D1E000418001807047F2B50400207B5C496D46A8
:10D1F0002D882D186D1840188543ADB26688300013
:10D200002788B74201D3381A02E0A688301AC0191D
:10D21000A8420EDB100069460A88A168C918F7F712
:10D22000AAFA60884019A188FAF70FF961800020F6
:10D23000F2BD0120F2BD80B54388FFF7D4FF02BDE7
:10D24000F8B584B004000E000025F0186946088087
:10D25000207B434B6F463F883F18FF18C1188F4310
:10D26000BFB20397411C401E8143C9B20191A088FF
:10D27000029063881900278838009F4201D3411A21
:10D2800002E0029B591A0918039BC918019BC9188F
:10D29000029B994227DA0A9F029202226946A368FA
:10D2A0001818F7F768FA32000299A3689C46238899
:10D2B0000198181863461818F7F75DFA6846028A4D
:10D2C0003900A0682388019FDB199B19C018F7F764
:10D2D00052FA20880399401801994018A188FAF75A
:10D2E000B4F8218000E00125280005B0F0BD10B59C
:10D2F0000400227B1A4B8818C018D118884380B2CA
:10D30000628811002388934201D35A1A02E0A2884E
:10D31000521AD218824206DB0818A188FAF795F84B
:10D320006180002010BD012010BD70B5037B0C4C46
:10D33000C91809191B19994345882B000688AE4264
:10D3400001D3F41A02E08588ED1AAC1989B28C4237
:10D3500004DB8068C0181060002070BD012070BD23
:10D36000FFFF000070B505000E001400320002211E
:10D37000FFF761FF010008D131886B88002B00D1D5
:10D38000AB8822002800FFF72EFF70BD38B50C00D7
:10D3900015000221FFF7C9FF010002D129680988A1
:10D3A000218032BD1CB504006A460221FFF743FF0D
:10D3B000010004D1684601882000FFF798FF16BDE0
:10D3C00010B5040000F002F8206010BD00B5022086
:10D3D000154A1368034004D013685B0701D513484E
:10D3E00000BD1268E02313400CD0202B0CD0402B42
:10D3F0000CD0602B0CD0802B0CD0A02B0CD0C02BD1
:10D400000CD00CE001210AE0022108E0042106E032
:10D41000082104E0102102E0202100E0402104481E
:10D42000FAF716F800BD0000080040480048E8017F
:10D430000090D00310B5C20018231340FF249C4075
:10D44000E2438907090E9940030007D5AB4B00075B
:10D45000000F083880088000181803E0A8489B08CF
:10D460009B00C01803681A401143016010BD0029D9
:10D4700001D1283070472430704781B0A1490A6833
:10D4800002430A60096808400090009801B07047A4
:10D490009D481422514340181438016801220A4360
:10D4A00002607047984814235943401810380168A7
:10D4B000090C09040A430260704730B50398924C86
:10D4C0001425694361180C39102802D14A600B6099
:10D4D00030BD0A604B6030BD38B58021C905086891
:10D4E0000A688A498023DB018C6B1C438C638C6B3C
:10D4F0001C400094009C0024F02505401007000FFC
:10D50000284310280AD10094E1214900009888425C
:10D510000EDA00BF0098401C0090F7E788690343CB
:10D520008B6188697A4A02408A610868C005FCD527
:10D530007848794901607949016003214160FA2105
:10D54000890081600460C1684907FCD174490160A9
:10D5500031BD80B5FFE700211220FFF76BFF80206F
:10D56000C0027049086001BD80B586B00420FFF795
:10D5700084FF684609F08DFFC020800000900220E3
:10D5800001900290002003900121049105906946CA
:10D590009020C00509F0EAFE07B000BD18B589B0BB
:10D5A0008020C00060490A6802430A600968084098
:10D5B0000090009801A809F0C9FF00200190E12126
:10D5C000090302910390049005900C2106910790A5
:10D5D0000890564C01A9200009F06AFFA068544940
:10D5E0000140A160206880218905014321600AB0C3
:10D5F00010BD4E490028086803D0012202430A608A
:10D6000070470122904308607047F8B58CB0012044
:10D61000FFF733FF01A809F0F5FF10200390002465
:10D620000494059480250695079408940D200A908B
:10D63000AF010B973F4E01AA0121300009F0B5FF61
:10D64000B06802210143B1603848806828433749F7
:10D65000886001211120FFF7EDFEA8023149086022
:10D6600003942020049005940695079408940C20B8
:10D670000A900B9701AA0221300009F096FF2B486F
:10D6800080684021014329488160EA00022130007E
:10D69000FFF708FF01212548FFF7E9FE0094264B1C
:10D6A000020002213000FFF708FF02213000FFF7DF
:10D6B000EFFE0DB0F0BD7CB5040016001248142238
:10D6C000624380181438026801239A430260194D9E
:10D6D00010200090194B0A0021002800FFF7EDFEF2
:10D6E000320021002800FFF7DDFE21002800FFF7AF
:10D6F000CFFE21002800FFF7CBFE73BD1CED00E03C
:10D7000000E400E050004048080070481C00404819
:10D71000FFBFFFFF00300040CCCC0000555500009B
:10D72000AAAA000000E100E0580040480040004183
:10D73000FFFFFF1100007048B01800202840004192
:10D740001070030A53701B0A93701B0AD370117177
:10D750000B0A53711B0A93711B0AD37170470000A7
:10D76000F8B500263D4F3E4C05006846018001E0BB
:10D77000042060812078618885229200914250DAED
:10D780003100761C6A46128889B2914249D22978C2
:10D790006D1C002801D1002262806288531C6380C6
:10D7A000B95400280ED1012020700129E0D0812930
:10D7B00001D0022901D10520DBE7FF29D8D00020C4
:10D7C0002070D7E701281ED1608861898842D1D1B5
:10D7D00039780020E080012901D1F8780DE0812915
:10D7E00001D0022902D1F878397903E0FF2904D168
:10D7F000B878F9780906090C0843208120890028A7
:10D800000AD00220DCE70228B4D1E088401CE08086
:10D81000218980B28842ADD30020207000F002F848
:10D82000A8E7F2BD10B50E4C0C480178012910D0C4
:10D8300081290ED0FF290FD122000C32618809F016
:10D84000F8FE0100A180012220000C30F9F7E4FA73
:10D8500010BD6188F9F7B6FA10BD0000D01E002097
:10D86000B01C0020C37982791B021A434379120449
:10D8700001791B021943C378114382781B021A43B2
:10D880004378120400781B021A431043704710B506
:10D8900009F0FCFE00788007C00F10BD10B50C46E3
:10D8A000FEF738FC80210C43A030847110BD10B508
:10D8B000FEF730FC80300088C005C00F10BD10B5E9
:10D8C00009F0E9FE0078C007C00F10BD10B509F0DF
:10D8D000E2FE017810221143017010BDF8B51E461A
:10D8E0000D4607461446FEF715FC4019A03004709B
:10D8F0002946384609F0CFFE0178DF221140F207B1
:10D90000920E1143012211430170F8BDFEB5044689
:10D9100000269C4617460D46080616D572B601AB82
:10D920006A466146204609F0BDFE00280BD06846D5
:10D9300081880098827892089200827001806180CC
:10D94000012662B615E062B620E001AB6A46614688
:10D95000204609F0A7FE002818D0680609D46846BA
:10D96000818800988278920892008270018061809C
:10D9700001260098AA00817840238907890F1A4060
:10D9800011438170C770002E0CD113E0002000906D
:10D9900072B6A8060DD40848082200680168114331
:10D9A000016062B672B60548F722006881781140BE
:10D9B000817062B60098FEBDC0110020B011002039
:10D9C0000A46400608D5D07846280AD2111D054BD4
:10D9D00080001B5810461847907880088000801CF3
:10D9E00088707047946E0610F3B589B000250D70ED
:10D9F0000998807A002859D0994803C8AE4A12681D
:10DA0000002312184B4106A80CC0EFF310800290BF
:10DA100072B609F0EAFF02000B00099803C804ACD3
:10DA200003C4012404A803C80090019106A803C8F8
:10DA3000C826B602002736184F4100980199B9420E
:10DA40000ED301D8B0420BD306A803C8B92676007E
:10DA5000002736184F419F4223D801D3964220D247
:10DA600000200A32434104A803C88B4211D801D3D5
:10DA700082420ED20998027AC37A04A803C8190018
:10DA80000AF062F80A990870099885720998447238
:10DA900009E0A0488572029880F310880A98047003
:10DAA00004E085484476029880F310880BB0F0BDFE
:10DAB00080B509F03AFF01209D49087101BDF3B519
:10DAC00087B004460020087000E02469002C5DD077
:10DAD000207B0028F9D0EFF31080019072B600206F
:10DAE00069460870491C8B48FFF77EFF09F07DFFEF
:10DAF00002000B0003CC083C0F00861A9F4104AAC9
:10DB0000C0C2012504AA0CCA002B34DB01DC012AA7
:10DB100031D3804A0CCA02AE0CC602AAC0CA664AF9
:10DB2000926B002312184B419F4210D801D39642AA
:10DB30000DD2784A527A002A09D002AA0CCA8B4226
:10DB400007D301D8824204D35B48057601E06846DA
:10DB50000570694604A80CC8100009F0B5FF6846B6
:10DB60000078012809D16B48817A427A0A4382728F
:10DB70000021417201E008980570019880F3108837
:10DB800008980078002801D0079800E0200009B02C
:10DB9000F0BD1CB5664C6946A068FFF790FFA06019
:10DBA00068460078012806D1207D411C627D9142A3
:10DBB00000D0401C207513BDFEB500256C462570B5
:10DBC000017B002901D00120FEBD0CC008380121D5
:10DBD0000173574CA6680196070001E035003669CD
:10DBE000002E08D00CCE083E03CF083F8B42F5D361
:10DBF00001D88242F2D338000661002D01D1019094
:10DC000000E028610199814213D16946FFF757FF6F
:10DC1000A0606846007800280BD0EFF3108072B641
:10DC2000217D4A1C637D9A4200D0491C217580F3F6
:10DC3000108868460078FEBD10B51F4C002808D03B
:10DC4000207B00280BD120002030FFF731FF01207E
:10DC500004E02000203000F0BBF80020207310BD4D
:10DC600050250020FEB509F0F7FEA34D00246C728C
:10DC7000AC72EFF3108672B609F0B7FE6A4603C2C3
:10DC800009F012FF07000CCD684603C8121A8B4139
:10DC90000021D21B8B4186F3108804DC01DB012AB2
:10DCA00001D20120FEBD002B04DC01DB0F2A01D2D2
:10DCB0000220FEBD0020FEBD2824002080B569465C
:10DCC0001448FFF791FE1A48017E002903D0002175
:10DCD000017600F008F88948016801220A430260D1
:10DCE0000068009001BD18B51149002008768448ED
:10DCF0000268844B134003600A7D531C4C7DA34291
:10DD000000D0521C0A75C16901220A43C261C06970
:10DD1000009011BD982500204A480168022900D1D1
:10DD2000704780B50068032801D0FFF732FF01BDBE
:10DD30002824002010B5FFF73FFF04000120FFF763
:10DD40007BFFE0B210BDFEB50300002568460572FA
:10DD5000694CE17222726C4803C81A1A0023121827
:10DD60004B410CC4083C65720126A672674DAF6832
:10DD700003CC083C0090019103CF083F02000B0048
:10DD8000A86B002180185941009A019B8B4217D83B
:10DD900001D3824214D2387B002811D002A920007E
:10DDA000FFF722FEAF680CCC03CF083F8B4209D3AC
:10DDB00001D8824206D3387B002803D02E7601E0BA
:10DDC000FFF7E7FE0120FFF737FF6846007AFEBD48
:10DDD0007CB503004D4CA268150000210026100000
:10DDE00001E02E002D69002D09D09D42F9D101934B
:10DDF0002B69954201D1180002E0336100E00193E4
:10DE00006D462970019B1973824214D06946FFF751
:10DE100056FEA0606846007800280DD0EFF3108011
:10DE200072B6217D4A1C637D9A4200D0491C21753F
:10DE300080F3108873BDA06073BD80B509F0D5FD77
:10DE400004BD00000C000060F8B5050009F0F8FE04
:10DE50008B480126416831434160016831430160CC
:10DE60008848310601602988C92900DAC821274C71
:10DE7000A163310501606846A97881706968C17045
:10DE80002988018009F0F2FC1F4809F0D1FD002724
:10DE9000A7602673184A002050729072002103C2B6
:10DEA00028882061A782686800030A21F9F7D0FA60
:10DEB00020602771AC4D002804D1280009F0D9FE5C
:10DEC00020600AE0280009F0D4FE2168814203D3D3
:10DED000280009F0CEFE01002160A448A06267631B
:10DEE00009F083FD2268002312184B4120002030E6
:10DEF000FFF762FEF1BD0000982500204418006085
:10DF000030180060FFFFFFBF5025002028240020AC
:10DF1000F8B584B0002469460C70EFF3108672B631
:10DF20009348407A00280CD009F05FFD02000B00F6
:10DF30008F4D03CD083D994203D801D3904200D2C2
:10DF40006C7286F31088814F22E0401C19E004694E
:10DF5000002101738168002900D088472000F6D194
:10DF60006946B868FFF7ABFDB860684600780128DD
:10DF70000AD1EFF3108172B6387D421C7B7D9A4244
:10DF8000E3D1387581F31088787D0399401878754E
:10DF9000787D397D0A1A02D2802040001218002AAA
:10DFA00028D00392BC68002602940194002502E068
:10DFB000260024696D1C002C0FD0207B0028F7D090
:10DFC00009F013FD02000B0003CC083C801A9941B4
:10DFD0000029EDDB01DC0628EAD3002D03D0002068
:10DFE0003061029401E0002001900298B86001982D
:10DFF0000028B4E75F4E01243879002823D009F0C7
:10E00000A0FC00283AD100253D7109F0ABFC30009E
:10E0100009F00EFD787E00280AD07D76544884727F
:10E020006946FFF7E1FC6946B868FFF748FDB8604C
:10E0300009F0DBFC3A68002312184B41380020300D
:10E04000FFF7BAFD1AE0307C002817D009F0CDFCAC
:10E0500002AA03C203CEFA225203002312184B4134
:10E0600002A803C88B4209D801D3824206D23800E5
:10E070002030FFF7ADFE09F058FC3C7105B0F0BD53
:10E080004018006000E100E0FEB5040000F060F818
:10E09000002859D001A809F0EBFC2C4F344E6946FA
:10E0A0000C70717A002902D1B17A00291CD00128A4
:10E0B00033D009F09AFC04000D0009F0F5FC0200D1
:10E0C00003CE002312196B413C690025A4185D4161
:10E0D00000221E345541A9421FD301D8A0421CD3AF
:10E0E000022469460C7003E0022816D0012814D0DF
:10E0F000B868002826D0007B002823D009F075FCE2
:10E1000002000B00BD6803CD083D00261E3273419E
:10E11000994204D801D3904201D20120FEBD032CC4
:10E1200010D1286900280DD138002030854209D14E
:10E130000020FFF781FD10480168104A0A40026084
:10E140000320FEBD68460078FEBD000028240020A4
:10E150000B48017D427D914204D10079401E8041EF
:10E16000C00F704700207047FFEFFFFFB1DA0410C7
:10E17000982500205025002030180060FFFFFFBFC9
:10E180002824002002480349006808607047000006
:10E190000C250020D41100203EB53622012116485E
:10E1A00009F08AFD154D16492860CA7A01462031CA
:10E1B0000A750024047044708470E122C2708022C9
:10E1C000027102224271302008724C7202AA01A927
:10E1D0006846FDF731FE69460878097A00010902B0
:10E1E000C01C084369460979090308432968488522
:10E1F00020310C733EBD0000D4110020AC11002072
:10E200000C25002010B50B00521E815C9C5C091B84
:10E2100001D1002AF8D1080010BD016880220A430C
:10E2200002600168802291430160002070473348FA
:10E230000078002801D0012070473148006800288C
:10E2400000D00120C0B2704770B50E002B4D2C7865
:10E2500001281AD1202200BF35A13000FFF7D2FFDC
:10E26000002801D404201BE0FB2020402870254812
:10E27000002100229300F458C3181C60521C082A85
:10E28000F8DB20300160002070BD00BF20A1022813
:10E290000FD120223000FFF7B5FF002804D4012061
:10E2A00020432870012070BDFE20204028701648B1
:10E2B000DEE70328F6D120223000FFF7A3FF002875
:10E2C00001D40220ECE7FD20204028700F48CFE762
:10E2D000012808D10B480022835C8B54521C202A51
:10E2E000FADB00207047022801D10748F3E7032832
:10E2F00001D10648EFE7012070470000EC2500201F
:10E30000000430486C04304890043048B40430486D
:10E31000FFFFFFFFFFFFFFFFFFFFFFFF0000000009
:10E32000000000000000000001000000FFFFFFFFF0
:10E33000512563FCC2CAB9F3849E17A7ADFAE6BCA7
:10E34000FFFFFFFFFFFFFFFF00000000FFFFFFFFD9
:10E3500010B503220121104809F0AEFC0F4C00213A
:10E3600060604170182101700120C046012804D16D
:10E37000606880220178114301700120C0460128A5
:10E3800004D160680122017811430170606806229F
:10E3900001781143017010BDD4110020AC11002090
:10E3A00070B509F09BFC09F0F5FD09F037FE09F0A6
:10E3B0006FFE09F087FE114D0F4928688B8A5C2299
:10E3C00013520024C4640465C97A05230C4AF03052
:10E3D00009F080FE09F094FE09F0A0FE09F0D2FEDB
:10E3E00028681F214030417284722046FDF75BFD92
:10E3F00009F0D4FE70BD00000C250020B8110020EB
:10E4000041BE061010B509F027FF14480822006825
:10E41000002104682046F6F7B4F9114BD88923305F
:10E420004009401CC1B2002008F09CF8D889D97A74
:10E4300023304009801C4843401CC1B2012008F031
:10E4400091F8E16898894880E06809F037FFE06852
:10E4500072B6008862B62081002010BDCC11002069
:10E460000C25002010B51C2201211B4809F024FCBA
:10E470001A4C042220604321174809F01DFC216832
:10E4800004224860C321144809F016FC21680422C4
:10E490008860FF210431104809F00EFC2168C86033
:10E4A00009F042FF20684021406809F047FF2168D9
:10E4B00008618868C02109F041FF21684861C86887
:10E4C000FF21013109F03AFF0146206804228161F1
:10E4D0000021F6F756F910BDD4110020C01100201C
:10E4E00070B509F031FF0D4C0E4DE17A07230C4A4F
:10E4F000286809F0EFFD286817210185218C17296C
:10E5000001D2862070BD4185E17AC06A0A010021EE
:10E51000F6F737F9F6F792FE002070BD0C250020C3
:10E5200031BE0610C811002070B509F047FF144C29
:10E53000124A0021206806F0BBFD20680723114A1B
:10E540000B21103009F0C6FD21680022084640303A
:10E550000C4682710B46C271012520346576072175
:10E56000A1761021E17605710270DA63257682705A
:10E57000C2700020F6F7B7FD70BD0000FFFF00007D
:10E58000D011002051BE0610F8B5B022012121485B
:10E5900009F092FB204C214D2060E97A10221D48A1
:10E5A00009F08AFB002322681946D362936208E0CF
:10E5B0000F013E18F380C155976AF760491CC9B234
:10E5C0009662EE7A8E42F3D8B006010E012211480F
:10E5D000491C09F071FB216802220862E87A800672
:10E5E000010E0C4809F068FB0146206807234162D0
:10E5F000E97A0B4A8906090E09F06CFD2068094A80
:10E6000000219C3006F054FD09F010FF09F024FFB2
:10E61000F8BD0000D4110020C41100200C250020FA
:10E62000B1BD0610FFFF000010B509F019FF054845
:10E630000723034A0321006809F04CFD10BD0000C8
:10E64000F1BD0610BC11002004480168A020085E3E
:10E650000D2148434030C01170470000B811002020
:10E6600070B50446002003460B4E0C4D0EE01846D4
:10E67000FDF750FDC08EA04205D1B44203D018462C
:10E68000FDF748FD70BD00205B1CDBB2296820311E
:10E69000097D9942EBD870BDFFFF0000AC1100204E
:10E6A00070B515460C46FDF735FD828E816C0A3239
:10E6B000514309010B0C002D04D0591D8C4209D285
:10E6C000002070BDFF210131095A5A1D914200D826
:10E6D000591D8CB2FF3001300188A14206D0048060
:10E6E00043800179012901D002210171012070BD0F
:10E6F00010B5FDF73BFD0B2189014018407D10BD91
:10E700001FB50E4800F056F80C49C91C884211D1BB
:10E71000072168464171002101228171D2020280E5
:10E720000171C171017206220930F6F72AF86846B4
:10E73000F8F734FF002004B010BD0000FCFF00001B
:10E74000F8B50F460546FDF711FD0446002628469C
:10E7500000F030F81549884203D100F04BF8FF284B
:10E760001FD0FF340134FF220932616850430C1876
:10E7700020468030C583007EC00703D0C420005DE2
:10E78000012810D00A480622006839468930F5F77A
:10E79000F2FF2046012239466C3000F056F8304630
:10E7A000F8BD0720F8BD0C20F8BD0000FFFF0000F9
:10E7B000B811002070B50446FDF7D8FC0146CB1D0A
:10E7C0000B250020F933AD014919094A0D7D0BE0F5
:10E7D000FF2109315E68414371188031C98BA14224
:10E7E00000D10246401CC0B28542F1D8104670BD2F
:10E7F000FFFF000070B5FDF7B9FC0146CB1D0B24EF
:10E80000FF220020F933A40109190C7D0CE0FF213F
:10E8100009315D68414369188031C98B090B01D00A
:10E82000024603E0401CC0B28442F0D8104670BDDE
:10E8300030B47446641E2578641CAB4200D21D4679
:10E84000635D5B00E31830BC1847F8B50446174613
:10E850000D460846F6F75AFF0602E81C2660F6F752
:10E8600055FF0002000A3E4326606060F8BD80B597
:10E8700001F0F6FA01BD80B501F086FF02BD00008F
:10E88000E022520080180268914203D34368D218F4
:10E89000914202D380680028F5D17047184801687A
:10E8A00000290ED1802149028160090941600021BF
:10E8B000C943C160016104214161124A11601249DA
:10E8C00001600120704730B407230C0008341C425B
:10E8D00001D1002304E008240D000835641B234007
:10E8E000C918D21A8161C260012313434B602823E7
:10E8F000091D8B5002490969C16130BC7047000095
:10E9000080250020A02200206859883CF8B584B0FA
:10E9100004000D001700E81900906A6801263242D1
:10E9200043D1286803210A4000D19AE23F184242AD
:10E93000AD1822690392954200D290E26269954235
:10E9400000D1E6E0C0081F2860D8A9680291E968F4
:10E95000019103900198854201D109F0CFFD029801
:10E96000854201D109F0CAFD6868072188430399EF
:10E97000C900884201D009F0C1FD20002830039968
:10E98000C90040180299814205D0226991423AD3C8
:10E99000C968A94237D10199029A914224D12168CC
:10E9A000039A0120904081432160206903900098E0
:10E9B0000399884200D252E200984068810700D54E
:10E9C000A9E10099A269914200D0B2E0E068C019C3
:10E9D000E060A56106436E606069854200D040E258
:10E9E00000206061A0603CE2814206D008462169B7
:10E9F000884208D38068A84205D10198D060029867
:10EA000001998860D1E709F079FDCEE7A869029005
:10EA1000E968A94210D0A8680191039988422CD3D3
:10EA2000C168A94229D101998968A94225D10199D2
:10EA3000C1600199886022E02A00143210680190B8
:10EA4000002805D12A00103210680190002816D045
:10EA5000019801E00A001068010014310B68002BD6
:10EA6000F8D1010010310B68002BF3D1019003980D
:10EA7000824202D30020106001E009F03FFD0298BD
:10EA8000002892D0982040002018E9698900401899
:10EA900001688D420AD101990160002915D1616890
:10EAA000EA6901209040814361607EE70298216914
:10EAB000884208D30069A8420198029901D10861EF
:10EAC00003E0486101E009F019FD0198002800D138
:10EAD0006BE720690199814295D30299019A91616E
:10EAE0002969002908D0814204D301980161019865
:10EAF000886101E009F002FD6869002800D154E74F
:10EB00002169884200D27EE70199486101998161BB
:10EB10004BE7009840680140032900D045E7A76013
:10EB200000984068B043009948603E436E60EF51E2
:10EB300097E16269914207D1A068C019A060656140
:10EB400006436E6028508CE1072188433F18C008B7
:10EB50001F284AD80099896802910099C9680191D3
:10EB6000039000980199884201D109F0C7FC0098F0
:10EB70000299884201D109F0C1FC00984068072140
:10EB800088430399C900884201D009F0B7FC2000EE
:10EB900028300399C90040180299814208D022699F
:10EBA000914200D2ACE0C968009A914200D0A7E03F
:10EBB0000199029A914206D12168039A012090405E
:10EBC000814321609EE0814209D008462169884244
:10EBD00000D295E080680099884200D090E00198CA
:10EBE000D0600298019988608CE00098806902905A
:10EBF0000098C0680099884212D0009989680190F5
:10EC0000039881422DD3C868009A904229D1019877
:10EC10008068904225D10198C8600198816022E007
:10EC2000009A143210680190002805D1009A103221
:10EC300010680190002816D0019801E00A001068C1
:10EC4000010014310B68002BF8D1010010310B6862
:10EC5000002BF3D101900398824202D30020106070
:10EC600001E009F04BFC029800284BD098204000AE
:10EC700020180099C96989004018009902689142DA
:10EC80000BD101990160002917D161680098C26910
:10EC9000012090408143616034E0029821698842FC
:10ECA00009D30069009988420198029901D108614D
:10ECB00003E0486101E009F021FC0198002821D01F
:10ECC0002069019981421BD30299019A91610099AF
:10ECD0000969002908D0814204D301980161019893
:10ECE000886101E009F00AFC00984069002809D019
:10ECF0002169884204D3019948610199816101E049
:10ED000009F0FCFB012038436860EF5160698542DF
:10ED100008D1A760A5E0B0430099486001203843BE
:10ED20006860EF51F8081F2827D80290200028308B
:10ED30000299C900401800900190102F01D209F0EB
:10ED4000DDFB206802990200CA40324003D18E40A8
:10ED50000643266008E0009880682169884201D354
:10ED6000019001E009F0CAFB009885600198C56038
:10ED70000198A8600098E86073E0380A01D1002289
:10ED800027E03104884201D31F2222E0FF21C9433A
:10ED90004118090C0822114001918840324941185C
:10EDA000090C042211400091884030494118090C97
:10EDB000022211400E22019BD21A009BD21A521A33
:10EDC0008840C00B10184100C01D3A00C2403240BC
:10EDD0008A18982040002018910040180090EA619D
:10EDE00000206861286161680B00D340334007D17F
:10EDF00096400E436660009805600098A8611FE089
:10EE0000009909681F2A01D13A0006E01923520827
:10EE10009B1A3A009A4000E031004B680726B34342
:10EE2000BB4210D00B001033D60FB6009B19520016
:10EE30001E68002EF0D12069834210D31D60A961A5
:10EE4000ED60AD600DE08A682369994207D39A426C
:10EE500005D3D5608D60AA60E960A86101E009F082
:10EE60004DFB05B0F0BD000000F0FFFF00C0FFFF4C
:10EE7000F0B587B0070000BF00BFF52F00D337E221
:10EE80000B2F01D2102702E00B3707208743F80829
:10EE900055490968C1408A0748D001228A43801831
:10EEA0000190514C200028300199C9004018009071
:10EEB00085680198C700686807218843B84201D077
:10EEC00009F01CFBAE680098854201D109F016FBE1
:10EED000B54201D109F012FB686807218843B842A6
:10EEE00001D009F00BFB0098B04206D12068012147
:10EEF000019A9140884320600CE02069864207D344
:10EF0000F068A84204D1009886600098F06001E0A3
:10EF100009F0F4FA032038436860281DC01901681D
:10EF200001220A4302602C0000F08BFF2E4CA268E5
:10EF3000BA4200D3EDE3002900D1AEE001228240C5
:10EF400052008140534213430B4058421840401E28
:10EF5000010B10221140C840420908231A40D0403A
:10EF6000830804252B40D8404508022635400095EB
:10EF7000E8408507ED0F8918C918009A89184919C2
:10EF8000E84008180290200028300299C90046186D
:10EF9000B06800900298C000019000984068072176
:10EFA00088430199884201D009F0A8FA0098856841
:10EFB000B04201D109F0A2FA0098A84201D109F0AB
:10EFC0009DFA00984068072188430199884201D042
:10EFD00009F094FAAE4209D120680121029A9140C9
:10EFE000884320600EE000BFE420002020698542B5
:10EFF00006D3E8680099884202D1B560EE6001E06E
:10F0000009F07CFA0198C01B029003203843009954
:10F0100048600125029828430099091DC8510098AD
:10F02000C0190590029805990850A0680490C60878
:10F030001F2E01D909F062FA0498002826D06069D1
:10F040000190039620002830F10047183E000498F4
:10F05000102801D209F052FA206803990200CA4030
:10F060002A4003D18D400543256007E0B868216937
:10F07000884201D3060001E009F040FA0198B86027
:10F080000198F060019886600198C7600298A060BE
:10F0900005986061009C00F0D4FE6168002900D1F1
:10F0A00055E348420840401E010B10221140C84061
:10F0B000420908231A40D040830804252B40D84039
:10F0C0004508022635400195E8408507ED0F00957B
:10F0D00098256D0065198918C918019A8918009A30
:10F0E0008918D04008188000285805004168072278
:10F0F0009143CE1B07E0080041689143C91BB14210
:10F1000001D20E00050001690029F4D140690028F0
:10F11000F2D12069854200D2E7E068689043F11996
:10F12000884201D009F0EAF9E8190590854200D338
:10F13000DBE0A8690190E968A94210D0A8680091B5
:10F14000216988422CD3C168A94229D100998968D4
:10F15000A94225D10099C1600099886022E02A0067
:10F16000143210680090002805D12A00103210686F
:10F170000090002816D0009801E00A0010680100F5
:10F1800014310B68002BF8D1010010310B68002BF3
:10F19000F3D100902069824202D30020106001E088
:10F1A00009F0ACF90198002845D0982040002018BB
:10F1B000E9698900401801688D420AD1009901600F
:10F1C000002915D160680121EA6991408843606097
:10F1D00031E001982169884208D30069A84200986B
:10F1E000019901D1086103E0486101E009F086F965
:10F1F000009800281FD020690099814219D30199F5
:10F20000009A91612969002908D0814204D30098AD
:10F2100001610098886101E009F070F968690028CF
:10F2200009D02169884204D300994861009981611D
:10F2300001E009F063F9102E0AD2F019032101430D
:10F240006960291D0818016801220A43026046E02E
:10F2500003203843686001203043291DC8510598B8
:10F260008651A0680490C00800901F2801D909F0B9
:10F2700045F9049800282FD0606901900098039008
:10F28000200028300399C90040180090029004988B
:10F29000102801D209F032F921680120039A0B00ED
:10F2A000D340034003D190400843206008E0009819
:10F2B00080682169884201D3029001E009F01EF9BB
:10F2C00001980099886001980299C8600298019994
:10F2D000886000980199C860A660059860612C005C
:10F2E000083400D115E200F0AFFD09F007F910E293
:10F2F0003F20C043874202D30027FF4309E20B3778
:10F3000007208743B14840680390002800D100E2FD
:10F31000002478420090380A25D080214902884292
:10F3200001D31F201FE0FF21C9434118090C082207
:10F3300011408840C04A8218120C04231A409040A1
:10F34000BE4BC3181B0C02252B400E25691A891AC7
:10F35000C91A9840C00B08184100C01D3A00C240AD
:10F36000D007C00F081801909948029001998900B0
:10F370004158002929D001981F2801D13A0005E001
:10F380001920019A5208801A3A00824000230098FE
:10F3900000E052004D680726B543ED1B854202D2BE
:10F3A0000C0028000CD04D691031D60FB6008959D9
:10F3B000002D02D08D4200D02B000029E9D1190088
:10F3C0000090002939D1002C3CD1012001998840BE
:10F3D0004000424202430399114000D199E1484262
:10F3E0000840401E010B10221140C840420908236A
:10F3F0001A40D040830804252B40D84045080226F7
:10F4000035400195E8408507ED0F029E8918C9181F
:10F41000019A89184919E8400818800031580CE011
:10F4200011004A689A43D21B824201D210000C009C
:10F430000A69002AF4D100904969002902D0009895
:10F440000723EEE7002C00D163E100985F4989684B
:10F45000C91B884200D35CE15C480069844200D249
:10F4600043E70098C0190390606807218843039917
:10F47000884201D009F042F8E519AC4200D334E7E4
:10F48000A0690190E668A6420DD0A0684F490969BD
:10F49000884226D3C168A14223D1B168A14220D1BC
:10F4A000C660B0601FE0200014300668002E07D14F
:10F4B000200010300668002E15D001E00800066814
:10F4C000310014310A68002AF8D1310010310A687D
:10F4D000002AF3D13D490969884202D30021016025
:10F4E00001E009F00BF8019800283ED00298E1698C
:10F4F0008900401801688C420AD10660002E16D19E
:10F50000324841680122E3699A40914341602CE00E
:10F5100001982E490969884207D30069A0420198E1
:10F5200001D1066103E0466101E008F0E7FF002E2B
:10F530001BD026480069864215D30199B161216923
:10F54000002906D0814202D331618E6101E008F0CA
:10F55000D5FF6069002808D01C490969884202D398
:10F560007061866101E008F0C9FF0320009910294D
:10F570000AD2039908436060201D0399401801686E
:10F5800001220A430260C1E0384360600120009913
:10F590000143221DD151009969500099C9081F29C2
:10F5A0002ED80291094801002831029AD200891808
:10F5B0000091019102680121029B1600DE400E407D
:10F5C00008D19940114301600DE000BFE420002004
:10F5D00014220020009989680069814201D30191B9
:10F5E00001E008F08BFF009885600198C5600198E4
:10F5F00021000831C851009821000C31C85185E024
:10F600000099090A01D100202DE00204914201D3A2
:10F610001F2028E0FF22D2438A18120C08231A4028
:10F6200003929140044A8A18120C04231A40019252
:10F630009140024A04E000BF00F0FFFF00C0FFFF5E
:10F640008A18120C02231A400E23039E9B1B019E54
:10F650009B1B9B1A9140C90B59184A00009BC91D5E
:10F66000CB4018401018029982008918E8610022E6
:10F6700023001433DA5123001033DA51654A5368FA
:10F6800001221E00C640164005D182401A4361483F
:10F6900042600D601EE009681F28009B01D10098A0
:10F6A00005E019224008101A8340F8E731004A6843
:10F6B0000726B243824215D00A001032DE0FB60090
:10F6C00092195B001668002EF0D152480069824200
:10F6D0001AD31560A96120000C30C55120000830F4
:10F6E000C55113E088684B4A126991420CD390428D
:10F6F0000AD3C5608D6022000832D05120000C3042
:10F70000C1510020A86101E008F0F8FE083400D0E3
:10F710009AE340488468BC4219D3E51B4169012241
:10F720000323102D08D3CC19446185602A436260FD
:10F7300065513B434B6083E300258560456123436E
:10F740004B60081D001903681A43026078E3314CCE
:10F75000E068874200D268E32F4D2868002801D175
:10F76000FFF79CF8A96878182F30491E8843874214
:10F7700000D368E3D821490061188968002909D0BD
:10F78000D8225200A2581018824200D35BE3814273
:10F7900000D258E308F0B8FE002800D153E3016816
:10F7A00000910021C943884200D14CE3D82149008F
:10F7B0006158009A8918D8225200A150A2185268A4
:10F7C0008A4203D2D8225200A2185160A1690029AE
:10F7D00026D12169002901D0884200D220610F4A38
:10F7E0001061009951610021D1612A686262002292
:10F7F000D243226222002832D2601346936008333B
:10F8000053611361891C10321F29F5D9009A283AD7
:10F81000010023E0E4200020802500209422002025
:10F82000E0214900621800E09268002A1AD01168AD
:10F830005368C9188842F7D10600107B000712D41C
:10F84000A169136899420ED350681B1899420AD2D5
:10F85000009BC0185060E068009A82182000FFF7F3
:10F8600032F8DFE206002069864200D22661E020FD
:10F87000400020180099711800E08068002800D12D
:10F88000CFE102688A42F8D1017B090700D5C8E1BF
:10F89000114606604268009BD21842600720320081
:10F8A0000832024201D1039606E0082233000833F1
:10F8B000D21A0240B21803920A000832024205D05E
:10F8C00008220B000833D21A10400918009103983F
:10F8D000C0190490054600980399411AC91B01916B
:10F8E00003213943039A5160854201D308F006FE93
:10F8F000012600984068304001D108F0FFFD0198D2
:10F90000102801D208F0FAFD0098A169884207D1B9
:10F91000E06801994018E060A56106436E607EE1F1
:10F920006169884208D1A06801994018A0606561AA
:10F9300006436E60285072E140688107890F0129F3
:10F9400000D0CBE0072188430690C0081F2844D888
:10F950000099896802910099CF6805900098B84293
:10F9600001D108F0CBFD00980299884201D108F03E
:10F97000C5FD00984068072188430599C900884261
:10F9800001D008F0BBFD200028300599C9004018BF
:10F990000299814208D02269914200D294E0C9685C
:10F9A000009A914200D08FE002998F4206D12168DF
:10F9B000059A012090408143216087E0874207D06B
:10F9C0002069874200D27FE0B868009988427BD1E5
:10F9D0000298C7600298B86078E000988069029049
:10F9E0000098C76887420DD080682169884225D376
:10F9F000C168009A914221D1B96891421ED1C76075
:10FA0000B8601DE014300768002F07D1009810304F
:10FA10000768002F14D001E008000768390014318E
:10FA20000A68002AF8D1390010310A68002AF3D197
:10FA30002169884202D30021016001E008F05EFDE7
:10FA40000298002842D09820400020180099C969E7
:10FA5000890040180099026891420AD10760002F7E
:10FA600016D161680098C2690120904081436160AD
:10FA70002CE002982169884208D3006900998842E5
:10FA8000029801D1076103E0476101E008F036FD0B
:10FA9000002F1BD02069874216D30299B9610099C3
:10FAA0000969002906D0814202D339618F6101E0E2
:10FAB00008F024FD00984069002807D02169884299
:10FAC00002D37861876101E008F018FD009806997B
:10FAD00040180090019806994018019000984068DD
:10FAE000B0430099486001983043686001982850FD
:10FAF0000198C0081F2826D80290200028300299BB
:10FB0000C9004018009007460198102801D208F05B
:10FB1000F5FC206802990200CA40324003D18E40B1
:10FB20000643266008E0009880682169884201D376
:10FB3000070001E008F0E2FC00988560FD60AF601E
:10FB40000098E8606BE00198000A23D031048842F5
:10FB500001D31F201EE0FF21C9434118090C0822D0
:10FB600011408840BB4A8218120C04231A4090406E
:10FB7000B94BC3181B0C02273B400E27791A891A70
:10FB8000C91A9840C00B08184100019AC01DC24014
:10FB90003240881898214900611882008918E8616C
:10FBA00000236B612B6162681700C740374004D1A6
:10FBB0008640164366600D601DE009681F28019E9F
:10FBC00001D1019805E019224008101A8640F8E793
:10FBD00039004A680727BA43824211D00A0010321E
:10FBE000F70FBF00D21976001768002FF0D12069F7
:10FBF000824212D31560A961ED600498A8600EE0FE
:10FC000088682269914208D3904206D3C560049A5D
:10FC10008A60A860E960AB6101E008F06FFC039CBA
:10FC20000FE1A56929002000FEF72AFE016840685F
:10FC3000081802902738410701D1002003E008216D
:10FC4000081A4007400F029908182F382900103170
:10FC5000884201D2019500E001900198183004908B
:10FC600000200390009A283A31002000FEF72BFE76
:10FC700001980830400701D008F040FC1B20019992
:10FC8000486001980830E021490061181022F7F718
:10FC900055FB72480661009941610021C1610199DB
:10FCA00008318161029A07230498039900E0001D3E
:10FCB0004360491C060008369642F8D3012901DC4E
:10FCC00008F01CFC0198A84200D1ABE0411B281DA4
:10FCD0004018026801239A43026001220120084370
:10FCE00068606950C8081F2826D801902000283075
:10FCF000019AD200801800900646102901D208F01F
:10FD0000FDFB21680120019A0B00D340034003D181
:10FD100090400843206008E000988068216988428C
:10FD200001D3060001E008F0E9FB00988560F5606A
:10FD3000AE600098E86075E0080A29D01304984284
:10FD400001D31F2024E0FF23DB43C3181B0C08262C
:10FD50003340029398403F4BC3181B0C042633409A
:10FD6000019398403C4BC3181B0C02263340009370
:10FD70000E23029E9B1B019E9B1B009E9B1BB04063
:10FD8000C00B18184300C01D0E00C6403240981822
:10FD900098225200A2188300D2180092E861002233
:10FDA0006A612A61626801231600C6401E4007D1BD
:10FDB000834013436360009805600098A8611FE0CA
:10FDC000009A12681F2801D1080006E01923400894
:10FDD0001B1A0800984000E0320053680726B3431E
:10FDE0008B4210D013001033C60FB6009B19400091
:10FDF0001E68002EF0D12069834211D31D60AA61D4
:10FE0000ED60AD600EE0906821698A4208D38842B7
:10FE100006D3C5609560A860EA600020A86101E093
:10FE200008F06CFBE06887420DD2C01BE060A1695E
:10FE3000CA19A26101230343536003203843486079
:10FE40000C00083400E0002400BF00BF200007B011
:10FE5000F0BD000000F0FFFF00C0FFFF9422002073
:10FE6000002800D17047F8B584B00838050000BFFD
:10FE700000BF474C2069854200D2DAE2686803215E
:10FE800003220240012A00D1D3E2C708FF00EA1989
:10FE900000920126304242D12A68084000D1CAE2CD
:10FEA000BF1850422D182069854200D2C1E2606916
:10FEB000854200D106E1D008202800D37EE0A96861
:10FEC0000291E968019103900198854201D108F0FF
:10FED00015FB0298854201D108F010FB68680721E4
:10FEE00088430399C900884201D008F007FB20002D
:10FEF00028300399C90040180299814205D022692F
:10FF0000914258D3C968A94255D10199029A9142A8
:10FF100042D12168039A01209040814321600098DA
:10FF2000854200D385E24068304200D181E28107FA
:10FF300000D5C9E10099A269914200D0D2E0E06801
:10FF4000C019E060A56106436E6061698D4202D10F
:10FF500000216161A160E169814200D36BE20D483B
:10FF60000068002801D1FEF799FCA169002900D1A1
:10FF700061E2E068292802D32000FEF781FCE069F5
:10FF8000E168884200D356E20020C043E06152E2BB
:10FF9000E420002080250020814206D00846216907
:10FFA000884208D38068A84205D10198D0600298A1
:10FFB00001998860B3E708F0A1FAB0E7A869029058
:10FFC000E968A94210D0A8680191216988422CD320
:10FFD000C168A94229D101998968A94225D101990D
:10FFE000C1600199886022E02A00143210680190F3
:10FFF000002805D12A00103210680190002816D080
:020000041005E5
:10000000019801E00A001068010014310B68002B10
:10001000F8D1010010310B68002BF3D10190206959
:10002000824202D30020106001E008F067FA0298D3
:10003000002800D173E7982040002018E969890062
:10004000401801688D420AD101990160002915D13B
:100050006168EA6901209040814361605FE702982E
:100060002169884208D30069A8420198029901D108
:10007000086103E0486101E008F040FA01980028B7
:1000800000D14CE720690199814294D30299019AE9
:1000900091612969002908D0814204D30198016146
:1000A0000198886101E008F029FA6869002800D108
:1000B00035E72169884200D27DE7019948610199BD
:1000C00081612CE7009840680140032900D026E7B1
:1000D000A76000984068B043009948603E436E6056
:1000E000EF51A8E16269914207D1A068C019A060F0
:1000F000656106436E6028509DE1072188433F18E3
:10010000C00820284AD20099896802910099C968DC
:100110000191039000980199884201D108F0EEF90D
:1001200000980299884201D108F0E8F900984068E7
:10013000072188430399C900884201D008F0DEF9FD
:10014000200028300399C90040180299814208D044
:100150002269914200D2ACE0C968009A914200D075
:10016000A7E00199029A914206D12168039A0120E1
:100170009040814321609EE0814209D00846216978
:10018000884200D295E080680099884200D090E0D3
:100190000198D0600298019988608CE0009880698D
:1001A00002900098C0680099884212D0009989682E
:1001B0000190206981422DD3C868009A904229D1CC
:1001C00001988068904225D10198C86001988160AB
:1001D00022E0009A143210680190002805D1009A9C
:1001E000103210680190002816D0019801E00A0032
:1001F0001068010014310B68002BF8D10100103198
:100200000B68002BF3D101902069824202D30020B9
:10021000106001E008F072F9029800284BD0982095
:10022000400020180099C9698900401800990268A7
:1002300091420BD101990160002917D161680098A2
:10024000C269012090408143616034E002982169D5
:10025000884209D30069009988420198029901D126
:10026000086103E0486101E008F048F901980028BE
:1002700021D02069019981421BD30299019A916191
:1002800000990969002908D0814204D301980161CD
:100290000198886101E008F031F900984069002870
:1002A00009D02169884204D301994861019981618B
:1002B00001E008F023F9012038436860EF516069DC
:1002C000854208D1A760B6E0B0430099486001209C
:1002D00038436860EF51F808202827D202902000A8
:1002E00028300299C900401800900190102F01D2C7
:1002F00008F004F9206802990200CA40324003D194
:100300008E400643266008E0009880682169884294
:1003100001D3019001E008F0F1F8009885600198A0
:10032000C5600198A8600098E86084E0380A01D1AF
:10033000002227E03104884201D31F2222E0FF215E
:10034000C9434118090C08221140019188403C49D9
:100350004118090C04221140009188403949411884
:10036000090C022211400E22019BD21A009BD21AC4
:10037000521A8840C00B10184100C01D3A00C240FC
:1003800032408A18982040002018910040180090B0
:10039000EA6100206861286161680B00D340334046
:1003A00007D196400E436660009805600098A861EA
:1003B0001FE0009909681F2A01D13A0006E01923BD
:1003C00052089B1A3A009A4000E031004B68072619
:1003D000B343BB4210D00B001033D60FB6009B19AD
:1003E00052001E68002EF0D12069834210D31D6098
:1003F000A961ED60AD600DE08A682369994207D379
:100400009A4205D3D5608D60AA60E960A86101E0D9
:1004100008F074F8206A401E20620CD1E4204000ED
:10042000205800E080680028FCD10020C0432062F2
:1004300001E008F063F800BF00BF05B0F0BD0000A8
:1004400000F0FFFF00C0FFFFF5B585B00C000020F5
:1004500001906168C808C0000090059A1269049272
:10046000944200D289E18B079B0F012B00D184E1DC
:10047000009BE618B44200D37FE1726801252A424E
:1004800000D17AE18B0712D10699C908202900D240
:1004900075E10699091D884200D270E1B949896861
:1004A0004900069A801A814200D268E163E100980F
:1004B000069B984219D3C21A102A00D25BE1294048
:1004C00018460843022101436160069821184868D4
:1004D00028434860032010434860881843681D4340
:1004E00045600598FEF712FA45E105988069864255
:1004F00019D10098059AD26880181A46824200D312
:100500003DE1801A29400A430221114361600699A6
:1005100061184A682A434A6005434D60059A916113
:100520000599C86027E10598406986422BD1059856
:100530008068009A12189A4200D220E1D01A29400D
:100540000E00022110280FD3E21817183343194365
:10055000616051682943516005435560386079688E
:1005600001239943796009E0164331436160201DFE
:10057000801801680D4305600020002205994A613A
:1005800005998860F7E0900700D5F8E007208243DE
:100590000392009880180699884200D2EFE00098F4
:1005A0008018C01A02900398C008202841D2B16870
:1005B0000191F7680490BE4201D107F09FFF0198B6
:1005C000864201D107F09AFF706807218843049999
:1005D000C900884201D007F091FF05980499C9002D
:1005E0004018019902002832914208D0059A1269F8
:1005F000914200D292E0C968B14200D08EE00199E8
:100600008F4208D105980168049A012090408143E7
:100610000598016084E02830874206D0059800697B
:1006200087427BD3B868B04278D1CF600198B86078
:1006300076E0B0690190F768B7420CD0B0680499D1
:10064000884225D3C168B14222D1B968B1421FD1D5
:10065000C760B8601EE0300014300768002F07D173
:10066000300010300768002F14D001E00800076840
:10067000390014310A68002AF8D1390010310A68AB
:10068000002AF3D10499884202D30021016001E0DD
:1006900007F034FF0198002842D00598F1698900DD
:1006A000401898214900401801688E420BD107601C
:1006B000002F17D105984168F269012090408143CD
:1006C000059841602CE0019805990969884207D393
:1006D0000069B042019801D1076103E0476101E080
:1006E00007F00CFF002F1BD005980069874215D337
:1006F0000199B9613169002906D0814202D339617B
:100700008F6101E007F0FAFE7069002808D00599B2
:100710000969884202D37861876101E007F0EEFE43
:10072000029810280ED20098039940186168294059
:10073000014302220A436260211D081801680D432B
:10074000056018E0606828400699014302200843CC
:100750006060069821184868284348600298032280
:1007600002434A6002980818426815434560029A9D
:100770000598FEF7CBF8019401E007F0BFFE019861
:1007800007B0F0BD8025002070B506000D000024E4
:10079000002E04D12800FEF76BFB040034E03F205C
:1007A000C043854230D20B2D01D2102403E02C002F
:1007B0000B340720844300BF00BF01232200310017
:1007C00008391248FFF740FE040000BF00BF002CAC
:1007D00001D0083418E02800FEF74AFB040013D0CB
:1007E000301F0068810701D1082100E004210722A1
:1007F0009043421AAA4200D92A0031002000F6F79D
:10080000B7FD3000FFF72CFB200070BDE420002076
:1008100070B50446022315460E46C00603D51C22B9
:10082000BF20044000E019222007000F032810D247
:10083000094980000968401800692146FDF766F8FB
:10084000010006D04E6020468D60FDF7B9F800200B
:1008500070BD072070BD0000C0110020FFB581B041
:100860001D4606460A9FFBF781FC044600200090C7
:10087000F4F737FB0298304308D00398FDF79AFF4E
:10088000424988421AD1422005B0F0BDE61D0B2036
:100890000025F936800124180CE0FF20093071682A
:1008A00068430818C421095C002901D007F042FE02
:1008B0006D1CEDB2207DA842EFD80FE0FF3401346B
:1008C000FF220932616850430C18012E08D0C42061
:1008D000005D002802D0204607F02CFE0098D3E7E8
:1008E0002146C03108790028C87F16D0C00709D03A
:1008F000216DE06E0860216D206F4860216DE06C15
:10090000E1642065606F0028E8D0FDF796FA7D214C
:1009100049014D4340196067E0E7C20702D1C04377
:10092000800705D1E06E002802D1206F00282BD06F
:1009300020468030028BD30702D0838DF52B23D83D
:1009400012231340022B02D1038E002B08D0120772
:100950000CD50E4BC28BDB1E9A4203D1802505E0DD
:100960000C2091E7802D0FD8002D0DD07D22520153
:10097000554365674783002F01D001224A71878361
:10098000204607F0F5FD7FE712207DE7FFFF00001E
:1009900010B504460846F4F7B9FE0002000A2060CC
:1009A00010BD0000F8B50546FBF7E0FB0446002645
:1009B0002878FDF7FFFE2A4988421AD1FDF71AFF71
:1009C000FF2814D0FF340134FF22093261685043FC
:1009D0000C18204629788030C18300218185224669
:1009E0000186C03211765176C182818408E00720E9
:1009F000F8BDFF340134FF220932616850430C18FE
:100A00002046297BA030C175697D0176A97D41769C
:100A1000E97D8176297EC176697E0177A97E41775D
:100A2000E97E8177274669888037398368680002C4
:100A30006065A8680002A065697BDF200155A97B7D
:100A4000E020015529462046AA7B0F315C30FDF796
:100A5000FCFE387E000701D5024860653046F8BDCF
:100A6000FFFF0000DC050000004870477206000030
:100A700010B5FBF77BFB0B2189014018007D10BDF1
:100A8000F8B505460026FBF771FBC31D0B240021BA
:100A9000F933A4010019194A007D0DE0FF27093739
:100AA0005C684F43E4199E273F5BAF4202D19142FD
:100AB00004D005E0491CC9B28842EFD84220F8BDF5
:100AC0002546C0352879012815D08034E2830020DE
:100AD0002871287E002804D00022A120A16CFFF7F5
:100AE00097FE687E002804D00022A120216DFFF728
:100AF0008FFE3046F8BD0C20F8BD0000FFFF00005F
:100B0000FEB500200190FBF731FB06460B200025C7
:100B10008001371825E0FF2005308159001D68430A
:100B200008180446C034217901291FD000218030E3
:100B3000C9430090C18300202071207E002805D089
:100B400000980022816CA120FFF762FE607E0028E1
:100B500005D000980022016DA120FFF759FE6D1C01
:100B6000EDB2387DA842D6D80198FEBD0C20FEBD5E
:100B7000FFB583B00C9EFBF7F9FA0446F4F7B1F920
:100B80002746FF3709373C46FF342134E0790025FA
:100B9000C00702D00C2007B0F0BD0020E075FF2098
:100BA000A07307F0A3FDA073FF2844D0F00713D073
:100BB000002128460D9A07F0BDFD0120C0460028FF
:100BC00009D0012128460D9A07F0B4FD02212846DC
:100BD0000D9A07F0AFFD0125B00705D50121284684
:100BE0000D9A07F0A7FD6D1C700704D50221284659
:100BF0000D9A07F09FFD2674049820710398A07148
:100C0000039860713846DC30059A0699FDF71DFEA1
:100C1000002069464871E179890702D501216A46B9
:100C20005171012269460A7048704880087168460F
:100C3000F4F7D9F8AFE70020E071ABE770B50146F3
:100C4000FBF794FA0346FF3009300246FF328C78F6
:100C5000213214748C880E4E25020C7A9B19A40044
:100C600024188034A560CC8825020C7AA4002418AE
:100C7000803425610D7ACC78EC544B785371097827
:100C8000117100218030C1650166084670BD000009
:100C90002A02000000B5074800684830807CC10681
:100CA00001D5012000BD800601D5032000BDFBF762
:100CB000C9FA00BDBC11002070B5024628480024C6
:100CC000007F884201D8822070BD2648002A006833
:100CD000406D02D014225143401841788A06D30F48
:100CE000CA060907D20FC90F002B02D0002A02D171
:100CF00003E0002901D0002070BD02894668057814
:100D00003146104607F084FD1749884204D0301858
:100D10008078410709D50AE0002D1ED0012D04D0AE
:100D2000022D02D0032D0AD117E0D42415E0002DA6
:100D300007D0012D08D0022D0BD0032D01D0122495
:100D40000BE08007F1D108E08007800F0128ECD18B
:100D500003E08007800F0228E7D1204670BD000025
:100D60000C250020BC110020FFFF000070B5234DB2
:100D7000034628680029446D02D014214A43A41870
:100D80002178012B1CD0A178890716D5002107F006
:100D900057FD1B480225006880304078C0070CD002
:100DA00018481B220068002380692946FCF7AEFD25
:100DB000010002D02846FCF703FE0020A07070BDA1
:100DC000002300290ED0012902D002290AD105E012
:100DD000A07802210843A0700B4B03E0A078042107
:100DE0000843A070A07861780843A070002BE6D07B
:100DF00001220021286805F02CFE70BDBC110020E6
:100E0000B8110020C011002020BF0200A030C17D19
:100E1000807ECA078B07D20FDB0F4907D218C90F94
:100E20005118032804D0B12041430846BC30704714
:100E30004B20C000F8E70000F3B5002185B00F4655
:100E40000E46009105990420A031069D02910024D0
:100E500001AB03AA059907F01EFD69460979CA0787
:100E600000D006248A0700D5A41D0A0700D5A41CBB
:100E7000002800D0E41C480600D5641C0699FD201B
:100E8000001BC91B814200D8084680B2291A8DB2C6
:100E900039188FB20299097F012904D0022908D09C
:100EA00003290CD013E02018C10000980818603006
:100EB0000CE02018810000980818343006E0201853
:100EC000810100980818352109014018009002207E
:100ED000761C002DBBD1009804490002F6F7B8FA41
:100EE000CD214E433018CD3807B0F0BD710200005F
:100EF000F8B51C4615460E460B9F05F079FB817C24
:100F0000012916D14460069981600799016008990A
:100F100041750999817501210175C57401820A998C
:100F20000762C1610C9941620D99C660816202211C
:100F30008174F8BD024800688030C06C70470000C2
:100F4000B811002010B5FBF711F910BDF8B5164621
:100F50001D46044614220021069FF3F712FC207957
:100F6000202108432071217904200143217124604C
:100F7000A6602573290A6173A17B2A030909090167
:100F8000120F1143A173A17B10221143A173217988
:100F90004906490E2171E27B02210A43E27362791C
:100FA00002436271607908436071012F08D0A07B11
:100FB00040210843A0736079400840006071F8BD8B
:100FC0002079012108432071A07B80210843A07370
:100FD000F8BD0000F8B516461D460446142200214F
:100FE000069FF3F7CEFB207920210843207120795A
:100FF0000421084320712460A6602573280A6073C9
:10100000A07B290300090001090F0843A073A07BFE
:1010100010210843A0736079012108436071207991
:101020004006400E2071E07B02221043E0730E4B1D
:1010300018690E4D28403D0228431861A07B4023CB
:101040001843A073E07B80231843E073607910435A
:10105000607107980128207902D008432071F8BDFB
:1010600040084000FAE70000C0000020FF0000F048
:10107000F8B504460027E0308770A06A012507868E
:1010800004F08EFF030568000146A26A1B0D303193
:101090005352A26A2E30105A6D1C1818EDB25052DD
:1010A000112DEDD32046FFF7B1FE25468035009087
:1010B0002646AF86A036F07E2246394607F05EFC13
:1010C000014600980A18F07E616D03464843E16FBF
:1010D0005B1C401812182A60AB820520B075501AAC
:1010E000A067F07D2036C1078207C90FD20F89188B
:1010F0004207D20F8918491E317707F04AFC7077F2
:101100002F846F8404F04CFFC0B22521F6F7A0F9BC
:10111000B177626FE06F111A688B002802D1737982
:10112000012B03D000291FDA002A1DD031790029B4
:101130001AD000280DD03C212A7F101AC0B200908E
:101140000B48AA7F00682030007BC00703D0002036
:1011500002E04321F0E71020A1231843054B07F0DC
:1011600023FC204607F056FC688B401E6883F8BDC0
:10117000AC110020FF0F000010B5FAF7F7FFFF21B8
:10118000002269310A54FF3024214930F6F710F962
:1011900010BD000010B50349062209688931F3F734
:1011A000EAFA10BDB811002070B5FF25002005F047
:1011B0001FFA0E490024C97A09E072B62C22624354
:1011C0001218927C002A06D062B6641CE4B2A142D6
:1011D000F3D8284670BD2C2161430122081882747F
:1011E00000212546816262B6F3E700000C2500204D
:1011F000F8B50446502044431C4816460F461D4689
:10120000201850220021F3F7BCFA18485C38211846
:10121000C86D40221043C865144824302018026865
:10122000134A02604268134B120E1206D218426033
:101230008268FB0652095201DB0E1A4382600A6E75
:101240000E664A6E4D66069B8022012B0AD0CB6D3E
:101250009343CB6581683F2212029143FF310131F4
:101260008160F8BDC86D1043C865F8BDDC00002082
:10127000D6BE898E5555550070B50546002407F039
:10128000E1FB0179012904D10168284600F0EBF95E
:101290000446204670BD0000F1B5AEB001200890B4
:1012A00007F0D0FB0126009006730020D24D0E906F
:1012B00029684031087205F09BF92D6804465435C1
:1012C0006E71287900090007000F28712E98C00957
:1012D00019D02E98FF2823D04006400E2E902C21A6
:1012E000484306192E9FFCF7A8FD3168081AFF38FD
:1012F0002D2805D501200E900098002101730AE1E8
:101300000098002101732E98FF2809D02C21484312
:10131000001901210175817C082901D10421817402
:1013200060210FA8F6F744F8182127A8F6F740F82F
:101330000898962148430B90FCF77FFD0B994018C5
:101340000022174607904CE02C2078430619B17C08
:101350000E20014225D00420B07433680799184646
:1013600000F081F900280ED10798F269C11AF068DF
:101370009047318A09183182317D0818FF2800D939
:10138000FF2030750122B37D01209C46737D317DA5
:10139000984063469940884200D90846BB000FA98F
:1013A000C850B07C30230146C907C90F18400991C5
:1013B00000280BD0B16A002901D0F06888470020CE
:1013C000B074F074BA000FA988500122099800285F
:1013D00003D00020BB000FA9C85027A8C7557F1C09
:1013E000FFB28648C17AB942AED8002AA4D1511EB4
:1013F000009A0B919160FF2100230A9180E07046D2
:10140000C01A401EC0B281000FAE0246715819E0EA
:10141000401EC0B287000FAEF659B4468E4211D3BB
:101420008C450DD12C265643371927AE0297365CD2
:101430002C277E43029F3619BF7DB67DB74201D867
:10144000024661460028E3D100295FD0002B10D06E
:1014500001200C9027A8815C2C2671430919049166
:101460000E684968711802917146491E634ECFB2E9
:1014700015E027A8805C0A9010462C2148430019EB
:101480001FE027A8C15D2C2041430819006802997C
:1014900000F0E9F8002800D10C907F1EFFB2F07A2E
:1014A000C01A401EB842ECD30C9800280BD027A8D5
:1014B000805C0A90049801680B98411A009881603A
:1014C000049800680B9027A8815C099196000FA8EA
:1014D0004A498759C97ABE46CF1AB90009188039D6
:1014E0008C46C96F815127A838182038C67F27A994
:1014F0008E540999C177774661465B1CDBB2CF6792
:101500003E48C17A8E46994200D978E70A982C2144
:1015100048430A9F061903204007826908210A43AD
:10152000826107F08FFA0446FF2F53D00820B07471
:101530003068039020606771326A7168F068904784
:101540002F484169012292071143416141687A069F
:10155000C909C901520E11434160416880221143FB
:101560004160F07C8007C1170E98491C00280DD0FF
:1015700006F059FB0120207128790107F07C090F42
:10158000000101432971039828602EE0012203988D
:10159000FCF7D9FB0028EDD00898400008901028EF
:1015A00000D27DE61748A1250068062601230D22FA
:1015B00040692946FCF7AAF9040016D000212671DB
:1015C00061710A46A01DF3F7D6F821462846FCF7BC
:1015D000F7F90AE0FCF746FB0948426880218A4394
:1015E0004260FF20607100202071034901200968DA
:1015F000403108722FB0F0BDB81100200C2500203A
:10160000C0000020C011002010B50446002004F0E6
:10161000EFFF2C220021544320188174C17410BDA7
:1016200010B50C4604F0E4FFC47410BD10B5FAF711
:101630009DFDFF3009300446FF340021213421761E
:10164000F3F7D5FB207E0028FCD010BD10B5FF2895
:1016500006D004F0CDFF817C082902D010218174CE
:1016600010BD2021FBE7401AC00F01214840704700
:1016700010B50446FF2813D072B6FCF7DEFBFF302E
:10168000EC30FFF7F9FD03460D48002100680246E3
:101690004032117262B6012B03D02046FFF7FCFDE9
:1016A00010BD4164074B07E0147A002C01D0117281
:1016B00010BD446C641C4464446C9C42F4D310BD63
:1016C000B811002000E2040010B4002A0CD00B4C2A
:1016D000A2420BD80123012A06DB04780C70401CBF
:1016E000491C5B1C9342F8DD10BC704703780B70FB
:1016F000401C491C521EF9D110BC7047FFFFFF7FF0
:10170000F0B587B00E460546FAF730FD0446FF34C3
:10171000FF2009341530015908780207120F072AF3
:101720002ED0082A2CD0891C4006C20F04A8FDF731
:101730008CF82046FF302130837B01224179FF2B3A
:1017400001D08179002227468037F86D2346FF3388
:101750003033C0B20393019100900296533B294667
:1017600004A8F3F7A7FB01462868F86468683865A1
:101770002868000A000208432860084607B0F0BD48
:10178000091DD1E738B50546FAF7F0FC0446FF34E9
:1017900009342046FF3021300091C37B4179224635
:1017A000EC322846F3F796FB01468034E06E286061
:1017B000226F6A60020A12020A432A60FE2900D1DF
:1017C0000021084638BDF0B59C46069C0023059EC6
:1017D0002370089B7F241C70FF23337083789B0643
:1017E00039D0C3780424DD0700D00A249D0700D532
:1017F000A41D5D0700D5641C1B070ED507197B7857
:101800001B071D0D035D5B1965462B807B78012549
:101810001B093370069BA41C1D70C378DB0622D500
:10182000035D9B069B0E0B70015DCD094906CB0F36
:101830000999ED010B70031959789B78DE06F60CB7
:101840007118802D0CD0FF258A35694349095B0941
:101850001370E41C0BE00798032101700020F0BD19
:101860007B256943F3E700230B70137019468278D8
:10187000079B9206920ED21C1A70C278930601D56D
:101880001234E4B2520602D5025D0898027008468E
:10189000F0BD000004490A68126C02600868FF305D
:1018A0000130007E70470000B811002010B50446DA
:1018B0000620414388B207F0CDF805490968403158
:1018C000898B401880B2214607F0D2F8C01D10BDA8
:1018D000B811002010B50C4604F08AFE046010BD5B
:1018E000FFB581B01D460746FAF740FC00260246C8
:1018F0002E70FF320A9B09321E7000290DD0002184
:101900003878012403460B43002B08D0002808D068
:1019100001280AD0112808D009E00121F0E73C7025
:101920004EE000294BD02C7049E00029FBD1012862
:1019300001D0112803D1002910D0112810D003287C
:1019400011D0052813D0042820D0142821D0042831
:1019500027D014282CD006282FD030E0112025E0E5
:1019600000292DD001E0002929D02C7028E0002981
:1019700025D003990020FF3208702132D07D012844
:1019800002D10126FCF76EF97C75EEE7002902D141
:1019900009E000290ED0104607F06FF80A9804708D
:1019A000C1E700290BD10A9804701420387007E0B1
:1019B000002904D10A98047002E0002900D1012610
:1019C000304605B0F0BD000070B501251446002872
:1019D00008D0207907F078F8FF202071FCF742F951
:1019E00060790FE0802600290FD0FF332133187E65
:1019F000002804D0FCF736F92079304302E0FCF7E8
:101A000031F92079FFF748FC04E00348416831438D
:101A100041600025284670BDC0000020F8B506468C
:101A20000A9FFAF7A3FB05463446FF3518340935FB
:101A3000002901D0521C6273012B01D10698A073BA
:101A40000798E07307F046F82074FF35013569699F
:101A50000B98081820626869817840788906890E99
:101A6000401A401E207720781721084020700C99DA
:101A7000002902D12021084320700D98002803D0AE
:101A800020780821084320706969207889788909BD
:101A900008432070F878C00706D00898002803D0C3
:101AA000F06860603069A060F87880070CD508980D
:101AB000002809D020780421084320700998006884
:101AC000606109984068A061F8BD0000F7B584B076
:101AD000FAF74CFB0446FF34093401274D4E054606
:101AE00000291BD02146FF312131C879400731D46C
:101AF000487A002805D0401E0006000E487201D02A
:101B000061E04872706880210843706015204001D0
:101B10000321281801720C2141721BE02046CC30B1
:101B200007F000F800284ED1FF202830005D400764
:101B300049D570688021084370600698012200280A
:101B400004D004980222022800D1032220460499DE
:101B500007F008F8152022464001FF3229182132EB
:101B6000029194461279087AD3075B0E1843E31D5D
:101B70000872F93303935B6940261B7833405B009E
:101B800018430872022A20D326468036F06E70660B
:101B9000306FB0666046C17B20460122E43007F01A
:101BA00023F8706E0090B06E019002980099007A50
:101BB000C907490E0843029906220872164800A96F
:101BC0002818013106E0002720E0134821460622AC
:101BD000ED312818F5F7CCFB0399022049690A7802
:101BE0001207120F072A00D1042009182B20000128
:101BF00006222818F5F7BCFB04985521800000192F
