:020000041004E6
:1000000000000120951E061079FB051085FB0510E8
:10001000AA5555AA45554C420000000000000000BA
:1000200000000000000000000000000091FB05102F
:1000300000000000000000003F66041093FB051064
:10004000B3670410AB6F04108F8004105B8504103D
:10005000F38804108F8A04104F8C0410538D041001
:100060009BFB051073930410A7940410AB95041028
:10007000E797041077A0041053A10410A5FB051006
:10008000BFFB0510A3FB0510FBFB0510C3A204106A
:10009000E7FB0510DBA3041003A80410DFFB051029
:1000A000D7FB05109FA9041000000000000000000D
:1000B0000000000000000000000000000000000040
:1000C000FEB51C00089FBE4D6B4658706846017017
:1000D00016001CE00422A9192C3101A801F016F920
:1000E000002F0FD101A8C07869464978884209D10C
:1000F0006846007806280FD06846007801A98978FC
:10010000884209D0684680883618B6B20027688DC4
:100110008642DFD10020FEBD002C00D026800120C9
:10012000FEBDA84A514380081B224243881825304F
:100130007047F8B584B004000F001600A04D607B36
:10014000002802D12A8D002300E0E289009301AB50
:1001500001212078FFF7B4FF002801D1042019E025
:100160000120607368468088E081684680882C188A
:10017000062221002C3102A801F0C8F820003230FC
:10018000386068460089801F308002A800790A998B
:100190000870002005B0F0BD7CB5894D298D6A46F8
:1001A00091800021060019E0684680882C180422FE
:1001B00021002C31684601F0A9F800F074FC694672
:1001C0000988421A61182C3120002C3001F0EAF81D
:1001D000688D69460988401A68850121009101AB44
:1001E0006846828806213000FFF76AFF0028DBD1CD
:1001F00073BD016800220281428182730B78FF2B5C
:1002000005D0FE2B09D103895B1C03810AE04268FB
:10021000511A091F818100207047002B0DD143899D
:100220005B1C43814A88D21C032313435B1CC918FF
:100230004A1D43689A42E1D3EDE703207047FCB5BD
:1002400085B00D9F427B002A1BD10C9A130005D06C
:1002500002AB5A80FE221A7002AD00E04568426887
:1002600083689A4215D26A4691712978FF29544EC3
:1002700001D10EE020000021027B002A12D0017380
:100280001EE000970123069A0599FFF752FF002808
:1002900047D0042045E0032043E06A786B469B7911
:1002A0009A4216D042686B88DB1C03241C43641CF2
:1002B0001519456082689542E3D22A78FF2AE0D07A
:1002C0002A78002AEED0FE2AE5D16A469279FF2AE2
:1002D000E3D1328D6B469A8004000CE00822684618
:1002E000808831182C3103A801F010F80498616857
:1002F0008842BFD00121009101AB6846828802216B
:100300002078FFF7DDFE0028E8D16068001D059920
:100310000860688806990880002F01D068783870D6
:10032000002007B0F0BD7FB515001C00099E00221B
:1003300032800B9A01926A46128D009202AB03AA98
:10034000FFF77DFF010013D1694609898D4201D372
:1003500006200DE0089A481B904200DA02002000B7
:100360000399491900F0D2FF6846008930800020C7
:1003700004B070BDFEB5B44D0D40491B6B461970FD
:100380000024070016000AE00422311901A800F039
:10039000BDFF019A3919AD4801F01CF8241DAC428B
:1003A000F2DB0020C043019068460278711901A871
:1003B00000F0ACFF019A7919A44801F00BF8F7BDE1
:1003C0007C05002034230000F6B585B00E001C002B
:1003D00025000027FF43417B002918D00021009110
:1003E000002301AA921C02A9FFF7A3FE00283AD11C
:1003F0006846C088801B80B2A04246D32A0002987B
:100400008119069801F01EF800283FD03DE04168B0
:1004100002918268914202D20978FF2901D1042019
:1004200034E0027B002A1ED1FE291CD18849098DA7
:100430006A46918004000120009001AB68468288E2
:1004400002212078FFF73CFE00280ED008228048C9
:100450006946898841182C3103A800F057FF049899
:1004600061688842E7D1052010E0029949888E42F0
:1004700001D306200AE020732A006068001D81195C
:10048000069800F0DFFF002800D0380007B0F0BD6C
:10049000FFB585B000270E9A178069460C8C417B0A
:1004A000002919D0009700230E9A01A9FFF741FEF9
:1004B000002846D10E9800886946098B421A684682
:1004C000008C824200DB220001986946098B4118AA
:1004D000079800F01BFF50E00F990A0005D002AA10
:1004E0005180FE21117002AD00E0456841688268CC
:1004F000914202D22978FF2901D104203EE0027BFB
:10050000002A1ED1FE291CD15149098D6A469180CD
:1005100006000120009001AB6846828802213078F5
:10052000FFF7CEFD00280ED0082249486946898889
:1005300041182C3103A800F0E9FE04987168884244
:10054000E7D105201AE06846008B6988884201D30C
:10055000062013E037736846008B69880A1A6946DB
:10056000098C8A4200DB22007168091D091807986E
:1005700000F0CCFE68880E990880002009B0F0BD1C
:1005800038B5050000210420FFF7CBFDEFF3108400
:1005900072B600F071FF002803D184F310880720A1
:1005A00032BD2900FF22D243284800F013FF84F314
:1005B0001088002032BDF8B507000E00150000F0CD
:1005C00041FF00281BD0681EB3490143491C4B035F
:1005D0001B0EB2483818C20A00211C4800F00CFF5C
:1005E00000240AE06010800F00198010800032584B
:1005F0003919164800F0EEFE241DAC42F2D3F1BDCD
:1006000070B506000D00EFF310840DE00123327881
:1006100000210E4800F0F0FE84F310883078401C72
:1006200030702878401E2870287800280BD00121CF
:100630000020FFF776FD72B600F01EFF0028E5D11E
:1006400084F31088072070BDFCFF000000100040FC
:100650007C050020012101700021418081807047CC
:10066000F8B58AB005000E0017001C0000200090AD
:10067000FF223900300000F09BFFFE20694608761B
:10068000099508960794109D009C06AE1AE06846EE
:10069000008A6988401A401E03240443641CA4B2E3
:1006A00068886946098A091A4A1E03211143491CB0
:1006B00089B2059A8A4244DB01209142287049D0D0
:1006C00000206880381B001F80B205902878002821
:1006D00028D0701C0390A888029004A80190059867
:1006E00080B200900898001D03190022FF2109988C
:1006F000FFF719FE6946098AA98001000ED16846F4
:10070000008A7080042206A90898001900F0FEFDF6
:100710007088C01C032101436418BFE707990C804F
:100720000BB0F0BDA888019004A80090059883B292
:100730000898021969880998FFF7AAFE0100A6D057
:10074000EEE7002129700599401868800798078016
:100750000020E5E70020F8E7F1B58B488544002745
:10076000CA48842109016944097814225143411877
:1007700001914989002901D100208AE000970023D6
:10078000028D06218420000168440078FFF798FC60
:10079000002801D009207CE0202000F08AF9002800
:1007A00001D1082075E006A9842000016844007882
:1007B00000F018FB079C04A8FFF74CFFEFF310862E
:1007C00004A803C80AAA03C20CA806A9102200F0B4
:1007D00083FD04A8009003AB8022120110A906A893
:1007E000FFF73EFF0500042D08D0002D51D16846CB
:1007F0008089802109018842E2D103E0684680892E
:10080000002816D0012168468089FFF78AFC72B65D
:1008100000F032FE002829D06846828910A9200005
:10082000FFF7C9FE86F310880127F8022418002D6F
:10083000C6D00898401E18490143491C081BC00A2D
:100840006946487015482018C00A0870491C684657
:10085000FFF7D6FE072819D1684642780178842030
:1008600000016844007800F0AFF912E086F31088C8
:10087000002F01D107200CE00AA803C801900291C3
:1008800000940CA80FC800F070F902E00198FFF77F
:10089000B0FCCB498D44F0BDFF0700000000FCEF29
:1008A000F8B5C84CA54480273F010500EFF310863A
:1008B00002A829001831062200F028FD04A8291DED
:1008C000102200F009FD28001830009001AB3A001A
:1008D00008A9281DFFF7C4FE040068468088B842B6
:1008E00005D0002CE4D068468088002816D000216E
:1008F00068468088FFF715FC72B600F0BDFD002841
:1009000029D06846828808A96869FFF754FE86F3F3
:1009100010886869C0196861002CC9D0E868401E59
:10092000791E0143491C6869081AC00A6946487063
:100930006869B4494018C00A69460870491C68468D
:10094000FFF75EFE072815D16846427801782879BE
:1009500000F03AF915E086F31088281D04A910224A
:1009600000F0BAFC2800183002A9062200F0CEFCE4
:10097000072006E045482979142251434018FFF723
:1009800038FCC6498D44F0BDC0F7FFFFF8B58D4C6B
:10099000A54400216A469171002400253B4F0600C2
:1009A00000E06D1C3079854216DAB0680C2169438D
:1009B000405C01001422514379184989002900D074
:1009C00001240021009100233A8D0621FFF778FBD6
:1009D0000028E6D0092055E03500002C24D08027DF
:1009E0003F013A00FF2108A800F00BFE00240DE0B3
:1009F00002A8FFF72FFE02A8009001ABBA1B92B22B
:100A000008A8811904A8FFF72BFE641C28798442EA
:100A10000CDAA8680C226243011D8E5804A9805C80
:100A200000F0E0F90028E3D000202BE0012138009D
:100A3000FFF777FBEFF3108672B600F01DFD00287C
:100A400003D186F3108807201CE03A0008A9286823
:100A5000FFF7B1FD86F3108800260C4F68468479B5
:100A60000CE0A8680C217143405C142148433818FD
:100A7000FFF7BFFB010000D00400761C28798642F6
:100A8000EFDB200085498D44F0BD00007C0500208F
:100A9000C1498A79824201D102207047897C814212
:100AA000FAD000207047CE48418D008D081A80B2E0
:100AB000704770B50400FFF7F6FF05008020400086
:100AC000411BA14201DA002070BDC54E718D401A54
:100AD000A0420BDA2A0030002C30318D4118300052
:100AE0002C3000F05FFC002030857585012070BD42
:100AF00070B50C00BA4D6E8D80214900891B220013
:100B0000914201DA002070BD0100A8192C3000F0DC
:100B1000FDFB30196885012070BDFEB504000D0095
:100B2000099F581E03210143491C68460180008823
:100B3000C619B61DB0B2FFF7BCFF002801D10820CE
:100B4000FEBD01A8012181700680C47005710621D7
:100B5000FFF7CEFF684601880898FFF7C9FF390004
:100B60000A98FFF7C5FF0020FEBD1FB588B0202002
:100B7000FFF79FFF002801D108201EE00E9C684669
:100B80002021018003218170001D08A9102200F09E
:100B9000A3FB0594684618300FA9062200F0B6FBA7
:100BA00020216846FFF7A4FF01208D4908AA12788A
:100BB00014235A438918887300200CB010BD00001C
:100BC00044080000E0F7FFFF7CB504000D001600AC
:100BD0000620FFF76EFF002801D1082076BD684689
:100BE0000621018004218170C470057146710621BF
:100BF000FFF77EFF01207A491422544309198873B4
:100C0000002076BD0000FCEFF8B5944CA544070029
:100C10000D0080221201FF2108A800F0F2FC002440
:100C20001BE00C266643A868805DB84214D004A976
:100C300000F0D8F8A8688019466802A8FFF70AFDF6
:100C400002A8009001AB80200001821B92B208A88C
:100C5000811904A8FFF704FD641C28798442E0DBB5
:100C60002E0080252D0101212800FFF75AFAEFF30D
:100C7000108472B600F000FC002803D184F31088C1
:100C8000072007E02A0008A93068FFF794FC84F3E6
:100C90001088002001498D44F0BD000024080000A8
:100CA000FBB582B003236E495218032515436D1C12
:100CB0000CE03778FF2F17D0FE2F01D0002F2BD15B
:100CC0007288D21C1A43521CB2184260826846686D
:100CD000741D9442EDD34249007814225043081801
:100CE000408900281AD015E00190901B884200D35B
:100CF00008003B4C80B2A9B26A46128D8918091DC2
:100D000088420DDA01980078142148432018408960
:100D1000002803D00B203DE003203BE0022039E017
:100D20006846007BFE216A46117069464870684635
:100D3000008D281848800021001D80B2FFF7F1F9CE
:100D4000EFF3108772B600F097FB002803D187F30A
:100D5000108807201EE0009A31007C4800F03AFB22
:100D6000049AA9B2301DFFF705FB0B9A6846018D66
:100D7000ADB27019001DFFF7FDFA87F3108820004F
:100D80000830019909781422514340180188491C00
:100D90000180002005B0F0BD2C1C061010B5002409
:100DA0009B480C21614341188A79694814235343B5
:100DB000C0180368002B11D1012A0FDC0A680260F9
:100DC0008B88D218426009890182FFF712FA01006C
:100DD00005D1641C012CE3DD002010BD012010BDF5
:100DE0007C05002010B50200022A01DB012010BDA5
:100DF000574B142462439A1813684B6052688A60F8
:100E000001220A7308700020487310BD7FB5504C52
:100E10000578142675436419A47B002C01D00A20A0
:100E200008E003940294099C01946C46248C00947D
:100E3000FFF779FA04B070BD7CB5454C05781426EF
:100E400075436419A47B002C01D00A2076BD01945F
:100E5000069C0094FFF71CFB76BD0000E0F7FFFF47
:100E6000FFFF0000F0B585B0060030786C462071B9
:100E7000374D68460079142460432818847B002C81
:100E800001D0092041E0521E03241443641C8789C9
:100E9000BC46A7B26A46128DBA18944506DA408954
:100EA000002801D00B2030E002202EE068460173BC
:100EB00004930B9F0020009000232A8D0621684692
:100EC0000079FFF7FDF8002821D002976846008DD1
:100ED000019004980090A3B272686846017B307854
:100EE000FFF71BFE010010D128000C3031781422CE
:100EF0005143401801886A46128DA218521E0323DE
:100F00001343C91A491F0180002005B0F0BD0197A5
:100F10006846008D0090049BA2B26846017B3000B9
:100F2000FFF7BEFE0100DFD00728EED1029768462A
:100F3000008D019004980090A3B272686846017B0E
:100F40003078FFF7EAFD0100CED0DEE70010004068
:100F50007C050020FEB50500684E30000E30297873
:100F600014225143405C002801D00920FEBD00241A
:100F7000687B002810D0E8893518062229002C311A
:100F8000684600F0C3F96846847006226946280066
:100F90002C3000F0BBF938E06868A96888421DD29F
:100FA0000178FF291AD0FE2916D1FFF7E9FA0100CE
:100FB00001D015D129E0300008302978142251439E
:100FC00040180188491E01802878142148433018B0
:100FD0004189491C418118E00520FEBD0420FEBD69
:100FE000072813D16F682D7808260820FFF761FDC8
:100FF000002801D10820FEBD6846068002218170CC
:10100000C57001970821FFF773FD0020FEBD0000A9
:101010002C1C0610F0B585B00400384F142148434D
:1010200038180290807B002801D0092063E001A9D4
:101030002000FFF72DFD022822D10298056846689E
:101040002000FFF7A9F8A0482818C00A6946487090
:10105000761E9E483043401C401BC00A087000A802
:10106000401CFFF7CDFA072806D168460278417880
:101070002000FFF7A9FD3EE00298FFF7BAF835E03F
:10108000012837D101992000FFF7BEFD060013D1DA
:1010900000240198007984422ADA019880680C21A2
:1010A0006143455C2800FFF777F814204543781921
:1010B000FFF79FF8641CECE7072E19D1019F082663
:1010C0000820FFF7F6FC002801D1082013E02000DB
:1010D000FFF762F803A8068005218170C4700497A9
:1010E0000821FFF705FD012002998873002002E026
:1010F000300000E0012005B0F0BD00007C050020BC
:101100001CB504006946FFF7C3FC022803D1200088
:10111000FFF722FB16BD012803D10098FFF736FC2C
:1011200016BD012016BDF0B58BB00027684C208D90
:10113000618D884238D02518042229002C3102A85C
:1011400000F0E4F802A88078012808D006D303282C
:1011500069D051D3052800D190E071D3B2E00622C6
:1011600029002C3103A800F0D1F805A903A8C07804
:10117000FFF738FE01970097208D23183233684619
:101180008089821F92B203A8017905A8FFF788FD24
:10119000050053D1208D6946098940182085618D4D
:1011A00080B28842C3D1A7624A4800214156C8B2E2
:1011B00014224243A2185389002B03D09389128A28
:1011C000934213D3401CC0B2022800D100208842B1
:1011D000EED100210020C0433E4A1170010602D426
:1011E000C0B2FFF78DFF00200BB0F0BD411C4AB22A
:1011F000022AF1D10021EFE7082229002C316846AC
:1012000000F084F80198FFF7BBF9050016D1684695
:10121000C0781421484320180189491E0181418961
:10122000491C4181B6E7202229002C3103A800F097
:101230006DF803A8FFF734FB0500ABD02800D3E717
:10124000062229002C31684600F060F86846411DEE
:10125000001DFFF7D5F905000622694620002C3055
:10126000238DC01800F052F8002DE7D16846C078F1
:10127000142148432018FEF7BCFF8BE70822290001
:101280002C31684600F042F801996846C078FFF7B3
:10129000BBFC0500D2D10025019801798D42ECDA22
:1012A00080680C216943465C30006946C9788842F1
:1012B00001D0FEF771FF14204643A019FEF799FFF5
:1012C0006D1CE9E70C208FE70000FCEFFF07000032
:1012D0007C0500201708002070B4103A03D378C9A9
:1012E000103A78C0FBD2530701D318C918C001D5F2
:1012F00008C908C0D20704D30B880380891C801C4E
:10130000002A01D50B78037070BC70478B0701D1A0
:101310008307E1D0124205D00B78491C0370401CB2
:10132000521EF9D17047F1B401684218416848086B
:10133000131800988068C9071ED5494640181BE05D
:101340001778521C0770401C761EF9D1002C13D060
:101350001678521C89080D40032D01D11578521CB6
:10136000290271184D424119A41C05D00D78491C61
:101370000570401C641EF9D19A420FD01178521C9E
:10138000032503260E4002D11678F61C521C0C09C8
:101390000F2CD9D114780F34521CD5E700980C309B
:1013A000F2BC7047814202D25318984203D300B571
:1013B000FFF7ACFF00BD521E03D38B5C8354521E5B
:1013C000FBD2704700690840884201D10120704774
:1013D0000020704710B50F2303618903090C816158
:1013E00002643321FFE70160040001212000FFF7C0
:1013F000E9FF0128F9D110BDF8B505000F26FF2936
:1014000009D12E612220286001212800FFF7DAFF90
:101410000128F9D1F1BD17003C00009306E001213D
:101420002800FFF7CFFF0128F9D1641C0098381875
:101430008442EFD22E61E0028003000CA8611120EB
:101440002860ECE7A446521E08D303780C78401CB1
:10145000491CA342F7D0181B64467047002064461D
:101460007047FF30FF212130417481748173002166
:10147000C17101210176704758B5040000F019FBD5
:101480000600684600F0BAFC002803D00098801BD4
:10149000844201DA012052BD002052BD10B5FFF791
:1014A0007DFC424C211D0020FFF79CFC21001431E3
:1014B0000120FFF797FC201D206010BD3EB53B4C7E
:1014C000022802D12500143500E0251D2560019376
:1014D0006B461B8B00930B0001002068FFF7C2FCDA
:1014E000002805D0022801D1002000E00120C043DF
:1014F0003EBDF8B584B00E0019002C4C022E03D16D
:1015000025001435012301E0251D00230700256077
:1015100028466D466A8103910A9D022F08D102A9CF
:1015200000912B00039A69464989FFF785FC0FE07B
:10153000002F03D101001800FFF754FC02A801900E
:101540000095039B6846428931002068FFF75EFCE6
:10155000010001D1002005E0042801D1022000E0B3
:101560000120C04305B0F0BD10B5140023000A00EF
:1015700001000E480068FEF727FF002804D001D5BF
:10158000200010BD0220C04310BD80B5022807D145
:10159000064908681431884207D0FFF7DBFC01BD1B
:1015A000032802D10020FFF735FD01BD5C070020B4
:1015B0001206130A1A43130C1A4300BF094205D03E
:1015C000830707D00270401C491EF9D17047000004
:1015D0000022FFE71300103906D330B414001500C1
:1015E00010393CC0FCD230BC490700D30CC000D538
:1015F00004C0890002D30280801C002900D502703B
:10160000704710B504000800110002002000FFF729
:10161000CFFF200010BD08B50846891D00918388C2
:10162000C278817800880020C04608BDF3B589B033
:1016300000250D700998807A002859D0994803C870
:10164000AE4A1268002312184B4106A80CC0EFF3F3
:101650001080029072B600F048FD02000B0009985D
:1016600003C804AC03C4012404A803C8009001917A
:1016700006A803C8C826B602002736184F410098AE
:101680000199B9420ED301D8B0420BD306A803C8C2
:10169000B9267600002736184F419F4223D801D340
:1016A000964220D200200A32434104A803C88B424C
:1016B00011D801D382420ED20998027AC37A04A8C3
:1016C00003C8190000F0C0FD0A99087009988572D6
:1016D0000998447209E0A0488572029880F3108846
:1016E0000A98047004E085484476029880F31088D4
:1016F0000BB0F0BD80B500F098FC01209D49087149
:1017000001BDF3B587B004460020087000E02469ED
:10171000002C5DD0207B0028F9D0EFF310800190E1
:1017200072B6002069460870491C8B48FFF77EFF9F
:1017300000F0DBFC02000B0003CC083C0F00861A13
:101740009F4104AAC0C2012504AA0CCA002B34DBA5
:1017500001DC012A31D3804A0CCA02AE0CC602AAAF
:10176000C0CA664A926B002312184B419F4210D8A0
:1017700001D396420DD2784A527A002A09D002AAA1
:101780000CCA8B4207D301D8824204D35B4805764A
:1017900001E068460570694604A80CC8100000F016
:1017A00013FD68460078012809D16B48817A427A96
:1017B0000A4382720021417201E008980570019885
:1017C00080F3108808980078002801D0079800E07E
:1017D000200009B0F0BD1CB5664C6946A068FFF753
:1017E00090FFA06068460078012806D1207D411C4A
:1017F000627D914200D0401C207513BDFEB50025CE
:101800006C462570017B002901D00120FEBD0CC073
:10181000083801210173574CA6680196070001E0C2
:1018200035003669002E08D00CCE083E03CF083FA5
:101830008B42F5D301D88242F2D338000661002DE5
:1018400001D1019000E028610199814213D16946DC
:10185000FFF757FFA0606846007800280BD0EFF331
:10186000108072B6217D4A1C637D9A4200D0491CCB
:10187000217580F3108868460078FEBD10B51F4CB6
:10188000002808D0207B00280BD120002030FFF753
:1018900031FF012004E02000203000F0D5F80020C6
:1018A000207310BDC8070020FEB500F055FCB04DF8
:1018B00000246C72AC72EFF3108672B600F015FC67
:1018C0006A4603C200F070FC07000CCD684603C8EE
:1018D000121A8B410021D21B8B4186F3108804DC45
:1018E00001DB012A01D20120FEBD002B04DC01DB5B
:1018F0000F2A01D20220FEBD0020FEBD20070020DD
:1019000080B569461448FFF791FE1A48017E002908
:1019100003D00021017600F008F896480168012202
:101920000A4302600068009001BD18B5114900200B
:10193000087691480268914B134003600A7D531C5E
:101940004C7DA34200D0521C0A75C16901220A4392
:10195000C261C069009011BDE007002057480168CE
:10196000022900D1704780B50068032801D0FFF735
:1019700032FF01BD2007002010B5FFF73FFF040034
:101980000120FFF77BFFE0B210BDF8B504000D00A9
:1019900000F0ABFB06000F00290D28030A220023EC
:1019A00000F00AFD8019794102000B002000FFF7CA
:1019B00025FF04000120FFF761FFE0B2F2BDFEB594
:1019C0000300002568460572694CE17222726C487A
:1019D00003C81A1A002312184B410CC4083C657244
:1019E0000126A672674DAF6803CC083C00900191B8
:1019F00003CF083F02000B00A86B0021801859415B
:101A0000009A019B8B4217D801D3824214D2387BB3
:101A1000002811D002A92000FFF708FEAF680CCC07
:101A200003CF083F8B4209D301D8824206D3387BCB
:101A3000002803D02E7601E0FFF7CDFE0120FFF74E
:101A40001DFF6846007AFEBD7CB503004D4CA268C0
:101A5000150000210026100001E02E002D69002D48
:101A600009D09D42F9D101932B69954201D118000B
:101A700002E0336100E001936D462970019B197308
:101A8000824214D06946FFF73CFEA06068460078A9
:101A900000280DD0EFF3108072B6217D4A1C637DC3
:101AA0009A4200D0491C217580F3108873BDA06054
:101AB00073BD80B500F019FB04BD00000C00006090
:101AC000F8B5050000F03CFC8B4801264168314325
:101AD000416001683143016088483106016029880E
:101AE000C92900DAC821274CA16331050160684685
:101AF000A97881706968C1702988018000F036FA80
:101B00001F4800F015FB0027A7602673184A002025
:101B100050729072002103C228882061A7826868F1
:101B200000030A2100F096FC20602771AC4D0028CC
:101B300004D1280000F01DFC20600AE0280000F01D
:101B400018FC2168814203D3280000F012FC010038
:101B50002160A448A062676300F0C7FA22680023EE
:101B600012184B4120002030FFF748FEF1BD000065
:101B7000E00700204418006030180060FFFFFFBF3E
:101B8000C807002020070020F8B584B0002469466B
:101B90000C70EFF3108672B69348407A00280CD090
:101BA00000F0A3FA02000B008F4D03CD083D9942CF
:101BB00003D801D3904200D26C7286F31088814F13
:101BC00022E0401C19E004690021017381680029AA
:101BD00000D088472000F6D16946B868FFF791FD2C
:101BE000B8606846007801280AD1EFF3108172B618
:101BF000387D421C7B7D9A42E3D1387581F3108891
:101C0000787D039940187875787D397D0A1A02D25B
:101C1000802040001218002A28D00392BC680026B9
:101C200002940194002502E0260024696D1C002C1A
:101C30000FD0207B0028F7D000F057FA02000B00ED
:101C400003CC083C801A99410029EDDB01DC062811
:101C5000EAD3002D03D000203061029401E000207F
:101C600001900298B86001980028B4E75F4E012403
:101C70003879002823D000F0E4F900283AD1002573
:101C80003D7100F0EFF9300000F052FA787E002844
:101C90000AD07D76544884726946FFF7C7FC6946CE
:101CA000B868FFF72EFDB86000F01FFA3A6800230D
:101CB00012184B4138002030FFF7A0FD1AE0307CAD
:101CC000002817D000F011FA02AA03C203CEFA22AC
:101CD0005203002312184B4102A803C88B4209D8B3
:101CE00001D3824206D238002030FFF7ADFE00F06B
:101CF0009CF93C7105B0F0BD4018006000E100E0C7
:101D0000FEB5040000F060F8002859D001A800F0EA
:101D10002FFA2C4F344E69460C70717A002902D18B
:101D2000B17A00291CD0012833D000F0DEF904007C
:101D30000D0000F039FA020003CE002312196B41A6
:101D40003C690025A4185D4100221E345541A9427A
:101D50001FD301D8A0421CD3022469460C7003E0B3
:101D6000022816D0012814D0B868002826D0007B9D
:101D7000002823D000F0B9F902000B00BD6803CDA4
:101D8000083D00261E327341994204D801D3904287
:101D900001D20120FEBD032C10D1286900280DD1ED
:101DA00038002030854209D10020FFF767FD104838
:101DB0000168104A0A4002600320FEBD68460078B0
:101DC000FEBD0000200700200B48017D427D9142AE
:101DD00004D10079401E8041C00F70470020704739
:101DE000FFEFFFFFF5160410E0070020C8070020F2
:101DF00030180060FFFFFFBF20070020034909687B
:101E00004A6D543102600879000970474C05002082
:101E10009048816801220A43826000210160704776
:101E200030B58D4B8B490A681A400C681C40A242A1
:101E3000F9D1002AF7D0894B14125C43D5B25D4327
:101E40002B12E31810335B1143628261844A4B68A2
:101E500013404C681440A342F9D1002BF7D09911DC
:101E6000A54A5143803109120162C36130BD10B5EA
:101E70000400FFF7CDFFAD480068C007FBD5200088
:101E8000FFF7CEFF10BD68214143090ADB22504312
:101E9000000C0818704780B5FFF7F5FF63E238B50E
:101EA00030C80838954A13680B60AA4A416AC06A6C
:101EB000181A00F02DFB00210019694134BD70B5DE
:101EC00005008F4C607A7D214843C90000F0BFFABD
:101ED000461CF6B2A54A296A1B2000F019FB2070A7
:101EE0006078FFF7D8FF3D216854E0788019FFF74C
:101EF000D2FF3521685420798019FFF7CCFF3621B5
:101F000068546079FFF7C7FF37216854A079FFF75D
:101F1000C2FF3821685470BD38B5040077480568A1
:101F20008C4AA16A206B281A00F0F2FA21000831CD
:101F30000CC900218018594103C4083CE56225639F
:101F40002200083203C2606AA06231BD80B5874AB0
:101F500000F0DEFA9349884201DD080002E0102813
:101F600000DA102000119249888201BDF8B50700FF
:101F70008F4C388820618F4EB0797D214843C9004D
:101F800000F065FA451CEDB2F878002802D1B87867
:101F900000280DD08848C168C907FBD50168172201
:101FA0000A4302602000FFF762FF606AA06209E056
:101FB000C8204003A0626062804820628048A0611F
:101FC0008048E061F87834216054216A206980B249
:101FD000FFF7BCFF00203E216054002103C4083CF1
:101FE000464A1268E26222632200083203C22000DD
:101FF000FFF765FF30784019FFF745FF1B303921A7
:10200000605470784019FFF73EFF1B303A2160544E
:10201000B078FFF738FF1B303B216054F078FFF7B2
:1020200032FF1B303C216054F1BD86480078002807
:1020300006D00848816801220A43826000210160BD
:1020400070473A480068C107C90F012048407047EF
:102050000000000008100060FFFF0700F6BC080049
:10206000FFFFFF0738B590B0514C3420205C0028AA
:1020700031D0684621004022FFF72EF96846FFF76D
:10208000CFFE0899049880B2FFF760FF6846FFF71B
:1020900016FFEFF3108572B60698A0610798E0610D
:1020A00008982062099860620A98A0626846352103
:1020B000415C3522A1543621415C3622A15437219E
:1020C000415C3722A1543821415C3822A1543D2182
:1020D000405C605402E0EFF3108572B62000FFF719
:1020E0001BFF85F3108811B030BD80B56946A44848
:1020F000FFF7D5FE04BD0000530700001018006074
:10210000C5000020F8B50500294C69462000FFF7FE
:10211000C6FE06000F009B4A616A0098401B00F053
:10212000F7F900233900301A9941F4BD101000600E
:102130000200934B3420185C1074D869D0601800EA
:10214000083003C803C2083A98699060186B506160
:10215000704700003506000000208B4908608B485E
:1021600001688B4A0A4002607047000026030000A5
:1021700088494A68520003D5096801600320704706
:1021800081490A68022A03D1496801600120704729
:102190000A68032A03D149680160022070470020C1
:1021A00070470000FF0F00007B4800787047000078
:1021B000E0060020C800002004100060C2F52800DE
:1021C0008D5B0000ECEB650170B50C00734A6C4947
:1021D000096A00F09DF90100202900D82021714AE8
:1021E0009068411808315162136A8025AD051D437E
:1021F0001562936A8025ED051D4395620023624DAB
:102200002E68022E05D02D68032D02D02578012DD1
:1022100001D0237070BD644C25786D066D0E25705D
:10222000A374E374012313600F239943D161116AEE
:10223000072399431162116AC023DB050B43136224
:1022400070BD000014070020FEB504004C4D39207D
:10225000285C012905D1002A01D0352106E036216C
:1022600004E0002A01D0372100E03821695C0091A8
:10227000019002A92800FFF712FE201A4A4E494C8D
:102280000027464A01992B69C918C8318142296A39
:1022900017D200F03DF97178401A0099401A02995E
:1022A0000918E161216A07229143216236490F60D2
:1022B000216AC022D2050A432262009972788B18E3
:1022C00012E000F025F93D21695C401A009A801A5D
:1022D000029A12182C4B5A6002221A60226A2C4B66
:1022E00013402362009A5318A98A21603178802212
:1022F0000A433270F021B174FF21F174C118581DE6
:10230000814207D220480760206A214901402162AA
:102310000120FEBD1B4A696A180000F0F9F83E2151
:1023200068540020FEBDEFF3108072B61C490968A6
:10233000154A891C51600221116080F31088704792
:102340001A48012142680A43426002681143016051
:102350008020000416490860704780B51548006861
:10236000FFF7D0FE04BD0D4A0549096A00F0D0F818
:1023700002BD80B5034A0249496AF7E70000000040
:10238000E0060020350600000C0000602818006000
:10239000FFFFFFBF241800601E0700202603000077
:1023A0001018006008180060C40000204818006081
:1023B00000E100E014000060124224D0994228D9C4
:1023C00070B500251B4202D00C00002109E000245A
:1023D000012649186441944200D3A41A7641F8D3E7
:1023E0003100012601E0764109D2001864416D41B7
:1023F000A41A9D41F7D2A4185D41B619F5D3300057
:1024000022002B0070BD1B42D8D108B5C046C04683
:1024100008BD01D19042D3D202000B000021002060
:102420007047F446002804D4494200F013F84042B3
:1024300060474042002905D45FD000F00BF84042CD
:1024400049426047494200F005F849426047034667
:102450000B43E6D40022030A8B420BD203098B42C2
:1024600019D243088B422ED2411A00D20146524162
:1024700010467047FF2209023FD012068B4205D357
:10248000121209028B4201D31212090203098B4274
:1024900019D300E0090AC3098B4201D3CB01C01A4A
:1024A000524183098B4201D38B01C01A5241430927
:1024B0008B4201D34B01C01A524103098B4201D315
:1024C0000B01C01A5241C3088B4201D3CB00C01A82
:1024D000524183088B4201D38B00C01A52414308FA
:1024E0008B4201D34B00C01A5241884200D3401A9C
:1024F0005241CFD201461046704708B5C046C0468B
:1025000008BD8078800701D586207047002070477D
:1025100010B5904216D98AB2030C090C0C465943E7
:1025200080B25343444350431B191A041B0C101828
:10253000594180225203002312184B41520DD802F8
:10254000104310BD4843802252031218520D10460A
:1025500010BD10B50888C046C04610BD0021425CC1
:10256000002A02D1491C0629F9DB062901D10020E5
:10257000704701207047000070B588B01921002015
:1025800000F068FFA749FB2001F06CF80100A64CA1
:10259000200001F0F7F801F009F9050003D0290047
:1025A0002000383054E02000603001F0EBF89F4EFE
:1025B000300001F0FFF8020004A8801C029005A87A
:1025C0000190801C00900123D2B20021052001F06F
:1025D000F8F8050003D029002000843038E000BF5F
:1025E0004FA001F0CFF806AA04A9802001F019F944
:1025F00053A001F0C7F806A8017802914178019133
:1026000081780091C37802794179BC4801F0BAF829
:10261000BBA001F0B7F8300001F0CCF8320081B275
:10262000002001F047F9050003D029002000A83060
:102630000EE02000D43001F0A5F8032001F084F969
:1026400001F08AF9050007D02900802040002018F9
:1026500001F098F8280060E096204000201801F072
:1026600091F8002003900120029010200190072093
:102670000090002300220021012001F091F90024A4
:102680000025E8B200F0A9F86D1C022DF9DD00204C
:1026900000F09DF8012000F09AF801F0C7F9A020A1
:1026A00001900090012301220021002000F085FF0D
:1026B000010000BF28A001F065F8102002900190F1
:1026C00064200090002350225021012000F07FFF61
:1026D000010000BF27A001F055F8002001F044FAE6
:1026E000010000BF2BA001F04DF801F0B7FAA04D9A
:1026F000286D8021014329659E48A8629E48286470
:10270000FA21890028003830FFF73FF9AC82002217
:1027100000219A4801F036F8002008B070BD000092
:102720006163695F6761705F696E69742829202D34
:102730002D3E20535543434553530D0A00000000DE
:102740005374617469632072616E646F6D2061649B
:1027500064726573733A20005363616E20636F6E19
:1027600066696775726174696F6E20253032580A28
:1027700000000000436F6E6E656374696F6E2063C6
:102780006F6E66696775726174696F6E202530328D
:10279000580A00004164766572746973696E672037
:1027A000636F6E66696775726174696F6E2025303C
:1027B00032580A0080B501F05CFC002803D101F01A
:1027C0005FFC002801D0002002BD032002BD10B52F
:1027D0000A220021664B0A2404E010B516220021CB
:1027E000674B16246043181801F09AFC10BD0121B4
:1027F000634A162358431018817270471100604ACB
:10280000162358431018027B002A00D0704780B569
:1028100001220273C1720022827200BF04A000F084
:10282000B1FF01BD480800000CD10510DC040020F8
:10283000726573756D655F73746174652025640AD4
:1028400000000000F8B50027002602254C4816219C
:1028500071434418207B012816D1607B002800D0EA
:10286000012739009F4800F08DFF3900208900F0D2
:10287000CCFE010004D000BF22A000F083FF03E0E3
:1028800028A000F07FFF2573A07A012806D0032836
:102890000DD0052812D0072819D02AE0208901F090
:1028A0004DFC002801D1A57223E0032020E02089FF
:1028B00001F048FC00281AD1042019E0228AE1899D
:1028C000208901F043FC002811D1062010E02C489B
:1028D000030044330222618A891C89B2208901F0F5
:1028E0003FFC002801D1082002E0882801D0002008
:1028F000A072761C032EA9DBF1BD0000C82F0410C6
:102900000D0A00004572726F7220737461727469EF
:102910006E672070616972696E6720253032580DCC
:102920000A00000050616972696E672073746172F9
:102930007465642E0D0A0000010000209D4A138971
:102940008B4205D00120528A8A4201D00020C04328
:102950007047010000200A4A16234343D3181B89FD
:102960008B4204D0401C0328F6DB0020C043704794
:1029700060030020DD2A0410E92A0410A4300410AA
:10298000E4040020FEB500268A4CA07D00281CD05F
:102990008948027889490B78134316D0002A05D05C
:1029A000216D20220A432265067004E0206D40223A
:1029B000024322650E70022001F084FCA675962168
:1029C000490020002030FEF7E0FF69460E70012527
:1029D0000327207D002830D0022801D01CD347E0F7
:1029E000607D002844D18025206D284001D001F071
:1029F00045F9012001F0B8F801F030F9002837D18D
:102A0000022020756775032202216D4800F0BAFE8E
:102A1000206D054325652BE0607D002828D101F05D
:102A200083F82575677503220121654800F0AAFE29
:102A3000206D2902014321651AE0614F607D002865
:102A400021D0012814D1206D800606D501F082F82E
:102A5000257566750022012107E0206D400607D527
:102A600002202075667500220221380000F08AFEDF
:102A7000206D202188432065206D402188432065FA
:102A8000FFF7E0FEF7BD206D800601D52575E1E773
:102A9000206D4006E4D4E07D0328E9DA01AB6A4604
:102AA0000121002001F03EFC684600780028DFD0BC
:102AB000206DC00505D501F04DF8206DA9490140F4
:102AC000216501F017F80028D2D1206D29020143B9
:102AD00021652675657501220021C6E70120A249FE
:102AE00088757047FC110610F8B5BEB00026F421B9
:102AF00001A8FEF76DFD2F4F786D01A90870020A3D
:102B00004A70020C8A70000EC87000259748162182
:102B100069434418601CFFF721FD002815D0A18AE5
:102B2000002912D0012601ABF422491C89B2208968
:102B300001F002FC0200238903D17A6D29008C4840
:102B400001E029008B4800F01DFE6D1C022DDDDD2B
:102B5000350000240A2060433E18701CFFF7FEFC7D
:102B6000002817D0012501A80090F42300228248F4
:102B70000188491C89B2308901F0EAFB33890028B9
:102B800003D17A6D21007D4802E0020021007C48DB
:102B900000F0F8FD641C012CDCDD002D02D0786D06
:102BA000401C7865FA21890038003830FEF7EDFEC8
:102BB0003FB0F0BD60030020100800201108002085
:102BC000A4300410F3B585B0040015001E002200E7
:102BD0006C4800F0D7FD200000D0BAE02800624D1C
:102BE00069490491002469460E730C9F010056D177
:102BF0005E48162161434618701CFFF7AFFC0028A1
:102C000015D0641C032CF3DB032C02D160A000F070
:102C1000B9FDE97D491CE975C9B25C4800F0B2FD17
:102C2000022001F060FB286D4E4901408AE06846B1
:102C3000007B307006223900701CFEF767FB684687
:102C4000008B308159A000F09DFD38780290787893
:102C50000190B8780090FB783A797979049800F07F
:102C600091FD210057A000F08DFD287D012800D1A5
:102C70007073717B57A000F085FD39006846007BBA
:102C800001F06CFB002806D101226846018BE0B2FE
:102C9000FFF7B4FDB8E7E0B2FFF7A9FDB4E70128FC
:102CA0005DD1286D802188432865287D022808D1C0
:102CB000AC8200220021A74800F064FD022001F050
:102CC00012FB00266846047B681C0A2171434018E9
:102CD0000090FFF743FC002803D0761C012EF3DDA3
:102CE0001EE00A204643AE193470062239000098CF
:102CF000FEF70CFB6846008B308100BF3AA000F065
:102D000041FD3878029078780190B8780090FB788F
:102D10003A797979049800F035FD8FA000F032FD02
:102D2000287E401C2876002000F01EFF287E012807
:102D30000ADC00F093FF0100D94800F023FD286D64
:102D40008021014329650AE0286D80218843286598
:102D500005E0022C03D100BF29A000F013FD07B04D
:102D6000F0BD0000FFFEFFFF60030020E404002030
:102D700048F905106CF9051004080020A4F90510A5
:102D8000C8F90510740E0610C82F0410942F0410F3
:102D90000A0A4E4F20535041434520544F2053546C
:102DA0004F524520534C4156450A0A00436F6E6E00
:102DB0006563746564207769746820736C617665F7
:102DC000200000002028736C617665202564290DA1
:102DD0000A00000050414952494E47204D4F44459A
:102DE0002025640D0A000000436F6E6E65637465F4
:102DF000642077697468206D6173746572200000C7
:102E0000436F6E6E656374696F6E2063616E636598
:102E10006C65642E0D0A000018B585B00EAC2478E0
:102E200004946C46A48E03946C46248E02946C46E3
:102E3000A48D0194089C0094FFF7C4FE06B010BD59
:102E4000F3B583B004001600C74D33000A462100D5
:102E5000280000F097FC002C41D16846008AFFF75B
:102E600078FD0700C14C3BD43CA000F08BFCC0486F
:102E700016217943451868780290A8780190E8787F
:102E800000902B796A79A9794FA000F07BFCB9A05A
:102E900000F078FC217D012908D1687B002805D04D
:102EA0000021A182002200BF7EA002E0627D00BF5F
:102EB00031A000F067FC3E2E04D1691C287800F098
:102EC000F5FE01E000F0EDFEF8B2FFF786FCE07DD4
:102ED000411EE175C9B200BF2EA000F053FC37E0DF
:102EE0006846008AFFF728FD07002DD42FA000F0C8
:102EF00049FC0A2078432018417802918178019199
:102F0000C178009103794279817900BF2EA000F049
:102F100039FC320000212800503000F033FCF8B2B8
:102F2000FFF755FC207E411E2176C9B22DA000F08E
:102F300029FC00F093FE010030A000F023FC206D7E
:102F400080210143216503E02800743000F01AFC61
:102F500005B0F0BDA43004100D0A0000446973638D
:102F60006F6E6E65637465642066726F6D20736C3E
:102F700061766520000000004E6F206368616E6717
:102F8000652E205354415445202825642C2564295E
:102F90000A000000436F6E6E656374656420736C95
:102FA000617665733A2025640A0000004469736302
:102FB0006F6E6E65637465642066726F6D206D61FF
:102FC0007374657220000000307825303258253047
:102FD0003258253032582530325825303258253075
:102FE00032580000436F6E6E6563746564206D61D6
:102FF00073746572733A2025640A00004164766533
:1030000072746973696E6720656E61626C652025F4
:103010003032580A00000000FEB504000E00150012
:10302000FFF797FC009002960195A74F00980028A3
:1030300006D52B46029A2100380000F0A3FB2CE0B5
:103040004A48002500218182002200BF15A000F01F
:1030500099FB474800991622514344186573002E86
:1030600012D0019A02993800303000F08BFB092011
:10307000A072E5722573611C207801F07FF913219D
:10308000208901F085F9F7BDE07AA072E57203208E
:103090002073009907A000F075FB00F0C7FCF7BD96
:1030A000FC2F04105354415445202825642C2564DA
:1030B000290A000050616972696E6720636F6D7044
:1030C0006C6574652028736C617665202564292EF3
:1030D0000A00000070B50C0015001E00FFF739FC57
:1030E000002816D42249162242438918498A491CCD
:1030F0008C420ED12B003178727812020A43B178DB
:1031000009041143F27812060A430100BB4800F09B
:1031100039FB70BDF8B507000C0015001E00FFF765
:103120000BFC00281ED4B64A1288521C95420FD1BF
:10313000069933000E784A78120232438E783604AC
:103140001643C9780A0632430100AE4800F01AFB64
:10315000012C07D100200090002300222900380014
:1031600001F01AF9F1BD000098FD05106003002080
:10317000E40400200A000000F8B50C0017001D0050
:10318000FFF7E7FB002830D49F49162242438918F5
:10319000897A042929D1142C27D100249A4916228E
:1031A00042438918009106001DE010229749281912
:1031B000001DFEF747F9002814D1281900990E3197
:1031C00002780A7042784A70801C009910310278A7
:1031D0000A7042784A700098038AC28931008C488C
:1031E00000F0D0FA1434BC42DFDBF1BD70B500252D
:1031F00004A40600715D200000F0C4FA6D1C102DBF
:10320000F8DB70BD2530325800000000FEB50C0020
:1032100015001E00FFF79DFB00283ED47A491622B8
:10322000424389180191897A062936D16A46147079
:103230005580070000242CE0102276493019401DEB
:10324000FEF700F9002821D101998D822A0039006A
:10325000714819E068460078152817D1305D31199A
:1032600049780D0205433019401DFFF7BFFF1022BA
:103270006A493019401DFEF7E5F80028DCD10199B4
:103280004D822A003900664800F07CFA68460078D2
:103290002418684640888442DCDBF7BD38B504005A
:1032A0001D00FFF756FB00280CD40F2D0AD15649FC
:1032B000162242438918897A4A1ED2B22100C0B22E
:1032C000FFF79CFA31BD00009407061038B50C00DA
:1032D000FFF73FFB002834D421004B4A1623584304
:1032E000141809254F480A0003D0228900F04AFA31
:1032F00026E0A17A022906D004290AD0062911D095
:10330000082919D031BD2189343000F03BFA03205F
:1033100010E02189583000F035FAE08900280FD0FC
:10332000052007E02189803000F02CFA608A00280F
:1033300006D00720A07231BD2189C43000F022FAE6
:10334000A57231BD3848016D042291430165704773
:10335000F8B500240E0002E0E419641CE4B2307AEF
:1033600084421BDAF06805192F7868782128F3D198
:1033700010222649A81CFEF765F80028ECD1A87C8D
:103380000028E9D1032000F038F9B21C717801203F
:1033900000F02BF90100254800F0F4F9F1BD30B53B
:1033A00085B00C006D46A07868700622E11CA81C50
:1033B000FDF7ACFFE07D2872A0690390607B287464
:1033C00069460120FFF7C4FF05B030BD80B500BFDE
:1033D00019A000F0D7F901BD1CB5049C019400931D
:1033E00013000A000100124800F0CCF913BD80B5AB
:1033F0000A0001000F4800F0C5F901BD28120610AF
:103400000608002050130610E4040020281D0610B2
:1034100098100610481D06104C0B0610381D06109B
:10342000240B061078E10510600300200415061037
:103430005C040610B40E06106163695F6761705F1B
:10344000626F6E645F6C6F73745F6576656E740D2A
:103450000A00000010B500F0ABFF10BD30B58BB016
:1034600018AC24780A9417AC2478099416AC247804
:10347000089415AC2478079414AC247806946D460F
:103480004C242C57059412AC24780494119C03947A
:1034900010AC247802940FAC247801940E9C009414
:1034A00000F098FF0BB030BD80B500F0F1FF02BD19
:1034B00080B501F00DF802BD80B501F029F802BD1C
:1034C00080B501F09BF801BD1CB56C46247C0094CE
:1034D00001F0A4F816BD80B501F0F0F802BD80B58A
:1034E00001F022F902BD80B501F044F902BD80B5BA
:1034F00001F054F901BD80B501F0D4F902BD80B5E9
:1035000001F02AFB01BD80B501F078FB01BD80B55B
:1035100001F006FC02BD1CB5049C009401F010FEF5
:1035200013BD80B501F052FF01BD80B501F07CFFF5
:1035300002BD80B501F08BFF02BD80B501F09DFF9B
:1035400002BD80B501F0C0FF02BD80B501F0CAFF29
:1035500001BD80B502F060F901BD80B502F09CF9B3
:1035600001BD1FB56C46248C0294079C01946C46E7
:10357000247E009402F0D6F904B010BD1FB5099C5A
:10358000039408AC247802946C46247F01946C4622
:10359000247E009402F0B4FB04B010BD1CB56C4650
:1035A000247C009402F08EFD16BD80B502F0CEFDA5
:1035B00001BD80B502F014FE01BD1CB56C46A48AA5
:1035C00001946C46248A009402F0C6FE16BD1FB515
:1035D0006C46248C02946C46A48B01946C46248B1C
:1035E000009402F0CAFE04B010BD80B502F0D9FE0E
:1035F00002BD80B502F0DDFE02BD80B502F0F5FE31
:1036000002BD80B502F00EFF02BD80B502F01EFFC4
:1036100002BD80B502F022FF01BD80B502F040FF7F
:1036200002BD80B502F04CFF02BD80B5C0B202F011
:10363000DBFF01BD80B502F0FBFF02BD80B502F0EB
:10364000FFFF02BD80B503F013F802BD80B503F0A3
:1036500053F801BD80B503F076F802BD80B503F0E4
:103660009BF801BD80B503F0A0F802BD80B503F062
:10367000A1F801BD80B503F0A5F801BD80B503F048
:10368000B8F801BD80B503F0D6F801BD80B503F0F0
:10369000F9F801BD80B503F03BF901BD80B503F039
:1036A000F1F901BD80B503F00BFA02BD80B503F05E
:1036B00023FA01BD80B503F039FA01BD80B503F0EE
:1036C00075FA01BD80B503F08FFA01BD80B503F036
:1036D000C7FA02BD80B503F0DDFA01BD80B503F085
:1036E000EFFA01BD80B503F003FB01BD80B503F027
:1036F00017FB02BD80B503F035FB01BD80B503F0BB
:1037000065FB01BD80B503F07BFB01BD80B503F017
:10371000C5FB02BD80B503F0F7FB01BD80B503F02A
:103720001FFC02BD80B503F041FC02BD80B503F073
:1037300081FC01BD80B503F085FC01BD80B503F0BF
:10374000D3FC02BD80B503F0DBFC02BD80B503F005
:103750000FFD02BD80B503F04FFD01BD80B503F044
:103760009DFD02BD80B503F0B7FF02BD80B503F03B
:10377000C1FF02BD80B504F001F801BD80B504F0C1
:103780001FF801BD0EB4C0B5020003A801900020CF
:10379000009001AB0121044878440C3004F040F85B
:1037A000029906B0084700BFE5E4010010B504F037
:1037B000F7FA10BD431C0178401C0942FBD1C01A26
:1037C0007047FFB583B00E9F1C460E4605000BD018
:1037D000A80703D1680701D4280705D5002E05D016
:1037E000012E03D0022E01D0822417E00C986A46E5
:1037F0000D9983C2224631462846059B04F0D8FA2B
:1038000004000BD131462846059A00F013F8040055
:1038100004D13A460D990C9800F038F8204607B0CC
:10382000F0BD10B504F04CFB10BD10B503C9C04687
:10383000C04610BDF8B505000E003F4F380004F03B
:103840008BFB04001AD1684605703C4D380004F02B
:1038500087FB070068460078800706D039002800FB
:10386000483004F081FB040008D1022E08D1390051
:1038700028006C3004F078FB040001D02000F2BD79
:103880002FA20721002000F015F8F7E7F8B5040093
:103890000F001500294E3000903004F061FB2080AD
:1038A000300004F065FB38803000243004F060FB09
:1038B0002880F1BD70B504000D0016001F48FFE719
:1038C00004F056FB33002A002100401C80B200F0B7
:1038D00001F870BDF3B581B017001D000024174E2C
:1038E0006946088024206043301804F041FB00281A
:1038F00004D0401C69460988884202D0641C042C0C
:10390000F0D3042C09D06846038924204443341999
:10391000206A8188DA19914201DA8220FEBD2900ED
:103920003A008068C018FDF7F1FC206A0178890729
:1039300000D547800020FEBD5C040020CC030020A1
:10394000426C75654E52470010B5042801D982209B
:1039500010BD04F011FB10BD38B50F4C2000BC3079
:1039600004F0FAFA002805D020004830FFF70AFFDB
:10397000862032BD094D2000743004F0F9FA288009
:103980002000983004F0F4FA6880020029882000B2
:10399000FFF7F8FE002032BD74E80510040800208F
:1039A000FFB583B00C9D1E461446070004D0012FBE
:1039B00002D0822007B0F0BD0498002801D0012871
:1039C000F7D1E81F0A28F4D20D981028F1D8A842A0
:1039D000EFD30E98002801D00128EAD112490F98A0
:1039E0008842E6D80120C046012804D02046304352
:1039F00005D01120DEE7022CDBD8012ED9D869468C
:103A00000F70049848708C72CE728D700D98C870CB
:103A10000E9808720F98019004F0CEFA6946487229
:103A2000684604F0D3FAC5E73F420F00F8B586B008
:103A3000002400BFBCA0FFF7A5FE0025BFA704AE71
:103A400016E031783800FFF79DFE70780290B0786C
:103A50000190F078009033797279B179BAA0FFF7CC
:103A600091FEA7A0FFF78EFE6846007B24186D1C10
:103A700004AB03AA0121E8B200F054FC6846007BC5
:103A80000028DED124062FD080249E4E30682040AE
:103A900003D000F0F3F801002AD165003068284017
:103AA00007D000BFC2A0FFF76DFE97480078FFF770
:103AB000A4FD012004F09EFA010003D1A9A0FFF7A4
:103AC00061FE02E09148FFF75DFE3068044003D0DC
:103AD00000F0C4F801000BD13068054007D000F0B9
:103AE00009F8010003D003E0A4A0FFF74BFE00207B
:103AF00007B0F0BD38B50023002201210220FFF7F6
:103B000078FD0500804C07D029008148FFF73AFE78
:103B1000FF202070280032BD9DA0FFF733FE022059
:103B20002070002032BD000080B50023002201215A
:103B30000320FFF75EFD010004D07648FFF722FE68
:103B4000FF2003E096A0FFF71DFE03206E490870DA
:103B500001BD000080B500BF95A0FFF713FE6A48C5
:103B60000078FFF74AFD01BD78B58BB06A4D6B4C0C
:103B700000283ED00620A075072221002031200019
:103B8000193000F0C7FA1220207021206070102236
:103B90006349A01C00F0BEFA0120A07400200A9026
:103BA00009900120089000200790012006907F20B6
:103BB0000590002004900390029007200190A0201F
:103BC0000090A02313220221002004F022FA060014
:103BD00031002800FFF7D6FD30003CD12200132130
:103BE000002004F03DFA010035D1230014330C22EB
:103BF00026E00420A07500200A900990012008907A
:103C000000200790012006907F200590032004905B
:103C100000200390029007200190A0200090A02394
:103C200013220021002004F0F4F9060031002800DE
:103C30005C30FFF7A7FD30000DD1230014330322C1
:103C40000321002004F010FA040021002800343081
:103C5000FFF798FD20000CB070BD00001CB500BF40
:103C600074A003C86A4603C26A460121012004F019
:103C7000FFF90400210000BF51A00EE01CB500BFF9
:103C80006EA003C86A4603C26A460121002004F000
:103C9000EFF90400210000BF50A0FFF773FD2000E2
:103CA00016BD00201F49C8717047000070B505009F
:103CB0000E001C4C2078A84215D10622601CFDF78E
:103CC000C1FB00280FD1E179491CE171C9B200BFE5
:103CD00049A0FFF757FDE079052810DB31002800E7
:103CE00000F04CFB70BD00BF4BA0FFF74BFD2570F3
:103CF00006223100601C00F00DFA0120E07170BD59
:103D00000A000000B003002079050020A41106106D
:103D1000D01106102813061030FE0510BC04002038
:103D2000281D0610F8070020426F6E646564206449
:103D30006576696365733A0A00000000547970651E
:103D40002025642C200000003078253032582530A2
:103D500032582530325825303258253032582530E7
:103D60003258000057686974656C69737420636F1A
:103D70006E666967757265642E0A00004E6F206278
:103D80006F6E64656420646576696365732E0A00EE
:103D9000436F6E6E656374696E672E2E2E0A000087
:103DA0005363616E6E696E672E2E2E0A000000004E
:103DB00053746F70205363616E6E696E672E0A00D4
:103DC000456E61626C6520616476657274697369C1
:103DD0006E67203078253032580A000044697361DC
:103DE000626C65206164766572746973696E6720C0
:103DF0003078253032580A00444556494345204919
:103E00004E20424C41434B4C4953542C20434F5578
:103E10004E543A2025640A00444556494345204102
:103E20004444454420544F20424C41434B4C495359
:103E3000540A000000000000000000000000000024
:103E40000000000081B094490A6802430A600968D2
:103E500008400090009801B0704710B50B004B432C
:103E600001685C00E418A14353430B43036010BD99
:103E700043688B43514319434160704710B50B00B1
:103E80004B4381685C00E418A14353430B438360B8
:103E900010BD30B5CB43814C9025ED05A8421AD119
:103EA000002A03D0022A0FD007D330BD2068184063
:103EB000206060680340636030BD606803406360F9
:103EC00020680143216030BD2068034023606068A2
:103ED0000143616030BD002A03D0022A0FD007D30E
:103EE00030BDA0681840A060E0680340E36030BDCA
:103EF000E0680340E360A0680143A16030BDA068B2
:103F00000340A360E0680143E16030BD10B5090AD9
:103F10000B004B434B434B43416A1C01E41AA14342
:103F200053430B43436210BD7CB506000420FFF7EA
:103F300089FF9025ED058024A4000222210028009D
:103F4000FFF78BFF022221002800FFF797FF0022D6
:103F500021002800FFF78CFF012221002800FFF735
:103F600098FF002221002800FFF7D0FF0420FFF770
:103F700069FF6408022221002800FFF76EFF022279
:103F800021002800FFF77AFF002221002800FFF718
:103F90006FFF012221002800FFF77BFF0022210094
:103FA0002800FFF7B3FFA0003D490A6802430A60FA
:103FB00009680840009000983A488B21C160016868
:103FC000394A0A4002604168384A0A404260016842
:103FD0000C220A4302608168354A0A408260816887
:103FE000344A0A4082608168C900C908816001685A
:103FF00062050A43026041682F4A0A4042608168B4
:104000002A2291438160016801220A430260310043
:104010000ED02A490E60016820220A430260284817
:104020000168FF22914340220A4302602548046050
:1040300073BD10B50023244A06E014682406FCD59D
:10404000DCB2045DD4605B1CDCB28C42F5D310BDE5
:104050001A480268002A00D1704780B51A480168E2
:10406000890605D580686946087001216846904731
:1040700001BD154800680002C10F0120484070478B
:1040800011480168090602D50068400601D40120E4
:104090007047002070470000500040482000504802
:1040A0005800404800400041FFE9FFEFFFCFFFFF0D
:1040B000FFFCFFFFFFFFFFF1FFB7FFFF3000002015
:1040C00008E400E000E100E01C40004170B500257C
:1040D000012804D0022802D00020C04370BD00296E
:1040E00001D1002070BD0C00160005E00121200068
:1040F000FFF79FFF641C6D1C3000461E0028F5D1A1
:10410000280070BD01B5012269460120FFF7DEFFDE
:10411000009802BD10B50400FDF7F8F8200010BDAE
:1041200010B504000800110002002000FDF740FA5D
:10413000200010BD80B5FDF785F902BD10B503F074
:104140009BFF10BD10B503F0A3FF10BD10B50029F3
:1041500001D0914201D9822010BD03F0B3FF10BD00
:1041600010B5002906D0002A01D0002B02D003F0A0
:10417000B6FF10BD822010BD81B063490A680243BA
:104180000A60096808400090009801B0704710B5B7
:104190000B004B4301685C00E418A14353430B43FD
:1041A000036010BD43688B4351431943416070471E
:1041B00010B50B004B4381685C00E418A1435343E6
:1041C0000B43836010BD30B5CB43504C9025ED05BB
:1041D000A8421AD1002A03D0022A0FD007D330BD3B
:1041E00020681840206060680340636030BD6068EC
:1041F0000340636020680143216030BD20680340B4
:10420000236060680143616030BD002A03D0022A48
:104210000FD007D330BDA0681840A060E06803400D
:10422000E36030BDE0680340E360A0680143A16043
:1042300030BDA0680340A360E0680143E16030BD89
:1042400038B5010018D10420FFF796FF9024E4054B
:104250004020A061012240212000FFF798FF0222A8
:1042600040212000FFF7A4FF002240212000FFF79B
:1042700099FF0122402121E0254C012805D1082089
:10428000FFF77AFF80256D0006E0022819D108208B
:10429000FFF772FF8025AD00A561012229002000F3
:1042A000FFF775FF022229002000FFF781FF00229F
:1042B00029002000FFF776FF012229002000FFF7E8
:1042C00082FF31BD010002D14020124909E01249AC
:1042D000012802D18020400003E0022802D1802082
:1042E000800008607047010002D140200B4909E0BE
:1042F0000B49012802D18020400003E0022802D1AE
:1043000080208000086070475000404820005048DE
:1043100000001048280000482800104818000048F5
:104320001800104810B51C461346CA00511ACAB2EC
:10433000214603F0E2FE10BD10B5002906D0002A88
:1043400001D0002B02D003F012FF10BD822010BD5F
:1043500038B5049C009403F017FF38BD00B595B044
:104360000B46012804D0002802D0822015B000BDE1
:1043700001466A46184603F027FFF7E710B5002804
:1043800003D0012801D0822010BD03F023FF10BD0F
:1043900010B503F029FF10BD38B5049C009403F05C
:1043A00027FF002038BD10B50120C046C04610BD13
:1043B00010B51F2901D8012801D9122010BD044AC7
:1043C000126840325172907203F049FF002010BD14
:1043D0004C050020FFB505462B488DB006682B48DC
:1043E0002836007F17468C46A84202D8822011B09A
:1043F000F0BD2C4614204443F26A0021601C115485
:10440000F90602D5F16A20220A54B90704D5F16AE7
:1044100008230A5C1A430A5479070AD5F26A102362
:10442000115C194311543A0703D54023F26A19432A
:104430001154F90704D0F16A01230A5C1A430A54A3
:10444000F16A6046085503F02FFF84461EA807C88E
:1044500008900CAB09A80EC01AA80FC8049005A8B4
:104460000EC017A80DC8039361466B4607C316AB71
:1044700010AA3946284603F029FF0028B7D10121A8
:10448000F26A12341155B2E7380500208007002087
:1044900070B504460C481646007F0D46A04201D870
:1044A000822070BD204603F095FF01000AD1074825
:1044B000142300685C432346426D0C33D650406D94
:1044C00010340553084670BD8007002038050020D1
:1044D00070B504460C481E46007F1546A04201D820
:1044E000822070BD204603F0B5FF010009D10748C6
:1044F000142300685C43426D231DD650406D083480
:104500000553084670BD00008007002038050020D4
:10451000F7B5384884B00068002428300090364849
:104520000F46007F16462546B84202D2122007B039
:10453000F0BD049838431DD10021084603F0CAFF9E
:10454000044617E006206843315C049801280FD127
:1045500000981423C26A084658431230105C0128A0
:1045600000D0D324002C03D1012003F0F7FF044630
:104570006D1CEDB2BD4202D2002CE3D035E0002C20
:1045800033D10498002803D004F042F804002CD161
:1045900032463946049803F09DFF040025D10025DA
:1045A00021E0284606214843315C0291012180190F
:1045B00001910179002902D14088002801D0022010
:1045C00001900121029A049804F04AF80498012805
:1045D0000DD0002100981423C26A0298584313306A
:1045E0006D1C1154EDB2BD42DBD320469FE701990B
:1045F000F0E700003805002080070020002809D1DE
:104600000548142200685143406D8022401881788B
:10461000114381707047000038050020FFB58446C3
:1046200024488E46026895B0114630311E9F0E9187
:104630000F911046916B3C32283011921091416AD3
:104640001291806A13901CA000681490087B0026C9
:10465000012801D102200743002402A814A9095D02
:10466000394218D0A30011A9CD580EA9C95832015A
:104670000B88835213184988598029889980698842
:10468000D980A9881981E9885981298999816989FD
:10469000761CD981F6B2641CE4B2032CDED30190FF
:1046A0006346724600971799189804F029F819B0D4
:1046B000F0BD00003805002001020400F0B584467A
:1046C00017488BB004680025204630300090A06B5E
:1046D000019014A000682B462834099009A8C05CFA
:1046E00008420FD09A006846875806222E46564345
:1046F000387902AA9055B2183888508078886D1C95
:104700009080EDB25B1CDBB2022BE7D360780A46E7
:10471000014602AB604604F069F80BB0F0BD000042
:104720003805002001040000F1B510480024056898
:1047300082B0204626460E4F283511E0214614232C
:104740005943EA6A1331515C012907D16846047064
:10475000468006716A46029803F0BCFE641CE4B20F
:10476000397FA14201D90028E8D0FEBD38050020DC
:104770008007002070B5064600200446064D05E07F
:104780003146204604F094F8641CE4B2297FA1422B
:1047900001D90028F4D070BD80070020F0B58FB09B
:1047A000044604F089F8204604F08EF82646A03628
:1047B0000A960146F07E626D4243401C484317183A
:1047C000AC20015B204604F095F83B18304D33488F
:1047D0000795304A304904AD07C5E16F606D012788
:1047E0000522254602920191C03503970090A87ECC
:1047F0003A46214604F0DAF8B07E012843D0284E2C
:1048000004F0F6F8029004F0FBF806900097A97EF9
:1048100072232046029A04F0F7F80197009620468A
:10482000A97E72231430069A04F032F96079384375
:10483000607120462030C17820221143C1700A984F
:10484000007F012821D002281FD0154E0097E97E55
:104850004D23A06A029A04F0D7F801970096A06A47
:10486000E97E4D231430069A04F012F9A06A4179CA
:1048700039434171FDF71DF9C830E067204604F067
:1048800055F90FB0F0BD4626BAE74626DEE7000030
:10489000051F06106DE2051061E30510E5E3051044
:1048A000EE020000F0B591B0074604F005F80646A8
:1048B000FF3609360896FEF778FE3446FF347878DE
:1048C0002134A07538780028E0797CD0C00701D069
:1048D0000C202AE10020E07404F0ACF90120FF2153
:1048E00060721D31885300200D9078883546000392
:1048F0008035E8633879C00428647988002907D0B6
:104900003979002904D0E96B814201D30C20D8E029
:104910002079012801D003280CD1002000900190BB
:1049200002A804F095F90622694602A8FCF78AFD60
:1049300000287DD0FDF7BDF87D21C9004018286210
:104940006862A861E8616864A864E86B002803D025
:10495000FDF7AFF8E96B4018A863FEF7D4FD744883
:104960000F90207CC00704D004F07CF96074FF280D
:104970007ED0207C400704D504F074F9A074FF2891
:1049800077D0207CC00743D06A4B6D4807936A4AB2
:104990006A4904AB07C3296AA8680090012306226C
:1049A00001A80EC0607C03220F9B089903F0FEFF54
:1049B00003200090726B6348134600681433403044
:1049C000417A607C00E0AAE004F070F9617C50203C
:1049D00041435D480818C26D3F2109028A432721DF
:1049E00009025118C165617C50204143564880300E
:1049F000081841680A022521120A09065118416067
:104A0000286A04F097F9012802D0607C04F0A2F92A
:104A1000207C40074AD5474B4E4807934B4A4C49A8
:104A200004AB07C30123696AE8680622009000E02E
:104A300041E001A80EC0A07C03220F9B089903F05F
:104A4000B5FF032000903F48B26B0068134640302A
:104A5000417A1433A07C04F029F9A17C5020414311
:104A600039480818C26D3F2109028A43272101E015
:104A700026E029E009025118C165A17C502041437C
:104A800031488030081841680A022521120A0906B7
:104A900051184160A07CFF2800D137E7686A04F014
:104AA00049F9012802D0A07C04F054F97879012852
:104AB0002BD0002523E00020E071122011B0F0BDC2
:104AC00007200021E171F9E7207C0725C00702D00B
:104AD000607C04F0F7FA0020E0712846EEE7A800B9
:104AE0003058019004F0BEF80090FF2802D0032156
:104AF00004F0F4FA019900986D1C4871EDB2A07EA3
:104B0000A842ECD87879012803D1E0790221084342
:104B1000E071E07901210843E0710D98CEE7C0070C
:104B200000D1D5E604F0E0FA00200D90C6E70000C1
:104B3000DC05000063140410B91E0610E91E0610FF
:104B4000D11E06104C05002080000020C51E061056
:104B5000F31E0610DD1E0610F8B503F0ADFE054687
:104B6000FF35FF20093500260090FCF7A2FF2249FF
:104B70002C464718FF342134207CC0070ED0607CBF
:104B8000FF280BD004F0C0FA607C0090A0204059B0
:104B9000394604F0C6FA002800D00126207C4007E0
:104BA00010D5A07CFF280DD004F0AEFAA07C0090B8
:104BB000A4204059394604F0B4FA002801D0012657
:104BC00000E00026E07980070DD4002708E0B80057
:104BD00028584079FF2801D004F096FA7F1CFFB2D4
:104BE000A07EB842F3D8002E04D0009804F09EFABC
:104BF00001202076F8BD0000FE1F0000FEB503F086
:104C00005BFE0446FF340934074626460020803602
:104C1000B062F06201223046A03002900146027676
:104C2000E51DF9355522D200B8186F61A8610A79DF
:104C3000D00715D0364800688930014600902046DC
:104C4000E43004F09FFA706EF066B06E3067314861
:104C500006223918009804F0A7FA0020FF2107E087
:104C60002D480068E9E78200A258401C1171C0B2CB
:104C7000029A927E8242F6D8002603200090B0006D
:104C80000719AA694D230021786B03F0BDFE0321AB
:104C9000224801910090786B6A694D2300211430FD
:104CA00003F0F6FE786B2030C17804221143C17006
:104CB000786B2030C17820221143C170761CF6B287
:104CC000022EDAD303260096AA694D230021E06B59
:104CD00003F09AFE7D20000101960090E06B6A6966
:104CE0004D230021143003F0D3FEE06B2030C17857
:104CF00040221143C170E06B2030C1782022114363
:104D0000C17002992520087502994875FEBD000002
:104D10004C050020AA0200003005002010270000EA
:104D2000F0B59FB0054603F0C7FD0446002008A972
:104D300005900870199001201890FB482E460068D5
:104D4000FF34FF300130017EF8481836006809341E
:104D5000002801DA012911D040067DD500201890E5
:104D6000E06B017E4908490001762878401C2870D4
:104D7000EF484168802211434160A0E1002001908A
:104D8000E01DF93003904769B878800601D0012012
:104D90001990287950214843E54940394018C06DA1
:104DA0004000400F1A90042801D102201A90284692
:104DB0000C301999009000292AD02878062801D1B2
:104DC000FCF772FD00200290F878C00706D00020A2
:104DD000A875697D009804F003FA0290F8788107BD
:104DE00001D4019810E0C007387803D0C2093946D1
:104DF0000A3101E0C209391D1BA804F0C3F9697D1D
:104E00001BA804F02FFA019002990843FF2809D04B
:104E100003984069844600780007000F072802D0F5
:104E200008287DD0D2E00CAB04930BAA0DA90AA8E8
:104E300001AB07C309A800901DAB16AA15A96046CF
:104E400004F031FA179000280BD12878002808D1F7
:104E500020466978FF3000E0FFE02330085C01283D
:104E60007CD0FCF721FDE06B017E0122114301762D
:104E700010A8007DE87005921798009028795021BD
:104E80004843AB4940394018C06D4000400F019085
:104E900002A804F06FFA019804286FD0122002993A
:104EA000091A00980818009008A8017C179804F0C7
:104EB0006DFAA049179A4143090A002A02D0009AC4
:104EC000101A009008027D2109034018010198483A
:104ED00009090269984B1A40114301612879009928
:104EE00004F068FA012108A8017014A8009013AB1F
:104EF00008AA2846179904F063FA23462A4605991A
:104F000004F0D2FA189010A8017C027B08A8007D5A
:104F1000059004970692079108A81BAB017B00E05F
:104F200051E00079199A6F460FC708A8037A10A8B4
:104F3000027E2846179904F0E1FA7068109008A8DC
:104F40000079B16800060143119130780022010711
:104F5000C90F4006800F27D027E0FFE7B878810906
:104F6000C0D0800902280AD0012200211A9804F03A
:104F70001DFB00280ED005202870B3E712E00122A7
:104F800011461A9804F012FB002801D00320F3E721
:104F900000202870FCF788FCE06B017E01221143A1
:104FA00001769FE79D207AE7012210A804F0A6FB76
:104FB000002803D0002008A9087000E00120FF218C
:104FC000293108557BE02878062808D0FCF76CFCCE
:104FD000012023462A46059904F066FA6FE0FCF7A3
:104FE00063FC1A980622800000190290806A391D1D
:104FF0000830FCF78BF902982746806AFF37844611
:105000002137F87D012815D0009B4C480993039364
:10501000002201216B4607C32B79B97B604604F05F
:10502000E3FB099804F0BCFF0220F875FF20B87379
:105030000020F871787CFF2801D004F065F8B87C76
:10504000FF2801D004F060F8287904F0CFFFFF209A
:105050002871687903F07EFE31E0FCF725FCE16BF6
:105060000A7E012002430A7623462A46059904F067
:105070001BFA2878042802D1204604F0D2FF2878B1
:10508000112803D0142801D0012818D12146FF315E
:105090002131087A002812D030789F221040402217
:1050A000104330700020FF34307701346069306283
:1050B000887BFF2835D13378317F00222EE008A885
:1050C000007800282DD0307F00273378E52803D9D9
:1050D000E538C7B220200343FF342134A07BFF28EA
:1050E0000DD1A87D012803D17068FF2108437060AD
:1050F000307F0022C01BC1B23046FEF712FA002FEB
:105100000FD0A07BFF280CD1A87D012803D17068A7
:10511000FF21084370603378E52239463046FEF7B8
:1051200000FA18981FB0F0BD4C050020480500207B
:10513000C000002071020000FF0000F0FFFF00002F
:10514000FFB597B006460AAB09AA14A90EA801AD8F
:105150000FC50FA80090F01DF9301590002440698C
:1051600013AB08AA0DA904F09EF8054611901898F3
:105170008000C7B2169012A804F0FCF8042F25D0C6
:1051800012201299081A4019109008A8017A119853
:1051900004F0FCF88249119A4143090A002A02D01E
:1051A000109A101A109008027D210903401801017D
:1051B0007C48090902697C4B1A40114301610020B7
:1051C0003546FF350746213500901AE09D20D8E787
:1051D000B8003058FF2201792D32FF290FD08368A3
:1051E0001099591A00D54942914208DA0446012023
:1051F00000901099A1602079109904F0DBF87F1CD1
:10520000FFB2A97EB942E3D8009800280DD11198C9
:1052100000280AD0002006E08200B2581279FF2A46
:1052200064D0401CC0B28142F6D8287E002854D0F9
:10523000002C52D06079FF284FD020715B4F5E491F
:1052400007975B4B5B4A04AF0EC7082210990927EA
:105250005A4B03920191029700930322214603F0D7
:10526000A5FB032000905648F26B006813464030BF
:10527000417A1433207903F019FD52A103C90C912E
:105280000B902079474F502148434037C01981681F
:105290008AB26946898D09040A4382600BA80230EC
:1052A00004F0EAFE810220795022890A5043C01995
:1052B000C268920D92051143C16020795021484384
:1052C000C0194168FF2212061143416008A9087DF8
:1052D000E0700878A07018986070287E002808D0C8
:1052E000002C06D020798021084303E08000345848
:1052F0009BE7FF2003F02EFDFCF7DBFB0146169831
:1053000080198030026A891A826A511881620020ED
:10531000E874002C2BD008A8007818A9844608A8A7
:105320000EC907790020109D2070A5602546203504
:105330006075EF712076A275002B06D0209B1B684C
:10534000E362209B5B68236301E0E0622063002A44
:105350001FD0E06120624800401C28716046401C5C
:10536000687115984069C0788007C00F2075119842
:1053700000280CD108A800796B461A9A209907C317
:1053800008A8037F017E3046199A04F080FE1BB006
:10539000F0BD15980068E06115984068DAE70000F4
:1053A00071020000C0000020FF0000F057640410EC
:1053B0000F350410D90006103D050610581B0000DB
:1053C0004C050020FFFFFFFF1F00000070B5066ABC
:1053D0008AB0057DB21806461536079606950992DD
:1053E000089110250F22002645578256817B05968D
:1053F00002AE26C61C46031D417B007B0090094877
:10540000019100681A782030007BC00701D000208D
:1054100000E01020A121084321465B1C04F09AFE05
:105420000AB070BD3005002070B505460C46084630
:1054300003F04AFA06462946204603F05BFA616DFE
:105440003018814201D2452070BD002070BD70B57A
:105450000446E1200D46800004F0DAFE012004F04D
:10546000FFFE002801D0862070BD2078202108434F
:10547000207009202870002070BD70B504460E46CB
:10548000002088B01546E10705D01146304604F0EB
:10549000EBFE002816D1A10714D56A4629463046EE
:1054A00004F0FBFE002804D0102200216846FEF71D
:1054B00037FE04A804F006FF04AB6A4629463046CE
:1054C00004F014FF08B070BD10B504460020E107D9
:1054D00003D004F02CFF002803D1A10701D504F06C
:1054E0002AFF10BDF0B585B0FCF7E3FAC94F0524DB
:1054F0003968E4018031CA6D4F2314192668DB0036
:1055000005249B58E4011419C31A64680025F31894
:105510006C410525ED0155192B600523DB01D218DF
:105520005460CA6D9D25FF32FF3202329067C86D0C
:105530002724C218AD0024012E581268C31824581D
:1055400015255B686D01121BB34133D3052400237D
:10555000E40104191A4623600523DB01C0184260E8
:10556000C86D132149014118097A002922D0401938
:10557000C0780024002815D9386828218030C06DF3
:105580006143FF30FF300230C06D461804F0D7FE93
:1055900030623868641C8030C06DE4B24019C07855
:1055A000A042E9D838688030C16D0520C0010818D4
:1055B00080698047386813228030C16D52018A1893
:1055C000D27A002A7ED00522D20189188A680192F7
:1055D000C968009103910292C06D152149014118DB
:1055E000FF30FF3002304978406D04F0B1FE0024F6
:1055F000064600281FD9874861060068890D80305B
:10560000C06D091DFF30FF300230426D5158490016
:105610004D0E7F2D0BD0C16D282068430F1800233D
:105620003846009A019904F0ABFE002823D0641C90
:10563000E4B2B442DFD3774C05212068C901803041
:10564000C36D039A5B181B7C15251B061A43039236
:10565000C26D6D015218117C491C1174C06D02AAF3
:105660004119FF30FF3002308978406E04F0B6FEF9
:10567000FF287DD0A5E020370097FA79FF2A0DD0CA
:1056800064481521006849018030C06D4118FF3021
:10569000FF3002308978406E04F05AFF290601225B
:1056A000D2070398114308435A4D039028681524E4
:1056B0008030C06D64010119FF30FF3002308978FD
:1056C000406E00E0A4E002AA04F088FEFF2854D156
:1056D000286821468030C06D4118FF30FF3002300D
:1056E0008978406E04F034FE00210446002810D969
:1056F00028688030C66D9920800080594A06520E75
:10570000D3001B1DC3581B0E3DD0491CC9B2A1427A
:10571000F4D3002C21D000212A6848068032D26DB3
:10572000FF32FF320232566E820D121DB358180E30
:1057300007060DD41B021B0AB3502E688036F66D87
:10574000FF36FF360236401E766E00060343B35026
:10575000491C641E2406240EDED1286815218030E1
:10576000C06D49014118FF30FF308978023000E0F8
:1057700019E0406E02AA04F031FE0099FF28C871BA
:1057800000D158E71DE0152149017118897804F00E
:10579000DFFE28688030C16D0520C0010818017C3B
:1057A000491E0174B5E704F061FF206802AA803049
:1057B000C06D4119FF30FF3002308978406E04F02F
:1057C0000DFE144C132521686D018031CA6D012036
:1057D0005219D072CA6DFF32FF320232536E106E10
:1057E0001366CA6DFF32FF3202325066C96D152250
:1057F00052018A18FF311279FF310231D200096E4D
:10580000FBF76AFD216800208031C96D4919C87213
:1058100005B0F0BD4C05002070B5154606460A6877
:10582000FE201C4C824320684B688030C06D1521DF
:1058300049014118FF30FF3002304978406D04F0D3
:105840006FFF4006400E7F2822D02168C0008031C3
:10585000C96D001DFF31FF3102314A6D1058400003
:10586000400E7F2814D028225043C96D02461032C2
:105870008C18236862681A43A3681343E2681A43CA
:1058800006D020300A582B463146204604F069FFE6
:1058900070BD00004C050020F8B506460268FE20E9
:1058A0001F4D824328680F468030C06D1521490185
:1058B0004118FF30FF30023073684978406D04F0C2
:1058C0002FFF4006400E7F2829D02968C000803174
:1058D000C96D001DFF31FF3102314A6D1058400083
:1058E000440E7F2C1BD0C86D28214C430019026840
:1058F000416811438268C0680A4310430FD004F026
:105900001EFD296802468031C96D3B46FF31FF31DB
:105910000231C96D0C193146204604F022FFF8BD52
:105920004C050020FFB58BB005460020149C00906C
:105930000E98F14F4007C00F079038680E46803030
:10594000C06DFF30FF300230C06D05902878010631
:10595000090E049168680AD001028A0F05D000225E
:10596000890F012905D0002103E00122F8E7002278
:1059700011460D9B132758600D982B680360DE4875
:105980007F0100688030C06DC3191B7A012B7DD167
:10599000002A13D00798002879D1032E02D0052EB3
:1059A00005D0A5E1012C72D0032C04D1A0E1022C7A
:1059B0006DD0032C6BD001200FB0F0BD002965D055
:1059C0007F216A4611760021099101911521490133
:1059D0004118FF30FF30023089786B682A68006E0A
:1059E00004F09EFEFF2819D0C34940060968800DC7
:1059F0008031C96DFF31FF310231096E001D085839
:105A0000000E010603D401200990002004E04006A6
:105A1000400E69460876012001905BE0032E01D01C
:105A2000052E57D1B44800688030C06DC119C97ABD
:105A300000290CD15121C9004018294604F0DAFE92
:105A4000AD49012009688031C96DC919C872052E98
:105A50001DD1AA491698884202D00E98C00616D5C4
:105A600006A80590002007460890A34801688031E9
:105A7000CA6D152149015218D278002A28D99E48AA
:105A800000688030C06DFF30FF3001E096E0A4E098
:105A90000230C16D2820784308182421095C0129AF
:105AA0000AD101236A68296804F06AFC002803D13E
:105AB00001200890059807708F487F1C0068FFB28E
:105AC0008030C16D152040010818C078B842D6D882
:105AD000089800900798022500282AD0009901987C
:105AE00008437AD0844C69462068097E8030C06DB6
:105AF0002823FF30FF3002305943C26D2631515CFC
:105B0000406DCE0081190D9804F074FE20680722C4
:105B10008030C06D1599FF30FF300230406D801924
:105B2000FBF790FC002858D10D9800780FB028435F
:105B3000F0BD099800280BD0012C07D0032C07D00A
:105B4000032E38D0022C03D0032C01D0052E32D0E6
:105B500000990198084328D0674869460068097E83
:105B60008030C06D2823FF30FF3002305943C26DB2
:105B70002631515C032E02D0052E05D008E0012C01
:105B800006D0032C0AD103E0022C01D0032C05D14E
:105B9000CA00436D121D9A58002A1EDA406DC900D2
:105BA00009180D9804F026FEBEE7022C15D0032C30
:105BB00013D0052E11D1FE200FB0F0BD11430DD032
:105BC000079900296AD0159829680068814204D194
:105BD00015986968406881424BD089E000210691A0
:105BE0000F46152149014118FF30FF300230497836
:105BF0006B682A68406D04F093FDFF282BD03E4966
:105C0000C0000968001D8031C96DFF31FF310231CC
:105C1000496D0858000EC1094006400E06917F28C4
:105C200019D028225043059A012180180368426840
:105C30001A4383681343C2681A4303D02030407963
:105C400001280AD000270798002813D0002906D081
:105C5000002F4DD103E00021F5E70127F3E7159868
:105C600029680068814243D115986968406881427B
:105C70003ED13AE0012C01D0032C01D1032E05D0F6
:105C8000022C01D0032C04D1052E02D10698002845
:105C90002ED0002929D0002F2AD126E0012C01D0B6
:105CA000032C01D1032E05D0022C01D0032C1CD1D2
:105CB000052E1AD1152149014118FF30FF3002305D
:105CC0000D4C49786B682A68406D04F029FDFF2867
:105CD0000ED02168C0008031C96DFF31FF31023123
:105CE000496D001D0858C00F02D004980FB0F0BDD8
:105CF000FF200FB0F0BD00004C050020FCFF0000AD
:105D0000FFB583B005460C980C46C007C00F0C9039
:105D1000EB480D9E01688031C96DFF31FF310231C2
:105D2000C96D0291296821606968616029780F9ABC
:105D3000C907C90F0191FF2111700068132180303C
:105D4000C06D49014118097A2A68012954D0D10748
:105D500006D06B6819028F0F012F7DD0890F7BD081
:105D6000152149014118FF30FF30023049786B6836
:105D7000406D04F0D5FC7F210027FF2823D0D049B7
:105D8000C00009680F9A8031C96DFF31FF310231BF
:105D9000496D001D0858010E4806400E1070C243A0
:105DA000520610D028225043029A80180368426895
:105DB0001A4383681343C2681A4303D020304079E2
:105DC00001287DD000270E9801287AD0012E79D0A5
:105DD000032E77D00598012875D02078C1070C983C
:105DE000C90F814270D106990622601C491CFBF73D
:105DF00029FB002868D118E1D107B1D06B681902DE
:105E00008F0F012F16D0890FAAD1012E5CD0032E3F
:105E10005AD0059801287DD0D1070C98C90F81422E
:105E200052D106990622681C491CFBF70BFB00287F
:105E300071D01AE10E99012922D01521490141188A
:105E4000FF30FF3002309E4F8978006E04F068FC0E
:105E50000146FF20002200E0EDE0FF297ED03B68F4
:105E600049068033DB6D890DFF33FF3302331B6E30
:105E7000091D5958090E0B0656D40122002156E07F
:105E80006946029100210E460191152149014018F1
:105E9000C0788B4F002817D938688030C06DFF302C
:105EA000FF300230C16D2820704308182421095C9E
:105EB000012910D101236A68296804F061FA04E01D
:105EC000A1E0A2E0ACE0B3E060E0002803D1012053
:105ED0000190029806703868761C8030C16D1520DC
:105EE00040010818C078F6B2B042D5D80198012810
:105EF0004CD169460F98097801703868694680303E
:105F0000C06D0978FF30FF30023028235943263115
:105F1000C26D01E043E073E0515C406DC90041187F
:105F2000204604F067FC37E04806400E01210F9B35
:105F30000029187035D0396828238031C96D58433D
:105F4000FF31FF310231CA6D2630105C496DC0004F
:105F5000021D8A58150E0918204600E017E004F0CB
:105F600049FC012E16D0032E14D00598012813D019
:105F70002078C1070C98C90F814276D10699062274
:105F8000601C491CFBF75EFA002805D06DE00F9BF2
:105F900018701EE0E80968D02078801CC0B207B0F5
:105FA000F0BD002A15D0012E5FD0032E5DD00598DC
:105FB0000128F4D02078C1070C98C90F814254D130
:105FC00006990622601C491CFBF73CFA002817D0F2
:105FD0004BE0386813248030C06D64010119C97A20
:105FE0003E46002941D15121C9004018294604F0FC
:105FF00001FC316801208031C96D0919C87234E093
:10600000012007B0F0BD0127DDE62068296888423D
:106010002BD161686A68914227D1002F25D121E0F8
:10602000C80922D0002F20D13DE0002F1DD13AE039
:10603000002F1AD137E00E9901290DD0012E17D06B
:10604000032E15D0059801282DD02078C1070C9873
:10605000C90F81422AD008E02068904205D16168CA
:10606000994202D1C0B207B0F0BDFF2007B0F0BD29
:10607000152149014118FF30FF3002300024104D36
:106080004978406D04F04CFBFF280AD02968C00015
:106090008031C96DFF31FF310231496D001D085853
:1060A000040EE009E1D0019807B0F0BD0699062280
:1060B000601C491CFBF7C6F90028F4D0D5E70000A6
:1060C0004C050020F8B50D461F49144609681322F7
:1060D0008031C96D52018A18167A4268012E09D1A1
:1060E0000668B446F60705D01602B70F012F0CD08C
:1060F000B10F08D061688A4205D1216800680E227C
:10610000914388421CD0FF20F8BD5806400EFF285E
:106110000DD0FF31FF3102312823C96D58430818D3
:1061200001236146103004F02BF9002803D06808E1
:10613000E9D0FE20F8BD2078C007C00F801CF8BD54
:10614000C007C00FF8BD00004C050020F8B5234C77
:10615000132520686D018030C06D05264119497AEC
:10616000F6010027002918D08019C069804700284F
:1061700013D1206815218030C06D49014118C978BC
:10618000FF30FF30CA000230416D806DFBF7A4F88C
:1061900020688030C06D4019477220688030C06D23
:1061A0004119897A002918D0801940698047002850
:1061B00013D1206815218030C06D49014118C9787C
:1061C000FF30FF30CA000230816D406DFBF784F86C
:1061D00020688030C06D40198772F8BD4C050020E2
:1061E000F8B55B4C152520686D018030C06D282204
:1061F0004119FF30C978FF3002305143C06DFBF7C1
:10620000E7F92068FF228030C06D4119FF3009791D
:10621000FF300230C900C06CFBF7CAF92068FF22CA
:106220008030C06D4119FF300979FF300230C9005C
:10623000006DFBF7BDF9236800278033DE6D701910
:10624000C178002931D0C9070020C90FFF220029D9
:1062500006D0FF36FF360236F06D27268255012024
:10626000DB6D5B19DB788B421FDD236828268033CA
:10627000DB6D4643FF33FF330233DB6D27369A5520
:10628000236828268033DB6D401CFF33FF33023345
:10629000DB6D464327369A552368401C8033DB6DFF
:1062A000891C5B19DB788B42DFDC2068052280309B
:1062B000C16DD20189180F74C16D2723FF31FF31E1
:1062C0000231CA6C0A66C16D1B01FF31FF31023118
:1062D0000A6D4A661322C16D52018918CF72C06DD2
:1062E0001C4A1A50FF30FF30002102304167FBF793
:1062F000E0FB216805268031CA6DF601FF32FF32CE
:1063000002329067CB6D00229E1910463260052242
:10631000D2019A185060C86D00264019C078002834
:1063200015D920688030C06DFF30FF300230C16D5C
:10633000282070430F1804F002F838622068761C99
:106340008030C06DF6B24019C078B042E9D8F8BDCF
:106350004C0500200000F9157FB56C46099E089D8C
:10636000207261720020A0722580668023716946C8
:1063700002A804F047FA04B070BDF0B585B00C4631
:106380000AA9E0C969460C804A808B80CD800E81C5
:106390004F8101220A730146684604F05FFA05B096
:1063A000F0BD13460A4610B50146402004F084FAB9
:1063B00010BD1CB5002200920192030004F0E2FA25
:1063C000060406080A0C0E13012008E0022006E06D
:1063D000042004E0082002E0102000E020206B46AA
:1063E00004F06AFA1CBD82201CBD10B5030004F045
:1063F000C9FA080507090B0D0F11131701200CE04E
:1064000002200AE0042008E0082006E0102004E052
:10641000202002E0402000E0802004F0C1FA10BDFE
:10642000822010BD70B500220546134604F0FEFA26
:106430000446002D06D104481C220168C86A0021C8
:10644000FDF76EFE204670BD3805002010B5012214
:1064500004F010FB10BDFF210171704738B50F4AE1
:10646000146823466C334834E27C150601D50028B5
:106470000FD0DC2002400BD0684602700021417032
:106480006946022004F0A2FBE07C23210840E0746E
:1064900038BD01202075598038BD00003805002026
:1064A00000220078012906D0002806D0012804D057
:1064B000042802D002E0C00700D001221046704735
:1064C000F0B5002287B00F46019211460092012FCD
:1064D00003D00178042918D018E002880446100778
:1064E00018D4E57DE01CA6690190A0780090D00644
:1064F00005D400220099019804F098FB0146002978
:106500000BD00125012F5DD06AE00122057AC66813
:10651000002A02D0012007B0F0BD324928460968A0
:1065200000250122283108E0B35C012B0AD0B31802
:10653000203BDB7F9A18521C92B28242F4D3012F87
:1065400011D04DE0521C90B23322525CD30702D0DE
:10655000305CC00703E09207F1D5305C800700286B
:10656000EDD00125EBE7002D3AD02088C20637D4C4
:106570004006800F012833D10198059000980490BF
:10658000002006904F680546E800401BC6B2002078
:1065900002900390B819072202A9FDF7CBFD00066F
:1065A000000E05D06D1CEDB2042DEDD3069D17E055
:1065B000B8190125064606220599FDF7ABFD04989A
:1065C000B07101E001290BD120784006810F02D083
:1065D000800F022804D101220099019804F026FBC3
:1065E000284698E73805002038B51048002104688F
:1065F00008462834FDF705F8694648702034E07CE9
:10660000C10704D001216A4611708843E074C0B20A
:10661000810705D502216A461170FD210840E0740A
:106620006946022004F0D2FA38BD00003805002087
:1066300002780907090F0A4302700020704770476B
:1066400000B585B0142207496846FAF745FE0648AA
:106650006B460068054A6C304088012104F012FB4B
:1066600005B000BDE01C061038050020FFFF00004B
:106670007FB5AC218172817B05468A072A350446A5
:10668000002A09DA102200216846FDF749FD694613
:106690002B460A46AD250FE0C80701D1480719D59A
:1066A00021464A312246E07A5232000701D52B4674
:1066B00001E023463A33AE2520890005000D04F0A1
:1066C000F3FA00280BD03A2801D00C2800D1002082
:1066D00004B070BDC808C000A0738520F8E7A17B96
:1066E000CA0703D010221143A173F125C9B2C9080A
:1066F000C900A173A572EBE710B57421095CC90745
:106700000BD1817AA42909D0AC2916D0AF2904D1A4
:10671000417F002914D0D021817210BD0446102180
:10672000543004F00CFBE07A0007204602D5FCF759
:10673000D1FF10BD04F013FB10BDFCF783FF10BDAB
:1067400004F040FB10BD10B504684168A268FF204A
:10675000137B8A7A002A0DD0F12A0BD0A12A0FD000
:10676000A52A13D0A62A04D1042B02D1204604F076
:1067700045FB10BD0B2BFCD1204604F0B1FB10BD36
:10678000022BFCD1204604F0EDFB10BD032BFCD105
:10679000204604F01DFC10BD10B50146807AA928E2
:1067A00002D1002004F014FC10BD10B504F03CFC34
:1067B00010BD704710B50249062004F065FC10BDFD
:1067C00069BB051038B5890612D5044604F08EFC65
:1067D000028B69460A80408B4880E08E009904F065
:1067E00091FC3A2804D0803420682021884320601E
:1067F00038BDF8B5077904468668384604F0AAFC27
:106800000546384604F0B6FC002813D080790428E9
:1068100010D1A96C700288420CD024682B46224605
:106820003946304604F0BEFC2B462246012138464C
:1068300004F0F6FCF8BDFEB507790668384604F0AA
:1068400089FC0546384604F095FC002819D080796B
:10685000042816D12C468034E18DB08C814210D0B2
:10686000E0852B4632460021384604F0D9FC218EC3
:10687000A08D00900191E38D228DE98E802004F09F
:10688000F5FCFEBDF8B50468007904F063FC03462E
:106890008030C18E028F914200D31146A92212018D
:1068A000E180914200D21146A181858E418F8D42B7
:1068B00000D22946A1800025164614E0002D12D0F2
:1068C000A189828D97013D221201BA188A4200D80F
:1068D00011460E4F9A6CFF317A43120A2D318A42CB
:1068E00003D9521A02E0E188EBE70022A188914225
:1068F00000D20A4692B231468A4200D311466A005B
:1069000012196D1C1181022DD8DBF8BD7102000037
:10691000F0B5574D91B0286860300079800771D587
:10692000544800688007C00F6DD00024012004F097
:10693000D5FC064604F0F1FC012800D10324300008
:106940007ED002274C4E012802D0022878D13CE0AC
:106950006946022004F072FD032008A904F06EFDD0
:10696000002C04D129680120A83104F067FD3068AB
:106970002030007BC00701D0002600E010266846CA
:106980003E4311231090F00603D50B22BF20064092
:1069900008E028686030017C890659D5407E0006F1
:1069A00056D509223007000F032851D28100334801
:1069B000006808180069314604F044FD070047D01C
:1069C000381D3C714022109939E06946022004F0DC
:1069D00035FD002C04D02022FF216846FDF7A0FBE6
:1069E00030682030007BC00701D0002600E0102670
:1069F00068463E4309230890F00605D50C22BF20C7
:106A000006400AE02AE031E028686030017C89060F
:106A10001ED5807EC0071BD00A223007000F032836
:106A200016D281001548006808180069314604F044
:106A300009FD07000CD0381D3C712022089900E0A8
:106A400006E0401CFDF766FB3946304604F054FD75
:106A50002868FD22603001791140017172B6084842
:106A60008022006881781143817062B611B0F0BD58
:106A70004C05002000003048300500203C05002077
:106A80003405002010B5012815D10B4C08232168CE
:106A9000084640318A7968301A438A7120220749B2
:106AA000FDF738FB05492068202220318830FDF7AA
:106AB00031FB04F035FD10BD54050020D40606104E
:106AC00030B50446C07A0025000711D5208904F0AE
:106AD00035FD002801D008250AE0E07A01210843AD
:106AE000E0720448042200684030817911438171CA
:106AF000284630BD5405002010B50B4C20684030AE
:106B0000807941060ED5902108420BD104F038FD62
:106B1000002807D12168BF224031887910408022A7
:106B20001043887110BD00005405002070B5046842
:106B30000579E07A000735D5208904F0FFFCE17A79
:106B400049084900E172184C002805D12168FB234F
:106B500040318A791A408A71002D07D0216840316E
:106B6000CA791032CA71002806D009E02068403086
:106B7000C179491CC17103E08879CF221040887126
:106B8000206803214030C07905090007000FFBF79A
:106B900061FC4019032805D304F010FD2068002192
:106BA0004030C17170BD00005405002070B50D4C1F
:106BB0000D462268403291794906490E91710028AC
:106BC00002D004F0FBFC70BD04F004FD002802D0EC
:106BD00004F0A6FC70BD2068402229466830FDF70D
:106BE00099FA70BD5405002070B51B4D46222B68E4
:106BF000D25CD2062AD5002806D0184900200968A0
:106C00002031097D803324E018462022FC30FDF736
:106C100081FA2868202240308179114315E07C22D6
:106C20009C6A4243A41812D02289002A0FD0E27A2B
:106C300012060CD5012300220B21204604F0D4FCBF
:106C40002868CF22403081791140817170BD401C8D
:106C5000C0B28142E3D870BD540500203005002049
:106C600010B50B4A01681268896840329278406812
:106C7000C97B022A03D10A0701D4032010BD1823BF
:106C8000C27ADB4319430A40C272FCF70BFD10BD08
:106C90005405002010B5C17F012908D0042906D071
:106CA000022907D0032901D104F0B4FC10BDA521AD
:106CB000817210BDC17B491CC17304F050F810BD36
:106CC00010B5C17F012908D0042906D0022909D0B6
:106CD000032901D104F09EFC10BD0146002004F000
:106CE000DFFC10BDC17B491CC173B521817210BD91
:106CF00038B514C8D07F02280FD10848D17B00686E
:106D0000491EC36B0094CB40DB070146DB0FBC314F
:106D100068305432803304F000FD38BD5405002043
:106D200038B514C8D17F0023032904D00C480229A8
:106D3000006804D00AE0AA209072EB2038BDD17B15
:106D4000C36B491ECB40DB07DB0F80330146683144
:106D5000BC306432009404F0E0FC002038BD000038
:106D6000540500201CB50446C07F042806D0AA2183
:106D7000022820D0012800D1A1721CBD01A80090DA
:106D80001048234600682246014664335432BC3121
:106D9000683004F0EAFCB920A07201A804F011FDEB
:106DA0000949FBF757FB20890A460105090D022016
:106DB00004F012FD1CBDE07B1428DDD2A420A072DB
:106DC0001CBD00005405002040420F0038B514C817
:106DD0000A48D17F00230068022906D1D17BC36B0A
:106DE000491ECB40DB07DB0F80330146BC316830E6
:106DF0006432009404F091FC38BD0000540500207A
:106E0000FEB50468416802918668C568BA2028709A
:106E100000203060E17F1F4804291ED002291BD1C9
:106E20000068E77BC16B7A1ED140CB0702990091C5
:106E30000146DB0F224654326831BC30803304F007
:106E40006CFC214610222A310298FDF773F930605C
:106E5000142F01D2B4202870FEBD01A90091006852
:106E6000234601462246643354326831BC3004F074
:106E70007CFCB920287001A804F0A3FC0649FBF7AC
:106E8000E9FA20890A460105090D022004F0A4FC54
:106E9000FEBD00005405002040420F0070B50446BE
:106EA00017480125026840210020683204F0C2FC26
:106EB00006461448202102680020A83204F0BAFCDB
:106EC00001463046084303D0002504F077FB0EE06E
:106ED000E07AC1434906890F09D07421095D002574
:106EE000C90706D0400602D5204604F0B5FC284666
:106EF00070BD8106FBD49B210840E072F4E70000DE
:106F0000540500204C05002010B50446807AAA28BC
:106F10000BD0BA2809D0B92810D07420005DC00762
:106F200002D12046FCF79AFB10BD204604F0CAFCB3
:106F30000028F9D0012300220B210DE0E07F042876
:106F4000F2D1E07E410602D5BA20A07210BD000643
:106F5000FCD5012300220C21204604F045FB10BD86
:106F600010B5036841689A68FF20147B8A7AA22AC8
:106F70000BD0B22A09D0AB2A01D0BB2A04D10D2CE8
:106F800002D1184604F0F2FC10BD0C2CFCD1742286
:106F9000525CD207CA7A05D05206F5D4184604F0DE
:106FA0001FFD10BD9206F9D410BD704770B5026880
:106FB00041689268FF20137B0E2B13D1CB7ADB063E
:106FC00010D5CB7F022B0DD14B7E022B0AD174231F
:106FD0005B5CDB078B7A06D0B22B0AD0B42B08D0CF
:106FE000B52B06D070BDA22B03D0A42B01D0A52BAE
:106FF000F8D10889022406050C48360D0068557B37
:1070000080308078012340060DD50948252200688C
:107010002146806904F016FA010004D08E808D713B
:10702000204604F069FA002070BD00004C050020E5
:107030003C05002010B50249072004F025F810BDDA
:10704000DF960510F8B5064604F084F8044630468D
:1070500004F090F8254603468035A87B80063BD592
:10706000304604F013FD002803D0587A00280AD1D6
:1070700008E0187A002800D198799871597A002987
:1070800005D103E098799871197AF8E7D979D9711F
:107090009879042821D04008042900D049082034D8
:1070A000637F502253430F4A9E18F36D07273F0614
:1070B0004007BB4340090343F365607F50235843B7
:1070C0008218D06D3B014907984349080843D065B1
:1070D000A87BDF210840A873F8BD1A88012ADBD1FC
:1070E0000620D9E78000002010B503F0FFFF01461D
:1070F000072220308273C27302208885002010BDD1
:10710000F8B5054604F036F804002AD003F0EEFF87
:107110000746284604F01EF806460E2200212046A7
:10712000FCF7FEFF3D462035A87BA070E87BE070B1
:10713000B88D20802036707F502148430B4941187C
:10714000C86DC96D4001400F49004A0F0121042854
:1071500002D00B4683401846A071042A03D0914008
:10716000E1710020F8BD1146FAE700008000002020
:10717000F8B51F4C1D4E2068B278014620300274CD
:10718000002545742C204243486B2946FCF7C8FF74
:10719000184F20683A460021383004F082FC2068FD
:1071A0003A460021483004F07CFC20680146C56561
:1071B0005C314566016608318166002010E0216877
:1071C00002018B6D11460C315D5023689F6D1B6E63
:1071D000BA181A602268936D5918401CC0B2116623
:1071E000B17849008142EAD80020F8BDA00700200C
:1071F00044050020FFFF0000F8B50024009472B69B
:10720000244F0122386881781143817062B604F0FE
:1072100051FC04F009FD204D286848308089C046A3
:10722000064609E028686946483004F0D3FD009816
:1072300004F0E8FD761EB6B2002EF3D112E0286805
:107240006946383004F0C6FD009804F0FDFD0400E6
:1072500004D0862C02D0882C04D115E0012100989E
:1072600004F014FF2868383004F02AFF0028E6D024
:10727000862C01D0882C06D172B6386881784908EE
:107280004900817062B6F8BD28680099383004F072
:107290001EFFF1E73405002044050020F0B5046826
:1072A0008DB0007900210A91A1680A7B0692FF4AFD
:1072B0004E7BD27A824211D9FD4A03011268FB4FFC
:1072C000D26A2037D518A2880392069A142A0DD0C4
:1072D00007DC062A7ED0072A29D16FE180200DB075
:1072E000F0BD152A77D0162AF6D1A6E1A878400776
:1072F0001DD4204604F0FEFE07900A2802D0002884
:1073000016D01EE06E71022200216846FCF708FFCD
:10731000A068817CC07C0002081869468870000A59
:10732000C8706B4602223146039804F011FFD1E188
:1073300004AA0021039804F061FF002801D0042072
:107340000790A068017C407C0002081880B2009081
:107350006846B978007C81424DD9079900294AD105
:10736000D34F2C2339685843496B1022C01C0A5450
:1073700038680221426B6846007C5843801C1154D7
:1073800038680099426B6846007C584308301152B7
:10739000A068817CC07C000209183868426B68468E
:1073A000007C58430E301152A068017D407D0002E0
:1073B00009183868426B6846007C584310301152F7
:1073C000A068017E407E000209183868426B68465A
:1073D000007C01E08EE019E0584316301152A0689D
:1073E000817DC07D000209183868426B6846007CC8
:1073F0005843001D11522A463146069804F03EFFBC
:10740000002102940191039B079A38E00699AA791A
:10741000491E8A428BD1314604F038FF002886D1BC
:1074200001200690A0680026017E407E1022000206
:10743000081880B204900121039804F04DFFB97838
:107440000546A9420ED99A4A2C231068416B28465A
:10745000584303460833CE5A049B002B13D02846CA
:1074600004F05EFF92482C2100684D43406B0A35C2
:10747000405B0190039B049A069900960294422077
:1074800004F066FF26E11127C31CCF54A168884A87
:107490000B7C497C09025B1811684F6B01460E3169
:1074A0007B52A1688B7CC97C09025B1811684F6B09
:1074B000014610317B52A1688B7DC97D09025B18A2
:1074C00011684F6B014616317B52A16812680B7D23
:1074D000497D071D09025918536B89B2DA5B914245
:1074E00000D31146724A1230195211680020496BBC
:1074F000C853B7E7A8784007C4D44A7C087C120276
:1075000080188A7CC97C80B20902511889B2009126
:10751000039904F083FFB978814211D864492C247F
:107520000B6860435B6B0122841D1A550A68536B1C
:10753000C21D9E5409680222496B001D0A52C8E010
:107540005B4C2C220746216857433846496B0E3066
:107550000590095A009881422BD12A463146069857
:1075600004F08CFE2068D021426BF81C1154206876
:107570000022416B38460A300B5A1020039904F060
:107580006FFF20680022416B05980B5A2020039959
:1075900004F066FF0021009A039804F093FF20682E
:1075A0000721426BB81D11542068FF1D406BC65562
:1075B00090E0A878FD210840A8708BE00699AA7990
:1075C000491E8A4238D1314604F060FE002833D18A
:1075D000A068427C017C120289188CB2817CC07C3C
:1075E0000002081885B22846039904F017FFB978FD
:1075F00081426FD92E4909684A6B2C2141430E31D3
:10760000515AA14266D104F08BFE2A4842260068F6
:1076100001238030007A039C80075BD526482B220B
:1076200000683146806903F00DFF010052D08C8064
:10763000CD80304603F060FF4CE06879B04203D360
:10764000012E47D1012845D04A7C087C12028018BF
:107650008A7CC97C80B20902511889B208910399C9
:1076600004F064FFB978814233D9114A2C231168A0
:107670005843496BC31CCB5C112B2AD1089B002BB0
:1076800027D00246163294468A5A0C4B089F9B1A02
:107690009F421BD2089B064FD21892B26346CA5231
:1076A00039680A30496B00920B5A09E080070020C4
:1076B000440500204C0500203C050020FFFF000091
:1076C00022464220039904F04FFF02E00622801D6B
:1076D0000A546E710A9802E6142809D0152807D0BA
:1076E000162805D0062803D0072801D000207047AF
:1076F00001207047F8B501784468002936D0012987
:1077000033D1A688E588304604F066FF0146A068BC
:10771000827AC07A0002101887B2002D25D0002985
:1077200023D0384604F070FF00281ED0314638467A
:1077300004F074FE104A2C2311685843496B034629
:107740001233CB5AAB420DD303461A331D46CB5AE4
:10775000002B07D05B1E4B5310682146383004F0D5
:1077600075FF06E00622801D0A540121204604F020
:107770008DFC0020F8BD000044050020F8B5074648
:1077800000240D4E0D4D12E030682C22416B204636
:1077900050430A5ABA4208D1C01C085C102801D0D4
:1077A000D02802D1204604F0BBFD641CE4B2A878C6
:1077B000A042E9D8F8BD000044050020A007002041
:1077C000F8B507460024144E144D10E030682C2202
:1077D000416B204650430A5ABA4206D1C01C085C8D
:1077E000002802D0204604F09BFD641CE4B2A87877
:1077F000A042EBD8002301223946102004F030FECD
:10780000002301223946202004F02AFE0022012113
:10781000384604F057FEF8BD44050020A0070020BC
:10782000F8B596B0050017001E001C98049103A936
:107830002B22885400200A9002950E9700960EE0A5
:10784000252912D00498029A90470490002800D16C
:10785000D2E00A98401C0A900E98401C0E900E9898
:1078600001780029ECD10A98C8E000200790089020
:107870000990022608210191012404210E9D00E0B7
:1078800020436D1C2A78202AFAD0232A0AD02B2ADA
:1078900004D02D2A04D0302A08D00AE03043F0E783
:1078A0000843EEE7020008201043EAE70200102038
:1078B000FAE72A2A0ED1009A17683A683F1D009B02
:1078C0001F600C92002A03D553420C930143080019
:1078D0006D1C14E000210C91004A0BE0CBCCCC0CC9
:1078E0000C9B934205DA9F00FB185B005918303956
:1078F0000C916D1C29780B00303B0A2BF0D32978B2
:107900002E2903D00021C9430B9127E06D1C297853
:107910002A2908D1009909680A68091D009B196085
:107920000B926D1C1AE02D2902D12D236D1C00E055
:10793000002300210B910CE0002B09D10B9ABC4FC6
:10794000BA4205DA9700BA185200511830390B9133
:107950006D1C29780A00303A0A2AEDD303A908855C
:107960002F783900B3A004F087FE002801D038003A
:107970006D1C03AF2A217854785C682805D12878DB
:10798000682802D1622078546D1C10A806902A78CD
:10799000681C0E90252A15D0582A52D0632A00D18F
:1079A000BCE0642A00D17FE0692A00D17CE06F2A24
:1079B00047D0702A3AD0732A08D0752A41D0782A45
:1079C0003FD0B5E0079410A90A70BAE000980068AB
:1079D0000468001D009908600594002C13D12B2029
:1079E000385C00280CD00024E44300BF93A004F0CE
:1079F0004DFE201A00D1A4E00020C04317B0F0BD16
:107A000095A005909DE00B9D002D03D52000FBF770
:107A1000D1FE09E02A000021200004F05BFE0028CE
:107A200001D0001B00E0280008908AE00098006860
:107A30000168001D009A1060039110A8059078213C
:107A400068E0785C622803D0682809D06C280FE0D1
:107A5000009801680868091D009B1960C0B20DE01C
:107A6000009801680868091D009B196080B205E054
:107A7000009801680868091D009B19600390388D03
:107A80000199C0B2084240D0039800283DD0202080
:107A90001043782839D1079810A930230B54401C83
:107AA000431C07930A5430E0785C622803D06828AE
:107AB00009D06C280FE0009801680868091D009B38
:107AC000196040B20DE0009801680868091D009B2C
:107AD000196000B205E0009801680868091D009B64
:107AE00019600390002802D507982D2109E0388DF0
:107AF000304202D007982B2103E0C00705D5079834
:107B0000202110AB1954401C079010A80799401869
:107B10000590110003A800F0A0F812E00794009867
:107B200000680168001D009A106010A8017008E04C
:107B30000794252010A90870100002D0079610A8FD
:107B400042700C980799401A0999401A0899401AEE
:107B50000F902820385C400713D420206946087114
:107B60000F9800280DDD0F9C029D012301AA03A997
:107B7000280000F0FAF8002800D03DE7641EF4D198
:107B80000295079D10AC002D0ED0029E227803A90D
:107B9000300000F0D9F8002802D4641C6D1EF5D125
:107BA0000296002800D027E7302069460871099C1A
:107BB000002C0CDD029D012301AA03A9280000F07E
:107BC000D4F8002800D017E7641EF4D10295059C74
:107BD000089D002D0ED0029E227803A9300000F0EF
:107BE000B3F8002802D4641C6D1EF5D1029600285B
:107BF00000D001E72820385C400700D42FE6202081
:107C0000694608710F98002800DC28E60F9C029D49
:107C10000E9F009E012301AA03A9280000F0A5F8E9
:107C2000002800D0E8E6641E00D105E6F2E7000077
:107C3000CBCCCC0C686C747A4C0000007072696E0E
:107C400074665F733A2062616420257320617267F5
:107C5000756D656E740000000000F0B583B00A0019
:107C6000C4686F2901D1082506E020211143782935
:107C700001D00A2500E01025182701680E00642AAB
:107C800001D0692A03D1002901D571420E00002ECE
:107C90000CD1016A002909D1082D31D12821415C7C
:107CA00009072DD517273021E17529E00290684694
:107CB00002707F1E019730002900FAF7CBFB3031AC
:107CC000C8B23A2803DB6846007851380918E155F4
:107CD00030002900FAF7BEFB060004D00298806845
:107CE000E1198842E5D30298082D09D12821415C89
:107CF000090705D5E15D302902D07F1E3021E1550D
:107D00001821C91B4161E2198260026A914206DAB8
:107D1000511A8161018D0B4A0A40028510E0002A48
:107D20000ED52822825C14231340102B08D1426AFE
:107D30000369D21A8369D21A511A012900DB8161C1
:107D400003B0F0BDEFFF000010B503000C00110000
:107D5000606898476060002804D0E069401CE061DA
:107D6000002010BD0020C04310BDF8B50024002B3A
:107D700011D007000E0014001D0021787068B8476C
:107D80007060002809D0F069401CF0610020641C7C
:107D90006D1EF2D104002000F2BD0020C043F9E7BF
:107DA00080B5024800F0D8F802BD000000130610AC
:107DB000FFB587B00F460020694608733F48164656
:107DC00005682835012A1DD804F090FC002805D14B
:107DD0002C462034A07C002802D085200BB0F0BDBA
:107DE00003A80799FBF726FC0028F7D1607D6946B8
:107DF0003043607507200875012F05D0022F09D088
:107E0000002F12D08220E9E7087B10210843694641
:107E100008730AE0087B202108436946087305A916
:107E200003A8FBF786FB0028D8D1002600966846F9
:107E300001960178DF2001436846017041780920EE
:107E400001436846082241708270022F03D1062048
:107E500001436846417004F0B7FC01280AD1684626
:107E60004178122001436846417081780720014320
:107E700068468170684604F0ADFCFF2168460170D9
:107E800041708170C17001719F2141718671202103
:107E9000C17104F0B1FC28463630FBF724FB002802
:107EA0009CD16846007B8106890F03D0617D022248
:107EB00011436175A074002090E700003805002090
:107EC00070B50C462249154606220B688AB0002878
:107ED00020D00221062815D01026082810D01828F6
:107EE0000ED028280ED02A280CD02C280CD02E28D2
:107EF00010D0802813D0812823D012200AB070BD62
:107F0000267008E0217006E001212170185C08400D
:107F1000287014E022701918227828460DE022708B
:107F2000684604F07BFC2278002804D0FF21284614
:107F3000FCF7F6F803E0284608A9FCF7EBF8002068
:107F4000DCE704482270016828466431F5E7000048
:107F5000300500203805002010B504F06FFC10BD7E
:107F600010B504F005FD10BD10B504F00BFD10BDFB
:107F700010B504F06DFD10BD70B50D4A0D4B1468C1
:107F80001B6822460021803220331D7D0AE07C23BD
:107F90004B43966A0833F35A002B01D0852070BDFD
:107FA000491CC9B28D42F2D840342071002070BD06
:107FB0005405002030050020034800684830407D0B
:107FC000C007C00F704700003805002070B5054697
:107FD00004F048FD002801D0852407E0044800246F
:107FE00000680C2229463830FCF794F8204670BD12
:107FF0005405002008B569460870012211466846FC
:1080000004F056FD002803D16846007804F06FFDA7
:1080100008BDFFB58BB0189C1C9F22461D9E1E9D5F
:108020000D990C9804F084FD002817D100F0F0FAA7
:10803000002813D11B9808970A9507900996179A5C
:1080400019991A9814AB049403920591069007CBE2
:108050006B4607C30BA80FC8FBF700FA0FB0F0BDC3
:1080600010B5FBF721FA10BD10B5FBF721FA10BDD2
:1080700010B5FBF721FA10BD00B589B069464880FC
:1080800001200871684604F077FD09B000BD704713
:1080900010B58EB004461422094909A8F9F71CF955
:1080A000684644800221017101210181142209A93D
:1080B00003A8FCF72FF8684604F05EFD0EB010BD73
:1080C000D812061000B589B06B465880052018718B
:1080D00019815A81684604F04FFD09B000BD10B502
:1080E0008AB06C4660800C202071218162816846D4
:1080F000039304F041FD0AB010BDFFB5002695B012
:108100001F46344635461E7004F096FD05E068466D
:1081100004F098FD6D1C0646EDB21598854202D21A
:10812000002EF4D020E0002E1ED116E0E0B2179908
:10813000C01D884218D8684640780622C1071698A4
:10814000C90F01551698641C00192946FBF7E2FF78
:108150003878401C3870A41D01E00FAD0235684628
:1081600004F070FD0028E1D0002019B0F0BD1FB56B
:108170006C46608052202070A180E28068460293A5
:1081800004F074FD04B010BDFFB581B00A9E1F4617
:108190001446050005D0022C06D0002C06D0012C78
:1081A00004D0822005B0F0BD202200E01022029908
:1081B00004F0CAFD0028F5D13B4622460096284629
:1081C000029904F0FFFDEDE710B51346012204F01B
:1081D0005BFE10BD70B50C46054604F08DFE2146D1
:1081E000284604F096FE70BD10B504F0A3FE10BD45
:1081F00038B5049C009404F0BBFE38BD7FB5040084
:108200000D001600684604F001FF684601782170F1
:1082100041782970807830707FBD000010B500294A
:1082200002D000BF18A200E00FA20021CCB2145768
:10823000A04203DB491CCBB2202BF7D3080600D0A9
:10824000491EC8B210BD0000002901D00EA100E0F7
:1082500005A1202801D37F2070470856704780B5BC
:1082600004F019FF01BD0000CAEBECEDEFF0F1F2F4
:10827000F3F4F5F6F7F8F9FAFAFCFDFDFEFEFFFF60
:108280000000010203040506CAEDEEEFF0F1F2F37F
:10829000F4F5F6F7F8F9FAFBFCFDFDFEFF0001022C
:1082A000030808080808080800B5074800684830AF
:1082B000807CC10601D5012000BD800601D50320C8
:1082C00000BDFFF779FE00BD38050020FFB587B07F
:1082D0000C46064602210120159F169D04F000FF62
:1082E000002804D168460670EF2E02D912200BB088
:1082F000F0BD4480E00604D4E0438007F6D02007B8
:10830000F4D401A8099904F0F9FE02A80A9904F02E
:10831000F5FE01982028E9D302982028E6D3029997
:1083200001988842E2D86946109808734007DDD06A
:10833000119848730320C0466946497B8142D5D8CD
:10834000694612988873C0B20128CFD803A80622C4
:1083500003301399FBF7DEFE694614984875C0B2E6
:108360000328C3D81A4C7F2F206806D04030817A6A
:108370003846FFF753FF694601E04030407A887580
:1083800020684030817A6846807DFFF75DFF1B9949
:1083900008706846C575E8B2012801D0032DA5D143
:1083A00069461798087618984876C0B2401E032888
:1083B0009CD219988876C0B20F2897D81A98C87698
:1083C000C0B2012892D8084604F0A2FE8FE7000050
:1083D0004C050020F8B517460E46054600F06CFA2D
:1083E00004461B48854205D00221012004F078FE96
:1083F00000281BD1284604F0EDFEFF340134FF2293
:108400000932616850430C1821463046FBF78DF85D
:1084100000280BD12546C0352879002807D0022036
:10842000687680346765668566860020F8BD687E5C
:10843000002805D0D02001593A46A12004F0EAFED8
:108440000120687680342765E6842686EDE7000003
:10845000FCFF0000F8B51F461646054600F02CFA52
:1084600004461B48854205D00221012004F038FE55
:1084700000281BD1284604F0ADFEFF340134FF2252
:108480000932616850430C1821463046FBF74DF81D
:1084900000280BD12546C0352879002807D00220B6
:1084A00028768034E7642685E6850020F8BD287E9E
:1084B000002805D0C82001593A46A12004F0AAFEA0
:1084C000012028768034A764A684A685EDE7000005
:1084D000FCFF0000FEB50C460546164602210120B1
:1084E00004F0FEFD002804D1012D01D83F2C01D954
:1084F0001220FEBD002D01D0002CF9D029462143C9
:1085000007D100200346024600902146284604F089
:10851000A7FE00211EE0481C019006225143C0B274
:10852000725C07E0062703467B43F35C9A42DFD088
:10853000401CC0B2A042F5D3EF2AD9D8881943888D
:10854000007900902146284604F08AFE0028D0D108
:108550000199C9B2A142DED3FEBD704770B5024693
:1085600028480024007F884201D8822070BD264818
:10857000002A0068406D02D014225143401841780F
:108580008A06D30FCA060907D20FC90F002B02D0E3
:10859000002A02D103E0002901D0002070BD028929
:1085A000466805783146104604F0F4FE17498842C3
:1085B00004D030188078410709D50AE0002D1ED07C
:1085C000012D04D0022D02D0032D0AD117E0D424AE
:1085D00015E0002D07D0012D08D0022D0BD0032D62
:1085E00001D012240BE08007F1D108E08007800F52
:1085F0000128ECD103E08007800F0228E7D1204654
:1086000070BD00008007002038050020FFFF00003B
:10861000FEB5114E0025346827464837787D28344A
:10862000800717D5684604F0CDFE6846FAF75BFF71
:1086300005000FD12046062269463C30FBF76AFD53
:108640000122064B1146306804F0E3FE787DFD21DF
:10865000084078752846FEBD38050020A0BB0D00F7
:1086600070B5234D034628680029446D02D01421BB
:108670004A43A4182178012B1CD0A178890716D56C
:10868000002104F03AFF1B48022500688030407842
:10869000C0070CD018481B220068002380692946B7
:1086A00002F0D0FE010002D0284602F025FF002093
:1086B000A07070BD002300290ED0012902D002292C
:1086C0000AD105E0A07802210843A0700B4B03E01B
:1086D000A07804210843A070A07861780843A070B6
:1086E000002BE6D001220021286804F092FE70BD24
:1086F000380500204C0500203C05002020BF02006A
:10870000FFB58DB01F46002408210420179E169D3A
:1087100004F0E6FC002805D10D98002804D00128BB
:1087200002D0122011B0F0BD0320C0460E99814244
:10873000F7D80622394608A8FBF7ECFC0F98012869
:1087400001D00028EDD1A80701D16807E9D50020A4
:108750002946C140C90701D0641CE4B2401CC0B224
:108760000828F5D30022122034E01101775A891924
:108770004B88042F9C468B880393CB889E460B899D
:108780000B934B890A938B890693C9890791C9D3A7
:1087900061460429C6D3BC45C4D8039B12499B1F1C
:1087A0008B42BFD273469B1F8B42BBD2039B9E451D
:1087B000B8D3FF230B99F4339942B3D80A4B0A99E3
:1087C0001B1F0A399942ADD2079B06998B42A9D348
:1087D000521CD2B2A242C8D30DAC0196009507CC70
:1087E00008AB04F0B5FE9DE77B0C0000FFB50F461B
:1087F00083B01D4616460821042004F071FC0400D5
:1088000053D10320C046039981423FD8002F05D0A1
:10881000012F03D0022F01D0032F37D105200642AC
:1088200034D06846017047708670F00718D02878F9
:10883000002801D0012829D16988042926D3A888D5
:10884000042823D3884221D8002168460172297860
:10885000C17069888180A988C18004F0DFFE044668
:10886000700722D50020F10700D0012006214843DF
:10887000295C002901D0012908D141194A88042A1C
:1088800004D38B88042B01D3934201D912240CE02A
:1088900001236A461372285CD070488890808888CB
:1088A000D080684604F0BAFE0443204607B0F0BD0D
:1088B00010B504F0DFFE10BD024800688030C06DC6
:1088C000704700004C050020A030C17D807ECA07A3
:1088D0008B07D20FDB0F4907D218C90F5118032895
:1088E00004D0B12041430846BC3070474B20C00043
:1088F000F8E77047F3B5002185B00F460E460091AA
:1089000005990420A031069D0291002401AB03AA21
:10891000059904F0E9FE69460979CA0700D00624E2
:108920008A0700D5A41D0A0700D5A41C002800D082
:10893000E41C480600D5641C0699FD20001BC91BD9
:10894000814200D8084680B2291A8DB239188FB2F8
:108950000299097F012904D0022908D003290CD0EB
:1089600013E02018C1000098081860300CE02018AF
:10897000810000980818343006E020188101009822
:10898000081835210901401800900220761C002D9E
:10899000BBD1009804490002F9F75CFDCD214E439C
:1089A0003018CD3807B0F0BD71020000F8B51C4694
:1089B00015460E460B9F04F00BFF817C012916D152
:1089C0004460069981600799016008994175099989
:1089D000817501210175C57401820A990762C1611F
:1089E0000C9941620D99C660816202218174F8BDC3
:1089F000024800688030C06C704700004C050020C1
:108A000010B5FFF759FF10BDF8B516461D460446D0
:108A100014220021069FFBF783FB207920210843C5
:108A2000207121790420014321712460A6602573FF
:108A3000290A6173A17B2A0309090901120F114355
:108A4000A173A17B10221143A17321794906490E1C
:108A50002171E27B02210A43E2736279024362716F
:108A6000607908436071012F08D0A07B4021084342
:108A7000A0736079400840006071F8BD2079012141
:108A800008432071A07B80210843A073F8BD704784
:108A9000F8B516461D46044614220021069FFBF732
:108AA0003FFB2079202108432071207904210843CD
:108AB00020712460A6602573280A6073A07B2903B7
:108AC00000090001090F0843A073A07B102108438F
:108AD000A073607901210843607120794006400E3F
:108AE0002071E07B02221043E0730E4B18690E4D9B
:108AF00028403D0228431861A07B40231843A073FF
:108B0000E07B80231843E07360791043607107981D
:108B10000128207902D008432071F8BD40084000A8
:108B2000FAE70000C0000020FF0000F0F8B504469E
:108B30000027E0308770A06A0125078604F052FE06
:108B4000030568000146A26A1B0D30315352A26A28
:108B50002E30105A6D1C1818EDB25052112DEDD355
:108B60002046FFF7B1FE2546803500902646AF86A9
:108B7000A036F07E2246394604F052FE01460098A7
:108B80000A18F07E616D03464843E16F5B1C401894
:108B900012182A60AB820520B075501AA067F07DCC
:108BA0002036C1078207C90FD20F89184207D20F9A
:108BB0008918491E317704F03EFE70772F846F8448
:108BC00004F010FEC0B22521F9F744FCB177626FC2
:108BD000E06F111A688B002802D17379012B03D042
:108BE00000291FDA002A1DD0317900291AD0002867
:108BF0000DD03C212A7F101AC0B200900B48AA7FEA
:108C000000682030007BC00703D0002002E0432131
:108C1000F0E71020A1231843054B04F017FE20466F
:108C200004F04AFE688B401E6883F8BD30050020C2
:108C3000FF0F000010B5FFF73FFEFF210022693152
:108C40000A54FF3024214930F8F7C2FC10BD7047A8
:108C500010B50349062209688931FBF75BFA10BD9C
:108C60004C05002070B5FF25002004F0B1FD0E4931
:108C70000024C97A09E072B62C2262431218927C51
:108C8000002A06D062B6641CE4B2A142F3D828469A
:108C900070BD2C21614301220818827400212546F1
:108CA000816262B6F3E7000080070020F8B5044651
:108CB000502044431C4816460F461D46201850229B
:108CC0000021FBF72DFA18485C382118C86D4022A6
:108CD0001043C8651448243020180268134A026003
:108CE0004268134B120E1206D21842608268FB06CD
:108CF00052095201DB0E1A4382600A6E0E664A6EFA
:108D00004D66069B8022012B0AD0CB6D9343CB6529
:108D100081683F2212029143FF3101318160F8BD29
:108D2000C86D1043C865F8BDDC000020D6BE898E32
:108D30005555550070B50546002404F0D5FD017960
:108D4000012904D10168284600F0EBF904462046C9
:108D500070BD7047F1B5AEB00120089004F0C4FDBD
:108D60000126009006730020D24D0E9029684031F4
:108D7000087204F02DFD2D68044654356E71287973
:108D800000090007000F28712E98C00919D02E98ED
:108D9000FF2823D04006400E2E902C214843061970
:108DA0002E9FF8F786FE3168081AFF382D2805D562
:108DB00001200E900098002101730AE10098002123
:108DC00001732E98FF2809D02C2148430019012156
:108DD0000175817C082901D10421817460210FA8CB
:108DE000F8F7F6FB182127A8F8F7F2FB0898962168
:108DF00048430B90F8F75DFE0B9940180022174688
:108E000007904CE02C2078430619B17C0E200142DB
:108E100025D00420B07433680799184600F081F912
:108E200000280ED10798F269C11AF0689047318A7C
:108E300009183182317D0818FF2800D9FF203075CC
:108E40000122B37D01209C46737D317D98406346AD
:108E50009940884200D90846BB000FA9C850B07C91
:108E600030230146C907C90F1840099100280BD0CB
:108E7000B16A002901D0F06888470020B074F0740E
:108E8000BA000FA9885001220998002803D00020B9
:108E9000BB000FA9C85027A8C7557F1CFFB2864842
:108EA000C17AB942AED8002AA4D1511E009A0B91C2
:108EB0009160FF2100230A9180E07046C01A401E95
:108EC000C0B281000FAE0246715819E0401EC0B218
:108ED00087000FAEF659B4468E4211D38C450DD1A2
:108EE0002C265643371927AE0297365C2C277E4333
:108EF000029F3619BF7DB67DB74201D80246614652
:108F00000028E3D100295FD0002B10D001200C9065
:108F100027A8815C2C267143091904910E684968C1
:108F2000711802917146491E634ECFB215E027A811
:108F3000805C0A9010462C21484300191FE027A8A6
:108F4000C15D2C20414308190068029900F0E9F83E
:108F5000002800D10C907F1EFFB2F07AC01A401E8C
:108F6000B842ECD30C9800280BD027A8805C0A905C
:108F7000049801680B98411A009881600498006871
:108F80000B9027A8815C099196000FA84A49875940
:108F9000C97ABE46CF1AB900091880398C46C96F04
:108FA000815127A838182038C67F27A98E540999DF
:108FB000C177774661465B1CDBB2CF673E48C17A1A
:108FC0008E46994200D978E70A982C2148430A9F97
:108FD000061903204007826908210A43826104F0D0
:108FE00083FC0446FF2F53D00820B07430680390F0
:108FF00020606771326A7168F06890472F48416954
:10900000012292071143416141687A06C909C901E9
:10901000520E114341604168802211434160F07C4F
:109020008007C1170E98491C00280DD0F9F77BF96D
:109030000120207128790107F07C090F000101430C
:109040002971039828602EE001220398F8F7B7FCF5
:109050000028EDD0089840000890102800D27DE646
:109060001748A1250068062601230D2240692946DC
:1090700002F0E8F9040016D00021267161710A4659
:10908000A01DFBF747F82146284602F035FA0AE012
:10909000F8F70AFC0948426880218A434260FF20B1
:1090A0006071002020710349012009684031087275
:1090B0002FB0F0BD4C05002080070020C00000202C
:1090C0003C05002010B50446002004F081FB2C2252
:1090D0000021544320188174C17410BD10B50C4692
:1090E00004F076FBC47410BD10B5FFF7E5FBFF304C
:1090F00009300446FF34002121342176FAF7FFF9C4
:10910000207E0028FCD010BD10B5FF2806D004F04A
:109110005FFB817C082902D01021817410BD2021C1
:10912000FBE7401AC00F01214840704710B50446C4
:10913000FF2813D072B6F8F7BCFCFF30EC30FFF715
:10914000F9FD03460D4800210068024640321172C5
:1091500062B6012B03D02046FFF7FCFD10BD416431
:10916000074B07E0147A002C01D0117210BD446C3B
:10917000641C4464446C9C42F4D310BD4C05002034
:1091800000E20400F8B5044617460D46084600F014
:1091900073FF0602E81C266000F06EFF0002000A62
:1091A0003E4326606060F8BD10B4002A0CD00B4C22
:1091B000A2420BD80123012A06DB04780C70401C64
:1091C000491C5B1C9342F8DD10BC704703780B70A0
:1091D000401C491C521EF9D110BC7047FFFFFF7F95
:1091E000F0B587B00E460546FFF766FB0446FF3430
:1091F000FF2009341530015908780207120F072A99
:109200002ED0082A2CD0891C4006C20F04A8FFF7D4
:10921000B9FF2046FF302130837B01224179FF2BAB
:1092200001D08179002227468037F86D2346FF332D
:109230003033C0B20393019100900296533B29460C
:1092400004A8FAF79BF901462868F864686838654D
:109250002868000A000208432860084607B0F0BDED
:10926000091DD1E738B50546FFF726FB0446FF3454
:1092700009342046FF3021300091C37B41792246DA
:10928000EC322846FAF78AF901468034E06E28600D
:10929000226F6A60020A12020A432A60FE2900D184
:1092A0000021084638BDF0B59C46069C0023059E6B
:1092B0002370089B7F241C70FF23337083789B06E8
:1092C00039D0C3780424DD0700D00A249D0700D5D7
:1092D000A41D5D0700D5641C1B070ED507197B78FC
:1092E0001B071D0D035D5B1965462B807B780125EF
:1092F0001B093370069BA41C1D70C378DB0622D5A6
:10930000035D9B069B0E0B70015DCD094906CB0FDB
:109310000999ED010B70031959789B78DE06F60C5C
:109320007118802D0CD0FF258A35694349095B09E6
:109330001370E41C0BE00798032101700020F0BDBE
:109340007B256943F3E700230B701370194682787D
:10935000079B9206920ED21C1A70C278930601D512
:109360001234E4B2520602D5025D08980270084633
:10937000F0BD704704490A68126C02600868FF304B
:109380000130007E704700004C05002010B50446F7
:109390000620414388B204F0AFFA0549096840311C
:1093A000898B401880B2214604F0B4FAC01D10BD6C
:1093B0004C05002010B50C4604F00AFA046010BDFC
:1093C000FFB581B01D460746FFF776FA0026024634
:1093D0002E70FF320A9B09321E7000290DD0002129
:1093E0003878012403460B43002B08D0002808D00E
:1093F00001280AD0112808D009E00121F0E73C70CB
:109400004EE000294BD02C7049E00029FBD1012807
:1094100001D0112803D1002910D0112810D0032821
:1094200011D0052813D0042820D0142821D00428D6
:1094300027D014282CD006282FD030E0112025E08A
:1094400000292DD001E0002929D02C7028E0002926
:1094500025D003990020FF3208702132D07D0128E9
:1094600002D10126F8F720FA7C75EEE7002902D137
:1094700009E000290ED0104604F051FA0A98047051
:10948000C1E700290BD10A9804701420387007E056
:10949000002904D10A98047002E0002900D10126B5
:1094A000304605B0F0BD704770B501251446002860
:1094B00008D0207904F05AFAFF202071F8F7F4F967
:1094C00060790FE0802600290FD0FF332133187E0A
:1094D000002804D0F8F7E8F92079304302E0F8F7E3
:1094E000E3F92079FFF736FC04E003484168314393
:1094F00041600025284670BDC0000020F8B5064632
:109500000A9FFFF7D9F905463446FF351834093567
:10951000002901D0521C6273012B01D10698A0735F
:109520000798E07304F028FA2074FF350135696963
:109530000B98081820626869817840788906890E3E
:10954000401A401E207720781721084020700C997F
:10955000002902D12021084320700D98002803D053
:109560002078082108432070696920788978890962
:1095700008432070F878C00706D00898002803D068
:10958000F06860603069A060F87880070CD50898B2
:10959000002809D020780421084320700998006829
:1095A000606109984068A061F8BD7047F7B584B064
:1095B000FFF782F90446FF34093401274D4E054672
:1095C00000291BD02146FF312131C879400731D411
:1095D000487A002805D0401E0006000E487201D0CF
:1095E00061E0487270688021084370601520400176
:1095F0000321281801720C2141721BE02046CC3057
:1096000004F0E2F900284ED1FF202830005D400729
:1096100049D57068802108437060069801220028AF
:1096200004D004980222022800D103222046049983
:1096300004F0EAF9152022464001FF3229182132B0
:10964000029194461279087AD3075B0E1843E31D02
:109650000872F93303935B6940261B7833405B0043
:1096600018430872022A20D326468036F06E7066B0
:10967000306FB0666046C17B20460122E43004F0C2
:1096800005FA706E0090B06E019002980099007A11
:10969000C907490E0843029906220872164800A914
:1096A0002818013106E0002720E013482146062251
:1096B000ED312818F7F72AFE0399022049690A7844
:1096C0001207120F072A00D1042009182B200001CD
:1096D00006222818F7F71AFE049855218000001971
:1096E000C900806A0E226918F7F710FE384607B0E5
:1096F000F0BD0000C0000020AA020000FFB5034634
:10970000FFF7DAF800240394019400941C68240AFB
:1097100024021C605C682402240A5C60002902D0D8
:109720000321090701E0032189070291002A00D1E2
:1097300000210022D4002418FF340134A56C1E68D7
:10974000AE46B446B54205D15D68029EE76C35432E
:10975000AF423DD0E6450BD1E56C5F682E0A3F0A6B
:10976000BE4205D12E0E03D10D43E56401240194C0
:10977000521CD2B2042ADDD3019A002A25D1024616
:10978000FF326132147A042C12D1002409E0E50082
:109790002D18FF3501352E6DAE646E6D641CE4B27C
:1097A000EE64157A6D1EA542F1D8147A641E147207
:1097B0002406640D2418FF3401341D68A5645B6819
:1097C0000B43E364117A491C11720399002907D0F5
:1097D000112149014018807F002801D0012000900C
:1097E000009804B0F0BD7047FFB506469BB000205E
:1097F00010901E9850214843FE4905904718F86D77
:109800004001400F0790B17BF07B0202307C0304E3
:10981000707C00061843104308431290B17CF07C22
:109820000202307D0004104308431890707D1190AF
:109830003046163004F050F902903046183004F0EB
:109840004BF90D9030461A3004F046F9009030463E
:109850001C3004F041F90F9030461E301690232042
:10986000815DC806C00E1790480903901C9801F04E
:1098700071FC0446254620351E9868771C9BE11D27
:109880002B740022F931CA600A6120468030E267F9
:1098900009900260D848C8801846F9F753FF20465F
:1098A00004F01FF92046E0300021159081771798C9
:1098B000687401F01BFC0490CE4905985C31401897
:1098C00050220021FAF72CFCF86D40210843F8657E
:1098D000C8490598803140180E9080684109C748F2
:1098E000490100684030407AC006C00E01430E981E
:1098F0008160F96D07200006814307980006014347
:10990000F965F96D072000078143079800070143B7
:10991000F96519A804F02AF9079804280CD0122038
:1099200019990A1A2598012808D002280ED01D98E6
:1099300001281BD088321AE09D20F1E707983E3AB3
:10994000012801D0121D12E00B3216E00E210798FB
:1099500004F018F9121A07983E3A042801D014327C
:109960000BE0AF208000B432109008E090320798EE
:10997000042804D02598002803D0022002E0032008
:1099800000E001200299401840020B9080180190DD
:10999000304608301D990590002947D0F96D802088
:1099A0008143F9650320287330784006C00F139077
:1099B000B01C0690914800684030818B0791039855
:1099C00003F09AFF0799081880B260850B9903F09D
:1099D000A1FF01990D300A1A049943008968E164D6
:1099E000CB188B4200D9E36460640099A186844956
:1099F0004843010A109808181090226427980168BB
:109A000009984167279841680998816704980088F8
:109A10000B90401C80B27B490B90884203D949428D
:109A2000401880B20B90002302902AE0F86D80214C
:109A30000843F86502202873002003906085317880
:109A4000C90913910599069111990A020199A086F5
:109A500052180799042900D1022189000919096DBA
:109A6000E1646064C9E7184601F074FBC18E029896
:109A7000814204D16449884201D00B98C9E75B1C3C
:109A8000DBB2624800682030007D9842EBD8049930
:109A90000B9808800B98E086584800686030807EFC
:109AA00080074AD500201390149013A88446029092
:109AB0001D980128279800780FD0C0B2022801D045
:109AC000032801D1059884463078400615D5F079F1
:109AD0008009012811D1B01C0EE0C0B2022801D0CB
:109AE000032801D1B01C84463078C00905D0707BB2
:109AF0008009012801D105980290039B0D980793D6
:109B00000F9A009904AB07C3279861460378401C5D
:109B10009B0701909B0F3D48009303910068203004
:109B2000007BC00701D0002000E010200021803021
:109B30001D9B0B9A04F044F819E00D9800990290CF
:109B4000039B0F9A03A80EC01398009006992F4804
:109B5000019100682030007BC00701D0002000E0A8
:109B60001020002180301D9B0B9A04F07DF82649BF
:109B70002498C91E884251D01D9801284ED12348EF
:109B800000682030007BC00701D0002000E01020DA
:109B9000A1210843009024980223C0B205900B989D
:109BA00003900098C00605D500980A22BF210840FE
:109BB00000900AE0114800686030017C89062DD5CC
:109BC000C07E80072AD5009808220007000F0328CE
:109BD00024D281000E48006808180069009901F03D
:109BE00031FC01001AD000220A71059B4B71039BC6
:109BF000CB800FE080000020FFF700004C05002024
:109C0000E2040000FF0E0000FFFF0000300500200E
:109C10003C0500200A72009801F06EFC3078800646
:109C2000C60F04F067F8002804D0002E02D0269852
:109C3000002802D12598002800D001201599012381
:109C40000877A120009015980B9E007F0390CB48C9
:109C500000686030017C890611D5C07E00070ED5F2
:109C6000C748152200680099406901F0EBFB01002C
:109C700005D08E80039A8A71009801F03DFC032183
:109C80000D9889024843E0650F9800032066002084
:109C9000E0870D984002A0640120208509990020EA
:109CA00088840999087709994877A6210855099960
:109CB0008968086009994968086068737D204004D4
:109CC0006066A066204604F01DF81C9801F042FA78
:109CD0000121FF3001300172142200212046FAF7E1
:109CE0001FFA1422A018002100900790FAF718FA22
:109CF0002179102001432171207E10210843207614
:109D0000E17B02200143E173E9780143E970E878DF
:109D100080210843E870E87801210843E870E8787A
:109D200004210843E870E87840263043E870204674
:109D30002830A060FEF7C0FD801CE0612460079819
:109D400060614D20287000216970A9780909090116
:109D5000A970207300206073A07B00090001A0732C
:109D6000207930432071207E30432076607E0121AF
:109D700008436076A87810210843A870A07B0843A8
:109D8000A0731D98002817D0A8783043A870E878F1
:109D900020210843E870207E012108432076207EA0
:109DA000802108432076774911984843109940183C
:109DB00010901198608622E02079012108432071DB
:109DC00020798021084320710120C046012805D058
:109DD0000120400711D5FF2091300FE06748052191
:109DE0000068C9018030C06D0E224018006D4169C5
:109DF0001C985043C01D085CEBE7FA201090072028
:109E0000E8732179042001432171217E01432176E9
:109E10006179014361716179022001436171617E61
:109E20000143617609981099C16657490869574AF4
:109E30001040109A12031209104308610120C04615
:109E400001280E9849D040681F210002000A090627
:109E500041180E9841600E988068169980B24A7831
:109E60000B7811021943090408430E99886016986B
:109E7000801C00F001F90E998002C968800A890DE2
:109E8000890508430E99C860F86D80098001F8655E
:109E90000E9800680E991298086015983F26007F6A
:109EA000360200281ED016991C9803F03FFF129826
:109EB0001299000C484082B200211C9803F062FF06
:109EC0000E9989680E9AB1439160F96D80068909EF
:109ED0008901800E0143F96510E04168FF2000060A
:109EE0000143B6E7F86D80098001F8650E98806837
:109EF0001799B043090208430E9988600E9840688C
:109F0000010E1898090601430E984160386E3C66B0
:109F1000786E00987866E16CA06C814200D9E064AC
:109F2000287C03F0A9FFE16C091AE1641D98002860
:109F300021D00222A87BEB7B099D29671D9900296E
:109F400004D01099099DFF315F3129671349124DE3
:109F500004910F4F0F4E05A9E0C1256CA16C029032
:109F60000091099801950393036F21461E9803F011
:109F7000A7FF1FB0F0BD0522DCE700004C05002064
:109F80003C050020E2040000C0000020FF0000F0BB
:109F9000AD1E0610FD0206103DFC0510A98A051035
:109FA00070B5114D04464368026828681526803054
:109FB000C06D76018119FF30FF3002300978806C66
:109FC00000F0AEFBFF2801D0012070BD28682246BA
:109FD0008030C06D8119FF30FF3002300978806C0D
:109FE00000F0FCF9002070BD4C050020F8B50646D5
:109FF000FEF762FC0446FF34093427460025FF378C
:10A0000021370AE0A80020584079FF2803D0B04249
:10A0100001D0FFF779F86D1CEDB2B87EA842F1D8F7
:10A02000F8BD70B50546FF352135EA79C41D9109A3
:10A03000F934002901D0002108E0A08B012140045F
:10A04000000C0B02A083984200D9A3839006800ED7
:10A0500089010843E871A08B012809D003F0C2FBF5
:10A06000A18BC0B2491EF8F7F5F9491C697270BDA1
:10A070000120687270BD7047C3788278417800789B
:10A080001B021A4309021204084310437047FFB52C
:10A090000446C71D83B00546F937786801903868D3
:10A0A00064340C99009060607868A060A3731E46C9
:10A0B000E17303F061FC20747869022280788009E2
:10A0C00020707969C9781140490008432070786987
:10A0D000417880788006800E081A401E20777869C3
:10A0E00081788906890E091D401820620E98002883
:10A0F00005D00D98006860610D98406801E000206F
:10A100006061A0610498002805D0019831060843D9
:10A11000000100090190012200216846FFF7EEFAD4
:10A12000002814D1FF352135A87BFF280FD10598D1
:10A13000002806D02078C00603D46068FF210843B9
:10A1400060602378217F00222046F9F7EAF907B002
:10A15000F0BD7047FFB581B00746129803211B3050
:10A160000843401C8308F80603D50822BF20074097
:10A170000CE0254800686030017C890602D5807EAD
:10A18000C00602D4002005B0F0BD06223807000F3B
:10A19000032836D21D4980000968401800693946F5
:10A1A00001F050F904002CD00298A0800398A0710F
:10A1B0002646251D20360622E01D0499F9F7AAFF40
:10A1C0000A9868720B98A8720C98E8720D98287318
:10A1D0000E9868730F98E881109828742846062214
:10A1E00011301199F9F796FF1298E875AE61304673
:10A1F000129A1399F9F78EFF2146384601F07CF93F
:10A20000C0E70720BFE700004C0500203C05002008
:10A2100010B51921890303F06DFE104C2723226825
:10A220001B018032D26D9850FF32FF3202325167EB
:10A23000F7F73FFC216805238031CA6DDB01FF324F
:10A24000FF3202329067C96D0022CB1810461A60A7
:10A250000522D20189184860002010BD4C0500205D
:10A2600010B503F061FE10BD7CB504460D46012813
:10A2700003D0002C01D012207CBD0846FFF7FCFE65
:10A28000000220430090E81CFFF7F6FE0002000ADF
:10A290000190684603F064FE7CBD30B50B4695B076
:10A2A000154601466A461846FDF78EFF040005D1A3
:10A2B00007A9102228460231F9F72CFF204615B0D5
:10A2C00030BD70470EB507A1096801910021034612
:10A2D000054802910091006802AA01A9183003F014
:10A2E000A1FE0EBD010000003005002070B58AB04F
:10A2F0001D461646002804D0012802D012200AB0BC
:10A3000070BD6A4610706C460622601CF9F702FFA9
:10A3100010223146E01DF9F7FDFE05A8102229465E
:10A320000330F9F7F7FE684603F090FEE7E710B553
:10A3300004F046F810BD10B504F0AAF810BD10B531
:10A3400003F050FA044603F04DFA0004201810BD43
:10A350000346C806C00E0121814010B40020002928
:10A360000BD9C200D2185468641C02D11268521C66
:10A3700004D0401CC0B28842F3D3C8B210BC7047AE
:10A380007FB50668456881683543C46829430C4336
:10A39000002188B0002C06D0002B07D0099904F0CA
:10A3A000CDF80CB070BD01200CB070BD00910191D2
:10A3B0000291039169460A70130A4B70120C8A705D
:10A3C00004AA04F0DFF809A90131032204A8F7F771
:10A3D00039F80028E7D10CB070BD7047F7B50546D5
:10A3E000C80682B0C00E012484400F466B46284642
:10A3F000049A04F006F901287BD0284639462646FF
:10A40000FFF7A6FFB04202D1FF2005B0F0BD6946BC
:10A410000E78601EB04231D9E00041190846083874
:10A420000B460A1FA61B0127091DF607FF078446D6
:10A43000FE4207D0083863460668083A1E600839AD
:10A4400016680E606E463678A41B641E641015D024
:10A4500006461F46803EB66F803FBE6716460F46D3
:10A46000803E803FB66F1038BE67103B0668103ADA
:10A470001E60103916680E60641EE9D10498334AD4
:10A480000168684600781524C000295004986401CA
:10A49000416868460078C00040194160106880300B
:10A4A000C16DC81DFF30FA30436DAB4202D0836DE1
:10A4B000AB421FD1684609190578C97800200029E8
:10A4C0003FD911688031C96DFF31FF310231CB6D49
:10A4D00028214143591820318B79AB4201D35B1CB1
:10A4E0008B711168401C8031C96D0919C97881428E
:10A4F000E7D826E0C36CAB4202D0006DA84220D161
:10A50000684609190578C9780020002919D9116809
:10A510008031C96DFF31FF310231CB6D28214143BC
:10A5200059182031CB79AB4203D3FF2B01D05B1CF0
:10A53000CB711168401C8031C96D0919C9788142FD
:10A54000E5D86846007805B0F0BD00004C05002055
:10A55000CB06DB0E01219940F0B4491E0A408C461F
:10A56000914224D9624522D2D10009180C460D46E9
:10A570000B1D083C091F6646B71AFE0707D0AE68D8
:10A58000A6609E688E6008310833083408357E1056
:10A590000DD0AF68A7609F688F602F6927611F6922
:10A5A0000F611031103310341035761EF1D10023B5
:10A5B0006146DB43C900435009184B602A490B68C8
:10A5C0008033DC6D1523E51DFF35FA356E6D5B01BB
:10A5D000864202D0AE6D86421ED1E418E478002097
:10A5E000002C17D90C688034E46DFF34FF3402343A
:10A5F000E56D282444432C192034A579954201D9CE
:10A600006D1EA5710C68401C8034E46DE418E4787C
:10A610008442E7D8F0BC7047EE6C864202D02D6DC4
:10A620008542F7D1E418E4780020002CF2D90C68B8
:10A630008034E46DFF34FF340234E56D2824444354
:10A640002C192034E579954203D9FF2D01D06D1ED8
:10A65000E5710C68401C8034E46DE418E4788442B1
:10A66000E5D8F0BC704700004C050020F8B52B4D34
:10A67000152728687F018030C06DC119FF30FF3079
:10A6800002308978406EFFF763FE002104460028FF
:10A6900010D928688030C66D9920800080594A06FC
:10A6A000520ED3001B1DC3581B0E28D0491CC9B223
:10A6B000A142F4D3002C21D000212A684806803220
:10A6C000D26DFF32FF320232566E820D121DB35828
:10A6D000180E07060DD41B021B0AB3502E688036D5
:10A6E000F66DFF36FF360236401E766E00060343D7
:10A6F000B350491C641E2406240EDED1F8BDF119A6
:10A700008978FFF725FF28688030C16D0520C001DA
:10A710000918087C401E0874CCE700004C05002096
:10A72000F0B40546C906C90E01208840C1B21E0218
:10A73000002049084318DCB2E3005B191F685B681E
:10A740001B029E4203D89E4206D1BA4204D3204641
:10A75000BA4201D19E4202D00029EAD1FF20F0BCCA
:10A760007047F0B50E4691028646890A01208FB0E7
:10A77000800500229C460AAC01431025134608942C
:10A7800001E0032A04D2D0000F46C740277000E042
:10A790002370521C641C6D1E2D062D0EF1D16046D7
:10A7A000002821D0704604900AA8059068460690BB
:10A7B000037704A803F05AFF0898017831714178B3
:10A7C00071718078B0716846007870706846407822
:10A7D000B07068468078F07030680121000A00028D
:10A7E000084330600FB0F0BD6A467046089903F028
:10A7F000C9FEE1E70A6802608B8883808A798271EA
:10A8000070477047F8B514460E46054603F05CFFE6
:10A81000074601F0D9FF1049012C02D0042C03D0C7
:10A8200017E00868303005E0002F12D0002810D063
:10A830000868806B0B68297828331970697859701B
:10A8400099780622214399703146F9F763FC00207C
:10A85000F8BD8220F8BD000038050020F8B50C4690
:10A86000064603F031FF074603F033FF054601F0CB
:10A87000ABFF1049012C04D0022C05D0042C0AD0C7
:10A8800015E008683C300CE0002D10D000280ED0F8
:10A890000868C06C05E0002F09D0002807D00868C0
:10A8A000006D0E223146F9F735FC0020F8BD8220FC
:10A8B000F8BD000038050020FFB5314881B00568BB
:10A8C0000E460024283503F004FF47007F1C03F0E8
:10A8D000FBFE800007433046B84300D08224A978AD
:10A8E0003046884300D0D1240198402804D033203A
:10A8F000405D05E0852405E03320405DE721084008
:10A900000028F7D12F462037B87C410704D401999D
:10A91000DF22114200D08524000704D4019880066C
:10A9200001D5852429E0002C27D1787D800703D527
:10A93000FDF76EFE040021D101982321084204D0C6
:10A940003146019803F0CAFE16E0F00703D03878CC
:10A95000002800D1D224700703D5A86A007B002804
:10A9600002D0002C02D008E0D22406E03146049B3D
:10A97000039A019803F0E8FE0446204605B0F0BDB6
:10A980003805002030B47446641E2578641CAB4240
:10A9900000D21D46635D5B00E31830BC184770476A
:10A9A000F8B5214F00253E6804462836002802D01D
:10A9B000411E084200D082252036F07C204201D181
:10A9C00085252FE0002D2DD1C4210C4207D1E106B1
:10A9D00001D5410603D421070AD5400608D503F066
:10A9E00005FF050009D1F07CBF210840F07404E0A8
:10A9F00000210846F8F705FE0546A00706D0002D01
:10AA000010D10221386802F078FD01E0002D09D153
:10AA1000F07C6946A043F0740C700020487002205E
:10AA200000F0D4F82846F8BD38050020FEB50C46E5
:10AA300005461E4617460821042002F051FB002857
:10AA400004D1012D03D0002D09D01220FEBD002C11
:10AA500005D0012C03D0022CF7D1002EF5D068468A
:10AA6000447047800671002141710570F8F743FD7D
:10AA7000FEBD7047F7B50E4684B0072101910091E5
:10AA800003F0B8FE040004D07420005DC0071ED19E
:10AA900002E0802007B0F0BDA01C03F0D1FE00282A
:10AAA00017D0A07BC00612D4474D2868403081786B
:10AAB0004A081143C90702D08179490707D4002108
:10AAC0000291A173A17A002907D0F12903D0852032
:10AAD000E0E7B020DEE7F1071FD08079C0438007B0
:10AAE00021D0208920220105090D002003F0CAFE93
:10AAF00007001AD0A020A072E07E2F210840E07647
:10AB0000B00703D5A07B20210843A0730698002836
:10AB100028680CD02030417E0DE00120A073204633
:10AB2000F8F790FDB6E73820B4E78820B2E7A03008
:10AB3000007E4007C10F28680346064640339878D8
:10AB4000DB7842081043C2073820D20F805D03F043
:10AB5000B9FE0646204603F0C1FE01990098009117
:10AB60000190227E33460121384603F0D5FE21466E
:10AB7000384603F0EFFE002802D08120029089E7DA
:10AB8000296840318879C243920701D0401C8871FE
:10AB90002046542200212030F9F7C2FA304618210D
:10ABA0000840E072A07EF10700D002210843A076A1
:10ABB000E07E7107C90F0843E0762868A030C675AB
:10ABC000A120A072029865E7540500200A4610B53E
:10ABD0008921002A27D01178CB0701D000211CE061
:10ABE0008B0701D5012118E04B0701D5022114E0A4
:10ABF0000B0701D5032110E0CB0601D504210CE0A1
:10AC00008B0601D5052108E04B0601D5062104E09D
:10AC1000C90901D0072100E0FF211170014602207F
:10AC200003F0B4FE0146084610BD7047F7B582B088
:10AC300000200090124800240068C76AE000001B52
:10AC4000C6B2B819054606220299F9F773FA00064A
:10AC5000000E0ED1A979039881420AD101200090FB
:10AC60000498002809D0B81907220021F9F758FAEA
:10AC700003E0641CE4B2042CE0D3009805B0F0BDFE
:10AC80003805002010B58AB06C466080092020711C
:10AC9000218162811422194603A8F9F73BFA68461C
:10ACA00001F06AFF0AB010BDFFB581B01E460F4625
:10ACB00003F0A8FE00280DD005462035287B032888
:10ACC0000AD0287C012103F0BDFE002806D03A20DE
:10ACD00005B0F0BD0220FBE78220F9E7287C0121C6
:10ACE00003F0B7FE01460446082230313846FEF72D
:10ACF0005BFA1022A1183046FEF756FA21460222CE
:10AD00002E310398FEF750FA287C012103F0AAFEA9
:10AD1000287C002103F0AEFE01280CD00620203450
:10AD20002072002020730122287C0023114603F0AA
:10AD3000ADFE0020CCE7012020342072F2E7F0B510
:10AD40000E460746002407E03D1902F04BFD28702F
:10AD5000000A6870A41CE4B2B442F5D3F0BD30B56B
:10AD60000446008989B00105090D2022002003F066
:10AD700089FD050009D0E07A000709D505A80290F1
:10AD8000019401A8F8F7AEFC08E0882009B030BDB6
:10AD9000214605AA5431204603F090FE1120E88098
:10ADA000A8680321017305AB10220521284603F092
:10ADB0002BFF2146284603F0CDFD0028E6D1A52132
:10ADC000A172E3E7C17A0A07817F03D4CA0701D0E1
:10ADD000D12102E08A0702D5D32181727047490749
:10ADE00001D5D521F9E77421095CC90704D0417F59
:10ADF000490701D0D021F0E7F021EEE7F0B50B468E
:10AE000093B00C466433002510220521099303F00A
:10AE100004FFE07A00070BD504A80F900E940EA84B
:10AE2000F8F764FC0546EB2807D1002013B0F0BD0D
:10AE300004AA2046099903F041FE21462A31102236
:10AE40000F4604A8F9F776F9002806D000231A4621
:10AE50000421204600F0C8FB3DE0204E217F3068F1
:10AE60002030C07E814200D92077E07A000703D5E8
:10AE70002046F8F73FFC2FE0102200216846F9F742
:10AE80004FF9E07F022802D0032806D00BE030689B
:10AE9000C16B684603F0CAFE05E0316810226846BF
:10AEA0004831F9F737F922460AAB54326846099916
:10AEB00003F0C4FE102200213846F9F731F9227F51
:10AEC0000AA93846F9F726F9A07B02210843A073A6
:10AED0002046F8F7B7FB05462846A7E754050020AB
:10AEE00070B506460C460025088903F0BBFE0246F5
:10AEF00000211A4B084603F0D7FE1949B0680968CB
:10AF00004222525C407B022A03D1020701D4032073
:10AF100018E0A27AF12A06D122895204920F02D1B6
:10AF2000420700D50125C006C00EA0310876208951
:10AF300000220005000D2946FFF79CFD002808D0DF
:10AF4000882805D0014601230022204600F04CFB52
:10AF500070BDA17B80221143A17370BD30750000CC
:10AF6000540500207CB50C460646A42503F0BAFE25
:10AF700000281BD1E07A000707D5684600960194A7
:10AF8000F8F7A4FB002811D1A225A07EFB214008E0
:10AF90004000A076E07E0840E0762146304603F08F
:10AFA000BDFE204603F0FEFE002808D0882805D00C
:10AFB000014601230022204600F016FB7CBDE17F04
:10AFC000022903D1E17EC90600D4A225A5727CBD69
:10AFD00070B5064608890D460105090D202200209E
:10AFE00003F050FC04001DD0002E06D02B462A335F
:10AFF00010220521304603F010FE1120E080A068E9
:10B00000042101732B46543310220521204603F0FE
:10B01000FBFD2946204603F09DFC002801D1A62116
:10B02000A97270BD882070BD70B50E46054600F04F
:10B030005DF8044628461B38E12806D2FF22493233
:10B04000964202D30F48864201D9122070BD258551
:10B05000668572B6208CA84200D805462583608C90
:10B06000B04200D8064666833146104603F0D6FE4D
:10B07000A083A920618B000103F0D0FEE08362B6BB
:10B08000002070BD9042000070B50D46044600F0EF
:10B090002DF84069A100455070BD010016000C025A
:10B0A000020802040203011702010D01010101015E
:10B0B000010315020303090203090301010201014F
:10B0C00003050603140203030901161803161803E7
:10B0D0001403030801030801030609030609030713
:10B0E00003030703010705021603010004480521B5
:10B0F0000068C9018030C06D4018006D006870475D
:10B100004C05002013B503F07DFC040006D0FF20A1
:10B110000730005D800603D41A201CBD02201CBD30
:10B12000012101A803F07EFE010011D1684682884A
:10B1300020468030038D9A4204D16A46D288C08D61
:10B14000824205D02034207C019903F091FE1CBD81
:10B1500008461CBD064905220968D2018031C96D27
:10B160008918096DFF224968193250430818704741
:10B170004C05002010B504460120C046012801D02E
:10B18000002010BD064805210068C9018030C06D4F
:10B190004018006D0E2140694C43001910BD00009D
:10B1A0004C050020FFB581B01D461646084600F04C
:10B1B0006DFC019980350F6818492C8E4F43A98D7D
:10B1C0008A013D21090151188C4200D30C46FF34FD
:10B1D0002D34012809D0A92000012018874204D26B
:10B1E0000E49F7F737F901990860A74201D9391BD1
:10B1F00000E00021AA8E688F824200D21046884269
:10B2000000D30846A921090180B2884200D208462D
:10B21000B084688DF08405B0F0BD0000E204000049
:10B2200070B51C4615460E46FFF7A4FF002802D055
:10B230000088022815D00121A88CFF387938C84031
:10B240000949400340188034218D000C814200D20E
:10B250000846002E03D0E98C814200D20846608562
:10B2600070BD0321E8E7000000A0F6FFF8B51D4619
:10B270000446032316460F46C00603D51722BF20F7
:10B2800004400BE0134800686030017C890602D559
:10B29000407E400601D40020F8BD14222007000F94
:10B2A000032814D20C49800009684018006921461F
:10B2B00000F0C8F801000AD08F80CE800D81069A78
:10B2C0004A81079A8A81204600F016F9E3E70720B1
:10B2D000F8BD00004C0500203C0500200349002873
:10B2E0000A7801D000200870104670477B050020C6
:10B2F00010B50B00521E815C9C5C091B01D1002A19
:10B30000F8D1080010BD016880220A43026001687C
:10B310008022914301600020704733480078002864
:10B3200001D00120704731480068002800D001207A
:10B33000C0B2704770B50E002B4D2C7801281AD181
:10B34000202200BF35A13000FFF7D2FF002801D432
:10B3500004201BE0FB20204028702548002100220B
:10B360009300F458C3181C60521C082AF8DB2030E4
:10B370000160002070BD00BF20A102280FD1202253
:10B380003000FFF7B5FF002804D4012020432870C7
:10B39000012070BDFE20204028701648DEE70328FB
:10B3A000F6D120223000FFF7A3FF002801D40220AD
:10B3B000ECE7FD20204028700F48CFE7012808D196
:10B3C0000B480022835C8B54521C202AFADB00209D
:10B3D0007047022801D10748F3E7032801D1064846
:10B3E000EFE70120704700001608002000043048F5
:10B3F0006C04304890043048B4043048FFFFFFFF2D
:10B40000FFFFFFFFFFFFFFFF000000000000000044
:10B410000000000001000000FFFFFFFF512563FC5A
:10B42000C2CAB9F3849E17A7ADFAE6BCFFFFFFFFBF
:10B43000FFFFFFFF00000000FFFFFFFF10B5FFF759
:10B44000BDFF10BDFEB5044600269C4617460D46BE
:10B45000080616D572B601AB6A466146204603F06F
:10B4600061FD00280BD06846818800988278920898
:10B470009200827001806180012662B615E062B69A
:10B4800020E001AB6A466146204603F04BFD0028F0
:10B4900018D0680609D46846818800988278920896
:10B4A000920082700180618001260098AA00817854
:10B4B00040238907890F1A4011438170C770002EFD
:10B4C0000CD113E00020009072B6A8060DD40848F5
:10B4D0000822006801681143016062B672B605482F
:10B4E000F722006881781140817062B60098FEBD35
:10B4F0003C050020340500200A46400608D5D078D7
:10B5000046280AD2111D054B80001B5810461847CB
:10B51000907880088000801C88707047B8CF051034
:10B5200010B50548202200680249A830F8F7F2FD5E
:10B5300010BD0000140706104C05002070B50E4A1F
:10B54000044613680D4A0020126801462032157D1A
:10B5500080330DE07C229E6A4A43B218D67AF60701
:10B5600004D01289A24201D0012070BD491CC9B289
:10B570008D42EFD870BD000054050020300500203A
:10B5800010B50C4800240068603001798A070ED499
:10B5900002221143017172B607480068817849069A
:10B5A000490E817062B603F0F3FC012800D13A2401
:10B5B000204610BD4C0500203405002004480168D9
:10B5C00040318879020602D44022104388717047C6
:10B5D0005405002003480068403080790007C00F00
:10B5E0007047000054050020F8B51D4614460E466D
:10B5F0000B4607460522214603F000FD0446882835
:10B6000001D1012D03D13146384603F011FD20460A
:10B61000F8BD000070B588B00446002503F05EF95F
:10B620001E4E012823D105AB01220021204603F044
:10B6300031FD06AB02220021204603F02BFD01A8BC
:10B64000009031680023BC31059A084600F065F887
:10B65000102201A90698F8F76DFD002807D00421F3
:10B66000012300222046FFF7BFFF054610E0207EA1
:10B67000C10707D0800705D4306810220021483068
:10B68000F8F74EFD7420005DC00704D0B620A0720C
:10B69000284608B070BDA920F9E700005405002035
:10B6A00070B5064608890C4601058AB0090D2022AE
:10B6B000002003F0E7F8050012D0002E06D0234644
:10B6C0002A3310220521304603F0A7FAE07A00075A
:10B6D00009D505A80290019401A8F8F70FF808E031
:10B6E00088200AB070BD214605AA6431204603F0C7
:10B6F000F5FC1120E880A8680321017305AB102236
:10B700000521284603F080FA2146284603F022F955
:10B710000028E6D1B621A172E3E7F0B599B00E4654
:10B720001C46174601460123202268461E9D03F051
:10B7300081FD01232022314608A803F07BFD10A8DB
:10B74000047001231022394611A803F073FD15ABD4
:10B7500011AA4121684603F09EFD0123102215A97C
:10B76000284603F067FD19B0F0BDF0B59DB00D4659
:10B770001E4617460146012320226846229C03F0FC
:10B7800059FD01232022294608A803F053FD012377
:10B790001022314610A803F04DFD01231022394636
:10B7A00014A803F047FD18AB14AA5021684603F013
:10B7B00072FD012304221BA9204603F03BFD1DB0AE
:10B7C000F0BD0178427813028278C0781204000636
:10B7D000104318430843704770B5044602231546CA
:10B7E0000E46C00603D52722BF20044008E00F48BC
:10B7F000006880308078800601D4002070BD24224B
:10B800002007000F03280FD209498000096840185B
:10B8100000692146FFF716FE010005D08E80204604
:10B820008D60FFF769FEE8E7072070BD4C0500203A
:10B830003C05002030B401240023002908D9D55C40
:10B84000854201D0002403E05B1CDBB28B42F6D3BF
:10B85000204630BC7047000070B50646008981253F
:10B860000105090D2022002003F00CF8040025D06A
:10B8700000214522A06803F02BFD05001ED14120C8
:10B88000E080A0680C2101730D4840220368052167
:10B890002046683303F0B8F93146204603F05AF8E1
:10B8A00005000BD1F07A20210843F072FFF792FED9
:10B8B000002803D0F07A04210843F072284670BDB6
:10B8C00054050020F0B5284D462229680446525CF4
:10B8D00000209206920F93B0032A3AD1202207A8A3
:10B8E000FC31F8F717FC2868CF22403081792646D2
:10B8F000114081716036307D11AFC0072BD00FA889
:10B9000005AB3A4606A90090204603F015FD6A46AD
:10B910002968127E2046FC312A30039104900FA83A
:10B920006B4685C36A46137D2246214664325431F4
:10B9300007A803F019FD2A680121FF3220460D32C5
:10B9400003F082FD002804D1317DC90708D0BB2156
:10B95000A17213B0F0BD06AB0FAA05A90097D3E7FB
:10B96000204603F00BFEF4E75405002030B589B003
:10B970000C466B461022052103F04FF904AA002162
:10B98000204603F061FD0546102204A96846F8F739
:10B99000D1FB002801D1002D06D0012300220B216C
:10B9A0002046FFF721FE17E07420005DC00703D09A
:10B9B000204603F0E3FD10E0207F10210A1A214603
:10B9C0002A3140180021F8F7ABFBA07B0221084385
:10B9D000A0732046F7F736FE0546284609B030BD6D
:10B9E00070B5284D0E462B684621C95C090601D565
:10B9F0003A2445E040220521BC3303F00EF92868C3
:10BA00004621095C9022114202D18906890F01D09A
:10BA1000382435E0BC3003F0DFFD040004D0122CE4
:10BA200023D01F2C25D02BE028681022034640305D
:10BA3000817911438171F07AC0210843F072184670
:10BA400011492022BC30F8F775FB002818D10E49A7
:10BA5000286820312022DC30F8F76CFB00280FD159
:10BA6000F07A04210843F0720AE0012300220B213E
:10BA700002E00123002208213046FFF7B5FD002433
:10BA8000204670BD54050020D406061000B5FFF70F
:10BA900061FB2030007B032801D0002000BD012085
:10BAA00000BD00230360436041810281C381838123
:10BAB00070470000F0B500208FB00546564E574F36
:10BAC0000B90A1E030682C46416B2C204443A01D14
:10BAD0000990085CE21C06928A5C002A76D0002855
:10BAE0001BD1112A72D120461830085C01286DD173
:10BAF000284603F0AFFD31684A6B21461A31515A8E
:10BB0000814201D2411A00E0002189B2022901D20A
:10BB1000022877D81620231DD1523168231D4A6B85
:10BB2000E11D515C07938C46D15A135B0293234667
:10BB30000A33D35A049323460E33D35A012834D000
:10BB4000062804D0072807D016284FD13FE00499D3
:10BB5000029803F091FD48E00698105CD02845D18A
:10BB60006146049A029803F00DFE0B90002849D11B
:10BB70000298069004980590294842240068012301
:10BB80008030007A800734D526482B220068214671
:10BB90008069FFF757FC01002BD0069A8A80059A2E
:10BBA000CA802046FFF7A8FC23E002291ED1684680
:10BBB00004990170090A41708370190AC1706B46BB
:10BBC00002226146029800F0C3FA0EE01AE00698DD
:10BBD000105C11280AD10CA8009018340798135D46
:10BBE000125A0499029803F039FE0B900B98002822
:10BBF00008D1316800204A6B0999505431684A6B6A
:10BC0000079950526D1CEDB2B878A84200D959E797
:10BC10000B980FB0F0BD000044050020A0070020E5
:10BC20004C0500203C050020F0B5664885B0006852
:10BC3000446EC2E0208902906089029900F076FC8F
:10BC40006149897881426FD95E492C230A6858433B
:10BC5000526B0190C01C105C112865D1228860884D
:10BC6000121A97B2002801D1BF1CBFB2002F5BD0BF
:10BC7000019816300090534A1068416B0098085A9A
:10BC80000028F4D0019812300D5ABD4200D93D462B
:10BC9000281D82B20020029902F0F4FD06007DD03A
:10BCA000B068A17A81726189B068090AC17260883E
:10BCB0000021002807D1B068217801732188B0687D
:10BCC000090A41730221681A80B203906288606891
:10BCD000091D83183046039A02F096FFF58031461D
:10BCE000384E3068483000F0B1FC3068009A416B43
:10BCF0000098085A401E885261880398081860808E
:10BD0000781B07043F0CB6D125880023238063806D
:10BD100030460268506EA04208D1C06850660028C4
:10BD20000DD11046643009E046E00846C168A142E2
:10BD3000FBD1C968C160002901D10C309066E36075
:10BD4000106E204B0460204619680C3008660846C7
:10BD50002030427C4227521E427401984A6B1430B4
:10BD6000115C491E115418680199406B0A31029EFA
:10BD7000415A02916168019100990423405A009050
:10BD8000124800688030007AC00615D510482D2270
:10BD9000006839468069FFF755FB00E010E00100BC
:10BDA0000AD08E80029ACA800D81019ACA60009AD8
:10BDB0000A823846FFF7A0FBE468002C00D039E780
:10BDC00005B0F0BD44050020A00700204C05002070
:10BDD0003C05002010B50446006808602068026831
:10BDE0002260002202602068002800D1626008689A
:10BDF00003F0CCFDE189081AE081A089401EA081F2
:10BE000010BD000070B5C6880446351D002180684D
:10BE1000AAB203F05DFAA068310A0672A068417206
:10BE2000E58002202073204603F0B5FD002808D0ED
:10BE3000E0882146001FE08002480068483000F09A
:10BE400005FC70BD44050020F1B588B008988088D5
:10BE5000039000F0C1FB044608988068817AC07A9C
:10BE60000002081880B2039900F0D8FA002C27D0FD
:10BE700082498978814223D908992C22CE880421CD
:10BE800000917F49044609685443496B254619359A
:10BE9000485D00285DD10898E31C8068027B407BE8
:10BEA0000002101880B26A461082CB5C112B65D15B
:10BEB00023460C33CB5A834203D20620A41D0855D7
:10BEC0005CE006232246263200930592B61E8B5A6A
:10BED000821CB6B2934202D2882009B0F0BD23463C
:10BEE000674A2833C852116800204B6B21462A311B
:10BEF000585210680839406B0291475A891E0691C2
:10BF0000415AC91B89B201293AD021461C314058F7
:10BF10000222C01904A9F8F7FDF859480068406BDF
:10BF200001900699415AB81CF6F794FA029A0198C2
:10BF3000815253486A460068128A416B0598085A34
:10BF4000801A059A801E88524D4801210068406B76
:10BF500041554B4B214618682831406B415A04919A
:10BF600021462A3147180E39415806913A880499DA
:10BF7000891AB14213DA0621A41D01558620ACE7C7
:10BF80006B46198A3E4A0B0A21461C314058C3555C
:10BF900012686B46526B188A51580870BDE7415DB4
:10BFA000012901D0022932D1214620310591425A7E
:10BFB000891C0291405A111A89B20191B142069925
:10BFC00003D94318324600990DE04318019A0099AD
:10BFD000089802F022FE01980199301A82B2009866
:10BFE000069B401881B2089802F017FE2448029A76
:10BFF0000068406B00900599415A805A8019F6F705
:10C0000029FA029A00988152388880193880398834
:10C010000498814227D11A48002102680223526BFA
:10C0200051554221009100682146406B0A311A3473
:10C03000465A075B1348039D0068049C8030007AD1
:10C04000800618D510482E22006800998069FFF7F5
:10C05000F9F901000FD08D80CE800F814C810098BE
:10C06000FFF74AFA07E006480068406B415D012986
:10C0700001D10221415500202FE70000A007002038
:10C08000440500204C0500203C050020F8B50E4674
:10C090000A490838096807460C6803F08CFC054615
:10C0A0003946E06803F091FC72B6B100605A401B5B
:10C0B000605220894019208162B6F8BD50050020E9
:10C0C0000068002801D0002070470120704710B59B
:10C0D0000446006808602068002800D161600846B6
:10C0E000216003F053FCE1894018E081A089401CE5
:10C0F000A08110BDF0B584466146896800208A7C25
:10C10000C97C09025118104A89B215680F4A8E4637
:10C110000146947814E02C260A4672436B6BD61CB9
:10C120009E5D002E0AD067469E5ABF88BE4205D14A
:10C130000E329B5A734501D10A20F0BD491CC9B289
:10C140008C42E8D8F0BD000044050020A007002084
:10C15000FFB581B016460D46044600F03DFA0700D3
:10C1600007D07879A84201D1032E04D3822005B0EC
:10C17000F0BD8020FBE7B878800701D58520F6E781
:10C1800020222146002002F07DFB04000CD0A06894
:10C1900001210173A06800224573002E09D0012EF1
:10C1A00004D0022E04D004E08820E0E7022200E060
:10C1B0000422A068911C8173A068090AC173A06859
:10C1C000310A0674A068951D4174002E04D00A211E
:10C1D0002046049B02F018FDE5802146052003F06F
:10C1E0000FFC002805D000212046FFF74FFF8120DB
:10C1F000BDE7384603F02AFC0020B8E7F7B51D4E2E
:10C200000F4630683021095C00290FD01A490024FC
:10C210008A7809E021462C256943436BC91C595C87
:10C22000002905D0641CE4B2A242F3D88820FEBDE8
:10C230002C2125464D430A4658190021F7F770FF77
:10C2400030680121426BE81C115431680098496B39
:10C25000002F485301D17F20071B30680A35406BFF
:10C26000475330682030017C491E017402980470E5
:10C270000020FEBD44050020A007002010B59378E3
:10C280000424234393709071517110BD70B5114B0C
:10C2900005011B688122DC6A6419A5786D0716D533
:10C2A000E5798D4213D10146184601F026F9A078B0
:10C2B000FB210840A0702079401C0006000E207170
:10C2C00001D1012020710020A071E07102461046CA
:10C2D00070BD000044050020F0B594460E4A0746A4
:10C2E00016680E4A0020957812E02C220346746BE3
:10C2F0005343E25ABA4209D19A1CA25C9207920FA8
:10C300008A4203D1DB1CE35C634503D0401CC0B20E
:10C310008542EAD8F0BD000044050020A0070020B7
:10C3200010B50949897881420DD9084C2C22216821
:10C330005043496B08180021F7F7F2FE20682030BF
:10C34000017C491C017410BDA00700204405002099
:10C35000FFB50446002083B001900746064605233A
:10C3600000900D46E00603D52D22BF20044006E0D4
:10C37000284800688030007AC00744D02A2220076D
:10C38000000F032841D22449800009684018006941
:10C390002146FFF757F8010037D00E9A081D936821
:10C3A0001A4608325B7B022D19D2002D2FD00827A8
:10C3B000D65DD21957783F02F619B6B20196D778F2
:10C3C00096783F02F619B6B20096577916793F0271
:10C3D000F619B7B29679D2791202B21896B2069AC5
:10C3E00002808570059A828083710C9A02810D9A71
:10C3F0004281019A8281009AC28107824682204648
:10C40000FFF77AF8002007B0F0BD0720FBE70A2706
:10C41000CEE700004C0500203C050020F0B50E4A98
:10C42000074616680D4A0020957811E02C23024635
:10C430005A431346746B0A33E35ABB4206D1A35ADC
:10C440008B4203D1D21CA25C012A03D8401CC0B28B
:10C450008542EBD8F0BD000044050020A007002075
:10C46000FFB5174981B00D68102808D0202825D1C4
:10C470000026483528460068C04604461CE00126D0
:10C480003835F7E7A068A288817AC07A2768000269
:10C490000818029980B28A420DD10399012902D06D
:10C4A0000499884207D12146284603F0D8FA31463C
:10C4B0002046FFF7EBFD3C46002CE3D105B0F0BD74
:10C4C00044050020F0B5184F3B685B6E29E01C89DD
:10C4D000844225D1012902D05C89944220D13E6852
:10C4E000746E9C4207D1E4687466002C0CD134460B
:10C4F000643408E02C46E5689D42FBD1ED68E560B8
:10C50000002D01D10C34B4660024DC60346E1D466D
:10C5100023603C680C3525662034657C6D1E65748F
:10C52000DB68002BD3D1F0BD44050020F0B50C4AE8
:10C53000074615680B4A002094780DE02C2302462C
:10C540005A4313466E6B0E33F35ABB4202D1B25AB2
:10C550008A4203D0401CC0B28442EFD8F0BD000034
:10C5600044050020A0070020F8B51D46044602231C
:10C5700016460F46C00603D52F22BF20044008E010
:10C58000134800688030007A400701D40020F8BDCD
:10C590002C222007000F032817D20E4980000968BB
:10C5A000401800692146FEF74DFF01000DD0B0682C
:10C5B000837CC07C8F8000021B18CD800B81069885
:10C5C00048812046FEF798FFE0E70720F8BD00000D
:10C5D0004C0500203C05002030B5044608480021E9
:10C5E00003680848C27A07E0D86A0D014019058837
:10C5F000A54204D0491CC9B28A42F5D8002030BDFA
:10C600004405002080070020F0B50E4A0746156853
:10C610000D4A0020014694780EE02C230A465A4326
:10C6200013466E6B0A33F35ABB4203D1D21CB25C81
:10C63000112A03D0491CC9B28C42EED88C4200D9D1
:10C640000120F0BD44050020A007002010B50446DD
:10C6500000200860206800280CD06068016008464F
:10C66000616003F093F9E1894018E081A089401CE2
:10C67000A08110BD2160F2E7C9B202788A4203D0DE
:10C68000401C002AF9D100207047000080B5002826
:10C6900001D100BF07A006490B68002B03D022225E
:10C6A0000021984701E003F0FCF9222002BD0000C0
:10C6B0000C080020636F6E73747261696E74206879
:10C6C000616E646C65723A20626164206D6573739B
:10C6D00061676500C9B2521E05D30378401C8B42C6
:10C6E000F9D1401E7047002070470000F0B5344873
:10C6F0009BB0066805A800252836019000F08EF84A
:10C70000011E09A80DAC0F9026D0062103A8FEF744
:10C7100016FB6946487CC0210843694648740622D6
:10C7200003A92046F7F7F6FC102112A8FEF707FB35
:10C73000102212A90198F7F7EDFC102116A8FEF7B8
:10C74000FEFA102216A90F98F7F7E4FC019803F0FF
:10C75000ADF9050000D0F12527460620194C0090C0
:10C760002268014600202E32FFF764F8002801D12C
:10C7700027682E37304639463630009AF7F7CAFC1C
:10C7800022681026314600200832FFF753F80028AF
:10C7900005D02068324601990830F7F7BBFC2268C3
:10C7A000314600201832FFF745F8002805D02068F0
:10C7B00032460F991830F7F7ADFC28461BB0F0BD94
:10C7C000380500203005002010B50120C046C0B259
:10C7D00010BD000030B5074A034600211268084624
:10C7E00054185D5C6034491CC9B265760829F7D3DA
:10C7F00030BD00004C05002030B5074A034600213B
:10C800001268084654185D5C6034491CC9B26572F0
:10C810000829F7D330BD00004C05002008B50346B9
:10C8200026210020009102460221F4F762FEC01C7E
:10C8300001D0002008BD812008BD0000F8B50446E5
:10C8400003F041F9002823D08220002C21D0217D43
:10C85000012901D002291CD1217C102902D0802974
:10C8600017D11BE0A0894049884202D0491E884266
:10C8700014D1012003F036F90EE00178002909D126
:10C8800041680A7C102A05D1A28989898A4201D18E
:10C890008520F8BD03F038F90028EED1002003F020
:10C8A00047F9002806D04168C98A002904D0408889
:10C8B000401804E0012203E003F052F9401C82B268
:10C8C00000212346084603F059F9060006D0701CE3
:10C8D00082B2E08A401E87B2002515E08720F8BDAD
:10C8E000E08A002803D0002F23D07F1EBFB2E0696A
:10C8F000A90043580021012003F040F900281AD074
:10C90000401C6D1C82B2ADB2207EA842E8D8174808
:10C91000022200686030017911430171606A0028C9
:10C920001FD02046203000900078002819D0002524
:10C9300013E082270AE0872708E02420616A684321
:10C940000818314600F01EF8070004D0304603F006
:10C9500053F93846F8BD6D1CADB200980078A84276
:10C96000EBD80020F8BD00000118000040050020B1
:10C9700010B5034600220249012003F061F910BD01
:10C98000FFFF0000F8B50D46044603F09CF80028B0
:10C990000ED0204603F05CF9002808D1284603F0A9
:10C9A00083F9050002D02878002803D08220F8BD42
:10C9B0008520F8BD217E2846891C03F087F90028D0
:10C9C000F7D1284603F09BF9054603F06DF96D1C7D
:10C9D0000146AEB223463246022003F0CFF8B04201
:10C9E00001D08720F8BD304603F05EF90146701C87
:10C9F00082B22346032003F0C1F8002807D0E06983
:10CA0000002819D0207E002816D0002511E08727A5
:10CA100008E01C20E16968430818314603F07AF900
:10CA2000070004D0304603F0C5F93846F8BD6D1C48
:10CA3000ADB2207EA842ECD80448022200686030E3
:10CA40000179114301710020F8BD0000400500206C
:10CA500010B5034602220249012003F0F1F810BD8F
:10CA6000FFFF000030B5104A002013680F4A01464E
:10CA700012682032147D803313E07C229D6A4A4381
:10CA8000AA187425AD5CED07957A06D0B02D06D3B3
:10CA9000EAB2F02A03D8012030BDA02DF8D2491CFB
:10CAA000C9B28C42E9D830BD5405002030050020C1
:10CAB00070B5054600780024002801D0032800D96D
:10CAC0008224002A03D0012905D982240DE0822482
:10CAD0000129FAD809E0002C07D10120C04600281E
:10CAE00003D12878FD2108402870204670BD70B51C
:10CAF00094B00646F6F725FD044600F09DF80FAD0C
:10CB000002350BE068464078C00701D0012100E003
:10CB100000212A463046F6F710FD0446684600F02C
:10CB200091F8002801D1002CECD0204614B070BD43
:10CB300010B5104B04461B6800204833002C06D06B
:10CB4000012C09D0022C07D0032C10D10AE0997CCB
:10CB5000C90700D1852010BD997CC907FAD0002AE9
:10CB600005D110BD9A7C9207F4D5C907F9D082206F
:10CB700010BD000038050020F8B507462C492B48A9
:10CB80002C4D08602868C06D002806D0788803F016
:10CB900035F9002803D08520F8BD8820F8BD286825
:10CBA000C46D216AC165002902D101465C3101666C
:10CBB000242239462046F7F7ADFA0120207020469E
:10CBC00003F02AF90646862825D0822E23D0852E0A
:10CBD00021D02079012806D1788803F02FF94188E7
:10CBE000042211434180882E04D13879102812D0B4
:10CBF000112810D0002020622868806D0460204633
:10CC000029682030886520780221084340084000C8
:10CC100020700020F8BD002020622868006E0460AB
:10CC20002868203404663046F8BD000005FA051077
:10CC30006005002040050020014900200870704771
:10CC40007A05002038B550210091074C0346002298
:10CC500011462078F4F74DFCC01C03D00120207051
:10CC6000002038BDB32038BD7A0500207CB50646CB
:10CC7000408803F0E3F8040003D030781E2802D087
:10CC800006E082207CBDA178890601D485207CBD88
:10CC9000410609D41E2807D0294928480860A078F1
:10CCA000C00601D584207CBDA18801AA304603F0CE
:10CCB000D7F80028F7D168468088E188001D82B245
:10CCC000002001F0DFFD05001BD0601C00906846CD
:10CCD00082882B463146204603F01EF9A868317839
:10CCE00001733078410619D41E2817D0E18803203B
:10CCF00003F0ECF900280DD000212846FFF7C6F913
:10CD0000D0E71048022200682030017C11430174F2
:10CD100088207CBD6088102108436080284603F08D
:10CD2000E9F930781E2807D1E188022003F0FAF9EA
:10CD3000608820218843608000207CBD09C10510E7
:10CD40005C0500204005002070B515460C460646DF
:10CD500003F074F8002831D0194909686031097965
:10CD6000890702D48078400601D5812070BD641EF9
:10CD7000A0B202F099FF002820D04168097829422A
:10CD800016D003F0DFF9040007D00322314603F088
:10CD9000FFF9002803D0C02070BD862070BD102D83
:10CDA0000AD002252146304603F02FFA284201D14D
:10CDB000852070BD002070BD0125F3E7822070BD85
:10CDC00040050020FFB581B01E461746044603F01B
:10CDD00035F8050005D06888410707D4022F03D035
:10CDE00006E0822005B0F0BD800701D58520F9E777
:10CDF000A888F11C884201D9F61C00E00646B6B2AC
:10CE00003146204603F00DFA0221044600281FD0C7
:10CE1000A068022F24D01B210173A068022202A95E
:10CE20000D30F7F777F9F01E82B2072120460A9BF2
:10CE300001F0EAFEE680022F18D0F80703D0E07C6C
:10CE400080210843E074204603F054F90020C9E72C
:10CE50000C4800682030027C0A4302748820C1E735
:10CE60001D220273688808436880D6E7E98801209C
:10CE700003F02CF90500E6D000212046FFF706F963
:10CE80002846AFE740050020FFB5002583B01C46CB
:10CE900016460F46002A07D0012F05D10398407986
:10CEA0008009012800D10125124900200870204680
:10CEB0001E3001902030009014E0002D04D0019924
:10CEC000039803F0B6F90BE0002E04D16078C00798
:10CED000C00FB84206D1062203990098F7F72AF945
:10CEE000002805D02046FFF7ADFE0028E5D0B3208E
:10CEF00007B0F0BD7A0500200EB56A4603F0AAF926
:10CF0000002801D0B3200EBD0220F4F73EFB002024
:10CF10000EBD10B50C4694B001466B46012220466A
:10CF2000FFF7B2FF040002D10220F4F72EFB2046E7
:10CF300014B010BD70B50C4603F0AAF905461828C8
:10CF400001D3022070BD03F0C1F9002801D03A20BE
:10CF500070BD052C05D0132C03D01A2C01D0122043
:10CF600070BD2146284603F0B8F9002070BD0000CE
:10CF7000FFB585B01F46054602F060FF04002ED0C5
:10CF8000A06800282BD01F4E306834300068C0469F
:10CF900003E08188A94204D000680028F9D1054641
:10CFA00006E0050004D001463068343002F057FD39
:10CFB000A06803F09BF9401EC6B20798002810D065
:10CFC0000246A3683046069903F093F9204603F021
:10CFD000A9F9002D03D001212846FFF757F809B021
:10CFE000F0BD142208496846F4F776F968464670A1
:10CFF0000195029487810E980490684603F0ACF97D
:10D00000EDE7000040050020E802061081B0032192
:10D0100001708021C9050A680F2312091A40427065
:10D020000A6813408370496841602749096889B2DA
:10D03000491C89008160002100910099002901D1DB
:10D04000012100910099491C8903C16001B070471A
:10D0500070B5002300241D4AA5005351641C0A2CFE
:10D06000FAD3116050600223DE0399004418083C93
:10D07000E0252D066519B54201D2246854505B1C89
:10D080000A2BF2D3BFF34F8F114812490860BFF348
:10D090004F8F00BFFDE710B50F21C9430E4A0F4B5C
:10D0A0000028186806D0022404431C601068014060
:10D0B0000E2005E00224A0431860106801400420FF
:10D0C0000843106010BD0000141000403400002020
:10D0D0000400FA050CED00E01C00504854160060F6
:10D0E000054A12682032537D034201D00C2070475C
:10D0F00051750020704700003005002010B504462F
:10D100000846FCF7B9FF0002000A206010BD0000CD
:10D11000F8B50546FBF7D0FB04460026287800F05A
:10D1200059F82A4988421AD103F05EF9FF2814D031
:10D13000FF340134FF220932616850430C18204645
:10D1400029788030C1830021818522460186C03242
:10D1500011765176C182818408E00720F8BDFF3442
:10D160000134FF220932616850430C182046297BA4
:10D17000A030C175697D0176A97D4176E97D817612
:10D18000297EC176697E0177A97E4177E97E817724
:10D190002746698880373983686800026065A86817
:10D1A0000002A065697BDF200155A97BE0200155C5
:10D1B00029462046AA7B0F315C30FBF7E3FF387E1F
:10D1C000000701D5024860653046F8BDFFFF00004A
:10D1D000DC05000070B50446FBF76EFB0146CB1D75
:10D1E0000B250020F933AD014919094A0D7D0BE0EB
:10D1F000FF2109315E68414371188031C98BA1421A
:10D2000000D10246401CC0B28542F1D8104670BD24
:10D21000FFFF000070B50446022315460E46C00607
:10D2200003D51C22BF20044000E019222007000F74
:10D23000032810D209498000096840180069214676
:10D24000FEF700F9010006D04E6020468D60FEF723
:10D2500053F9002070BD072070BD00003C05002080
:10D26000FFB581B01D4606460A9FFBF725FB044625
:10D2700000200090F6F799F90298304308D00398FF
:10D28000FFF7A8FF424988421AD1422005B0F0BDFD
:10D29000E61D0B200025F936800124180CE0FF2044
:10D2A0000930716868430818C421095C002901D05D
:10D2B00003F0B8F86D1CEDB2207DA842EFD80FE066
:10D2C000FF340134FF220932616850430C18012EEB
:10D2D00008D0C420005D002802D0204603F0A2F848
:10D2E0000098D3E72146C03108790028C87F16D0BE
:10D2F000C00709D0216DE06E0860216D206F486085
:10D30000216DE06CE1642065606F0028E8D0F4F7DF
:10D31000D0FB7D2149014D4340196067E0E7C2071A
:10D3200002D1C043800705D1E06E002802D1206FF2
:10D3300000282BD020468030028BD30702D0838D6B
:10D34000F52B23D812231340022B02D1038E002B7E
:10D3500008D012070CD50E4BC28BDB1E9A4203D1AC
:10D36000802505E00C2091E7802D0FD8002D0DD0F1
:10D370007D225201554365674783002F01D001226A
:10D380004A718783204603F06BF87FE712207DE720
:10D39000FFFF000030B503460948032B0CD30022E1
:10D3A0008C5C022C03D18D186D78012D05D0521C98
:10D3B000A21892B29A42F3D330BD104630BD00009D
:10D3C000FFFF000010B586B0044601A8FCF77AFF05
:10D3D00000F008FA69468870000A487000F002FA06
:10D3E00069460870887840214006400E0843694627
:10D3F000887005AA01A803F0F1F8032205A92046C8
:10D40000F6F788FE03226946E01CF6F783FE06B0B5
:10D4100010BDFFB585B00D4604000BD060780290BA
:10D42000854207D2217805200003002788401E4648
:10D43000834202D9822009B0F0BDF4F756FE720093
:10D44000921913019A18130A4907C0089A18084339
:10D45000130C21789A181018491DC8406946088095
:10D460000197206A0799405DA84209D0002904D09D
:10D470002946204600F041F806E08221019101E0B2
:10D48000002901D1A84236D16846616A00886A0045
:10D49000885268460021415E0391F4F726FE8646D5
:10D4A0006378206A1A468446805C13E0666A470007
:10D4B000F75B26787146761DF140CE08B91B0FB296
:10D4C00003997F1E8E1B36B2761EB74204DC0246DD
:10D4D0006146885C9842E9D16046815C4155206A8A
:10D4E00085540298824206D168460021415E20465A
:10D4F00003F08FF8019001989DE7F8B505460020EC
:10D500000C468646002D03D06B781846844201D322
:10D510008220F8BD2E6A315D8C46A14216D0274686
:10D52000024602E0B94203D00A46B15C8142F9D119
:10D53000B05C984208D06046B0549A4204D161462B
:10D54000284603F08AF88646286A04557046F8BDD6
:10D55000FFB583B00C9EFBF7AFF90446F6F725F84C
:10D560002746FF3709373C46FF342134E079002550
:10D57000C00702D00C2007B0F0BD0020E075FF20EE
:10D58000A07303F07FF8A073FF2844D0F00713D0F6
:10D59000002128460D9A03F099F80120C046002882
:10D5A00009D0012128460D9A03F090F8022128465F
:10D5B0000D9A03F08BF80125B00705D50121284607
:10D5C0000D9A03F083F86D1C700704D502212846DC
:10D5D0000D9A03F07BF82674049820710398A071CB
:10D5E000039860713846DC30059A0699FBF7CAFD4E
:10D5F000002069464871E179890702D501216A4610
:10D600005171012269460A70487048800871684665
:10D61000F5F771FFAFE70020E071ABE770B50146A9
:10D62000FBF74AF90346FF3009300246FF328C7897
:10D63000213214748C880E4E25020C7A9B19A4009A
:10D6400024188034A560CC8825020C7AA400241804
:10D65000803425610D7ACC78EC544B78537109787D
:10D66000117100218030C1650166084670BD00005F
:10D670002A020000F8B50F460546FBF71DF90446DF
:10D6800000262846FFF7A6FD1549884203D102F07F
:10D69000ABFEFF281FD0FF340134FF22093261683E
:10D6A00050430C1820468030C583007EC00703D04D
:10D6B000C420005D012810D00A48062200683946BF
:10D6C0008930F6F727FD2046012239466C30FBF7FA
:10D6D00059FD3046F8BD0720F8BD0C20F8BD00000C
:10D6E000FFFF00004C050020F0B580310D7E0024C6
:10D6F0006F0701252646A446002F02DA03271F7074
:10D7000000E01D700027062808D0072808D003284D
:10D7100008D0022806D0052804D004E01D7002E0DD
:10D720000325FBE71F700D7EAD0600D51F70052891
:10D7300003D0042801D0022803D11D7808273D43D7
:10D740001D700D7E6D0605D5052803D01D78402778
:10D750003D431D701D78EF0700D00624AF0700D5AC
:10D76000A41D6F0600D5641C2F0700D5A41C042837
:10D7700001D0022803D18E8C0F8CF61BB6B206287E
:10D7800001D0032803D1CE8C4F8CF61BB6B2097E94
:10D79000890702D0042800D1002631190E46FC3E2C
:10D7A0001024002E05DB012125438C461D70FF212E
:10D7B00000E0891C1170052807D1012084461878E3
:10D7C000204318701078C01C10706046F0BD000037
:10D7D00003492C22096850438031496E4018704734
:10D7E0004C0500200D480021026852070DD5026843
:10D7F00004239A430260026808231A43026004E08B
:10D80000491C052901DD0020704742689207F7D5C1
:10D810004168C907FCD0806880B27047000060484A
:10D82000916A0207D20E30328A5A4031098A0009C1
:10D83000414350187047C10701D025207047800729
:10D8400001D526207047272070470000F8B51D46F7
:10D850000446022316460F46C00603D50A22BF20FF
:10D8600004400BE0124800686030017C890602D554
:10D87000C07E800701D40020F8BD08222007000FD9
:10D88000032812D20B49800009684018006921461C
:10D89000FDF7D8FD010008D00F714E71CD80069ABA
:10D8A0000A722046FDF728FEE5E70720F8BD0000D4
:10D8B0004C0500203C05002070B504460546C034E8
:10D8C000E07EFBF721FCA07EFBF71EFC0020207110
:10D8D00060712C46E0346078FF2801D002F063FFCD
:10D8E000FF20607070BD0000024800688030006E4C
:10D8F000704700004C0500201FB5054C40071ECCAA
:10D9000003946C460EC4000F6946085A04B010BD5B
:10D910001C1C061089084143880C401C704770B5D8
:10D920000546FF352135EB79C41D99090122F934EB
:10D93000022901D2022105E0A08B01214008A08329
:10D9400000D1A2839806800E89010843E871A08B5C
:10D95000012809D0FFF746FFA18BC0B2491EF4F79A
:10D9600079FD491C697270BD6A7270BD10B5FFF710
:10D970002FFF0121817410BD10B511480268D16CD0
:10D98000106D002901D00B2801D97F240FE0062358
:10D99000584376381E2903D94908801D1E29FBD813
:10D9A000FF23A2335943074BC918890A0C180020DA
:10D9B000D064106502F0FEFE001940B210BD0000F8
:10D9C0004C050020A046000010B50446FDF78EFB74
:10D9D000C078002813D10B48152100684901803018
:10D9E000C06D63684118FF30FF300230226809784B
:10D9F000806CFCF795FEFF2801D0012010BD0020AF
:10DA000010BD00004C050020F7B50C460746FAF79C
:10DA100053FF05461520400105212E18317200F0F4
:10DA200069F9317A40010843307222207072F4F7AC
:10DA300040F80646022C25D02046222100F0A2F80C
:10DA40008119029840020E18A000C419A06A017E34
:10DA5000407E3D36000208434202FF200930005953
:10DA6000314602F0B3FE801BC001010CA06A1630E3
:10DA700002F0B1FE0448A16A162228180E31F3F70D
:10DA800045FCFEBD0420D8E7B602000070B5044690
:10DA9000FF291DD00F4800688030C06DFF30FF3077
:10DAA0000230C36D2820414308461030181806681C
:10DAB0004568354386682E43C568354308D0203114
:10DAC000595813460A462146FCF74BFE012070BD0B
:10DAD000002070BD4C05002001784078000208430A
:10DAE0007047F8B504462030027CFDF7FFFA054682
:10DAF000002637461046FDF73DFB002807D0817908
:10DB0000042900D10126C079042800D10127012071
:10DB1000C046FF21A92249311201803401280FD1CA
:10DB2000288B1B2808D1002E03D0E88B904203D10C
:10DB300006E0A88B884203D0206820231843206089
:10DB40001B202085A085002E0DD01346E385002FD5
:10DB500000D01146218660856086A386E88CE08629
:10DB600021876387F8BD0B46F0E7000004490A6887
:10DB7000126C02600868FF300130007E70470000C0
:10DB80004C050020042807D0012809D0074841434C
:10DB900007480818000A7047064841430648F8E756
:10DBA000FF20A43041430548F3E70000470300008D
:10DBB000C6200000381A0000E92601000612000005
:10DBC000FFB50646082381B01746C00603D50D22CF
:10DBD000BF2006400CE0224800686030017C8906C6
:10DBE00002D5807E800702D4002005B0F0BD0B2254
:10DBF0003007000F032830D21A4980000968401806
:10DC000000693146FDF71EFC040026D00298207101
:10DC1000E780049820720A9860722046251D06222B
:10DC20000A300B99F6F776FA284606220C300C9942
:10DC3000F6F770FA2846062212300D99F6F76AFABE
:10DC40000E9828830F9868831098A8831198A87756
:10DC500021463046FDF750FCC6E70720C5E7000027
:10DC60004C0500203C050020FFB50646052381B089
:10DC70001746C00603D50522BF20064009E01B4811
:10DC800000686030017C89062BD5407EC00728D013
:10DC900003223007000F032826D2154980000968A7
:10DCA000401800693146FDF7CDFB04001CD00298F6
:10DCB0002071E780049820720A9860722046251D22
:10DCC00006220A300B99F6F725FA0C98A8810D98D0
:10DCD000E8810E9828820F98A87421463046FDF7F7
:10DCE0000BFC002005B0F0BD0720FBE74C05002031
:10DCF0003C05002010B5FAF7DFFD0B218901401823
:10DD0000407D10BD828E816C0A3251430901090C9D
:10DD1000054A4B1D934200D31A46FF300130028062
:10DD20004180012101717047B80B0000F3B5FDF788
:10DD300011FA0746C537002319461A464418C0345D
:10DD4000491CC9B262712529F8D3002200210DE0D7
:10DD5000019D0126AD5C8E403540CD4002D0FC5483
:10DD60005B1CDBB2491CC9B2082903D2D400641879
:10DD7000252CEDD3521CD2B2052AE7D3C030037153
:10DD8000FCBD0000FEB513460C46FDF7E3F9054661
:10DD9000C03006795C400021FF220232204610404C
:10DDA000E7091740C00138435200274617407F015A
:10DDB0003843670917403843520027461740FF0091
:10DDC0003843E708174038432746520017407F0082
:10DDD000640838431440204302011018C018491C3D
:10DDE000C9B284B20329D7D35C40204602F0F8FCC4
:10DDF000294620314B7F502253431E4A9B189C4694
:10DE00009B681F0C6B461F7063469B681F0E6B461A
:10DE10005F704B7F50277B439B18DF686B469F707A
:10DE20004B7F50277B439B18DB681F0A6B46DF70D4
:10DE3000497F502359438918C9686B468902890E66
:10DE40001971C108CB006A46C31A5B07515C5B0FAE
:10DE500001229A4011420BD130466043000C002E43
:10DE600003D03146F4F7F6FA08462818C030407956
:10DE7000FEBD00000001002070B5FDF76BF93D21EB
:10DE8000095C502251430D4A8918CA6DC96D52016F
:10DE9000520F044649004D0F8034618D104602F048
:10DEA000ADFC0646A18D284602F0A8FC218E80B26A
:10DEB000884200D308463018B93070BD8000002079
:10DEC000F8B51C4615460E460C9FFFF781FCC66050
:10DED00007990160069944608160C574089941758D
:10DEE000099981750A99C1610B99476201620D997F
:10DEF0008162F8BDF0B4040C8BB2264682B25E4358
:10DF00000D0C1046370C5843360480190021794116
:10DF100016466E43370C36048019794126466E4307
:10DF20008919F0BC7047000070B50C4C054620689C
:10DF300005218030C06DC901401840698047002824
:10DF400001D00C2070BDF5F730FB20681321803024
:10DF5000C06D490140180572002070BD4C050020BD
:10DF600070B52F4C0646206805218030C06DC90170
:10DF70004018C06984B08047012835D0F5F715FBFB
:10DF8000256813228035E96D5201891801208872B5
:10DF9000002003900722314602A8F3F7B7F9E86D95
:10DFA00015256D014119FF30FF3002304978806D31
:10DFB00001AB02AA00F025FB012818D0FF2103982D
:10DFC000090608430390206802AA8030C06D4119F9
:10DFD000FF30FF3002304978806DFCF7FFF9694669
:10DFE0000871FF2818D012E00C2004B070BD206822
:10DFF00001238030C06DDB07FF30FF300230816DC0
:10E0000068460079C000001D0A581A430A50F5F707
:10E01000CCFA002004B070BD072004B070BD000031
:10E020004C0500207FB500240094019402940394D1
:10E030000D786C462570497861701178A17051781F
:10E04000E1701A46694602F0F7FB7FBDF0B5DB4C84
:10E05000064620688FB08030C16D0520C0010818C9
:10E0600040698047002802D00C200FB0F0BDF5F7C2
:10E070009CFA276813228037F96D52018918012014
:10E0800048721522F96D52018A18D378FF250020B5
:10E09000002B0ED9FF31FF310231C96D28224243D6
:10E0A0008A1820321279002A2AD0401CC0B283423A
:10E0B000F4D8002005900722314604A8F3F726F98A
:10E0C000F86D15277F01C119FF30FF300230497804
:10E0D000406D02AB04AA00F094FA079020688030EB
:10E0E000C16D952080004058C91949780127CA069A
:10E0F000D20E9740FCF72CF9B84203D1012002E080
:10E100000546D6E700200799012904D0002865D0EC
:10E1100007200FB0F0BD20688030C26D6846FF3226
:10E12000FF32077A0232F800536D001D19588446F9
:10E130004800400E7F2837D0D16D28225043054635
:10E1400048191022F11DF3F7E1F8206829468030C4
:10E15000C06D1031FF30FF300230C06D102240180A
:10E1600031461731F3F7D2F8FCF7E9F821682A466F
:10E170008031C96D2032FF31FF310231C96D8850C5
:10E1800020688030C06DFF30FF300230C16D901DBF
:10E190000F542168FF208031C96DFF31FF310231FA
:10E1A000C96D2735485543E07F200006814360460E
:10E1B000195020686B468030C06DFF30FF30023050
:10E1C000426D187A2B06C0001943001D11506B4692
:10E1D000E8B21A7A314602F035FB29E020681521B1
:10E1E0008030C06D49014118FF30FF30023049785E
:10E1F000406D04AAFCF7F2F8024620682F06803032
:10E20000C06DFF30FF300230436DD000001D195843
:10E210000902090A1950236839438033DB6DFF3343
:10E22000FF3302335B6D1950E8B2314602F00AFB4E
:10E23000F5F7BBF91022F11D0AA8F5F76BFF20686E
:10E2400015258030C06D6D014119FF30FF3002305F
:10E250008978406EFCF77CF80890002168460172CE
:10E260000898814279D20020059021686846803163
:10E27000C96D007AFF31FF3140060231496E850DCC
:10E28000491904A8FCF7B6FA00230AA8059A0499CC
:10E29000FCF776F800287DD1206899218030C06D88
:10E2A00089000F582D1D795904AA49004E0E1521D9
:10E2B0004901401880780090014603AB384600F0D1
:10E2C000A0F9012805D16846027B38460099FCF781
:10E2D0003FF920688030C16D0A46FF31FF310231BD
:10E2E000486E43591B0E1D0638D41521490151189B
:10E2F00007968978FCF72CF8002824D000222368A0
:10E3000051068033DB6DFF33FF3302335E6E8B0DBE
:10E310001B1DF558290E0F0610D4079FB9420DD9C1
:10E320002D022D0AF55026688036F66DFF36FF3631
:10E330000236491E766E09060D43F550401E521CEA
:10E340000006000EDBD120688030C16D0520C001C1
:10E350000918087C401E087408E02CE05806400E9E
:10E360002823FF22C96D584327300A542168803181
:10E37000CA6DFF32FF320232536E106E1366CA6DE1
:10E38000FF32FF3202325066C96D152252018A18DF
:10E39000127900E006E0FF31FF310231D200096E50
:10E3A000F2F79AFF6946087A401CC0B208720899D1
:10E3B000884200D257E700200FB0F0BD4C05002086
:10E3C000F0B5324E0521306800248030C06DC9019F
:10E3D0004018C06985B08047002802D00C2005B0E5
:10E3E000F0BDF5F7E2F8306813238030C26D5B01B1
:10E3F0000121D2189172C06D15277F01C11949788A
:10E40000FF30FF30C9060230C90E806DFBF7A0FF58
:10E410000025009000281AD91C4864060268640E82
:10E420008032D06DFF30FF300230866DE000011D7C
:10E4300073585F007F0E7F2F0ED058004008641C79
:10E440007050E4B26D1C0098EDB28542E4D3F5F74C
:10E45000ACF8002005B0F0BD0393D16D4B22D20083
:10E46000565802AA305802901520400108184778E3
:10E4700001AB3946304600F0C4F80128E2D16846C5
:10E48000027939463046FCF763F8DBE74C0500209B
:10E49000F0B5002083B0284E054601903068052174
:10E4A0008030C06DC901401840698047002802D003
:10E4B0000C2003B0F0BDF5F778F8306813238030F6
:10E4C000C26D5B010121D2185172C06D15277F0109
:10E4D000C119FF30FF3002304978406DFBF738FF3B
:10E4E00000240090002819D913486A060068520ECB
:10E4F0008030C66D952080008059D3001B1DC15807
:10E50000CF0F12D0FF22120611436D1C6D06C150B1
:10E510006D0E641C0098E4B28442E5D3F5F749F827
:10E52000F5F743F8019803B0F0BD152149017118C2
:10E530004978FCF70DF8ECE74C05002038B50D469E
:10E540001102090A03225207036893624368D362E7
:10E5500083681363C068506391630020D063084CE4
:10E560002060606002F0E2F969460870A068290A3C
:10E5700000020902884201D1002038BD012038BDC7
:10E5800040000060F0B50F46B5B01546002130AA36
:10E590000F23445C5E1A491C94551029F9DB1022A4
:10E5A000694630A802F0DCF90026B400E019401CEE
:10E5B000FBF762FD395D000208430321891B8900D6
:10E5C0002CAC761C6050042EEFDB214610236A46EB
:10E5D000084602F0E1F900200326311A8900635C45
:10E5E0008200AB54635A52191B0A53706358401C83
:10E5F0001B0C93706158090ED1700428EDDB35B007
:10E60000F0BDF0B4CC06E40E0121A14014685268BC
:10E61000A44614020D46EA00083A8658EA00083A71
:10E6200012185268491E1502AC4203D3AC4205D100
:10E63000B44503D201250029ECD100E00025481C97
:10E640001870002D03D0002901D10020187010028D
:10E65000844207D1B44505D11878401E1870F0BC2B
:10E6600001207047F0BC00207047000010B5044640
:10E67000006886B00168032040078162216849680C
:10E68000C1622168896801632168C9684163616862
:10E69000096881630021C1630A480160416002F09A
:10E6A00045F9694608740749102208316846F5F7AC
:10E6B00031FD04226946A068F5F72CFD0120207386
:10E6C00006B010BD4000006010B50120C046C0B2C9
:10E6D00010BD10B50120C046C0B210BDF3B5194938
:10E6E00000250C6881B0283481070DD0617800299D
:10E6F00000D0D1250527FF02012801D0022600E025
:10E700000126002D02D01BE020260027F9F7CCFDC2
:10E710000299F4F7E0FE050012D121780120F4F708
:10E7200070FF05000CD12034E07C3043E074202ED3
:10E7300006D004483B46012202210068FEF769FE2C
:10E740002846FEBD38050020FFB50646264885B0A0
:10E7500004680F4628342546F9F7A6FD02900020EC
:10E76000203401902075B0090CD0E07CC006800FE9
:10E7700005D000210846F4F744FF00281ED1009779
:10E78000019B03E0700707D501230097029A0799C0
:10E790000898F4F799FE1EE0F006800F21D0F006ED
:10E7A00004D56878012801D0032806D1300707D5A1
:10E7B0006878002804D0022802D0D12009B0F0BD2A
:10E7C000F9F772FD3946F4F786FE0028F6D129786C
:10E7D0000120F4F716FF0028F0D1E17C3143E17409
:10E7E000ECE71220EAE700003805002010B502F03F
:10E7F00005FA10BD70B500281CD003050F480E4A5D
:10E8000000681268203000211B0D047D80320FE06B
:10E8100008467C267043956A0830285A0005000D8A
:10E82000984203D17C225143681870BD491CC9B27B
:10E830008C42EDD8002070BD54050020300500202A
:10E8400070B50F4D06460024286806228030C16A44
:10E85000E000801C08183146F5F76CFC002805D054
:10E86000641CE4B2032CEFD3812070BD2868E10062
:10E870008030C06A405C0006F6D5002070BD000004
:10E8800054050020F8B50D460D49521E09680024B4
:10E890000E681F210A431D3297B2394602F008FA6A
:10E8A00000280AD13946F06802F028FA04460834F4
:10E8B0000068A0600020E074A5802046F8BD00003C
:10E8C00050050020C007C907C00F490F0843D107F2
:10E8D000090F0843D907C90E0843704770B50446AD
:10E8E0000C480025006806228030006BA11C467889
:10E8F000801CF5F71FFC002809D16078C007C00F05
:10E90000B04204D1207E0121084320760D462846DE
:10E9100070BD000054050020F0B50724059E069D3B
:10E92000C480846844272173094C81682468D20715
:10E930003F5D4F738168D20F8A7381682034CB7337
:10E940008168E27E0A7481684E7480688574F0BDC7
:10E950005405002070B50D4606460146062001F01C
:10E960004FF8040005D000213046FDF78FFB20460C
:10E9700070BD288900F076F902460021024B084656
:10E9800000F092F9F3E7000030750000F8B5891E39
:10E99000CDB20646A81C03210843401C8308174635
:10E9A000F00603D52522BF20064008E01348006882
:10E9B00080304078000601D40020F8BD22223007C4
:10E9C000000F032818D20E4980000968401800691A
:10E9D0003146FCF737FD04000ED039782171797883
:10E9E0006171A5712A46B91CE01DF5F793FB21461C
:10E9F0003046FCF781FDDFE70720F8BD4C0500201D
:10EA00003C05002070B50446002003460B4E0C4D1B
:10EA10000EE01846FCF79EFBC08EA04205D1B44222
:10EA200003D01846FCF796FB70BD00205B1CDBB2E0
:10EA300029682031097D9942EBD870BDFFFF0000A5
:10EA40003005002010B502F075F90078C007C00F3E
:10EA500010BD10B50C46FCF77DFBA10008188030F6
:10EA6000406910BD10B502F065F90178102211431C
:10EA7000017010BD10B50C4602F063F90078002C4F
:10EA800002D00007C00F10BDC006FBE7F8B51E4658
:10EA90000D4607461446FCF75DFB4019A030047094
:10EAA0002946384602F046F90178DF221140F20784
:10EAB000920E1143012211430170F8BDF0B59BB0D5
:10EAC00015460E4604463C2200216846F5F728FB11
:10EAD0001022314604A8F5F71DFBE07F494E0228BD
:10EAE00002D0032806D00BE03068C16B684600F006
:10EAF0009DF805E03168102268464831F5F70AFBB9
:10EB0000012108A8017031680A4640310979417035
:10EB1000207E1346C107C90F08A88170A033D97D94
:10EB2000C1702032D17E01710721417181710221B2
:10EB3000C171617E0172207E8007C10F08A84172F9
:10EB4000197D8172217FC172597D0173997D417355
:10EB50000BA902310F300E46189002F0F7F86078DA
:10EB60000622C107C90F08A841751630A11C074627
:10EB7000F5F7D0FA11A809A9072201300331F5F7FA
:10EB8000C9FA0FAC0722A01C08A9F5F7C3FA0122A5
:10EB9000601CE11FF5F7BEFA012231460FA8F5F718
:10EBA000B9FA0020694613AE0A18127C235C5A4059
:10EBB0003254401CC0B21028F6D32A46314668466B
:10EBC00001F03AFE102200210FA8F5F7A9FA06225B
:10EBD000A01D1899F5F79EFA062239460FA8F5F7F9
:10EBE00099FA0020295C225C51403154401CC0B28B
:10EBF0001028F7D32A4613A9684601F01DFE1BB062
:10EC0000F0BD00005405002010B51C4613460A460E
:10EC10008068214602F0BEF810BD10B51C461346B0
:10EC20000A468068214602F0E9F810BD01700A0A20
:10EC300042700A0C8270090EC17070477FB516468B
:10EC400004461D46082202A8F5F764FA0822314658
:10EC50006846F5F75FFA2A466946204601F0ECFD62
:10EC60007FBD000030B501460D4800682030007DB2
:10EC70000029024613D00B4B0C0519680020240D07
:10EC800080310AE07C2343438D6A0833EB5A1B052D
:10EC90001B0DA34203D0401CC0B28242F2D830BD4B
:10ECA000300500205405002070B50024064620469B
:10ECB000002900D103240A490D681035002E07D021
:10ECC000012E04D1A018C1B22846FEF716FC70BD73
:10ECD000A018C1B201222846FEF79BFB70BD0000C0
:10ECE000540500200146896800204A7B042A05D883
:10ECF0008A7B012A02D8CA7B920701D50A20704775
:10ED0000054A097C12682032927E914201D3102973
:10ED1000F5D90620704700005405002010B5826820
:10ED2000527B4A768268927B012A03D10A7E0223B3
:10ED30001A430A761A4B82681B68D27BA0331A7575
:10ED40008468647C5C758468A47C9C758B7ED40725
:10ED5000E40F23438B76CB7E042422401343CB76EF
:10ED60008268127C0A777422525CD20712D08B7FA1
:10ED70000522DC08E4008C7783689B7C5B075B0FD3
:10ED800023438B7780680830801800794007400F54
:10ED9000487710BD836806225B7C5B075B0FF0E75A
:10EDA00054050020F8B50446002502F059F88628DD
:10EDB00003D0E07F022802D023E0E57F21E0144861
:10EDC00000684030007800281DD020890226070501
:10EDD00010483F0D006801238030407840070CD573
:10EDE0000D481D22006831468069FCF72BFB0100AD
:10EDF00003D08F803046FCF77FFBE07EEF21084098
:10EE0000E0762846F8BDE07E10210843F8E70000D0
:10EE1000540500204C0500203C050020884200D805
:10EE20000846704710B5044600881B38E12807D211
:10EE300060880E4A904203D8FF224932904201D2A4
:10EE4000122010BD00290ED0FCF750F9014622888F
:10EE5000008C824200D2104620806088498C884213
:10EE600000D308466080002010BD000090420000E2
:10EE7000F3B581B00198FCF76DF9054601210198C1
:10EE8000FFF7E0FD002801D03A20FEBDFCF72EF987
:10EE90000746C68C01210198FFF7DBFD04460120DF
:10EEA000C046012820D1FF200730405B010568469D
:10EEB000408900900FD50198FCF75CF9002813D029
:10EEC0008079042810D1A92109010098FFF7A6FF35
:10EED0006946488108E0124902F016F869464881FF
:10EEE0000F48864200D3064668460189A1804089C2
:10EEF000E080BA8C2280668080356A8E2283AA8E5A
:10EF000062836986A88601210198FFF7ABFD002383
:10EF1000062201210198FFF7B9FD0020FEBD000087
:10EF200048080000F0B54488491CA4B2E5B2A40822
:10EF300009B21C808EB287883619BE4204D9A6B2A7
:10EF4000891B6D1C09B2EDB2A400241808341460AA
:10EF50001C88AD076418A400AD0F2C43A4B21C801C
:10EF60000388E31A9C07A40F012C02D803D1002BBD
:10EF700001DD00230AE00123002907DA11688C78FB
:10EF8000A408A400641C8C70083010601846F0BD02
:10EF900070B5184D90B02878002802D0012010B02C
:10EFA00070BD6E460024FBF7CAF9A100641C7050C6
:10EFB000082CF8DB6946012001F0AAFF0128F1D0F6
:10EFC00020220D496846F2F787F90B4920222031AB
:10EFD00008A8F2F781F96946022001F099FF08A913
:10EFE000032001F095FF01F097FF01202870002019
:10EFF000D5E700007B050020340E061070B51C46D6
:10F000001546002908D1008920220105090D00209C
:10F01000FFF738FC010009D00220C880886805731A
:10F0200088684473062000F0EBFC70BD882070BD3A
:10F030007CB504460D460089FFF714FE0246144BCA
:10F0400000210120FFF730FE20890005000D01F0AE
:10F050006FFF0220694600940871684601F084FF42
:10F060002046042200210C30F5F75AF8E07E2F21CB
:10F070000840E076204601F093FFFB20A072208933
:10F0800002220105090D2B46104602F003F87CBD53
:10F090003075000070B500241D461646002804D0C7
:10F0A000FFF71CFC002802D003E0002901D08224D5
:10F0B0000BE00948002E0AD0012E08D0022EF6D10E
:10F0C00000688030006B18302860204670BD0068F2
:10F0D0008030006B0830F7E754050020F0B59BB096
:10F0E00015460E4604463C2200216846F5F718F8FE
:10F0F0001022314604A8F5F70DF8E07F4C4E0228A7
:10F1000002D0032806D00BE03068C16B6846FFF7D9
:10F110008DFD05E03168102268464831F4F7FAFFAA
:10F12000012008A90870607E4870207E8007C00F0B
:10F13000887030680146A0310A460B7D08A9CB7063
:10F14000237F0B71537D4B71937D8B710223CB71A8
:10F1500044210B5C08A90B72217E2030CB07DB0F0A
:10F1600008A94B72D27D8A72C07EC872607F400748
:10F17000400F0873A07F4007400F48731531481CAB
:10F180000E46189001F0E2FD607808A9C007C00F94
:10F1900088730BA803300622A11C0746F4F7BAFFB8
:10F1A00011A809A9072201300331F4F7B3FF0FAC0E
:10F1B0000722A01C08A9F4F7ADFF01223146601C0C
:10F1C000F4F7A8FF0BA901220FA80231F4F7A2FF60
:10F1D0000020694613AE0A18127C235C5A40325450
:10F1E000401CC0B21028F6D32A463146684601F0CA
:10F1F00023FB102200210FA8F4F792FF06223946C4
:10F20000A01DF4F787FF06220FA81899F4F782FFD4
:10F210000021685C625C50407054491CC9B21029DE
:10F22000F7D32A4613A9684601F006FB1BB0F0BDD0
:10F2300054050020002A2DD010B45408002B15D0FE
:10F240008018491ED20703D04A78401E0270491C1C
:10F25000002C09D002464B78203AD3778A78801E5A
:10F26000891C0270641EF5D110BC7047401E491EF7
:10F27000D20703D04A784270401C491C002CF3D0BE
:10F280004A7842708A788270801C891C641EF7D18B
:10F2900010BC7047704770B5BAB0054600200C46E8
:10F2A000009020206946087210200A9038901E466F
:10F2B000039201A801F01EFF2246294601A801F091
:10F2C00033FF6A46314601A802F070F83AB070BDCB
:10F2D000F7B5074617481646006804688120002FD6
:10F2E00011D0384602F098F80546B0420CD2301AD8
:10F2F00081B2019801F0DCFC002804D13246394685
:10F30000E06802F095F8FEBD32463946E06802F04A
:10F310008FF86D1E761E69097209891A72B6019AF4
:10F320009200A35A5B1AA35222895118218162B616
:10F33000FEBD00005005002070B504466030407DE1
:10F34000049E1D4608701346214606227631184653
:10F35000F4F7E0FE60780622C007C00F2870A11CF9
:10F360003046F4F7D7FE70BDFFB5A3B00F46054693
:10F370001C46382225A16846309EF1F7ADFF0123D7
:10F38000202229460EA8FFF755FF16AB2D4A202153
:10F390000EA8FFF780FF01A8012310223946013093
:10F3A000FFF748FF05A80123102201302599FFF738
:10F3B00041FF08A8447101230622801D2C99FFF704
:10F3C00039FF08A82D990173012306220D302E99CB
:10F3D000FFF730FF1AAB16AA35216846FFF75BFF2F
:10F3E000012310221AA92F98FFF724FF0121684654
:10F3F00001701EAB16AA3521FFF74DFF0123102225
:10F400001EA93046FFF716FF27B0F0BD0062746CEE
:10F410006500000000000000000000000000000087
:10F4200000000000000000000000000000000000DC
:10F4300000000000000000000000000000000001CB
:10F4400000000000181D0610F7B594B00D46002707
:10F4500008A90F7204460F731022394606A8F4F764
:10F460005FFEE07F444E022809D130686946C06BD8
:10F470000876020A4A76020C8A76000EC876012DBA
:10F480000ED03068627E0146A0314A75227E920716
:10F49000D20F8A750A7DCA75E17F03291AD01FE051
:10F4A00030684421095CA0304175217EC907C90F2D
:10F4B0008175E07F032813D12046FFF70FFA00285B
:10F4C0000ED00EAB012200212046FFF7E3FD1022F3
:10F4D0000E9902E010220146483106A8F4F71AFE00
:10F4E0007420025D21462046D30754316430002B3E
:10F4F00002D0002D0AD001E0012D07D0D3072B4305
:10F5000007D0D30710D0012D03D00DE00D910C9042
:10F5100001E00C910D90012D08D0D00728430BD0AD
:10F52000D00701D0002D07D0862722E011A80BAB11
:10F530000FAA0AA9009004E00FA80AAB11AA0BA910
:10F5400000902046FFF7F8FE08AA107B0FAA169B32
:10F55000029211A903AC0BC4306808AA127A0146C2
:10F56000B5310192009106ABFC300C9A0D9901F077
:10F57000ADFF384617B0F0BD5405002070B5054604
:10F58000008920220105090D0020FFF77BF9040006
:10F5900019D01120E080A0680D2101730D481022C0
:10F5A00003680521FF3320460D33FFF72DFB742040
:10F5B000405DC00709D0BC2629462046FFF7CAF99E
:10F5C000002804D004E0882070BDAB26F4E7AE72BA
:10F5D000002070BD5405002070B51C4C0646226802
:10F5E0006420805C002590B0800701D53A2522E098
:10F5F00020210020A832FCF71DF9002801D01F258A
:10F6000019E0402231466846F4F784FD2068022361
:10F61000014660310A79A8301A430A71694601F03F
:10F6200097FF01280AD072B6094800688178490618
:10F63000490E817062B6284610B070BD2068122550
:10F6400060300179FD2211400171F4E74C05002082
:10F650003405002010B5074909684B6B2C2148433D
:10F66000014612315A5A891F2630595A185A01F048
:10F670009BFF10BD44050020F3B581B00198FCF755
:10F68000ABFF054601990298FCF7C8FE002D07D094
:10F690002979002916D0A9784907890F12D101E0EC
:10F6A0008020FEBD35498978814201D88220FEBD87
:10F6B00033492C2209680646496B5643F71CC85D3E
:10F6C000112801D08520FEBD202200200199FFF7DE
:10F6D000D9F804002CD0A06806210173A06829790C
:10F6E0004173A06804218173A0680021C17324497B
:10F6F000A06809680E364A6B925D0274496BA06877
:10F70000895B090A4174A068029981740299A06812
:10F71000090AC1740820E0802146052000F070F934
:10F72000002807D000212046FCF7B0FC8120FEBD58
:10F730008820FEBDA97806200143A970A871287908
:10F740000F4CE8712168D020496B0022C855102069
:10F75000029B0199FCF784FE20680022406B01990E
:10F76000835B2020FCF77CFE20680021406B825BDD
:10F770000198FCF7A7FE0020FEBD0000A0070020B6
:10F7800044050020F7B50446FCF726FF064621464F
:10F790000298FCF743FE0546002E09D0B078810799
:10F7A00004D4400702D5B079062803D08520FEBDD9
:10F7B0008020FEBD7179019881420DD12548807865
:10F7C000A84209D924482F460068416B2C204743A2
:10F7D000F81C085CD02801D08220FEBD20222146E2
:10F7E0000020FFF74FF804002AD01B480E370068AE
:10F7F0000722406BC15BA0680273A068019A427344
:10F80000A06804228273A0680022C273A068029AD2
:10F810000274029AA068120A4274A0688174A068F7
:10F82000090AC1740820E0802146052000F0E8F8AC
:10F83000002807D000212046FCF728FC8120FEBDCF
:10F840008820FEBD304600F001F92846FCF768FD2F
:10F850000020FEBDA007002044050020FFB587B0B2
:10F860001F460546FCF7B8FE064629460898FCF7F1
:10F87000D5FD0446002E08D042488078A04201D928
:10F88000012F04D982200BB0F0BD8020FBE7204679
:10F89000FFF7E0FE00903079002809D03A482C218B
:10F8A00000684C43406B0394E41C005D112801D0B8
:10F8B0008520E8E7002F05D100990998884201D9F1
:10F8C0008620E0E7202229460020FEF7DBFF040027
:10F8D00005D00025002F04D0012F04D03DE0882062
:10F8E000D1E7099D08E028480068416B03981A3069
:10F8F000095A0098401A85B2002D2ED0A068162112
:10F900000173A06831794173A06804218173A068F4
:10F910000021C173A068089901740899A068090AB8
:10F920004174A068290A8574A068C1740820E08029
:10F930002146052000F064F8002805D0002120466B
:10F94000FCF7A4FB81209EE73079401C0006000EE6
:10F95000307106D10120307103E000212046FCF710
:10F9600095FB094801684A6B0399183157540068A0
:10F97000426B03981A30115A49191152109801809C
:10F98000002080E7A00700204405002010B5806813
:10F9900000F011F810BD10B5002101828174826859
:10F9A00082614261016001F029FE842801D081203A
:10F9B00010BD002010BD0021002804D0491C0068A3
:10F9C00089B20028FAD108467047002917D072B6CC
:10F9D0000288002A03D0436892009A58116010B43C
:10F9E00000238B800288521C92B2028044689200ED
:10F9F000A15009680029F4D162B610BC7047704765
:10FA000010B50C460146042805D0052903D0062967
:10FA100001D0A02010BDA068A2790272E088020A7D
:10FA2000A0684272A0688172A068090AC172E08869
:10FA3000001DE080022020732046FFF7ACFF002865
:10FA4000E8D0E088001FE080812010BD817802228C
:10FA50001143FB221140817000218171704710B564
:10FA600004460068884209D10268226000220260D0
:10FA7000206800280BD1626009E0104602688A42C3
:10FA8000FBD10A68026062688A4200D16060084661
:10FA9000FFF77CFFE189081AE081A089401EA08160
:10FAA00010BD80B5012001F039FE01BD08B500216F
:10FAB0000B460091014626220220F1F7FFFC0028A8
:10FAC00000D0812008BD10B501F032FE002803D11E
:10FAD00001F044FE002801D0002010BD01F04CFED2
:10FAE000012010BD10B501F05FFE0549884201D12B
:10FAF000002010BD0349C0000968C96E081810BD78
:10FB0000FFFF00004005002010B501F065FE074929
:10FB100068220968401C525A80B2824203D9C96ED9
:10FB2000C000081810BD002010BD000040050020D6
:10FB300010B50A490A686821895A0BE0CB00D46ED7
:10FB4000083BE35C834203D1C8000838201810BD8D
:10FB5000491E89B20029F1D1002010BD40050020C6
:10FB6000054801686820405A002803D0C96EC000CB
:10FB7000801F085A7047000040050020FFB51D4C4B
:10FB800081B0206817464030068D408D86422ED2C7
:10FB9000002916D0084601F01FFE401C86B22068DE
:10FBA0004030058D0BE02068C26EE8000346083B3C
:10FBB000D11810180822F4F7ADFA6D1EADB2B54297
:10FBC000F1D220680199C26EF000115422680499A4
:10FBD000D36E021D99502168801CC96E0F52206897
:10FBE0004030018D491C0185384605B0F0BD00202C
:10FBF000FBE700004005002010B50446FFF763FF57
:10FC0000002809D0204600F04FF8002802D00178E3
:10FC1000002903D0822010BD852010BD01F0F0FD29
:10FC20000146204601F0F2FD0448022200686030DF
:10FC3000017911430171002010BD00004005002032
:10FC400010B501F027FE002800D0408810BD00004C
:10FC500010B504001FD0207D102802D080281AD1B2
:10FC600011E0208A0E4988420DD1206A002812D066
:10FC70000C498288C97AC908491C8A420BD380681A
:10FC80000021F4F74DFAA0782421084205D06078CD
:10FC9000C01F0A2801D3822010BD002010BD000023
:10FCA000292B00008007002010B501F005FE054952
:10FCB000884201D1002010BD0349C0000968C96E07
:10FCC000081810BDFFFF00004005002070B50D466C
:10FCD000044600F014F86168C98A002908D06288D7
:10FCE000801A081A401E80B2A84206D2852070BD34
:10FCF0000020FFF71DFF8442F8D1002070BD10B531
:10FD00000178002903D0022901D0408810BD01F0FC
:10FD100077FD10BD70B50E460446FFF7D4FE0028EF
:10FD20000ED0204601F0DEFD002808D13046FFF756
:10FD3000BBFF050002D02878022803D0822070BDC6
:10FD4000852070BD3146002001F002FE002815D04C
:10FD50000121FFF7BBFF0028F3D12846FFF7CFFFB3
:10FD60000546FFF7A1FF01466D1CAAB223460420F9
:10FD7000FFF704FFA84203D0872070BD862070BD26
:10FD8000207D102809D1208A0849884205D1A06920
:10FD9000002182888068F4F7C3F9054802220068D0
:10FDA0006030017911430171002070BD022900000B
:10FDB0004005002010B50446FFF785FE002809D055
:10FDC0002046FFF771FF002802D00178022903D0F6
:10FDD000822010BD852010BD01F012FD0146204695
:10FDE00001F014FD044802220068603001791143DB
:10FDF0000171002010BD00004005002001460548AB
:10FE00000068406D03E042888A4202D0006A002800
:10FE1000F9D17047400500201FB50446694601F03E
:10FE2000ADFD002808D16846FCF720FF002803D16B
:10FE3000217804221143217004B010BD0749024605
:10FE400009680020C96A05E0CB88934201D10846C1
:10FE50007047C9680029F7D17047000040050020AD
:10FE6000F0B505780024102D3BD00DDCAD1E032627
:10FE700005272B00FAF786FD0D1E162016221625E3
:10FE8000161E1620162D16001E2D42D006DC122D31
:10FE900030D0162D38D0182D04D138E0522D29D06D
:10FEA000D22D27D086241088884200D201461180A6
:10FEB0002046F0BD1680F6E71780F4E74089C01DA4
:10FEC00016E0072313808068007C8028EBD1152082
:10FED0000EE000794000401C10808842E3D9862063
:10FEE000F0BD072313808068007C8028DBD11120BF
:10FEF0001080D8E7C388DB1C9BB213800078D2281F
:10FF0000D1D10C331380CEE70089401DF0E70220E9
:10FF1000EEE70120ECE70000FFB581B00C469868E1
:10FF20000A9E0978017320781D46174610287BD059
:10FF30000BDC801E0300FAF725FD0D17AB1FAB2667
:10FF4000AB42AB57AB5FAB6EAB001E287DD006DC7F
:10FF5000122808D0162879D0182876D1AFE0522878
:10FF600079D0D22871D176E0A868022256490D30A6
:10FF7000F4F7D0F803208AE02846E288A18801F04F
:10FF80009FFD052083E0E288A188284601F098FDC6
:10FF9000A8682146022208311130F4F7BBF86089C5
:10FFA000C11DB94201D9384600E0C01DC01F82B250
:10FFB0000B212846E368FEF727FE072067E0E2886A
:10FFC000A188284601F07CFDA368187C802807D012
:10FFD0000222092128460C33FEF716FE092056E0BE
:10FFE000102209212846F7E7A8680222211D0D30BA
:10FFF000F4F790F80B204AE0A8680222211D0D308A
:020000041005E5
:10000000F4F788F8A8680222A11D0F30F4F782F8EF
:100010000D203CE008E0217928464A000521A3682C
:10002000FEF7F2FD0F2032E0E288A188184601F0C9
:1000300047FDA368187C802809D0022209212846A0
:100040000C33FEF7E1FD112021E021E023E0102236
:1000500009212846F5E7A8680222211D0D30F4F792
:1000600059F8E28807212846A368FEF7CDFD2078DD
:10007000D22802D0122809D00AE038460C38E8808D
:1000800001982946C08801F02AFD01E01320307054
:10009000EF8005B0F0BDA8680222211D0D30F4F7F5
:1000A00039F8A8680222A11D0F30F4F733F822892D
:1000B00009212846E368FEF7A7FD1720E7E7A868AF
:1000C000217941731920E2E78E07002010B504461C
:1000D000084601F032FD80000019C1B20448034B0C
:1000E00000220068FDF795F910BD00003075000092
:1000F0004005002010B5C2880446121D002180680A
:1001000092B2FFF7E5F821460420FFF779FC0028BA
:1001100005D00348214600689C30FCF797FA10BDD3
:100120004005002010B50446084601F006FD800099
:100130000019C1B202480068FDF7DFF910BD0000E8
:100140004005002030B58BB0044614220F496846A4
:10015000F1F7C2F820780025022801D0032812D137
:100160002046FFF7D1FC041E0DD0207802280AD0CB
:1001700005A9204601F0EAFC05A9684601F00CFD3E
:100180000028EDD1254628460BB030BD58F60510A5
:10019000F7B50026077815463446324602213B0063
:1001A000FAF7F0FB050404041A061E0002240AE014
:1001B000406803788278DE0700D002249B0701D5CF
:1001C0004C231C434678012D0CD0032D0ED0042D5A
:1001D0000ED0052D0ED012E0406882780478F1E749
:1001E0000E20FEBDA0070AD40846FEBD200702E08F
:1001F000600700E06006002801DB0320FEBD3346F7
:100200002946019801F0DFFCFEBD10B50C4601F057
:1002100094FC616889698A888B68022101F008FD75
:1002200010BD091D8AB210B501460020FEF72AFB59
:1002300010BD38B50B460446C11C6A46184600F08E
:10024000CDF9032221466846F3F774FF002800D059
:10025000812038BDF7B5002782B0144605460C262C
:1002600023460022012138460096F1F742F9C11CCD
:100270000BD001270622611C0398F3F75BFF0028CF
:10028000EED12078A842EBD1002005B0F0BD0000EF
:10029000F0B5FF24054600230A4F0B4E0BE018462D
:1002A000FAF758FFC08EA84203D1BD4201D01C46C8
:1002B00006E05B1CDBB230682030007D9842EED84F
:1002C0002046F0BDFFFF00003005002010B501F012
:1002D000C2FC00788007C00F10BD10B50C46FAF7BD
:1002E00039FF80210C43A030847110BD8068007BF1
:1002F00070477FB51C461546410612D41E2810D003
:10030000002C0ED0A16801220A73A1680222487352
:10031000A06801A90E30F3F7FDFEA0680574052062
:10032000E0807FBD10B504468068002813D0C288E5
:100330000021121D806892B2FEF7CAFFA068FFF785
:10034000D9FEE1880020FFF7EDFE608840084000FC
:1003500060800020A06010BD70B5044600780028C1
:1003600011D16068FFF7C2FF6070A168886800283B
:1003700009D1606801F074FC050010D1606801F0DB
:10038000C1FC05000BD18625607801F0E7FC0E2842
:1003900005D2134980000958204688470546606801
:1003A000002809D00F4A882D0ED0072D0CD0842D9F
:1003B00010D00121FBF76AFE002D01D0862D02D15D
:1003C000A068FFF7AFFF70BD014610684430FCF72E
:1003D0003DF9F1E7014610683430FCF737F970BD9C
:1003E000780206104005002070B5F8F765FA01465E
:1003F000CB1D0B24FF220020F933A40109190C7D29
:100400000CE0FF2109315D68414369188031C98BD7
:10041000090B01D0024603E0401CC0B28442F0D870
:10042000104670BD70B504460546C034E07EF8F74E
:100430006BFEE07EF8F77AFEA07EF8F765FEA07E00
:10044000F8F774FE0021217161712C46E034607868
:10045000FF2801D000F0A7F9FF20607070BD0000F8
:10046000F8B504462746E037FF20264678708036E8
:10047000307EC00704D000F005F97870FF287DD0E9
:10048000F8F7F0FB2546C035A876FF28307E77D0F8
:10049000C00604D4F8F7E6FBE876FF2878D02046BB
:1004A0002C30E06410302065E87FC0077AD0E06C23
:1004B000E16E0160E06C216F4160E06CE16D816094
:1004C000E06C216EC160E87F02280AD32146002239
:1004D0005C31E06CF3F73DF8E06C00210830F3F795
:1004E0003CF8E06C8168206D8160E06C0168206DF3
:1004F0000160E06CC168206DC160E06C4168206DF6
:100500004160606F002804D0F1F7D3FA616F4118A1
:100510006167012027462871A037F87DFDF78BF928
:100520006877012000902346797EA87E1433224606
:10053000F8F7BCFBA87E5021484326494018C16DFE
:100540003F2212029143272212028918C165A87E18
:10055000502148431F498031401841682522090233
:10056000090A120689184160307EC006204620D450
:10057000F2F7BDFF1FE001E002E009E00C20F8BD4A
:10058000C00702D0787800F00EF90720F8BD09E026
:10059000307EC00702D0787800F005F9A87EF8F721
:1005A00091FDF2E70C4800220168E06CF8F7EAFDE3
:1005B00083E701F00FFCA87EE16FF8F7FBFEE06F28
:1005C000F8F7B8FB012802D0A87EF8F7C3FB00209B
:1005D000DCE70000800000203005002070B588B006
:1005E00016460C460546102200216846F3F798FD92
:1005F000032221466846F3F78DFD04AA6946284682
:1006000000F01AF9032204A93046F3F783FD08B07D
:1006100070BDF8B507460E4605460837F1F765FD8B
:10062000009129780446491DC840C008301A06B216
:10063000387B761E002802D03846F1F705FA2A7872
:100640003046F117083201F017FC009B02194B41AC
:100650003846F1F791F9C0B2F8BD10B542780024E0
:10066000914206D1017D0830002908D0F1F7ECF95C
:1006700005E0426A4900515EFFF7CBFF0446204681
:1006800010BD000010B5FF240020FAF763FD0E49ED
:10069000002309682031097D09E0FF2219325A43FD
:1006A00012182032127B002A05D05B1CDBB2994263
:1006B000F3D8204610BDFF221C46193253430121B6
:1006C000181820300173F4E730050020FEB50E46FF
:1006D0000346F8F7F1F81B01FF3071089C18093048
:1006E000012E0DD0D25A13028A0012188032936064
:1006F000638841181B0213610122FF3121318A7086
:100700000546FF352135E97904221143E971B1002D
:1007100001910F18BB6A2289A18860890E3301F00C
:10072000BDFBA87BFAF716FD0090A0884502304675
:1007300001F00EFCA189814200D2A081E1898142B1
:1007400000D2E081A1890320032900D2A081E189A0
:10075000032900D2E081E089009A01020198801803
:100760000165FF22284601F015FC0446F1F7A1F9C6
:1007700001462046631A0022DC0F0126744003D193
:10078000DB435B1C00E052199A42FCD3002C02D0E0
:10079000801A401900E08018884200D14019FF37C4
:1007A0000137B860FEBD00B5FAF7D4FC0021203057
:1007B000017300BD04480168A220085E0D21484372
:1007C0004030C011704700004C05002000E0801848
:1007D000431AFCD470470170090A41707047000049
:1007E000054925224143090C5143401A80B225286E
:1007F00000D32538C0B27047EB06000010B50128C1
:1008000014D004280AD0C90006280CD07031080280
:10081000FF3008490130F1F71DFE10BD88013D2170
:1008200009014118F3E7FF31C431F0E789003C3199
:10083000EDE700007102000010B50024FDF7A2FEF4
:10084000204610BDF7B5384E450630680F4680305B
:10085000C06D6D0EFF30FF300230C06D28212C4678
:100860004C430019FF22F0F7A3FE316828228031A3
:10087000C96D5543FF31FF310231C96D2A46002051
:10088000243288543068FF218030C06D2735FF3016
:10089000FF300230C06D1022415530680125803094
:1008A000C06DFF30FF300230C16D204624300D5442
:1008B0003068F91D8030C06DFF30FF300230C06DF0
:1008C0000019F0F723FD306810228030C06DFF3032
:1008D000FF300230C16D20461030081839461731FC
:1008E000F0F714FDF9F72BFD31688031C96DFF3148
:1008F000FF310231CA6D21462031505030688030BE
:10090000C06DFF30FF300230C16D204625300D54E0
:10091000316802988031C96DFF31FF310231C96DF4
:100920002634085503B0F0BD4C05002008B56420FE
:1009300069460870094881690122114381616A464C
:100940001178491E1170C169C907C917491C02D124
:1009500011780029F3D1107808BD00004000006034
:10096000F7B50298860800240DE00098A7003D180E
:100970002846F9F781FB00BA000AE978000208432B
:100980000199641CC851B442EFDB0199029A0846F0
:1009900001F0C6FBFEBD0000FFB5D908490083B0D9
:1009A000891D02910368116854684B40416895683D
:1009B00061408468C0686C40A446D4681E0E6040E4
:1009C0008B4CC5B2A65D655D3606354367460E02A3
:1009D0003F04360E3F0EA65DE75D36043F023E4300
:1009E0003543AE460F0EDDB2E75D665D3F063E4322
:1009F00065462F0205043F0E2D0EE75D655D3F0441
:100A00002D022F433E43CDB20096665D65462F0E04
:100A1000E75D1D043F063E4307023F0E2D0EE75DD6
:100A2000655D3F042D022F433E4301966546EDB2BE
:100A3000070E665DE75D0D043F063E431F023F0E55
:100A4000E75D2D0E645D3F0424022743029C3E4374
:100A5000641E10320294002C63DD664C7046204008
:100A6000430070466449C00908401B214843434085
:100A7000704658401821C841434070461021C84173
:100A8000434070460821C841434010685A4D4340D6
:100A90000098594F204041000098C00928401B256C
:100AA00068434140009818254840E841414000987B
:100AB0001025E841414000980825E8414140506830
:100AC000019D41400198ED0920403D4040001B2719
:100AD0007D436840019F05467D401827FD416840E1
:100AE000019D1027FD416840019D0827FD41684098
:100AF000956868408446304620403F4DF4092C40BC
:100B000040001B256C436040044674401825EC41AE
:100B1000604010243546E54108246840E6417040B5
:100B20004BE7334CC5B2665D1D0E645D240626435B
:100B30000C02250E2E4C645D65462D042F0E2C4DA7
:100B40002404ED5D2D022C432643294C0096DDB292
:100B5000655D0E0EA45D2406254364462402260E20
:100B6000234CA45D0604370E214E2404F65D3602A4
:100B700034432543AE461E4CCDB2645D65461C4EE3
:100B80002F0EF55D2D062C4305022F0EF55D1F047B
:100B90002E043D0E164F7F5D65463F023E433443B3
:100BA000EEB2134DAF5D050E1148405D00060743E0
:100BB0001802030E0E48C05C09040B0E0C49000419
:100BC000C95C93680902084307431068009E6340AC
:100BD0005168049C7040D268206075460498694052
:100BE000416004987A4083600498C26007B0F0BD09
:100BF000BCD305107F7F7F7F0101010110B58AB052
:100C00000C21F7F759FE72B6FF30FF302A30C27D53
:100C1000002A45D1C279D20742D00121C17562B6FE
:100C2000807BFFF7C0FDF8F75FFA00201E490890AF
:100C300009900B681D4A6033197C8C0608A919D5E8
:100C40009B7E9B0716D50590069007900490009018
:100C500002900191039010682030007BC00701D002
:100C6000002000E0102000231A460221803001F00D
:100C7000FFFA13E005900290039004900191009018
:100C800010682030007BC00701D0002000E0102059
:100C900000231A460221803001F03EFB002100E0D3
:100CA00062B608460AB010BD4C0500203005002091
:100CB00070B5114A01231268834312689B00491ED4
:100CC00081249B184909491C89B272B615898D4245
:100CD0000ED31E885B88AD19ADB25B18AB4207D846
:100CE0008000135A00245B1813521089401A108197
:100CF00062B6204670BD0000500500200C4AC902B3
:100D00008918090C72B602888A420ED9511A8AB221
:100D1000511E89B20180436890001858002905D0FF
:100D20008900595800220A6000E0002062B670472E
:100D300000F8FFFF10B50C46FAF70CFA00199C30CA
:100D400010BD00B5FAF706FA7C3000BD70B5034659
:100D50000F480024006801254830807C0A46800640
:100D6000800F002804D00D70184601F01BFB07E02F
:100D7000F7F79AFA002805D01570184601F01CFB09
:100D8000204670BD00201070184601F01FFBF7E7E9
:100D900038050020FFB504465009000681B01F4603
:100DA000000E06D0002C23D0401E24680006000E42
:100DB000F8D1D606F60E17E02020851BBD4200D3E1
:100DC0003D46A0192A4608300299F3F7A3F9029884
:100DD000711940190290781B87B2A088884201D20D
:100DE000A819A08024680026002F04D0002CE3D18D
:100DF000812005B0F0BD002005B0F0BDF8B51D465E
:100E00000E466B46002A09D0002824D084889442DC
:100E100004D8121B12040068120CF5D11A800400C9
:100E200019D014E06846A1880088091A8FB2AF4231
:100E300000D32F4621183A4630460831F3F76AF9B5
:100E4000F619E81B85B22468002069460880002D49
:100E500003D0002CE6D18120F8BD0020F8BD0000B1
:100E6000F0B587B004461C2225496846F0F734FAED
:100E7000217E0322C84383072248002B006805D047
:100E8000E37A9C461B0705D5CB0701D0E2771FE02C
:100E90008907FBD4E17E0523194215D0637E014604
:100EA00040319E000D799E196F46F619AD5DE577CC
:100EB000002D0DD165462D0708D4012B02D10979EB
:100EC000012901D0022102E0012100E00421E177A3
:100ED0002030407EC007C00F02D0E07F012806D03E
:100EE000E07A000709D5E07F022804D005E0E27728
:100EF000862007B0F0BD0020E0730020F9E7000075
:100F0000F81B061054050020884200D3084670479D
:100F100010B5FAF70FFA10BD044801680122114319
:100F20000160016891430160704700000000304893
:100F3000F8B50C4E054630680068C0462F050446DB
:100F40003F0D0CE0A0882568B84207D121463068E3
:100F5000FEF785FD01212046FBF798F82C46002C72
:100F6000F0D1F8BD5405002010B501686031097D4D
:100F7000CA070168897A0ED0B02909D3F02907D8A9
:100F800006490A68403291798B0701D0491E917158
:100F9000F2F790FB10BDA029F0D2F9E7540500202C
:100FA000F8B5002407460126354D00940CE080304A
:100FB000C16AE000801C08180622B91CF3F7BAF8D1
:100FC000002824D0641CE4B228684521095CA142B1
:100FD000EDD802464032517903293ED0491C517167
:100FE0002868E6008030C16AB01C08180622B91CC7
:100FF000F3F790F8296880208031C96A641C214B7E
:101000008855E2B201210020FDF74EFEF8BD2868A8
:10101000E1008030C26A8023505C184350542A6833
:101020008032D26A830705D5174BC50712D13043EA
:1010300050540FE0C3070AD00223184350542A68C3
:1010400040088032D26A40005054104B02E03043D6
:101050000F4B5054641CE2B2D4E700248030C06AC5
:10106000E100415C4906BBD4641CE4B2032CF7D315
:101070000121002432460846009BFDF715FEAFE72C
:101080005405002088130000580F0200C8AF00006C
:10109000983A0000F8B51D460446012316460F464F
:1010A000C00603D51F22BF20044008E00F48006897
:1010B00080304078800701D40020F8BD1C22200732
:1010C000000F032810D20A498000096840180069FF
:1010D0002146FAF7B7F9010006D08F808E71CD71E5
:1010E0002046FAF709FAE7E70720F8BD4C0500208B
:1010F0003C05002010B5040007D002230022A1689F
:1011000001F06EF9010003D00CE06120400110BD38
:10111000102020610020024683001B19401C5A61E8
:101120000428F9DB084610BDF7B592B00F4604005D
:1011300004D0002F06D11498002803DD612040015F
:1011400015B0F0BD1498002804DB102804DA2079CB
:10115000800601D49448F3E72079410701D4810740
:1011600002D59148401CEBE74021084320712046FE
:10117000143000250F90143001901EE00026B000BE
:1011800004904019C0190390F8F776FF00BA010ADD
:1011900003980902C07807AA01430498761C001935
:1011A000406941400498042E1150E8DB636A07A8A7
:1011B000019A0F9901F070F9059D284610300590AD
:1011C00014998842DADB2079800620D400291EDDBC
:1011D0000026B00004904019C0190390F8F74CFFA6
:1011E00000BA010A03980902C07807AA01430498CB
:1011F000761C0019406941400498042E1150E8DB28
:10120000636A07A8019A0F9901F046F9CAE0002025
:101210000B900C900D900E900BA9636A0846019AF2
:1012200001F03AF90B988721C00F48430B990C9AAB
:101230004900D20F11430B910C990D9A4900D20F1E
:1012400011430C910D990E9A4900D20F11430D9143
:101250000E99149A49004140284610300E91904250
:101260001CD10026B00002904019C0190490F8F774
:1012700003FF00BA010A04980902C0780BAB0143CE
:101280000298761C00194269029818584240514051
:10129000029807AA1150042EE4DB79E00B9887220C
:1012A000C00F50430B9A0C9B5200DB0F1A430B925A
:1012B0000C9A0D9B5200DB0F1A430C920D9ACB0F28
:1012C00052001A430D924A00424014980E92401B5D
:1012D0000390C017820F0398002610188010029008
:1012E00019E0B00010904019C0190490F8F7C4FE3E
:1012F00000BA010A04980902C0780BAB01431098A8
:10130000001942691098185842405140109807AA95
:1013100011500298761CB042E3DCB00001190BAA10
:1013200049691258514007AA1150039B00211B1A0A
:1013300042199C4696460BE072465218BA5CCD00A4
:1013400018235B1B9A4007AB1D586A401A50491C72
:101350008C45F1DC002909D0CD00182107AA4D1BCE
:1013600013588021A9404B40135005E007A90A58A3
:101370000123DB075A400A5007A90BAA05E0B00079
:1013800003195B6915586B400B50761C042EF6DB75
:10139000636A07A8019A0F9901F07EF82079042169
:1013A000084320710020CBE61D0C0000F8B516465E
:1013B0000F46040009D0002E07D025468035E86D81
:1013C000401E102804D31348F8BD61204001F8BD29
:1013D0002079400604D4002211462046FFF7A4FEDF
:1013E0002079022108432071002018210CE0C21747
:1013F000920F121892089200121983075269DB0E9D
:10140000CB1ADA403A54401CEA6D8242EFDC0020ED
:101410003260F8BD1F0C00000021002804D0491CD8
:10142000006889B20028FAD14805000C7047000016
:1014300030B400230C1E22D020339BB293421AD327
:101440000A68002A39D072B60388002B03D044689A
:101450009B00E3581A60002393800488641CA5B2A3
:1014600005804468AD0062511268002AF4D162B66A
:101470000020086021E00C4609680029DCD1D11A5F
:101480000904114A49098918090C72B602888A426E
:101490000ED9511A8AB2511E89B201804368900058
:1014A0001858002905D089005A580021116000E021
:1014B000002062B62060002802D030BC00207047B7
:1014C00030BC86207047000000F8FFFFFFB599B0E0
:1014D0000446012310226846229F259E279DFDF782
:1014E000A9FE0123102204A81B99FDF7A3FE0123E6
:1014F000102208A81C99FDF79DFE012303223946FE
:101500000CA8FDF797FE08A82399C17401230622B1
:101510000DA82499FDF78EFE08A8867601230622E1
:101520001B302699FDF786FE01231022214615A8BF
:10153000FDF780FE11AB15AA41216846FDF7ABFE11
:101540000123102211A92846FDF774FE1DB0F0BD3D
:10155000F8B5144E0F463178012500291FD10146F8
:101560000120FFF7D5FC012807D0002439460220CE
:10157000FFF7CEFC012802D002E00124F6E7641C4C
:10158000394620310320FFF7C3FC012800D1641C39
:10159000002C04D1FFF7C0FC022030700025284643
:1015A000F8BD00007B050020F7B500201546002A95
:1015B00021D0891C8CB211466018401EF0F74AFFFA
:1015C00086B2002C18D021460098F0F743FF07465A
:1015D00000987C43001B80B22946F0F73BFF7E4316
:1015E00030180004000C06D00146009A694391426D
:1015F00001DD401E80B2FEBD0020FEBDF8B50546EF
:1016000002268088FDF7FEF904002BD072B6002078
:101610002860606F002827D0A06F0560A56700F0E4
:101620003FFF0546F0F745FA01229202801829464D
:10163000064600F03AFF012818D000F03BFF25468F
:1016400003462035287CFAF721FA002808D0687F65
:10165000984205D0A08E002802D00120E0346077A7
:1016600062B684263046F8BD6567D7E72546203543
:10167000287CFAF70BFA002807D0A08E0028EFD0BC
:10168000287C314600F01CFFEAE700F013FF697F79
:101690008142E5D1A668E06F0004C70F287C00F006
:1016A00097FF0090287C012100F09AFF0146204618
:1016B0002830864220D1002F1ED1009A012A1BD04B
:1016C000676F1549387C0968C0068031C00EC96C47
:1016D000801C4618A6603946204600F08BFF27671D
:1016E000287C0121FDF7C6F90028B9D070780028C0
:1016F000B6D0001D7070B3E78642B1D08E42AFD035
:10170000002FADD100980128AAD0A068102201783E
:1017100011430170A4E700004C05002080B500BF14
:1017200000BF024A11001820ABBEFBE726000200F2
:1017300010B50948006834300068C04608E0816888
:10174000097B4A0603D41E2901D0012010BD006880
:101750000028F4D110BD00004005002010B5002184
:10176000044800F087FF862801D0002010BD01202A
:1017700010BD00000325041070B50A4D28683430F0
:101780000068C04604460AE02868214626683430CE
:10179000FEF765F901212046FAF778FC3446002C63
:1017A000F2D170BD4005002030B509490346002044
:1017B0000A686821895A07E0C400D56EA41C2C5B16
:1017C0009C4204D2401C80B28142F5D8014830BD11
:1017D00040050020FFFF000007490A68D16E403233
:1017E000528DD200083A8A18904203D8401A40031A
:1017F000000C70470148704740050020FFFF0000C3
:1018000010B500F04BFF408810BD0000F8B50E4643
:101810000246FEF7A5F9050036D0B24234D8AA42F6
:1018200032D8104600F048F81849044688422BD0B8
:10183000AE4200D92E46304600F03EF80746144826
:1018400000684030018D491EB94215D9781C2646E2
:1018500085B20BE0C06EE9004118F2008018082242
:10186000F2F758FC761C6D1CB6B2ADB20848682180
:101870000068095AA942EDD805483A1B0068403073
:10188000018D891A491E0185F8BD0000FFFF000087
:101890004005002010B500F031FF0549884205D011
:1018A0000449C0000968C96E081810BD002010BDA9
:1018B000FFFF00004005002010B50446FFF774FF4D
:1018C0000649884208D0064A1268D36EC200921CAC
:1018D0009A5AA24200D0084610BD0000FFFF000047
:1018E0004005002010B500282DD0017D102902D020
:1018F000802928D106E0028A144B9A4202D18269DB
:10190000002A20D0827824231A4203D04378DB1F98
:101910000A2B18D2102914D1018A29231B029942BB
:1019200005D01C1DA14202D05C1DA14209D1047842
:10193000012C08D1002A06D1994202D180690028E1
:1019400001D0002010BD822010BD0000022900003F
:1019500010B504460846FFF727FF07490968C96E16
:10196000C2008A5CA24202D1C000081810BD002843
:10197000FCD0401E80B2F3E740050020F8B5428855
:101980004A80077902460025082402260C323B00D3
:10199000F8F7F8FF128E0A0C123D292932363D4421
:1019A0004D5660876060878E0E7082E010230B704A
:1019B00000898880404813E006230B700523DB0272
:1019C0000B8103898B803C4BCB80037F102B03D092
:1019D00010204881CA606CE04E811830C86068E011
:1019E000C8808A6065E042884A800C7002898A80DB
:1019F0004089C880314821E042884A80042210E0B2
:101A000042884A800A220A700089888051E043880F
:101A10004B800C7003898B804089E1E742884A80C3
:101A20000C220A7002898A804089C88041E042887D
:101A30004A800E220A70027A0A7109E0886038E052
:101A400042884A8012220A7002898A804289CA80AA
:101A5000C068F3E70F4604460169407A0C22504300
:101A60000E18608878806088FEF7E8F90146B28831
:101A70006089121A8888411F89B28A4201DD401F9D
:101A800000E01046A081162139703188B980388174
:101A9000708861894018F8806189B0684018F860E2
:101AA00007E042884A8018220A70007A087100E034
:101AB00086252846F8BD0000FFFF000064050020D1
:101AC00037B504468068022201A90D30F2F722FBE7
:101AD000A068022202A90F30F2F71CFB3EBD70B5D0
:101AE00088B00E46FCF786FE050024D0694600F05B
:101AF00037FEF4882B46241DA1B210330422304651
:101B0000FDF782F8E2B204AB3146684600F03CFED5
:101B1000201D81B206AB08223046FDF775F8083467
:101B2000F4802869411C04D0401C2861002008B0C2
:101B300070BD0020F9E78020F9E700B5FEF77EF9D7
:101B4000002801D0007800BDFF2000BD10B50C4674
:101B50001021217401780B00F8F714FF05040D1013
:101B6000141413004068007D012801D0094807E0E3
:101B70000520C00204E00748401C01E00548801C25
:101B8000A08110BD416814222046091DF2F7C2FA57
:101B900010BD00000128000010B5027C0B7C9A42A9
:101BA00002D00020C04310BD102A05D0202A06D044
:101BB000C068C968401A10BD80898989FAE7102277
:101BC000F2F7B8FA10BDF8B51E4614460D460746A2
:101BD000FCF710FE002812D0384600F038FE052D24
:101BE00013D0012D00D0E408E10702D04107890F8E
:101BF0000ED0A1070ED501070CD40820F8BD002C8B
