:020000041004E6
:100000000000012041300410BD0C0410071D041035
:10001000AA5555AA45554C420000000000000000BA
:10002000000000000000000000000000DF210410BC
:10003000000000000000000097250410592F041054
:10004000D7270410932D04102B2E0410832E041098
:10005000F32F0410FF2F04102F3004105930041018
:100060005B3004105D3004106B2F0410612F0410FE
:100070005F300410613004106330041065300410E8
:1000800067300410693004106B3004106D300410B8
:100090006F30041071300410733004107530041088
:1000A00077300410793004100000000000000000D8
:1000B0000000000000000000000000000000000040
:1000C000F0B5020052B2002A1CD40322B64B040041
:1000D00064B2A40804256C431C59FF251600064091
:1000E00008277E43B540AC438D01EDB2024008269F
:1000F000724395402543020052B2920804246243A1
:100100009D5022E00F24A94A032305006DB225402B
:10011000083DAD0804267543060076B23440083C1D
:10012000A408042674431659FF27BC461C0004404B
:1001300008277C436746A740BE438C01E4B20340D6
:1001400008277B439C4034435451F0BD00B5BFF3B6
:100150004F8F974897490860BFF34F8F00BFFDE767
:1001600095490A6802430A6070479448006881080C
:100170000800C007C00F704791490A68914B1340AF
:1001800003430B6070478E490A6830239A43024349
:100190000A6070478C490A6882430A60CF490A683E
:1001A00082430A60704710B4CD490A68CD4B1340B2
:1001B000C202E024A40114401C430C600A6880239E
:1001C000DB0013430B6010BC704710B4C4490A68CD
:1001D000CA4B13408201F024A40014401C430C605D
:1001E0000A68202313430B6010BC704710B4BC494D
:1001F0000A681E239A4343001E241C4014430C60CB
:100200000A68012313430B6010BC7047BC480168A7
:10021000802252020A4302607047B9480068410CCC
:100220000800C007C00F7047B64980220A600A68FC
:10023000B54B134002021A430A607047B1490A687D
:1002400070239A4302430A607047B0490A68B04B72
:10025000134002061A430A600A6880231B041343F2
:100260000B60704780B5AB48016802220A43026008
:10027000002100910099062904DA00BF0099491C69
:100280000091F7E7016804220A43026001BDA14919
:100290000A68D34B134003430B60704798480168CA
:1002A00010220A430260704795480068410908001F
:1002B000C007C00F704795490A6860239A430243FC
:1002C0000A60704791490A681E239A43430013430A
:1002D0000B600A68012313430B607047C1490A6829
:1002E00006239A4302430A6070478A490A68D24B40
:1002F000134003430B60704786490A68CF4B134095
:1003000003430B6070477E480168802292010A43D4
:10031000026070477A480068810B0800C007C00F70
:1003200070477C490A68E0239A4302430A60704799
:1003300081B0AC490A6802430A6009680140009133
:10034000009901B07047BE490A6802430A607047CD
:10035000BB490A6882430A6070478020C005006874
:100360000007000F70478020C005006800090007E3
:10037000000F7047426830239A430A434260704737
:1003800080B5B048006800280BD1AF48006800284D
:1003900007D00120AD49886000F091FCFFF7D6FE40
:1003A000FCE7012002BD000000E400E01CED00E0DD
:1003B0000400FA050CED00E0040050481400504819
:1003C0001C005048FFFEFFFF2800504880B5032165
:1003D0000020FFF775FE03210120FFF771FE0321C6
:1003E0000220FFF76DFE03210320FFF769FE0321C2
:1003F0000420FFF765FE03210520FFF761FE0321BE
:100400000620FFF75DFE03210720FFF759FE0321B9
:100410000820FFF755FE03210920FFF751FE0321B5
:100420000A20FFF74DFE03210B20FFF749FE0321B1
:100430000C20FFF745FE03210D20FFF741FE0321AD
:100440000E20FFF73DFE03210F20FFF739FE0321A9
:100450001020FFF735FE03211120FFF731FE0021A8
:100460001220FFF72DFE03211320FFF729FE0321A1
:100470001420FFF725FE03211520FFF721FE03219D
:100480001620FFF71DFE01211720FFF719FE00219E
:100490001820FFF715FE03211920FFF711FE01BDFB
:1004A00070B504000D0016003000C0B200280FD057
:1004B0002000FA21890000F01CFC401E68436449BA
:1004C000086000206349086005206349086004E073
:1004D0006148016801229143016070BD2C005048C1
:1004E00094005048FFC7FFFF00B55B480068C00399
:1004F00001D5012000E0002000BD00003FFCFFFF0F
:100500000000404898004048FFC0FFFF0C004048F2
:10051000FFFFFFC008004048FEB5002630006946D6
:1005200008700122C8214D48FFF7BAFFFFF71DFEF2
:10053000002806D1FFF7D8FF0028F7D00120694630
:100540000870002200210020FFF7AAFF684600780B
:10055000002802D06846007841E08020C000FFF704
:10056000CBFE2020FFF70FFE80204001FFF7BDFEED
:10057000554800685549884215D10F2038490A6806
:10058000024002920A68120957077F0F0A68140A8C
:1005900004400A68120B104001900868000C8506A0
:1005A000AD0E012603E00824029403271E2528002F
:1005B000FFF74BFE3000C0B2002802D00198FFF7D1
:1005C00081FE2000FFF712FE0298FFF7FEFD3800C3
:1005D000FFF7E9FD80204000FFF7CEFD0020FEBDC3
:1005E000FF7FFEFF6000404810B5002401229621E5
:1005F00049001A48FFF754FFC0208001FFF7CAFDE9
:1006000080200002FFF743FE6020FFF754FEFFF753
:1006100045FEFFF749FE002805D1FFF765FF0028DA
:10062000F7D002200400002200210020FFF738FF4D
:100630002000C0B210BD0000FFEFFFFFFFF3FFFF7F
:1006400040004048940040481000504804000020FA
:1006500014E000E018E000E010E000E00024F40006
:10066000E41E0010F1B586B06846007E00280ED06A
:100670002020FFF756FE0220FFF730FE0120FFF793
:1006800062FE0120FFF764FE0120FFF751FE0E48D5
:1006900000680E4988421BD10F21CF480268120A18
:1006A0000A4004920268140B0C400268120C1140BC
:1006B000039107210268120D0A4002920068000EA1
:1006C00001400191012508E0F81E0010CCECBCFCB3
:1006D000082004900724039000250F20BF490968D3
:1006E0000F229143039A02400A43BC490A60BC4965
:1006F0000968F02291432201F02313400B43B849CB
:100700000B60B74909680F229143049A10400843CF
:10071000B34908602800C0B2002811D0B148016870
:1007200007229143029A5207520F0A43026001685E
:1007300038229143019AD200382313400B430360BF
:10074000A94801683F2291430A220A4302600168D6
:1007500040220A430260A54801683F2291430422D7
:100760000A430260016880220A4302600168402255
:10077000914301609E4801683F22914301609D487A
:1007800001683F22914310220A4302609A4801689F
:100790003F22914320220A430260984801683F2289
:1007A000914330220A430260954801683F229143F9
:1007B00038220A430260934801683F22914339225C
:1007C0000A430260904801683F2291433A220A435B
:1007D00002608E4801683F2291433B220A43026037
:1007E0008B4801683F2291433C220A4302608948BA
:1007F00001683F2291433D220A4302605520864909
:100800000968FF2291430143834A116083490968C3
:10081000FF22914366220A4380490A6080490968A1
:10082000FF22914308437E4908607E480068FF210B
:1008300088431D2101437B4801607B480068FF21FC
:100840008843592101437848016078480068FF21B6
:1008500088432D21014375480160012674480068D2
:10086000304373490860FFF77EFD0701FFF775FD10
:10087000384305900598202800D2ABE000210800FD
:100880006C4A33000700FFB2D355401C5E230700BB
:10089000FFB2D355401C514B1B680700FFB2D35524
:1008A000401C33000700FFB2D355401C5D230700F6
:1008B000FFB2D355401C4A4B1B680700FFB2D3550B
:1008C000401C2B00DBB2002B0FD033000700FFB21F
:1008D000D355401C52230700FFB2D355401C414B57
:1008E0001B680700FFB2D355401C33000700FFB25E
:1008F000D355401C12230700FFB2D355401C464B72
:100900001B680700FFB2D355401C33000700FFB23D
:10091000D355401C15230700FFB2D355401C3F4B55
:100920001B680700FFB2D355401C33000700FFB21D
:10093000D355401C1A230700FFB2D355401C384B37
:100940001B680700FFB2D355401C33000700FFB2FD
:10095000D355401C22230700FFB2D355401C314B16
:100960001B680700FFB2D355401C33000700FFB2DD
:10097000D355401C21230700FFB2D355401C2A4BFE
:100980001B680700FFB2D355401C33000700FFB2BD
:10099000D355401C23230700FFB2D355401C234BE3
:1009A0001B680700FFB2D355401C0300DBB2D654CE
:1009B000401C1B230600F6B29355401C1C4B1B68C1
:1009C0000600F6B29355401C0300DBB2D154401C24
:1009D0006946087007B0F0BDE81E00107816006088
:1009E0007416006048160060C0160060C4160060EF
:1009F000E8160060EC160060F0160060F416006067
:100A0000F8160060FC160060001700600417006014
:100A1000081700600C17006048150060541500604E
:100A20006815006088150060841500608C150060F2
:100A30006C1500605C030020F8B506000F0000256F
:100A4000FFF791FC0401FFF788FC204300908D4CD8
:100A5000012264212000FFF723FDFFF7D7FBFFF7FA
:100A6000DCFB002805D1FFF73FFD0028F7D004206C
:100A70000500002200210020FFF712FD2800C0B26F
:100A8000002802D02800C0B2BCE03000C0B200286C
:100A900004D10098102801D10620B3E03000C0B284
:100AA00000286BD03000C0B201280AD039D3032807
:100AB00014D00DD305281FD017D307282AD022D34E
:100AC0002FE00020FFF72DFC6F487049086029E0F7
:100AD0002020FFF726FC6D48046023E04020FFF74C
:100AE00020FC6B48694908601CE06020FFF719FC96
:100AF00068486649086015E08020FFF712FC6648E8
:100B0000624908600EE0A020FFF70BFC63485F49D4
:100B1000086007E0C020FFF704FC61485B490860FB
:100B200000E0FEE7594C0122C8212068FFF7B8FC1D
:100B3000FFF7E9FBFFF7EEFB002805D1FFF7D4FC38
:100B40000028F7D005200500002200210020FFF733
:100B5000A7FC2800C0B2002802D02800C0B251E093
:100B600020684949884204D110214E48FFF702FC11
:100B700006E000214B48FFF7FDFB01E0FFF772FBA9
:100B80003800C0B2FF2801D100203BE03800C0B2DD
:100B9000012803D03000C0B2032805D10420FFF79C
:100BA0009DFB0120070002E00220FFF797FB009861
:100BB000102826D13000C0B2012807D13800C0B2B9
:100BC000012803D12A203849086016E03000C0B25D
:100BD000012803D13800C0B2002807D03000C0B2CD
:100BE000022807D13800C0B2012803D129202E499C
:100BF000086002E028202C4908602C4800680007A3
:100C0000FBD40020F2BDF8B507000C0028482949A4
:100C1000086029490861E020FFF7A2FAFFF77CFC91
:100C200006003000C0B2002802D03000C0B228E078
:100C3000FFF7DAFC05002800C0B2002802D0280027
:100C4000C0B21EE02000C0B2FF2802D00120FFF792
:100C500009FD2020FFF7E8FA3020FFF7EFFA210026
:100C6000C9B23800C0B2FFF7E7FE06003000C0B2DC
:100C7000002802D03000C0B203E0FFF7A7FB62B645
:100C80000020F2BD0048E8010090D0033C000020A5
:100C90000024F40000127A0000093D0080841E0048
:100CA00040420F000010004000500040045000403F
:100CB0000000041008ED00E00400002070477047B9
:100CC000F446002804D4494200F013F8404260473B
:100CD0004042002905D45FD000F00BF84042494261
:100CE0006047494200F005F84942604703460B431C
:100CF000E6D40022030A8B420BD203098B4219D29D
:100D000043088B422ED2411A00D20146524110466E
:100D10007047FF2209023FD012068B4205D3121200
:100D200009028B4201D31212090203098B4219D323
:100D300000E0090AC3098B4201D3CB01C01A52411A
:100D400083098B4201D38B01C01A524143098B4264
:100D500001D34B01C01A524103098B4201D30B014D
:100D6000C01A5241C3088B4201D3CB00C01A524172
:100D700083088B4201D38B00C01A524143088B4237
:100D800001D34B00C01A5241884200D3401A52414D
:100D9000CFD201461046704708B500F001F808BDF3
:100DA0007047430010B50400002C01D1012010E071
:100DB000A07F002804D100206077200000F0EDFA29
:100DC0000220A077211D206800F018FA0120A077EA
:100DD000002010BD10B504000220A0772068006A32
:100DE0004D49014000290BD12068006A4B49014060
:100DF000002905D120680068012188432168086026
:100E0000200000F0F0FA00200100A17760770020B8
:100E100010BD38B504000D002800002806D00428B5
:100E20000BD0082810D00C2815D01BE02068C06813
:100E3000022101432068C16014E02068C0680421D9
:100E400001432068C1600DE02068C06808210143AB
:100E50002068C16006E02068C06810210143206856
:100E6000C160FFE701222900206800F06DFA2068C8
:100E700080682B490140062909D080204002814228
:100E800005D020680068012202432068026000202B
:100E900032BD38B504000D002800002806D0042813
:100EA0000BD0082810D00C2815D01BE02068C06893
:100EB000022188432168C86014E02068C0680421CA
:100EC00088432168C8600DE02068C0680821884315
:100ED0002168C86006E02068C06810218843216846
:100EE000C860FFE700222900206800F02DFA206882
:100EF000006A0949014000290BD12068006A0749AE
:100F00000140002905D1206800680121884321683B
:100F10000860002032BD00001111000044040000F0
:100F20000700010070B50400022620680069304007
:100F300000281CD02068C0683040002817D002204C
:100F4000C0432168086101202077206880698007FC
:100F5000800F002803D0200000F090FB05E0200067
:100F600000F015FC200000F013FC00202077042581
:100F700020680069284000281CD02068C0682840EC
:100F8000002817D00420C043216808612677206814
:100F90008069C02189000140002903D0200000F0B1
:100FA0006DFB05E0200000F0F2FB200000F0F0FBFC
:100FB00000202077082620680069304000281BD0D8
:100FC0002068C0683040002816D00820C04321683F
:100FD000086125772068C0698007800F002803D04A
:100FE000200000F04BFB05E0200000F0D0FB2000CB
:100FF00000F0CEFB00202077102021680969014015
:1010000000291CD02168C9680840002817D010208A
:10101000C0432168086126772068C069C021890023
:101020000140002903D0200000F028FB05E020004B
:1010300000F0ADFB200000F0ABFB0020207701208A
:1010400021680969014000290BD02168C96808405E
:10105000002806D00120C04321680861200000F06C
:1010600098FB802520680069284000280BD0206864
:10107000C0682840002806D08020C043216808614D
:10108000200000F087FB20680069C0050AD52068B1
:10109000C0680540002D05D0474821680861200040
:1010A00000F079FB402021680969014000290BD03C
:1010B0002168C9680840002806D04020C043216844
:1010C0000861200000F068FB2020216809690140C8
:1010D00000290BD02168C9680840002806D02020CC
:1010E000C04321680861200000F057FB70BDF8B5CF
:1010F00004000D001700607F012801D102205AE092
:10110000012666770220A077002F12D1EB686A686B
:101110002968206800F094F8206880690C218843D1
:101120002168886120688069A9680143206881611D
:101130003DE0042F13D1EB686A682968206800F04D
:10114000A1F8206880691D490140206881612068FC
:101150008069A968090201432068816127E0082F9E
:1011600012D1EB686A682968206800F0A7F8206847
:10117000C0690C2188432168C8612068C069A968DA
:1011800001432068C16112E0EB686A682968206841
:1011900000F0AFF82068C069084901402068C161CB
:1011A0002068C069A968090201432068C161A67767
:1011B000002060770020F2BDFFFEFFFFFFF3FFFF7E
:1011C00000B5020000200B00002B06D0042B08D035
:1011D000082B0AD00C2B0CD00FE013685B6B1800A7
:1011E0000BE013689B6B180007E01368DB6B1800BB
:1011F00003E013681B6C1800FFE700BD10B503681F
:101200000E4A904204D17024A3431C004B68234330
:10121000904203D11A4C1C40CB6823438024A34343
:101220004C691C4304608B68C3620B688362904204
:1012300001D10A6902630122426110BD0020004011
:10124000F0B5046A0125AC4304628669056A374C2F
:10125000A04203D10324A643164302E001243443F1
:101260002600F024A6431F01F0243C4034430A2604
:10127000B5430A260E402E4384610662F0BD00008D
:10128000FFFCFFFFF0B4046A1025AC4304628569DB
:10129000046A274E2E4017023743264D3D401F0358
:1012A000F02636023E402E43A025AC430F01A02578
:1012B0003D40254386610562F0BC7047F0B4046A86
:1012C0001D4D25400562C669056A0324A6431643E1
:1012D000F024A6431F01F0243C403443174E2E4017
:1012E0000F02A0252D013D403543C4610562F0BCCD
:1012F0007047F0B4046A124D25400562C469056A5E
:101300000B4E2640140234430A4E26401F03F0249D
:1013100024023C4034430B4E2E400F03A0252D02E7
:101320003D403543C4610562F0BC70470020004079
:10133000FFFCFFFFFF0FFFFFFFFEFFFFFFF5FFFFBB
:10134000FFEFFFFFFF5FFFFF70B41F2301240D00BD
:101350001D40AC40056AA5430562056A0E00334096
:1013600016009E402E43066270BC704781B027492C
:101370000A6802430A60096801400091009901B0BF
:10138000704722490A6882430A60704780B500218D
:101390000020C04300F07DFA01BD18B585B00400FF
:1013A00014220021684600F09FFA206818498842FC
:1013B00017D10120FFF7DAFF4020009002200190B2
:1013C0000020029003900420049069469020C005FC
:1013D00000F0CAFA00210A2000F05BFA0A2000F0AF
:1013E00061FA06B010BD10B50400206808498842B3
:1013F0000AD10120FFF7C5FF40219020C00500F071
:10140000E5FB0A2000F055FA10BD000054004048EA
:101410000020004000B5010049B2002905D4012197
:10142000C206D20E9140BD4A116000BDF0B5020067
:1014300052B2002A1CD403228F4B040064B2A408C9
:1014400004256C431C59FF251600064008277E43DF
:10145000B540AC438D01EDB2024008267243954081
:101460002543020052B29208042462439D5022E0B8
:101470000F24AB4A032305006DB22540083DAD089B
:1014800004267543060076B23440083CA4080426BE
:1014900074431659FF27BC461C00044008277C43B0
:1014A0006746A740BE438C01E4B2034008277B4354
:1014B0009C4034435451F0BD81B09A490A680243BC
:1014C0000A60096801400091009901B0704781B03D
:1014D00095490A6802430A60096801400091009931
:1014E00001B0704791490A6802430A6070478F490A
:1014F0000A6882430A60704710B5FF210120FFF798
:1015000082FB002800D0FEE700F0EEFB002000F098
:1015100094FD012000F0FCFE022000F0F9FE00F036
:1015200087F800F05CF800F010F8814C0120207082
:10153000804801782278C9B29142F9D021780170AF
:1015400021787D4800F07AFFF2E7F8B58024640145
:101550002000FFF7BCFF2000FFF7C4FF2000FFF7CB
:10156000C6FF80247548006820400028F9D0744EDA
:1015700000F068F83060734D7348286000276F6092
:10158000306872490968FFF7B4FB401EA8603068F4
:10159000A968491CFFF7ADFB401EE8602F616F6131
:1015A000280000F05FFF002801D000F0E7F80422D7
:1015B0000021280000F0F0FF002801D000F0DEF844
:1015C0002868C0680440624820432968C860032135
:1015D0000B20FFF72BFF0B20FFF71CFFF1BD38B5E9
:1015E00084B010220021684600F07EF9594C5A4818
:1015F000206000256560A5605848E0602561656150
:10160000A5612000FFF7CEFB002801D000F0B6F85E
:101610000095012001900295039500226946200063
:10162000FFF765FD002801D000F0A8F805B030BD37
:1016300080B50420FFF740FFC0218904002001F09D
:101640004DF801BD10B5434C4348206000212000F7
:10165000FFF7DFFB002801D000F090F84048006859
:101660000228FBD100212000FFF713FC2000FFF728
:10167000B1FB3C48006810BD00E400E070B5060016
:10168000307F01283BD1384C2088002808D1002128
:101690003000FFF795FD35490860012020802EE0DD
:1016A000208801282BD1324D00213000FFF788FD22
:1016B00028602E4801682A68914205D2296800688E
:1016C000081A2C4908600EE029680268914208D285
:1016D00000682968081A80214902401825490860D5
:1016E00001E000F04BF8244822490968FFF701FBAC
:1016F0001C4908600020208002201949086070BD44
:1017000038B50400012000F075FE094D2878401C12
:101710000221FFF7EBFA297031BD000000E100E083
:101720001CED00E050004048540040483400404860
:10173000B2030020B3030020303004101C004048E6
:10174000A40300207C03002000400040380000205B
:101750007FFBFFFF8800002000200040FFFF00000B
:10176000A8030020A0030020B0030020B000002048
:10177000980300209C0300200090D00380B5FA203D
:10178000800000F0EBFF022000F034FEF7E7704726
:1017900070477047704770477047704700B5010049
:1017A00049B2002905D40121C206D20E9140474A10
:1017B000116000BD00B5010049B2002909D4012122
:1017C000C206D20E9140424A1160BFF34F8FBFF361
:1017D0006F8F00BDF0B5020052B2002A1CD4032264
:1017E0003C4B040064B2A40804256C431C59FF253B
:1017F0001600064008277E43B540AC438D01EDB28C
:1018000002400826724395402543020052B29208D6
:10181000042462439D5022E00F242F4A0323050035
:101820006DB22540083DAD0804267543060076B22A
:101830003440083CA408042674431659FF27BC46CC
:101840001C00044008277C436746A740BE438C0128
:10185000E4B2034008277B439C4034435451F0BD1D
:1018600010B50400601E80214904884201D3012084
:101870000EE0601E1949086003210020C043FFF7F5
:10188000A9FF0020164908600720164908600020BB
:1018900010BD38B505000C002100280040B2FFF74C
:1018A00099FF31BD10B50400200040B2FFF776FF6C
:1018B00010BD10B50400200040B2FFF77BFF10BD43
:1018C00010B504002000FFF7CBFF10BD00E100E0E1
:1018D00080E100E000E400E01CED00E014E000E046
:1018E00018E000E010E000E010B50400080011006E
:1018F0000200200000F048FF200010BDAF490A6838
:1019000082430A60AE490A6802430A607047AC49E4
:101910000A6882430A60A9490A6802430A6070475C
:10192000A7490A6882430A60A4490A6882430A6098
:101930007047A4490A6882430A60A3490A680243BF
:101940000A607047A0490A6882430A609D490A6894
:1019500002430A6070479C490A6882430A609949B9
:101960000A6882430A607047F1B582B00F00002513
:101970003868E840002800D11FE1012638683100AE
:10198000A940014001910198002800D113E1786835
:10199000022802D0786812281DD10298E908042292
:1019A00051434018026A07200F239C46290001403A
:1019B0000423594363468B409A4339692B001840EE
:1019C00004235843814011430C000298E908042283
:1019D0005143401804620298026803202B00022140
:1019E0004B43010099408A437B6803409C46290091
:1019F0000223594363468B4013431C0002990C6039
:101A00007968012908D07968022905D079681129F7
:101A100002D0796812291BD1029989682A00022311
:101A20005A4390408143FA68280002235843824079
:101A30000A4302988260029841683000A8408143BE
:101A4000786800093040A8400843040002984460C8
:101A500002989021C905884212D1B868002803D0A5
:101A6000022809D004D31DE03868FFF759FF19E0B8
:101A70003868FFF743FF15E03868FFF748FF11E0CB
:101A8000B868002803D0022809D004D30AE03868D7
:101A9000FFF761FF06E03868FFF74BFF02E03868A8
:101AA000FFF750FF7868C00000D484E0002069464A
:101AB0000870884802689021C905029B8B420AD1B0
:101AC0003300AB409A437B681B09802464012340A8
:101AD000AB4013430BE03300AB401B049A437B68DD
:101AE0001B09802464012340AB401B0413430360A3
:101AF0007868C00327D4784A1068029C8C4204D1CD
:101B000003003000A840834304E003003000A840F5
:101B100000048343C02080037C680440844211D1C8
:101B200030006C4620706D4803600298884204D1F2
:101B300018003300AB40034304E03000A840000429
:101B4000184303001360654A14686846007800284B
:101B500019D10298884203D13000A840844303E0A1
:101B60003000A840000484437868C0020BD5029876
:101B7000884204D120003400AC40044303E0AE406E
:101B800030042043040014609020C0050299814273
:101B900003D153490968294303E051490A682904DC
:101BA00011430299814203D128004E49086002E0A6
:101BB00028044C4908606D1CDAE6F7BD2400504843
:101BC000200050482C00504828005048FEB5020024
:101BD00000240800E04000287AD001252800A04019
:101BE000084002900298002870D09020C0058242E0
:101BF00003D13B4E3668A64303E0394E36682704CE
:101C0000BE43824203D12000364E306002E0200401
:101C1000344E30609020C005824204D12800A0409C
:101C2000C643330004E02800A0400004C64333004C
:101C3000284806681E400660274806681E40066061
:101C4000264806681E400660032610688446200069
:101C50000227784337008740604607431760E00853
:101C60000427784310180190E70804204743D0194F
:101C7000076A00970F208446200047077F0F042043
:101C800047436046B840009F8743019807629768C2
:101C9000BC462700022047433000B84067468743D0
:101CA000976057682800A04087435760D068B446C3
:101CB0002700022677436646BE40B043D060D06816
:101CC000260002277E43B5400543D560641C80E7AB
:101CD000F7BD00000C000040100000401400004060
:101CE000180000401C00004010B50024032000F044
:101CF00073FD002802D00120040001E0FFF746FB3D
:101D00002000C0B210BD704700B5010049B20029E3
:101D100005D40121C206D20E9140B94A116000BD1E
:101D2000F0B5020052B2002A1CD40322B54B0400C5
:101D300064B2A40804256C431C59FF251600064014
:101D400008277E43B540AC438D01EDB20240082622
:101D5000724395402543020052B292080424624324
:101D60009D5022E00F24A84A032305006DB22540B0
:101D7000083DAD0804267543060076B23440083CA1
:101D8000A408042674431659FF27BC461C000440CF
:101D900008277C436746A740BE438C01E4B203405A
:101DA00008277B439C4034435451F0BD97490A684F
:101DB00082430A6096490A6802430A607047944960
:101DC0000A6882430A6091490A6802430A607047C0
:101DD0008F490A6882430A608C490A6882430A6014
:101DE00070478C490A6882430A608B490A6802433B
:101DF0000A60704788490A6882430A6085490A6810
:101E000002430A60704784490A6882430A60814934
:101E10000A6882430A60704781B0C5490A68024374
:101E20000A60096801400091009901B0704781B0D3
:101E3000C0490A6802430A6009680140009100999C
:101E400001B0704730B403680C004C4303256C4369
:101E5000A3430C004C4354431C43046030BC704704
:101E600010B443688B430C0054431C43446010BCC3
:101E7000704730B483680C004C4303256C43A34384
:101E80000C004C4354431C43846030BC704770B515
:101E900004000D0016009020C005844211D1002ED0
:101EA00003D0022E09D004D31CE02800FFF790FFD6
:101EB00018E02800FFF77AFF14E02800FFF77FFF03
:101EC00010E0002E03D0022E09D004D30AE028002F
:101ED000FFF799FF06E02800FFF783FF02E02800E4
:101EE000FFF788FF70BD30B4446A0B0A0D0A6B43DC
:101EF0000D0A6B430D0A6B430F256B439C430B0A82
:101F00000D0A6B430D0A6B430D0A6B435343234386
:101F1000436230BC7047016801220A430260704787
:101F20000168802292050A43026070478268D200ED
:101F3000D2084B0713438360704782688B4B134072
:101F40004A061A438260704702680C239A430A4388
:101F50000260704730B40468854D254015430D4339
:101F600005604468834D25401D43456030BC704783
:101F70008268814B13400B4383607047FCB50400BB
:101F80000D0016001F008020000286421DD17B48F4
:101F90007B492A0092B202235343C95AFEF7A9FE95
:101FA00002214843790840183900FEF7A2FE80B2AA
:101FB0000090009973480840009949084907490F63
:101FC000084301900198E0600FE06C486C492A00DA
:101FD00092B202235343C95AFEF78BFE7908401888
:101FE0003900FEF786FE80B2E060F3BD4168664AC4
:101FF0000A40426081682A22914381607047000054
:1020000000E100E000E400E01CED00E024005048A6
:10201000200050482C00504828005048C069C10991
:102020000800C007C00F7047016820220A43026001
:1020300070470A00D2B28262704770B50600042071
:10204000FFF7EAFE9024E4058025AD000222290076
:102050002000FFF7F7FE022229002000FFF709FF0A
:10206000002229002000FFF7FBFE012229002000AA
:10207000FFF70DFF002229002000FFF734FF0420A6
:10208000FFF7CAFE80256D00022229002000FFF71D
:10209000D9FE022229002000FFF7EBFE00222900D2
:1020A0002000FFF7DDFE012229002000FFF7EFFEF0
:1020B000002229002000FFF716FF8020C000FFF754
:1020C000B6FE324CE1235B02002200212000FFF724
:1020D00055FF0023002200212000FFF73BFF0C21C9
:1020E0002000FFF731FF00212000FFF741FF002112
:1020F0002000FFF722FF00212000FFF717FF20003C
:10210000FFF70EFF2000FFF771FF2000FFF703FF2E
:10211000300000280BD01E4806602000FFF784FF27
:1021200001210820FFF7FCFD0820FFF7EDFD70BD41
:102130005000404858004048F8B507000E00002401
:1021400020003100C0B2C9B288420DD20F4D280024
:10215000FFF764FF0028F9D02000C0B2395C2800E6
:10216000FFF767FF641CEBE7F1BD0000FFFFFFF125
:10217000FFE9FFEFFFCFFFFFFFFCFFFF0024F400AC
:1021800000300410F0FF0000FFB7FFFF00400041E7
:10219000A8000020F8B507000C0016000025012F4C
:1021A00004D0022F02D00020C0430FE0002C01D148
:1021B00000200BE03000461E002806D00121200040
:1021C000FFF7BAFF641C6D1CF4E72800F2BD01B5EF
:1021D000012269460120FFF7DDFF009802BD70472C
:1021E00080490A6882430A607F490A6802430A609C
:1021F00070477D490A6882430A607A490A68024347
:102200000A60704778490A6882430A6075490A681B
:1022100082430A60704775490A6882430A607449BC
:102220000A6802430A60704771490A6882430A607B
:102230006E490A6802430A6070476D490A68824322
:102240000A606A490A6882430A60704781B0794926
:102250000A6802430A60096801400091009901B0D0
:10226000704730B403680C004C4303256C43A34310
:102270000C004C4354431C43046030BC704710B402
:1022800043688B430C0054431C43446010BC7047AC
:1022900030B483680C004C4303256C43A3430C000B
:1022A0004C4354431C43846030BC704770B50400F9
:1022B0000D0016009020C005844211D1002E03D0DD
:1022C000022E09D004D31CE02800FFF79BFF18E082
:1022D0002800FFF785FF14E02800FFF78AFF10E0D1
:1022E000002E03D0022E09D004D30AE02800FFF705
:1022F000A4FF06E02800FFF78EFF02E02800FFF7AA
:1023000093FF70BD8161704742694A4042617047E6
:1023100070B506003000C0B200281DD10420FFF7C0
:1023200095FF9024E40540212000FFF7EBFF0122F8
:1023300040212000FFF795FF022240212000FFF7F7
:10234000A7FF002240212000FFF799FF0122402132
:102350002000FFF7ABFF44E03000C0B201281ED1DF
:102360000820FFF773FF344D80246400210028000B
:10237000FFF7C8FF012221002800FFF772FF0222A9
:1023800021002800FFF784FF002221002800FFF72A
:1023900076FF012221002800FFF788FF21E03000AE
:1023A000C0B202281DD10820FFF750FF8024A400EE
:1023B000214D21002800FFF7A5FF01222100280060
:1023C000FFF74FFF022221002800FFF761FF0022E4
:1023D00021002800FFF753FF012221002800FFF70A
:1023E00065FF70BD24005048200050482C00504824
:1023F0002800504810B504002000C0B2002805D1C4
:1024000040219020C005FFF77FFF12E02000C0B2FE
:10241000012805D1802149000748FFF775FF08E032
:102420002000C0B2022804D1802189000248FFF7B1
:102430006BFF10BD50004048000010480EB4C0B5FE
:10244000020003A801900020009001AB0121044884
:1024500078440C3000F0F0F9029906B0084700BF4C
:10246000B90B000010B50400002C01D1012053E08D
:10247000607E002804D100202076200000F08AF839
:1024800002206076CA202168486253202168486291
:10249000200000F05EF8002806D0FF202168486286
:1024A00004206076012037E0206880681B490140E5
:1024B0002068816020688068616822690A436169D8
:1024C0001143014320688160E06821680861206849
:1024D0000069A16809040143206801612068C0689F
:1024E000802188432168C8602068806880060DD4F8
:1024F000200000F015F8002808D0FF20216848626D
:102500000420607600202076012005E0FF2021686D
:10251000486201206076002010BD0000BFFF8FFFE1
:1025200038B504002068C068A02188432168C860CD
:1025300000F030FC05002068C068800607D400F079
:1025400029FC401B12498842F5D3032000E00020FB
:1025500032BD70B5040040262068C06830400028B5
:1025600013D10020C0432168C86000F013FC0500AF
:102570002068C0683040002807D100F00BFC401BE9
:1025800003498842F4D3032000E0002070BD00001E
:10259000E903000070477047F7B50400207E01286A
:1025A00001D102206DE00125257602206076CA2047
:1025B000216848625320216848628026F60020681E
:1025C00080683040002816D000F0E4FB00902068BE
:1025D000C06840070FD500F0DDFB0099401A334971
:1025E0008842F4D3FF2021684862032060760020EF
:1025F0002076032045E0206880682D49014020684E
:1026000081602068C068802108402A490143206811
:10261000C16000F0BFFB07002068C06840070ED40F
:1026200000F0B8FBC01B21498842F5D3FF20216888
:1026300048620320607600202076032021E0019884
:102640002168486120688068072188432168886084
:102650002068806802990143206881602068806852
:102660008021C90101432068816020688068064399
:1026700020688660FF202168486265760020207609
:102680000020FEBD10B504002068C06840050AD5D2
:102690002000FFF735F82068C06880210840054910
:1026A00001432068C1600120607610BDE90300008D
:1026B000FFFBFFFF7FFBFFFF24490A68244B134009
:1026C00003430B60704781B022490A6802430A60E5
:1026D000096801400091009901B0704778B585B054
:1026E00004000D00022001900320039000260296B2
:1026F000002C0BD10420FFF7E6FF10200090049679
:1027000069469020C005FFF72FF91AE0012C0CD183
:102710000420FFF7D8FF8020C0000090049669468F
:102720009020C005FFF720F90BE00820FFF7CBFF52
:102730008020400100900120049069460648FFF780
:1027400013F92800FFF7B8FF06B070BD0800404835
:10275000FFFFFFFC500040480000104870B5040027
:1027600000F018FB050026000020C043864202D07E
:1027700004480068361800F00DFB401BB042FAD345
:1027800070BD00BF340000201206130A1A43130C58
:102790001A4300BF094205D0830705D00270401CD0
:1027A000491EF9D1704700001300103906D330B428
:1027B0001400150010393CC0FCD230BC490700D3CE
:1027C0000CC000D504C0890002D30280801C0029FF
:1027D00000D5027070477047F8B505000024144E0C
:1027E000306800281FD000F0DBFA0700FA208000D4
:1027F0003168FEF77EFA01003800FEF77AFAFFF73B
:102800005FF800280CD1042D07D229000020C04316
:10281000FFF73FF80748056007E00120040004E0E7
:102820000120040001E0012004002000C0B2F2BD3C
:102830003400002030000020F0B597B005001600ED
:102840001F001C986A460023002418C2059104A9A1
:102850002B2288540B9303950F960EE023000F9ABA
:1028600004A9039800F07AFA002800D5D8E001E026
:10287000F4D501240F9800190F900F98007825289F
:1028800009D10020089009900A90022408210291A1
:1028900004210F9D0CE06A460021C9430F9800F007
:1028A000B3FA0400E4D10B98BCE00200012010430D
:1028B0006D1C2A78202AF8D0232A0AD02B2A04D08B
:1028C0002D2A04D0302A07D009E02043F0E708433E
:1028D000EEE702000820EAE702001020E7E72A2AD4
:1028E0000CD13B681A681B1D3B600D92002A03D572
:1028F00053420D93014308006D1C14E000210D911B
:10290000004A0BE0CBCCCC0C0D9B934205DA9E0029
:10291000F3185B00591830390D916D1C29780B00A4
:10292000303B0A2BF0D329782E2903D00021C9434C
:102930000C9125E06D1C29782A2906D139680A688E
:10294000091D39600C926D1C1AE02D2902D12D232E
:102950006D1C00E0002300210C910CE0002B09D13C
:102960000C9AB84EB24205DA9600B21852005118CD
:1029700030390C916D1C29780A00303A0A2AEDD3BF
:1029800004A908852E783100AFA000F045FA002890
:1029900001D06D1C00E0002604A82A214654405CAA
:1029A000682807D12878682804D1622004A92A223F
:1029B00088546D1C11A807902A78681C0F90252A4E
:1029C00013D0582A4FD0632A00D1B1E0642A79D0BD
:1029D000692A77D06F2A46D0702A3BD0732A0AD052
:1029E000752A40D0782A3ED0ABE0012008902520FF
:1029F00011A90870AFE038680468001D38600694BB
:102A0000002C14D104A82B21405C00280CD00024F9
:102A1000E44300BF8EA000F009FA201A00D19AE02A
:102A20000020C04317B0F0BD90A0069093E00C9D2D
:102A3000002D03D5200000F01DFA09E02A00002136
:102A4000200000F01FFA002801D0001B00E0280041
:102A5000099080E038680168001D3860049111A871
:102A60000690782160E004AB2A20185C622803D02D
:102A7000682807D06C280BE039680868091D3960A0
:102A8000C0B209E039680868091D396080B203E006
:102A900039680868091D39600490188D0299C0B220
:102AA00008423CD00498002839D0202010437828D0
:102AB00035D1089811A930230B54401C431C0893AE
:102AC0000A542CE004AB2A20185C622803D0682842
:102AD00007D06C280BE039680868091D396040B2DE
:102AE00009E039680868091D396000B203E03968F7
:102AF0000868091D39600490002802D508982D2126
:102B000009E0188D204202D008982B2103E0C0076D
:102B100005D50898202111AB1954401C089011A824
:102B2000089940180690110004A800F0A0F812E0DF
:102B30000120089038680168001D386011A80170F4
:102B400009E001200890252011A90870100002D08A
:102B5000089411A842700D980899401A0A99401AD1
:102B60000999401A109004A82821405C400713D40A
:102B7000202069460872109800280DDD109C039DE6
:102B8000012302AA04A9280000F0E8F8002800D0D8
:102B900046E7641EF4D10395089D11AC002D0ED0BC
:102BA000039E21780598B0470590002800D137E7AB
:102BB0000B98401C0B90641C6D1EF2D103963020C4
:102BC000694608720A9C002C0CDD039D012302AAB1
:102BD00004A9280000F0C2F8002800D020E7641EF5
:102BE000F4D10395069C099D002D0ED0039E2178FB
:102BF0000598B0470590002800D111E70B98401CBC
:102C00000B90641C6D1EF2D1039604A82821405C31
:102C1000400700D431E62020694608721098002849
:102C200000DC2AE6109C039D0F9E012302AA04A942
:102C3000280000F093F8002800D0F1E6641E00D1CF
:102C400009E6F2E7CBCCCC0C686C747A4C0000003F
:102C50007072696E74665F733A20626164202573D6
:102C600020617267756D656E740000000000F0B53C
:102C700083B00A00C4686F2901D1082506E020212D
:102C80001143782901D00A2500E010251827016892
:102C90000E00642A01D0692A03D1002901D57142AE
:102CA0000E00002E0CD1016A002909D1082D31D166
:102CB0002821415C09072DD517273021E17529E02E
:102CC0000290684602707F1E019730002900FEF7CF
:102CD00010F83031C8B23A2803DB68460078513822
:102CE0000918E15530002900FEF703F8060004D06A
:102CF00002988068E1198842E5D30298082D09D12D
:102D00002821415C090705D5E15D302902D07F1EED
:102D10003021E1551821C91B4161E2198260026A24
:102D2000914206DA511A8161018D0B4A0A400285EF
:102D300010E0002A0ED52822825C14231340102BA9
:102D400008D1426A0369D21A8369D21A511A012939
:102D500000DB816103B0F0BDEFFF0000F8B5002497
:102D6000002B11D007000E0014001D0021787068A0
:102D7000B8477060002809D0F069401CF06100205D
:102D8000641C6D1EF2D104002000F2BD0020C0437F
:102D9000F9E7704701480068704700BFAC000020A9
:102DA00001480068704700003C00002030B45368C0
:102DB000D41803E05B1C491E641C401C042B06DA7B
:102DC000002904D0057825700578002DF2D15360D4
:102DD00030BC704738B500290ED01D001400FFF735
:102DE000E5FF616820006A6B90470122D243811A97
:102DF00002D0491E02D004E0012000E00020C043C0
:102E000032BD0021616032BD80B5024BFFF7E2FFA9
:102E100002BD000040000020C9B202788A4203D0FF
:102E2000401C002AF9D100207047704780B5002867
:102E300001D100BF07A006490B68002B03D0222256
:102E40000021984701E000F028F8222002BD000090
:102E5000AC030020636F6E73747261696E742068D6
:102E6000616E646C65723A20626164206D65737393
:102E700061676500431C0178401C0942FBD1C01A00
:102E800070477047C9B2521E05D30378401C8B426D
:102E9000F9D1401E70470020704780B5012000F036
:102EA00001F801BD80B500BF00BF024A1100182023
:102EB000ABBEFBE72600020070B40123002413E040
:102EC0000168001D194202D04D466D1E49190C6063
:102ED000091D121F042AFAD20D00960701D50C8095
:102EE000AD1C1A4000D02C700268001D002AE7D1EA
:102EF00070BC704730B501684118446862088A1890
:102F00008368E40704D54C461B1901E0641C06D114
:102F100091420BD00C7864B2491C0D78491C1D708D
:102F20005B1C002CF2D4641EF7D5F1E70C3030BDE9
:102F300010B5074979441831064C7C44163404E036
:102F4000081D0A68891888470100A142F8D110BD00
:102F5000440000007800000080B500F00FF801BDCB
:102F600080B50448FFF78EFB01BD80B50248FDF730
:102F7000D9FF01BD7C0300208800002003480168C0
:102F8000034A126889180160704700BFAC00002036
:102F90003400002025FFFFFF2C00000088000020E7
:102FA000580000005C0300200000000049FFFFFF04
:102FB000EC00000018000000C000002039FFFFFFF7
:102FC000BA0000004400000030000020FDF7D8F9EE
:102FD000002801D0FFF7ACFF00BF00BF002000BFFA
:102FE00000BFFEF789FA00F000F880B500F002F8A3
:102FF00001BD704707463846FFF754FFFBE77047AF
:10300000010002000400060008000A000C00100085
:10301000200040008000000138B505000C002000B1
:10302000FFF7D5F8A04200D00025280032BD704738
:103030005254435374617475733D25640A0D000046
:1030400000BF00BF00BF00BFFFF7C0FF0078401EF9
:103050008041C043C00F704770477047704770474A
:1030600070477047704770477047704770477047A8
:10307000704770477047704770470004FD000001BB
:10308000FC000001FD000790D003A20D041001D147
:1030900000034D300410F8000001F90081008100A8
:0830A000810081008100DF00C6
:040000051004304172
:00000001FF
