:020000041004E6
:1000000000000120C51E0410F1080410930E041016
:10001000AA5555AA45554C420000000000000000BA
:10002000000000000000000000000000130F04109A
:1000300000000000000000006B0F04109D1E041063
:10004000771604101B1D04106B1D04108F1E041066
:100050009B1E0410DD1E0410DF1E0410E11E0410A0
:10006000E31E0410E51E0410E71E0410A51E041074
:10007000E91E0410EB1E0410ED1E0410EF1E041008
:10008000F11E0410F31E0410F51E0410F71E0410D8
:10009000F91E0410FB1E0410FD1E0410FF1E0410A8
:1000A000011F0410031F04100000000000000000E6
:1000B0000000000000000000000000000000000040
:1000C00010B5C20018231340FF249C40E243890767
:1000D000090E9940030004D45F489B089B00C01898
:1000E00006E05E4B0007000F0838800880001818F3
:1000F00003681A401143016010BD000081B05848E8
:10010000016802220A430260002102E000BF009958
:10011000491C009100990629F8DB016804220A4372
:10012000026001B0704780B54E480068002811D1C8
:100130004D48006800280DD001204C49886000F02F
:10014000D8FBBFF34F8F4A484A490860BFF34F8F2F
:1001500000BFFDE7012002BD80B503210020FFF7AD
:10016000AFFF03210120FFF7ABFF03210220FFF7C0
:10017000A7FF03210320FFF7A3FF03210420FFF7BC
:100180009FFF03210520FFF79BFF03210620FFF7B8
:1001900097FF03210720FFF793FF03210820FFF7B4
:1001A0008FFF03210920FFF78BFF03210A20FFF7B0
:1001B00087FF03210B20FFF783FF03210C20FFF7AC
:1001C0007FFF03210D20FFF77BFF03210E20FFF7A8
:1001D00077FF03210F20FFF773FF03211020FFF7A4
:1001E0006FFF03211120FFF76BFF00211220FFF7A3
:1001F00067FF03211320FFF763FF03211420FFF79C
:100200005FFF03211520FFF75BFF03211620FFF797
:1002100057FF01211720FFF753FF00211820FFF798
:100220004FFF03211920FFF74BFF01BD30B50D0033
:10023000AE4C002A0AD0FA21890000F05BFB401E78
:10024000684360600020A060052002E02068012172
:100250008843206030BD000000E400E01CED00E0B9
:100260000800404894004048100050480400002016
:100270000400FA050CED00E0FEB50121002819D0BC
:100280009B480368E024A34320241C430460836D3F
:100290000624A34302241C438465836B0B438363BE
:1002A000836B8B438363836D0B438365806D084051
:1002B000009000980F238F4804698F4DAC4213D1F2
:1002C00004680568066802685202520F02920068CC
:1002D0004001420F0091300C18402E0AF0253540A5
:1002E000240A1C40019404E0082001907025002499
:1002F0000094824C0F26F643276B37403843206327
:10030000E06AF027B8430543E562E06A06400198D9
:100310003043E0623820009D002D0DD0256807266F
:10032000B543029E7607760F2E43266025688543E7
:10033000D20002402A4322603F22D243A56F1540DB
:100340000A262E43A667A56F40262E43A667E56FB3
:10035000154004262E43E667E56F80262E43E667A8
:10036000E56F4026B543E567654D2E6816402E6063
:100370006E681640102737436F60AE68164020271E
:100380003743AF60EE68164030273743EF602E6981
:1003900016403043286168691040392606436E6173
:1003A000A86910403A260643AE61E86910403B2632
:1003B0000643EE61286A10403C2606432E62686AB6
:1003C00002403D20104368625522FF25ED43B648A8
:1003D00006682E4016430660C6682E4066273743DF
:1003E000C760066A2E4032430262026C2A401D2614
:1003F00016430664C26B2A4059261643C663426CF4
:1004000015402D222A434264426A0A4342628A0707
:1004100015681268F0262E4013403343202B63D317
:10042000A24A11705E235370236B9370D1705D23C9
:100430001371E36A53710623009D002D05D091715D
:100440005223D371236813720923D1545B1C1224E5
:10045000DDB254555B1C0468DDB254555B1CDDB243
:1004600051555B1C1524DDB254555B1CC468DDB2CC
:1004700054555B1CDDB251555B1C1A24DDB254553A
:100480005B1C046ADDB254555B1CDDB251555B1C2C
:100490002224DDB254555B1C046CDDB254555B1C48
:1004A000DDB251555B1C2124DDB254555B1CC46B7D
:1004B000DDB254555B1CDDB251555B1C2324DDB20B
:1004C00054555B1C446CDDB254555B1CDCB21155B9
:1004D0005B1C1B21DCB211555B1C406AD9B2505425
:1004E00000205B1CDBB2D054F7BD000010E000E040
:1004F00008004048E81E0010CCECBCFC4816006028
:10050000E8160060F3B581B08020C005016800687E
:10051000F0220A400007000F10430090644E0122B1
:1005200064213000FFF782FE624D28688021490275
:10053000014329600027604C2868800303D42068A9
:10054000C003F9D50427002200210020FFF76EFE2A
:10055000380034D168460079002804D1009810286A
:100560006AD10620FEBDE020C04369460979491ED4
:10057000062950D801A2525C974400BF0846546235
:10058000707E8C00A9680840A86070004B4E3060F7
:100590000122C821FFF74AFE286880218901014312
:1005A00029602868400403D42068C003F9D50527D2
:1005B000002200210020FFF739FE38002CD038003F
:1005C000FEBDA968084020210143A9603000DDE795
:1005D000A968084040210143A9607008D6E7A968CE
:1005E000084060210143A960B008CFE7A96808402E
:1005F00080210143A960F008C8E7A9680840A0214C
:100600000143A9603009C1E7A9680840C02101433E
:10061000A9607009BAE7FEE73021C9439F483268F4
:100620009F4B9A42026804D1114010220A43026093
:1006300004E01140016001E0FFF760FD6846007AC8
:10064000FF2822D00621C943012803D06A46127927
:10065000032A06D1286E01400420084328660120A1
:1006600004E02A6E114002220A432A6600991029EA
:100670000BD18C496A461279012A08D101280ED182
:100680002A20086048680007FCD40020FEBD6A46A6
:100690001279022A05D1012803D12920F1E7002887
:1006A000FBD02820EDE7000048150060E80300209B
:1006B0000048E8010000404810E000E098030020F6
:1006C000F3B583B078487949086079490861794F72
:1006D0003868E02101433960002500240122C82147
:1006E0007548FFF7A3FD754938690191400704D4A7
:1006F0000868C003F8D5012401252E00250000223A
:1007000000210020FFF792FD6D4C002D2ED030000F
:100710002BD100250122962149006748FFF786FD6D
:100720006848796A01407962B96A0840B862A0688D
:1007300065490140802000020843A060E068602114
:100740000143E16020681021014321602068800698
:1007500004D401980068C003F8D5022500220021C6
:100760000020FFF763FD280074D095E0A06857498A
:1007700001408020C0000843A060B8693021884350
:1007800020210143B961A068802149010143A16092
:100790004F4A50694F49884219D11068116815684D
:1007A00013681B041B0F0293136801221E02FC2313
:1007B0009B053340EE091E2535400095CD01E02113
:1007C000890129408501F0208000284007E0D00CF5
:1007D000C021490110220092F0235B050022E56848
:1007E0003D4E2E403343E360E36880252D041D43D6
:1007F000E5601E23DB43002A09D0E2681A40029D0F
:100800006D001543E560E26801251543E560334A54
:1008100015682B40009D1D431560136801251D437D
:10082000156013682E4D1D4028431060106820236A
:100830000343136010682B4B034019431160106889
:100840008021C90001431160B8698021490001433A
:10085000B9615EE76846047CFF2C02D00120FFF7F7
:100860000BFD6846007B204980220A600A681F4B06
:100870001340802292011A430A600A6870239A4347
:10088000302313430B602100FFF73CFE010003D12E
:10089000FFF762FC62B6002005B0F0BD0410004016
:1008A0000090D003005000400000041008ED00E06C
:1008B00004000020040050480024F40010E000E090
:1008C00000004048FFCFFFFFFF7FFEFFFFF3FFFF69
:1008D000E41E0010CCECBCFCFFFFFFC094005048AD
:1008E0003FFCFFFFFFC7FFFF98004048FFC0FFFF2E
:1008F00070477047094214D088420FD30122030C7D
:1009000001D100041204002300185B418B4200D384
:100910005B1A5241F8D31900100070470100002003
:10092000704708B500F006F808BD0268531C036064
:100930001170704770474300F0B597B0050016007E
:100940001F001C986A460023002418C2059104A9C0
:100950002B2288540B9303950F960EE023000F9AD9
:1009600004A9039800F07AFA002800D5D8E001E045
:10097000F4D501240F9800190F900F9800782528BE
:1009800009D10020089009900A90022408210291C0
:1009900004210F9D0CE06A460021C9430F9800F026
:1009A000A7FA0400E4D10B98BCE002000120104338
:1009B0006D1C2A78202AF8D0232A0AD02B2A04D0AA
:1009C0002D2A04D0302A07D009E02043F0E708435D
:1009D000EEE702000820EAE702001020E7E72A2AF3
:1009E0000CD13B681A681B1D3B600D92002A03D591
:1009F00053420D93014308006D1C14E000210D913A
:100A0000004A0BE0CBCCCC0C0D9B934205DA9E0048
:100A1000F3185B00591830390D916D1C29780B00C3
:100A2000303B0A2BF0D329782E2903D00021C9436B
:100A30000C9125E06D1C29782A2906D139680A68AD
:100A4000091D39600C926D1C1AE02D2902D12D234D
:100A50006D1C00E0002300210C910CE0002B09D15B
:100A60000C9AB84EB24205DA9600B21852005118EC
:100A700030390C916D1C29780A00303A0A2AEDD3DE
:100A800004A908852E783100AFA000F039FA0028BB
:100A900001D06D1C00E0002604A82A214654405CC9
:100AA000682807D12878682804D1622004A92A225E
:100AB00088546D1C11A807902A78681C0F90252A6D
:100AC00013D0582A4FD0632A00D1B1E0642A79D0DC
:100AD000692A77D06F2A46D0702A3BD0732A0AD071
:100AE000752A40D0782A3ED0ABE00120089025201E
:100AF00011A90870AFE038680468001D38600694DA
:100B0000002C14D104A82B21405C00280CD0002418
:100B1000E44300BF8EA000F0FDF9201A00D19AE056
:100B20000020C04317B0F0BD90A0069093E00C9D4C
:100B3000002D03D5200000F011FA09E02A00002161
:100B4000200000F013FA002801D0001B00E028006C
:100B5000099080E038680168001D3860049111A890
:100B60000690782160E004AB2A20185C622803D04C
:100B7000682807D06C280BE039680868091D3960BF
:100B8000C0B209E039680868091D396080B203E025
:100B900039680868091D39600490188D0299C0B23F
:100BA00008423CD00498002839D0202010437828EF
:100BB00035D1089811A930230B54401C431C0893CD
:100BC0000A542CE004AB2A20185C622803D0682861
:100BD00007D06C280BE039680868091D396040B2FD
:100BE00009E039680868091D396000B203E0396816
:100BF0000868091D39600490002802D508982D2145
:100C000009E0188D204202D008982B2103E0C0078C
:100C100005D50898202111AB1954401C089011A843
:100C2000089940180690110004A800F0A0F812E0FE
:100C30000120089038680168001D386011A8017013
:100C400009E001200890252011A90870100002D0A9
:100C5000089411A842700D980899401A0A99401AF0
:100C60000999401A109004A82821405C400713D429
:100C7000202069460872109800280DDD109C039D05
:100C8000012302AA04A9280000F0E8F8002800D0F7
:100C900046E7641EF4D10395089D11AC002D0ED0DB
:100CA000039E21780598B0470590002800D137E7CA
:100CB0000B98401C0B90641C6D1EF2D103963020E3
:100CC000694608720A9C002C0CDD039D012302AAD0
:100CD00004A9280000F0C2F8002800D020E7641E14
:100CE000F4D10395069C099D002D0ED0039E21781A
:100CF0000598B0470590002800D111E70B98401CDB
:100D00000B90641C6D1EF2D1039604A82821405C50
:100D1000400700D431E62020694608721098002868
:100D200000DC2AE6109C039D0F9E012302AA04A961
:100D3000280000F093F8002800D0F1E6641E00D1EE
:100D400009E6F2E7CBCCCC0C686C747A4C0000005E
:100D50007072696E74665F733A20626164202573F5
:100D600020617267756D656E740000000000F0B55B
:100D700083B00A00C4686F2901D1082506E020214C
:100D80001143782901D00A2500E0102518270168B1
:100D90000E00642A01D0692A03D1002901D57142CD
:100DA0000E00002E0CD1016A002909D1082D31D185
:100DB0002821415C09072DD517273021E17529E04D
:100DC0000290684602707F1E019730002900FFF7ED
:100DD00091FD3031C8B23A2803DB684600785138BB
:100DE0000918E15530002900FFF784FD060004D002
:100DF00002988068E1198842E5D30298082D09D14C
:100E00002821415C090705D5E15D302902D07F1E0C
:100E10003021E1551821C91B4161E2198260026A43
:100E2000914206DA511A8161018D0B4A0A4002850E
:100E300010E0002A0ED52822825C14231340102BC8
:100E400008D1426A0369D21A8369D21A511A012958
:100E500000DB816103B0F0BDEFFF0000F8B50024B6
:100E6000002B11D007000E0014001D0021787068BF
:100E7000B8477060002809D0F069401CF06100207C
:100E8000641C6D1EF2D104002000F2BD0020C0439E
:100E9000F9E7704730B45368D41803E05B1C491E6F
:100EA000641C401C042B06DA002904D00578257048
:100EB0000578002DF2D1536030BC704738B5002959
:100EC0000ED01D001400FFF7E5FF616820006A6B7B
:100ED00090470122D243811A02D0491E02D004E079
:100EE000012000E00020C04332BD0021616032BD1E
:100EF00080B5024BFFF7E2FF02BD00009C0300201B
:100F0000C9B202788A4203D0401C002AF9D10020DD
:100F10007047704780B5002801D100BF07A006497F
:100F20000B68002B03D022220021984701E000F03B
:100F300028F8222002BD000008040020636F6E73B1
:100F4000747261696E742068616E646C65723A20B7
:100F5000626164206D65737361676500431C01788D
:100F6000401C0942FBD1C01A70477047C9B2521EDB
:100F700005D30378401C8B42F9D1401E70470020F6
:100F8000704780B5012000F001F801BD80B500BFB9
:100F900000BF024A11001820ABBEFBE7260002008A
:100FA000F8B5040042D00027607E002803D12776E0
:100FB000200000F054FA02206076CA2021684862BE
:100FC0005320216848620425FF26200000F014FA0F
:100FD0000028206802D04662657627E08168A14A31
:100FE0000A40826020688168636822691A436369E5
:100FF00013430B438360E06821680861206801693E
:10100000A26812040A4302612068C16880229143E9
:10101000C1602068806880060AD4200000F0D0F902
:10102000002805D020684662657627760120F2BD4B
:1010300020684662012060760020F2BDF8B5040009
:10104000207E012801D10220F2BD0120207602205D
:1010500060762368402000250091002A996815D108
:10106000084001D10099CD700098007800F0E4F9B3
:1010700006040098407800F0DFF9000230430600D3
:101080000098807800F0D8F930430DE0084001D195
:101090000099CD7000980078000400994978090201
:1010A00001430098807808430099C9780F040743EA
:1010B000CA2021684862532021684862FF26200028
:1010C00000F09AF900281FD167483840216808606D
:1010D00020688168654A0A40826020688168009AB9
:1010E000D268009B1B6913430B4383602068C1686F
:1010F00080229143C1602068806880060BD4200064
:1011000000F05EF9002806D0206846620420607670
:1011100025760120F2BD2068466232E110B50C0050
:101120000068816A616001694904490CA160016835
:101130004D480840010C8B069B0E2370030A637018
:10114000A07040200140E170002A0BD1207800F00F
:101150007EF92070607800F07AF96070A07800F075
:1011600076F9A070002010BDF8B50400207E01289B
:1011700001D10220F2BD0D00012020760220607610
:101180006878002A3CD1C10603D5EF2101400A311D
:101190006970E87800F050F90604687800F04CF9BE
:1011A000000230430600A87800F046F93043297861
:1011B0004F030743CA2021684862532021684862D0
:1011C000FF250026200000F017F9002811D17048F3
:1011D0003840216848602068C16880229143C1601E
:1011E00020688068800615D4200000F0E9F8002807
:1011F00010D0206845620420607626760120F2BD7A
:10120000E978090400020843A978014328784703D4
:101210000F43CFE7206845620120607626760020E4
:10122000F2BD10B50C000068416859480840010C37
:10123000E170C104C90E6170A0700004400F2070FD
:10124000002A0BD1E07800F002F9E070607800F03D
:10125000FEF86070A07800F0FAF8A070002010BDD1
:1012600000000000BFFF8FFF7F7F7F00FFFFFBFFBD
:10127000F8B50400207E012801D10220F2BD012032
:101280002076022060762568402000230E00002A88
:10129000A96818D1084000D1F370307800F0CCF87C
:1012A0000504707800F0C8F807022F43B07800F00A
:1012B000C3F805002020305C00F0BEF83D43F17813
:1012C000090429430EE0084000D1F370307800048F
:1012D000717809020143B0780843F17809040143A9
:1012E0002020305C00060843F169014375690D4315
:1012F0007068B7690743CA20216848625320216893
:101300004862706A80214900884229D1206881683A
:10131000384A0A4082602068C16880221140454AEC
:101320000A43C26000F09CF83E0007002068C168D4
:10133000C90706D400F094F8C01B3D498842F5D394
:1013400016E0C561206846642068816880225200EA
:101350000A43826020688168802252010A438260C9
:10136000FF20216848620120607600202076F2BDCF
:10137000FF20216848620320607600202076032049
:10138000F2BD0120607625760020F2BD000000004D
:101390003FFFFF0010B5040020688168C9040CD528
:1013A000C068C00509D5200000F016F92068C168A2
:1013B000802211401F4A0A43C2600120607610BD9E
:1013C00038B504002068C168A0229143C16000F0D4
:1013D00047F805002068C068800607D400F040F890
:1013E000401B13498842F5D3032032BD002032BD93
:1013F00000000000FFFEFFFF70B5050028684024D4
:10140000C168214011D10021C943C16000F028F812
:1014100006002868C068204007D100F021F8801B32
:1014200003498842F5D3032070BD002070BD000041
:10143000E90300007FFEFFFF002101E0491C0A389C
:10144000C2B20A2AFAD209010843C0B270470109A0
:101450000A2251430007000F0818C0B270477047B6
:1014600001480068704700BF5C03002038B598B0A1
:10147000FF210220FFF724F9002800D0FEE700F04A
:10148000EDF8002000F06AF9012000F079FA02205E
:1014900000F076FA1422002102A800F0EBFA0422F0
:1014A0000021684600F0E6FA2822002107A800F093
:1014B000E1FA1C22002111A800F0DCFA04201190AE
:1014C000102013905A4D11A800F0DEFA00286AD1BE
:1014D000584880214901826B0A438263826B0A402B
:1014E0000192019A8269114381618169524A0A40DD
:1014F000826101680906FCD55048286000246C60B0
:101500007F20A860FF20E8602C616C612800FFF755
:1015100047FD002801D000F07FF802A823210170C8
:10152000592141705021817005940694012202A92D
:101530002800FFF783FD002801D000F06DF8684611
:101540000221017012214170312181701921C17075
:10155000012269462800FFF707FE002801D000F0AD
:101560005BF807A80480847008940A940B940C9488
:101570000D948021C9050E91032120228154D000B1
:101580001090012207A92800FFF772FE002801D061
:1015900000F042F82A4801680902090A0160802027
:1015A0000001284908600120E86127A4FA20800092
:1015B00000F052FB2800203000F014F80221200037
:1015C00000F051F90221200000F04DF9112128000E
:1015D000203000F048F9E9E780B5012000F012FA68
:1015E00001BD000030B587B00500114C002202A9F2
:1015F0002000FFF793FD002201A92000FFF711FE54
:1016000002A8817800914378027800BF0FA12800DA
:1016100000F036FB07B030BD80B50E200449C8612C
:10162000022000F000FAFA20800000F015FBF7E736
:10163000680300201C004048FFEFFFFF004000400F
:1016400008E400E000E100E00A0D0000253032640B
:101650003A253032643A25303264000010B5002457
:10166000032000F02DFB002801D0012401E000F050
:101670004DFB200010BD704781B082490A680243CB
:101680000A60096808400090009801B0704710B5E2
:101690000B004B4301685C00E418A14353430B4328
:1016A000036010BD43688B43514319434160704749
:1016B00010B50B004B4381685C00E418A143534311
:1016C0000B43836010BD30B5CB436F4C9025ED05C7
:1016D000A8421AD1002A03D0022A0FD007D330BD66
:1016E00020681840206060680340636030BD606817
:1016F0000340636020680143216030BD20680340DF
:10170000236060680143616030BD002A03D0022A73
:101710000FD007D330BDA0681840A060E068034038
:10172000E36030BDE0680340E360A0680143A1606E
:1017300030BDA0680340A360E0680143E16030BDB4
:1017400010B5090A0B004B434B434B43416A1C0144
:10175000E41AA14353430B43436210BD7CB506001A
:101760000420FFF789FF9025ED058024A4000222C4
:1017700021002800FFF78BFF022221002800FFF73D
:1017800097FF002221002800FFF78CFF0122210093
:101790002800FFF798FF002221002800FFF7D0FF64
:1017A0000420FFF769FF6408022221002800FFF7E8
:1017B0006EFF022221002800FFF77AFF002221009D
:1017C0002800FFF76FFF012221002800FFF77BFFB1
:1017D000002221002800FFF7B3FFA0002B490A6870
:1017E00002430A60096808400090009828488B214D
:1017F000C1600168274A0A4002604168264A0A40DF
:10180000426001680C220A4302608168234A0A4050
:1018100082608168224A0A4082608168C900C908E2
:101820008160016862050A43026041681D4A0A40FE
:10183000426081682A2291438160016801220A4343
:10184000026031000ED018490E60016820220A4360
:10185000026016480168FF22914340220A43026059
:101860001348046073BD10B50023124A06E01468E3
:101870002406FCD5DCB2045DD4605B1CDCB28C4277
:10188000F5D310BD50004048200050485800404853
:1018900000400041FFE9FFEFFFCFFFFFFFFCFFFF2C
:1018A000FFFFFFF1FFB7FFFFE403002008E400E0C3
:1018B00000E100E01C40004181B067490A68024332
:1018C0000A60096808400090009801B0704710B5A0
:1018D0000B004B4301685C00E418A14353430B43E6
:1018E000036010BD43688B43514319434160704707
:1018F00010B50B004B4381685C00E418A1435343CF
:101900000B43836010BD30B5CB43544C9025ED059F
:10191000A8421AD1002A03D0022A0FD007D330BD23
:1019200020681840206060680340636030BD6068D4
:101930000340636020680143216030BD206803409C
:10194000236060680143616030BD002A03D0022A31
:101950000FD007D330BDA0681840A060E0680340F6
:10196000E36030BDE0680340E360A0680143A1602C
:1019700030BDA0680340A360E0680143E16030BD72
:1019800038B5010018D10420FFF796FF9024E40534
:101990004020A061012240212000FFF798FF022291
:1019A00040212000FFF7A4FF002240212000FFF784
:1019B00099FF0122402121E0294C012805D108206E
:1019C000FFF77AFF80256D0006E0022819D1082074
:1019D000FFF772FF8025AD00A561012229002000DC
:1019E000FFF775FF022229002000FFF781FF002288
:1019F00029002000FFF776FF012229002000FFF7D1
:101A000082FF31BD010002D14020164909E016498C
:101A1000012802D18020400003E0022802D180206A
:101A2000800008607047010005D11048016840221D
:101A30004A40026070470E49012803D1086880229D
:101A4000520004E0022804D108688022920042403B
:101A50000A607047000000005000404820005048D5
:101A600000001048280000482800104814000048D2
:101A70001400104810B504000800110002002000F6
:101A800000F04CF9200010BDF8B504001AD08027F2
:101A90007F026A4D2078C00708D52868384013D0E7
:101AA0002868800302D5606800280BD02078800762
:101AB0004FD5286807404CD12968E06849052AD5E8
:101AC000002828D10120F2BD6068B842286802D100
:101AD0003843286002E05A490140296060680028C4
:101AE0000CD0FFF7BDFC060028688003DED4FFF7AA
:101AF000B7FC801B6528F7D30320F2BDFFF7B0FCCD
:101B0000060028688003C10FD0D0FFF7A9FC801B16
:101B10006528F6D3F0E7002831D02868484901400D
:101B20002960FFF79DFC06002868400505D4FFF7F3
:101B300097FC801B0228F7D9DEE7E868434901409B
:101B4000206900060843E860E86880210904014331
:101B5000E96004272078000729D5606900282868F3
:101B60002DD038432860FFF77BFC0600286800076B
:101B700012D4FFF775FC801B0228F7D9BCE7FFF7EA
:101B80006FFC060028684005C10FE2D0FFF768FC33
:101B9000801B0228F6D9AFE7E8681E218843A169B7
:101BA00049000143E960E86801210143E9602068D8
:101BB000074040D0A068102110280FD114E0B8438E
:101BC0002860FFF74DFC060028680007C10FEED023
:101BD000FFF746FC801B0228F6D98DE740282868CD
:101BE00006D1402202432A6028680143296005E0AB
:101BF000884328602868402188432860144EA068E4
:101C000000280BD0FFF72CFC04002868800612D4B3
:101C1000FFF726FC001BB042F7D36DE7FFF720FC6F
:101C2000040028688006C10F05D0FFF719FC001BCF
:101C3000B042F6D360E70020F2BD0000000040484B
:101C4000FFFFFEFF0348006870470000FFFFFFC072
:101C5000891300009803002038B50500FFF700FC49
:101C600004000020C043854202D0044880682D183B
:101C7000FFF7F6FB001BA842FAD331BD5C0300203E
:101C80000CB418B583B004000A0006A802900194B1
:101C90000020009002AB01A9084878441E30FEF7EE
:101CA0004BFE0021019A1170002801D40198001BFD
:101CB00004B0019910BC03B0084700BF6FECFFFFF0
:101CC000F8B506000024104DA868002818D0FFF7CA
:101CD000B9FF0700FA208000A968FEF70BFE01009B
:101CE0003800FEF707FE00F062F8002808D1042E45
:101CF00006D231000020C04300F055F86E6000E0CD
:101D000001242000F2BD00BF5C03002080B500214B
:101D10000020C04300F047F801BD70471206130AC7
:101D20001A43130C1A4300BF094205D0830705D09C
:101D30000270401C491EF9D1704700001300103991
:101D400006D330B41400150010393CC0FCD230BCAE
:101D5000490700D30CC000D504C0890002D302801B
:101D6000801C002900D502707047704710B5C20072
:101D700018231340FF249C40E2438907090E994031
:101D8000030004D414489B089B00C01806E0134BC2
:101D90000007000F083880088000181803681A40F0
:101DA0001143016010BD80B5FFF7E0FF01BD10B524
:101DB000401E80214904884201D3012010BD084CF7
:101DC000606003210020C043FFF7D0FF0020A06027
:101DD0000721216010BD000000E400E01CED00E0E0
:101DE00010E000E030B501684118446862088A18C4
:101DF0008368E40704D54C461B1901E0641C06D136
:101E000091420BD00C7864B2491C0D78491C1D70AE
:101E10005B1C002CF2D4641EF7D5F1E70C3030BD0A
:101E200010B5074979441831064C7C44163404E057
:101E3000081D0A68891888470100A142F8D110BD21
:101E400008000000240000009DFFFFFFF7000000D5
:101E500018000000C00000208DFFFFFFA800000058
:101E6000560000005C030020FEF75DF9002801D059
:101E7000FFF7D6FF00BF00BF002000BF00BFFFF785
:101E8000F5FA00F000F880B500F002F801BD7047E7
:101E900007463846FFF77AF8FBE7704780B500F051
:101EA00009F801BD80B50248FFF774FA01BD0000D2
:101EB0006803002002480168826889180160704741
:101EC0005C03002000BF00BF00BF00BFFFF7CCFFD6
:101ED0000078401E8041C043C00F70477047704774
:101EE000704770477047704770477047704770473A
:101EF000704770477047704770477047704770472A
:101F000070477047FC000004FD000001DD00076819
:101F1000683A6D733A7373F7000790D0033609047B
:101F20001001D10003D11E0410F8000001D10000FF
:101F300000000000000000000000000000000000A1
:0F1F400000000081008100810081008100DF002E
:0400000510041EC500
:00000001FF
